:020000040000fa
:10000000f0ff00200d15000043190000e31f000061
:1000100000000000000000000000000000000000e0
:100020000000000000000000000000007f0f000042
:1000300000000000000000007f0f00007f0f0000a4
:100040007f0f00007f0f0000bd2000007f0f000029
:100050007f0f00007f0f00007f0f00007f0f000068
:100060007f0f00007f0f00007f0f00007f0f000058
:100070007f0f0000191c00007f0f00007f0f0000a1
:100080007f0f00007f0f00007f0f00007f0f000038
:100090007f0f00007f0f00007f0f00007f0f000028
:1000a0007f0f00007f0f00007f0f00007f0f000018
:1000b0007f0f00007f0f00001d2500007f0f000054
:020000040000fa
:1000c000f8b5c046f8bc08bc9e467047e51c000069
:1000d000f8b5c046f8bc08bc9e467047bd1c000081
:020000040000fa
:1000e000f0b587b00090009b0b20002b00d1e2e11f
:1000f000002603275b68049602931b8801960593ec
:100100000396049b059a93421ed1009b1a681378ac
:1001100059b200290bda0820002101268446049cec
:1001200088b2844200d9ffe07f210b401370039b0b
:10013000002b00d009e1019801231178002800d19b
:100140005be10b4313705ae1009bb5009b685d199e
:100150001e236a681178194001d001232b702b7877
:10016000042b73d00ad8022b2ed043d8012b23d0d6
:10017000049b033601339bb20493c2e7852b00d165
:1001800082e0862b00d1a9e0072bf1d12989538881
:1001900099425fd9c91a009b0298db6840799b5d40
:1001a00089b20341dbb28b4254d86b78002b69d102
:1001b00001232b701770dbe703930029d8d10223aa
:1001c0002b7008236b70d3e76978002910d0528810
:1001d000042904d92a810139697001237ce02b8923
:1001e0009342f8d002d9013b2b81f4e70133fbe7be
:1001f0002f70bde7298953889942b9d0009ad268f7
:1002000010d9cb1a0299925d49799bb20a41d2b2b8
:100210009a42add8029b1b79002ba9d007222a70e5
:100220006b70dae792195b1a11789bb299429fd8ea
:100230009378002b05d00499009801f045fb002825
:1002400096d104232b70029b9b78e9e72989538878
:10025000994202d92f700023b4e7009a5b1ad26842
:100260009bb2921911789942f4d29378002b06d060
:100270000499009801f028fb002800d078e76b78fb
:10028000002b47d0013bcbe7029b00991b7a096802
:100290000b7128895388984207d986232b70029bbb
:1002a0009b786b700123019316e0009a1b1ad268a9
:1002b0009bb291190a784978140001310c4101214f
:1002c000121bd2b201919a4200d251e786232b70c1
:1002d000029b9b786b700b00039349e72889538836
:1002e000984209d96b78002b01d12f7001e0013bb6
:1002f0006b70012301933be7009a1b1ad2689bb2f3
:1003000091190a784978140001310c41121bd2b2bc
:100310009a4204d285232b70029bdb78e8e76b7846
:10032000002be2d0013bbce70c2500984d438068d0
:1003300045196f683878304205d164462d78a54359
:1003400001d0304338700131e9e6029b597a002927
:1003500000d1f0e6802310785b420343137001293b
:1003600000d0e8e600218bb20393049b88b283425d
:1003700000d8e0e60c20009b48439b68082518182d
:10038000029303781c00ac4315d0852b01d0032bbe
:100390002ed10325009bdf682b004b43fb189b7875
:1003a0009c46002b07d000231e000595049c9c4210
:1003b00008d8002e1cd1012540680378ab43037098
:1003c0000131d0e7039c9c420fd00c255d43029c79
:1003d0002d5d042d01d0862d07d1059d5d437d192e
:1003e000ad78654501d10126049b01339bb2dde761
:1003f0000123406805782b43e1e799431170528847
:10040000584b11001b88c8318b4251d99b1a9bb2a3
:100410009c466346c82b4dd96346c83b9bb29c465d
:10042000009b1b685a88c8325a801a79002a00d06b
:1004300070e05a79002a01d0013a5a719a79002a5b
:1004400001d0013a9a71009a50688679002e07d03f
:100450005a79002a04d1078891b28f4234d85e714c
:10046000c579002d07d09a79002a04d1068891b267
:10047000b1423cd39d71009b5b68da78002ac8d0fa
:100480001f880c23002103207b4302938bb2bb42c5
:10049000bfd20c22009b4a439b689a181578852d81
:1004a00004d15578002d38d0013d55700131ede76c
:1004b000934202d3002007b0f0bd2b495918891a86
:1004c000c829f7d9013ba1e70c21009c5143a4683e
:1004d00061180d78032d01d0082d06d14c680d89c7
:1004e0006488ac4201d901350d810132b4e70c2199
:1004f00000985143806841180878032801d00828e3
:1005000006d14c6808896788874201d20138088182
:100510000132ace7013a1a71ade70124050014700d
:1005200052684d431070009ad2685519ad78002d6d
:10053000bcd0029c02321c1901920394039a93428c
:10054000b4d0019a1678ae4206d101225e683478a2
:10055000144201d01a703070019a0c3303320192a8
:0c056000ece7c04666010020ffff000031
:020000040000fa
:10056c00f0b5af4b89b01b7a002b00d1a1e1ad4b9c
:10057c001b6804931b6805931b880793aa4b1b6885
:10058c0006930023029303936b461a89079b9342ad
:10059c0005d80222a24b1a72039809b0f0bd0625a9
:1005ac00029b06995b00cc5a049b02999b680193b1
:1005bc00029b5d43019b5d1907232e78b6081e40f4
:1005cc0005334b4304994968cb180193db7a042e0d
:1005dc0000d96de1300001f051ff050013004e0110
:1005ec002f01e2000f21019a927a0a40934201d91d
:1005fc009e1af6b234416c80029b01330293c3e71e
:10060c001c41a3b2894c6b80af88a3422ad9884a7b
:10061c009b1832009bb205998978402926d15b083a
:10062c00002a25d0002f27d0042b29d903220f24f0
:10063c0039133811944611403a1222402040274079
:10064c00002e4ad10536cf2b01d9032955d1152bb4
:10065c005dd90f2a56d1220003295ad00131c9b2d3
:10066c00320056e0e31a9bb20022d4e7002ad9d01c
:10067c00704a00269742d7d181232b70733b03938a
:10068c002b785a0601d501230ce05bb2002b0adb58
:10069c000322059bdb781340934208d1ff23019a78
:1006ac001372ee3b2b70bf04bf0caf80a4e7022b80
:1006bc0007d10f22019b5b7a9343019a5372092352
:1006cc00f0e7012bdfd10f22019b5b7a1a4030231c
:1006dc001343019a53720d23e4e70a24cf2b01d95b
:1006ec00002930d1152b3ad9002a33d1002291425e
:1006fc0037d00139c9b2220033e00131cf3bc9b246
:10070c009bb2a0e70132153bd2b29bb29fe70f2af6
:10071c00a1d0022b11d90f280ad10f2a00d1cbe07e
:10072c000132d2b2300003290bd0022b8bd828e037
:10073c000130023bc0b29bb2ebe70f28edd003298e
:10074c001fd16146f1e70139cf3bc9b29bb2c5e776
:10075c002000c3e7013a153bd2b29bb2c2e7002a94
:10076c00c4d0022b0bd9002804d1002a11d11700b8
:10077c00100006e00138023bc0b29bb2f1e7002842
:10078c00f3d0090389b212020a431743000107434d
:10079c008be7013ad2b2022bdad80a20f1e71c41de
:1007ac00019ba4b21f7aff2f08d17f23019a6c8082
:1007bc0013722b78012b00d01ee724e000233900a4
:1007cc000120d9400026014201d11e00082301332b
:1007dc00dbb2072bf3d92100100000f0e7ff002853
:1007ec0004d00123b3401f43019b1f720123002e31
:1007fc0008d0013ef6b2b340019a127a9a43019b9b
:10080c001a72d6e72b70094b9c424fd9084be4184f
:10081c00a4b2052c00d8efe645232b70ece6c046bd
:10082c00e40000200400002008000020ff0100006c
:10083c0001feffffff3f00001c41019ba4b25f7a49
:10084c003e09032e15d02100100000f0afff002848
:10085c000ad1013601232b700f2336011f40019b57
:10086c003e435e726c80a4e7002ef3d0013ef6b2dc
:10087c00f2e70226f0e71c410f26019ba4b25f7a37
:10088c003e4011d02100100000f090ff002806d14e
:10089c00013ef6b201232b700f239f43dfe7032e9b
:1008ac00f8d00136f6b2f7e70126f5e71c1bafe7e7
:1008bc00fee7032303936fe6032900d157e72000db
:0408cc0033e7c04608
:020000040000fa
:1008d000c80000201c000000000000000c010020e7
:1008e0000c00000000000000980000203000000014
:1008f000000000006801002003000000000000006c
:10090000090100200200000000000000400100205a
:100910000600000000000000480100200600000062
:1009200000000000180100200c0000000000000082
:100930003001002008000000000000000b01002032
:10094000010000000000000064010020020000001f
:10095000000000002d010020010000000000000048
:10096000e801002003000000010000000001020077
:10097000dc010020060000000100000001008130c1
:1009800000030000a4010020180000000100000086
:10099000000800000004000000000004dc0100204a
:1009a000a401002048010020e40100200300000011
:1009b0000100000014010000bc0100200a0000003a
:1009c00001000000010004000500140514010000ee
:1009d0007401002020000000010000003001002010
:1009e000bc01002018010020e401002001000300e8
:1009f000e0010020e801002001190600d4010020d8
:100a00000800000001000000940100208401002083
:100a10009401002010000000010000000000000010
:100a2000400100204801002068010020380100201a
:100a300008000000000000002e010020010000005e
:100a4000000000004601002002000000000000003d
:100a50002f01002001000000000000006b010020b9
:100a600002000000000000004e0100200200000013
:100a7000000000006d0100200200000000000000e6
:100a80005c0000203c000000000000002401002069
:100a90000900000000000000f80000201100000024
:100aa000000000006f0100200200000000000000b4
:100ab0005601002006000000000000005001002048
:100ac000060000000000000071010020030000008b
:100ad00000000000c80100200a0000000100000022
:100ae000023400011700000500000000e7010020ab
:100af000010000000100000001000000c60100200c
:100b0000010000000100000001000000e4000020de
:100b10001400000000000000000000200c00000095
:100b2000000000006601002002000000000000003c
:100b30005c01002004000000000000000c00002008
:100b400050000000000000006001002004000000d0
:100b500000000000000000000000000066666666fd
:020000040000fa
:100b6000f0b587b0039001f0abfc0222794c7a4ecd
:100b700023889343238031680b689a78812a29d18e
:100b80001b889c4600231f0002939ab294454ad8c2
:100b9000380001f0dbfa0025029b0122eb401342f2
:100ba00009d06e4b0020e95c1f2902d901202039b1
:100bb000c9b201f07bf90135202dedd1029d01f084
:100bc0007ffc3d430027278001f07afc676101f03c
:100bd00077fca5610c2701f073fc039b5f4333682e
:100be0005b68db195b68636401f06afc33685c4a2c
:100bf0005b68db599bb2d38701f062fc32685948cd
:100c00005368d9190b681b0c0380062303984343d0
:100c10009068c01802788388950710d50522027065
:100c2000fc22920314e00c225a434d680133aa18a7
:100c30001068029d5268054302951743a5e7d20646
:100c4000520fedd145488a7a28301209825c12048d
:100c500013430a7aff25fa2a01d8151dedb22d0695
:100c60001d4301f02dfca564032501f029fc336828
:100c700022695b683c49db195b7a0a401b092b40ff
:100c80001b051343236101f01bfc336837495b6884
:100c9000db195a7a23882a4012020b40134323801f
:100ca00001f00efc0721336802265b68df19fa7a2f
:100cb00023692f4f0a4012043b401343236101f084
:100cc000fffb2388334323802a4b5b680293002b6e
:100cd00038d001f0f5fba36c1b0e059301f0f0fb7f
:100ce00023691b051b0f039301f0eafb23889b0577
:100cf0009b0f049301f0e4fb2388b343238001f0ae
:100d0000dffb2379ab431d43edb201f0d9fb257125
:100d100001f0d6fb184b25691a68082311780b439c
:100d2000137001f0cdfb23691f402761134b009521
:100d3000049a03990598029da84701f0c1fb2388f6
:100d40001e43268001f0bcfb0123227f134323773f
:100d500007b0f0bd0054004204000020aa210000aa
:100d60000254004260540042ffffcffffffcffff30
:100d7000fffff8ffe40000200000002010540042b4
:020000040000fa
:100d8000f0b502008db00b20002a6ad055681168ba
:100d9000ab7801934b7802932b7b002b3ed0002441
:100da00020002b889c46019b5b000393029b5e0006
:100db0006746a3b29f4256d86b7b984200d87be02f
:100dc000cb6802995b181978013119701168536862
:100dd0004878c968085c997b88421fd169469d683c
:100de000029b0989e81803780391002b53d0013b3b
:100df000dbb26e466f46b68800213e823e8a0124f1
:100e0000b44667468eb2b74247d8002cedd0037087
:100e10000023180051688978994247d8029b694697
:100e20005b000a93019b56685b08013306936b468f
:100e30009b888b818b890b9300239c46039333887b
:100e400003998b4244d8029b01990133dbb28b4258
:100e50008941b0680b40c05c71680870002012685e
:100e600053700db0f0bd062363438f68fb185f8895
:100e70004b689b5b9f420ad9fb1a9bb21f1c8342a3
:100e800000d2071cb8b2039b0134f61890e79f42ca
:100e9000f9d2db1bf1e70f23abe7039fb74203d087
:100ea0006e5c9e4200d100240131aae71168c96836
:100eb000c85401339bb2ade75b088342aed9cb681f
:100ec00002995b1819780029a8d001391970a5e793
:100ed0000623039910684b438168cb1804931b7851
:100ee000db065b0f40d1614640684900411805911f
:100ef0000499059849880a9c0993015301999942dc
:100f00002ed9002005995d0049190891040001219e
:100f10000de09f420ad0059d6700ed5b0795089d97
:100f20002f88079dbd4215d10131c9b20134019d01
:100f3000e7b2bd42edd8069c8c4204d9844206d962
:100f40004118a14203db089b1b880993019b0133d5
:100f5000dbb2d3e7079dbd42e8d20130c0b2e5e77e
:100f60006946049b898c5980039b0b9901339bb282
:0e0f7000039363468c4663449bb29c465fe746
:020000040000fa
:020f7e00fee78c
:020000040000fa
:100f800010b5594b1b79022b21d0032b59d0002bc4
:100f90000dd0554b00221a71544b1b78002b05d1f4
:100fa000534b1b881bb2002b00da6fe010bd01f021
:100fb0007bf90528f0d901f03bf95528ecd14a4cd2
:100fc0000421200001f0dcf902232371e4e7464b01
:100fd0001b78022b1ad0012bded101f065f9012814
:100fe000dad901f025f9040001f022f9002cd3d15f
:100ff000aa28d1d13e4803883b494c780122a2401f
:1010000013439bb2038003230b71c5e7364b59880a
:101010003b2903d9587800f025f9bde701f044f9e0
:10102000314b5b8880b28342b6d2314803882e4967
:101030004c780122a24013439bb2038003230b711f
:10104000aae72a4b1b78002ba6d1294b1b881b052e
:10105000a2d0254b1b78012b10d0022b9cd1224c07
:101060006188607800f0fef80023237120490b8826
:1010700060780122824093430b808de71a4c6078a0
:10108000002100f0f3fd0023237185e7194c23783c
:10109000194ad15c194a11701178c9b25b00184a1b
:1010a0009a5a032000f09eff23789b00154a9b5814
:1010b000002098472378144ad15c144a11805900c3
:1010c000134a8a5a9b0013495958012000f03efeea
:1010d00023780133dbb2022b02d0064a137065e796
:1010e000044b00221a7061e75001002071010020ba
:1010f000460100206c0100205c2500006b010020ef
:101100006025000050250000642500004e010020ed
:081110005825000048250000ed
:020000040000fa
:1011180010b5464b1b78012b03d0454b00221a70a3
:1011280010bd444b1b78444a12889a4227d8434b37
:101138001b78022b30d0414b1b78012bf0d1404b50
:101148001a78404b1b889a4259d23f4b1878c0b244
:1011580001f0ecf93a4c2378dbb280003b4a825824
:1011680018009047334b01221a7023780133dbb201
:101178002370374b1b68187801f05af9d0e72d4ccb
:101188002378dbb2324a1268d05c01f051f9237837
:101198000133dbb22370c3e7294b1a78294b1b882c
:1011a8009a4207d3264a1278934217d0204b00223e
:1011b8001a70b5e7224c2178c9b2264b587800f04e
:1011c80051fd1c4b01221a7023780133dbb22370c6
:1011d8001f4b1b68187801f02bf9a1e7184a137800
:1011e8000133dbb213701c490b881a4a507801226c
:1011f800824093430b80aa2001f01af990e7104a25
:101208001278934203d00a4b00221a7088e70c4ade
:1012180013780133dbb213700f4a13885b045b0c3d
:101228001380aa2001f004f97ae7c046e7010020fc
:101238007101002073010020560100202f010020b9
:10124800720100204e0100206b0100205025000093
:0c12580058010020500100204601002039
:020000040000fa
:10126400f0b5c64600b5040001f01cf885b2012ca7
:1012740038d0002c0dd0022c47d0200001f000f80b
:10128400304b59888000304bc05801f077f800f09b
:10129400cdff04bc9046f0bd387800f025ff3b78c4
:1012a4000133dbb23b70083dadb2012b0bd0082dee
:1012b400efd9264c2600083600f0b8ff2070013420
:1012c400a642f9d1e8e70023214a13701d4a13719d
:1012d40020490b8850780122824093430b8000f010
:1012e400a5ffd6e7082dd4d9194fe2e70023184a01
:1012f4001370144a137117490b88507801228240e5
:1013040093430b8000f092ffc3e7032dc1d9104f24
:10131400114b98463c7866003619464400f086ff27
:10132400307000f083ff707000f080ffb070013403
:10133400e4b23c70033dadb2012cd7d0032de9d803
:10134400a7e7c046500100204c24000038010020cb
:0c1354002e01002046010020e4010020d2
:020000040000fa
:101360002e4b5a6852031b68db0c13439b029b0aeb
:101370002b4a9363422313750023537511000422f3
:101380008b691a42fcd126491022cb681a42fcd044
:10139000234a137d80210b431375224b00229a614f
:1013a0001a61214b214a1a62190004224b681a4221
:1013b000fcd11d4b1e4a5a62190008224b681a4282
:1013c000fcd1194a94234021d150100054314022bd
:1013d00043581a42fcd0144a98234121d15010009e
:1013e0005731402243581a42fcd00f4ad82340219b
:1013f000d15010009831402243581a42fcd00a4a7a
:101400008e235b004121d150100019004022435827
:101410001a42fcd0074b084ada617047206080000e
:101420000010004000140040001c004006010100b4
:0c14300006210c000008004021002008ec
:020000040000fa
:10143c00f8b507000e000b2500294cd000284ad027
:10144c00284c083d237a002b45d0023d042b42d07a
:10145c00036801355b79013bab423cd801f02af8bb
:10146c000222214d2b8893432b80204be6601f607a
:10147c0000f062fa80221e4bd2051e4eda67bff3d3
:10148c004f8fbff36f8f0323ab7201f013f8012260
:10149c006b7aff2013436b72174b80251a70c02395
:1014ac00c7225b00ed05f5503b6892005b790004a8
:1014bc009b05b1580340114801400b43b3503560b4
:1014cc000023238000f00efd051e06d10423208886
:1014dc002372fff73ffb2800f8bd0223022523727d
:1014ec00f9e7c046e400002000540042040000204c
:1014fc0004e100e000e100e0c6010020ffff00ff76
:020000040000fa
:10150c00f8b5294b1b785bb2002b03db264b1b7801
:10151c009b072dd5244b1b785b0718d580239b0587
:10152c000024214a01201026a52503e004331f497d
:10153c008b4224d01c6091790142f7d091680e4205
:10154c00f4d115739179012739439171eee780231a
:10155c009b05002514491024a526144802e00433e9
:10156c0083420cd01d608a681442f8d10e73f6e7e2
:10157c0080239b0500210d4a02c39342fcd10c4be6
:10158c0098470c4b984700f043fd0b4bff229343bd
:10159c000a4a93600a4b98470a4b98470a4b98475c
:1015ac0000f0e6fdfee7c0460020004000000120f0
:1015bc00af240000af2400000000000000ed00e0ac
:0c15cc000d1b0000af240000af24000045
:020000040000fa
:1015d80010b5204b1b78012b06d01f4b1b78012b15
:1015e8000cd0fff7c9fc10bd1c491d48fff722ffae
:1015f8000028f2d1174b00221a70eee7164b002292
:101608001a70fef7afff002811d11648fff7b4fb98
:10161800002808d11448fef75ffd00280ad0134bb4
:1016280003221a7006e0114b02221a70f2e70f4be0
:1016380001221a7000f0f2fe0b4b1b681b787f2bff
:1016480003d80b4b01221a70cbe7024b01221a7008
:10165800c7e7c0460b0100202d010020112500001e
:10166800b0010020d4010020740100200a010020ec
:041678000901002044
:020000040000fa
:10167c00f8b500f01fff0221204a13888b4313801a
:10168c0000f094fe1e4b1f4c1f4a188819882388a3
:10169c0012685b00d1521d4b80b21b78012b02d01b
:1016ac00022b10d0f8bd23880133238000f01afce4
:1016bc00002805d12088fff74dfa04232372f1e7a7
:1016cc00e3689847eee70c210f22114b25881e6822
:1016dc0069437368002759188b7a1a40cb7a934266
:1016ec0001d99b1adfb20621f8406943b3685b1835
:1016fc005880022323722369e3e7c046005400425a
:10170c0058540042e400002008000020c6010020cc
:04171c0004000020a5
:020000040000fa
:101720008022f8b5214bd2001a610b265a619a61ca
:10173000da61002821d003680c24198800231d00d9
:101740001f009ab291421ad80226002d15d03804f3
:10175000284300f0fbfc00f0b3fe0023144c238070
:10176000144b1e7a002e14d100f0aafe676100f01f
:10177000a7fe01230f4aa56113723000f8bd2200b5
:101780005a4346680133b218166852683743154306
:10179000d7e700f095fe636900261f43676100f0fc
:1017a0008ffea3691d43a561e7e7c046004c0042d8
:0817b00000540042e400002097
:020000040000fa
:1017b800f0b506241f4b44431a68002093681c198f
:1017c80063888b422dd02dd2c91a126889b29378ba
:1017d800402b00d149080120842922d8002005295e
:1017e8001fd90f251527a3881c001e1298042e4008
:1017f8007e43800fba3778431b112b4080195b005a
:10180800c0182c4080b2052c0ed8d3780a4a9b0603
:101818009b0f5b00d3181b8c594389b288428041c7
:101828004042f0bd591ad0e70130053c80b2e4b21d
:0c183800e9e7c04604000020aa210000df
:020000040000fa
:10184400f8b51e4b1b7d002b37d01c4a936851689a
:101854001b4a127ed2071dd599421bd91849072667
:10186400164a944617001500012409e03a68d25c30
:101874000a85013368680a7e22420bd0984209d94e
:101884004a683240012af1d1624612685800825aed
:101894000a85eee7094a936052689a420dd8074bcd
:1018a40000221a755a60064a01211175db68002b63
:1018b40003d0024b1869db689847f8bd98000020f4
:0418c40000140042ca
:020000040000fa
:1018c800f7b50c25c3684d439c46032382684b43f8
:1018d80055196c6863442d8964889f781b78641b4c
:1018e800e41aa3b201930025436860461e88b542f6
:1018f80001d10020febd8d4218d08378bb4215d19e
:1019080013787b33dbb2012b15d913899c465368b6
:101918005b889c450ad264461b1b04789bb2a34291
:1019280004d91b1b019c9bb29c4204d30135adb268
:0a19380003300c32dbe70120dce78e
:020000040000fa
:02194200fee7be
:020000040000fa
:10194400184b70b51b6800251a6808249378402b3f
:1019540007d00a24802b04d00220812b17d10a241b
:10196400032513790f2b13d80f2213400e4a1b02a1
:1019740014401c4300f0a2fd58230c4e338000f0a9
:101984009dfd346100f09afd0020094b1d7070bd6f
:101994001f2223041b0e93431a00102313431b021c
:1019a400044ae5e704000020ffe0ffff0054004282
:0819b40064540042ff00ffff34
:020000040000fa
:1019bc0070b5002830d0194b1a7d0023002a29d18c
:1019cc00164b1860596001321a755c68144b1b7efb
:1019dc00db0716d5002c17d000231149072601254b
:1019ec0007e0c25c0a8501330a7e2a420bd09c4276
:1019fc000ad04a683240012af3d15a00825a0a8529
:101a0c00f1e7002400e01c00044b9c60044b012215
:101a1c009a750123180070bd0023fbe79800002085
:041a2c000014004260
:020000040000fa
:101a300010b5194a2c23d35c002b18d01300d2699f
:101a40001b6a934213d2144b986a14490a8d92b2be
:101a50001b6a4c6807212140012909d00e49896978
:101a6000ca5401330c4a1362d2699a4205d010bda0
:101a7000094989695c006252f3e7074b00222c2177
:101a80005a54da61054a583111755b6a002beed061
:101a9000014b5b6a9847eae7980000200014004277
:020000040000fa
:101aa00070b5144b01221a801349144c42001318cc
:101ab0009b00e3181d7a0d715d7a4d719b7a8b71d5
:101ac00012189200a218d37acb71002806d00c4bc2
:101ad000094a1a600b4b08221a8070bd0a4b5978cc
:101ae0000822043000f07efa08220349022000f0a8
:101af0002df9f2e74e01002038010020a40100205a
:0c1b000058010020560100205001002078
:020000040000fa
:101b0c0000230e4a10b513600d4a13600d4a136082
:101b1c000d4a13600d4a13600d4a53621361013371
:101b2c00936000f01dfd00f01bfd0a4c0a4b9c421b
:101b3c0000d310bd08cc9847f8e7c04660010020e0
:101b4c0018000020140000200c00002010000020c1
:0c1b5c001c000020cc000000d0000000a5
:020000040000fa
:101b680030b5bff35f8f62b6104bc02080001a58a3
:101b78000f4d2a40c02109040a431a5004221a6052
:101b8800c322920098580b4c0440c0200002204306
:101b98009850802292011a60c72080001a582a4063
:101ba800114319508022d2051a6030bd00e100e0cf
:081bb800ffff00ffff00ffff2b
:020000040000fa
:101bc000114b124a1a60124a9a81c02292025a603c
:101bd0001a00d369002bfcd10b4a136802210b4376
:101be0001360d369002bfcd10a4b00229a61da61a1
:101bf0001a622c215a545a621a605a609a601a75f5
:101c0000da60da857047c0460014004204013140b2
:081c10002bf6ffff98000020f5
:020000040000fa
:101c180010b5134b9b7d002b1ad0114a137edbb2f3
:101c2800927d52b2002a14db0d4a137edbb2927dfc
:101c3800d20703d5db0701d5fff700fe084a137e5c
:101c4800dbb2927d520703d55b0701d5fff7ecfea7
:101c580010bd5bb2002be7da00f066f9e4e7c04696
:041c68000014004222
:020000040000fa
:101c6c0070b5012817d00e4b01221a800d4b5e78ef
:101c7c0000f002fb040042000b4bd55a2a00310045
:101c8c00042000f0a9f9a400084be1582a00022016
:101c9c0000f056f870bd0800fff7fcfefae7c046ee
:101cac004e01002050010020282500004c2400008b
:020000040000fa
:101cbc0010b5064c2378002b07d1054b002b02d016
:101ccc00044800e000bf0123237010bdc8000020b1
:101cdc000000000000000000044b10b5002b03d0e6
:101cec000349044800e000bf10bdc04600000000de
:081cfc00cc00002000000000f4
:020000040000fa
:101d040070b50e4943001a1852008a1855880c4ab7
:101d140015800c4e1c18a4003419248954802d1be2
:101d240095801c18a400a45de40994711b185b0041
:101d3400cb181979d1715b79137270bd48010020f9
:081d4400240100201801002019
:020000040000fa
:101d4c0010b50b4b1b78002b00d010bd094b187035
:101d5c000123074803700848037008480370084bb8
:101d6c001960084b1a80087800f060fbede7c0465c
:101d7c00710100202f01002072010020730100204e
:081d8c0058010020560100205f
:020000040000fa
:101d940001224b08c00130b51b1811420fd00f248b
:101da4000b4a9b181a7822401a7010221c7822437e
:101db4001a70084b0918c91801230b7030bd0f2580
:101dc400034c1b191c78ac431c701c78efe7c0460d
:081dd400300000414000004115
:020000040000fa
:101ddc0010b50b22002813d00368093a1c888c42da
:101dec000ed304324a439b7881688918402b09d161
:101dfc00f533ff3300228b800223087803430b70ea
:101e0c00100010bd803bdbb20222012bf4d8014b39
:081e1c00f0e7c0466705000075
:020000040000fa
:101e240070b504000d00002815d00c4a2c23d35c97
:101e34000020002b00d070bd00f0ccf9074b9c6152
:101e4400dd6100221a622c2101205854da85044bea
:101e540084329a75efe70020ede7c0469800002031
:041e64000014004224
:020000040000fa
:101e680010b500f00df90b4c2000fff755fc0a489f
:101e780000f0f2fa0021200000f034fa00212000de
:101e8800fff7a8ff054a0021054800f03bfa00f0db
:101e9800e1f910bdb00100206401002048010020d4
:041ea80074010020a1
:020000040000fa
:101eac004b08c0010d4a1b1810b59b18ca070dd55d
:101ebc000f241a7822401a701a78913422431a701f
:101ecc00074b0918c91801230b7010bd0f241a7881
:101edc00a2431a701c780a22f0e7c0463000004179
:041eec004000004171
:020000040000fa
:101ef0000d4a70b51068012502680c491488062245
:101f00000b885a439c420ad98668b65c06322e4238
:101f100002d101339bb2f5e700200b8070bd002396
:101f200001200b80fae7c04604000020e4000020f6
:020000040000fa
:101f300010b50c4b5b8b0722134000d110bd0a4c2f
:101f4000e38500f049f9074b84221a752c230022ff
:101f5000e254636a002bf1d0034b986a5b6a98479e
:0c1f6000ece7c04600140042980000208e
:020000040000fa
:101f6c0010b50b4a1378dbb20a4908780a49c854f1
:101f7c0013780133dbb2137013783c2b04d001219e
:101f8c000448fff749ff10bd130000221a70f6e752
:0c1f9c006e0100206f0100205c0000209e
:020000040000fa
:101fa8008223db050122c4215a5401315a540531d8
:101fb8005a5401315a54b132ba3999540332223140
:101fc8009954953acd315a5010315a500022462131
:0a1fd800ff315a5413395a54704770
:020000040000fa
:021fe200fee718
:020000040000fa
:101fe400f8b507000e0014000a4d00232b7055208d
:101ff40000f0d2f9380000f0cff9300000f0ccf94d
:10200400e0b200f0c9f9200a00f0c6f901232b70f0
:08201400f8bdc046e701002001
:020000040000fa
:10201c0010b50b480168002905d14368002b02d18b
:10202c0000f08bfa10bd04008368064a9bb20c3496
:10203c009b009b5842682000984780002018e9e7d5
:08204c00d0080000742400001c
:020000040000fa
:102054000b4b01221a8019000b691a42fcd1084b60
:10206400c02252001a80803aff3a1a6219001f32c5
:102074000b691a42fcd1024b802252005a817047ec
:0420840000240040f4
:020000040000fa
:1020880010b50021094800f02dfa094908220b690a
:102098001a42fcd100f062f9002000f097f91420f0
:1020a80000f09ef900f04cf910bdc0463f25000035
:0420b80000240040c0
:020000040000fa
:1020bc0010b5084b9a8992b207494a60074a9a812f
:1020cc009b890b68002b04d00b00486889681b683f
:1020dc00984710bd002400400c010020ff81ffff39
:020000040000fa
:1020ec0070b50949420013189b00cb18074c657951
:1020fc005d72a5799d7225791d721a00e379d372f0
:10210c0080b200f079f870bda401002038010020e5
:020000040000fa
:10211c0010b50a4b06225a60fff740fffff71af979
:10212c0000f0d8f900f0bef9fff744fdfff78cff83
:10213c00fff794fefff712fd10bdc04600400041b2
:020000040000fa
:10214c0070b50600002401253300e3402b4209d072
:10215c00064b0020e15c1f2902d928002039c9b2a6
:10216c00fff712fe0134202ceed170bdaa21000025
:020000040000fa
:10217c0010b50020fff7ccff8224e40503e08a238e
:10218c005b002022e250fff721fa002000f03af920
:0e219c000306f4d48c235b002022e250f3e70c
:020000040000fa
:1021aa00020304050607202122232425262728299d
:1021ba0008090a0b10111213141516172c2d2e2f9d
:0e21ca0007001300350090003f1c0b050301b9
:020000040000fa
:1021d800094b5b8b5b070dd0074b80221a76793a47
:1021e8005a831b7e5b0705d5034b04211a8d1a7e83
:0c21f8000a42fbd17047c04600140042b0
:020000040000fa
:1022040010b5040001000648fff7e6fd620012194c
:102214005200044b9a18e1b2034800f075f810bd5f
:0c222400b00100204801002074010020df
:020000040000fa
:10223000084a1378dbb20849c85c13780133dbb273
:10224000137013783c2b00d07047130000221a70d3
:0c225000fae7c0466d0100205c00002091
:020000040000fa
:10225c0010b50021054800f049f90021044800f0b0
:10226c004bf901210348fff7d7fd10bd19110000f0
:08227c006d1f00006f0100203e
:020000040000fa
:1022840000280dd0012809d0022807d0032805d042
:102294000023052801d01800704701380300fae72d
:0422a4000300f8e754
:020000040000fa
:1022a800064b1b78064a10781b1a9bb218b20028f6
:1022b80001dbc0b270473c3318b2fae76e01002068
:0422c8006d01002084
:020000040000fa
:1022cc00054b064a917819709268117859705178bb
:1022dc0099709278da707047f80000208401002021
:020000040000fa
:1022ec000b2300280ad003681a8802238a4205d3dc
:1022fc0004334b4301218268995400231800704722
:020000040000fa
:10230c000b23002809d0002a07d00c234b438168eb
:0e231c00c91801230b7000234a601800704797
:020000040000fa
:10232a00002310b5934206d103201840421e904163
:0e233a009b08c01810bdc45ccc540133f2e700
:020000040000fa
:10234800054a138802210b431380110002220b69ee
:0c2358001a42fcd17047c046002400402f
:020000040000fa
:10236400054a138802218b431380110002220b6952
:0c2374001a42fcd17047c0460024004013
:020000040000fa
:1023800070b505000e1e08d00024fff751ff28701d
:0c23900001350134a4b2a642f7d170bda3
:020000040000fa
:10239c0010b5054b01221a7000f048f8024a137868
:0c23ac00012bfcd010bdc04671010020c8
:020000040000fa
:1023b800054b9a7ad2b2910701d502219972d207b8
:0c23c80001d501229a72704700540042b7
:020000040000fa
:1023d400034b9861190008220b691a42fcd170471b
:0423e4000024004091
:020000040000fa
:1023e800034b1862190020220b691a42fcd170476e
:0423f800002400407d
:020000040000fa
:1023fc0010b5034b01221a70142000f063f810bdc5
:04240c000b010020a0
:020000040000fa
:10241000034b9a6843001b189b00d05c7047c04672
:042420007401002023
:020000040000fa
:10242400034a1388802109020b4313807047c04676
:04243400460100203d
:020000040000fa
:1024380010b5034b187001211800fff7bbfa10bd47
:0424480070010020ff
:020000040000fa
:10244c00c8010020a4010020e4010020be010020ee
:04245c0090010020cb
:020000040000fa
:102460000b23002802d0024b18600023180070478d
:042470000800002040
:020000040000fa
:102474009d2400002b23000069250000692500002d
:0424840069250000c6
:020000040000fa
:1024880003b47146490840004900095a49008e447e
:0424980003bc7047ca
:020000040000fa
:10249c008a18914201d10020704700230b70013142
:0224ac00f7e750
:020000040000fa
:0224ae00704775
:020000040000fa
:1024b0008423db05014a1a627047c04665c20000ea
:020000040000fa
:1024c000024a93899bb2002bfbd170470054004213
:020000040000fa
:1024d000024b1a88801818807047c0466601002099
:020000040000fa
:0c24e000014b84225a607047004000410c
:020000040000fa
:0c24ec00014b1860996070470c01002043
:020000040000fa
:0c24f800014bd86019617047980000206b
:020000040000fa
:0c250400014b586299627047980000205b
:020000040000fa
:0c251000014b01221a7070472d010020c1
:020000040000fa
:0c251c0010b5fff74bfffff7abf810bd48
:020000040000fa
:0c2528000a000800030008000300c04681
:020000040000fa
:0a253400823843425841c0b270479c
:020000040000fa
:08253e0010b5fff75cff10bdb2
:020000040000fa
:022546007047dc
:020000040000fa
:0825480024010020f80000202e
:020000040000fa
:08255000051d0000cd22000072
:020000040000fa
:042558000900110065
:020000040000fa
:04255c008082c04673
:020000040000fa
:04256000090011005d
:020000040000fa
:042564000101c0466b
:020000040000fa
:042568000020704798
:020000040000fa
:02256c007047b6
:020000040000fa
:0200000400807a
:04400000ff88feb384
:020000040000fa
:0200000400807a
:04400400bbfcffff03
:00000001FF
