:020000040000fa
:10000000f87f002031920000bb9a00001f9e000084
:1000100000000000000000000000000000000000e0
:10002000000000000000000000000000e791000058
:100030000000000000000000e7910000e7910000d0
:10004000e7910000e7910000e7910000e7910000d0
:10005000e7910000e7910000e7910000c9a20000cd
:10006000e7910000e94d0000e7910000e7910000f2
:10007000e7910000e7910000e7910000e7910000a0
:10008000e7910000e7910000e7910000e791000090
:10009000e7910000e7910000e7910000e791000080
:1000a000e7910000e7910000e7910000e791000070
:020000040000fa
:1000b000f8b5c046f8bc08bc9e46704711920000d7
:1000c000f8b5c046f8bc08bc9e467047e9910000f0
:020000040000fa
:1000d000f0b516001f00446a9db00390259d06965a
:1000e0000797002c08d110200af080f8039b446089
:1000f000586284600460c460039b5b6a19680029cd
:100100000bd05a68012393404a608b60039809f032
:1001100038fb0022039b5b6a1a60002f1cda012364
:100120002b607b005b080793079dba4b2a0018934e
:100130001a409a421cd1b84b249a28031360069b9c
:10014000000b1843b54b01d100f081fd269a002a1f
:1001500005d10933059308e000232b60e4e71a007a
:10016000093205920c33269a136005981db0f0bd34
:10017000069b079c1093119410981199002200235c
:1001800008f07efb041e0ed00123249a1360a34bbb
:100190001a000d320592269a002ae6d01a002699f6
:1001a0000e320a60e1e71aab01931bab0093039890
:1001b000109a119b07f062fd6e000490760d00d13d
:1001c0007ee010981199119b954a1b031b0b1a4353
:1001d0001100944b1694f6180022934b01f050f93d
:1001e000924a934b03f0a8f8924a934b01f0e2fc39
:1001f000040030000d0008f0adfb904a904b03f076
:100200009bf802000b002000290001f0d3fc040041
:100210000d0008f0edfc00220290002320002900d0
:1002200008f034fb00280bd0029808f093fb2b0059
:10023000220008f025fb43425841029b1b1a0293ff
:1002400001231393029b162b0fd810981199da00f3
:100250007c4b9b181a685b6808f018fb00284bd091
:10026000029b013b0293002313931a9b9e1b0023c6
:1002700008933300013b0b9304d501239b1b089388
:1002800000230b93029b002b38db029a0b9b9446b6
:1002900063440b93002312920d93229b0124092b9c
:1002a00000d985e0052b02dd0024043b2293229b2c
:1002b000981e032800d985e009f0a2ff296b697810
:1002c0001a9b1b9a9e18604bf218202a0fdd4023c0
:1002d0009b1a9d405d4b0698f318d840284308f0c0
:1002e00089fd01235a4c013e0919169374e7202316
:1002f00006989b1a9840f2e71390b6e7089b029a7b
:100300009b1a089353420d9300231293c5e70023d1
:100310000f93239b002b59dc01230c930a93239307
:10032000039a556a00226a6004321000143069682a
:1003300098424fd9039808f081fb039b28605b6ac1
:100340001b6805930a9b0e2b00d9f7e0002c00d107
:10035000f4e0029b002b00dc7ee01a000f21394bf9
:100360000a40d2009b181e685f68029b02241d1180
:10037000eb060ad5374b0d401a6a5b6a1098119943
:1003800001f08eff069007910134324b36e00123d5
:10039000bee70023239a0f939446029b63440c9379
:1003a00001330a93002bbbdc0123b9e70123f1e7fa
:1003b00000230f942293013b00220c930a93239273
:1003c0001333ade701230f93023bf5e7239b0c9317
:1003d0000a93a5e7013169605200a6e701231d4297
:1003e00009d0e4180e9b30001a685b68390002f0ef
:1003f000a3ff06000f000e9b6d1008330e93002d17
:10040000ecd10698079932003b0001f049ff0690b5
:1004100007913ce00000f07f0f27000048a3000098
:100420000000f03f01fcffff0000f83f61436f63f5
:10043000a787d23fb3c8608b288ac63ffb799f50fd
:100440001344d33f40770000320400001204000040
:10045000000010fe009c0000029b0224002b16d01e
:10046000109811995d420f23d54a2b40db00d31819
:100470001a685b6802f060ff01270023069007916d
:10048000d04e2d11002d00d089e0002bbfd1139b41
:10049000002b00d18ee0069e079f0022ca4b300041
:1004a000390008f0f3f9002800d183e00a9b002b03
:1004b00000d17fe00c9b002b3cdd029b3900013b0f
:1004c0000e930022c14b300002f036ff06900791d8
:1004d0000c9f0134200008f03dfa069a079b02f0b9
:1004e0002bff0022ba4b01f065fb14901591149c70
:1004f000159d159bb74a9e18002f5fd10698079946
:100500000022b54b00f0bcff22003300069007919b
:1005100008f0d0f9002800d0a0e2b0481599844630
:1005200061440b0006980799220008f0aff90028f3
:1005300000d08de2109b119c069307941b9b002b0f
:1005400000da5fe1029a0e2a00dd5be19c4bd200eb
:100550009b185c681b6808930994239b002b00dba5
:10056000cfe00a9b002b00ddcbe000d073e20898bf
:1005700009990022984b02f0dffe069a079b08f0cb
:10058000a3f90a9d2e00002800d046e2059b059a9b
:100590005f1c31231370029b0133029341e23d4201
:1005a00005d03268736802f0c7fe3b0001346d105d
:1005b000083667e7029b0a9f0e938be77a1e804bf3
:1005c000d2009b18186859680f9b002b4bd0020073
:1005d0000b000020824901f063fe3300220000f08e
:1005e0004fff05000e00059b1493fb181793069808
:1005f000079908f0fdfa040008f0acf902000b00be
:100600000698079900f03cff149b30345f1c1c7067
:100610002a0033000690079108f038f9002864d1c9
:10062000069a079b0020684900f02aff2a00330041
:1006300008f02cf9002800d0b0e0179bbb4200d195
:1006400078e70022614b2800310002f075fe00229d
:1006500005000e00069807995c4b02f06dfe14979a
:1006600006900791c3e72200330002f065fe059c67
:1006700014901591e31919930698079908f0b8faa0
:10068000179008f067f90b0002000698079900f030
:10069000f7fe179b050030332370199b01340e00c1
:1006a0009c4227d114981599059b0022df194c4bc9
:1006b00001f080fa02000b002800310008f0faf87f
:1006c00000286bd1149a159b0020454900f0d8fef4
:1006d00002000b002800310008f0d8f8002800d1f3
:1006e00028e77b1e1a78302a02d00e9b029343e043
:1006f0001f00f6e70022354b02f01efe0690079120
:10070000bae7059c0a9a2300069d079e013b9b18a9
:100710000693089a099b2800310001f0c1fd08f0fa
:1007200067fa0a9008f016f9089a099b02f004fe8d
:100730000b0002003100280000f0a2fe0a9b671c9b
:1007400030332370069ba3424ed102000b0001f010
:1007500031fa089a099b04000d0008f0abf8002854
:100760001ad1089a099b2000290008f089f800286e
:1007700002d00a9bdb070fd40499039809f001f813
:1007800000233b70029b249a01331360269b002bad
:1007900000d1eae41f60e8e4029b0e937b1e1a7806
:1007a000392a08d1059a9a421cd10e9a059901322c
:1007b0000e9230220a701a7801321a7095e7c046fc
:1007c00040770000009c00000000f03f0000244043
:1007d00000001c400000c0fc000014400000c07c71
:1007e0000000e03f1f00d9e700229f4b02f0a4fd6c
:1007f0000022002305000e003c0008f041f800280c
:1008000087d0b9e70f9a002a00d189e0229a012afd
:100810006ddc169a002a66d0944a9b180d9d089ca0
:10082000089a0121d21808920b9a0398d3180b93b7
:1008300009f02ffd0600002c0edd0b9b002b0bddbd
:100840000b9a2300944200dd1300089ae41ad21a8e
:1008500008920b9ad31a0b930d9b002b1dd00f9b64
:10086000002b61d0002d10dd31002a00039807f025
:1008700053fb049a01000600039805f0bcfa070038
:100880000499039808f07dff04970d9b5a1b04d030
:100890000499039807f040fb04900121039809f0a4
:1008a000f8fc129b0500002b40dd1a0001000398a4
:1008b00007f032fb229b05000027012b3edc0027be
:1008c000069bbb4236d1079b1b03bb4232d1189b10
:1008d000079a13422ed0089b0137013308930b9bd4
:1008e00001330b9326e036231a9a9b1a96e70a9b4c
:1008f0005d1e0d9bab4208db5d1b0a9b002b0cdad7
:10090000089b0a9a9c1a00238ae70d9b0d95ea1a08
:10091000129b00259b181293efe7089c0a9b7fe728
:100920000d9d089c0f9e86e70d9ab1e7229b00273c
:10093000012bc4dd129b0120002b08d02b6903334f
:100940009b00eb18586808f0cffe2023181a0b9b69
:10095000c0181f23184046d001331b1a042b3fdd5b
:100960001c23181a089b24181b1808930b9b1b1890
:100970000b93089b002b05dd1a000499039807f0e0
:10098000d3f904900b9b002b05dd29001a00039876
:1009900007f0caf90500139b002b26d02900049804
:1009a00008f0bcfe002820da029b0a22013b0293d9
:1009b00004990023039807f015ff0f9b0490002b68
:1009c00000d14de1002331000a22039807f00aff0d
:1009d0000c9b0600002b51dc229b022b4edd0ce011
:1009e000042bc6d018001c30bce70a9b002b3fdc50
:1009f000229b022b3cdd0a9b0c930c9b002b0cd101
:100a000029000522039807f0edfe05000100049877
:100a100008f084fe002800ddb8e5239b059fdb433a
:100a2000029300230a932900039808f0aafe002edf
:100a300000d1a1e60a9b002b05d0b34203d01900d8
:100a4000039808f09efe3100039808f09afe93e6a2
:100a50003d003e00e1e700252e00dee70e9b3d0055
:100a600002933e0092e5c04600002440330400009b
:100a70000f9b002b00d1ade00a9b0c93002c05ddf1
:100a800031002200039807f04ff906003000002fd4
:100a900011d07168039807f0d1ff31000400336969
:100aa0000c319a1c92000c3009f0e1fb012221006c
:100ab000039807f039f90a960600059b0893290068
:100ac000049805f09bfd0a990d900400049808f025
:100ad00025fe32000e902900039807f017f8012335
:100ae0000b93c36830340700002b04d10100049835
:100af00008f014fe0b903900039808f042fe012321
:100b0000069a0b991a40089b5f1c229b0b431343c8
:100b100009d1392c21d00e9b002b01dd0d9c3134e5
:100b2000089b1c707fe70e9b002b03db22990b4375
:100b300013431cd10b9b002bf2dd04990122039877
:100b400007f0f2f82900049008f0e8fd002802dc24
:100b5000e6d1e307e4d5392ce0d13923089a1370a4
:100b60007b1e1a78392a67d001321a705be70b9b1b
:100b7000002b03dd392cf0d00134d1e7089b059a16
:100b80001c7001239b1a089a9b180c9a9a423ed01b
:100b900000230a220499039807f024fe0a9b04907c
:100ba000b34209d100230a220a99039807f01afeda
:100bb0000a900600089782e70a9900230a22039800
:100bc00007f010fe00230a900a223100039807f074
:100bd00009feeee70a9b0c93059b0a9329000498f3
:100be00005f00cfd0a9b30305f1c18700c9a059bb9
:100bf0000400fb1a9a4208dd00230a220499039894
:100c000007f0f0fd0a970490e8e700230a9304999f
:100c10000122039807f088f82900049008f07efd6f
:100c200000289ddc01d1e3079ad47b1e1a78302a74
:100c300000d0f8e61f00f8e7059a9a4205d1029b1a
:100c40000133029331231370ede61f0088e7269ae3
:100c500005930833002a01d0fff785fafff785fadc
:100c60000c9b002bb8dc229b022b00ddc5e6b3e712
:020000040000fa
:100c7000641400201c000000000000001010002080
:100c8000980000000000000000000020100100009b
:100c90000000000050130020500000000100000080
:100ca000bd9a000015a20000d9a2000075a30000a3
:100cb00083a3000027a20000219e000055840000ad
:100cc00069580000695b0000416e0000a1620000ed
:100cd00051970000299c0000013c0000757e000037
:100ce000bd7f0000e9a20000c77b000000000000fb
:100cf00010010020a00000000000000034110020be
:100d00008000000000000000b411002080000000fe
:100d100000000000a01300204000000000000000c0
:100d2000b81400200c00000000000000a8040020ff
:100d300000040000000000000f100020010000006f
:100d4000000000001e140020010000000000000050
:100d5000c41400200800000000000000a8100020bb
:100d60008c0000000000000094140020120000001d
:100d700000000000801400201400000001000000aa
:100d8000b99900001d820000295f00002d47000076
:100d900000000000140d0020ec0000000000000026
:100da000201400202400000000000000a8140020ef
:100db0001000000000000000140c002000010000e2
:100dc00000000000b0010020100000000000000042
:100dd000f41200205c000000010000000000000090
:100de00000020000e0010020000000000000000000
:100df000008004021f0000004d6963726f63687019
:100e00004d6173732053746f7261676520202020d9
:100e10003030303167a300007d530000d17d0000e9
:100e2000fd9e0000f99f0000e19e0000fd9b000078
:100e30004da1000000000000c00100202d020000b4
:100e400000000000d4140020040000000000000096
:100e5000f00300204c000000000000003c040020d3
:100e60000800000000000000d8140020040000006a
:100e700000000000dc14002004000000000000005e
:100e80001f1400200100000000000000e0140020fa
:100e90000400000000000000e41400200400000032
:100ea00000000000a6140020010000000000000067
:100eb000a7140020010000000000000044140020de
:100ec0002000000000000000d214002001000000fb
:100ed00000000000d314002001000000000000000a
:100ee000fc1400200100000000000000fd140020a0
:100ef0000100000000000000fe14002001000000be
:100f00000000000044040020540000000000000025
:100f1000ce0e00200200000000000000a808002003
:100f20000002000000000000cc14002006000000b9
:100f300001000000f8ffffffffff0000ff1400208a
:100f4000010000000100000001000000d00e0020a0
:100f5000a000000001000000e01300203e0000009f
:100f6000cc14002006000000cc1400200600000075
:100f70003412002060000000000e0020ce000000af
:100f80000000000000000000000000000000000061
:100f90000000000000000000000000000000000051
:100fa0000000000000000000000000000000000041
:100fb0000000000000000000700f00209f000000f3
:100fc0000000000000000000000000000000000021
:100fd0000000000000000000000000000000000011
:100fe0000000000000000000000000000000000001
:100ff0000000000000000000700f00209f000000b3
:10100000010000004d6963726f6368697020546f5e
:10101000756368204272696467650a0a4669726d81
:10102000776172652056657273696f6e3a0a426f16
:101030006f74204c6f616465723a2020202020205c
:1010400020202020200a0a5374617475733a0a56ce
:10105000616c6964204170706c69636174696f6e62
:101060003a205965730a53776974636820506f7327
:101070003a20303030300a0a526566657220746f4b
:1010800020524541444d452e48544d20666f7220f4
:101090006d6f726520696e666f726d6174696f6ed7
:1010a00021212100e01300203e000000010000008b
:1010b000eb3c904d53444f53352e30000208010055
:1010c0000210000000f80100000000000000000015
:1010d000800800008000290000000054434820429e
:1010e00052494447452046415431322020200000d7
:1010f000000e0020ce000000010000003c68746d6e
:101100006c3e0a3c686561643e0a3c6d6574612012
:10111000687474702d65717569763d2272656672aa
:101120006573682220636f6e74656e743d22303b78
:101130002075726c3d68747470733a2f2f6d6963fb
:10114000726f63686970646576656c6f7065722e26
:10115000636f6d2f746f7563683a696e74726f6434
:10116000756374696f6e2d746f2d6d6963726f6333
:101170006869702d746f7563682d62726964676544
:10118000222f3e0a3c7469746c653e526564697234
:1011900065637420746f204d6963726f6368697052
:1011a0002e636f6d3c2f7469746c653e0a3c2f682a
:1011b0006561643e0a3c626f64793e3c2f626f64f5
:1011c000793e0a3c2f68746d6c3e0000341200209a
:1011d000600000000100000054434820425249448e
:1011e0004745202800000000001100110000000009
:1011f0000011000000000000524541444d452020f0
:1012000048544d0100062878de38de3800000477a7
:10121000de380200ce0000004b4954494e464f20b4
:101220005458540100062878de38de380000047770
:10123000de3803009f000000980400200c0000002e
:1012400000000000e814002004000000000000007e
:10125000ec140020040000000100000094120020a3
:101260009412002060000000010000000000000057
:10127000000000000000000000000000000000006e
:10128000000000000000000000000000000000005e
:10129000000000000000000000000000000000004e
:1012a000000000000000000000000000000000003e
:1012b000000000000000000000000000000000002e
:1012c000000000000000000000000000f0140020fa
:1012d0000400000000000000f414002004000000de
:1012e00000000000a80a00206c01000001000000be
:1012f00043000000000000000000000000000000ab
:1013000000000000000000000000000000000000dd
:10131000430000000000000000000000000000008a
:1013200000000000000000000000000000000000bd
:10133000430000000000000000000000000000006a
:10134000000000000000000000000000000000009d
:10135000430000000000000000000000000000004a
:10136000000000000000000000000000000000007d
:10137000430000000000000000000000000000002a
:10138000000000000000000000000000000000005d
:10139000430000000000000000000000000000000a
:1013a000000000000000000000000000000000003d
:1013b00043000000000000000000000000000000ea
:1013c000000000000000000000000000000000001d
:1013d00009a10000519d000000000000446a0000c7
:1013e000f1a30000f0a30000f0a30000f0a30000b0
:1013f000f0a30000f0a30000f0a30000f0a30000a1
:10140000f0a30000f0a30000ffffffffffffffffbe
:10141000ffffffffffff0000010041534349490068
:1014200000000000000000000000000000000000bc
:101430000000000000000000000041534349490043
:10144000000000000000000000000000000000009c
:10145000000000000000000000000000a4040020c4
:101460000400000000000000f81400200400000048
:1014700000000000000000000000000022222222e4
:020000040000fa
:10148000f0b5574645464e46de46e0b50f037f0aa7
:10149000450f3d43ac465d004e00cc0f690d8a46ba
:1014a0001f03ca49550f83b0c0007f0ad200760dd2
:1014b0008046db0f2f4301928a4500d1c0e055469c
:1014c000751ba9460125ab465d466b409b469c4279
:1014d00000d190e04d46002d00dcbbe05346002bd0
:1014e00000d1d4e08e4200d19fe280231b041f4331
:1014f0004b46382b00dd64e11f2b00dd16e2494628
:1015000020233d005b1a11009a409d40531e9a41d2
:101510004b46a8464d46df406346e9404546db1b47
:101520009c460d431543451ba842804163464142fa
:10153000591a0b0200d41ce149024b0a9846434653
:10154000002b00d130e1404607f0d8ff0300083bf4
:10155000202229004746d21a9f40d1409d400f4388
:101560009e4200dd1ce19e1b731c1f2b00ddb2e1bf
:1015700020222800d21a390095409140d8406a1e96
:10158000954101430d4339000026d9406b0709d02e
:101590000f232b40042b05d02b1dab42ad416d42d8
:1015a00049191d000b0200d4e6e0721c874b56055a
:1015b000760d9a4200d1eee0854fed080f40780796
:1015c000284382467a02120b00211203130b0a0de4
:1015d00012051a437f4b3605134033435b00e40783
:1015e0005b0823435046190003b03cbc9046994623
:1015f000a246ab46f0bd4d46002d5bdd5346002ba9
:1016000000d19ae08e4200d109e180231b041f43e0
:101610004b46382b00dd6ee11f2b00dca5e13900c5
:10162000203bd9404b46202b05d040234d465b1b29
:101630009f403a430192019d6f1ebd410d435ee103
:1016400065493d0089461543b144002d2dd09b4688
:101650009c422fd0494600294ad1604d711c294235
:1016600000d0bde03d00614615430143aa46002e6f
:1016700000d0f8e1002900d1bee1002d00d0fde14d
:101680006346c0085a0702439246d9087de03b00f2
:10169000134300d1bbe04b46013b002b00d1bbe123
:1016a000894500d1bbe0994622e701256b409b4666
:1016b0009c42cfd14946002900d0b8e0711c8a462f
:1016c000554646490d4245d161460143002e00d0a2
:1016d00070e1002900d10de23b00134300d00fe27e
:1016e0006346c0085b07184363468246d9084ce04e
:1016f0005146891b89465c46002e00d0c4e06346f3
:10170000034300d150e10b00013b002b00d1e8e185
:101710002e4d9946a94200d0bfe0d2087b071a435c
:101720009246f90853460b4300d13be28022120354
:101730000a431203120b254e46e73b00134300d128
:101740007ae14b46013b002b00d121e1894566d06f
:1017500099465de71d4b9a4500d1dee18218824231
:1017600089415646674449427918cd0752081543c6
:1017700049086b0700d00be74b07ed081d43aa464d
:10178000b146c908114b9945ccd04b460a035e05ba
:10179000120b760d18e71600002300229a4613e775
:1017a0000b49f61a3940f1e6280007f0a7fe0300be
:1017b00018331f2b00dccbe6083885402f000025ae
:1017c000cee63a4315006a1e9541ace6ff070000dd
:1017d000ffff7fffffff0f8001f8fffffe07000004
:1017e0006146851acb1ba8428941494288461900a7
:1017f0004346c91a0b0088461b0200d529e10b009d
:101800002b439a4600d09ae600210024bde76346a8
:10181000c0085b07184363468246d908b2e76346af
:10182000c0085b07184363468246d9087ae75346e7
:101830009b1b9946002e00d189e0d84b9a4500d1d8
:10184000e4e0802361461b0419438c464b46382b49
:1018500000dd25e11f2b00dd6ae1494620234e46cd
:101860005b1a6546010098409d40f140431e984137
:101870000d4305436046f0403f18ad18954289413d
:101880004942c91956463fe0c44b9a4500d1bde0d4
:10189000802361461b0419438c464b46382b00dde0
:1018a000d1e01f2b00dd01e1494620234e465b1aa3
:1018b0006546010098409d40f140431e98410d430c
:1018c00005436046f0403f1a551baa4289414942f0
:1018d000791a56462de63a001f3ef2401600202b9c
:1018e00003d04022d31a9f403d436b1e9d410021ef
:1018f000354300263de73a4315006a1e95412d18f1
:1019000085428041414261440b0200d431e7a34b40
:1019100001369e4200d13fe70122a14f6b083940ba
:1019200015401d43cb071d4349082fe63900203bd6
:10193000d9404b46202b05d040234d465b1b9f4092
:101940003a430192019d6f1ebd410d43ebe5634695
:10195000034329d04b46013b002b00d116e18f4dac
:10196000a94500d1d9e6994670e7494620233d00b4
:101970005b1a9d4011009a40a8464d46531e9a415d
:101980004b46e9404546df400d431543bc44b6e7ae
:1019900085188542894167444942791801260b021e
:1019a00000d4e6e60226b7e7d2087b071a43924640
:1019b000f908e7e6002929d063463e005d07c00824
:1019c000d90816432843002e00d188e080252d0336
:1019d000294207d0fe082e4204d15c463100d208cd
:1019e00078071043ca00410f1143c0004a07c008de
:1019f00010438246c90895e6002d00d104e7780718
:101a0000d20810438246f9085c46bee67807d20841
:101a100010438246f90885e6851a6346a84280414c
:101a2000df1b4042391a012683e56346c0085a0786
:101a300002439246d90875e66346c0085a07024336
:101a40009246d9089ee6634603431d00681e854101
:101a50003ae7151a6346aa429241ff1a5242bb1a4c
:101a600098465c466be5002932d1002d72d079078b
:101a7000d2080a439246f9085c4653e66346851a43
:101a8000d91ba8429b415b42c91a0b024ad5151ac1
:101a90006346aa429241ff1a5242b91a5c4675e562
:101aa000634603431d00681e8541e6e66646203b0b
:101ab000de404b46202b06d0494640235b1a614648
:101ac0009940084380464546691e8d413543fbe6f3
:101ad0006346c0085e07d908002d3fd130438246d7
:101ae00020e6151a6346aa429241ff1a5242b91ad9
:101af00001261ee5d2087b071a439246f90844e600
:101b00008518854289416744494279180b0200d4ff
:101b10002fe6234b012619402be6002356460022d0
:101b20009a4651e52b000b439a4600d16ce620e61d
:101b30006646203bde404b46202b06d049464023dc
:101b40005b1a61469940084380464546691e8d41af
:101b5000354392e6802100240903e7e5064380200f
:101b60000003014208d0fd08054205d1d2087f07d5
:101b70003a4316005c462900ca00710f1143f60073
:101b80004a07f60832439246c908cbe585189542c4
:101b9000924167445142791800e7c046ff070000b0
:101ba000ffff7fff0023024e9a461a000ce5c04655
:101bb000ff070000f8b54746ce460e034d00760af3
:101bc000cc0f410f31438946190380b5490a570f9d
:101bd0005e000f436d0dc000760ddb0fb846d200de
:101be0009c4200d1a3e0af1b002f00dc83e0002e5d
:101bf00000d1c1e0c94b9d4200d188e1802341461c
:101c00001b0419438846382f00dd5de11f2f00ddde
:101c100007e2202311004646db1b9e40f9409a4014
:101c20000e434146531e9a41f9404b465b1a994672
:101c30003243871ab84280414b464142591a0b023f
:101c400000d4d7e049024e0a002e00d12fe1300027
:101c500007f054fc0300083b20223900d21a9e40b2
:101c6000d1409f400e439d4200dd1ce15d1b6b1c7b
:101c70001f2b00ddaae12021c91a3d0030008f4052
:101c80008840dd40791e8f4131002843d94000252e
:101c900007437b0709d00f233b40042b05d03b1d96
:101ca000bb42bf417f42c9191f000b0200d4a4e010
:101cb0006a1c9a4b55056d0d9a4200d1aae0984acc
:101cc000ff080a405007384384465202120b002195
:101cd0001203130b0a0d12051a43924b2d051340e4
:101ce0002b435b00e4075b082343604619000cbcf0
:101cf00090469946f8bd002f4cd18b4e691c31425d
:101d000000d0e7e04646494616430143b446002d5d
:101d100000d00ee2002900d1cfe1002e00d010e269
:101d20004b46c0085f070743bc46d9086de0ab1bb4
:101d3000002b00dc9ee0002e3ed078498d4200d181
:101d4000e5e080213e0009040e43b046382b00dd5b
:101d50004be11f2b00dc81e1190046462039ce40c3
:101d6000202b04d04021cb1a414699400a4317004a
:101d70007a1e974137433de14346134300d1bde00e
:101d80007b1e002b00d1b2e164498f4200d1a7e154
:101d90001f0038e7771b002d00d0efe049460143d4
:101da00000d177e1791e002900d119e25b4ca742ee
:101db00000d14be20f00eae03900114300d1a0e16d
:101dc000591e002900d158e1544eb34200d187e199
:101dd0000b00bbe7514b9e4200d132e28218824297
:101de000804149463500414440420918cf07520816
:101df000174349087b0700d04de74807ff08074312
:101e0000bc46c908454b9d4229d00a036d05120bfb
:101e10006d0d5ce71500002300229c4657e74b46fa
:101e20005f07d9084346c00813433843002b00d14d
:101e3000f6e180231b03194208d04546ed081d42f8
:101e400004d143462900d20858071043ca00430f63
:101e50001a43c0005707c0080743bc46d108634671
:101e60000b4300d112e2802212030a431203120b29
:101e70002a4d2ce7002b59d12b4b6e1c1e42a9d1a9
:101e80004b460343002d00d00de1002b00d1b2e101
:101e90003b00134300d0b5e14b46c0085f07384311
:101ea0008446d908b1e71e49ed1a3140f1e6380001
:101eb00007f024fb030018331f2b00dccce63e00a8
:101ec000083886400027cee6434613431a00571ec3
:101ed000ba41aee649464646871a8e1bb84289414a
:101ee0004942761a310200d519e13b0033439c4642
:101ef00000d0a9e600210025002486e74b46c00853
:101f00005b0718434b468446d9083d007ae74b46a9
:101f1000c0085f070743bc46d908a0e7ff070000d9
:101f2000ffff7fffffff0f80fe070000731b002de8
:101f300000d185e0d8498e4200d173e180214d4621
:101f400009040d43a946382b00dd0ee11f2b00ddef
:101f500084e12021c91a05004f4688408f40411e68
:101f600088414946dd40d9402f4307438844bf1884
:101f70009742924151424144350040e0c6498e4269
:101f800000d1a5e080214c4609040c43a146382f1e
:101f900000ddbee01f2f00ddede020210500c91ba4
:101fa0004c4688408c40fd40411e884149462c43a8
:101fb0002043f9404446611a8846171aba429241b2
:101fc00041465242891a1c00350038e630001f3d58
:101fd000e840202b03d04021cb1a9e4037437b1e84
:101fe0009f4100210743002504e7434613431f0098
:101ff0007a1e97413f1887428041414249440b0273
:1020000000d4f7e6a44b01359d4200d103e7a34a73
:102010007b080a4001210f401f43d3071f4351088b
:1020200037e63b004646203bde40202f04d04023cd
:102030004146db1b99400a43571eba413243f8e53b
:102040004946014300d1f4e0591e002900d115e1b1
:10205000914dab4200d1e5e00b0074e72021c91a95
:10206000160047468a408f40511e8a414146de4055
:10207000d940374317438944bce78718494687420c
:102080009b4141445b42c91801250b0200d4b1e6d3
:102090000225bce74146d208480702439446c908d6
:1020a0001c003d00aee6002b00d0b8e63b00d20895
:1020b0007f071743bc46d908d1e6002e00d18ce03b
:1020c0004146d2084f073a439446c9081c009ce693
:1020d0004146d2084f073a439446c9081c00bee661
:1020e0004b46c0085f0738438446d908b7e6871acd
:1020f0004b464246b8428041991a4042091a01258e
:102100009de54a46c008570738438446d1081d005c
:1021100078e6494601430800471eb8414de7171ac3
:1021200041464846ba42b641091a76428e1b1c0007
:102130008ae500292ed1002ecad18021002409036e
:1021400091e649464646871a8e1bb8428941494264
:10215000711a0e023cd5171a41464846ba429241be
:10216000091a5242891a1c0093e54b4603431f008b
:10217000781e8741fbe639004c462039cc40202fa1
:1021800004d040214d46c91b8d402843411e884143
:10219000204312e74946c0084d072843c908002ece
:1021a0003ed080252d03294208d04646f7082f420d
:1021b00004d11c003900d20870071043ca00430f35
:1021c0001a43c000c008570738438446d10846e682
:1021d0003b000b439c4600d00ce60021002414e693
:1021e000171a41464846ba429241091a5242891a80
:1021f0001c00012523e53b00d2087f071743bc469e
:10220000d90802e68718494687429b4141445b4210
:10221000c9180b0200d4ede5204b01251940e9e572
:1022200084461ce63b00d2087f073a439446d9080f
:1022300015e63900d2087f073a439446c9081d00c5
:10224000e0e50023350000229c4640e54146d208e7
:102250004f071743bc46c9081c0000e619004d464d
:102260002039cd40202b04d04021cb1a494699403b
:1022700008430700781e87412f4378e687184946b0
:1022800097429b4141445b42c918fde60023024d41
:102290009c461a001be5c046ff070000ffff7fffba
:1022a000f0b557464e464546de46e0b58146050048
:1022b0000c03480085b092461f00240b400dce0f42
:1022c000002800d1ade0864b984200d1c8e06b0fea
:1022d000e4001c4380231b0423439846814bed00fc
:1022e0009b4600239946834400933c037b00504661
:1022f000240b5b0dff0f002b00d177e0784a93424f
:1023000018d07849420f8c46e40014435946802285
:1023100063441204cb1a14439b46c20000203300ce
:102320007b409a464b460f2b00d9ede06e499b004f
:10233000cb589f466d4b52469c462243e344002aad
:1023400000d0aee04946022319438946002402200a
:10235000e5e73e00a04615000090009b022b00d14f
:102360000be2032b00d19de1012b1fd0b246604f41
:102370005f44002f00dcdae16b0700d00ee2ed08cd
:102380004346db0106d542465a4b80271a40904609
:10239000ff005f44584b9f4224dc43465b071d43cc
:1023a00043467f055c02240b7b0d03e0b24600230d
:1023b0000024002500212403270b0c0d24053c4399
:1023c0001f054e4b28001c40534627437f00db0768
:1023d0007f081f43390005b03cbc90469946a24691
:1023e000ab46f0bd3e4b00240025e3e752462243b6
:1023f00050d0002c00d18ae1200007f07ff80200c5
:102400000b3a1d2301009b1a52460839da408c40d2
:10241000144352468a403a4b58449b46834400201a
:102420007de74b46234398462cd0002c00d15ee13b
:10243000200007f063f802000b3a1d239b1a4a465e
:102440000100da4008398c4013004d46234398467a
:102450008d402c4b1b1a9b4600239946009344e762
:102460004b462343984606d108239946063b002550
:102470008346009339e70c239946093ba0468346df
:10248000009332e70423994600239b46013300253d
:1024900000932ae749460123194389460024012075
:1024a0003de74a4603231a4391460320524636e746
:1024b000002380249a4624030025094b7ae78023d1
:1024c00041461b03194200d1ece01c4200d0e9e078
:1024d0001c432403240bba461500014b6ae7c0468f
:1024e000ff07000001fcffffc893000001f8ffff99
:1024f000ff030000fffffffefe070000ffff0f804d
:10250000f30300000dfcffff444500d2d6e000d1ec
:10251000d1e001235b429c462e0040460025e34467
:10252000130e24021c431302994623041b0c210c96
:102530000093019104f0fef9009a0b044243310c20
:10254000070019438a4207d90919013f8c4203d871
:102550008a4201d9871e0919881a019904f0eaf9fb
:1025600009048c4631046646009a090c4243030074
:1025700031438a4204d90919013b8c4200d807e152
:102580003f041f43891a4b464a461e0c1204380c5e
:102590000296160c3200039646433b04b8463700b9
:1025a000029e1b0c5a4373437043db19160cf6183a
:1025b000b74203d980235b029c466044330c12046b
:1025c0003604120c1818b618814200d280e07cd074
:1025d000ae1b091ab54280419b4f4042081a5f4426
:1025e000844200d1fde0019904f0a4f9009a0b04a3
:1025f0004243310c050019438a4207d90919013dac
:102600008c4203d88a4201d9851e0919881a01997a
:1026100004f090f909048c4631046646009a090cce
:102620004243030031438a4207d90919013b8c42d6
:1026300003d88a4201d9831e0919039e2d041d4324
:102640003300891a2a04120c53430093029b280c6e
:1026500046435a435843009b92191b0c9c466244c4
:10266000964203d980235b029c466044009b160c73
:102670001b0412041b0c3018d218814206d302d05e
:1026800001231d4375e6002a00d172e661186b1e16
:10269000a14200d290e0814200d2a8e000d1cfe078
:1026a0001d00ede78024434624031c432403240b30
:1026b000b246664b7ee6aa4200d92ae74346de07c9
:1026c00058086b081e43ed072ae7b54200d37fe7a1
:1026d00043464d445a1e4d459b415b421b19c91848
:1026e0008c424fd2884271d86ed0904670e74846ef
:1026f00006f004ff03001a00153220301c2a00dc0b
:102700009be64a46083b9a4000259046a1e606f023
:10271000f5fe03001a00153220301c2a00dc70e69a
:102720005446083b00229c4075e601256d4201217c
:10273000c91b382900dd3ae61f2962dc2a0043461e
:102740004348ca4058448340854013436a1e95411c
:1027500044462b43cc405a0709d00f221a40042a82
:1027600005d01a1d9a429b415b42e41813002202d5
:102770005fd50123002400251ce6b246334b00241c
:10278000002517e68c42b0d1a945abd990461fe78a
:102790008a4200d8f4e6831e0919f1e60f232b4084
:1027a000042b00d1ebe505235b42ab429b41043592
:1027b0005b42ed089844e3e51d00814200d05fe7ed
:1027c000914500d05ce7d4e5ae428ed902234d445a
:1027d0005b429c464d459b415b421b19e044c91836
:1027e000f6e6002fa1dd012300259844c8e54b46fd
:1027f0005e004e459b415b421c19023d0919b146e2
:10280000dbe71f2243465242d71bfb40202904d05e
:10281000444610485844844025436a1e95412b4342
:10282000072500241d4007d00f2200241a40042a47
:1028300097d165076402240bdb081d430023b9e52b
:102840009145d4d31d00bbe7ff030000ff07000044
:082850001e0400003e0400001c
:020000040000fa
:10285800f0b5c64600b582b005004378002b00d11c
:102868009ee2836b002b00d19ae2446aa38b9b05fe
:1028780005d5238b9b0502d580239b00a383a38bbf
:10288800db0505d5238bdb0502d580235b00a383fd
:10289800a38b1b0604d5238b1b0601d58023a3839a
:1028a800a38b5b0604d5238b5b0601d54023a3834a
:1028b800a38b9b0604d5238b9b0601d52023a383da
:1028c800a38bdb070dd5238bdb070ad50123a38355
:1028d800a3820f33a383238300220421686bab6b8d
:1028e8009847a38bdb060dd5238bdb060ad510236f
:1028f800a383a3820f3ba383238300220321686b56
:10290800ab6b9847a38b5b0709d5238b5b0706d571
:102918000423a38300220721686bab6b9847a38b22
:102928001b0702d5238b1b0735d40823ff33e35c31
:10293800db065dd50a23ff33e35cdb0658d56e6cf6
:10294800f37902229343f371f37b9343f37337686c
:10295800002f47d0e96c0632386807f084fc08235a
:10296800ff331022e254033b3032e2543a68917943
:10297800d3791b020b432ad121330722ea540223bd
:102988003b7206337b60bb693360fb68002b2fd03a
:10299800380098472ce021230022ea54237b1b07a8
:1029a8009b0fc14ad25c3023ea5428004c304022a5
:1029b800002107f0b5fcab6b002b03d000220221ed
:1029c800686b98478023a372783ba383ade713789d
:1029d8007f2b03d821230222ea54d0e721230622a1
:1029e800ea54cce721230122ea54e7330f32e254b8
:1029f8000823ff33e35c9b0737d50a23ff33e35ce7
:102a08009b0732d56b6c9e68002e2ed02122aa5cc3
:102a1800082a1ad0316a002971d1327c51b20029b2
:102a28005ddb21220521a95400223272b2699a6025
:102a3800f368002b01d0300098470823ff330222a7
:102a4800e254033b3e32e2540fe0002221216a5453
:102a58003272b16999607260f368002b01d030005e
:102a680098470823ff330222e2540823ff33e35c2c
:102a7800db0700d4a3e00a23ff33e35cdb0700d4c1
:102a88009de06b6c98462123eb5c052b59d043469f
:102a98001e68002e74d02f6dbf04bf0c306a736897
:102aa8003a189a4201d91f1abfb2e96c33689c469a
:102ab80060443a0007f0d7fb336afb183362726848
:102ac800934264d241468988b94260d882235b0028
:102ad8004022e2540823ff333f3ae2546fe07f2359
:102ae8001a4032742b6e9b0b9b032b660823ff3313
:102af8000222e2540623ff337e32e254b5e79f896f
:102b0800b94200d88fb2e86d7368591a33689c4689
:102b180061443a0007f0a7fb336adb1b33622b6e74
:102b28009b0b9b032b662b6ebf04bf0c1f432f66aa
:102b38000823ff330222e2540623ff337e32e25495
:102b480093e743461868002813d000230372212214
:102b5800ab540822ff320121a154033a3f31a1545a
:102b68004246816911604360c368002b27d09847ab
:102b780025e021230422ea54e733033ae2541ee015
:102b880021230322ea54e733023ae25417e093423e
:102b98009b415b42337221230722ea540823ff3307
:102ba800063ae254033b3f32e2544346b2691a60a4
:102bb800336a7360f368002b01d030009847238c88
:102bc8009b0700d494e02a23ff33e35cdbb2019334
:102bd8002823ff33e35cdbb20093009b1b070fd570
:102be800019b1b070cd58623eb5c9b0708d5862227
:102bf800ab5c02218b43ab542823ff337e3ae2546b
:102c0800009b9b0774d5019b9b0771d5ae6cb06880
:102c180000286dd0026a002a48d1037c5ab2002ae3
:102c28002adb002303728369b360c368002b00d0da
:102c38009847b268002a2fd0116ab389994200d800
:102c48008bb25068411a106884466144e967116a7a
:102c5800c91a11628022a958890b8903a950a95859
:102c68009b049b0c0b43ab502823ff330a21e154f0
:102c78002623ff33e2543be07f22134003740132e2
:102c8800ab589b0b9b03ab502823ff330a21e1541d
:102c98002623ff33e2542be00a232932ff32a354c0
:102ca8002822ff32a35423e048a40000b3899a42a3
:102cb80000d893b241688a1a01688c466244ea6770
:102cc800026ad21a02628022a958890b8903a95084
:102cd800a9589b049b0c0b43ab502823ff330a21b4
:102ce800e1542a23ff330839e1542623ff33e25401
:102cf800238c9b0754d52a23ff33e35cdbb2019373
:102d08002823ff33e35cdbb20093009b5b070cd501
:102d18007623eb5c9b0704d57622ab5c02218b43c0
:102d2800ab542823ff330422e254009bdb0737d53a
:102d3800019bdb0734d5ae6c3068002830d02b6f90
:102d48009b049b0c026a9a18026241688a420dd25f
:102d5800b188994228d803689a18ea662823ff336d
:102d68000522e254033b3b32e25419e0002303728c
:102d780083693360036a4360c368002b00d09847b7
:102d88003368002b13d01b68eb6605232822ff321b
:102d9800a3542a22ff32a3542033ff33e93ae254e2
:102da80002b004bc9046f0bd01230372e0e705239e
:102db80094225200a3542822ff32a354f0e7c046bd
:020000040000fa
:102dc800f0b595b00c00079208931a9d069007f08d
:102dd80033fb036818000d9307f0d6fa237e0e9094
:102de8000a93236807220c930c992b68c9054bd5c5
:102df8009b1893431a0008322a601a685b68a26419
:102e0800e364a36c01221f00e56c0b936e00760847
:102e18005242b14b3800310006f0defb002835d1b4
:102e28000122ad4b52423800310005f035fd002833
:102e38002cd1002200230b98290005f023fd00283f
:102e480003d023002d2243331a70a44b09930a9b05
:102e5800472b02d9099b04330993032300270c9ab3
:102e6800236101339a4322600b97089b12aa0093af
:102e78002100079b069804f083fb431c00d01ee149
:102e88000120404215b0f0bd0733b2e70b9a2b0082
:102e98000b98290006f0a0fb00280ed0002d03dabd
:102ea80023002d2243331a708c4b1a0008320992e2
:102eb8000a9a472ad1d90c33cee720220a9e6368a2
:102ec80096435a1c00d083e00733636080230c9a32
:102ed800db0013430022236067680f92954205daee
:102ee800802109066b181d002d230f930322462eff
:102ef80005d03300453b59424b41013aff1812ab0c
:102f0800049311ab039310ab0293009201970b9ab1
:102f18002b000698fdf7d8f80990472e60d10c9b36
:102f2800db075dd4129b099a9f1a109b472e00d08d
:102f380084e0da1c03db62689a4200dbaee00a9a9e
:102f4800023ad2b20a9222000a9950325d1e0b92be
:102f5800117010952b22002d02da01250232ed1a8c
:102f6800230051331a70092d00dc82e027260aabb2
:102f7800f618731e0a2128000c9302f00df9731e2f
:102f88003031197028000a2102f020f8632d68dc1e
:102f980023002722023e30300aa9307052335218db
:102fa8001900964260d30b9bcb1a0b93fb18236135
:102fb800012f02dc2268d20701d5013323610f9b60
:102fc800002b00d151e723002d2243331a704ce720
:102fd800472e00d07ae7002b00d077e7013374e75b
:102fe800099bdb190c93462e13d1099b1b78302bb8
:102ff8000ad1002200230b98290005f03dfc002887
:1030080002d10123df1b1097109a0c9b944663444e
:103018000c93002200230b98290005f02dfc0028b2
:1030280001d00c9b1293129b302203e0591c129181
:103038001a70129b0c999942f8d873e70a9a652a74
:1030480081d90a9a662a2bd16268002b1add23617e
:10305800002a02d12168c9071cd50132d218226181
:1030680018e00c9e050084e73178013619700133a9
:1030780096e73022230021005233ad181a705431dc
:103088005d7090e7002a03d101212068084200d032
:10309800911c2161a36500230b9390e767220a9294
:1030a800bb4205db22682361d207f3d55a1cd6e759
:1030b8000122002b01dc9218d21ad219cfe722681c
:1030c80053050dd42369099a07990698089da847be
:1030d800431c2ed1d4e6c046ffffef7f80a200003c
:1030e8000a9b652b00d8cfe0a06ce16c002200237e
:1030f80005f0c2fb002833d08c4a0123103207990f
:103108000698089da847431c00d1b9e6109bbb420e
:1031180002db2368db070cd5089d0e9b0d9a0799e7
:103128000698a8470025431c00d1a9e67b1eab42a0
:103138000adc23689b0700d5f6e0129be0689842fa
:1031480000db9fe618009de6220001231a3207994a
:103158000698089eb047431c00d191e60135e5e783
:10316800109b002b2bdc714a01231032079906981b
:10317800089da847431c00d182e6109b3b4302d11f
:103188002368db07d5d5089d0e9b0d9a07990698ed
:10319800a8470025431c00d172e6109b5b42ab4256
:1031a80001dc3b008fe7220001231a3207990698b9
:1031b800089eb047431c00d162e60135ede7a66dd5
:1031c800be4200dd3e00002e08dd3300099a079953
:1031d8000698089da847431c00d151e600230a938e
:1031e800f343db170b930ce0220001231a320799f3
:1031f8000698089da847431c00d141e60a9b013365
:103208000a930b9ba56d0a9a3340eb1a9342ebdca9
:10321800109bbb4219db2368db0716d4109bfe1af0
:103228009d4200db7e1b002e09dd099b07995a1978
:1032380006983300089da847431c00d120e60023c8
:103248000993f343db170a9315e00e9b0d9a079930
:103258000698089eb047431ce0d111e622000123de
:103268001a3207990698089da847431c00d107e61b
:10327800099b01330993109b0a9afb1a32409b1a47
:10328800099a9342eadc54e7012f02dc01231a422f
:1032980037d00123099a07990698089da847431c27
:1032a80000d1ede50e9b0d9a07990698089da84751
:1032b800431c00d1e4e5a06ce16c002200237e1ed3
:1032c80005f0dafa00281ad13300099a0132079971
:1032d8000698089da847431c0dd1d1e5220001237b
:1032e8001a3207990698089fb847431c00d1c7e5ca
:1032f8000135ae42f2dc22000b9b5032e4e6002599
:10330800f7e7099ae3e7220001231932079906989b
:10331800089eb047431c00d1b2e50135e368129a14
:103328009b1aab42efdc08e70025f7e780a2000014
:020000040000fa
:10333800f0b557464e464546de46e0b50c03060056
:10334800480087b092469846240b400dcf0f0028be
:1033580000d178e07b4b984200d190e0730fe400f5
:103368001c438023784a1b041c439446030063448f
:103378000093002399469b46f500434642461e03a8
:10338800d20f5b005046360b5b0d904600d180e0b3
:103398006c4a93421dd06c49420f8c460099634495
:1033a800f6008c46164380229c441204634616435a
:1033b800c200002000930099434601318c464946db
:1033c8007b4001930f2900d9c6e0604b890059580a
:1033d8008f465c4952468c46009b324363440093b7
:1033e800002a00d08de04946022319438946002669
:1033f8000220e0e7434601933400150083465b460c
:10340800022b64d0032b00d1f1e1012b00d05ee147
:1034180000220026002500213603340b0e0d360548
:1034280026434b4c120534401443019b6400db07d0
:1034380064081c432800210007b03cbc904699460c
:10344800a246ab46f0bd2500354352d0002c00d132
:1034580076e1200006f04ef802000b3a1d23010029
:103468009b1a3200350008398c40da408d401443ed
:10347800384b1b1a0093002399469b467de735007d
:1034880025432fd108239946063b002400909b46ec
:1034980073e7524632431ed0002e00d142e130007d
:1034a80006f028f802000b3a1d2301009b1a524629
:1034b8000839da408e40164352468a40009b254917
:1034c800181a03008c4663440093002073e71d4ad2
:1034d800002600259fe7494601231943894600260f
:1034e800012068e70c239946093b350000909b466c
:1034f80043e70423994600230093013300249b46a5
:103508003be74a4603231a4391460320524652e7b3
:10351800019774e700238026019336030025094aa2
:1035280079e780231b031c4200d1f3e01e4200d040
:10353800f0e01e43434636031500360b0193014a5b
:1035480069e7c046ff07000001fcffff0894000080
:10355800ffff0f800dfcffff2f0c2d042d0c2b00ff
:10356800110c1204120c53439846130028007b4395
:10357800994648434844834640460b00000c82461f
:1035880058467b4350440293814506d99a46802386
:103598005b029946ca4453460293030c9b46434632
:1035a8001b0400041b0c9846030043440493330c8b
:1035b80099462b003604360c7343984633007b43f8
:1035c8009a464b465d435f4343465544180c4019a1
:1035d800824503d980235b029a465744050ceb19b0
:1035e800059343461d042d0c00044019250c2404a2
:1035f800240c270057436a4390462a003b0c9a46fe
:103608004a436143414451448344884503d9802354
:103618005b02984642443f040b0c3f0c0904c9194d
:10362800270098464b4677435c436e435d433b0c0b
:103638009946a4194c4442440395a64204d98023d0
:103648005b02984645440395029b3f045b441e0079
:103658008342804123049846059b3f0c4744984683
:1036680076188e428941474440423d18a84649424f
:1036780093468a46c344da449f42bf41804580410d
:10368800039b934592418a45894198465346404257
:103698007f420743240c524249420a433c19a4186a
:1036a800da0d049b75021d43681e85415346444448
:1036b8006402f60d144335435a021543e30173d5ea
:1036c80001216a080d401543e207154364084b4a77
:1036d8006244002a43dd6b0709d00f2129400429e1
:1036e80005d0291da942ad416d4264190d00e301c1
:1036f80004d5434a14408022d200624441498a4298
:1037080000dde4e66107ed08640252050d43260b6f
:10371800520d80e68026360326433603360b019782
:10372800394a78e605f0e6fe03001a001532203023
:103738001c2a00dcb8e65646083b00229e40bde63f
:10374800300005f0d7fe03001a00153220301c2a7d
:1037580000dc83e63400083b00259c4088e6012114
:10376800891a382900dd53e61f2920dc2748220062
:1037780060442e0085408240ce40681e8541324319
:103788002a43cc40530709d00f211140042905d002
:10379800111d914292415242a4180a0023021fd5da
:1037a80001220026002536e6009b9c468fe71f2055
:1037b8004042821a2000d040202903d0144a624493
:1037c800944025436a1e95412a0007250243154067
:1037d8000026002d07d00f21002411400429d7d13d
:1037e80065076402260bd2081543002213e68026db
:1037f800360326433603360b034a0ce6ff03000064
:10380800fffffffefe070000ff0700001e04000088
:043818003e0400006a
:020000040000fa
:10381c00f0b5d6464f464646c0b505000e008c2284
:10382c004243c74b9b185868447b5c2161438433eb
:10383c001f687f18bb68984600233370c37b2f2bff
:10384c0000d9a7e19b00bf4ad3589f46027a437a1e
:10385c001b021343827a12041343c27a12061a43d0
:10386c0002d0037b7f2b02d8012333708ce1232af7
:10387c0000d924228c206843b14b1b181a6192b2d8
:10388c0084331b6859181431280006f079f87be151
:10389c00027a437a1b021a43837a1b041343c27abb
:1038ac0012061a43914602d0037b7f2b02d80123c8
:1038bc00337069e163001b19db008c226a439b188f
:1038cc009f4ad31822331b78002b02d1013333705b
:1038dc005ae14b46032b01d904239946984a6300bd
:1038ec001b19db008c2169435b18d3185c6a5218d6
:1038fc004b4613614a460021404606f00ffd032358
:10390c00424613700023537093703b6d2000984710
:10391c00002802d080234246937000234246d37085
:10392c004b469ab24146280006f02af82ce1630077
:10393c001b19db008c226a439b18814ad318223353
:10394c001b78002b24d19246631c9c465b0062467c
:10395c009a18d2008c276f43d21952445268904661
:10396c0092780f218a430221894649460a434146ef
:10397c008a7062469a18d200d219524452683a217f
:10398c0011736344db00db1953445b6800225a73e8
:10399c00027a437a1b021343827a12041343c27acb
:1039ac0012061a4302d0037b7f2b02d801233370fb
:1039bc00eae0112a00d91222614f8c266e43b046e0
:1039cc00bb191a6192b2013466003319db0043440f
:1039dc00fb185968280005f0d3ff3619f600464449
:1039ec000123f355d0e0037a427a12021a43837a08
:1039fc001b041a43c37a1b06134302d001233370f2
:103a0c00c2e063001c19e4008c235d4365194c4c27
:103a1c00651922352b78002b00d0b5e001333370bb
:103a2c00b2e0037a427a12021343827a12041a43e6
:103a3c00c37a1b0613431f1e02d0037b7f2b02d8b5
:103a4c0001233370a0e063001b19db008c226a4356
:103a5c009b183b4ad31822331b78002b02d101331d
:103a6c00337091e0072f00d90827354a8c21694320
:103a7c0053181f6163001b19db005b18d318db6a3a
:103a8c009a68002a34d01e69f06863001b19db00a9
:103a9c005b182b4ad318198c884223d902f0befe2e
:103aac00b3685843013863001c19e4008c236b4342
:103abc00e418234b1c19238c020e41460a70020297
:103acc00120e4a700204120e8a70c8701a0e0a7115
:103adc0000224a711a0a8a71cb71bab2280005f019
:103aec004fff51e0b368584302f098fe0138dae713
:103afc001e69706863001b19db008c226a439b18db
:103b0c000f4ad318198c884205d902f087fe336806
:103b1c0058430138c7e73368584302f07ffe013839
:103b2c00c1e763001c19e4008c235d436519044c48
:103b3c00651922352b78002b26d10133337023e005
:103b4c00a8100020907900002949013463001a194b
:103b5c00d2008c20684312188a185568aa780f274f
:103b6c00ba4305273a43aa701a19d20012188a18b8
:103b7c005268202515731d19ed002d184d196b6811
:103b8c0000225a730123337006201cbc90469946c0
:103b9c00a246f0bd164b9846631c99465f00fb1875
:103bac00db008c246c431b194344586805f07ffae6
:103bbc004b46fb18db001b1943445a6893780f21c2
:103bcc008b4305210b4393704b46fb18db001b19f1
:103bdc0043445b6820221a733d004d44ed002d19bf
:103bec0045446b6800225a7301233370cce7c046fe
:043bfc00a8100020ed
:020000040000fa
:103c0000f8b5de4657464e464546e0b50400150079
:103c10000f260e404fb2431e033300d9c3e10823e1
:103c2000d356022b00ddc1e10e230b4200d0c0e1d0
:103c3000436a9846330010339b00c31859683a1101
:103c4000082313408a469a445346db79db0700d4a5
:103c5000b2e16b68994653469988484602f06afe7d
:103c600000294cd0002f00dba9e1e378002b4cd0d9
:103c70000023ab6103332b720023994669682962e4
:103c800053461a68002a00d072e104232b720023e5
:103c9000eb6153461d60002e00d02be1002f00daaf
:103ca000e8e02123e35c032b6ad0042b00d1c7e0ba
:103cb000012b00d061e1e16c0832286806f0d7fae8
:103cc00082235b0040224146ca54f43b0822ff3263
:103cd0008b540a22ff328b542b689a79002a44d1e4
:103ce00021230732e2545346aa691a6002232b7239
:103cf000eb68002b00d140e1280098473de1002f00
:103d00000edbe378002b00d05ce1a37b012b1bd002
:103d10007f2040423cbc90469946a246ab46f8bd47
:103d20002b7cda0706d54a46002a03d0802252426d
:103d300013432b74e378002be7d00023ab610333ec
:103d40002b720023994699e700239b46a3730a2010
:103d5000205605f079fb81465b46ab6103332b723d
:103d60000021002f00db8ae788e71b787f2b03d830
:103d700021230222e254b6e721230622e254b2e7cd
:103d8000266db604b60c286a6b6832189a4201d9bf
:103d90001e1ab6b2e16c2b689c466044320006f0f5
:103da00066fa2b6af3182b626a6893421bd30023ce
:103db0002b7221330822e254203bff3241468b54c0
:103dc0000a22ff328b540433ff33c93aca542b6a98
:103dd0006b605346aa691a60eb68002b00d1cce0f7
:103de00028009847c9e053469b88b3421bd901235a
:103df0002b7221220821a1540822ff3241468b5404
:103e00000a22ff328b540433ff33c93aca542b6a57
:103e10006b605346aa691a60eb68002b00d1ace0d6
:103e200028009847a9e001230822ff3241468b541d
:103e30000a22ff328b540433ff33c93aca549ce040
:103e400000232122a3542b7201330822ff32414662
:103e50008b540a22ff328b540433ff33c93aca54bd
:103e60005346aa691a60eb68002b00d185e0280050
:103e7000984782e02123e35c062b14d0072b7cd1ea
:103e800021230822e254236e9b0b9b03236602230b
:103e9000ff3241468b540a22ff328b540623ff33f4
:103ea000893aca5469e02b6a52469688b34200d2d6
:103eb0009eb2e06d3200296806f0d9f92b6a9b1b8f
:103ec0002b6221230922e254236e9b0b9b03236662
:103ed000226eb3049b0c1343236602230822ff3295
:103ee00041468b540a22ff328b540623ff33893a12
:103ef000ca5442e0002f12db29687301e218d16432
:103f00001e00464405220821ff31725433000a3353
:103f1000ff331a7082235b003b32f2542de0286a93
:103f20009b88984200d883b26a68101a2a6894461f
:103f300060447201a118c865286ac01a2862086e18
:103f4000800b80030866086e9b049b0c03430b6682
:103f5000160046440a230821ff31735432000a3206
:103f6000ff3213700623ff338022f25405e01a005b
:103f70009369002bfbd19561ea61e3780020002b67
:103f800000d0c7e64b46002b09d0a37a5ab2002acc
:103f900005db1f221a40012393400e4a13600123c0
:103fa000a3730020b6e67d204042b3e67b2040426a
:103fb000b0e67c204042ade676204042aae67d2075
:103fc0004042a7e60023ab6103332b7200239946de
:083fd00055e6c04600e100e0e7
:020000040000fa
:103fd800f0b5de4657464e464546e0b58fb005007b
:103fe8000e00069101235b420d930990b64b8c227b
:103ff800424399184f6808977c7b84315c20604362
:104008000968884680444046806881464046c068c2
:104018000390002131700b910c9166003619f6005f
:10402800b6189e19736a04930caa0ba9380005f0f8
:10403800ecfff36a1b699a6892461b689b46318cb1
:104048000126914203d8100002f0eafbc6b20b9f8a
:1040580007963100380002f0e3fb059063001b1956
:10406800db008c226a439b18974ad31828331b78a5
:10407800012b0bd0032b33d0002b36d005200fb0eb
:104088003cbc90469946a246ab46f0bd0c9b002b23
:1040980000d173e18c226a438b4b9b189b7d002bcc
:1040a80000d0c7e063001b19db008c226a439b1811
:1040b800854ad318283300221a70012e1dd0f71b09
:1040c800059b7343db19dbb20c9a9a426cd9012b1e
:1040d80064d98c226a437c4b9b1801225a7515e0df
:1040e800023b069a13700620c9e78c226a43764b76
:1040f8009b189b7d002b11d1dfe70c9b012b47d927
:104108008c226a43704b9b1801225a758c226a4391
:104118006d4b9b185a7d9a7500221a758c226a433a
:10412800694b9b185b7d002b4dd1012e77d08c22db
:104138006a43654b9b189b7db34270d063001b1983
:10414800db008c226a439b185f4ad318283302226b
:104158001a705946504602f063fb059b4343009092
:10416800039a0da904984746bf6cb8470d9b0133c5
:1041780000d1a3e063001b19db008c226a439b1863
:10418800514ad31828331b78012b55d0052076e7e0
:104198008c2169434c4a52185375b7e78c216943ff
:1041a800494a52185375b1e7012a06d98c226a4345
:1041b800454b9b1801225a75a8e78c216943424b4d
:1041c8005b185a75a2e74048110087183b7d5b02cf
:1041d8004b44fb6563001b19db009b189b4683441b
:1041e8005b461b8c3b663b006c331a000223137042
:1041f8000a005c3212183b0031331b78085819004a
:1042080005f034fd3b7d01333b757b7d013b7b75c0
:104218005b4628331b78012b0cd005202fe7630061
:104228001b19db008c226a439b18274ad3182833b2
:1042380001221a70012e49d08c226a43224b9b1806
:104248009a7db24242d063001b19db008c2169437e
:104258005b181d49cb181b8c059f07994f430b9979
:10426800cf1b5f43bfb25a43002a79dd0023059371
:104278000022154966003619f6008c20099b584320
:1042880036188e19091816239c468c44039b9b46a6
:1042980000236146a44634004e46a9460d00f15c51
:1042a8005a44d15501339bb21a00208c29784143d6
:1042b8008b42f4db64464d46012612e00123069a40
:1042c80013700620dbe6c046a81000208c226a4343
:1042d8002b4b9b18987d310002f0a2fac6b24b46d0
:1042e80003930b9f63001b19db008c226a439b1806
:1042f800234ad318188c504534d80799380002f04f
:104308008ffa030062001419e4008c226a43a4188f
:104318001b4a141928340222227000964246d46c93
:10432800039a0da90498a0470d9b013321d08c2333
:104338006b43134ded18ab7d5a0229698c466244d4
:104348002a610b9ad2180b920c9ad31a0c930caac6
:104358000ba9089805f066fe0023ab7505208ee6cc
:104368000126bee7514602f05bfa464303007b4351
:10437800c8e70123069a1370062080e606207ee629
:04438800a810002059
:020000040000fa
:10438c00f8b5ce46474680b5cb4b02221a700400d6
:10439c0047189846c94eca4b994619e00d2d16d0b0
:1043ac000a2d14d03a2d03d0c34b01221a700ee003
:1043bc00c24b01221a70c34b00221a7007e028006e
:1043cc0005f078fd002813d1bb4b01221a70013483
:1043dc00a74200d198e143461b78022b00d093e111
:1043ec00257833780c2bf2d89b004a46d3589f463d
:1043fc00280005f047fb0001b34b1870af4b0222ad
:10440c001a70e4e7280005f055fd002803d1aa4beb
:10441c0001221a70dbe7280005f034fbaa4a137856
:10442c00c018c0b21070a7490a7882180a70a34a43
:10443c00032111702028cad99f4b01221a70c6e79c
:10444c00280005f037fd002803d19b4b01221a7080
:10445c00bde7280005f016fb00039c4b1860974b3a
:10446c0004221a70b3e7280005f024fd002803d1bc
:10447c00914b01221a70aae7280005f003fb934b1d
:10448c0000021a689446604418608c4b05221a701e
:10449c009de7280005f00efd002803d1864b012274
:1044ac001a7094e7280005f0edfa884b00011a68a1
:1044bc00944660441860814b06221a7087e72800e6
:1044cc0005f0f8fc002803d17b4b01221a707ee723
:1044dc00280005f0d7fa7d4a13689c466044794958
:1044ec000b781b18050a5b190b70794b1b68181895
:1044fc001060724b07221a7069e7280005f0dafc8d
:10450c00002803d16c4b01221a7060e7280005f0db
:10451c00b9fa00016f4b1870684b08221a7056e7f5
:10452c00280005f0c7fc002803d1634b01221a7048
:10453c004de7280005f0a6fa664a1378c018c0b2f9
:10454c001070002264490a7064490a705d490a7847
:10455c0082180a7001280dd0002807d0022815d027
:10456c00042813d0544b01221a7030e7534b092204
:10457c001a702ce7544b1b78002b03d04e4b0122a6
:10458c001a7024e74d4b0a221a7020e74e4b1b7809
:10459c00022b03d0484b01221a7018e7474b092213
:1045ac001a7014e7280005f085fc002803d1424b53
:1045bc0001221a700be7484b1b78002b15d12800f1
:1045cc0005f060fa454b1b780001454ad054424b2c
:1045dc0001221a70414b1a783b4b1b789a4200d23d
:1045ec00f5e6364b0a221a70f1e6280005f04afa75
:1045fc003a490a783a4dab5cc318dbb2ab5431483c
:10460c0005785b190370344b0020187001320a7066
:10461c00e0e7280005f04efc002803d1264b0122d0
:10462c001a70d4e6280005f02dfa264b00011a78f2
:10463c0080181870214b0b221a70c8e6280005f060
:10464c0039fc002803d11c4b01221a70bfe628004c
:10465c0005f018fa1b4a1378c018c0b21070002865
:10466c0003d0154b01221a70b1e6144b0c221a70b0
:10467c00ade60d2d05d00a2d03d00f4b01221a707b
:10468c00a5e6144b1b78012b11d0002b07d0022b65
:10469c0028d0042b2fd0094b00221a7097e60b4b15
:1046ac001a68094b19780e4801f0cefcf3e7024b5f
:1046bc0000221a70efe7c046fe140020fd14002003
:1046cc00b4960000a6140020d2140020e0140020a0
:1046dc00e4140020fc140020d3140020a7140020a4
:1046ec00441400200b4a13781b0252789b181b01b0
:1046fc00094a1360cfe7074a13781b0252789b18bc
:10470c001b04054a1360c6e7044b18780cbc904692
:10471c009946f8bd44140020e4140020fe14002037
:020000040000fa
:10472c0070b582b004006b460022da718c324243c1
:10473c00954b9b185a7a072a12d89300934ad35850
:10474c009f46914e8c235c4335192b0030331978de
:10475c00a05905f005fc31352978a05905f000fc6d
:10476c0002b070bd88488c236343c2183132117873
:10477c00185805f06ffb0028f2d183488c23634353
:10478c00c21830321178185805f064fb0028e7d1b4
:10479c007d488c231e00664385196a68ea656a8e1b
:1047ac002a662a006c320221117032005c32121817
:1047bc002b0031331978305805f056fa01236b72ff
:1047cc00cee78c224243704b9b1864331b78012b31
:1047dc000cd98c2262436c4b9b1864331b787f2b57
:1047ec00bed9694ca41800236372b9e7664813005c
:1047fc00821831321178185805f02cfb0028e8d1ba
:10480c006b46d91d200000f08ffe8c2262435e4b5c
:10481c009b18587202280dd0042816d005281fd0da
:10482c008c236343584ce418e3686a4607321278c9
:10483c001a7395e76b46d91d2000fef7e9ff8c2211
:10484c006243514b9b185872eae76b46d91d200006
:10485c0000f03aff8c2262434b4b9b185872dfe7f7
:10486c006b46d91d2000fff7b1fb8c226243464bef
:10487c009b185872d4e78c224243434b9b1840330d
:10488c001b785bb2012b00dd6ae73f4813008218ee
:10489c0030321178185805f0ddfa002800d05fe7a7
:1048ac006b46dd1d2900200000f00eff8c236343b6
:1048bc00354ce4186072e3682a781a7350e78c223e
:1048cc004243314b9b1864331b785bb2012b00dde8
:1048dc0046e72d481300821831321178185805f02c
:1048ec00b9fa002800d03be76b46dd1d29002000fb
:1048fc00fff76cfb8c236343234ce4186072e36872
:10490c002a781a732ce78c2242431f4b9b18403396
:10491c001b785bb2012b00dd22e702f00ff98c2231
:10492c006243194b9b1807225a728c226243164b16
:10493c009b1840331b785bb2012b00dd10e712484b
:10494c001300821830321178185805f083fa0028b9
:10495c0000d005e70c488c231e0066438519ea68d5
:10496c00aa630d22ea632a00483202211170320038
:10497c00383212182b0030331978305805f074f98e
:10498c0000236b72ece6c046a8100020409e00008d
:020000040000fa
:10499c00f0b5de4657464e464546e0b593b00600a8
:1049ac000d0001927a4a13881c004034a4b2148082
:1049bc00784818184022310005f053fc764b9c4285
:1049cc0010d9734b00221a80744b9c466544724b71
:1049dc009d420ed9724b1b78002b00d17de0012b30
:1049ec0000d199e013b03cbc90469946a246ab4628
:1049fc00f0bd6c496c4bd868303103f071fe654ddd
:104a0c0080239b009b46ab440aae664b0433009359
:104a1c00644b9a4605e04746002f1bd120355d4577
:104a2c00d8d002ab2a0083ca83c383ca83c303ca08
:104a3c0003c3ef690997330002aa13ca13c313ca3d
:104a4c0013c303ca03c333789946584b0098b8462e
:104a5c001f0091e0524b1b78002b1ad0544b1a6854
:104a6c00544b1b689a42b5d34d4b1b78022bb1d1da
:104a7c00514b1b78012b23d050494b4bd868083134
:104a8c0003f02efe4e4b01225a614e4b4e4a1a60d9
:104a9c00a0e7444c21004831434de86803f020fe68
:104aac0021005431e86803f01bfe404605f0d0fbb2
:104abc0021006431e86803f013fe3e4b1f60cde724
:104acc003849394bd868683103f00afe3c4b022256
:104adc005a613c4b3c4a1a607ce72e4805f0a6fc18
:104aec00002800d17ee72e4b01221a7033492e4b41
:104afc00d868203103f0f4fd05f04efa2c4a136807
:104b0c00802189008c46634413608139ff39890008
:104b1c002048fff735fc65e7254a1368802189009a
:104b2c008c46634413608139ff3989001948fff7bb
:104b3c0027fc019b032b00d054e71d4b1a681f4c1c
:104b4c0021003431184de86803f0cafd21004831ca
:104b5c00e86803f0c5fd124b02221a7042e7894641
:104b6c0003220ca905f033f9002800d153e70437d0
:104b7c003868002800d151e75346083349461a7863
:104b8c009142ecd00133002af9d18946efe7c046b7
:104b9c00ce0e0020a8080020ff01000000fafeff46
:104bac009804002064760000b0010020d0a300001f
:104bbc00a00400209c040020ff140020e4760000d8
:0c4bcc0000440041d414002020a1070088
:020000040000fa
:104bd800f0b58bb006920a00433207930590049211
:104be8000a7e0c00109b6e2a00d1b0e020d8632a00
:104bf80036d008d8002a00d1b6e0582a52d026006c
:104c08004236327033e0642a01d0692af7d1196834
:104c180020680a1d05062cd50d681a60002d03dad8
:104c28002d23049a6d4213706c4b0a27039353e0ab
:104c3800732a00d19ce008d86f2a20d0702aded1d0
:104c4800202209680a43226003e0752a17d0782acf
:104c5800d5d12200782145321170604a113224e002
:104c680026001a684236111d196013683370012333
:104c78008ce00d681a604106d0d52db2cee71968d0
:104c88002568081d18602e0601d50d6803e06d061d
:104c9800fbd50d68adb2514b0a2703936f2a17d184
:104ca800082715e045310a704c4a03921a682168b2
:104cb80020ca1a60080644d5cb0702d52023194319
:104cc80021601027002d03d1202322689a432260f7
:104cd8002300002243331a706368a360002b03dbb0
:104ce8000422216891432160002d02d1049e002beb
:104cf8000ad0049e3900280001f018fe039b013eeb
:104d08005b5c3370af4220d9082f09d12368db07d9
:104d180006d563682269934202dc3023013e337072
:104d2800049b9b1b2361079b09aa00932100069bf8
:104d3800059802f025fc431c2dd1012040420bb000
:104d4800f0bd4806b8d5adb2b6e70500d2e71a6897
:104d58000d68101d4969186013682e0601d5196081
:104d680002e06d06fbd519800023049e2361dae773
:104d78001a68111d1960166800216268300005f074
:104d8800d6f9002801d0801b606063682361002386
:104d9800049a1370c7e72369320006990598079d9e
:104da800a847431cc9d023689b0715d4099be06812
:104db8009842c4da1800c2e7220001231932069982
:104dc8000598079eb047431cb7d00135e368099a98
:104dd8009b1aab42f0dce9e70025f7e7fc9d0000f1
:020000040000fa
:104de800f0b5c64600b5754b9b7d002b00d1e2e0bf
:104df800724a137edbb2927d52b2002a0ddb6f4af3
:104e0800137edbb2927dd20700d4c7e0db0700d463
:104e1800c4e06b4d6b4c26002ce05bb2002beeda45
:104e2800664b5b8b07221340e9d0654ad387634bf7
:104e380080221a76793a5a831b7e5b0705d55f4b29
:104e480004211a8d1a7e0a42fbd15d4b1b6a002b86
:104e5800d5d05b4a516a02209847d0e7531c5200cc
:104e6800a15a19e0ff230b40544a1385544b1b7d6c
:104e7800002b21d1514b1b7edb0700d48ee0ab68a1
:104e8800ea68934200d186e04c4b596807230b40ef
:104e9800012be3d0531cb15c494a126993429241f9
:104ea8001340474ad360454b5a6807231340012be8
:104eb800d8d1424b1985d9e705f06cf9404b1b68ee
:104ec800002bd7d03e4a127f002a08d03c4a92696c
:104ed8009042cfd33a4a516803209847cae7384ae4
:104ee80092699042c6d1364a516803209847c1e773
:104ef8004246126a002a23d0696a01209047ab6aa9
:104f080001332a6b93429241134019e02c4a926a6a
:104f18002d498c542a4a93623423d35c002b1fd129
:104f2800264b1b7e5b0746d5244b1c8da4b2b36a67
:104f38000133326b934292411340fa6a9a42d7d0b6
:104f48001f4ad26a9a42ebd01c4a516807220a408b
:104f5800012adbd11a4a926a52001b498c52d9e7be
:104f680004f0e4ff164b1b6a002bd9d014493c22ed
:104f78008a5c002a06d08a6b9042d1d3496a002005
:104f88009847cde70e4a926b9042c9d10c4a516ab4
:104f980000209847c4e7094b01221a75074a137e77
:104fa800dbb2927d520706d55b0704d5044e370065
:104fb800b0463500b4e704bc9046f0bd0008004296
:0c4fc800a0130020b411002034110020c0
:020000040000fa
:104fd40003460b437fd4002243088b4274d3030956
:104fe4008b425fd3030a8b4244d3030b8b4228d3f7
:104ff400030c8b420dd3ff22090212ba030c8b421d
:1050040002d31212090265d0030b8b4219d300e0bc
:10501400090ac30b8b4201d3cb03c01a5241830b41
:105024008b4201d38b03c01a5241430b8b4201d3f1
:105034004b03c01a5241030b8b4201d30b03c01a1a
:105044005241c30a8b4201d3cb02c01a5241830a94
:105054008b4201d38b02c01a5241430a8b4201d3c3
:105064004b02c01a5241030a8b4201d30b02c01aed
:105074005241cdd2c3098b4201d3cb01c01a524154
:1050840083098b4201d38b01c01a524143098b42dd
:1050940001d34b01c01a524103098b4201d30b01c6
:1050a400c01a5241c3088b4201d3cb00c01a5241eb
:1050b40083088b4201d38b00c01a524143088b42b0
:1050c40001d34b00c01a5241411a00d20146524149
:1050d400104670475de0ca0f00d04942031000d368
:1050e4004042534000229c4603098b422dd3030abd
:1050f4008b4212d3fc22890112ba030a8b420cd3cd
:10510400890192118b4208d3890192118b4204d3f5
:1051140089013ad0921100e08909c3098b4201d375
:10512400cb01c01a524183098b4201d38b01c01aaf
:10513400524143098b4201d34b01c01a5241030926
:105144008b4201d30b01c01a5241c3088b4201d3d5
:10515400cb00c01a524183088b4201d38b00c01a82
:105164005241d9d243088b4201d34b00c01a524159
:10517400411a00d20146634652415b10104601d3e6
:105184004042002b00d54942704763465b1000d370
:10519400404201b5002005f061f902bd0029f8d0b4
:0451a40016e7704753
:020000040000fa
:1051a800f0b59fb002901d008b890f0016001b06fa
:1051b80011d50b69002b0ed1402102f045fc386057
:1051c8003861002805d10c23029a013813601fb0fa
:1051d800f0bd40237b61002306ac63612033637616
:1051e8001033a376059535002b78002b01d0252b9d
:1051f80046d1ab1b03930cd032003900029802f061
:1052080061fb431c00d1a8e06269039b9446634498
:1052180063612b78002b00d19fe0012253210023ea
:105228005242626002aa52186e1c2360e360a360b7
:105238001370a365317805224c4804f078ff751c7b
:1052480000281fd12268d30604d5202302a9533091
:1052580009180b70130704d553202b2302a909182a
:105268000b7033782a2b16d0350000210a20e3680a
:105278002a786e1c303a092a50d9002911d117e032
:105288000135b1e7394b2268c01a01238340134323
:1052980023602e00cee7059b191d1b680591002b86
:1052a80001dbe36004e05b42e36002231343236015
:1052b8002b782e2b0ad16b782a2b37d1059b0235f8
:1052c8001a1d1b680592002b2ddb6360274b29787c
:1052d8009e1d0322300004f02aff002806d0402338
:1052e800801b834022680135134323601f482978b7
:1052f80006220a30217604f01aff05aa00926e1cd5
:105308001b4b3a002100002823d00298fdf758fdd6
:10531800431c22d063691818606164e74343012184
:105328009b183500a4e701235b42cee700230a203f
:105338001a000135636029786e1c3039092903d9b0
:10534800002bc3d06260c1e74243012352183500e5
:10535800f1e70298fff73cfcdae7bb895b0601d46a
:10536800606934e70120404231e7c046a4a200004a
:04537800cd780000ec
:020000040000fa
:10537c0030b58db00c00002800d0c2e0674b1b7814
:10538c005bb2022b08d1654a9523d35c012b55d017
:10539c00012040420db030bd604b1b6cdb68002b14
:1053ac0005d05e4a908e9847022800d0b3e05b4b44
:1053bc001b6c1b68002b07d0584da88e0b219847ef
:1053cc00a863431c00d1a6e02822002102a804f007
:1053dc00a5ff524b986b1b6cdb6902a99847002800
:1053ec0000d198e04d4b029ada67039a0192802221
:1053fc0001999950059a84215a5006990191882156
:10540c00019858509a62089a04315a50099901919e
:10541c00902101985850da62682278399954049a8c
:10542c00da66079a1a670a9a01925a671a007c324e
:10543c009a670b9ada6002221a70a4e7130095227d
:10544c0000219954db79002b4bd1344a6023d35c77
:10545c00002b01d023074bd4304b586e002853d06f
:10546c009d6da9782b0010330022002909d0013240
:10547c00904249d01d00103319000e3909780029cb
:10548c00f5d10123ab7000232b706c706b6023077c
:10549c0002d5224b0121d971204960200b5c0133cc
:1054ac000b540b8e1b041a43aa600b8e01339bb258
:1054bc001b4a934223d0194a1386ab6801330ad096
:1054cc003c23d35c002b06d0136c9b69002b02d0c1
:1054dc00906b14499847114a95230121d154a8681f
:1054ec0058e70e4a95230131d1540120404251e72f
:1054fc000a4a95230121d154012040424ae7012355
:10550c00d9e70120404245e7044a95230121d154b3
:10551c00012040423ee7012040423be710100020b2
:08552c00ffff0000ffa30000d7
:020000040000fa
:10553400f8b5ce46474680b50600894600220a7073
:1055440061488c277743c3195c68657b69004919f6
:10555400c900c919411828310a701a611a75da7517
:105564005a759a751b6e03201f2b0cd12378627811
:1055740012021a43a3781b041a43e3781b0613434d
:10558400524a934203d00cbc90469946f8bd617bc5
:10559400300001f0d1f96a1c53009b18db00db19c1
:1055a400494a9b5c002b28d1e17b02230a009a43e1
:1055b4000220282ae7d16b005b19db008c2272439e
:1055c4009b18414ad31822331b78002b24d0227a0b
:1055d400637a1b021343a27a12041343e27a12067b
:1055e4001a43a37d1b02e07d03435b029a4218d059
:1055f40001234a4613700620c5e711006b1c9c4624
:105604005b0062469a18d200d219002757548b18af
:10561400586803f050fdc7e701334a46137004305d
:10562400b1e7002a3cd028293fd0237b7f2b46d8e2
:10563400254a6b005b19db008c2171435b18d3187e
:10564400586a5218843213685c226a439b181b6d93
:10565400984703000520002b95d01b4901356b00aa
:105664005a19d2008730464392198a1850688278b2
:105674000f24a2430724224382705a19d20092199c
:105684008a185268272010735b19db009e198e1943
:10569400736800225a7301234a461370213872e753
:1056a40000234a46137006206de7237b04207f2bda
:1056b40000d968e701234a461370023063e70123e7
:1056c4004a46137006205ee7a81000205553424353
:020000040000fa
:1056d400f0b5de4657464e464546e0b587b007006e
:1056e400894601235b4205935d498d334343ca18c0
:1056f40050688046457b84325c266e431268961956
:10570400b26892466c006419e400e4180c19636ae8
:105714009b4600234a4613700393049304aa03a9e7
:1057240004f075fc28342378012b0cd0002b23d0f3
:105734000420032b00d18be007b03cbc9046994673
:10574400a246ab46f0bd8c227a43454b9b18d97dcb
:105754001b7d8b4254d1424a8c207843131800217c
:10576400d97519756b005b19db001b18d318283326
:105774001970049b002b70d06b005b19db008c222a
:105784007a439b18364ad318283302221a70049c91
:10579400002c00d00124324a8c21794353181c7503
:1057a4006b005819c00040181018008c5d19ed00ea
:1057b4006d185519eb6a1b69196801f033f8039bde
:1057c400434344430094b46c524605a95846a04749
:1057d400059b013337d08c227a43214fbf183b7d80
:1057e400049ad21a0492039a94466344039304aa33
:1057f40003a9404604f018fc0023fb7504209be732
:1058040017486b005d19ed008c2213007b43ed18e3
:1058140045192e8cc4182569ad192561e663490222
:105824005144a1632100483102250d701a00383219
:10583400121818390978185804f01afae37d01335c
:10584400e375042078e701234a461370062073e7c2
:10585400023b4a46137002306ee706206ce7c046ee
:04586400a810002068
:020000040000fa
:10586800f0b5d6464f464646c0b50f260e400e2424
:105878000c4000d0aee0fe27bf001d00083dadb2d1
:10588800bd4200d9a9e0451c00d1a9e0456aa94656
:10589800082b06d908250134e4b26d00adb2ab423d
:1058a800f9d835001035ad0045196d68002a3ad190
:1058b8002a60ab80aa710126e9793143e971aa60af
:1058c800ab81aa73eb7b3343eb7380235b004946c0
:1058d800ca541132ca54026d43490a400265036e24
:1058e8000b400366036d2407e022d20514402343ce
:1058f8000365036e1c4304660369c3644369c36597
:10590800036d5b005b080365036e5b005b08036661
:105918000a23ff3313224946ca5400201cbc904670
:105928009946a246f0bd49b28a460911884608211f
:105938008c464146674639408c46654400212960bb
:10594800ab80aa71eb7901218c4661460b43eb7160
:105958005346002b29db73014b441f0080235b0057
:10596800fd5c07218d43fd54fd5c52001f49525ccc
:105978001543fd540623ff334022fa545346d90fea
:105988007600761836018019036d174a13400365af
:10599800036d2407e022d20514401c430465036dff
:1059a8005b005b0803650020b8e773014b441f00e8
:1059b80080235b00fd5c70218d43fd54fd5c52002b
:1059c80094460a4a624452781543fd5404338022af
:1059d800fa54d3e77c204042a0e77c2040429de770
:1059e8007d2040429ae7c046ffffff8f08a40000d1
:020000040000fa
:1059f800f0b5d6464f4680b583b00e0000920193ad
:105a08000aab80cb1b7899460cab1d780dab1c7884
:105a1800002902d001235b420b6003f043f8002801
:105a28001ed0437823421bd0009b002b1dd0002f93
