:020000040000fa
:020000040001f9
:10000000f07f0020fd4a0100ef480100b34a0100e3
:1000100000000000000000000000000000000000e0
:10002000000000000000000000000000c7430100c5
:100030000000000000000000c743010081560100dd
:10004000c7430100c7430100c7430100c743010084
:10005000c7430100c7430100c7430100e55a01003f
:10006000c743010091190100c74301005d1301005e
:10007000111b0100c743010011180100c743010013
:10008000c7430100c7430100c7430100c743010044
:10009000c7430100c7430100c7430100c743010034
:1000a000c7430100c7430100c7430100c743010024
:020000040000fa
:020000040001f9
:1000b000f8b5c046f8bc08bc9e467047dd4a010052
:1000c000f8b5c046f8bc08bc9e467047b54a01006a
:020000040000fa
:020000040001f9
:0800d000e8100000010000002f
:020000040000fa
:020000040001f9
:1000d800f0b5de4657464e464546e0b585b00500c4
:1000e8004378002b00d100e3836b002b00d1fce2a6
:1000f800446aa38b9b0505d5238b9b0502d58023da
:100108009b00a383a38bdb0505d5238bdb0502d5d9
:1001180080235b00a383a38b1b0604d5238b1b06bc
:1001280001d58023a383a38b5b0604d5238b5b06b1
:1001380001d54023a383a38b9b0604d5238b9b0661
:1001480001d52023a383a38bdb070dd5238bdb07e6
:100158000ad50123a383a3820f33a3832383002219
:100168000421686bab6b9847a38bdb060dd5238bfb
:10017800db060ad51023a383a3820f3ba383238323
:1001880000220321686bab6b9847a38b5b0709d5eb
:10019800238b5b0706d50423a38300220721686b02
:1001a800ab6b9847a38b1b0702d5238b1b0735d452
:1001b8000823ff33e35cdb065dd50a23ff33e35cea
:1001c800db0658d56e6cf37902229343f371f37b07
:1001d8009343f3733768002f47d0296d0632386888
:1001e80005f073fc0823ff331022e254033b30323e
:1001f800e2543a689179d3791b020b432ad121330f
:100208000722ea5402233b7206337b60bb693360e2
:10021800fb68002b2fd0380098472ce021230022c0
:10022800ea54237b1b079b0f984ad25c3023ea547d
:10023800280050306022002105f088fcab6b002bb1
:1002480003d000220221686b98478023a372783b71
:10025800a383ade713787f2b03d821230222ea5426
:10026800d0e721230622ea54cce721230122ea54cd
:10027800e7330f32e2540823ff33e35c9b0737d59b
:100288000a23ff33e35c9b0732d56b6c9e68002e14
:100298002ed02122aa5c082a1ad0316a002971d1ed
:1002a800327c51b200295ddb21220521a9540022ac
:1002b8003272b2699a60f368002b01d03000984717
:1002c8000823ff330222e254033b3e32e2540fe09c
:1002d800002221216a543272b16999607260f36810
:1002e800002b01d0300098470823ff330222e25444
:1002f8000823ff33e35cdb0700d4a3e00a23ff33c2
:10030800e35cdb0700d49de06b6c98462123eb5c33
:10031800052b59d043461e68002e74d06f6dbf045c
:10032800bf0c306a73683a189a4201d91f1abfb2d3
:10033800296d33689c4660443a0005f0c6fb336a71
:10034800fb1833627268934264d241468988b94285
:1003580060d882235b004022e2540823ff333f3aef
:10036800e2546fe07f231a4032746b6e9b0b9b0341
:100378006b660823ff330222e2540623ff337e32e2
:10038800e254b5e79f89b94200d88fb2286e7368e6
:10039800591a33689c4661443a0005f096fb336a63
:1003a800db1b33626b6e9b0b9b036b666b6ebf0430
:1003b800bf0c1f436f660823ff330222e254062353
:1003c800ff337e32e25493e743461868002813d07f
:1003d800002303722122ab540822ff320121a154c9
:1003e800033a3f31a1544246816911604360c368b2
:1003f800002b27d0984725e021230422ea54e7332d
:10040800033ae2541ee021230322ea54e733023a76
:10041800e25417e093429b415b4233722123072247
:10042800ea540823ff33063ae254033b3f32e254ce
:100438004346b2691a60336a7360f368002b01d0cf
:1004480030009847012601239b460827ff370733ca
:100458009a4649e07f22134003744346ea18536ed4
:100468009b0b9b0353660a234a46d3550623ff3347
:1004780080224946ca5434e0009b5b01e3180933e3
:10048800ff330a321a704b46da552ae06c5c0100d9
:10049800019b9b89994200d88bb24268511a026825
:1004a800944661444246aa181166016ac91a016253
:1004b800516e890b89035166516e9b049b0c0b434b
:1004c80053660a234a46d355009b5b01e3180a3357
:1004d800ff331a00022313700623ff338022494694
:1004e800ca540136032e73d0238c9bb20096334135
:1004f80059461942f5d07301e3180a33ff331b78c4
:10050800dbb2039373019846a146c1444b46db5db9
:10051800dbb20293029b5146194212d0039b194247
:100528000fd04346eb186a331b789b0709d543461f
:10053800eb186a331a7802218a431a704b465246de
:10054800da55029b9b07ccd5039b9b07c9d52b008b
:100558004433b2009b58019398680028c1d0016abf
:10056800002995d1037c5ab2002a00da72e70023e9
:100578000372019b82699a60c368002b00d0984778
:10058800019b9a68002a00d176e7106a019b9b8933
:10059800984200d883b25168081a11688c466044a2
:1005a800414669180866106ac01a10624a6e920bb2
:1005b80092034a664a6e9b049b0c13434b660a23bc
:1005c8004a46d3550623ff3380224946ca5488e752
:1005d800023e012399460823ff339a4621e000236f
:1005e80003725b4682691a60036a4360c368002b22
:1005f80000d098475b461b68002b6cd01a687f01b7
:10060800eb191a650523424651465354e7190a3730
:10061800ff373b70ff3340224146ca540136032e50
:1006280063d0238c9bb2370033414a461a42f5d037
:100638007301e3180a33ff331b78dbb203937301aa
:100648009846a044434652469b5cdbb20293029b09
:1006580004221a4210d07301eb185a331b789b07f7
:1006680006d57301eb185a331a7802218a431a7097
:100678004346524604219954029b4a461a42cdd019
:10068800039b1a42cad02b004433b2009b589b46a6
:1006980018680028c2d07b01eb185b6d9b049b0c8b
:1006a800026a9a18026241688a4298d25946898831
:1006b80099420dd803689a187f01ef193a65052306
:1006c800424651465354ff3340224146ca54a5e797
:1006d8004b46037285e77f01e7190937ff37052283
:1006e8003a70434651465a5498e705b03cbc904688
:0806f8009946a246ab46f0bd95
:020000040000fa
:020000040001f9
:10070000f8b5de4657464e464546e0b504001500ae
:100710000f270f404eb2431e033300d9c2e1082316
:10072000d356022b00ddc0e1022f00d9c0e1436a9d
:1007300098463b0010339b00c318596832110823b8
:1007400013408a469a445346db79db0700d4b2e172
:100750006b68994653469988484601f0d1ff0029b5
:100760004cd0002e00dba9e1e378002b4cd0002315
:10077000ab6103332b7200239946696829625346a3
:100780001a68002a00d072e104232b720023eb6167
:1007900053461d60002f00d02be1002e00dae8e068
:1007a0002123e35c032b6ad0042b00d1c7e0012b8b
:1007b00000d061e1216d0832286805f08af98223b2
:1007c0005b0040224146ca54f43b0822ff328b545e
:1007d0000a22ff328b542b689a79002a44d12123b4
:1007e0000732e2545346aa691a6002232b72eb685f
:1007f000002b00d140e1280098473de1002e0edba0
:10080000e378002b00d05ce1a37b012b1bd07f2081
:1008100040423cbc90469946a246ab46f8bd2b7c74
:10082000da0706d54a46002a03d0802252421343f3
:100830002b74e378002be7d00023ab6103332b72da
:100840000023994699e700239b46a3730a2020566c
:1008500004f090fb81465b46ab6103332b720021b1
:10086000002e00db8ae788e71b787f2b03d8212343
:100870000222e254b6e721230622e254b2e7666d73
:10088000b604b60c286a6b6832189a4201d91e1a4f
:10089000b6b2216d2b689c466044320005f019f910
:1008a0002b6af3182b626a6893421bd300232b72c6
:1008b00021330822e254203bff3241468b540a2266
:1008c000ff328b540433ff33c93aca542b6a6b602e
:1008d0005346aa691a60eb68002b00d1cce02800cf
:1008e0009847c9e053469b88b3421bd901232b721a
:1008f00021220821a1540822ff3241468b540a22aa
:10090000ff328b540433ff33c93aca542b6a6b60ed
:100910005346aa691a60eb68002b00d1ace02800ae
:100920009847a9e001230822ff3241468b540a224e
:10093000ff328b540433ff33c93aca549ce000237e
:100940002122a3542b7201330822ff3241468b54db
:100950000a22ff328b540433ff33c93aca54534638
:10096000aa691a60eb68002b00d185e0280098473f
:1009700082e02123e35c062b14d0072b7cd12123ba
:100980000822e254636e9b0b9b0363660223ff32d3
:1009900041468b540a22ff328b540623ff33893a97
:1009a000ca5469e02b6a52469688b34200d29eb27e
:1009b000206e3200296805f08cf82b6a9b1b2b6295
:1009c00021230922e254636e9b0b9b036366626ed4
:1009d000b3049b0c1343636602230822ff32414693
:1009e0008b540a22ff328b540623ff33893aca54b0
:1009f00042e0002e12db29687b01e21811651f001e
:100a0000474405220821ff317a543b000a33ff3363
:100a10001a7082235b003b32fa542de0286a9b88cf
:100a2000984200d883b26a68101a2a6894466044d3
:100a30007a01a1180866286ac01a2862486e800bdd
:100a400080034866486e9b049b0c03434b6613006f
:100a500043440a220821ff315a541f000a37ff3746
:100a60003a700622ff328739995405e01a009369db
:100a7000002bfbd19561ea61e3780020002b00d0c8
:100a8000c7e64b46002b09d0a37a5ab2002a05dbf1
:100a90001f221a40012393400d4a13600123a373c0
:100aa0000020b6e67d204042b3e67b204042b0e61f
:100ab0007c204042ade676204042aae67d204042be
:100ac000a7e60023ab6103332b720023994655e65a
:040ad00000e100e061
:020000040000fa
:020000040001f9
:100ad400d00e00201c0000000000000000000020d8
:100ae4003401000000000000800d002050000000d0
:100af40001000000f95401009d5a0100f55a01005b
:100b0400655b0100735b0100af5a010029580100c5
:100b1400493b0100fd140100911601001128010058
:100b2400b923010015530100e95501000107010033
:100b340041370100e5370100055b0100473b010037
:100b44000000000034010020b0000000000000009c
:100b5400300e00202c00000000000000230f0020b5
:100b640001000000000000005c0e00202c000000ca
:100b740000000000d00d0020300000000000000044
:100b8400000e002030000000000000000c0f0020c8
:100b94000c00000000000000880e00202800000067
:100ba40000000000e00c0020a00000000000000095
:100bb400ce0e002002000000010000000100000031
:100bc400d4080020ec00000000000000e401002034
:100bd400be00000000000000a40200202801000064
:100be40000000000cc0300200c0000000000000006
:100bf400d803002020000000000000002f0f002078
:100c04000100000000000000fa0e002001000000b6
:100c140000000000380f0020040000000100000064
:100c2400ffffffff180f00200b0000000100000071
:100c340042544e616d653d524e0a0000240f00205f
:100c44000b0000000100000042544e616d653d54ec
:100c5400430a0000ec0e00200e000000010000001a
:100c64005246434f4d4d5f434c4f53450a000000dd
:100c7400fc0e00200d000000010000005246434f0e
:100c84004d4d5f4f50454e0a00000000300f0020cc
:100c940008000000010000005245424f4f540a0072
:100ca400f803002084000000000000007c04002001
:100cb4004c04000000000000fb0e002001000000b6
:100cc40000000000c8080020080000000000000028
:100cd400c0090020c800000000000000880a0020ad
:100ce400c800000000000000090f002001000000ff
:100cf400000000000a0f00200100000000000000b6
:100d04003c0f002004000000000000000b0f002036
:100d14000100000000000000480f00200100000056
:100d240000000000400f002004000000000000004c
:100d3400490f00200100000000000000b00e002058
:100d44001e00000000000000500b0020c80000003e
:100d5400000000004a0f0020010000000000000015
:100d64004b0f00200100000000000000180c0020c0
:100d7400c8000000000000004c0f0020010000002b
:100d8400000000004d0f00200100000000000000e2
:100d9400d00800200300000000000000440f0020e1
:100da400040000000000000000000000000000003b
:020000040000fa
:020000040001f9
:100db40070b582b0844c206802f094f8a06802f008
:100dc40043fa824b1b79012b25d0002b13d0022b25
:100dd40056d07f4bdb78002b0bd17c4a3833d35c65
:100de400002b00d08ae0794a3723d35c002b00d053
:100df400d2e002b070bd0321002004f0d7f8734b99
:100e04001860431ce5d00022724904f09bfb6f4b31
:100e140001221a71dde76d4b1b7b002bd9d06c4b83
:100e2400db78002b05d104f095fc684b02221a7183
:100e3400cfe7664c2126a25d206808250095032390
:100e4400002104f041fb2023e25c206800951d3b57
:100e5400002104f039fb00232222a3540132a354bd
:100e6400a25d21001831206800955b4b01f0c4ff9e
:100e7400fa239b0064220121022003f061fed4e7df
:100e8400534bdb78012ba4d1504a2233d35c002b83
:100e940000d191e023230021d1544f4b1b78002b28
:100ea40027d14a4c2023e25c21001c3120681e3be0
:100eb400019306330093494b01f024fc2223e35ca5
:100ec400002b00d185e7414c22230022e254d83381
:100ed4009b0064320121022003f032fe2123e25cf4
:100ee400210018312068193b00933b4b01f084ff2b
:100ef4006fe73a49384803f033fad2e72223d35c48
:100f0400002b13d01300222200219954233a9a6112
:100f14008026b6001c001d0018353300e26a290043
:100f2400002001f0f5fca3690133f6d0274a3623eb
:100f3400d35c002b00d056e73833d35c012b00d0b0
:100f440051e734330021d1541400352604f096f9c6
:100f5400002810d064230a220121012003f0f0fdaf
:100f6400a55d236b9c46654403f000ff2870a35dd8
:100f74000133a355eae7154a3523d35c002b00d18e
:100f840031e711000130362288540a6b1c3100907d
:100f9400002001f04ff826e7140037230022e25422
:100fa4002d330a320121022003f0cafd3423e15c0f
:100fb400e06a03f07fff1ce7044a2223d35c002b82
:100fc40000d116e77fe7c046cc0300208c08002040
:100fd400e4030020113901007c060020840600206f
:020000040000fa
:020000040001f9
:100fe40003460b437fd4002243088b4274d3030986
:100ff4008b425fd3030a8b4244d3030b8b4228d327
:10100400030c8b420dd3ff22090212ba030c8b424c
:1010140002d31212090265d0030b8b4219d300e0ec
:10102400090ac30b8b4201d3cb03c01a5241830b71
:101034008b4201d38b03c01a5241430b8b4201d321
:101044004b03c01a5241030b8b4201d30b03c01a4a
:101054005241c30a8b4201d3cb02c01a5241830ac4
:101064008b4201d38b02c01a5241430a8b4201d3f3
:101074004b02c01a5241030a8b4201d30b02c01a1d
:101084005241cdd2c3098b4201d3cb01c01a524184
:1010940083098b4201d38b01c01a524143098b420d
:1010a40001d34b01c01a524103098b4201d30b01f6
:1010b400c01a5241c3088b4201d3cb00c01a52411b
:1010c40083088b4201d38b00c01a524143088b42e0
:1010d40001d34b00c01a5241411a00d20146524179
:1010e400104670475de0ca0f00d04942031000d398
:1010f4004042534000229c4603098b422dd3030aed
:101104008b4212d3fc22890112ba030a8b420cd3fc
:10111400890192118b4208d3890192118b4204d325
:1011240089013ad0921100e08909c3098b4201d3a5
:10113400cb01c01a524183098b4201d38b01c01adf
:10114400524143098b4201d34b01c01a5241030956
:101154008b4201d30b01c01a5241c3088b4201d305
:10116400cb00c01a524183088b4201d38b00c01ab2
:101174005241d9d243088b4201d34b00c01a524189
:10118400411a00d20146634652415b10104601d316
:101194004042002b00d54942704763465b1000d3a0
:1011a400404201b5002004f069fd02bd0029f8d0d9
:1011b40016e77047f0b557464e464546de46e0b55d
:1011c400040083b00d00924699468b4230d82dd04e
:1011d4004946504604f0fafb29000600200004f0ba
:1011e400f5fb331a9846203b9b4633d45a46534664
:1011f400934042461f00534693401e00af423ad8e4
:10120400af4200d17be05b46a41bbd41002b00da5a
:1012140078e0002200230092019301235a46934070
:101224000193012342469340009328e08242cfd9a0
:1012340000220023009201930c9b002b01d01c6020
:101244005d600098019903b03cbc90469946a24663
:10125400ab46f0bd424620239b1a5246da40414633
:1012640013004a468a40170042461f4353469340a0
:101274001e00af42c4d900220023009201934346ca
:10128400002bd9d0fb079c46614672080a437b08b1
:1012940046460ee0ab4201d1a2420cd8a41a9d41ad
:1012a400012024196d410021013e24184d41002ed6
:1012b40006d0ab42eed9013e24196d41002ef8d17f
:1012c400009801995b4600196941002b25db2b002e
:1012d4005a464446d3402a00e2401c005b461500af
:1012e400002b2bdb26005f46be403300260047461a
:1012f400be403200801a9941009001919ce7a342bc
:10130400b9d880e74246202300219b1a002200918d
:1013140001920122da40019283e7424620239b1a7c
:101324002a0046469a402300f340444613432a00c9
:10133400e2401c005b461500002bd3da2023424612
:1013440026009b1ade402f00b4464646b740664648
:081354003b003343cae7c04629
:020000040000fa
:020000040001f9
:10135c0010b5654b9b7d002b17d0634b5b8b9b07ac
:10136c0014d5624b2022ff2199540132fd39995436
:10137c005e4a2023d35c5bb2013300d183e05b4a2d
:10138c002023d35c062b00d195e010bd564b5b8b14
:10139c00db0707d5554b2022ff2199540132fd392b
:1013ac009954e5e7504b5b8b5b0707d54f4b2022dd
:1013bc00ff2199540132fe399954d9e74b4a202325
:1013cc00d35c5bb2032b40d0042b0fd0022bcfd1bc
:1013dc001369002b04d09088002103f061f9c7e752
:1013ec00424b9888012103f05bf9c1e73f4a9369ae
:1013fc001269934208d03d4a9168581c9061c95caf
:10140c00394a2823d154b3e7384b5b69002b0ed0f3
:10141c00364b9b885b0001221343334a5362d369da
:10142c00002bfcd1314a20330321d154a0e72e4aa2
:10143c005168c0239b020b435360d369002bfcd132
:10144c002a4a20330621d15492e7284a5369013b9a
:10145c00d2699a4209d0254bd968da69501cd861f7
:10146c0021482823c35c8b5482e71f4a5168e02330
:10147c00db020b435360d369002bfcd11b4a203396
:10148c000621d154e7e720230021d154164a516894
:10149c00c0239b020b435360d369002bfcd1124b2e
:1014ac0083221a76114b5b6a002b00d16de70f4a31
:1014bc00906a984769e71300002220215a540131a1
:1014cc005a54094b83321a761900533a4b8b1340fa
:1014dc00102bfbd1054b5b6a002b00d155e7034a5f
:1014ec00906a984751e7c04600100042300e002029
:020000040000fa
:020000040001f9
:1014fc00f0b5d6464f464646c0b50f260e40022ed6
:10150c0000d9b1e0fe25ad001c00083ca4b2ac42f1
:10151c0000d9ace0441c00d1ace0446aa146082bd5
:10152c0049d9002408250134e4b26d00adb2ab42b8
:10153c00f9d835001035ad0045196d68002a3cd13d
:10154c002a60ab80aa710126e9793143e971aa605e
:10155c00ab81aa73eb7b3343eb7380235b0049466f
:10156c00ca541132ca54426d44490a404265436e12
:10157c000b404366436d2407e022d20514402343fd
:10158c004365436e1c434466036903654369036604
:10159c00436d5b005b084365436e5b005b08436611
:1015ac000a23ff3313224946ca5400201cbc904620
:1015bc009946a246f0bd0024bbe749b28a46091100
:1015cc00884608218c464146674639408c4665441e
:1015dc0000212960ab80aa71eb7901218c46614610
:1015ec000b43eb715346002b29db73014b441f005b
:1015fc0080235b00fd5c07218d43fd54fd5c520094
:10160c001f49525c1543fd540623ff334022fa5404
:10161c0076005346d90f761836018019436d174a58
:10162c0013404365436d2407e022d20514401c434c
:10163c004465436d5b005b0843650020b6e77301ae
:10164c004b441f0080235b00fd5c70218d43fd54d7
:10165c00fd5c520094460a4a624452781543fd548c
:10166c0004338022fa54d3e77c2040429ee77c204e
:10167c0040429be77d20404298e7c046ffffff8f2a
:04168c00345c0100c9
:020000040000fa
:020000040001f9
:10169000f0b5de4657464e464546e0b583b00400f9
:1016a0000e000f250d40022d02d9102900d0a6e012
:1016b000631c00d1a6e0676ae378002b13d1a37bfb
:1016c000012b08d07f20404203b03cbc9046994695
:1016d000a246ab46f0bd0023a3730a20205603f0b8
:1016e00049fc834601e000239b46102e28d0002da4
:1016f00056d17f23842149007b540821ff317b543c
:1017000081330021f954636cd97901208143d97167
:10171000d97b8143d973e3780020002bd4d15b4679
:10172000002b09d0a37a5ab2002a05db1f221a40e7
:1017300001239340354a13600123a3730020c3e7bc
:101740001023842149007b540821ff317b5426005b
:101750004436019600211b019946002398467f25b7
:101760000823ff339c4601204b01fb184e4642469e
:101770009a558422520092469a4452461570624607
:101780009d54019a08ca0192da7916008643de71e7
:10179000da7b16008643de7301310329e4d1bae710
:1017a00076b2002e1bdb6b01fb1880204000195c19
:1017b0000727b943195405210820ff30195409336c
:1017c000ff3319701035ad0065196b6836110821ab
:1017d0000e409e19f37907398b43f3719be76b0138
:1017e000fb1880204000195c7027b94319540a2166
:1017f0000820ff3019540933ff331970e2e77c20c9
:10180000404261e77d2040425ee7c04600e100e0e3
:020000040000fa
:020000040001f9
:10181000f8b5ce46474680b55b4b9b7d002b17d075
:10182000594a137edbb2927d52b2002a14db564a2b
:10183000137edbb2927dd20702d5db0700d588e0ac
:10184000514a137edbb2927d520701d55b0752d419
:101850000cbc90469946f8bd5bb2002be7da4a4bc8
:101860005b8b07221340e2d0484ce38503f06afd0e
:10187000454b84221a752c230022e254636a002b04
:10188000d5d0424a906a9847d1e78368591c816055
:101890006146cb5c1385b168137e4d462b420fd059
:1018a0008c420dd953683b40012beed143469b68d7
:1018b000591c4546a9605b0061465b5a1385eae7ff
:1018c000324b9a685b689a42bad3304b00221a7541
:1018d0005a602d4a01211175db68002bb0d02b4acc
:1018e00010699847ace7294988690a6a541c0c6258
:1018f0005200135217e0254a2c23d35c002ba7d0ab
:10190000224b1a6adb699a42a2d21f4a138d9bb2fc
:10191000516807220a40012ae5d01c4a9069116ae1
:101920004c1c14624354194b1a6adb699a4200d06a
:101930008ee7164b00222c215a54da61124a583194
:1019400011755b6a002b00d182e7104a906a9847b4
:101950007ee70e4b1b7d002b00d171e70b4b9a6885
:101960005c68094b1b7edb07aad5a242a8d2074bb5
:101970001b689c46044a0727044b984618001e0023
:10198000012399468ee7c046001c0042d00d00207e
:020000040000fa
:020000040001f9
:10199000f8b5ce46474680b55b4b9b7d002b17d0f4
:1019a000594a137edbb2927d52b2002a14db564aaa
:1019b000137edbb2927dd20702d5db0700d588e02b
:1019c000514a137edbb2927d520701d55b0752d498
:1019d0000cbc90469946f8bd5bb2002be7da4a4b47
:1019e0005b8b07221340e2d0484ce38503f0c0fc38
:1019f000454b84221a752c230022e254636a002b83
:101a0000d5d0424a906a9847d1e78368591c8160d3
:101a10006146cb5c1385b168137e4d462b420fd0d7
:101a20008c420dd953683b40012beed143469b6855
:101a3000591c4546a9605b0061465b5a1385eae77d
:101a4000324b9a685b689a42bad3304b00221a75bf
:101a50005a602d4a01211175db68002bb0d02b4a4a
:101a600010699847ace7294988690a6a541c0c62d6
:101a70005200135217e0254a2c23d35c002ba7d029
:101a8000224b1a6adb699a42a2d21f4a138d9bb27b
:101a9000516807220a40012ae5d01c4a9069116a60
:101aa0004c1c14624354194b1a6adb699a4200d0e9
:101ab0008ee7164b00222c215a54da61124a583113
:101ac00011755b6a002b00d182e7104a906a984733
:101ad0007ee70e4b1b7d002b00d171e70b4b9a6804
:101ae0005c68094b1b7edb07aad5a242a8d2074b34
:101af0001b689c46044a0727044b984618001e00a2
:101b0000012399468ee7c04600080042000e0020df
:020000040000fa
:020000040001f9
:101b100010b5564b9b7d002b53d0544a5168072378
:101b20000b40127e52075bd5504a906a50494a6971
:101b3000c9688a4254d2002b44d14d4b5968541c79
:101b40005c618854494b1b7edb0718d5474b01224b
:101b50001a75474b9a699b689a4258d2444b196848
:101b6000501c98618a5c414b9a62414b9a699b6810
:101b70009a4262d03e4b5a69db689a4269d03b4b2d
:101b80001b7e9b0716d53b4b1b78002b19d0384b7f
:101b90005a69db689a4211d1354b00221a773349d2
:101ba0000720087533490a701b6a002b09d0304a98
:101bb000506a98472f4b1b78002b02d02b4b0222e8
:101bc0009a7510bd2a4b5968541c5c6152005052e2
:101bd000264b1b7edb07d2d5244b01221a7508e069
:101be000224a127ed207cad5204a01211175002b44
:101bf000afd01f4a93699268934213d21c4a11686e
:101c0000581c90615b005a5a184b9a62ade7184b0a
:101c10001b69002b23d0154aff219162013b144a16
:101c20001361a2e7124b1b69002b18d00f4a12490f
:101c30009162013b0e4a136197e70d4b1b69002b24
:101c400098d10c4b01221a70084b1b7e9b079ed427
:101c5000b4e7064b01229a7503321a758fe7044bdd
:101c60009a699b689a4200d084e7eae70014004230
:0c1c70005c0e0020230f0020ffff00008e
:020000040000fa
:020000040001f9
:101c7c00f0b583b005000c004978032900d17ce055
:101c8c001dd9052930d009292cd1a278e3781b0263
:101c9c00134304d1c17807220a40052a2ed0ad2265
:101cac00aa5cdbb29a4200d182e0ae23ef5c002f3b
:101cbc0041d00233ea580023b4218c4633e0012989
:101ccc000ad1a278e3781b021343012b05d1bf3351
:101cdc000022c254002100e00121280002f0befec7
:101cec0003b0f0bd0121f8e7027880235b42134377
:101cfc000370a278ac23c2540021eee7b83306324d
:101d0c00c25402f0c7fdad230022ea54eb7807322f
:101d1c00934304221343eb700021dee70133dbb263
:101d2c000432bb4207d011684e79a0788642f5d1b7
:101d3c0060462950f2e7a278ad23ea54288b03f0d1
:101d4c00c1f9280002f088f8eb78072293430522aa
:101d5c001343eb70a27801ab1a70d523eb5c002116
:101d6c00012bbad1d733eb58002b23d0dc22aa5845
:101d7c0001a90a2098470021afe7a278e3781b025b
:101d8c001343012b0fd00121022ba6d102780c3367
:101d9c001340022ba1d16379837043780122134342
:101dac004370002199e7bf330122c254002194e70c
:081dbc00002192e7002190e7ed
:020000040000fa
:020000040001f9
:101dc40030b58bb003f090fc00281bd0424b1b783d
:101dd400012b17d0642003f0b3fe404b1a78062a77
:101de40010d893003e4ad3589f4601243d4b1c70a3
:101df400394b1c703c4b0593042105a803f0defb12
:101e0400364b1c700bb030bd334b01221a7005a841
:101e140044230380022103f0d1fb304b02221a70c9
:101e2400f0e7324b1b78032b0bd0042bead1304b59
:101e34000593042105a803f0c1fb284b06221a7060
:101e4400e0e7254b01221a7001aa2a4b110031cb7d
:101e540031c11b880b8005ab2220684411781970ae
:101e6400013301328342f9d105a82d234373224b58
:101e74001a7882735a78c2739a780274db7843743e
:101e8400122103f09bfb154b03221a70bae7124b85
:101e940001221a7005a8174b1a6905921b7d03715c
:101ea400052103f08bfb0d4b05221a70aae70a4ba0
:101eb40001221a70114b0593042105a803f07efb3f
:101ec400064b06221a709de7044b07221a70054b35
:101ed40000221a7096e7c046fa0e0020f90300208b
:101ee4002059010015040020242424001604002095
:101ef4002d2d2d00b859010010040020522c310062
:020000040000fa
:020000040001f9
:101f0400f8b505000a00464b1c7de4b22c215b5c4d
:101f1400dbb2002b7ed1002c00d07ee000287ad0ea
:101f24000068002877d0002a00d13e4a030193427a
:101f34003ad8010b0005002302f0dcff80235b028a
:101f4400181a0021002866d0374a13680224a343d4
:101f54001360d369002bfcd180b2334b98816b683a
:101f6400022b47d0304a13683048034049031943d1
:101f740080235b04194311605168ab68e86803432c
:101f84002b4801400b4369680b435360264ad369cd
:101f9400002bfcd1244a136802210b431360d3693c
:101fa400002bfcd1012436e0c300934209d8410b35
:101fb400c004002302f09eff80235b02181a022152
:101fc400c0e743001b18934225d8002706003900b8
:101fd4008019794180197941060c0b0407043800f3
:101fe4001e433100002302f085ff80235b02181a90
:101ff4000421a7e70c4a13680c480340490319431a
:1020040011605168ab68e8680343472081430b4380
:102014005360bbe700242000f8bd1c00fbe7c0466a
:10202400d00d0020006cdc02001c0042ff1ffff0fa
:04203400b8dfffff13
:020000040000fa
:020000040001f9
:10203800f0b5c64600b506000f0015001c0006ab3b
:102048001b78002800d073e0012252420a60404aff
:10205800127c002a00d16ee0002c00d16ee09a07b5
:102068000ad53b4bd989a14200d96ae0200000f08b
:1020780043fb641a022101e001211940344b5a6bd9
:102088009b6a9a4260d2334b5b78012b05d060245f
:102098006442200004bc9046f0bd2e4b00225a70ca
:1020a8002d4b1b7a5bb2012b10dd2b4a2c23d35608
:1020b800012b0add5023d3560226012b06dd254bc2
:1020c80001225a7080246442e3e70126f200931942
:1020d8009b0021489846804493199b001d50434615
:1020e8005c600023444663611c4be36046462174f0
:1020f80003f0a8fd164c636b0133636303f0a6fd80
:102108003e60217b2068424603f090fa041e03d10a
:10211800104b01225a70bce703f094fd0c4a536b34
:10212800013b536303f092fd01235b423b60efe701
:1021380078246442ade776246442aae77e246442a8
:10214800a7e77e246442a4e780246442a1e7c0464e
:102158005c020020a0020020f0010020513f010095
:020000040000fa
:020000040001f9
:10216800f0b583b004000d0016000823c356002bf9
:1021780000dc86e0092900d981e08b00424ad35867
:102188009f464378042293434370e427c3591b6c4a
:102198000021c0699847e3591b6c8021e069984782
:1021a800200002f079fbe3595b6a1021e069984747
:1021b800e3591f6a402300228021e069b847902331
:1021c800e356022b07dc22008832e423e3589b6b9a
:1021d8000021e0699847e3780722934303221343d9
:1021e800e370e423e3581b69e06998470723034039
:1021f8005b0020780e22904318432070e2680e237b
:102208001840022816d0b0239168e1501279023b99
:10221800e254ad230022e254d523e35c012b30d1f4
:10222800d733e358002b2cd0dc22a25831002800e9
:10223800984726e0a2335169e150127c023be254f0
:10224800e7e74378042293434370e5e743780422a1
:1022580013434370e0e7e423c3585b69c0699847b8
:1022680001ae3080d8e7c378072293430122134395
:10227800c370d1e7c37807229343c370cce7002d1e
:0c228800cad103b0f0bdc04620550100d3
:020000040000fa
:020000040001f9
:1022940030b583b0002800d081e0444b1b78002b7c
:1022a40000d07fe0414b01229a731a7020301a54f7
:1022b4004c685c62c87b587200205870986318712f
:1022c4008d7a9d72cd7add720d7b1d734d7b5d73ae
:1022d400d87022705a6a013093780342fcd10a23e1
:1022e400d370334b1b685b0b0193019a1f2313407c
:1022f4001f2b33d02d4a526a108d9b010343138543
:10230400019b9b05db0e1f2b2ad0108d03431385e5
:10231400019bdb045b0f072b24d0108d1b030343ad
:1023240013850b7a002b03d0137804200343137016
:102334001e4b5b7a012b17d01c4a516a0b78022082
:1023440003430b70516a02228b781342fcd1174a63
:1023540020230221d154002003b030bd1a3bc9e729
:10236400023bd2e7043bd8e7104b5a6a18005030be
:1023740050623c22002098540a6a1a645a6a1389eb
:102384000c308343897b032906d09bb2138100213f
:10239400064802f047fecfe701310b43f5e7012081
:1023a4004042d9e701204042d6e7c0460000002061
:0423b4002460800021
:020000040000fa
:020000040001f9
:1023b800f8b5ce46474680b5060088460f240c403f
:1023c800022c00d97ce0431c00d17ce0476a230042
:1023d80010339b00c3185d68c378002b10d1837b32
:1023e800012b05d07f2040420cbc90469946f8bd91
:1023f800002383730a20305602f0b8fd814601e0bd
:1024080000239946002c2dd182235b00f722fa5431
:102418000823ff33783afa54eb790227bb43eb7170
:10242800043c2100280003f023f8eb7bbb43eb734b
:1024380028000830210003f01bf8f3780020002b57
:10244800d2d14b46002b09d0b37a5ab2002a05db09
:102458001f221a40012393401c4a13600123b373bf
:102468000020c1e743465bb298461b11082018407c
:102478002818c37902229343c3710421494202f008
:10248800f7ff4346002b0ddb64013c1982235b00f8
:102498001022e2540822ff322021a154073aff3ac1
:1024a800e254cae764013f1982235b002022fa54f0
:1024b8000822ff324021b954063aff3afa54bce7e1
:1024c8007c20404290e77d2040428de700e100e01b
:020000040000fa
:020000040001f9
:1024d80070b582b0040016006b460022da710e292e
:1024e80001d002b070bdec2545433f4bed18b279e1
:1024f800f3791b0213432a00e03213802b00e433e4
:102508001b681b6c7231e86998473378db06db0e71
:10251800dab2012a2cd05bb2002b09d0022a38d0bb
:10252800032aded132000e21280002f049ffd8e745
:102538003278602313400cd152b2002a04db3100f8
:102548002800fff797fbcce73100280000f0defaff
:10255800c7e7402b06d0202bc3d10121280002f069
:102568007ffabee732000e21280002f029ffb8e703
:10257800327860231340402b05d03179320028008f
:1025880002f062f9ade731793200280002f05cf917
:10259800a7e7317900290ad1337860221a421bd182
:1025a8006b46d9793200280001f096fb99e76b4613
:1025b800da1d280002f05cfcec2363430a4ce418a3
:1025c800e27807231340052b01d10028e4d101212b
:1025d800280002f045fa84e76b46d97932002800d2
:0c25e80002f032f97de7c046d408002064
:020000040000fa
:020000040001f9
:1025f400002243088b4274d303098b425fd3030a3e
:102604008b4244d3030b8b4228d3030c8b420dd350
:10261400ff22090212ba030c8b4202d312120902de
:1026240065d0030b8b4219d300e0090ac30b8b421c
:1026340001d3cb03c01a5241830b8b4201d38b03ca
:10264400c01a5241430b8b4201d34b03c01a52416f
:10265400030b8b4201d30b03c01a5241c30a8b42b2
:1026640001d3cb02c01a5241830a8b4201d38b029d
:10267400c01a5241430a8b4201d34b02c01a524141
:10268400030a8b4201d30b02c01a5241cdd2c309b3
:102694008b4201d3cb01c01a524183098b4201d32f
:1026a4008b01c01a524143098b4201d34b01c01a1a
:1026b400524103098b4201d30b01c01a5241c30892
:1026c4008b4201d3cb00c01a524183088b4201d301
:1026d4008b00c01a524143088b4201d34b00c01aed
:1026e4005241411a00d20146524110467047ffe759
:1026f40001b5002003f0c2fa02bdc0460029f7d09c
:0427040076e77047bd
:020000040000fa
:020000040001f9
:10270800f0b5d646474680b583b00e0000920193d7
:102718000aab04cb92461d7801235b420b6003f0a1
:1027280023f9041e61d0078bfa00334b9b18da8813
:102738005b889a425cd2e323c35c012b07d06025f7
:102748006d42280003b00cbc90469a46f0bde233b7
:102758000022c254294b1b7a5bb2012b0fdd284a99
:1027680001230021515601290add01332432082ba7
:10277800f7d1db330122e2547b256d42e1e70023e8
:10278800da00d01880001d4980468844d01880009f
:10279800019a425042465046506015741948d0601c
:1027a8005461326003f04efafa00134b9b18da8832
:1027b8000132da8003f04afa42460099200002f01a
:1027c80035ff051e03d1e3230122e254b9e703f0e4
:1027d80039faff00084bdf19fb88013bfb8003f047
:1027e80035fa01235b423360ede77c256d42a8e7ab
:1027f8007b256d42a5e7c046c4030020a402002043
:08280800d00200209d420100f6
:020000040000fa
:020000040001f9
:10281000f8b5ce46474680b506000d000f240c40a3
:10282000022c00d96de0431c00d16de0476a230003
:1028300010339b00c3185b689846c378002b10d1f7
:10284000837b012b05d07f2040420cbc90469946eb
:10285000f8bd002383730a20305602f08bfb8146bb
:1028600001e000239946002c29d06db2002d42dbf7
:10287000083464013c19102363712d1108231d4095
:10288000454403214942280002f0f6fdeb7902227b
:102890001343eb71f3780020002bd6d14b46002b6d
:1028a00009d0b37a5ab2002a05db1f221a4001234d
:1028b0009340174a13600123b3730020c5e7062332
:1028c000ff332022fa54103afa54033c21004046c8
:1028d00002f0d2fd02254346db792b434246d371f9
:1028e00040460830210002f0c7fd4346db7b2b4306
:1028f0004246d373cee7083464013f1920237b712d
:10290000bbe77c204042a0e77d2040429de7c046d7
:0429100000e100e002
:020000040000fa
:020000040001f9
:10291400f8b50e0015001c00002862d101235b42ab
:102924000b60374b9b7a002b5ed0354b1989200006
:10293400fff7e4fe002c5ad000295bd1304b9a6b90
:10294400db6a9a4259d22f4b5b78012b03d0602467
:1029540064422000f8bd2b4b00225a702a4b1b7a8c
:102964005bb2012b10dd284a2c23d356012b0add40
:102974005023d3560231012b06dd224b01225a701b
:1029840080246442e5e70121cb005f18bf001e4aa2
:10299400bf185818800085507c60002078611b4b5c
:1029a400fb6003f051f9164ca36b0133a36303f0ee
:1029b4004ff93760a17920683a0002f039fe041e0d
:1029c40003d1104b01225a70c3e703f03df90c4abe
:1029d400936b013b936303f03bf901235b42336048
:1029e400efe778246442b4e776246442b1e77e24b6
:1029f4006442aee77e246442abe780246442a8e7e5
:102a04005c020020a0020020f0010020e13e010051
:020000040000fa
:020000040001f9
:102a140010b5354b1b780c2b02d9334b09221a7095
:102a24003248314b1a780a21815400221a703049f5
:102a340002f0bef9002822d12e492c4802f0b8f940
:102a4400002827d12c49294802f0b2f900282cd1ba
:102a54002a49264802f0acf9002831d0284b032239
:102a64001a70284b00221a70274b204a917b197048
:102a7400d17b5970117c9970527cda7009e0fa2389
:102a84009b0064220121012002f05af81d4b002210
:102a94001a7010bdfa239b0064220121022002f067
:102aa4004ff8184b01221a70f3e7fa239b006422b3
:102ab4000121012002f044f8124b00221a70e8e7c9
:102ac40012490a4802f074f90028e2d0fa239b0064
:102ad40064220221002002f033f8094b04221a7008
:102ae400084b00221a70d4e72f0f0020180400208e
:102af400ec0e0020fc0e0020300f0020180f0020e8
:102b040016040020f803002010040020240f0020e5
:020000040000fa
:020000040001f9
:102b140030b583b005000c00002301934b78062bdd
:102b240014d0082b5ad0002b3bd1bc21435203783c
:102b3400db07c022805cbf3a02405200db0f134324
:102b44006b542b00bc33019302204be0c068cb785c
:102b5400072b57d89b002c4ad3589f462a780e231c
:102b64001340022b03d003680193122032e0c368a0
:102b7400019312202ee08b78ae22aa5c9a4210d9df
:102b8400b022aa589b009b58002b0ad001939a7834
:102b9400d8780002104325e02a7870231340102bc4
:102ba4002ed00121280001f05dff29e02a7870234e
:102bb4001340102bf5d1023b1a40022a03d0436a7a
:102bc40001930a2006e0036a01930a2002e001aaa5
:102bd40000f072ff0199002905d1e2e70300ad334b
:102be400019301200199a279e3791b0213431a1c72
:102bf4009bb2834200d9021c92b2280001f0e8ff84
:0c2c040003b030bd0020e5e76858010077
:020000040000fa
:020000040001f9
:102c100070b505000823c3569a1c41d04469022ba5
:102c200007d04268002a42d1c423e25400210f2673
:102c30001ee0c233e35c002b0ed02300c433db68fc
:102c4000002b09d0d822a558ab422ad02200c4328a
:102c5000908800220c219847c4230122e2542300cb
:102c6000c433284ada60228b9a80210024310e2650
:102c70002300c433db68d822a558ab423cd02200e5
:102c8000c43290880a00310098478c234022e250d9
:102c900022008832e0695833e3589b6b0021984743
:102ca00070bddc23e25800210c20a847d4e7c423e0
:102cb000e35c002b1dd02300c43358789b788342fb
:102cc00002d800210d26d3e7cc23e35818182100a1
:102cd000243102f0fefe2200c4326b6851785b188a
:102ce000dbb253709278002101269a42c0d80c368c
:102cf000bee700210126bbe7dc23e2583000a847ed
:082d0000c3e7c046d92401001d
:020000040000fa
:020000040001f9
:102d0800f8b5002800d066e0002900d166e08b699c
:102d1800002b00d165e0344c01222272002323836a
:102d2800e37807308343e3708b69e3600b8a23827f
:102d38004b696361087f07231840000123787025d9
:102d4800ab4300250027c026a755034393437f20a4
:102d58000340237063782600243609302650043057
:102d6800402626500c3022540838255404301f4e73
:102d78002650083024501e482067a4677420225427
:102d88009343033293436370d423e55410334a6a60
:102d9800e2504a8c0433e2520a8cc98b002002f0bc
:102da800fbfd200002f030fe6569238a002b10d05d
:102db80000240d4e05e010350134e4b2338aa342f5
:102dc80007d9eb68002bf6d01b69002bf3d0984786
:102dd800f1e70020f8bd01204042fbe70120404216
:102de800f8e701204042f5e7d4080020112c010043
:042df8003140010065
:020000040000fa
:020000040001f9
:102dfc00f0b583b00e000092019301235b420b608f
:102e0c0002f0b0fd041e5bd0078b304bfa00991812
:102e1c008988d35a994256d2e323c35c012b04d040
:102e2c0060256d42280003b0f0bde2330022c2548d
:102e3c00274b1b7a5bb2012b0fdd264a01230021a5
:102e4c00515601290add01332432082bf7d1db332b
:102e5c000122e2547b256d42e4e70023da00d0180e
:102e6c0080001b494518d0188000019a4250089ade
:102e7c006a601948e8606c61356002f0e1fefa00a6
:102e8c00124b9b189a8801329a8002f0ddfe2a00c0
:102e9c000099200002f0c8fb051e03d1e323012298
:102eac00e254bfe702f0ccfeff00084bdf19bb88f1
:102ebc00013bbb8002f0c8fe01235b423360ede7af
:102ecc007c256d42aee77b256d42abe7c403002049
:0c2edc00a4020020d002002001430100ed
:020000040000fa
:020000040001f9
:102ee800f0b5d6464f464646c0b50600431c45d009
:102ef800ec224243334b9b181b7a5bb2002b3ddd1f
:102f0800ec2242432f4b9b18d4331b78002b1cd048
:102f1800012b33d1ec2242432a4b9b181b8a98463b
:102f2800002b2bd0274bec224243d75c3f077f0f67
:102f38009b181a00ad32127891465d690024ec2383
:102f48004343204ad618b24625e0ec2343431d4ca0
:102f5800e4182300e8331888043b1b681b680f211a
:102f68009847e061431c09d0ec237343154ef618cb
:102f78003300d43301221a70022333721cbc9046ea
:102f88009946a246f0bda888984710350134e4b2a6
:102f9800a3b24345f2d22b783b42f6d06b784b452f
:102fa800f3d1f27807231340052beed153465b7813
:102fb8005b07ead4eb68002be7d0db68002be2d193
:082fc800e3e7c046d408002035
:020000040000fa
:020000040001f9
:102fd00070b51c00082909d88900324b5b589f4600
:102fe00021000d312068072201f0f4fd70bd611d44
:102ff0002068072202f0e4fbf8e71378db070121e1
:10300000d80f237d0125ab430343237513785b0859
:103010000b405b00227d022082431343237519423b
:103020000cd03823e35c002b0cd1fa339b006422d4
:1030300001f088fd38230122e25403e03823e35ce9
:10304000012b04d02068002101f00efdcee7f933fa
:103050009b0064220121012001f074fd382300222d
:10306000e254efe7138823852068002101f0fcfc7f
:10307000bce70823d3566033b8d001232221635420
:103080001531635452683333e254afe720680021ae
:1030900001f0eafcaae723230122e25413330022c1
:0830a000e254a3e71057010000
:020000040000fa
:020000040001f9
:1030a800f0b5de4657464e464546e0b585b0814602
:1030b80000284bd02e4b196a83689a4600290cd0f9
:1030c8008b6852460392002290469a4545d30022c7
:1030d80000238b460092019305e052468260244b00
:1030e800186233e0e3465e46b66834000025009a6d
:1030f800019b12196b41009201935e46b669b44672
:10310800002e12d06646b66800210f00009a019b77
:10311800b6185f41474525d8e4d1039b9e42e1d9c3
:1031280060465946009a019b01e0300059464c46da
:10313800a0618c6151468a1a4b469a609b69002ba4
:1031480004d04a4691689a68521a9a6005b03cbc05
:1031580090469946a246ab46f0bd054b1862816180
:103168000022e7e760465946009a019bdfe7c04620
:04317800880e00209d
:020000040000fa
:020000040001f9
:10317c00f8b5314b1c6a59694a1c5a61914215d8f1
:10318c00002c58d02c4a137f01331377a368002be3
:10319c0005d0a368013ba360146a002c43d0a3683c
:1031ac00002b40d101250027234e12e01a009b6909
:1031bc0001339361e4e7e06901f038fee368002b2a
:1031cc0001d020699847346a002c2cd0a368002bbe
:1031dc0029d125756575a378002b02d1e368002be6
:1031ec00e9d1200001f086faa378002be6d16770b4
:1031fc00e4e701342035052c19d06301f3185b7d0d
:10320c00002bf6d063010d498c466344002159759f
:10321c00ab78012bedd1620162446b68936028009e
:10322c00fff73cffe5e7054d00242e00e5e7024ad9
:10323c00137f013b1377f8bd880e0020e00c0020b3
:020000040000fa
:020000040001f9
:10324c0070b504009a22520042432e4b9b18203337
:10325c001b785bb2002b0fdd9a2252004243294ba4
:10326c009b189b6b002b07d09a2252004243254b94
:10327c009b185d7a012d00d070bd9a2252004243fa
:10328c00204b9b181b6c002b1ed0984706009a22d3
:10329c00520062431b4b9b183c331b788342ebd090
:1032ac0001281ad09a2252006243164b9b181b79a4
:1032bc00002b1fd1134dad1800220921686bab6b8d
:1032cc00984701232b7115e09a22520042430d4b73
:1032dc009b183c331b78012bced09a235b006343a5
:1032ec00084ef61800220821706bb36b9847002328
:1032fc0033712e009a235b006343024ce4183c3478
:08330c002670b9e70000002063
:020000040000fa
:020000040001f9
:10331400f0b583b006000d0001921f0008ab1c78c5
:1033240001f0c6ff002845d0244b1b785bb2022b6a
:1033340006d00124644202f085fa200003b0f0bdf7
:10334400002d31d0b54232d31d4b1b78002b0bd04e
:1033540001221c4b1978002908d020330132052a98
:10336400f8d101246442e6e70022154b01211970cb
:1033740000215970197559759c705d600199d96067
:103384001f61ad1b9d60104909880c041204120cc6
:103394001443dc61013189b20c4a914202d00a4ad9
:1033a4001180c8e70121fae701246442c3e701243c
:1033b4006442c0e701246442bfe7c046880e00208f
:1033c400e00c0020000d0020ce0e0020ffff0000c6
:020000040000fa
:020000040001f9
:1033d40030b583b00d0007a90c78002810d1284916
:1033e400506888621068c86292680a6300224a635f
:1033f4008a63ca63234a0a64042c03d0052c13d0bd
:1034040003b030bd1e4a1560089a5279022a04d0ce
:103414000a2af5d11a4a1371f2e7089a9279022a14
:10342400eed1174a9374ebe7089b9a78d409d978bc
:1034340003230b40022b08d0032be1d163001c199a
:10344400640014340e4be41805e0013463001c19c5
:1034540064000b4be418089b1b790899497909020d
:10346400194322706180089bdb789b079b0f0091b6
:103474000021280002f028f801232371c0e7c04688
:083484005c020020e4010020bd
:020000040000fa
:020000040001f9
:10348c00204b00229a619a8c80218a439a841a00dc
:10349c001023d1680b42fcd01b4b1a68920e3f2aaa
:1034ac002dd01a4b1b689b059b0d92021343154a9a
:1034bc0093621023d1680b42fcd0124b22229a84c7
:1034cc001a001023d1680b42fcd0114b114a5a60e0
:1034dc001a0053785bb2002bfbdb0d4b0e4a5a8063
:1034ec000e4a5a800e4a5a800e4a5a800e4a5a8008
:1034fc000e4b0f4a1a62034b00221a627047203a95
:10350c00cfe7c0460008004024608000286080009f
:10351c00000c0040000701000640000014400000b1
:10352c001640000017400000194000000004004045
:04353c00b4000100d6
:020000040000fa
:020000040001f9
:1035400010b564230a220121022001f0fbfa224b6c
:103550001a78224b1b78002b0ad0012b11d0204b5c
:103560005b78012b2bd001211b4801f079fb10bdaa
:10357000252af4d11b4b00221a70184b01321a7005
:10358000ede7252a0cd00a2a10d0164b1b781649d5
:10359000ca540133dbb2192b0bd8124a1370dee781
:1035a0000e4b00221a70fff735fad8e7fff732fa10
:1035b000d5e700230b4a1370084a1370cfe70b4b73
:1035c0001b78072bcfd1054b1b78002bcbd10121ca
:1035d000014801f071fcc6e7140400201504002026
:1035e000e40300202f0f002018040020f90300201e
:020000040000fa
:020000040001f9
:1035f00030b5244b244a1a60244a1a61062042221c
:10360000985401329854423a44215a5401315a5440
:1036100001315a5401315a5401315a5401315a542a
:1036200047394d24195503341a5501341a550234bb
:103630001a5503341a5501341a5501341a550134f8
:103640001a553232273c1a559a5402341a5504340a
:103650001a55013430251d5502341a5509322b34c0
:103660009c5444320a4c9c5010320a4c9c503432c8
:1036700098540132985405329954023299540332c5
:10368000995430bd00440041031004000f30040081
:083690000e6840003ee8400016
:020000040000fa
:020000040001f9
:10369800274b1b6a5b0704d5264a137801210b4385
:1036a8001370234b1b6a1b0704d5224a1378022187
:1036b8000b4313701e4aa023d358db0617d51d4aa7
:1036c800137804210b4313701949a0228a589206d3
:1036d80022d5184a137808210b43137093700e2bc8
:1036e80014d1144b00225a700132da700de0104ade
:1036f800a023d3589b06ecd40e4a13789370032b5f
:103708000cd8130000225a70da7070470d2bfcd1c8
:10371800084b05225a70f8e7064a93700e2be0d042
:103728001a1f032af2d8034b01225a70ede7c0464c
:0837380000440041e4030020fd
:020000040000fa
:020000040001f9
:1037400070b505000c00431c41d0002942d008236d
:10375000cb56012b41ddc378002b0dd1837b012b90
:1037600002d07f20404270bd002383730a20285678
:1037700001f000fc060000e00026fe232372002377
:103780006360e369002b0ed0a2699a61a369002be4
:1037900001d0e269da610023e361a361e368002bf1
:1037a00001d020009847eb780020002bdbd1002ec1
:1037b00009d0ab7a5ab2002a05db1f221a40012336
:1037c0009340074a13600123ab730020cbe77d20b1
:1037d0004042c8e77d204042c5e77d204042c2e725
:0437e00000e100e024
:020000040000fa
:020000040001f9
:1037e40070b504000f230b4049b2022b2ed8421ca3
:1037f4002fd010339b00c3185d68091108231940aa
:103804006d18c378002b29d1837b012b02d07f2034
:10381400404270bd002383730a20205601f0a8fba8
:10382400060002214942280001f024fee378002b1f
:1038340012d1002e1bd0a37a5ab2002a17db1f2202
:103844001a40012393400c4a136010e07c2040424c
:10385400dfe77d204042dce70020dae7022149422d
:10386400280001f007fee3780020002bd1d10123ca
:0c387400a3730020cde7c04600e100e097
:020000040000fa
:020000040001f9
:10388000d8400100d8400100f2400100f2400100a0
:10389000f2400100f2400100f2400100f24001005c
:1038a000f2400100f2400100f2400100f24001004c
:1038b000f2400100f2400100f2400100f24001003c
:1038c000f2400100f2400100f2400100f24001002c
:1038d000f2400100f2400100f2400100f24001001c
:1038e000f2400100f2400100f2400100f24001000c
:1038f000f2400100f2400100f2400100f2400100fc
:10390000a8400100b8400100c8400100e2400100a9
:020000040000fa
:020000040001f9
:1039100010b5102807d880001d4b1b589f461d4a24
:1039200026230121d15410bd1a4b00221a73fae745
:10393000184b00221a7338215a54f4e70b78012be4
:1039400003d0144b00221a73ede7134bdb78002be6
:1039500003d0104b01221a73e5e70e4a0f490020ed
:1039600001f092fff5e70b4b012222215a5401315d
:103970005a54d8e7074b186801f000ffd3e7054c0d
:10398000206801f044fe002323733822a354cae7c1
:10399000e84c01008c080020e4030020d12f010036
:020000040000fa
:020000040001f9
:1039a000f0b5c6461f4a204b00b50021934203d212
:1039b000197001339342fbd10b231c4a9c46083bf0
:1039c00098461368546819000026214311d0170047
:1039d00091680c3700290fd11a19002c03d01e70e2
:1039e00001339342fbd13a00136854681900214314
:1039f000edd104bc9046f0bd6146c91a1d1951189d
:103a0000002c05d05a1c505c187013009542f9d157
:103a1000434623405a1e9341a4081c19a4003f1991
:103a20003a00e1e7d408002000000020d40a010099
:020000040000fa
:020000040001f9
:103a300070b51c4bdb78012b28d01b4b00221a7170
:103a40000120404218601a73002159733e3999735e
:103a50003f310125dd7300251d749a740824dc7440
:103a60009861d8612330195401301954023819541f
:103a70001f316030585406315a5402395a540b4998
:103a8000d9620b49196338215a5470bd094c20681a
:103a900001f02aff08490020fff736f9206002f004
:103aa000c3f8cae7e40300208c0800208c0600203d
:0c3ab0007c040020cc03002070550100b5
:020000040000fa
:020000040001f9
:103abc00f8b5ce46474680b50d0090468e78c46961
:103acc0027683b78023bdbb25a0891460022012b57
:103adc0005d9007e01384946fdf77efac2b20020b6
:103aec00b24203d20cbc90469946f8bd002e03d1cd
:103afc0043461f603878f5e72a796b791b021a4325
:103b0c004b4698b20028edd07b88934211d00437f5
:103b1c00012301339bb298420dd30237b91e098899
:103b2c009142f6d173439b001b594246136018789f
:0a3b3c00d8e70123f6e70020d4e7e4
:020000040000fa
:020000040001f9
:023b46007047c6
:020000040000fa
:020000040001f9
:103b480070b50400431c02d00378002b00d170bd6f
:103b5800456a1021fdf798fde378002b20d1a37b5f
:103b6800012bf4d10026a6730a20205601f0fef995
:103b7800a671134bab82ae722b89012213432b81a2
:103b8800e378002be3d1002816d0a37a5ab2002a92
:103b980012db1f221a40012393400a4a13600be0ec
:103ba8000023a371064aaa82ab722b890122134310
:103bb8002b81e378002bcad10123a373c7e7c04642
:083bc800ff03000000e100e032
:020000040000fa
:020000040001f9
:103bd00070b5002000f094fa1b4b196801230a22eb
:103be0001a4800f037fdfff757fd194b9b780d2b56
:103bf0000ad0072b11d9164b5b78002b10d000f0a0
:103c00002bf8134d2c0013e0124b01225a610132a4
:103c10005a61923208219950fee700f0d9faeae79a
:103c2000fff706ffebe7fdf7c5f804e000f08cfcba
:103c30006b78002bf7d000f097faa378072bf5d814
:103c400001f09afaf2e7c046dc030020615a010055
:083c5000e403002000440041e0
:020000040000fa
:020000040001f9
:103c580010b51b4a94230221d1500231d1500905d5
:103c6800d150012001f06aff01f03cfd0028fbd093
:103c7800134a98238021c903d150012001f05eff27
:103c880001f030fd0028fbd00d4a98230221d150c5
:103c98000231d1500b4c21680b4801f085ff216897
:103ca8000a4801f087ff0121094800f0d5fffa20f2
:103cb800c00001f043ff074b00221a7010bdc04638
:103cc800004400410c040020e94401004135010092
:083cd80014040020f903002090
:020000040000fa
:020000040001f9
:103ce00070b5040011795378002b14d1bc254353cf
:103cf000e433c3585b6bc069984701230340605da0
:103d000001229043184360552100bc31013220004c
:103d100000f060ff70bd012b07d0032b14d00c2bdb
:103d2000f8d1012100f0a0fef4e79078d3781b02cf
:103d30000343efd1e433e358db6ae069984700219d
:103d4000200000f091fee5e79078d3781b02034352
:103d5000e0d1e433e3589b6ae069984700212000f2
:063d600000f082fed6e730
:020000040000fa
:020000040001f9
:023d66007047a4
:020000040000fa
:020000040001f9
:103d6800bff35f8f62b61b4bc12080001a58120246
:103d7800120a802109060a431a5080221a60c221b9
:103d880089005a5814481040c022120202435a505f
:103d9800802292001a605a581202120ac0200006a5
:103da80002435a50802212011a6004315a58ff20e7
:103db80082433f3802435a50802252011a605a58af
:103dc80006481040c022120402435a508022d201f1
:103dd8001a60704700e100e0ff00ffffffff00ffef
:020000040000fa
:020000040001f9
:103de80010b50400431c09d09a2252004243194bd3
:103df8009b1820331b785bb2022b00d010bd9a228f
:103e080052004243134b9b189b7a5ab2002a07db95
:103e18001f221a40012393400f49c02252008b50a1
:103e28009a22520062430b4b9b180122da705b7a8c
:103e3800012b07d09a235b006343064ce418002348
:103e4800e370dbe79a2040006043024bc018fcf7a0
:0c3e58003ff9efe70000002000e100e06f
:020000040000fa
:020000040001f9
:103e6400f0b5de464f464646c0b586b00490b4234e
:103e7400c458a278e3781b021343994628d000263d
:103e840000239846059300250ee0a0780590e3787a
:103e94009846049900f0c1fd060008e02378ed1867
:103ea400adb2e418a94513d96778042fedd0002edc
:103eb400f4d0f368002bf1d0b268b0880294019773
:103ec400414600911b689b46059b0499d847e5e74a
:0c3ed40006b01cbc90469946a346f0bd09
:020000040000fa
:020000040001f9
:103ee00010b584b041690190436802930823c3561a
:103ef000dab2012a07d9da1c1fd0043321d001ab72
:103f0000a0221a7202e001ab00221a720b015b18a8
:103f10009a000e4b9b189a6b013a9a631c6a002c0c
:103f200009d00b0159188900084b59184b6a406990
:103f300001aa0521a04704b010bd01ab9e221a7250
:103f4000e4e701ab9f221a72e0e7c0465c02002062
:020000040000fa
:020000040001f9
:103f500010b584b041690190436802930823c356a9
:103f6000dab2012a07d9da1c1fd0043321d001ab01
:103f7000a0221a7202e001ab00221a720b015b1838
:103f80009a000e4b9b185a6b013a5a631c6a002c1c
:103f900009d00b0159188900084b59184b6a406920
:103fa00001aa0421a04704b010bd01ab9e221a72e1
:103fb000e4e701ab9f221a72e0e7c0465c020020f2
:020000040000fa
:020000040001f9
:103fc00010b5002805d10e2904d00f2924d00d29c1
:103fd00018d010bd154b186813789b0609d5537877
:103fe000012b0ad9203b032b07d9012100f03cfd0e
:103ff000efe7012100f038fdebe70c49002000f06d
:104000004bf8e6e7094b1c6a002ce2d05b6a002201
:1040100008210020a047dce7044b1c6a002cd8d004
:104020005b6a002207210020a047d2e75c02002043
:020000040000fa
:020000040001f9
:1040300070b5050044690823c35602332bd023789a
:104040007f2b0dd86378db071bd563780122934360
:104050006370a178e423e358db6ce069984710e0d3
:10406000ac23e15c3833e358db68e0699847227899
:104070007f2313402370e3780722934304221343e2
:10408000e3700823eb56002b05d16b68002b02d19f
:08409000c4330022e25470bdac
:020000040000fa
:020000040001f9
:1040980010b55378232b28d89b00164ce3589f461d
:1040a8000c6a002c18d04b6a00220021a04713e0ac
:1040b8000c6a002c10d04b6a00220121a0470be0ab
:1040c8000c6a002c08d04b6a02320221a04703e098
:1040d8000868012100f0c4fc10bd0c6a002cfbd05c
:1040e8004b6a02320321a047f6e70868012100f075
:0840f800b7fcf1e7803801007c
:020000040000fa
:020000040001f9
:1041000010b5144b06225a60fff772fafff7bef99a
:1041100000f012ff01f034fd00f056f9fff723fe26
:1041200000f06cfa01f09afa00f03cfa0a4900201b
:1041300000f082f8094c606009490020fef7e4fdb8
:10414000206008490020fef7a5f8a060fff70cfeec
:1041500010bdc046004000415c5c0100cc03002063
:0841600098550100a45601006e
:020000040000fa
:020000040001f9
:1041680000b583b06b460022da71134b5b78012be4
:1041780005d0124b1b78072b1ad103b000bd104b8a
:104188001b78002bf5d10f4b1b78012bf1d101f0d7
:1041980073f80028edd00a4b01221a7000f0e4fdf4
:1041a8006b46d87107330121180000f069f9e0e780
:1041b800fdf704fee1e7c046e4030020f903002010
:0841c800fa0e0020f8030020ac
:020000040000fa
:020000040001f9
:1041d00000b585b0154b9b7804229343032b09d07f
:1041e000022b16d0012b18d0002b1ad196239b013d
:1041f000009302e0e1235b0200930023029302227a
:10420000019203936a460a490a4800f071fb05b01f
:1042100000bd96231b020093efe79623db0100937a
:10422000ebe7e1235b020093e7e7c046e4030020ed
:08423000895a01001d5c010028
:020000040000fa
:020000040001f9
:1042380010b5002922d0002823d1134c24230122b1
:10424800e2540a686260fa239b00e3600423cb56b9
:10425800237200236361a36123622377136800211b
:104268000a48984763685b689847a0220021084875
:1042780001f06cfc02232370200010bd0120404295
:10428800fbe701204042f8e7880e00207d3101005d
:04429800e00c002016
:020000040000fa
:020000040001f9
:10429c0000b585b041690a8bd200154b9b18da88a2
:1042ac00013ada80d823cb58002b17d042680292ff
:1042bc00019008228256d0b2012807d9d01c0fd009
:1042cc00043211d001aaa020107202e001aa002031
:1042dc001072dc228a5801a91120984705b000bd44
:1042ec0001aa9e201072f4e701aa9f201072f0e739
:0442fc00c4030020d7
:020000040000fa
:020000040001f9
:1043000000b585b041690a8bd200154b9b189a887d
:10431000013a9a80d823cb58002b17d042680292da
:10432000019008228256d0b2012807d9d01c0fd0a4
:10433000043211d001aaa020107202e001aa0020cc
:104340001072dc228a5801a91020984705b000bde0
:1043500001aa9e201072f4e701aa9f201072f0e7d4
:04436000c403002072
:020000040000fa
:020000040001f9
:1043640070b504000d000023e25cea540133082b0d
:10437400fad12378022b19d00f2b02d0012b0ad0ab
:1043840070bd00236b70ab700133eb7001332b7184
:1043940003336b71f4e76078400801f037fca078d0
:1043a40000f0b0fe00f0cafe2871e9e7607840082a
:1043b40001f02cfca07800f0a5fe207900f0e2fad0
:0243c400dee732
:020000040000fa
:020000040001f9
:0243c600fee710
:020000040000fa
:020000040001f9
:1043c800144b01221a601a00d369002bfcd1114b3f
:1043d800802252005a601a00d369002bfcd10d4b81
:1043e800e822da600c4a1a601a00d369002bfcd163
:1043f800084b10225a831a00d369002bfcd1074bb3
:10440800002221215a5401395a54024b83329a7599
:104418007047c0460010004216001000300e002001
:020000040000fa
:020000040001f9
:1044280070b5002826d0144b1a7d0023002a1fd10e
:10443800114b1860596001321a7500230f4c012581
:10444800072602e0c25c22850133227e2a4209d077
:10445800994207d062683240012af3d15a00825a41
:104468002285f1e7044a9360044b01229a750123df
:10447800180070bd0023fbe7d00d0020001c00428f
:020000040000fa
:020000040001f9
:1044880070b5002826d0144b1a7d0023002a1fd1ae
:10449800114b1860596001321a7500230f4c012521
:1044a800072602e0c25c22850133227e2a4209d017
:1044b800994207d062683240012af3d15a00825ae1
:1044c8002285f1e7044a9360044b01229a7501237f
:1044d800180070bd0023fbe7000e00200008004212
:020000040000fa
:020000040001f9
:1044e80000b583b06b460022da7164230a320121d9
:1044f800012000f023fb0f4b5b78012b04d00e4bff
:1045080000221a7003b000bd0c4b1b78072bf6d1a4
:1045180000f0b2fe002803d1074b00221a70f1e721
:1045280000f022fc6b46d871073301211800fff711
:10453800a7ffe7e7e4030020fa0e0020f9030020b4
:020000040000fa
:020000040001f9
:10454800f8b5154d0024002707e02a899a4217d3a9
:104558000134e4b20a35032c1cd02b78012bf7d197
:10456800ab88ea889a42f0d20023ab80ab78002b64
:10457800eed0013bab700121200000f011f9e7e714
:104588000021200000f00cf9ab78002be0d1ab80c3
:0c4598002f70dde7f8bdc046b00e00201b
:020000040000fa
:020000040001f9
:1045a400114b124a1a60124a9a81c02292025a602e
:1045b4001a00d369002bfcd10b4a136802210b4368
:1045c4001360d369002bfcd10a4b00229a61da6193
:1045d4001a622c215a545a621a605a609a601a75e7
:1045e400da60da857047c046001c004204011040be
:0845f4002bf6ffffd00d0020a3
:020000040000fa
:020000040001f9
:1045fc00114b124a1a60124a9a81c02292025a60d6
:10460c001a00d369002bfcd10b4a136802210b430f
:10461c001360d369002bfcd10a4b00229a61da613a
:10462c001a622c215a545a621a605a609a601a758e
:10463c00da60da857047c046000800420401124077
:08464c002bf6ffff000e002019
:020000040000fa
:020000040001f9
:1046540070b582b005000e001c1e01d100281ed0ca
:10466400002a04d101246442200002b070bd0d4b25
:10467400d8680023002100f0bff8fa22920000233a
:1046840000f038fc0100009433002a000020fef7fb
:104694003ffe0400431ce7d000f09af9e4e701244c
:0846a4006442e1e7880e0020ea
:020000040000fa
:020000040001f9
:1046ac0010b5114b00229a61da61104b83321a76e5
:1046bc005a680f4c22405a601a00d369002bfcd167
:1046cc0000290cd0084a20330324d454400008435a
:1046dc00064b58621a00d369002bfcd110bd024a5c
:1046ec0020230424d454f1e7300e002000100042a3
:0446fc00fffffbffc2
:020000040000fa
:020000040001f9
:1047000010b5134b1a6a002a19d0824205d1836969
:10471000002b15d0002208e01a009369002b0ed060
:104720009842f9d18369002b05d0846899680919ea
:104730009960002a06d0836993610023836110bdcc
:104740001a00f6e7024b1a6a92691a62f5e7c04648
:04475000880e0020af
:020000040000fa
:020000040001f9
:1047540010b582b002000c1e1fd00123002802d124
:10476400180002b010bd0e4bd8680023002100f0e1
:1047740043f8fa229200002300f0bcfb010000235e
:10478400009300220020fef7c3fd20600123421c99
:10479400e6d000f01df90023e2e70123e0e7c0467c
:0447a400880e00205b
:020000040000fa
:020000040001f9
:1047a800012804d000280cd0022816d07047002910
:1047b80003d00f4b01225a61f8e70d4b01229a6191
:1047c800f4e7002904d00a4a94230821d150ede7e0
:1047d800074a98230821d150e8e7002903d0044b61
:1047e80002225a61e2e7024b02229a61dee7c046e2
:0447f8000044004138
:020000040000fa
:020000040001f9
:1047fc00f0b5ce46474615042d0c2e0080b50704a7
:10480c00140c3f0c9946030c7e435d436743634392
:10481c007f19340ce4199c46a54203d980235b0212
:10482c009846c4444b4643435143250c36046544d7
:10483c00360c2404a4195b19591820000cbc9046a2
:04484c009946f0bddc
:020000040000fa
:020000040001f9
:1048500070b5040008001500210000f0e0f8002801
:1048600019d0c368002b10d09b68002b07d0c4342c
:10487000e3608088a0802a000e21984770bd2a003e
:104880000e21200000f0a0fdf8e72a000e212000f4
:1048900000f09afdf2e70121200000f0e5f8ede7d5
:020000040000fa
:020000040001f9
:1048a000f0b5c64600b506783607760fad23c35c73
:1048b0009846078a4569002f16d0002405e0103578
:1048c0000134e4b2a3b2bb420ed22b783342f6d00d
:1048d0006b784345f3d1eb68002bf0d05b68002b7d
:0e48e000edd0a8889847eae704bc9046f0bdea
:020000040000fa
:020000040001f9
:0248ee00fee7e3
:020000040000fa
:020000040001f9
:1048f00010b514000b4b18600b4b196001f09ef9ba
:1049000001002000fdf7fefa084c2168084801f07c
:1049100049f92168074801f03ff90121064800f0f4
:104920007df910bdc8080020cc080020d803002065
:0c49300035570100755a0100fb0e0020f5
:020000040000fa
:020000040001f9
:10493c0010b50c4b1b78002b08d10b4b00221a70b6
:10494c000a4b1b68002b00d0984710bd084b002267
:10495c001a70084b1b68002bf7d0074a1078c0b2ae
:10496c009847f2e70a0f0020490f0020400f002063
:0c497c000b0f00203c0f0020c0090020a1
:020000040000fa
:020000040001f9
:1049880010b50d4b01221a700c4b00221a700c4afc
:104998001378dbb20b490b70487013780133dbb224
:1049a8001370094b1878022200f0fefb024a1378b4
:1049b800002bfcd110bdc046490f00200a0f002073
:0c49c800090f0020880a0020480f002082
:020000040000fa
:020000040001f9
:1049d40070b5040000f06cfc00281cd0200000f02e
:1049e40009fa041e15d043780025002b0dd18368e5
:1049f400002b01d1436883602000fef753fb0023a2
:104a04002375637501336370002500f01bff2800d4
:0a4a140070bd0125f9e70125f9e75f
:020000040000fa
:020000040001f9
:104a1e00f0b50d8a4a690c782407640fad23ce5c7d
:104a2e00002d18d0002305e010320133dbb299b20d
:104a3e00a9420dd211782142f6d05178b142f3d16c
:104a4e0091788142f0d8d77879188842ecda00e074
:0a4a5e0000221000f0bd0022fbe76b
:020000040000fa
:020000040001f9
:104a680010b50c0000f080ff00281bd0c4230022e2
:104a7800c254012c0dd000234366836602006432c1
:104a8800c469e433c3589b6b8021200098470020f9
:104a980010bdc2692033c3589b6a80211000984713
:0a4aa8000020f5e775204042f2e718
:020000040000fa
:020000040001f9
:024ab200fee71d
:020000040000fa
:020000040001f9
:104ab40010b5064c2378002b07d1054b002b02d0f0
:104ac400044800e000bf0123237010bdd00e002075
:104ad4000000000000000000044b10b5002b03d0c0
:104ae4000349044800e000bf10bdc04600000000b8
:084af400d40e002000000000b8
:020000040000fa
:020000040001f9
:104afc0010b50a4b98470a4b9847fef74bff094bea
:104b0c00ff229343084a9360084b9847084b9847f9
:104b1c00084b9847fff756f8fee7c0461b4c0100c0
:104b2c001b4c01000000010000ed00e08d4b01006a
:084b3c001b4c01001b4c0100a1
:020000040000fa
:020000040001f9
:104b4400f8b506000f0014001d00002906d08300ec
:104b54001b185b000b4a9b5c002b00d0f8bd0121a5
:104b6400fff720fe0749b3009a1952000120505460
:104b74009a1952008a18013f977000209080d580be
:084b84001481ebe7b00e0020e4
:020000040000fa
:020000040001f9
:104b8c0070b500260c4d0d4c641ba410a64209d127
:104b9c000026fbf787fa0a4d0a4c641ba410a642a8
:104bac0005d170bdb300eb5898470136eee7b30062
:104bbc00eb5898470136f2e7bc000100bc0001003d
:084bcc00bc000100c000010063
:020000040000fa
:020000040001f9
:104bd40070b50d00140000f0c9fe002818d00200c2
:104be400643245668466e023c35aa34205d006d9dd
:104bf400030064330121197401e002211174c469b2
:104c0400e423c3589b6b802120009847002070bd8b
:064c140075204042fbe7a1
:020000040000fa
:020000040001f9
:024c1a007047e1
:020000040000fa
:020000040001f9
:104c1c0070b504000d00002815d00c4a2c23d35c71
:104c2c000020002b00d070bd00f086fb074b9c6170
:104c3c00dd6100221a622c2101205854da85044bc4
:104c4c0084329a75efe70020ede7c046d00d0020c6
:044c5c00001c0042f6
:020000040000fa
:020000040001f9
:104c600070b504000d00002815d00c4a2c23d35c2d
:104c70000020002b00d070bd00f07afb074b9c6138
:104c8000dd6100221a622c2101205854da85044b80
:104c900084329a75efe70020ede7c046000e002051
:044ca00000080042c6
:020000040000fa
:020000040001f9
:104ca4000902430002010080fa0904000001020223
:104cb4000100052400200104240202052406000149
:104cc4000524010001070581031000020904010005
:104cd400020a0000000705020240000007058202e4
:044ce400400000008c
:020000040000fa
:020000040001f9
:104ce800263901002639010028390100263901003a
:104cf8002639010026390100263901001e39010034
:104d0800743901007e3901003c3901003039010055
:104d1800263901002639010026390100263901000b
:044d280066390100e7
:020000040000fa
:020000040001f9
:104d2c000d4b1b780d4a1278dbb2934212d00a4a13
:104d3c001378dbb20a49c85cc0b213780133dbb21a
:104d4c0013701378dbb2c82b00d07047130000220d
:104d5c001a70fae70020f8e74a0f00204b0f0020ea
:044d6c00500b0020c8
:020000040000fa
:020000040001f9
:104d70000d4b1b780d4a1278dbb2934212d00a4acf
:104d80001378dbb20a49c85cc0b213780133dbb2d6
:104d900013701378dbb2c82b00d0704713000022c9
:104da0001a70fae70020f8e74c0f00204d0f0020a2
:044db000180c0020bb
:020000040000fa
:020000040001f9
:104db40010b504780a7894420fd10a2c10d00a2a2c
:104dc40013d000230133c45cca5c944205d10a2c7d
:104dd4000dd00a2af6d1002006e000200a2c03d1c7
:104de4000a3a50425041c0b210bd0020fce70120f5
:024df400fae7dc
:020000040000fa
:020000040001f9
:104df800431e033314d803041b0c042b13d8590186
:104e08000a4a5218d169002281420ad15a01074937
:104e1800515c0022002904d05b01044a9a1800e082
:104e28000022100070470022fbe7c046e00c00207b
:020000040000fa
:020000040001f9
:104e380010b5040000f03afa002817d02000fff758
:104e4800d7ff041e10d04378002b08d10023237508
:104e580063752370002400f0f3fc200010bdfff7f9
:104e68004bfc00236370f1e70124f4e70124f4e725
:020000040000fa
:020000040001f9
:104e780030b5b423c0588378c5782d021d4315d0aa
:104e8800002307e08478147004781b199bb200197a
:104e98009d4209d94478042cf4d0052cf4d18478a7
:104ea8008c42f1d1012000e0002030bd0020fce759
:020000040000fa
:020000040001f9
:104eb800f0b5002917d000240b4a0c4e002703e058
:104ec8000134e3b299420ed91378dbb2055df5548b
:104ed80013780133dbb213701378dbb2c82befd130
:104ee800014b1f70ece7f0bd4b0f0020500b00206a
:020000040000fa
:020000040001f9
:104ef800002b11d1002a0fd1002900d1002802d09f
:104f08000021c943081c07b4024802a140180290b6
:104f180003bdc046650d000003b4684601b502989c
:104f2800fcf746f9019b9e4602b00cbc7047c04690
:020000040000fa
:020000040001f9
:104f38000b4b00221a621a779a60da60094b8022ba
:104f480092025a601a00d369002bfcd1054b172234
:104f58001a73054a1a601a00d369002bfcd17047ee
:0c4f68005c0e0020001400420e0030001f
:020000040000fa
:020000040001f9
:104f740070b5050000f0a2fd0024002d0fdb0a49e6
:104f84000a681f232b40da400134144001229a405e
:104f9400130080228b50bff34f8fbff36f8f00f04d
:0c4fa40021fd200070bdc04600e100e0cf
:020000040000fa
:020000040001f9
:104fb000002813d10c4b1b7a5bb2022b11d10a4a89
:104fc000d433d35c002b02d0012040420be0100010
:104fd0000133d6228354013a835404e00120404235
:0c4fe00001e0012040427047d40800208e
:020000040000fa
:020000040001f9
:104fec001c2101231b04984201d3000c10391b0a0d
:104ffc00984201d3000a08391b09984201d30009d1
:10500c00043902a2105c40187047c0460403020227
:0c501c0001010101000000000000000084
:020000040000fa
:020000040001f9
:105028004b0059180b01094a9b1843644b1c1b0180
:105038009b188364023109018918c164044b036118
:10504800044b436100238371c3717047b40100208e
:08505800740100203401002066
:020000040000fa
:020000040001f9
:1050600010b50c4c2023e45c0023002c01d0180068
:1050700010bd084b9880d9605a6100229a601a616d
:10508000012199701a7020315a542039fff70efb14
:085090000123ece7300e0020c3
:020000040000fa
:020000040001f9
:1050980070b5002800d070bd0a4c2568a11d2800f5
:1050a80000f0acfb21000c31280000f0a7fb210028
:1050b8001431280000f0a2fb21001a31280000f06a
:0850c8009dfbe8e75c020020fb
:020000040000fa
:020000040001f9
:1050d000c3000b48c018002300228380c380094b03
:1050e0001a722c215a5424315a5424315a542431de
:1050f0005a5424315a5424315a5424315a54704742
:08510000c4030020a4020020fa
:020000040000fa
:020000040001f9
:1051080010b5094b01221a70084b00221a70084981
:105118000870084b1878013200f046f8024a1378f4
:10512800002bfcd110bdc046490f00200a0f0020fb
:08513800090f0020480f0020c0
:020000040000fa
:020000040001f9
:1051400010b50123084a1370084a1370084b1878e9
:1051500001220849fff784ff034a1378002bfcd192
:10516000044b1878c0b210bd0b0f00200a0f0020ae
:08517000480f0020c0090020d7
:020000040000fa
:020000040001f9
:1051780000b583b00b4b1b78002b01d003b000bdea
:1051880000f060f80028f9d0064b01221a70fff7ea
:10519800c9fd6b46d87107330121180000f05efd88
:0851a800ece7c046d20800202c
:020000040000fa
:020000040001f9
:1051b00010b50b4c2023e45c0023002c01d0180018
:1051c00010bd074b9880dc605c6199601a619c702f
:1051d0001c7021229c540021fff768fa0123eee79e
:0451e000300e00206d
:020000040000fa
:020000040001f9
:1051e40034034d006900630072006f0063006800bf
:1051f40069007000200054006500630068006e00c0
:105204006f006c006f0067007900200049006e0099
:0452140063002e0005
:020000040000fa
:020000040001f9
:1052180034034d006900630072006f00630068008a
:1052280069007000200054006500630068006e008b
:105238006f006c006f0067007900200049006e0065
:0452480063002e00d1
:020000040000fa
:020000040001f9
:10524c000a4b1b780a4a1278dbb2934206d3074bff
:10525c001878074b1b78c01ac0b27047034b1878ec
:10526c00034b1b783838c01ac0b2f6e74b0f00203e
:04527c004a0f0020b5
:020000040000fa
:020000040001f9
:105280000a4b1b780a4a1278dbb2934206d3074bcb
:105290001878074b1b78c01ac0b27047034b1878b8
:1052a000034b1b783838c01ac0b2f6e74d0f002008
:0452b0004c0f00207f
:020000040000fa
:020000040001f9
:1052b40010b50a4b1b7f0120002b05d1074a24336c
:1052c400d35c0020012b00d010bd13002422002148
:1052d40099545b689b6998470120f5e7880e002084
:020000040000fa
:020000040001f9
:1052e4002e034d006900630072006f0063006800c4
:1052f40069007000200054006f00750063006800ae
:105304002000420072006900640067006500c04626
:020000040000fa
:020000040001f9
:105314000f230b400022022b0dd8421c0dd010335a
:105324009b001b185b6849b20911082211405b18e5
:0e533400d879073a0240100070470022fbe7cc
:020000040000fa
:020000040001f9
:10534400094b5b8b5b070dd0074b80221a76793aa9
:105354005a831b7e5b0705d5034b04211a8d1a7ee5
:0c5364000a42fbd17047c046001c00420a
:020000040000fa
:020000040001f9
:10537000094b5b8b5b070dd0074b80221a76793a7d
:105380005a831b7e5b0705d5034b04211a8d1a7eb9
:0c5390000a42fbd17047c04600080042f2
:020000040000fa
:020000040001f9
:10539c0010b500f08ffb074b07221a601b68db036c
:1053ac0005d5054a51688023db040b43536000f09c
:0c53bc0015fb10bd10e000e000ed00e06b
:020000040000fa
:020000040001f9
:1053c80070b50d001100d823c4580300c433dc6045
