:020000040000fa
:10000000f0ff0320b51c0000d3230000bf27000031
:10001000132b0000ed2b0000ef2b00000000000070
:10002000000000000000000000000000b711000008
:100030009b29000000000000b7110000b71100006c
:10004000b7110000b7110000b7110000b711000090
:10005000b7110000b7110000b7110000b711000080
:10006000b7110000b7110000b7110000c127000050
:10007000b7110000b7110000b7110000b711000060
:10008000b7110000b7110000b7110000b711000050
:10009000b7110000b7110000b7110000b711000040
:1000a000b7110000b7110000b7110000b711000030
:1000b000b7110000b7110000b7110000a12b00001c
:1000c000b7110000b7110000b7110000b711000010
:1000d000b7110000b7110000b7110000b711000000
:1000e000b7110000b7110000000000000000000080
:1000f00000000000b7110000b7110000b7110000a8
:10010000b7110000b7110000b7110000b7110000cf
:10011000b7110000b7110000b7110000b7110000bf
:10012000b7110000b7110000b7110000b7110000af
:10013000b7110000b7110000d9200000d92000003d
:10014000d9200000d9200000b7110000b71100002d
:10015000b7110000b7110000b7110000b71100007f
:10016000b7110000b7110000b7110000b71100006f
:10017000b7110000b7110000b7110000b71100005f
:10018000b7110000b7110000b7110000b71100004f
:10019000b7110000b7110000b7110000b71100003f
:1001a000b7110000b7110000b7110000b71100002f
:1001b000b7110000b7110000b7110000b71100001f
:1001c000b7110000b7110000b7110000b71100000f
:1001d000b7110000b7110000b7110000b7110000ff
:1001e000b7110000b7110000b7110000b7110000ef
:1001f000b7110000b7110000b7110000b7110000df
:10020000b7110000b7110000b7110000b7110000ce
:10021000b7110000b7110000b71100008d260000d3
:10022000b7110000b7110000b7110000b7110000ae
:10023000b7110000b711000000000000000000002e
:10024000b7110000b7110000b7110000b71100008e
:10025000b7110000b7110000b7110000b71100007e
:04026000b7110000d2
:020000040000fa
:10026400f8b500bff8bc08bc9e4670470d250000d9
:10027400f8b500bff8bc08bc9e467047e9240000ee
:020000040000fa
:100284002de9f04f054685b0002800f05582d0f8de
:1002940004a04ff00008c146c3460322cdf80880ed
:1002a400baf800300193bdf80810019b99421ad3a3
:1002b4002a68137819060ad500214ff00c0e019c08
:1002c40088b2844200f20c8103f07f031370bbf107
:1002d400000f40f017811378b9f1000f00f0658129
:1002e40043f0010363e1029b0c20af6800fb03f6bb
:1002f400bc196068037813f01e0e1cbf0123bb55a4
:10030400bb5d042b7cd00ad8022b32d044d8012bfd
:1003140025d0029b08f1030801330293c3e7852b20
:1003240000f09280862b00f0b480072bf1d1218954
:100334004388994269d9c91aeb689af805e089b2e9
:1003440013f8083043fa0ef3dbb28b425dd86378be
:10035400002b77d14ff00103bb550270d9e7bef1f2
:10036400000f03d10221b955082161704ff0010b30
:10037400cfe7617871b1042903d943882381013916
:10038400f3e7238940888342f9d08cbf03f1ff331c
:100394000133f3e7ba55bce72389b0f802e07345ab
:1003a400b7d0e86813d910f80810a3eb0e039af835
:1003b40005009bb20141c9b29942aad89af8043007
:1003c400002ba6d04ff00701b9556370cee7aeeb12
:1003d400030300eb080c10f808009bb2984298d86d
:1003e4009cf8023033b12846039201f05ffd039a72
:1003f40000288ed14ff00403bb559af80230e4e78d
:10040400b4f808e043889e4504d9ba554ff0000378
:1004140063707ee7e868a3eb0e0300eb080c9bb265
:1004240010f808009842f0d29cf802303bb12846fc
:10043400039201f03bfd039a00287ff46aaf6378ce
:10044400002b42d0013bc0e72b689af808101971c1
:100454002389b0f802e0734508d96ff07903bb55de
:100464009af8023063704ff001097fe7e968aeeb58
:10047400030301eb08009bb211f808104078013027
:1004840041fa00f0091ac9b29942e6d24ff00109c3
:100494003fe72389b0f802e0734506d963780bb9c6
:1004a400ba55f3e7013b6370f0e7e968aeeb030389
:1004b40001eb08009bb211f808104078013041fab2
:1004c40000f0091ac9b2994205d26ff07a03bb55fc
:1004d4009af80330e7e76378002be1d0013bc1e7ea
:1004e4000efb01f6af68b8194468207810f0010fcc
:1004f40006d1be5d16f0f70f1cbf40f0010020705e
:100504000131dce69af8091000293ff4e4ae1378cf
:10051400012963f07f0313707ff4ddae00210c2703
:10052400019b1ffa81fe73457ff6d5ae07fb01f3ed
:10053400ac6804eb030ce35c13f0f70f27d0852bb6
:1005440001d0032b2bd1d5f80c8001eb410343449c
:1005540093f802a0baf1000f19d0002003469e457b
:100564000fd007fb03f6a65d042e01d0862e08d11a
:1005740003eb43064644b6785645019e04bf01206a
:1005840033460133019e9bb29e42e8d838b9dcf869
:100594000400037823f0010303700131c0e7dcf8a1
:1005a4000400037843f00103f6e723f0010313701a
:1005b400624b51881b8801f1c802934254d95b1adb
:1005c4009ab20c2401260327c82a4fd92b68c83aab
:1005d40092b25988c83159801979002940f086802f
:1005e400597909b101395971997909b10139997167
:1005f400d5f804e09ef80690b9f1000f08d05979b7
:1006040031b9bef800a088b250453dd383f80590b7
:100614009ef807c0bcf1000f08d0997931b9bef833
:10062400008088b2404548d383f806c06b68d97807
:100634000029c9d0b3f800c0002104fb0cf88bb228
:100644006345c1d204fb01f9ab6803eb090e13f84f
:100654000900852806d19ef80100002849d00138f8
:100664008ef801000131eae78b4203d3002005b084
:10067400bde8f08f03f57f42ff32521ac82af5d93c
:100684005a1e521a92b29ce704fb01f0d5f808c036
:100694000ceb00081cf80000032801d008280ad13c
:1006a400d8f80400b8f808c04088604584bf0cf14d
:1006b400010ca8f808c00131a5e704fb01f0d5f846
:1006c40008e00eeb00091ef80000032801d00828fa
:1006d4000ad1d9f80400b9f808e0408870453cbf55
:1006e4000ef1ff3ea9f808e001319ae701391971ca
:1006f4009ce703f80960def8040001eb410e077083
:10070400e86886449ef80290b9f1000faad003eb82
:10071400080a9a45a6d090f802e0ce4509d1d3f84c
:1007240004e09ef800b01bf0010f1cbf1e708ef891
:1007340000700c330330ece70b2098e7a60100208f
:020000040000fa
:10074400a74b2de9f04f87b05b7a002b00f0de81d8
:10075400a44b4ff0000bcdf800b01b6801931b684d
:1007640002931b880393a04b1b680493039b1ffafb
:100774008bf0984206d39a4b02225a72009807b023
:10078400bde8f08f049b0c2633f81b10062303fbf3
:100794000bf4019b5a689d6806fb0b262f5d05eb45
:1007a400040ac7f3820796f80b80042f00f2ad8188
:1007b400dfe817f0050020007e014801f300b27a5b
:1007c40002f00f0290450cd9a8eb0200b8f1040f17
:1007d400c0b20dd9a8f10308804502dcc2f10407b8
:1007e400ffb241fa07f8aaf802800bf1010bbde74a
:1007f4000746f6e7b8f1040f029b28bf4ff0040840
:1008040041fa08f8b8f5007fbaf804101ffa88f224
:10081400aaf80220b5bfc2f5ff726ff4ff7e013261
:10082400724493f802e0a7bf384692b292b2002015
:10083400bef1400f4fea520292b21bd1e0b1f9b1be
:10084400092a21d9c1f30134c1f30320c1f30315eb
:1008540001f00f06002f43d0cf2a01d9002c70d10c
:10086400152a78d9002871d1002c7dd0013c0a20aa
:10087400e4b272e00028e2d043f6ff70814208d16e
:1008840081220e232a5500932a5d570603d501229f
:100894000ce00027d4e7100609d4029bda7802f0b2
:1008a4000302032a06d13f22327211222a55aaf8e2
:1008b40004109ae7022a05d1727a22f00f027272aa
:1008c4000922f3e7012ae2d1727a02f00f0242f020
:1008d400700272720d22e9e70134cf3ae4b292b2a7
:1008e400cf2a01d9032cf7d1152a0dd90f2806d107
:1008f400032c1bbf013405200f20e4b206e00130b5
:10090400153ac0b292b2efe70f28f1d0022a12d9f9
:100914000f2d0bd10f2800f0fc800130032c4ff079
:100924000505c0b20bd0022adad826e0691c023ac7
:10093400cdb292b2eae70f2decd0032c1dd10324e3
:10094400f1e7013ccf3ae4b292b285e70138153ab7
:10095400c0b292b284e7002886d0022a0bd92db9fe
:1009640098b90646054608e02046f6e7691e023aad
:10097400cdb292b2f1e7002df2d0210389b241ea5f
:100984000021314341ea051191e70138022a4ff071
:100994000a05c0b23ff660afefe7b8f1040f96f86e
:1009a400089028bf4ff00408b9f13f0f41fa08f846
:1009b4001ffa88f71ad1aaf802701f2232722a5d30
:1009c400012a7ff412afb8f5007fb5bfc7f5ff77f2
:1009d4006ff4ff730137ff18bfb20a2f5ce000bf4a
:1009e400e8000020080000200c000020002229fa62
:1009f40002f1c9075cbf9246062202f1010248bf18
:100a04004ff0000ad2b2052af1d9394601f0bef8f6
:100a140030b1012202fa0af249ea020986f8089082
:100a24000122baf1000f0bd00af1ff3a5ffa8afaf9
:100a340002fa0afa327a22ea0a0a86f808a0bee71b
:100a44002a55bce796f8099041fa08f81ffa88f885
:100a54004fea1917072f29d0414601f097f800bb38
:100a6400013701222a5509f00f0949ea071777725d
:100a7400aaf802802a5d012a7ff4b7aeb8f5007f98
:100a840035bfc8f5ff786ff4ff7208f10108904490
:100a94001ffa88f8b8f10a0f7ff6a7ae45222a5547
:100aa400a3e6002fddd0013fffb2dce70627dae73b
:100ab400b8f1040f727a28bf4ff0040812f00f093e
:100ac40041fa08f81ffa88f71cd03946059201f05c
:100ad4005df8059a70b909f1ff395ffa89f90121c6
:100ae400295522f00f0249ea020986f80990aaf86a
:100af400027064e7b9f1070ff1d009f101095ffa57
:100b040089f9eee74ff00109ebe7fee703230093d1
:100b140034e6032c01d0054605e7022a8bbf0546bf
:080b240005460646064628e7d7
:020000040000fa
:100b2c00cc0000201c000000000000003001002060
:100b3c003000000000000000600100200c000000ec
:100b4c00000000009c0000203000000000000000ad
:100b5c009001002008000000000000002d01002082
:100b6c0003000000000000008d01002001000000c7
:100b7c0000000000b901002001000000000000008e
:100b8c00bf01002001000000000000008e010020c9
:100b9c000200000000000000c00100200200000064
:100bac0000000000600000203c000000000000007d
:100bbc008401002009000000000000001c0100203e
:100bcc001100000000000000c20100200200000023
:100bdc0000000000ba01002002000000000000002c
:100bec00a80100200400000000000000a00100206b
:100bfc000600000000000000c401002003000000fb
:100c0c0000000000240200200b0000000100000086
:100c1c00023500021700000500000100bc01002095
:100c2c000300000000000000c701002002000000cb
:100c3c00000000006c010020180000000000000003
:100c4c0004010020180000000000000098010020a2
:100c5c000800000000000000c90100200100000095
:100c6c0000000000ac0100200400000000000000a7
:100c7c00ca01002001000000000000005402002006
:100c8c0003000000010000000001020044020020eb
:100c9c000600000001000000020080300007000088
:100cac00d00100201800000001000000000000002e
:100cbc00040000000a010004000000000000800095
:100ccc000a010004180200200c00000001000000c2
:100cdc0044020020d0010020780100204c020020aa
:100cec000600000001000000460100460100000063
:100cfc00300200200a000000010000000200040085
:100d0c000500140514010000e8010020200000007b
:100d1c000100000098010020300200200401002096
:100d2c004c02002002000300480200205402002064
:100d3c00011906003c020020080000000100000020
:100d4c0008020020f801002008020020100000001a
:100d5c0001000000000000006c0100207801002060
:100d6c00bc010020cb0100200100000000000000ad
:100d7c00b80100200100000000000000cc010020a0
:100d8c0001000000000000002f0200200100000004
:100d9c000100000001000000e80000201c00000021
:100dac000000000000000020100000000000000007
:100dbc00a60100200200000000000000b00100208d
:100dcc000400000000000000100000205000000093
:100ddc0000000000b401002004000000000000002e
:100dec0000000000000000006666666666666666c7
:020000040000fa
:100dfc002de9f7430025714c294601f09dfe704ffb
:100e0c00a946a846238865f34103238001f094fe8c
:100e1c000c2501f091fe3b685b6845432b445b68f5
:100e2c00a36201f089fe3e6873685a195b596362cc
:100e3c0006235843b3681c181e5ca488b60744bf2d
:100e4c0005261e541b5c5f4e13f01c0f11bf44f49f
:100e5c007c14907a5c4b03eb1013107a01bf1b7a55
:100e6c0063f313441b0963f3155401f065fe534bf4
:100e7c003a289bbf0430da7ada7a60f3050288bf2d
:100e8c0042f03f02da7201f057fe4c4bdc6101f08c
:100e9c0053fe3b6872685b682b44db7a12b1042bff
:100eac0028bf0423454c63f30308022363f3c409ee
:100ebc00042363f30a2901f03ffea4f8069001f025
:100ecc003bfe6ff3061884f80a804ff000083b686d
:100edc005b682b44587a000901f02efea36960f37d
:100eec001653a3613b685b681d446b7a63f30a215c
:100efc0041f040016ff3c71141f4004141f004018e
:100f0c0001f01afe072389b2218084f82e3001f0fb
:100f1c0013fe238843f00203238086f8088001f037
:100f2c000bfe7368002b38d001f006fee07a00f05f
:100f3c003f0001f001fea169c1f3032101f0fcfdaa
:100f4c00278801f0f9fd2388c7f3022768f34103d2
:100f5c00238001f0f1fda57801f0eefd45f01205be
:100f6c00edb2a57001f0e8fd184ba57a1a68edb248
:100f7c00137843f00803137001f0defda37a3a46b0
:100f8c0068f30303a372124b00957568a84701f030
:100f9c00d3fd238843f00203238001f0cdfd074ae3
:100fac00237d43f00203237592f82f30db0702d424
:100fbc00337a012bf8d103b0bde8f083001c004359
:100fcc0008000020e800002090270000000000200e
:040fdc000a1c0043a8
:020000040000fa
:100fe0002de9f04f89b0002800f0e38047680268df
:100ff0003c7b5378b9784fea430b002c34d0b7f8d8
:1010000000c000244fea4108de4625464ff006099d
:10101000a6b2b44549d87c7ba5426ed9d468e25cbf
:101020000132e254046842686578e468655d947b47
:10103000a54219d195681ffa81fe1ffa83fcea5c6c
:10104000002a4ad0013ad2b200240126a7b2be45f6
:1010500045d8002ef4d0ea54002217464468561ca6
:10106000a57894b2a54242d84fea510ed0f8049028
:1010700000260ef1010eb4468ab20692b9f800407d
:101080001ffa8cf2944242d80133d9f80420dbb223
:10109000994298bf0023d9f80810c95c1170026802
:1010a0000020537009b0bde8f08f966809fb046614
:1010b000b6f802a0566836f80e60b24509d9aaeb18
:1010c000060a1ffa8afa554538bf55460134c64408
:1010d0009ee7fbd2a6eb0a0af3e70f22b4e7bc4572
:1010e00003d02f5d974208bf00260134aee70468a5
:1010f00092b2e468a7543246b0e7b5eb540fb3d2ce
:10110000d468e25c002aafd0013ae254ace71ffa9f
:101110008cf2062504686a43a568af180297aa5c9a
:10112000c2f38202002a3ed16768029c07eb4607a1
:101130000392648827f80b40914230d9540000256f
:101140000794a8463c1905940124019410e09245a7
:101150000cd037f818400494059cb4f800a0049c07
:10116000544518d1019c0134e4b2019408f10108fe
:101170005ffa88fa5145ead8019ca64504d9ae45e4
:1011800006d92c44744503db079aba5a03920a46df
:101190000132d2b2d0e73cbf0135edb2e6e7029aa8
:1011a000bdf80c405480069a0cf1010c1644b6b2fe
:0611b00064e70b2076e766
:020000040000fa
:0211b600fee752
:020000040000fa
:1011b80010b5584b1b79022b1ed0032b56d05bb1b0
:1011c800544b00221a71544b1b7823b9534b1b887c
:1011d80013f4004f72d110bd01f056fb0528f2d967
:1011e80001f000fb5528eed14a4c0421204601f0bd
:1011f800a1fb02232371e6e7464b1b78022b1ad08a
:10120800012be0d101f040fb0128dcd901f0eafa1a
:10121800044601f0e7fa002cd5d1aa28d3d13f49da
:1012280008883c4a54780123a34003439bb20b80af
:1012380003231371c7e7374b59883b2903d95878db
:1012480000f0baf9bfe701f01ffb324b5b8880b2b0
:101258008342b8d2314908882e4a54780123a340e2
:1012680003439bb20b8003231371ace72a4b1b7813
:10127800002ba8d1294b1b88c3f30b03002ba2d04a
:10128800244b1b78012b11d0022b9cd1214c618857
:10129800607800f091f90023237120490b88607869
:1012a8000122824023ea02030b808ce7194c0021bb
:1012b800607801f013f80023237184e7184c237831
:1012c800184ad15c184a11701178184a32f813205c
:1012d800032001f0bbf92278154b53f82230002087
:1012e80098472378134ad15c134a1180134a32f87d
:1012f8001320134951f82310012001f0cff8237867
:101308000133dbb2022b11bf2370054b00221a7088
:1013180061e700bfa0010020c40100202e010020c9
:10132800bf010020d82b0000b9010020dc2b0000f1
:10133800bc2b0000e02b00008e010020d42b000005
:04134800b42b0000c2
:020000040000fa
:10134c00464b1b78dbb2012b03d0454b00221a70a5
:10135c00704710b5434b1b78434a12889a4227d8e2
:10136c00424b1b78dbb2022b2fd0404b1b78dbb2ed
:10137c00012b29d13e4b1a783e4b1b889a4257d2ef
:10138c003d4b187801f00bfc394c22783b4b53f851
:10139c00203010469847334b01221a70237813449f
:1013ac00dbb22370364b1b68187801f053fb0be053
:1013bc002c4c2378dbb2324a1268d05c01f04afb29
:1013cc0023780133dbb2237010bd294b1a78294bdb
:1013dc001b889a4207d3264a1278934216d0204b88
:1013ec0000221a70f0e7224c2178264b587800f036
:1013fc0073ff1c4b01221a7023781344dbb2237049
:10140c001f4b1b68187801f025fbdde7184a137891
:10141c000133dbb213701c490b881a4a5078012235
:10142c00824023ea02030b80aa2001f013fbcbe7d6
:10143c000f4a1278934203d0094b00221a70c3e76b
:10144c000b4a13780133dbb213700f4a1388c3f3c2
:10145c000e031380aa2001f0fdfab5e72e0200203e
:10146c00c4010020c6010020ba0100208d0100201b
:10147c00c50100208e010020b9010020bc2b00000a
:0c148c00a8010020a00100202e0100207b
:020000040000fa
:101498002de9f04101224249424c43482272066834
:1014a800b1f8403020889bb226f81030072081f828
:1014b8002e0008886ff3410008803c48278801689f
:1014c8004d680c2101fb0751c97a04291dd96568ab
:1014d800ddb1257d04391544c9b2edb22575a5697c
:1014e8001d44a56194f814e002fa01f5ae450ed149
:1014f800a56925fa01f126f817102d49097801295f
:1015080007d0022924d0bde8f08126f81730002240
:10151800f3e70168238848680c2101fb0301c97ab5
:10152800042905d9616819b122b10022a261227586
:101538000133238001f050f830b92088fff75afcb6
:1015480004236372bde8f081e368bde8f041184701
:1015580006680c252188726805fb0125aa7a02f025
:101568000f00ea7a0625042a28bf0422904238bfd1
:10157800121ab0682cbf0022d2b205fb01010d4d32
:1015880013412d6898b24a88ad79561bb04202dde6
:101598002a44904202db4b80236998470223d0e714
:1015a800001c0043e80000200c0000200800002078
:0815b8002f02002004000020b6
:020000040000fa
:1015c0002de9f843044601f063f985b2012c38d0c7
:1015d00063b26bb1022c4cd0204601f09ff9364b20
:1015e0005988364b53f8200001f0a8f901f0fef8b5
:1015f000bde8f883387801f0b3f83b780133dbb20b
:101600003b70083dadb2022b0bd0082df0d908f18c
:10161000ff3400bf01f0eaf804f8010fa642f9d147
:10162000e8e70023264a1370234a137125490b88e3
:1016300050780122824023ea02030b8001f0d6f8a1
:10164000d6e7082dd4d9dff8808008f107061c4fb3
:10165000dde700231a4a1370174a137119490b88e2
:1016600050780122824023ea02030b8001f0bef889
:10167000bee7032dbcd9dff84890dff8508000bfeb
:1016800099f8004004eb440707eb080601f0aef8b8
:1016900008f8070001f0aaf8707001f0a7f8b07020
:1016a0000134e4b289f80040033dadb2022cd0d041
:1016b000032de5d89ce700bfa0010020742a00009c
:1016c0002d0100202e010020900100204c0200205e
:020000040000fa
:1016d000344b00221a74a3f58063c2221a77a3f553
:1016e000006301225a711a46d37813f0010ffbd020
:1016f0002d4b2e4a1a621a46536813f0040ffbd181
:10170000294b2b4a5a621a46536813f0080ffbd133
:10171000254b284a9a621a46536813f0100ffbd1e2
:10172000214b4122c3f8ac201a4600bfd2f8ac309e
:1017300013f0400ffad01c4b4122c3f8b0201a46d8
:10174000d2f8b03013f0400ffad0174b4122c3f853
:10175000f8201a46d2f8f83013f0400ffad0124ba6
:101760004122c3f808211a46d2f8083113f0400f7d
:10177000fad00d4b4122c3f820211a46d2f820316d
:1017800013f0400ffad00c4b6ff07f421a6140f219
:10179000ff725a61094a9a6142f22002da6181229b
:1017a0001a62704700140040001c0040060101004e
:1017b000060106000601300000080040d680010046
:020000040000fa
:1017c000f8b5002866d003680c261d88002319464a
:1017d0009ab295424ed800295ed0304c01f0b2f951
:1017e0002f48637a002b4fd101f0acf9038843f006
:1017f0000103038001f0a6f9012301626372294ffe
:101800000022294c1546012621fa02f3db072cd5cc
:10181000d05d00f03f0c10f0010f4fea90134fea3b
:101820005c0e4feac31304eb03002344704463448b
:1018300090f830e014bf66f3071e66f3030e80f8dd
:1018400030e083f8405093f8400040f0010083f806
:10185000400093f8400065f3820083f8400093f85d
:10186000400065f3410083f840000132202acbd1cb
:101870000020f8bd06fb03f244680133a718a25804
:101880007c6822431143a3e701f05cf9036a0b4330
:101890000362b4e70b20f8bd0220f8bde800002089
:0c18a000001c00439e2700000080004157
:020000040000fa
:1018ac0070b40401354d25442d7b04f1824404f5bc
:1018bc00204494f84e4014f0030f02d1edb2002de9
:1018cc0055d1040104f1824505f52045032685f820
:1018dc004e602a4d254401262e73294d2c5b14f4a1
:1018ec00806f19bfc91805eb0014254c04eb0014cc
:1018fc0061600101224c615a11f4006f27d01a4427
:10190c0004eb00118a601e4902018c18895a9bb2a3
:10191c00c1f301210b419bb2638002f1824303f5b9
:10192c0020431a6c42f002021a641a6c12f4fe4f35
:10193c001fd193f8463013f0400f1dd111490c699b
:10194c00012202fa00f323430b61104612e00d4909
:10195c00498811f4404f04d1094901eb00118a6008
:10196c00d1e71168064a02eb00129160cbe7002028
:10197c0000e0012070bc70470120fbe74001002013
:08198c003001002000a0004121
:020000040000fa
:1019940038b50346002947d0002845d0264d6a7a39
:1019a400002a43d0042a43d000684279013a062a27
:1019b40040d8224ce960236000f048f823684ff4d3
:1019c40000011f4a1b68c2f88c115b795b01dbb212
:1019d40082f87733d16001f0b3f81a4991f82c30ca
:1019e40043f0040381f82c3001f0aaf8072381f8ae
:1019f4002e3001f0a5f8012291f82d3043f00103b7
:101a040081f82d30104b1a7000232b8000f0e6fd76
:101a1400044630b9288804236b72fff7edf9204699
:101a240038bd0220687238bd0b2038bd032038bd94
:101a3400012038bd022038bde80000200800002045
:0c1a440000e100e0001c00432f02002025
:020000040000fa
:101a500038b50424244b00210a4661f305111d69a1
:101a600064f30e351d611d6964f30a251d615d690e
:101a700064f30e355d615d6964f30a255d61837809
:101a8000402b17d1082363f30301182363f30c22bf
:101a900042f01f0001f056f8144b82b214488280c5
:101aa0001b681b681b790f2b0cd96ff30b2141f4ba
:101ab00080510be0802b15d10a2363f3030141f021
:101ac0004001e2e763f30b216ff30c3101f03af8c8
:101ad0000322037a62f30303037201f033f8816196
:101ae000002038bd022038bd002000420800002040
:041af000001c004393
:020000040000fa
:101af40008b51e4b1b78dbb2012b07d01c4b1b789f
:101b0400dbb2012b0cd0fff755fb08bd19491a486d
:101b1400fff73eff0028f1d1144b00221a70ede7c5
:101b2400134b00221a70fef70bfe78b91348fff727
:101b340055fa38b91248fef7a3fb50b1114b0322f2
:101b44001a7006e00f4b02221a70f3e70d4b0122c4
:101b54001a7000f0edff0a4b1b6893f90030002b5c
:101b6400b4bf024b084b01221a70cce7c901002014
:101b7400ca010020952b0000180200203c0200201e
:0c1b8400e8010020c8010020c70100207b
:020000040000fa
:101b9000224b30b51a680623946803fb0040438843
:101ba0008b4239d0156834bfc91a591aab7889b23b
:101bb000402b08bf490884292cd805292cd98288b4
:101bc000c2f3013302f00f0403eb4300c3ebc00385
:101bd000c2f30320c2f3031200eb400003ebc30384
:101be000c0ebc000184400eb420080b2052c0cd8ba
:101bf000eb780b4ac3f3011332f81330594389b21f
:101c000088422cbf0020012030bd0130053c80b24d
:101c1000e4b2ebe7012030bd002030bd0800002019
:041c20009027000009
:020000040000fa
:101c240010b4214ad36823f4e0631b041b0c43f073
:101c3400bf6343f40033d360bff35f8f62b61b4bc3
:101c4400e02183f80b134ff40060186083f81f132e
:101c54004ff00040186083f83e134ff080445c60fe
:101c640083f83f13586083f840130120986083f889
:101c740041130220986083f877134ff40001d96070
:101c8400536a43f480235362536943f0100353614e
:101c9400536a43f400335362536a43f48033536208
:101ca4005df8044b704700bf00ed00e000e100e088
:020000040000fa
:101cb40008b5194b9847194b9847eff3108172b642
:101cc400174ad2f8883043f47003c2f88830bff35f
:101cd4004f8fbff36f8f01b962b6124a936823f036
:101ce400010393601346da6812f0010ffbd10d4b28
:101cf40024225a6001229a6000f0e2fc0a4b23f08d
:101d04007f03074a9360094b9847094b9847094b4f
:101d1400984700f0dffdfee7f12b0000f12b0000f7
:101d240000ed00e0006000410000000035210000eb
:081d3400f12b0000f12b00006f
:020000040000fa
:101d3c0010b582b000230193030103f1824303f534
:101d4c00204393f84e30dbb20193019b13f0020f4a
:101d5c000dd0010101f1824202f52042022382f8ea
:101d6c004e30134b0b4400221a73012400e0022462
:101d7c00019b13f0010f0cd0010101f1824202f51d
:101d8c002042012382f84e30094b0b4400221a7377
:101d9c000224074b03eb00135b6833b1044a02ebdc
:101dac00001399685b682046984702b010bd00bfcd
:041dbc0040010020c2
:020000040000fa
:101dc0001c4b1b7d002b34d010b51a4a9368516808
:101dd0004ff08642127e12f0010f16d0994214d9ac
:101de0004ff0864113484a6802f00702012a026850
:101df00014bfd25c32f813208a62013344680a7e31
:101e000012f0010f01d09c42edd80a4a936052684b
:101e10009a420dd8074b00221a755a604ff086423d
:101e200001211175db681bb1024b1869db6898470b
:081e300010bd70479c0000206a
:020000040000fa
:101e380070b505460e4614461a4618499df81030e6
:101e48000b7003230020fff72dfd681cb2b202ebd4
:101e580080035b00013b9bb2400002445200032c0c
:101e680003d80f49095d401a80b2ff2b06d9013407
:101e7800e4b25b0852084008ff2bf8d8dbb20949e6
:101e8800cb76c0b20875d2b20a77240204f4e064b3
:101e980044f004040c6000f0b3fd70bdcb010020d9
:081ea800e42b000000140042cd
:020000040000fa
:101eb000c268f0b501eb4106931985689f780c2341
:101ec00003fb01535c681b896488e41a935de41a80
:101ed000436828460025a4b21e88abb29e4201d8b2
:101ee0000020f0bd994219d09378bb4216d10378f7
:101ef0007b33dbb2012b15d94368b0f808e05b886f
:101f00009e450bd2a3eb0e0392f800e09bb2734503
:101f100004d9a3eb0e039bb29c4203d301350332d9
:081f20000c30dae70120f0bdee
:020000040000fa
:101f2800002831d010b40446194b1b7d73bb184be5
:101f38001860596001221a7558684ff086431b7e55
:101f480013f0010f14d0b0b100234ff086414a6856
:101f580002f00702012a14bfe25c34f813208a62f7
:101f680001330a7e12f0010f04d09842efd102e04b
:101f7800002000e01846064b986001204ff0864389
:101f880098755df8044b7047002070470020f8e70b
:041f98009c00002089
:020000040000fa
:101f9c0038b5144b02221a80134a144944002318f2
:101fac0001eb83031d7a15715d7a55719b7a9371e0
:101fbc00044401eb8401cb7ad37130b10c4b0a4a47
:101fcc001a600c4b08221a8038bd10220a4b597823
:101fdc00042000f039fb08220349022000f05cfacf
:101fec00f2e700bf8e01002090010020d0010020fc
:0c1ffc00a8010020ba010020a001002074
:020000040000fa
:1020080008b5184b93f82c30d3b1164bda691b6a14
:10201800934215d2134b986a4ff08642916a1b6a15
:10202800526802f00702012a0e4a926914bfd1547d
:1020380022f8131001330b4a1362d2699a4200d076
:1020480008bd084b002283f82c20da614ff0864245
:10205800842111755b6a002bf2d0024b5b6a9847aa
:08206800eee700bf9c00002020
:020000040000fa
:1020700038b500f01ffc144c2046fff7a1fb1348b5
:1020800000f02afd0021204600f068fc00212046d7
:1020900000f078f90121204600f060fc0121204683
:1020a00000f070f90a4d0b4c2a460021204600f042
:1020b00091fcaa1d0121204600f08cfc00f08af959
:1020c00000f0c0fb38bd00bf18020020ac010020aa
:0820d00078010020e801002066
:020000040000fa
:1020d80008b54ff086439b7d0bb34ff08642137ec5
:1020e800dbb2927d12f0800f1ad14ff08642137e38
:1020f800dbb2927d12f0010f04d013f0010f01d072
:10210800fff75afe4ff08642137edbb2927d12f043
:10211800040f04d013f0040f01d0fff771ff08bdbe
:0c21280013f0800fe1d000f075fadee744
:020000040000fa
:102134000e4a38b5002313600d4a0e4c13600e4a44
:102144000e4d13600e4a13600e4a13600e4a53621a
:1021540013610123936000f04bfd00f049fdac4294
:1021640000d338bd54f8043b9847f8e7b401002085
:102174001c000020700200001800002074020000ff
:0c218400100000201400002020000020ab
:020000040000fa
:10219000144b01221a801a46136b13f0010ffbd166
:1021a0004ff080131b681a0902f07002d90001f485
:1021b000e0610a43c3f382031a430a4ba3f84820a1
:1021c0004ff400721a800322da7280221a729a8007
:1021d0000222da80072283f82e201a46136b002b86
:0821e000fcd17047001c004314
:020000040000fa
:1021e80010b4114a002111705160916011730f4ca5
:1021f8000f4b5c630f489863586940f08130586111
:10220800402018640b20208083f8451001211170ac
:10221800032283f84d20c12283f8462040f602723b
:102228001a805df8044b70474001002030010020ff
:0822380000a00041500100204c
:020000040000fa
:102240004ff08643114a1a604cf204529a814ff4bf
:1022500040325a601a46d369002bfcd14ff08642b7
:10226000136843f002031360d369002bfcd1084bc1
:1022700000229a61da611a6283f82c205a621a608d
:102280005a609a601a75da60da8570470401104066
:042290009c0000208e
:020000040000fa
:10229400124b4ff48052c3f88020012283f8c520ea
:1022a40083f8c920032183f8cc1083f8cd201022b1
:1022b40083f8b22083f8b420222283f8b6204ff4a6
:1022c4002062c3f88021022283f8c92183f8cb213c
:1022d400002283f8b42183f8b521704700800041bf
:020000040000fa
:1022e40070b5012817d00e4b01221a800d4b5e7871
:1022f40000f012fb04460c4b33f810502a463146ca
:10230400042000f0a5f92a46084b53f824100220b3
:1023140000f0c6f870bd0846fff73efefae700bfbe
:102324008e010020a0010020882b0000742a0000e8
:020000040000fa
:1023340008b5002000f0b0fb20f07f020e4b1a70ad
:1023440010f0800f0d4b4ff4006214bfc3f89421ba
:10235400c3f89821012000f09ffb20f07f02064b78
:102364001a7010f0800f054b4ff4007214bfc3f8bd
:102374009421c3f8982108bdcc01002000800041bd
:020000040000fa
:1023840008b303681a888a421fd39b788268402b5b
:102394000dd106234ff40d7003fb01239880002018
:1023a40006235943535c43f002035354704783f0ac
:1023b4008003012b05d8062341f2342003fb0123bb
:0e23c400ece70220ece70b2070470220704788
:020000040000fa
:0223d200fee724
:020000040000fa
:1023d40008b50e4800f06afb00b1fee70c4800f0b7
:1023e4006ffb00b1fee70b4b012283f8c82093f882
:1023f400b42002f0f00283f8b42093f8b42042f041
:10240400040283f8b42000f009fb08bdb8010020e1
:08241400391e000000800041a8
:020000040000fa
:10241c000f4b01221a801a46136913f0010ffbd1de
:10242c000b4b4ff4c0721a8001221a621a461369c0
:10243c0013f0200ffbd1064b00225a621a46136987
:10244c0013f0400ffbd1024b4ff480725a8170474e
:04245c000024004018
:020000040000fa
:10246000f0b40d494200131801eb43035d880b4b98
:102470001d800b4e1418a40037193f895f80ed1b97
:102480009d80345de4099c71024401eb4202928814
:10249000a3f80720f0bc70477801002084010020d9
:0424a0000401002013
:020000040000fa
:1024a40008b50a4b1b7803b108bd094b187001230a
:1024b400064803700748037007480370074b196008
:1024c400074b1a80087800f0c9faede7c401002030
:1024d4008d010020c5010020c6010020a8010020b4
:0424e400ba01002019
:020000040000fa
:1024e80010b5054c227832b9044b13b10448aff348
:1024f80000800123237010bdcc00002000000000e4
:102508000000000008b5034b1bb103490348aff3b3
:10251800008008bd00000000d0000020000000007e
:020000040000fa
:1025280008b50c4a1378dbb20b4908780b49c85434
:1025380013780133dbb213701378dbb23c2b04d071
:102548000121054800f00cf808bd134600221a7056
:10255800f6e700bfc1010020c20100206000002092
:020000040000fa
:10256800c0b138b505460c4a92f82c200ab10020b3
:1025780038bd0c4600f0d8f8074b9d61dc6100229d
:102588001a62012083f82c00da854ff086438422f2
:0c2598009a75ede7002070479c000020c1
:020000040000fa
:1025a4000d4b01221a601a46136913f0010ffbd177
:1025b400094b54221a6002221a73ff22da76182277
:1025c4001a775a7733229a722322da801a461369c9
:0c25d400002bfcd1704700bf0014004237
:020000040000fa
:1025e0000c490d4a30b50868138801680c8806212b
:1025f0005943a3420ad285686d5c0631ed0702d4c7
:1026000001339bb2f5e71380002030bd0023012089
:0c261000138030bd08000020e80000200e
:020000040000fa
:10261c004ff086435b8b13f0070300d1704710b566
:10262c00084ce38500f07ef84ff0864384221a753f
:10263c00002384f82c30636a13b1a06a636a98474c
:08264c0010bd00bf9c0000203e
:020000040000fa
:10265400f8b507460e4615460a4c0023237055204c
:1026640000f0a8f9384600f0a5f9304600f0a2f9c8
:10267400e8b200f09ff9280a00f09cf901232370c6
:08268400f8bd00bf2e0200208a
:020000040000fa
:10268c0008b50b4a92f82e3043f0010382f82e3035
:10269c00084b1b7813f0080f04d023f00803054aed
:1026ac00137008bd00f08cfafef7f0fef9e700bfde
:0826bc00001c0043b8010020de
:020000040000fa
:1026c40070b50b480b4d4ff6ff76016821b943688e
:1026d40013b900f08cfa70bd83684268334000f18e
:1026e4000c0455f823302046984704eb8000ece7af
:0826f4002c0b0000ec2a000091
:020000040000fa
:1026fc0008b500f009fafff7c7fdfef7e3ff00f09d
:10270c00aff8fff73ffdfff769fd00f005fafff7a3
:10271c0091fdfff77dfefff73ffffff7a3fcfff7ef
:04272c007bfa08bd6f
:020000040000fa
:102730004ff086435b8b13f0070f10d04ff08643aa
:1027400080221a7607225a831b7e13f0040f06d0cc
:102750004ff086439a6a1a7e12f0040ffad170473e
:020000040000fa
:1027600038b5094a4400231802eb830307494d7921
:102770005d728d799d720d791d721a46cb79d37277
:1027800000f04af838bd00bfd001002090010020c1
:020000040000fa
:1027900007001300350090003f1c0b0503010348a0
:1027a0004904060708090a0b10111213141516170d
:0e27b0001b1e4243444546474c4d4e4f404190
:020000040000fa
:0227be00fee734
:020000040000fa
:1027c00008b5084b9a8992b207494a604cf2ff3229
:1027d0009a819b890b6823b10b46486889681b68fe
:0c27e000984708bd002400406001002064
:020000040000fa
:1027ec00084a1378dbb20849c85c13780133dbb2b2
:1027fc0013701378dbb23c2b00d0704713460022c9
:0c280c001a70fae7c001002060000020f4
:020000040000fa
:1028180010b5044601460648fff7b0fd04eb440234
:10282800044b03eb4202e1b2034800f0cff810bdbd
:0c2838001802002078010020e8010020b8
:020000040000fa
:1028440008b50021054800f091f90021044800f082
:1028540093f901210348fff785fe08bd4d130000dd
:0828640029250000c20100203b
:020000040000fa
:10286c00074b0122c3f834210222c3f8e021c3f83c
:10287c00fc2140f267221a6240f222229a627047cf
:04288c0000e0004127
:020000040000fa
:10289000064b1b78064a10781b1a9bb218b2002808
:1028a000bcbf3c3318b2c0b2704700bfc1010020aa
:0428b000c001002043
:020000040000fa
:1028b40008b50021064800f053f900f06df8002037
:1028c40000f0b8f8142000f0bff800f08ff808bd4d
:0428d400c52b000010
:020000040000fa
:1028d80008b50020fff70eff054c01e0fff726fdc5
:1028e800fff704f92378dbb2012bf9d1f6e700bf33
:0428f800c7010020f4
:020000040000fa
:1028fc00054b064a91781970926811785970517885
:10290c0099709278da7070471c010020f801002051
:020000040000fa
:10291c00034648b1012809d0022807d0032805d066
:10292c00052818bf002000d07047042318467047b4
:020000040000fa
:10293c0038b559b104464d1eadb20135054400bf42
:10294c00fff74eff04f8010bac42f9d138bd00bfc4
:020000040000fa
:10295c0050b103681b888b4208d306238268594305
:10296c0000200123535470470b20704702207047fe
:020000040000fa
:10297c0010b50023934206d113f0030018bf0120b9
:0e298c0000eb930010bdc45ccc540133f2e7a5
:020000040000fa
:02299a00fee756
:020000040000fa
:10299c00054a138823f002031b041b0c13801369d4
:0c29ac0013f0020ffbd170470024004024
:020000040000fa
:1029b80008b5054b01221a7000f04ef8024a137848
:0c29c800dbb2012bfbd008bdc4010020d5
:020000040000fa
:1029d40010b548b142b10c230124594383685818f7
:0c29e4005c544260002010bd0b2010bdb0
:020000040000fa
:1029f000044a138843f002031380136913f0020f93
:082a0000fbd1704700240040e7
:020000040000fa
:102a0800044a136843f002031360136913f0020fba
:082a1800fbd1704700140042dd
:020000040000fa
:102a2000044a136823f002031360136913f0020fc2
:082a3000fbd1704700140042c5
:020000040000fa
:102a3800034b98611a46136913f0080ffbd17047ce
:042a48000024004026
:020000040000fa
:102a4c00034b18621a46136913f0200ffbd1704721
:042a5c000024004012
:020000040000fa
:102a600008b5034b187001211846fff75dfa08bd41
:042a7000c30100207e
:020000040000fa
:102a740024020020d00100204c0200203202002059
:042a84000402002028
:020000040000fa
:102a880008b5034b01221a70142000f05ff808bd46
:042a9800c901002050
:020000040000fa
:102a9c00034b9b6800eb400013f82000704700bf0d
:042aac00e80100201d
:020000040000fa
:102ab00018b1034b1860002070470b20704700bf0f
:042ac00000000020f2
:020000040000fa
:102ac40018b1034b5860002070470b20704700bfbb
:042ad400e8000020f6
:020000040000fa
:102ad80018b1034b1860002070470b20704700bfe7
:042ae8000c000020be
:020000040000fa
:102aec00012b00007d290000e92b0000e92b0000e0
:042afc00e92b0000c2
:020000040000fa
:102b00000a440023914201d10020704701f8013ba3
:022b1000f8e7e4
:020000040000fa
:022b1200fee7dc
:020000040000fa
:102b1400024b4ff482721a80704700bf004000419c
:020000040000fa
:102b2400024b00221a725a729a72704700040040d3
:020000040000fa
:102b3400024a138843f40043138070472e01002097
:020000040000fa
:102b4400024b1a6b002afcd1704700bf001c0043e3
:020000040000fa
:102b5400024a138818441080704700bfa601002061
:020000040000fa
:0c2b6400014b1860996070476001002070
:020000040000fa
:0c2b7000014bd860196170479c000020e8
:020000040000fa
:0c2b7c00014b5862996270479c000020d9
:020000040000fa
:0c2b88000a00100006000800030000bf57
:020000040000fa
:0c2b9400014b01221a707047ca0100209a
:020000040000fa
:0a2ba00008b50020fff7caf808bdd1
:020000040000fa
:0a2baa00822814bf002001207047ac
:020000040000fa
:082bb400840100201c01002037
:020000040000fa
:082bbc0061240000fd28000067
:020000040000fa
:082bc40008b5fff75fff08bd33
:020000040000fa
:082bcc0008b5fff727ff08bd63
:020000040000fa
:042bd40009001100e3
:020000040000fa
:042bd800808200bf38
:020000040000fa
:042bdc0012001100d2
:020000040000fa
:042be000020100bf2f
:020000040000fa
:042be40001010101e9
:020000040000fa
:042be8000020704712
:020000040000fa
:022bec00fee702
:020000040000fa
:022bee00fee700
:020000040000fa
:022bf00070472c
:020000040000fa
:022bf20070472a
:020000040000fa
:022bf400704728
:020000040000fa
:0200000400807a
:044000003912003c35
:020000040000fa
:0200000400807a
:044004008000a82a66
:020000040000fa
:0200000400807a
:04400800ffffffffb8
:00000001FF
