:020000040000fa
:10000000f03f00204b2d0000bb2900003b2c0000de
:1000100000000000000000000000000000000000e0
:10002000000000000000000000000000ef2d0000b4
:100030000000000000000000ef2d0000ef2d000088
:10004000ef2d0000ef2d000071310000ef2d0000ba
:10005000ef2d0000ef2d0000ef2d0000ef2d000030
:10006000ef2d0000ef2d0000ef2d0000ef2d000020
:10007000ef2d0000ef2d0000ef2d0000ef2d000010
:10008000ef2d0000ef2d0000ef2d0000ef2d000000
:10009000ef2d0000ef2d0000192b0000192b0000a0
:1000a000192b0000192b0000a5130000a513000058
:1000b000a5130000a5130000ef2d0000ef2d000098
:1000c000ef2d0000ef2d0000ef2d0000ef2d0000c0
:1000d000ef2d0000ef2d0000ef2d0000ef2d0000b0
:1000e000ef2d0000ef2d000039370000ef2d00004c
:0400f000ef2d0000f0
:020000040000fa
:1000f400f8b5c046f8bc08bc9e46704761300000a5
:10010400f8b5c046f8bc08bc9e4670473d300000b8
:020000040000fa
:10011400f0b587b00090009b0b20002b00d1e2e1ea
:10012400002603275b68049602931b8801960593b7
:100134000396049b059a93421ed1009b1a68137878
:1001440059b200290bda0820002101268446049cb8
:1001540088b2844200d9ffe07f210b401370039bd7
:10016400002b00d009e1019801231178002800d167
:100174005be10b4313705ae1009bb5009b685d196a
:100184001e236a681178194001d001232b702b7843
:10019400042b73d00ad8022b2ed043d8012b23d0a2
:1001a400049b033601339bb20493c2e7852b00d131
:1001b40082e0862b00d1a9e0072bf1d1298953884d
:1001c40099425fd9c91a009b0298db6840799b5d0c
:1001d40089b20341dbb28b4254d86b78002b69d1ce
:1001e40001232b701770dbe703930029d8d1022376
:1001f4002b7008236b70d3e76978002910d05288dc
:10020400042904d92a810139697001237ce02b89ee
:100214009342f8d002d9013b2b81f4e70133fbe789
:100224002f70bde7298953889942b9d0009ad268c2
:1002340010d9cb1a0299925d49799bb20a41d2b284
:100244009a42add8029b1b79002ba9d007222a70b1
:100254006b70dae792195b1a11789bb299429fd8b6
:100264009378002b05d00499009802f02bfb00280a
:1002740096d104232b70029b9b78e9e72989538844
:10028400994202d92f700023b4e7009a5b1ad2680e
:100294009bb2921911789942f4d29378002b06d02c
:1002a4000499009802f00efb002800d078e76b78e0
:1002b400002b47d0013bcbe7029b00991b7a0968ce
:1002c4000b7128895388984207d986232b70029b87
:1002d4009b786b700123019316e0009a1b1ad26875
:1002e4009bb291190a784978140001310c4101211b
:1002f400121bd2b201919a4200d251e786232b708d
:10030400029b9b786b700b00039349e72889538801
:10031400984209d96b78002b01d12f7001e0013b81
:100324006b70012301933be7009a1b1ad2689bb2be
:1003340091190a784978140001310c41121bd2b288
:100344009a4204d285232b70029bdb78e8e76b7812
:10035400002be2d0013bbce70c2500984d4380689c
:1003640045196f683878304205d164462d78a54325
:1003740001d0304338700131e9e6029b597a0029f3
:1003840000d1f0e6802310785b4203431370012907
:1003940000d0e8e600218bb20393049b88b2834229
:1003a40000d8e0e60c20009b48439b6808251818f9
:1003b400029303781c00ac4315d0852b01d0032b8a
:1003c4002ed10325009bdf682b004b43fb189b7841
:1003d4009c46002b07d000231e000595049c9c42dc
:1003e40008d8002e1cd1012540680378ab43037064
:1003f4000131d0e7039c9c420fd00c255d43029c45
:100404002d5d042d01d0862d07d1059d5d437d19f9
:10041400ad78654501d10126049b01339bb2dde72c
:100424000123406805782b43e1e799431170528812
:10043400584b11001b88c8318b4251d99b1a9bb26f
:100444009c466346c82b4dd96346c83b9bb29c4629
:10045400009b1b685a88c8325a801a79002a00d037
:1004640070e05a79002a01d0013a5a719a79002a27
:1004740001d0013a9a71009a50688679002e07d00b
:100484005a79002a04d1078891b28f4234d85e7118
:10049400c579002d07d09a79002a04d1068891b233
:1004a400b1423cd39d71009b5b68da78002ac8d0c6
:1004b4001f880c23002103207b4302938bb2bb4291
:1004c400bfd20c22009b4a439b689a181578852d4d
:1004d40004d15578002d38d0013d55700131ede738
:1004e400934202d3002007b0f0bd2b495918891a52
:1004f400c829f7d9013ba1e70c21009c5143a4680a
:1005040061180d78032d01d0082d06d14c680d8992
:100514006488ac4201d901350d810132b4e70c2164
:1005240000985143806841180878032801d00828ae
:1005340006d14c6808896788874201d2013808814e
:100544000132ace7013a1a71ade7012405001470d9
:1005540052684d431070009ad2685519ad78002d39
:10056400bcd0029c02321c1901920394039a934258
:10057400b4d0019a1678ae4206d101225e6834786e
:10058400144201d01a703070019a0c330332019274
:0c059400ece7c04612020020ffff000050
:020000040000fa
:1005a0000b23f0b587688fb007900493002f1bd002
:1005b000c268002a18d0436819680191019900297e
:1005c00012d002921a790a235343fb180d93002389
:1005d000049308930d9bbb4209d16a462021079bd7
:1005e00052181b6812781a7004980fb0f0bd029b65
:1005f0000c205b889c46029b62461b7903936344f4
:1006000005936b469b890993634499b20023059c2b
:10061000a2422edb002562462e000599914233dc72
:100620006a4213400122397811400b916cd039890c
:100630004a005218921992b292083a81002d65d15f
:10064000029a1578012d00d9a0e152790a92cf2a99
:1006500000d99be1002b5bd13b817e223b70934311
:10066000089a0a371343dbb20893029b0a330293ba
:10067000b0e704005443019d645d852c01d10a005c
:100680000123013292b2c2e70c20504301990918ac
:100690004c6809896488641aa4b221b20a910021c5
:1006a00006910a99002900dd0694624524d1029939
:1006b0000024087801280fd103998c180c214c4391
:1006c00001990c3c0c19616824894888001b00249e
:1006d00000b2a04200dd84b206990298091900898f
:1006e00089b2884205d8301c8e4200d2081c0125f0
:1006f00086b2013292b290e701990c38081841682d
:1007000000894c88201ae2e73e8199e72b0097e7a1
:1007100000220a9b16001b090c930c2063460599c6
:10072000994200dde1e0b44500d0f0e0012d00d0b9
:10073000f7e00b00434301990c3bcb1859681b8928
:100740004988c91a634601335843019b09b21818f6
:10075000436800895b881b1a1bb2181c002b00da47
:100760000020012300b20693884206db0b1c0029ff
:1007700000da002319b200230693059b0c20013bed
:100780009e4200d0d1e00023012d0dd16346584395
:10079000019b181843685c880389e41a24b2231c5f
:1007a000002c00da00231bb203980f2800d9c4e004
:1007b00000200c2405900698012800d0c1e0039e7b
:1007c000a64089b29bb2b6b292b2994200d2bbe0c7
:1007d000d21a90b2c31ac91889b2220002f02efab6
:1007e0000123a340c01a80b2039b301880b2022bb1
:1007f00006d9012d00d0b0e0059a099902f01efa41
:100800008022031c5201904201d9684b1b8898b288
:10081000002d13d10f230a9a1a400fd028215143db
:100820002b00814201d8401a83b280224900520134
:10083000511a89b20c22180002f000fa0c230c9a0b
:100840009b1a18410123934099b2013b984200d969
:1008500088e00b9b80b20400002b22d0bc88031bd5
:100860009bb21ab2012d09d14d08002a00db7be0b2
:100870006d42954200dc94e0cb181ab2022693b286
:100880005d1cb543adb2002d0bd05b08002a04da25
:1008900053429bb25b085b421bb2e418a4b201391d
:1008a0000c40029bfe880299b8809d79587909789e
:1008b000a31b9bb21ab201290ad10009814089b257
:1008c0004808002a55da4042904203ddc9180ab2ae
:1008d000002a5fda5242bb7812b29a424edc002301
:1008e0007f2252421343dbb2b7e604005c43019916
:1008f0000c19616824894988091b09b2002903dda4
:10090000914201dd0a001e0001339bb207e77043ec
:10091000019b0c381818436859880389c91a09b211
:1009200024e700230693190027e7731c434301982b
:10093000c31858681b8944882fe7042008240590b1
:1009400039e76046361a3be75b1a98b2511a4118ec
:1009500089b2220002f072f946e70999059a013935
:1009600089b24be7481e74e7aa4287dd5a1a12b2d1
:1009700084e782420edd5a1a12b2a9e700237d7085
:10098000bb70b442abd0fc800223a9e702230493de
:10099000002362e67b789a42a1dd0023bd707b7064
:1009a000efe7531c00d073e77be7c046b22f00008f
:020000040000fa
:1009b000b00100201c00000000000000f001002039
:1009c0000c000000000000002002002008000000d1
:1009d00000000000dd010020010000000000000018
:1009e0003e02002002000000000000001d02002066
:1009f000030000000000000056020020020000007a
:100a0000000000004502002002000000000000007d
:100a1000b80000203c00000000000000140200208c
:100a20000900000000000000cc01002011000000bf
:100a3000000000004002002005000000000000004f
:100a400047020020010000000000000028020020f2
:100a50000800000000000000590200200100000012
:100a600000000000de010020020000000000000085
:100a700048020020040000000000000038020020ae
:100a800006000000000000005a02002002000000e2
:100a9000000000005f0200200100000000000000d4
:100aa000340300200b0000000100000002360108a2
:100ab0001f000007000001005c020020030000008e
:100ac00000000000600200200200000000000000a2
:100ad000f40000206000000000000000080000207a
:100ae000600000000000000030020020080000004c
:100af00000000000080200200a00000000000000c2
:100b000058020020010000000000000062020020e6
:100b10000100000000000000e001002010000000c3
:100b2000000000006302002001000000000000003f
:100b3000700300200300000001000000000102001b
:100b4000680300200600000001000000080040309b
:100b500000020000700200206000000001000000a0
:100b600000400000080000000000000400800000b9
:100b70000800000000000004000001000800000060
:100b80000000000400000200080000000000000453
:100b9000004000000400000000000004008000008d
:100ba0000400000000000004000001000400000038
:100bb0000000000400000200040000000000000427
:100bc000280300200c000000010000006803002042
:100bd0007002002024010020d00200201800000034
:100be00001000000140100140100140100140100b0
:100bf000140101140101140101140101400300203a
:100c00000a000000010000000800040005001405af
:100c100014010000e8020020200000000100000094
:100c2000300200204003002008000020d0020020f5
:100c3000080003006c030020700300200119060067
:100c400058030020080000000100000008030020f5
:100c5000f80200200803002010000000010000003e
:100c600000000000f4000020240100205c020020ad
:100c70004c0300200a0000000100000000000400f6
:100c8000048a08001400000018030020100000006f
:100c9000010000005802002060030020080200202c
:100ca0004c03002060030020080000000100000049
:100cb000080000200100000064020020090000007c
:100cc00000000000540200200200000000000000ac
:100cd0003f030020010000000100000002000000ae
:100ce000840100202c0000000000000054010020be
:100cf00030000000000000004a0300200100000056
:100d00000100000001000000fc0100200c000000b8
:100d100000000000000000200800000000000000ab
:100d20001202002002000000000000004c0200201f
:100d300004000000000000006800002050000000d7
:100d4000000000005002002004000000000000002d
:100d50000000000000000000666666666666666663
:020000040000fa
:100d60000322f0b5ab4b89b09b780392002b14d0d3
:100d7000a94b1b6804931b6805931b880693a74b1c
:100d80001b6807930023029303936b461a89069b03
:100d90009a4205d302229f4b9a70039809b0f0bd86
:100da000029b07995b00cc5a062302994b43049996
:100db0008968cd180c2302992e784b430499f606c6
:100dc0004968760fcb180193db7a042e00d96ae1cb
:100dd000300002f047fc050013004a012b01dd0042
:100de0000f21019a927a0a40934201d99e1af6b2d3
:100df00034416c80029b01330293c6e71c41884a50
:100e0000a3b26b80af88934217d9864a9b183200f1
:100e10009bb205995b088978402913d0002a13d02a
:100e2000814a0026974211d181232b700e23039310
:100e30002b785a0625d5012330e0794ad31a9bb284
:100e40000022e6e7002aebd0002fedd0092befd9e6
:100e50000f24b9043a123811890f2240204027404c
:100e6000002e3ad0cf2b01d9002966d1152b6ed98f
:100e7000002a67d1002291426bd00139c9b20a22ff
:100e800067e05bb2002b0adb0322059bdb78134093
:100e9000934208d1ff23019a137211232b70bf04d0
:100ea000bf0caf80a6e7022b07d10f22019b5b7a14
:100eb0009343019a53720923f0e7012bbbd10f2210
:100ec000019b5b7a1a4050231343019a53720d23fe
:100ed000e4e70131cf3bc9b29bb2cf2b01d9032943
:100ee000f7d1152b0dd90f2a06d10f2203290ad0cd
:100ef0000131c9b2052206e00132153bd2b29bb2e4
:100f0000efe70f2af1d0022b11d90f280ad10f2aaf
:100f100000d1c9e00132d2b2052003290bd0022b47
:100f2000dbd826e00130023bc0b29bb2ebe70f28d2
:100f3000edd003291dd10321f1e70139cf3bc9b21f
:100f40009bb28fe7013a153bd2b29bb28ee7002ae3
:100f500090d0022b0bd9002804d1002a11d1170000
:100f6000100006e00138023bc0b29bb2f1e7002856
:100f7000f3d009038cb21202144327430001074344
:100f80008fe7013ad2b20a20022b00d96ae7f0e7d4
:100f90001c41019ba4b21f7a01200023ff2f14d112
:100fa0007f23019a6c8013722b78012b00d021e7ec
:100fb000ff33ff339c4273d91a4be418a4b20a2cb6
:100fc00000d817e745232b7014e73900d9400026d5
:100fd000014201d11e0008230133dbb2072bf4d9f3
:100fe0002100100001f0eafb002804d00123b340e7
:100ff0001f43019b1f720123002e08d0013ef6b251
:10100000b340019a127a9a43019b1a72cce72b7073
:10101000cae7c046fc0100200000002004000020b8
:10102000ff01000001feffffff3f00001c41019b8c
:10103000a4b25f7a3e09052e15d02100100001f000
:10104000bdfb00280ad1013601232b700f23360186
:101050001f40019b3e435e726c80a5e7002ef3d0db
:10106000013ef6b2f2e70426f0e71c410f26019b91
:10107000a4b25f7a3e4011d02100100001f09efb27
:10108000002806d1013ef6b201232b700f239f43a7
:10109000dfe7032ef8d00136f6b2f7e70126f5e7d1
:1010a000044b1c1b8ae7fee7032900d157e7100019
:0810b00035e7c046ff01000016
:020000040000fa
:1010b800f8b5de4657464e464546e0b540f266234b
:1010c800c2f2000307221a701e00b34f002540f237
:1010d800070843e040f26b23c2f200031d7040f2a0
:1010e8006523c2f200031d7040f26723c2f20003b9
:1010f8001d7040f26c23c2f200031d7040f25423ad
:10110800c2f200031d705d70002440f26529c2f22e
:10111800000940f2030b40f2010a0ce05b461b1b7e
:1011280052469a4013004a46127813434a461370af
:101138000134042c05d0a0b202f067fa0306f7d5f3
:10114800ece7280002f06bfa030611d440f265239d
:10115800c2f200031a7812011a70357033789a00b7
:10116800d219062b00d110e1072bfad811688f4647
:10117800280002f035fac0b2400940f26a23c2f2f0
:101188000003187040f26b23c2f2000380221a7029
:101198000028dbd043461a1a8023033c21009140e3
:1011a8000b43dbb20138c0b201320028f6d140f25d
:1011b8006b22c2f20002137040f26a23c2f20003eb
:1011c8001d70c3e740f23f34c2f2000443f26d5091
:1011d800c0f20000210002f083fa257040f2642179
:1011e800c2f200010122202001f064ff01233370c4
:1011f800b4e740f23f33c2f200031b78012b08d05a
:1012080040f23f33c2f200031b78022ba6d135709f
:10121800a4e740f26823c2f200031b7823b340f22c
:101228006923c2f200031b788bb340f26723c2f232
:1012380000031b78f3bb40f25421c2f2000140f2d4
:101248006523c2f200031b784b7014230b70022233
:10125800202001f02fff40f26723c2f20003012291
:101268001a700223337079e740f25421c2f2000168
:101278004d700d700222202001f01cff40f26823ff
:10128800c2f2000301221a700223337066e740f2ab
:101298005421c2f200014d7001240c70022220205a
:1012a80001f008ff40f26923c2f200031c70022318
:1012b800337053e740f25421c2f2000140f26b232d
:1012c800c2f200031b784b7015230b7002222020fa
:1012d80001f0f0fe40f26c23c2f2000301221a7002
:1012e800022333703ae740f23f33c2f200031b781f
:1012f800012b0ad040f23f33c2f200031b78022bc5
:1013080000d02be70333337028e740f23f33c2f2b3
:1013180000031d7040f26421c2f200010122202066
:1013280001f0c8fe0323337018e740f23f33c2f2de
:1013380000031b78012b1bd040f23f33c2f200039d
:101348001b78022b00d009e740f23f31c2f20001be
:101358000d7043f26d50c0f2000002f0c1f940f286
:101368006421c2f200010122202001f0a3fef5e66b
:1013780040f26c23c2f200031b7813b106233370ca
:10138800ece63570eae63570e8e63cbc90469946ee
:0c139800a246ab46f8bdc0469c340000e5
:020000040000fa
:1013a40070b540f60003c4f200239b7d43b340f2c2
:1013b4008413c2f200039c6a40f60003c4f20023c3
:1013c4005b8b9b071dd540f28413c2f200032022dd
:1013d400ff2199540132fd39995440f28413c2f229
:1013e400000320229b5c5bb2013300d1e6e040f2b3
:1013f4008413c2f2000320229b5c062b00d109e176
:1014040070bd40f60003c4f200235b8bdb070ad5f2
:1014140040f28413c2f200032022ff2199540132c6
:10142400fd399954d9e740f60003c4f200235b8bdd
:101434005b070ad540f28413c2f200032022ff2185
:1014440099540132fe399954c7e740f28413c2f229
:10145400000320229b5c5bb2032b78d0042b1bd0af
:10146400022bbad140f28413c2f200031b694bb1c0
:1014740040f28413c2f20003988880b2002101f084
:10148400d7faaae740f28413c2f20003988880b224
:10149400012101f0cdfaa0e740f28413c2f2000367
:1014a4009a691b69934219d040f28413c2f2000373
:1014b4009b68985c40f60003c4f20023282158542a
:1014c400511c40f60002c4f20022d369002bfcd167
:1014d40040f28413c2f2000399617ee740f2841360
:1014e400c2f200035b69d3b140f28413c2f2000379
:1014f4009b885b0001221343d202c4f20022536290
:1015040040f60002c4f20022d369002bfcd140f261
:101514008413c2f200032022032199545de740f6ac
:101524000003c4f200235968c02292020a435a609d
:1015340040f60002c4f20022d369002bfcd140f231
:101544008413c2f2000320220621995445e740f295
:101554008413c2f20003d9695b69013b8b4215d045
:1015640040f60002c4f20022d369002bfcd140f201
:101574008413c2f20003d86840f60002c4f20022c9
:101584002825525d42540131d96126e740f6000313
:10159400c4f200235868e022d20202435a6040f6a3
:1015a4000002c4f20022d369002bfcd140f2841360
:1015b400c2f20003202206209854d1e740f284139b
:1015c400c2f200030021995440f60003c4f2002340
:1015d4005968c02292020a435a6040f60002c4f2db
:1015e4000022d369002bfcd140f60003c4f200238f
:1015f40083221a7640f28413c2f200035b6a002b42
:1016040000d1fde640f28413c2f200035b6a2000bd
:101614009847f5e640f28413c2f200030022202129
:101624005a5401315a5440f60003c4f20023833261
:101634001a7640f60002c4f200220f31538b0b409d
:10164400102bfbd140f28413c2f200035b6a002b1f
:1016540000d1d5e640f28413c2f200035b6a200095
:041664009847cde6f0
:020000040000fa
:1016680010b540f23823c2f200031b79022b2cd0ac
:10167800032b00d17ce0abb140f23823c2f2000367
:1016880000221a7140f25a23c2f200031b7843b9b0
:1016980040f23e23c2f200031b881bb2002b00da83
:1016a800a0e010bd01f069fe0528ebd901f0e7fdc7
:1016b8005528e7d140f23824c2f200040421200062
:1016c80001f042ff02232371dce740f23823c2f223
:1016d80000031b78022b20d0012bd3d101f04dfe43
:1016e8000128cfd901f0cbfd040001f0c8fd002c82
:1016f800c8d1aa28c6d140f23e21c2f200010b8807
:1017080040f23822c2f200025478a938a0400343bc
:101718009bb20b8003231371b4e740f23823c2f263
:10172800000359883b2907d940f23823c2f2000345
:10173800587800f076fba5e701f01ffe40f2382349
:10174800c2f200035b8880b283429bd240f23e2102
:10175800c2f200010b8840f23822c2f2000254782b
:101768000120a04003439bb20b800323137189e738
:1017780040f25a23c2f200031b78002b00d081e705
:1017880040f23e23c2f200031b881b0500d179e713
:1017980040f23823c2f200031b78012b17d0022b2a
:1017a80000d06fe740f23824c2f200046188607804
:1017b80000f037fb0023237140f23e23c2f20003fe
:1017c8001a886078012181408a431a805ae740f2da
:1017d8003824c2f200046078002101f0cbf900231c
:1017e80023714fe740f21f24c2f20004237843f22a
:1017f8006872c0f20002d15c40f21e22c2f20002fe
:1018080011701178c9b243f25872c0f200025b003d
:101818009a5a032001f0c4fc43f22073c0f200037b
:1018280022789200d35800209847237840f2562215
:10183800c2f2000243f26c71c0f20001c95c11806f
:1018480043f25072c0f2000259008a5a43f21471ee
:10185800c0f200019b005958012001f047fa237893
:101868000133dbb2032b01d023701ae740f21f23a8
:0a187800c2f2000300221a7013e709
:020000040000fa
:10188200f0b502008db00b20002a6ad055681168ad
:10189200ab7801934b7802932b7b002b3ed0002434
:1018a20020002b889c46019b5b000393029b5e00f9
:1018b2006746a3b29f4256d86b7b984200d87be022
:1018c200cb6802995b181978013119701168536855
:1018d2004878c968085c997b88421fd169469d682f
:1018e200029b0989e81803780391002b53d0013b2e
:1018f200dbb26e466f46b68800213e823e8a0124e4
:10190200b44667468eb2b74247d8002cedd003707a
:101912000023180051688978994247d8029b69468a
:101922005b000a93019b56685b08013306936b4682
:101932009b888b818b890b9300239c46039333886e
:1019420003998b4244d8029b01990133dbb28b424b
:101952008941b0680b40c05c716808700020126851
:1019620053700db0f0bd062363438f68fb185f8888
:101972004b689b5b9f420ad9fb1a9bb21f1c834296
:1019820000d2071cb8b2039b0134f61890e79f42bd
:10199200f9d2db1bf1e70f23abe7039fb74203d07a
:1019a2006e5c9e4200d100240131aae71168c96829
:1019b200c85401339bb2ade75b088342aed9cb6812
:1019c20002995b1819780029a8d001391970a5e786
:1019d2000623039910684b438168cb1804931b7844
:1019e200db065b0f40d16146406849004118059112
:1019f2000499059849880a9c0993015301999942cf
:101a02002ed9002005995d00491908910400012191
:101a12000de09f420ad0059d6700ed5b0795089d8a
:101a22002f88079dbd4215d10131c9b20134019df4
:101a3200e7b2bd42edd8069c8c4204d9844206d955
:101a42004118a14203db089b1b880993019b0133c8
:101a5200dbb2d3e7079dbd42e8d20130c0b2e5e771
:101a62006946049b898c5980039b0b9901339bb275
:0e1a7200039363468c4663449bb29c465fe739
:020000040000fa
:101a8000f0b585b0029001f011fe0222694c0025ec
:101a900023889343238001f009fe0c23029a664eab
:101aa0005a43336801925b689b185a68236a120391
:101ab0001b0d120b1b051343236233685a68019bed
:101ac000d2180123ab4052681a4204d05b4b083352
:101ad000e85c01f06ffa0135142deed101f0e6fd5e
:101ae0003368019a5b6801209b589c466246e36913
:101af00012031b0d120b1b0513430022e3614f4b16
:101b000008330393030061469340194214d0039baa
:101b10004b4dd15c0f274b085b191d78014200d15a
:101b200080e03d401d7050251f783d431d70454ba2
:101b3000c91800230b7008700132142ae2d1062262
:101b4000029b31685a438b689b181a789d889207cc
:101b500001d505221a701f7801f0a8fd0023ff06a9
:101b60007f0f9f4205d13368019a5b689b189b7a6f
:101b70001b09324a3449d3180f221b7f0d401a40eb
:101b8000120415439b06314a9b0f1b0515401d434c
:101b90003368019a5b689b181b7afa2b47d8043389
:101ba0002d021b062d0a07271d4301f07ffd336818
:101bb000019a5b6826499b185b7a62681b093b4067
:101bc0000a401b051343636001f070fd0320336876
:101bd0005968019bc9184a7a238802401d4812029d
:101be000034013432380cb7a1f40bfb201f05efd58
:101bf000a56001f05bfda78101f058fd3022a37bb9
:101c00009343a37301f052fd0223228813432380e0
:101c100001f04cfd0123227c1343237401f046fda7
:101c200005b0f0bdbd431d701f7805257de7ff237e
:101c30001b06b8e7002400420000002058340000d2
:101c40003030004040300040fffff0ffffffcfff8b
:081c5000ffff8ffffffcffff07
:020000040000fa
:101c580010b540f23e33c2f200031b78012b06d0c8
:101c680040f25a23c2f2000300221a7010bd40f25b
:101c78005f23c2f200031a7840f2de13c2f20003b7
:101c88001b88934243d840f21d23c2f200031b78fd
:101c9800022b4fd040f21d23c2f200031b78012b08
:101ca800e4d140f25b23c2f200031a7840f25623d3
:101cb800c2f200031b889a4200d38fe040f21e2331
:101cc800c2f200031878c0b201f05afc40f25b245b
:101cd800c2f200042378dbb243f22072c0f20002a1
:101ce800800082581800904740f25f23c2f2000338
:101cf80001221a7023780133dbb2237040f24823a3
:101d0800c2f200031b68187801f054fcaee740f2f9
:101d18005f24c2f200042378dbb240f24822c2f208
:101d280000021268d05c01f045fc23780133dbb275
:101d380023709be740f25b23c2f200031a7840f25b
:101d48005623c2f200031b889a420dd340f25b224d
:101d5800c2f200021278934226d040f25a23c2f20d
:101d6800000300221a7081e740f25b24c2f20004eb
:101d78002178c9b240f23823c2f20003587800f043
:101d8800f9fe40f25f23c2f2000301221a702378a1
:101d98000133dbb2237040f24823c2f200031b6810
:101da800187801f007fc61e740f25b22c2f20002fa
:101db80013780133dbb2137040f23e23c2f2000302
:101dc8001a8840f23821c2f2000148780121814086
:101dd8008a431a80aa2001f0edfb47e740f25b2214
:101de800c2f200021278934206d040f25a23c2f29d
:101df800000300221a7039e740f25b22c2f20002a7
:101e080013780133dbb2137040f23e23c2f20003b1
:101e18001a8847f6ff710a401a80aa2001f0cafb07
:021e280024e7ad
:020000040000fa
:101e2a00f8b5040001f0a8fa85b2012c4ad0b4b181
:101e3a00022c66d0042c00d1b8e0200001f0c2face
:101e4a0040f23823c2f20003598843f2a453c0f285
:101e5a0000038000c05801f076fb01f00ffaf8bdcc
:101e6a00387801f062f93b780133dbb23b70083d08
:101e7a00adb2082b0ed0082df1d940f22024c2f2bf
:101e8a0000042600083601f0f9f920700134a64250
:101e9a00f9d1e5e740f2dd13c2f20003002119701f
:101eaa0040f23822c2f20002117140f23e23c2f21d
:101eba00000319885078012282409143198001f069
:101eca00ddf9cce7082dcad940f2dd17c2f20007c6
:101eda00d3e740f2dd13c2f200030021197040f289
:101eea003822c2f20002117140f23e23c2f200030c
:101efa0019885078012282409143198001f0bef975
:101f0a00ade7032dabd940f2dd17c2f200073c78ea
:101f1a006600361940f2d023c2f200039c4666449a
:101f2a0001f0acf9307001f0a9f9707001f0a6f96e
:101f3a00b0700134e4b23c70033dadb2082cc8d095
:101f4a00032de4d88be73c78200001f0e6f9013450
:101f5a00e4b23c70083dadb2012c0fd0082d00d878
:101f6a007de740f22824c2f200042600083601f078
:101f7a0085f920700134a642f9d1e4e740f2dd1375
:101f8a00c2f200030021197040f23822c2f20002a4
:101f9a00117140f23e23c2f20003198850780122df
:101faa0082409143198001f069f958e7082d00d859
:0c1fba0055e740f2dd17c2f20007d2e745
:020000040000fa
:101fc60010b540f26223c2f200031b78012b09d040
:101fd60040f26323c2f200031b78012b15d0fff7f2
:101fe60040fb10bd43f2db61c0f2000140f2283035
:101ff600c2f2000000f05bf80028e9d140f262234b
:10200600c2f2000300221a70e2e740f26323c2f232
:10201600000300221a70fef7a0fe48bb40f25830bb
:10202600c2f20000fff72afca0b940f2e820c2f293
:102036000000fef76cf8a0b940f21830c2f20000ba
:10204600fef7abfad0b140f26123c2f200030422dc
:102056001a7013e040f26123c2f2000302221a70e2
:10206600e3e740f26123c2f2000303221a70e3e7ba
:1020760040f26123c2f2000301221a7001f0bcfa99
:1020860040f2e823c2f200031b681b787f2b06d8b8
:1020960040f26023c2f2000301221a709fe740f269
:0c20a6006223c2f2000301221a7098e7c6
:020000040000fa
:0220b200704775
:020000040000fa
:1020b400f7b5060001910b24002958d0002856d00a
:1020c4002d4d0324ab78002b51d00124042b4ed08a
:1020d4002a4f3b7cdb07db0f009348d102240368c3
:1020e4005b79013ba34242d801f0defa3b88a3436b
:1020f4003b80234b234f1e60019b6b6000f05cfc14
:102104008022214bd200da67bff34f8fbff36f8f6a
:1021140001f0cafa03221d4b1a7001f0c5fa01221c
:102124001b49ff200b78000413430b70194b1a70e2
:10213400c22380225b00d200fa503368d83a5b791c
:10214400b9589b050340144801400b43bb508023fe
:10215400db007b606b461b882b8000f08dff061e26
:1021640007d104232888ab703400fff787fc2000d4
:10217400febdac70fbe7c046fc0100200024004219
:102184000000002000e100e008e100e02a24004211
:0c219400292400424a030020ffff00ff46
:020000040000fa
:1021a000f0b5c64600b5bff35f8f62b64ef20013be
:1021b000cef2000340f200301a58304c2240c021c9
:1021c00009040a431a5004221a6040f214355a597d
:1021d00022400a435a518022d2031a605a591202ed
:1021e000120ac020000602435a51802212041a60cb
:1021f00040f218329d5840f2ff084646b54340f27f
:10220000c00c664635439d5080256d041d609d5869
:102210001b4f3d404cf2000635439d508025ad04d8
:102220001d609d5825400d439d508025ed041d6087
:102230009d582d022d0a05439d50802212051a60db
:1022400040f21c355859424690436246104358515b
:10225000802252051a605a593a4032435a5180221c
:1022600092051a6040f228301a5814402143195040
:1022700040f200425a6004bc9046f0bdffff00fff0
:04228000ff00ffff5d
:020000040000fa
:1022840041f20003c4f2000386221a7641f20043ad
:10229400c4f2000300221a7441f60043c4f200039e
:1022a4000632ff32c0f201021a6241f60042c4f261
:1022b4000002042153681942fcd141f60043c4f2e0
:1022c400000340f20512c0f202025a6241f60042d3
:1022d400c4f20002082153681942fcd141f60043bc
:1022e400c4f2000398224121995041f60042c4f2fd
:1022f40000029820013913581942fcd041f60043da
:10230400c4f20003ac224021995041f60042c4f2c9
:102314000002ac2013581942fcd041f60043c4f229
:102324000003b0224021995041f60042c4f2000259
:10233400b02013581942fcd041f60043c4f2000304
:10234400cc224121995041f60042c4f20002cc2033
:0a235400013913581942fcd07047fc
:020000040000fa
:02235e007047c6
:020000040000fa
:102360008021f8b52c4bc9001a690a431a61c022b2
:102370001c69920114431c615c69214359615969cc
:102380000a435a610b2300282dd003680c261c88b1
:1023900000231d009ab2944227d80223002d22d098
:1023a0001e4e1f4cb378002b29d1012701f07ef976
:1023b00023883b43238001f079f9a3692a031b0d8d
:1023c000120b1b051343a361b77000242b00e340dd
:1023d000db0704d5134b0833e05c00f0ebfd013460
:1023e000142cf3d100231800f8bd32005a43416881
:1023f00001338a18116852680a431543cae701f08d
:1024000055f9a269a3692a4312031b0d120b1b0580
:102410001343a361d9e7c04600340040fc0100200b
:082420000024004258340000c2
:020000040000fa
:1024280070b540f25413c2f200031b7d002b4ad052
:1024380040f25412c2f200029368516840f200421e
:10244800c4f20022127ed2071fd599421dd940f24c
:102458000041c4f20021072640f25410c2f20000e5
:10246800012509e00268d25c0a85013344680a7ec6
:102478002a420ad09c4208d94a683240012af1d13e
:1024880002685c00a25a0a85efe740f25412c2f2d1
:102498000002936052689a4215d840f25413c2f26f
:1024a800000300221a755a6040f20042c4f200226a
:1024b80001211175db6833b140f25413c2f20003f5
:0824c8001869db68984770bd3c
:020000040000fa
:1024d00010b540f25413c2f200032c229b5c3bb3b4
:1024e00040f25413c2f20003da691b6a93421fd20e
:1024f00040f25413c2f20003986a40f20041c4f261
:1025000000210a8d92b21b6a4c68072121400129e3
:102510000fd040f25411c2f200018969ca5401334c
:1025200040f25412c2f200021362d2699a4208d0f9
:1025300010bd40f25411c2f2000189695c00625280
:10254000ede740f25413c2f2000300222c215a544a
:10255000da6140f20042c4f20022583111755b6a20
:10256000002be5d040f25413c2f200035b6a984797
:02257000dee7a4
:020000040000fa
:1025720010b540f25623c2f2000301221a8040f243
:102582002823c2f2000340f24c31c2f20001820061
:1025920014186400615c1970210040f24c34c2f2dc
:1025a2000004a44661448c785c70cc789c700c79f1
:1025b200dc704c791c71897959711218520062448d
:1025c2001289da8078b140f24823c2f2000340f265
:1025d2002822c2f200021a6040f2de13c2f20003a5
:1025e20008221a8010bd40f23823c2f20003597843
:1025f2000822043000f0d7fd40f22821c2f2000187
:0a2602000822022000f075fbece74f
:020000040000fa
:10260c0003211f4a70b5117002211e4b1e4c1a88f3
:10261c008a431a801d499b8f228809689bb25000ff
:10262c0043521b490978012902d002290fd070bdf1
:10263c000132228000f01cfd002805d12088fff714
:10264c0019fa0423a370f2e763689847efe70c25a7
:10265c000f20104955430e6871684d19a97a08402e
:10266c00e97a0025884201d2091acdb20621eb4045
:10267c004a43b068821853800223a370a368e4e72e
:10268c002a24004200240042fc0100200400002007
:08269c004a03002000000020a9
:020000040000fa
:1026a40040f60003c4f2002301221a60d202c4f2ed
:1026b4000022d369002bfcd140f60003c4f20023ae
:1026c40040f200125a60d200c4f20022d369002bf7
:1026d400fcd140f60003c4f200232222da600c3a53
:1026e400c0f210021a6040f60002c4f20022d3695c
:1026f400002bfcd140f60003c4f2002310225a83bd
:10270400d201c4f20022d369002bfcd140f284131d
:10271400c2f20003002221215a5401395a5440f6ce
:0c2724000003c4f2002383329a75704752
:020000040000fa
:1027300070b5002840d040f25413c2f200031a7d55
:102740000023babb40f25413c2f200031860596070
:1027500001321a755c6840f20043c4f200231b7e0c
:10276000db0718d5d4b1002340f20041c4f20021a8
:102770000726012507e0c25c0a8501330a7e2a424a
:102780000bd09c420ad04a683240012af3d15a0049
:10279000825a0a85f1e7002400e01c0040f254133d
:1027a000c2f200039c6040f20043c4f20023012205
:0c27b0009a750123180070bd0023fbe7a0
:020000040000fa
:1027bc00f0b506241e4b44431a68002093681c197c
:1027cc0063888b4229d029d2c91a89b249080120c1
:1027dc00842922d800200a291fd9cf250f26152796
:1027ec00a3881c009804800f68431d1235407d435c
:1027fc001b11334040195b00c018344080b2002cd0
:10280c000ed113680b4adb789b069b0f5b009b5a1f
:10281c00594389b2884280414042f0bd591ad4e7ed
:10282c00013080b2052cecd9053ce4b2e7e7c04698
:08283c000000002058340000e8
:020000040000fa
:1028440010b540f25623c2f2000308221a8040f267
:102854002021c2f2000143001a18920040f27024b1
:10286400c2f20004a4466244147a0c71547a4c7186
:10287400927a8a711b189b006344db7acb7178b11e
:1028840040f24823c2f2000340f22022c2f20002c6
:102894001a6040f2de13c2f2000308221a8010bd4f
:1028a40040f23823c2f2000359784022043000f089
:1028b40079fc40f22021c2f200010822022000f03b
:0428c40017faece72c
:020000040000fa
:1028c800f7b50c25c3684d439c46032382684b43e8
:1028d80055196c6863442d8964889f781b78641b3c
:1028e800e41aa3b201930025436860461e88b542e6
:1028f80001d10020febd8d4218d08378bb4215d18e
:1029080013787b33dbb2012b15d913899c465368a6
:102918005b889c450ad264461b1b04789bb2a34281
:1029280004d91b1b019c9bb29c4204d30135adb258
:0a29380003300c32dbe70120dce77e
:020000040000fa
:1029420070b500f084fc40f22830c2f20000fff7bc
:1029520006fd40f2e010c2f2000000f06efe00241c
:1029620040f22835c2f200052100280000f0a5fd42
:102972002100280000f03bfa0134a4b2082cf3d164
:1029820040f22415c2f20005002440f2e826c2f209
:102992000006e1b22a00300000f09ffd0134a4b22b
:1029a2000635082cf5d140f21830c2f2000000f0d2
:0829b200dbfa00f0cefc70bd61
:020000040000fa
:0229ba00fee736
:020000040000fa
:1029bc0070b500f075fe174b00261b68164d1b6892
:1029cc0008249a78402a02d00a24802a1ad1ee735d
:1029dc0030221b799443114a0f2b16d810490c4006
:1029ec000f210b401b0214401c430e4b1c4300f0e8
:1029fc0057fed0232b8000f053fe6c6000f050fe8d
:102a0c00002070bd0222ea73e2e780235b011c43c5
:102a1c001440eae70000002000240042fff0ffff12
:082a2c00ffefffff4060000016
:020000040000fa
:102a340010b540f28413c2f2000300229a61da61f5
:102a440040f60003c4f2002383321a765a68144c09
:102a540022405a6040f60002c4f20022d369002bdf
:102a6400fcd1a9b140f28413c2f200032022032452
:102a74009c544000084340f60003c4f2002358620b
:102a840040f60002c4f20022d369002bfcd110bd31
:102a940040f28413c2f20003202204249c54e8e789
:042aa400fffffbff36
:020000040000fa
:102aa80040f20043c4f2002340f20412c4f231029f
:102ab8001a60164a9a81c02292025a6040f2004275
:102ac800c4f20022d369002bfcd140f20043c4f2c7
:102ad80000231a6802210a431a6040f20042c4f235
:102ae8000022d369002bfcd140f25413c2f2000338
:102af80000229a61da611a622c215a545a621a60c9
:102b08005a609a601a75da60da85704704c5ffff63
:020000040000fa
:102b180010b540f20043c4f200239b7d1bb340f282
:102b28000042c4f20022137edbb2927d52b2002a28
:102b38001adb40f20043c4f200231a7ed2b29b7d16
:102b4800db0703d5d30701d5fff76afc40f2004342
:102b5800c4f200231a7ed2b29b7d5b0703d55307cc
:102b680001d5fff7b1fc10bd5bb2002be1da00f034
:042b78003ffadee75b
:020000040000fa
:102b7c0070b5012825d0042827d040f25623c2f284
:102b8c00000301221a8040f23823c2f200035e785f
:102b9c0000f017fc040043f22c73c0f20003420057
:102bac00d55a2a003100042000f0f8fa43f2a4535d
:102bbc00c0f20003a400e1582a00022000f094f8af
:102bcc0002e00800fff738fe70bd0800fff7cbfcf1
:022bdc00fae716
:020000040000fa
:102bde0070b543001a18520040f22411c2f20001df
:102bee008c466244548840f21422c2f200021480d1
:102bfe0040f20805c2f2000519188900ac4661447e
:102c0e0009895180641a948019188900495dc9098f
:102c1e0091711b185b0040f22411c2f200018c4628
:0c2c2e0063441979d1715b79137270bd99
:020000040000fa
:022c3a00fee7b3
:020000040000fa
:102c3c00013210b5d2b2002906d1134b180010bdc9
:102c4c00013a4000d2b280b203b2002b01db002a61
:102c5c00f6d10bb2002b11da0023002aeed01cb2f5
:102c6c00002ceadb5b00013a9bb2d2b2884203d360
:102c7c00401a013380b29bb24908eee70132490099
:0c2c8c00d2b289b2e5e7c046ffff0000ad
:020000040000fa
:102c980000230e4a10b513600d4a0e4c13600e4afd
:102ca80013600e4a13600e4a13600e4a5362136192
:102cb8000133936000f057fa00f055fa0a4b9c4232
:102cc80000d310bd08cc9847f8e7c0465002002052
:102cd800740000200001000070000020680000203f
:0c2ce8006c0000207800002004010000b7
:020000040000fa
:102cf40010b540f25a23c2f200031b7803b110bd91
:102d040040f21d23c2f20003187040f25a23c2f2ab
:102d140000030120187040f25b23c2f20003187014
:102d240040f25f23c2f20003187040f24823c2f25b
:102d34000003196040f2de13c2f200031a8008781f
:062d440000f03afcdbe7a1
:020000040000fa
:102d4a0010b542f25f33c0f20003984742f25f3394
:102d5a00c0f20003984700f0c6fa40f20003c0f23e
:102d6a0000037f2293434ef60052cef20002936094
:102d7a0042f69943c0f20003984742f25f33c0f229
:102d8a000003984742f25f33c0f20003984700f00d
:042d9a004dfbfee708
:020000040000fa
:102d9e0042f20043c4f2000301221a8042f20042c2
:102dae00c4f20002012113691942fcd142f2004320
:102dbe00c4f2000340f280121a80803aff3a1a627f
:102dce0042f20042c4f20002202113691942fcd1e2
:102dde0042f20043c4f2000340f200125a817047df
:020000040000fa
:022dee00fee7fe
:020000040000fa
:102df000030010b50b20002b16d01a68022014888f
:102e00008c4211d992789b68402a0ed106228d20df
:102e10004a4380009a1890800020062251430222e3
:102e20005b1819780a431a7010bd803ad2b2012a91
:102e3000f3d806224a4301489a18ece767050000d8
:020000040000fa
:102e400010b540f24623c2f200031a78d2b240f223
:102e5000b801c2f2000140f24720c2f2000000783f
:102e600088541a780132d2b21a701b783c2b07d0e2
:102e700040f24720c2f20000012100f052f810bddc
:0e2e800040f24623c2f2000300221a70f0e76f
:020000040000fa
:102e8e0043f20003c4f20003012242215a540131dd
:102e9e005a540d315a5401315a5401315a54013198
:102eae005a5403315a5401315a5401315a54013192
:102ebe005a54103228395a540f39382019540130c7
:0c2ece001a5402301a542b3299547047e9
:020000040000fa
:102eda0010b540f24022c2f2000240f20821c2f2ca
:102eea00000183001c186400645c012121401170f8
:102efa001918490040f20824c2f20004a4466144a9
:102f0a000c7a5470497a91701b185b006344997962
:082f1a00d170db79137110bdc9
:020000040000fa
:102f220070b504000d00e8b140f25413c2f2000380
:102f32002c229b5c002003b170bd00f06cf940f2c2
:102f42005413c2f200039c61dd6100221a622c213b
:102f520001205854da8540f20043c4f2002384323f
:082f62009a75e9e70020e7e79a
:020000040000fa
:102f6a0030b584680b23002c10d0c16800290dd01d
:102f7a000022036806311a704068631c05790a202a
:102f8a00684301302418a34202d10023180030bd3f
:102f9a001a7008780a315870d81c0280581d0280ad
:082faa00d81d02800a33eee796
:020000040000fa
:022fb20000100d
:020000040000fa
:102fb400012210b54308104210d00f210b4a9b1870
:102fc4001a780a401a70102219780a431a70084baa
:102fd400c018002303700123037010bd0f2403499c
:102fe4005b181978a14319701978eee73030004066
:042ff4004030004029
:020000040000fa
:102ff80010b540f20043c4f200235b8b0722134054
:1030080003b910bd40f25414c2f20004e38500f085
:10301800fff840f20043c4f2002384221a752c23df
:103028000022e254636a002bebd0a06a636a9847d7
:02303800e7e7c8
:020000040000fa
:02303a007047dd
:020000040000fa
:10303c0010b5054c227832b9044b13b1044800e0aa
:10304c0000bf0123237010bdb00100200000000060
:10305c0000000000034b10b51bb10349034800e00e
:10306c0000bf10bd00000000b401002000000000f3
:020000040000fa
:10307c000d4a70b51068012502680c4914880622a7
:10308c000b885a43a3420ad28668b65c06322e429b
:10309c0002d101339bb2f5e700200b8070bd0023f9
:1030ac0001200b80fae7c04600000020fc01002044
:020000040000fa
:1030bc0070b5050040f28413c2f2000320201b5ca3
:1030cc00002003b170bd40f28413c2f200039d8056
:1030dc000024dc605c6199601a619c701c70212278
:0e30ec009c5400212800fff79ffc0120eae71a
:020000040000fa
:1030fa0040f20043c4f2000300221a819a790121a6
:10310a000a439a719b7803221340022b0cd040f297
:10311a000043c4f20003013a9a705202c4f2000258
:0a312a00012193790b42fcd070479d
:020000040000fa
:1031340010b543001a18920040f27021c2f2000147
:103144008c46624440f22021c2f200014c79547250
:103154008c7994720c7914721b189b006344ca799d
:0a316400da7280b200f0a7f810bd87
:020000040000fa
:02316e007047a8
:020000040000fa
:1031700010b542f20042c4f20002918989b240f2d5
:10318000f013c2f2000359600649918192891b68cd
:103190003bb140f2f013c2f20003586899681b6813
:0831a000984710bdffc1ffffbd
:020000040000fa
:1031a800f8b507000e00150040f23e34c2f20004e4
:1031b80000232370552000f029f9380000f026f983
:1031c800300000f023f9e8b200f020f9280a00f0f6
:0831d8001df901232370f8bd6d
:020000040000fa
:1031e00010b544f20003c4f2001304225a60fff742
:1031f00084fffff74cfefff745f800f03dfafff7bc
:1032000051fafef756fffff74ffcfff7c8fdfff737
:0832100098fbfef7c5ff10bd9d
:020000040000fa
:1032180040f20043c4f200235b8b5b0713d040f2fb
:103228000043c4f2002380221a76793a5a831b7e1f
:103238005b0708d540f20043c4f2002304211a8d2d
:083248001a7e0a42fbd1704717
:020000040000fa
:1032500010b543f26170c0f20000002100f036fab0
:1032600042f20042c4f20002082113691942fcd163
:1032700000f003f9002000f04ff9142000f05af993
:0632800000f0b7f810bddc
:020000040000fa
:1032860040f24523c2f200031a78d2b240f2b801e6
:10329600c2f20001885c1a780132d2b21a701b7829
:1032a6003c2b00d0704740f24523c2f200030022b7
:0432b6001a70f7e7ac
:020000040000fa
:1032ba0010b5040040f22830c2f200002100fff7e6
:1032ca0092fd62001219520040f22413c2f2000366
:1032da009c466244e1b240f2e820c2f2000000f0eb
:0432ea00f8f810bd23
:020000040000fa
:1032f00010b50a48016821b9436813b9fff79dfe6c
:1033000010bd04008368064a9bb20c349b009b5896
:1033100042682000984780002018ebe7b0090000c1
:043320005036000023
:020000040000fa
:1033240010b583001a18520040f24c31c2f2000169
:103334008c46624440f22821c2f200010c79547197
:103344004c7994711b185b006344ca881a8110bdc0
:020000040000fa
:1033540010b541f65940c0f20000002100f0c9f94f
:1033640042f64160c0f20000002100f0c9f940f2c9
:0e3374004720c2f200000121fff7d1fd10bd7d
:020000040000fa
:1033820040f24623c2f200031b7840f24522c2f209
:10339200000210781b1a9bb218b2002801dbc0b2df
:0833a20070473c3318b2fae752
:020000040000fa
:1033aa0040f2cc13c2f2000340f2f822c2f2000249
:1033ba009178197092681178597051789970927849
:0433ca00da707047fe
:020000040000fa
:1033ce0070b101280ad0022808d0032806d004289c
:1033de0004d00023052801d0180070470300fbe736
:0433ee000300f9e7f8
:020000040000fa
:1033f20042f20043c4f200031a8802210a431a80ef
:1034020042f20042c4f20002022113691942fcd1c5
:02341200704701
:020000040000fa
:1034140010b540f25a23c2f2000301221a7000f0e0
:10342400cbf840f25a22c2f200021378012bfcd0ee
:0234340010bdc9
:020000040000fa
:1034360010b50020fff7d1fe40f26024c2f200046e
:1034460001e0fdf736fefef7bbfd2378012bfad12e
:02345600f7e796
:020000040000fa
:103458000700130035009000000102030506080963
:103468000a0b0e0f1011121316171e1f3f1c0b0507
:0234780003014e
:020000040000fa
:10347a0042f20043c4f200031a8802218a431a80e6
:10348a0042f20042c4f2000213691942fcd17047a9
:020000040000fa
:10349c00cc110000fa110000ee12000032130000f3
:1034ac006a1100008e1300006a110000dc1000008d
:020000040000fa
:1034bc000b2300280ad003681a8802238a4205d9f4
:1034cc0006235943012382688b540023180070474c
:020000040000fa
:1034dc000b23002809d0002a07d00c234b4381680a
:0e34ec00c91801230b7000234a6018007047b6
:020000040000fa
:1034fa00002310b5934206d103201840421e904182
:0e350a009b08c01810bdc45ccc540133f2e71e
:020000040000fa
:1035180042f20043c4f20003986142f20042c4f24e
:0c3528000002082113691942fcd1704711
:020000040000fa
:1035340042f20043c4f20003186242f20042c4f2b1
:0c3544000002202113691942fcd17047dd
:020000040000fa
:1035500070b505000e0041b10024fff794fe2870fd
:0c35600001350134a4b2a642f7d170bdc1
:020000040000fa
:10356c0010b5040000f094f818b90cb101232370c5
:0c357c0010bd002cfcd002232370f9e7e6
:020000040000fa
:10358800802808d0812804d082384342584140001e
:0a35980070470120fce70020fae76d
:020000040000fa
:1035a4003403002070020020d002002042030020d7
:0835b4004c0300200403002079
:020000040000fa
:1035bc0010b540f25923c2f2000318700121180013
:0635cc00fff7b0f810bd8e
:020000040000fa
:1035d20010b540f26223c2f2000301221a701420d5
:0635e20000f06bf810bdc3
:020000040000fa
:1035e80040f21832c2f20002926883001b185b0096
:0635f800d318d8887047cb
:020000040000fa
:1035fe0040f23e23c2f200031a8848f200010a4349
:04360e001a80704767
:020000040000fa
:1036120040f2e822c2f20002926843001b189b00ab
:04362200d05c7047c1
:020000040000fa
:1036260040f21832c2f20002926883001b185b0057
:04363600d05c7047ad
:020000040000fa
:10363c000b23002802d0024b18600023180070479f
:04364c000400002056
:020000040000fa
:103650008b360000fb34000071370000713700002a
:0436600071370000be
:020000040000fa
:1036640003b47146490840004900095a49008e4490
:0436740003bc7047dc
:020000040000fa
:1036780044f20003c4f2001304225a60033a1a7297
:02368800704789
:020000040000fa
:10368a008a18914201d10020704700230b70013142
:02369a00f7e750
:020000040000fa
:10369c0040f28413c2f200032122985cc0b270473e
:020000040000fa
:1036ac00024ad36adb04db0cfbd1704700240042d6
:020000040000fa
:1036bc00024b1a88801818807047c04612020020ee
:020000040000fa
:0e36cc0040f2f013c2f20003186099607047dc
:020000040000fa
:0e36da0040f26323c2f2000301221a7070470f
:020000040000fa
:0e36e80040f28413c2f20003586299627047e8
:020000040000fa
:0e36f60040f25413c2f20003d860196170470d
:020000040000fa
:0e37040040f25413c2f20003586299627047fb
:020000040000fa
:0c3714001402002040020020cc01002024
:020000040000fa
:0c372000df2b0000db2e0000ab330000ac
:020000040000fa
:0c372c000a00400018000800080003001c
:020000040000fa
:0c37380010b500f003f8fef765ff10bdaf
:020000040000fa
:0c3744000322014b1a7070472a24004237
:020000040000fa
:08375000090005001100c0464c
:020000040000fa
:08375800480005001100c04605
:020000040000fa
:0837600010b5fff736ff10bda4
:020000040000fa
:0437680080818200da
:020000040000fa
:04376c00080101004f
:020000040000fa
:04377000002070477e
:020000040000fa
:0200000400807a
:044000007f438fb0bb
:020000040000fa
:0200000400807a
:04400400bbfcffff03
:020000040000fa
:0200000400807a
:04c0040000ffffff3b
:020000040000fa
:0200000400807a
:04c04000ffffffff00
:020000040000fa
:0200000400807a
:04c04400fffffffffc
:020000040000fa
:0200000400807a
:04c04800fffffffff8
:020000040000fa
:0200000400807a
:04c04c00fffffffff4
:00000001FF
