:020000040000fa
:10000000f03f0020d925000097290000cb2c0000ec
:1000100000000000000000000000000000000000e0
:10002000000000000000000000000000e52c0000bf
:100030000000000000000000e52c0000e52c00009e
:10004000e52c0000e52c0000f1280000e52c000064
:10005000e52c0000e52c0000e52c0000e52c00005c
:10006000e52c0000e52c0000e52c0000e52c00004c
:10007000e52c0000e52c0000e52c0000e52c00003c
:10008000e52c0000e52c0000e52c0000e52c00002c
:10009000e52c0000e52c0000e52c0000e52c00001c
:1000a000e52c0000e52c00009d1200009d120000d0
:1000b0009d1200009d120000e52c0000e52c0000c0
:1000c000e52c0000e52c0000e52c0000e52c0000ec
:1000d000e52c0000e52c0000e52c0000e52c0000dc
:1000e000e52c0000e52c0000bf2c0000e52c0000f2
:0400f000e52c0000fb
:020000040000fa
:1000f400f8b5c046f8bc08bc9e4670475d280000b1
:10010400f8b5c046f8bc08bc9e46704739280000c4
:020000040000fa
:100114000322f0b5b84b95b09b780892002b15d00c
:10012400b64b1b6809931b680a931b889b080f93a3
:10013400b34b1b680b930023059308936b460f9aec
:100144009b8a934205d30222ab4b9a70089815b050
:10015400f0bd182205999b004a4309999bb249684e
:100164008f18fa7d0693099b01929b680393069b63
:100174005b000e930e9a0b9b9446634407930023f3
:100184009c466a4663461372137a62460493069b3e
:1001940064469d18adb20b9a6b009a5a06235d43d0
:1001a400039b13a85d192978cb065b0f235457d101
:1001b4000f22be7d019932401e00914201d98e1a50
:1001c400f6b200200100079c4200a25ac4b2324198
:1001d400120402922200049ca2423dd1029a120c03
:1001e400891a01300428eed189b24908698062462f
:1001f40001329446042ac4d113aa167851788e4247
:1002040000d0002392788a4200d0002313a9c97831
:10021400914200d06ee1002b00d16be106220699d9
:1002240051430c910c980399844620206144049115
:100234000978014200d066e1032e00d15fe1042e6b
:1002440000d151e1022e00d050e10f237a7d9a4370
:10025400032313437b7549e1029a120c8918c0e702
:10026400012b35d101980241664892b26a808242dc
:100274000dd965480293121892b25208092a2dd852
:100284004020084008d041232b700023afe7821a96
:10029400002092b20290f0e749b200291cdb03244b
:1002a4000a9a13a9d2782240a24205d104226046b8
:1002b4000a5411222a709ae7022a03d160460a548a
:1002c4000922f7e7012a05d16346cc540d232b708c
:1002d40001238ce701232b70030088e7ae884b4988
:1002e400b3049b0c8b4205d181232b7000230e2277
:1002f40008927ce731b20491002b07d1002902db7c
:10030400434aaa8073e781222a70f0e70f20331250
:100314003111b404034001403040f60bf6030c964f
:10032400049ea40f002e15da029e002e15d0cf2aab
:1003340046d9032c3fd1152a50d90f2b49d1022a73
:1003440068d90f2953d1002a76d00f286bd1032cfa
:10035400edd173e0029e002ee9d0cf2a00d87fe0d1
:10036400002c78d1152a00d889e0002b00d081e038
:10037400022a00d892e0002900d08ae0002a00d1a5
:100384009fe0002800d093e0002ce6d1002b00d0a1
:10039400b7e1002900d0b4e1002a00d095e00b00b9
:1003a40000240c9a2403104304431b021c43090138
:1003b4000c43ac8069e70134cf3ae4b292b2b6e7b9
:1003c400092bb8d9032cb6d001340a3be4b2dbb212
:1003d400b1e70133153adbb292b2ace70929aed9e1
:1003e4000f2bacd001330a39dbb2c9b2a7e7013114
:1003f400023ac9b292b2a2e77c01002000000020b8
:1004040004000020ff01000001feffffff3f000089
:100414003482ffff092896d90f2994d001310a3874
:10042400c9b2c0b28fe7092804d80530013ac0b276
:1004340092b288e70f200022032cb2d10f2b00d0f8
:100444005be10f2900d058e1002a43d00f2844d0a3
:100454000b0003246be7013ccf3ae4b292b27ce791
:10046400002b00d07ee7231e00d17be7013ce4b2e1
:100474000a2377e7013b153adbb292b272e700290f
:1004840000d075e7191e00d172e7013bdbb20a21e7
:100494006ee70139023ac9b292b269e7002800d086
:1004a4006ce7081e00d169e70139c9b20a2065e783
:1004b400042804d90538013ac0b292b25ee700209c
:1004c4000200002c00d161e76be7002808d00c0083
:1004d4000b0042e70b00032463e701000300fae783
:1004e4000100030004005ce7ff233b75202319434c
:1004f400049b1970059b0133dbb205931ee60f22a2
:100504007b7d1340a6e60c99039c063161180d917e
:100514000978084025d1030010005843049c079d26
:1005240020185c002c5b019d01332c414480042b7a
:10053400f2d1032e0fd0042e05d0022e07d17b7ddd
:10054400013b7b7503e07f223b7d13403b752023f9
:1005540019430d9bcde70f227b7d1a405023134393
:10056400efe70024694a02941a321192062007998f
:1005740062008d5a019a1541069aadb2121992b2cf
:100584005043039a1018418800228d4230d04ed92e
:10059400691a89b24a08944661461a00842927d800
:1005a40000220a2924d980880f258204920f110081
:1005b400cf22514310910f2102120a4015214a43c0
:1005c400109905408a180f210011084040001218a4
:1005d40092b2002d2dd10a99c87811998006800f06
:1005e4004000405a6146414389b28a429241524294
:1005f400029901340a43d2b20292042cb6d1032eda
:100604004ad0042e1cd0022e00d073e7029a797dc2
:10061400002a34d10f200a00024002d0013a029b82
:10062400d2b2814311437975002b2ad162e7491b69
:10063400afe7013292b2052dcdd9053dedb2c8e741
:1006440000220124397d0800d0400023204201d13a
:10065400130008220132d2b2072af4d9029a002ade
:1006640003d001229a4011433975002b09d001228d
:10067400013bdbb29a403b7d93433b753ae7013142
:10068400797500230620452102005a43049c013356
:10069400a154042bf8d12de70799019809887c7d92
:1006a40001410498019d41800b980e998446614450
:1006b40048880c9e2841b4460d9d019e688003988d
:1006c40022096044050088883041e881c9883141a5
:1006d400a9820299002909d1042090424941521863
:1006e4000f2112010c4014437c759de7029b002ae4
:1006f400f6d0013ad2b20023f2e7002a00d0a8e6ed
:10070400e9e6002a00d14be6002426e6422a00004e
:020000040000fa
:10071400f0b587b00090009b0b20002b00d1e2e1e4
:10072400002603275b68049602931b8801960593b1
:100734000396049b059a93421ed1009b1a68137872
:1007440059b200290bda0820002101268446049cb2
:1007540088b2844200d9ffe07f210b401370039bd1
:10076400002b00d009e1019801231178002800d161
:100774005be10b4313705ae1009bb5009b685d1964
:100784001e236a681178194001d001232b702b783d
:10079400042b73d00ad8022b2ed043d8012b23d09c
:1007a400049b033601339bb20493c2e7852b00d12b
:1007b40082e0862b00d1a9e0072bf1d12989538847
:1007c40099425fd9c91a009b0298db6840799b5d06
:1007d40089b20341dbb28b4254d86b78002b69d1c8
:1007e40001232b701770dbe703930029d8d1022370
:1007f4002b7008236b70d3e76978002910d05288d6
:10080400042904d92a810139697001237ce02b89e8
:100814009342f8d002d9013b2b81f4e70133fbe783
:100824002f70bde7298953889942b9d0009ad268bc
:1008340010d9cb1a0299925d49799bb20a41d2b27e
:100844009a42add8029b1b79002ba9d007222a70ab
:100854006b70dae792195b1a11789bb299429fd8b0
:100864009378002b05d00499009801f0b0fd00287e
:1008740096d104232b70029b9b78e9e7298953883e
:10088400994202d92f700023b4e7009a5b1ad26808
:100894009bb2921911789942f4d29378002b06d026
:1008a4000499009801f093fd002800d078e76b7854
:1008b400002b47d0013bcbe7029b00991b7a0968c8
:1008c4000b7128895388984207d986232b70029b81
:1008d4009b786b700123019316e0009a1b1ad2686f
:1008e4009bb291190a784978140001310c41012115
:1008f400121bd2b201919a4200d251e786232b7087
:10090400029b9b786b700b00039349e728895388fb
:10091400984209d96b78002b01d12f7001e0013b7b
:100924006b70012301933be7009a1b1ad2689bb2b8
:1009340091190a784978140001310c41121bd2b282
:100944009a4204d285232b70029bdb78e8e76b780c
:10095400002be2d0013bbce70c2500984d43806896
:1009640045196f683878304205d164462d78a5431f
:1009740001d0304338700131e9e6029b597a0029ed
:1009840000d1f0e6802310785b4203431370012901
:1009940000d0e8e600218bb20393049b88b2834223
:1009a40000d8e0e60c20009b48439b6808251818f3
:1009b400029303781c00ac4315d0852b01d0032b84
:1009c4002ed10325009bdf682b004b43fb189b783b
:1009d4009c46002b07d000231e000595049c9c42d6
:1009e40008d8002e1cd1012540680378ab4303705e
:1009f4000131d0e7039c9c420fd00c255d43029c3f
:100a04002d5d042d01d0862d07d1059d5d437d19f3
:100a1400ad78654501d10126049b01339bb2dde726
:100a24000123406805782b43e1e79943117052880c
:100a3400584b11001b88c8318b4251d99b1a9bb269
:100a44009c466346c82b4dd96346c83b9bb29c4623
:100a5400009b1b685a88c8325a801a79002a00d031
:100a640070e05a79002a01d0013a5a719a79002a21
:100a740001d0013a9a71009a50688679002e07d005
:100a84005a79002a04d1078891b28f4234d85e7112
:100a9400c579002d07d09a79002a04d1068891b22d
:100aa400b1423cd39d71009b5b68da78002ac8d0c0
:100ab4001f880c23002103207b4302938bb2bb428b
:100ac400bfd20c22009b4a439b689a181578852d47
:100ad40004d15578002d38d0013d55700131ede732
:100ae400934202d3002007b0f0bd2b495918891a4c
:100af400c829f7d9013ba1e70c21009c5143a46804
:100b040061180d78032d01d0082d06d14c680d898c
:100b14006488ac4201d901350d810132b4e70c215e
:100b240000985143806841180878032801d00828a8
:100b340006d14c6808896788874201d20138088148
:100b44000132ace7013a1a71ade7012405001470d3
:100b540052684d431070009ad2685519ad78002d33
:100b6400bcd0029c02321c1901920394039a934252
:100b7400b4d0019a1678ae4206d101225e68347868
:100b8400144201d01a703070019a0c33033201926e
:0c0b9400ece7c04692010020ffff0000cb
:020000040000fa
:100ba0000b23f0b587688fb007900493002f1bd0fc
:100bb000c268002a18d04368196801910199002978
:100bc00012d002921a790a235343fb180d93002383
:100bd000049308930d9bbb4209d16a462021079bd1
:100be00052181b6812781a7004980fb0f0bd029b5f
:100bf0000c205b889c46029b62461b7903936344ee
:100c000005936b469b890993634499b20023059c25
:100c1000a2422edb002562462e000599914233dc6c
:100c20006a4213400122397811400b916cd0398906
:100c30004a005218921992b292083a81002d65d159
:100c4000029a1578012d00d9a0e152790a92cf2a93
:100c500000d99be1002b5bd13b817e223b7093430b
:100c6000089a0a371343dbb20893029b0a330293b4
:100c7000b0e704005443019d645d852c01d10a0056
:100c80000123013292b2c2e70c20504301990918a6
:100c90004c6809896488641aa4b221b20a910021bf
:100ca00006910a99002900dd0694624524d1029933
:100cb0000024087801280fd103998c180c214c438b
:100cc00001990c3c0c19616824894888001b002498
:100cd00000b2a04200dd84b2069902980919008989
:100ce00089b2884205d8301c8e4200d2081c0125ea
:100cf00086b2013292b290e701990c380818416827
:100d000000894c88201ae2e73e8199e72b0097e79b
:100d100000220a9b16001b090c930c2063460599c0
:100d2000994200dde1e0b44500d0f0e0012d00d0b3
:100d3000f7e00b00434301990c3bcb1859681b8922
:100d40004988c91a634601335843019b09b21818f0
:100d5000436800895b881b1a1bb2181c002b00da41
:100d60000020012300b20693884206db0b1c0029f9
:100d700000da002319b200230693059b0c20013be7
:100d80009e4200d0d1e00023012d0dd1634658438f
:100d9000019b181843685c880389e41a24b2231c59
:100da000002c00da00231bb203980f2800d9c4e0fe
:100db00000200c2405900698012800d0c1e0039e75
:100dc000a64089b29bb2b6b292b2994200d2bbe0c1
:100dd000d21a90b2c31ac91889b2220001f0a0fb3e
:100de0000123a340c01a80b2039b301880b2022bab
:100df00006d9012d00d0b0e0059a099901f090fbc9
:100e00008022031c5201904201d9684b1b8898b282
:100e1000002d13d10f230a9a1a400fd028215143d5
:100e20002b00814201d8401a83b28022490052012e
:100e3000511a89b20c22180001f072fb0c230c9a93
:100e40009b1a18410123934099b2013b984200d963
:100e500088e00b9b80b20400002b22d0bc88031bcf
:100e60009bb21ab2012d09d14d08002a00db7be0ac
:100e70006d42954200dc94e0cb181ab2022693b280
:100e80005d1cb543adb2002d0bd05b08002a04da1f
:100e900053429bb25b085b421bb2e418a4b2013917
:100ea0000c40029bfe880299b8809d795879097898
:100eb000a31b9bb21ab201290ad10009814089b251
:100ec0004808002a55da4042904203ddc9180ab2a8
:100ed000002a5fda5242bb7812b29a424edc0023fb
:100ee0007f2252421343dbb2b7e604005c43019910
:100ef0000c19616824894988091b09b2002903dd9e
:100f0000914201dd0a001e0001339bb207e77043e6
:100f1000019b0c381818436859880389c91a09b20b
:100f200024e700230693190027e7731c4343019825
:100f3000c31858681b8944882fe7042008240590ab
:100f400039e76046361a3be75b1a98b2511a4118e6
:100f500089b2220001f0e4fa46e70999059a0139bd
:100f600089b24be7481e74e7aa4287dd5a1a12b2cb
:100f700084e782420edd5a1a12b2a9e700237d707f
:100f8000bb70b442abd0fc800223a9e702230493d8
:100f9000002362e67b789a42a1dd0023bd707b705e
:100fa000efe7531c00d073e77be7c046e62c000058
:020000040000fa
:100fb000f8b5de4657464e464546e0b540f2b11319
:100fc000c2f2000307221a701e00b34f002540f240
:100fd000070843e040f2b613c2f200031d7040f26e
:100fe000b013c2f200031d7040f2b213c2f200034c
:100ff0001d7040f2b713c2f200031d7040f2a4133b
:10100000c2f200031d705d70002440f2b019c2f2fc
:10101000000940f2030b40f2010a0ce05b461b1b87
:1010200052469a4013004a46127813434a461370b8
:101030000134042c05d0a0b201f0dafd0306f7d587
:10104000ece7280001f0defd030611d440f2b013f6
:10105000c2f200031a7812011a70357033789a00c0
:10106000d219062b00d110e1072bfad811688f4650
:10107000280001f0a8fdc0b2400940f2b513c2f249
:101080000003187040f2b613c2f2000380221a70f7
:101090000028dbd043461a1a8023033c21009140ec
:1010a0000b43dbb20138c0b201320028f6d140f266
:1010b000b612c2f20002137040f2b513c2f200037e
:1010c0001d70c3e740f25624c2f2000442f63930e4
:1010d000c0f20000210001f0ebfd257040f2af11dd
:1010e000c2f200010122202001f0c6fb012333706f
:1010f000b4e740f25623c2f200031b78012b08d05c
:1011000040f25623c2f200031b78022ba6d13570a1
:10111000a4e740f2b313c2f200031b7823b340f2fa
:10112000b413c2f200031b788bb340f2b213c2f2c5
:1011300000031b78f3bb40f2a411c2f2000140f29d
:10114000b013c2f200031b784b7014230b70022201
:10115000202001f091fb40f2b213c2f20003012201
:101160001a700223337079e740f2a411c2f2000131
:101170004d700d700222202001f07efb40f2b3136f
:10118000c2f2000301221a700223337066e740f2b4
:10119000a411c2f200014d7001240c700222202023
:1011a00001f06afb40f2b413c2f200031c70022388
:1011b000337053e740f2a411c2f2000140f2b613bb
:1011c000c2f200031b784b7015230b700222202003
:1011d00001f052fb40f2b713c2f2000301221a7071
:1011e000022333703ae740f25623c2f200031b7821
:1011f000012b0ad040f25623c2f200031b78022bc7
:1012000000d02be70333337028e740f25623c2f2b5
:1012100000031d7040f2af11c2f200010122202034
:1012200001f02afb0323337018e740f25623c2f281
:1012300000031b78012b1bd040f25623c2f200039f
:101240001b78022b00d009e740f25621c2f20001c0
:101250000d7042f63930c0f2000001f029fd40f275
:10126000af11c2f200010122202001f005fbf5e6da
:1012700040f2b713c2f200031b7813b10623337098
:10128000ece63570eae63570e8e63cbc90469946f7
:0c129000a246ab46f8bdc046842a000010
:020000040000fa
:10129c0070b540f60003c4f200239b7d43b340f2cb
:1012ac001813c2f200039c6a40f60003c4f2002338
:1012bc005b8b9b071dd540f21813c2f20003202252
:1012cc00ff2199540132fd39995440f21813c2f29e
:1012dc00000320229b5c5bb2013300d1e6e040f2bc
:1012ec001813c2f2000320229b5c062b00d109e1eb
:1012fc0070bd40f60003c4f200235b8bdb070ad5fc
:10130c0040f21813c2f200032022ff21995401323b
:10131c00fd399954d9e740f60003c4f200235b8be6
:10132c005b070ad540f21813c2f200032022ff21fa
:10133c0099540132fe399954c7e740f21813c2f29e
:10134c00000320229b5c5bb2032b78d0042b1bd0b8
:10135c00022bbad140f21813c2f200031b694bb135
:10136c0040f21813c2f20003988880b2002101f0f9
:10137c0067f8aae740f21813c2f20003988880b20b
:10138c00012101f05df8a0e740f21813c2f200034e
:10139c009a691b69934219d040f21813c2f20003e8
:1013ac009b68985c40f60003c4f200232821585433
:1013bc00511c40f60002c4f20022d369002bfcd170
:1013cc0040f21813c2f2000399617ee740f2181341
:1013dc00c2f200035b69d3b140f21813c2f20003ee
:1013ec009b885b0001221343d202c4f20022536299
:1013fc0040f60002c4f20022d369002bfcd140f26b
:10140c001813c2f200032022032199545de740f621
:10141c000003c4f200235968c02292020a435a60a6
:10142c0040f60002c4f20022d369002bfcd140f23a
:10143c001813c2f2000320220621995445e740f20a
:10144c001813c2f20003d9695b69013b8b4215d0ba
:10145c0040f60002c4f20022d369002bfcd140f20a
:10146c001813c2f20003d86840f60002c4f200223e
:10147c002825525d42540131d96126e740f600031c
:10148c00c4f200235868e022d20202435a6040f6ac
:10149c000002c4f20022d369002bfcd140f21813d5
:1014ac00c2f20003202206209854d1e740f2181310
:1014bc00c2f200030021995440f60003c4f2002349
:1014cc005968c02292020a435a6040f60002c4f2e4
:1014dc000022d369002bfcd140f60003c4f2002398
:1014ec0083221a7640f21813c2f200035b6a002bb7
:1014fc0000d1fde640f21813c2f200035b6a200033
:10150c009847f5e640f21813c2f20003002220219e
:10151c005a5401315a5440f60003c4f2002383326a
:10152c001a7640f60002c4f200220f31538b0b40a6
:10153c00102bfbd140f21813c2f200035b6a002b94
:10154c0000d1d5e640f21813c2f200035b6a20000a
:04155c009847cde6f9
:020000040000fa
:10156000440100201c000000000000007001002069
:101570000c00000000000000a60100200100000097
:1015800000000000ac01002003000000000000008b
:10159000a70100200100000000000000a9010020b8
:1015a0000100000000000000b80000206000000002
:1015b00000000000080000206000000000000000a3
:1015c00094010020080000000000000088010020b5
:1015d0000a00000000000000a80100200100000037
:1015e00000000000aa01002001000000000000002f
:1015f000600100201000000000000000ab0100208e
:101600000100000000000000840200200300000030
:1016100001000000000102007c0200200600000022
:10162000010000000800413000020000b801002065
:1016300030000000010000000040000000800000b9
:10164000000001000000020008000000000000048b
:1016500000400000008000000000010000000200c7
:101660000400000000000004400200200c00000004
:10167000010000007c020020b8010020e8000020ea
:10168000e80100201800000001000000140100140f
:1016900001001401001401001401011401011401de
:1016a000011401014c0200200a00000001000000aa
:1016b00008000400050014051401000000020020c9
:1016c0002000000001000000940100204c020020d6
:1016d00008000020e801002008000300800200202c
:1016e00084020020011906006402002008000000a6
:1016f0000100000020020020100200202002002033
:10170000100000000100000000000000b8000020f0
:10171000e8000020ac010020580200200a00000070
:101720000100000000000400048a0800140000000a
:10173000300200201000000001000000a80100207d
:101740006c02002088010020580200206c0200205a
:10175000100000000100000008000020010000004f
:101760000001020304050607af0100200900000084
:1017700000000000a40100200200000000000000a2
:1017800056020020010000000100000002000000dd
:10179000180100202c000000000000009201002031
:1017a00002000000000000005702002001000000bd
:1017b00001000000010000007c0100200c0000007e
:1017c00000000000000000200800000000000000f1
:1017d0009c010020040000000000000068000020c0
:1017e0005000000000000000a001002004000000e4
:1017f0000000000000000000000000006666666651
:020000040000fa
:10180000f0b587b0019001f03dfa02200327984c13
:10181000984e238883432380019b1f40c340dbb243
:101820000393002f00d1eae001f02cfa18230025e1
:10183000039a5a43336800925b689b181a69236abb
:1018400012031b0d120b1b051343236233685a68e6
:10185000009bd2180123ab4012691a4203d0864b79
:10186000e85c00f0a5ff0135142defd13368009a34
:101870005b68bf009b185a681d6815439a68db684f
:1018800015431d432d0301f0fdf92b0b0293e36972
:10189000029a1b0d1b051343e36101f0f3f9336852
:1018a0005b68df19009bfa58636a12031b0d120b69
:1018b0001b05134363620f23002201279c46029bf2
:1018c000d3403b4214d06c4b6c48d15c65464b080e
:1018d0001b181878394200d1bce0284018705020fd
:1018e0001d7828431870664bc91800230b700f70c1
:1018f0000132142ae3d10627019b5f4333689b68ba
:10190000db199d8801f0bef93368ad049b68ad0c0e
:10191000df190422bb5e002b00daa0e07f22a37b4c
:101920001340a3733b789b0701d505233b703f7899
:1019300001f0a8f90023ff067f0f9f4205d133680d
:10194000009a5b689b189b7d1b094b4a4d49d31835
:101950000f221b7d0d401a40120415439b064a4a74
:101960009b0f1b0515401d433368009a5b689b184d
:101970001b7dfa2b00d977e004332d021b062d0abc
:1019800007271d4301f07ef93368009a5b683f49e1
:101990009b185b7d62681b093b400a401b05134393
:1019a000636001f06ff9032033685968009bc91820
:1019b0004a7d2388024036481202034013432380a5
:1019c000cb7d1f40bfb201f05df9a56001f05af96f
:1019d000a78101f057f93022a37b9343a37301f051
:1019e00051f9022322881343238001f04bf901238c
:1019f000227c1343237401f045f907b0f0bd33682e
:101a0000019a9b683d00009306239c465a43009b25
:101a100039009b180293634605900493049b029837
:101a20004b43c35c0598013103401d430429f5d1a4
:101a3000002d00d1f8e68d20022500991832029b76
:101a40008a188000197898802943197006339a42c1
:101a5000f8d1e9e6a84318701d78052041e78023f6
:101a6000a27b5b4213435ce7ff231b0688e7c0466b
:101a70000024004200000020422a000030300040d4
:101a800040300040fffff0ffffffcfffffff8fff61
:041a9000fffcffff59
:020000040000fa
:101a9400f0b502008db00b20002a6ad05568116899
:101aa400ab7801934b7802932b7b002b3ed0002420
:101ab40020002b889c46019b5b000393029b5e00e5
:101ac4006746a3b29f4256d86b7b984200d87be00e
:101ad400cb6802995b181978013119701168536841
:101ae4004878c968085c997b88421fd169469d681b
:101af400029b0989e81803780391002b53d0013b1a
:101b0400dbb26e466f46b68800213e823e8a0124cf
:101b1400b44667468eb2b74247d8002cedd0037066
:101b24000023180051688978994247d8029b694676
:101b34005b000a93019b56685b08013306936b466e
:101b44009b888b818b890b9300239c46039333885a
:101b540003998b4244d8029b01990133dbb28b4237
:101b64008941b0680b40c05c71680870002012683d
:101b740053700db0f0bd062363438f68fb185f8874
:101b84004b689b5b9f420ad9fb1a9bb21f1c834282
:101b940000d2071cb8b2039b0134f61890e79f42a9
:101ba400f9d2db1bf1e70f23abe7039fb74203d066
:101bb4006e5c9e4200d100240131aae71168c96815
:101bc400c85401339bb2ade75b088342aed9cb68fe
:101bd40002995b1819780029a8d001391970a5e772
:101be4000623039910684b438168cb1804931b7830
:101bf400db065b0f40d161464068490041180591fe
:101c04000499059849880a9c0993015301999942ba
:101c14002ed9002005995d0049190891040001217d
:101c24000de09f420ad0059d6700ed5b0795089d76
:101c34002f88079dbd4215d10131c9b20134019de0
:101c4400e7b2bd42edd8069c8c4204d9844206d941
:101c54004118a14203db089b1b880993019b0133b4
:101c6400dbb2d3e7079dbd42e8d20130c0b2e5e75d
:101c74006946049b898c5980039b0b9901339bb261
:0e1c8400039363468c4663449bb29c465fe725
:020000040000fa
:101c920070b540f2a613c2f200031b781b070bd1ea
:101ca20042f6dc34c0f2000425001335207800f03f
:101cb20068ff0134a542f9d1552000f062ff40f2dd
:101cc200a613c2f20003187800f05bff40f2e81698
:101cd200c2f2000600240ae0012000f052ff307830
:101ce20000f04fff0134a4b20336082c38d0200094
:101cf20000f02fff0500c0b200f043ff2d0ae8b24a
:101d020000f03fff200000f052ff0500c0b200f0db
:101d120038ff2d0ae8b200f034ff200000f019ff6e
:101d22000500200000f043ff2d1aadb2e8b200f02a
:101d320028ff280a00f025ff200000f016ff05000a
:101d4200c0b200f01eff2d0ae8b200f01aff200018
:101d520000f04dff0306bfd4002000f012ffbee7e3
:101d620040f28813c2f200031b78db0747d501203b
:101d720000f007ff40f28814c2f200042589e8b29d
:101d820000f0fffe280a00f0fcfe40f25823c2f2e7
:101d920000031d89e8b200f0f4fe280a00f0f1fe0b
:101da200e488e0b200f0edfe200a00f0eafe40f224
:101db2001023c2f200035b68187800f0e2fe0024f0
:101dc20040f21025c2f20005ab68185d00f0d9fea2
:101dd2000134032cf8d140f2a913c2f2000318789f
:101de20000f0cffe40f2a613c2f200031878421ca4
:101df2001a7000f0c6feaa2000f0c3fe70bd0020db
:061e020000f0bffeb6e790
:020000040000fa
:101e080010b540f2aa13c2f200031b78012b07d0c9
:101e180040f2ab13c2f200031b78012b13d010bda4
:101e280042f6a341c0f2000140f24020c2f2000095
:101e380000f062f80028ebd140f2aa13c2f20003c6
:101e480000221a70e4e740f2ab13c2f2000300224a
:101e58001a70fef75bf978bb40f26420c2f200000a
:101e6800fff714feb0b940f20020c2f20000fef7fe
:101e78004dfcc0b940f23020c2f20000fef78cfee3
:101e880010b340f2a913c2f2000304221a70fff73c
:101e9800fcfe19e040f2a913c2f2000302221a70f4
:101ea800fff7f3fedfe740f2a913c2f200030322b3
:101eb8001a70fff7eafedde740f2a913c2f2000349
:101ec80001221a70fff7e1fe40f20023c2f200037c
:101ed8001b681b787f2b08d840f2a713c2f20003b7
:101ee80001221a70fff7d1fe99e740f2aa13c2f255
:081ef800000301221a70f5e756
:020000040000fa
:101f0000f7b5060001910b24002958d0002856d0bf
:101f10002d4d0324ab78002b51d00124042b4ed03f
:101f20002a4f3b7cdb07db0f009348d10224036878
:101f30005b79013ba34242d800f0a4fe3b88a34357
:101f40003b80234b234f1e60019b6b6000f0befb68
:101f50008022214bd200da67bff34f8fbff36f8f20
:101f600000f090fe03221d4b1a7000f08bfe012240
:101f70001b49ff200b78000413430b70194b1a7098
:101f8000c22380225b00d200fa503368d83a5b79d2
:101f9000b9589b050340144801400b43bb508023b4
:101fa000db007b606b461b882b8000f089fa061ee5
:101fb00007d104232888ab703400fff721fc2000f0
:101fc000febdac70fbe7c0467c010020002400424f
:101fd0000000002000e100e008e100e02a240042c7
:0c1fe0002924004257020020ffff00fff0
:020000040000fa
:101fec0041f20003c4f2000386221a7641f2004348
:101ffc00c4f2000300221a7441f60043c4f2000339
:10200c000632ff32c0f201021a6241f60042c4f2fb
:10201c000002042153681942fcd141f60043c4f27a
:10202c00000340f20512c0f202025a6241f600426d
:10203c00c4f20002082153681942fcd141f6004356
:10204c00c4f2000398224121995041f60042c4f297
:10205c0000029820013913581942fcd041f6004374
:10206c00c4f20003ac224021995041f60042c4f264
:10207c000002ac2013581942fcd041f60043c4f2c4
:10208c000003b0224021995041f60042c4f20002f4
:10209c00b02013581942fcd041f60043c4f200039f
:1020ac00cc224121995041f60042c4f20002cc20ce
:0a20bc00013913581942fcd0704797
:020000040000fa
:0220c600704761
:020000040000fa
:1020c8008021f8b52f4bc9001a690a431a61c0224a
:1020d8001c69920114431c615c6921435961596967
:1020e8000a435a610b2300282dd0002118260c0022
:1020f80003681d88ad088bb29d4226d80223002ca8
:1021080021d0214e214db378002b2ed1012700f08c
:10211800b5fd2b883b432b8000f0b0fdab69220353
:102128001b0d120b1b051343ab61b7700025230071
:10213800eb40db0703d5164be85c00f035fb0135b7
:10214800142df4d100231800f8bd32004a43436827
:1021580001319a18136857683b4323439468234313
:10216800d468234314691c43c5e700f087fdaa69b6
:10217800ab69224312031b0d120b1b051343ab6102
:10218800d4e7c046003400407c010020002400420f
:04219800422a0000d7
:020000040000fa
:10219c000321204a70b5117002211f4b1f4c1a8865
:1021ac008a431a801e4a9b8f218812689bb2480072
:1021bc0083521c4a1278012a02d0022a0fd070bd19
:1021cc000131218000f076f9002805d12088fff735
:1021dc0011fb0423a370f2e763689847efe7182616
:1021ec000f20114a4e4315686a689619b27d10404b
:1021fc00f27d0026904202d2013a121ad6b2062281
:10220c00f3405143a86841184b800223a370a36884
:10221c00e3e7c0462a240042002400427c0100204f
:0c222c00040000205702002000000020e9
:020000040000fa
:1022380030b5bff35f8f62b64ef20013cef20003e3
:1022480040f2003419591b480140c02212041143be
:1022580019510421196018341959014011431951b1
:102268008021c904196019590902090ac0252d06d7
:102278002943195180210905196004341959ff258a
:10228800a9433f3d2943195180214905196019592e
:10229800094d29404cf2000529431951802189052f
:1022a80019600c341959084002431a5140f200428f
:0c22b8005a6030bdffff00ffff00ffff79
:020000040000fa
:1022c40040f60003c4f2002301221a60d202c4f2d1
:1022d4000022d369002bfcd140f60003c4f2002392
:1022e40040f200125a60d200c4f20022d369002bdb
:1022f400fcd140f60003c4f200232222da600c3a37
:10230400c0f210021a6040f60002c4f20022d3693f
:10231400002bfcd140f60003c4f2002310225a83a0
:10232400d201c4f20022d369002bfcd140f218136d
:10233400c2f20003002221215a5401395a5440f6b2
:0c2344000003c4f2002383329a75704736
:020000040000fa
:1023500070b500f005fb40f24020c2f20000fff72c
:10236000b3fe40f26010c2f2000000f055fc002401
:1023700040f24025c2f200052100280000f092fb47
:102380002100280000f022fb0134a4b2082cf3d174
:10239000002440f27426c2f2000640f20025c2f288
:1023a0000005a35d5a00d218520040f2e803c2f2c1
:1023b00000039c466244e1b2280000f083fb013434
:1023c000082ceed140f23020c2f2000000f0ccf92f
:0223d00070bdde
:020000040000fa
:1023d200f7b50c25c3684d439c46032382684b43e3
:1023e20055196c6863442d8964889f781b78641b37
:1023f200e41aa3b201930025436860461e88b542e1
:1024020001d10020febd8d4218d08378bb4215d188
:1024120013787b33dbb2012b15d913899c465368a1
:102422005b889c450ad264461b1b04789bb2a3427c
:1024320004d91b1b019c9bb29c4204d30135adb253
:0a24420003300c32dbe70120dce779
:020000040000fa
:10244c0010b540f21813c2f2000300229a61da614f
:10245c0040f60003c4f2002383321a765a68144cf7
:10246c0022405a6040f60002c4f20022d369002bcd
:10247c00fcd1a9b140f21813c2f2000320220324ac
:10248c009c544000084340f60003c4f200235862f9
:10249c0040f60002c4f20022d369002bfcd110bd1f
:1024ac0040f21813c2f20003202204249c54e8e7e3
:0424bc00fffffbff24
:020000040000fa
:1024c000f7b5154a154b14681b88226812880192cb
:1024d000019a93421bd20320d9b2002281430620e5
:1024e00015008446a7686646881870430126c05dbb
:1024f000304200d035000132042af4d1002d02d13f
:1025000001339bb2e4e70020044a1380febd0022a1
:10251000024b01201a80f9e7000000207c01002016
:020000040000fa
:10252000013210b5d2b2002906d1134b180010bdec
:10253000013a4000d2b280b203b2002b01db002a84
:10254000f6d10bb2002b11da0023002aeed01cb218
:10255000002ceadb5b00013a9bb2d2b2884203d383
:10256000401a013380b29bb24908eee701324900bc
:0c257000d2b289b2e5e7c046ffff0000d0
:020000040000fa
:10257c0000230e4a10b513600d4a0e4c13600e4a20
:10258c0013600e4a13600e4a13600e4a53621361b5
:10259c000133936000f0a3fb00f0a1fb0a4b9c42bb
:1025ac0000d310bd08cc9847f8e7c046a001002026
:1025bc007400002000010000700000206800002062
:0c25cc006c0000207800002004010000da
:020000040000fa
:1025d80010b542f63703c0f20003984742f63703b6
:1025e800c0f20003984700f0d3f940f20003c0f2ac
:1025f80000037f2293434ef60052cef2000293600e
:1026080042f27d53c0f20003984742f63703c0f206
:102618000003984742f63703c0f20003984700f0da
:04262800fbf9fee7d5
:020000040000fa
:10262c0042f20043c4f2000301221a8042f200423b
:10263c00c4f20002012113691942fcd142f2004399
:10264c00c4f2000340f280121a80803aff3a1a62f8
:10265c0042f20042c4f20002202113691942fcd15b
:10266c0042f20043c4f2000340f200125a81704758
:020000040000fa
:10267c0040f20043c4f2002340f20412c4f23102cf
:10268c001a600e4a9a81c02292025a6040f20042ad
:10269c00c4f20022d369002bfcd140f20043c4f2f7
:1026ac0000231a6802210a431a6040f20042c4f265
:1026bc000022d369002bfcd17047c04604c5ffff34
:020000040000fa
:1026cc0070b500f0d9fa104b02201b681b689a7881
:1026dc00412a15d11b7908240f2b12d80f22134035
:1026ec00a3401c43c023db011c4300f0c5fad023dc
:1026fc00064d2b8000f0c0fa6c6000f0bdfa002093
:10270c0070bd80235b01ece7000000200024004238
:020000040000fa
:10271c0043f20003c4f20003012242215a54013156
:10272c005a540d315a5401315a5401315a54013111
:10273c005a5403315a5401315a5401315a5401310b
:10274c005a54103228395a540f3938201954013040
:0c275c001a5402301a542b329954704762
:020000040000fa
:1027680030b584680b23002c10d0c16800290dd027
:102778000022036806311a704068631c05790a2034
:10278800684301302418a34202d10023180030bd49
:102798001a7008780a315870d81c0280581d0280b7
:0827a800d81d02800a33eee7a0
:020000040000fa
:1027b000012210b54308104210d00f210b4a9b187c
:1027c0001a780a401a70102219780a431a70084bb6
:1027d000c018002303700123037010bd0f240349a8
:1027e0005b181978a14319701978eee73030004072
:0427f0004030004035
:020000040000fa
:1027f40070b5d0b1d9b1002540f20042c4f2002234
:102804000124072605e06b00c35a13850135a9424c
:1028140009d0137e2342fcd053683340012bf2d0fd
:10282400435d1385f2e7012070bd0020fce7012021
:02283400fae7c1
:020000040000fa
:022836007047e9
:020000040000fa
:1028380010b5054c227832b9044b13b1044800e0b6
:1028480000bf0123237010bd4401002000000000d8
:1028580000000000034b10b51bb10349034800e01a
:1028680000bf10bd0000000048010020000000006b
:020000040000fa
:1028780070b5050040f21813c2f2000320201b5c5b
:10288800002003b170bd40f21813c2f200039d800e
:102898000024dc605c6199601a619c701c702122c4
:0e28a8009c5400212800fff7cdfd0120eae737
:020000040000fa
:1028b60040f20043c4f2000300221a819a790121f2
:1028c6000a439a719b7803221340022b0cd040f2e4
:1028d6000043c4f20003013a9a705202c4f20002a5
:0a28e600012193790b42fcd07047ea
:020000040000fa
:1028f00010b542f20042c4f20002918989b240f25e
:102900007013c2f2000359600649918192891b68d5
:102910003bb140f27013c2f20003586899681b681b
:08292000984710bdffc1ffff45
:020000040000fa
:1029280010b544f20003c4f2001304225a60fff702
:10293800befffff7effefff755fb00f07df9fff74d
:10294800bdfcfff797fefff7bafbfff76bfefff73b
:08295800fbfcfff76dfc10bd54
:020000040000fa
:1029600010b542f6d940c0f20000002100f092f903
:1029700042f20042c4f20002082113691942fcd15c
:1029800000f070f8002000f0bbf8142000f0c6f84a
:0629900000f035f810bd57
:020000040000fa
:02299600fee75a
:020000040000fa
:1029980010b50a48016821b9436813b900f0a0f9d5
:1029a80010bd04008368064a9bb20c349b009b58f8
:1029b80042682000984780002018ebe76015000067
:0429c8002c2c0000b3
:020000040000fa
:1029cc0010b50b23002812d00268022314888c4205
:1029dc000dd99278412a0ad106224a438168891876
:1029ec0008788d2203430b70002392008a80180014
:0229fc0010bd0c
:020000040000fa
:1029fe0042f20043c4f200031a8802210a431a80ed
:102a0e0042f20042c4f20002022113691942fcd1c3
:022a1e007047ff
:020000040000fa
:102a200010b50020fff780ff40f2a714c2f20004a7
:102a300001e0fef7bdfafff7e7f92378012bfad1a1
:022a4000f7e7b6
:020000040000fa
:102a420000010203050608090a0b0e0f10111213ea
:102a520016171e1f3f1c0b0503010700130035004c
:022a62009000e2
:020000040000fa
:102a640042f20043c4f200031a8802218a431a8006
:102a740042f20042c4f2000213691942fcd17047c9
:020000040000fa
:102a8400c4100000f2100000e61100002a12000039
:102a9400621000008612000062100000d40f0000d3
:020000040000fa
:102aa4000b2300280ad003681a8802238a4205d916
:102ab40006235943012382688b540023180070476e
:020000040000fa
:102ac4000b23002809d0002a07d00c234b4381682c
:0e2ad400c91801230b7000234a6018007047d8
:020000040000fa
:102ae200002310b5934206d103201840421e9041a4
:0e2af2009b08c01810bdc45ccc540133f2e741
:020000040000fa
:102b000042f20043c4f20003986142f20042c4f270
:0c2b10000002082113691942fcd1704733
:020000040000fa
:102b1c0042f20043c4f20003186242f20042c4f2d3
:0c2b2c000002202113691942fcd17047ff
:020000040000fa
:102b380010b5040000f092f818b90cb10123237005
:0c2b480010bd002cfcd002232370f9e724
:020000040000fa
:102b540043001b189b0040f20802c2f20002944694
:082b640063445b685888704768
:020000040000fa
:102b6c0043001b189b0040f20802c2f2000294467c
:082b7c0063445b689888704710
:020000040000fa
:102b840000b583b06b46d871073301211800fff7f5
:062b94002ffe03b000bd9e
:020000040000fa
:102b9a0010b540f2aa13c2f2000301221a701420df
:062baa0000f063f810bd0d
:020000040000fa
:102bb00043001b189b0040f20802c2f20002944638
:062bc00063441889704710
:020000040000fa
:102bc60040f23022c2f20002926883001b185b00ba
:062bd600d318d8887047f7
:020000040000fa
:102bdc005fb400864a03eb00000000000000aa5519
:042bec00016ea000d6
:020000040000fa
:102bf00040f20022c2f20002926843001b189b00c0
:042c0000d05c7047ed
:020000040000fa
:102c040040f23022c2f20002926883001b185b007b
:042c1400d05c7047d9
:020000040000fa
:102c18000b23002802d0024b1860002318007047cd
:042c28000400002084
:020000040000fa
:102c2c00532c0000e32a0000e12c0000e12c0000f2
:042c3c00e12c000087
:020000040000fa
:102c400044f20003c4f2001304225a60033a1a72d9
:022c50007047cb
:020000040000fa
:102c52008a18914201d10020704700230b70013184
:022c6200f7e792
:020000040000fa
:102c640040f21813c2f200032122985cc0b27047ec
:020000040000fa
:102c7400024b1a88801818807047c04692010020c1
:020000040000fa
:102c8400024ad36adb04db0cfbd170470024004208
:020000040000fa
:0e2c940040f27013c2f200031860996070479e
:020000040000fa
:0e2ca20040f2ab13c2f2000301221a70704719
:020000040000fa
:0e2cb00040f21813c2f2000358629962704796
:020000040000fa
:0c2cbe0010b500f004f8fff76afa10bd32
:020000040000fa
:022cca00fee723
:020000040000fa
:0c2ccc000322014b1a7070472a240042ba
:020000040000fa
:082cd80010b5fff75eff10bd0f
:020000040000fa
:042ce0000020704719
:020000040000fa
:022ce400fee709
:020000040000fa
:022ce6000010dc
:020000040000fa
:022ce800704733
:020000040000fa
:022cea00704731
:020000040000fa
:0200000400807a
:044000007f438fb0bb
:020000040000fa
:0200000400807a
:04400400bbfcffff03
:020000040000fa
:0200000400807a
:04c0040000ffffff3b
:020000040000fa
:0200000400807a
:04c04000ffffffff00
:020000040000fa
:0200000400807a
:04c04400fffffffffc
:020000040000fa
:0200000400807a
:04c04800fffffffff8
:020000040000fa
:0200000400807a
:04c04c00fffffffff4
:00000001FF
