:020000040000fa
:10000000f07f0020f12500003b2a0000532b000068
:1000100000000000000000000000000000000000e0
:100020000000000000000000000000005b21000054
:1000300000000000000000005b2100005b210000c8
:100040005b2100005b2100005b210000c52800004f
:100050005b2100005b2100005b2100005b210000b0
:100060005b2100005b210000b92700005b2100003c
:100070005b2100005b2100005b2100005b21000090
:100080005b2100005b2100005b2100005b21000080
:100090005b2100005b2100005b2100005b21000070
:0400a000e92c000047
:020000040000fa
:1000a400f8b5c046f8bc08bc9e4670474125000020
:1000b400f8b5c046f8bc08bc9e4670471925000038
:020000040000fa
:1000c400f0b587b00090009b0b20002b00d1e2e13b
:1000d400002603275b68049602931b880196059308
:1000e4000396049b059a93421ed1009b1a681378c9
:1000f40059b200290bda0820002101268446049c09
:1001040088b2844200d9ffe07f210b401370039b27
:10011400002b00d009e1019801231178002800d1b7
:100124005be10b4313705ae1009bb5009b685d19ba
:100134001e236a681178194001d001232b702b7893
:10014400042b73d00ad8022b2ed043d8012b23d0f2
:10015400049b033601339bb20493c2e7852b00d181
:1001640082e0862b00d1a9e0072bf1d1298953889d
:1001740099425fd9c91a009b0298db6840799b5d5c
:1001840089b20341dbb28b4254d86b78002b69d11e
:1001940001232b701770dbe703930029d8d10223c6
:1001a4002b7008236b70d3e76978002910d052882c
:1001b400042904d92a810139697001237ce02b893f
:1001c4009342f8d002d9013b2b81f4e70133fbe7da
:1001d4002f70bde7298953889942b9d0009ad26813
:1001e40010d9cb1a0299925d49799bb20a41d2b2d5
:1001f4009a42add8029b1b79002ba9d007222a7002
:100204006b70dae792195b1a11789bb299429fd806
:100214009378002b05d00499009801f05fff002823
:1002240096d104232b70029b9b78e9e72989538894
:10023400994202d92f700023b4e7009a5b1ad2685e
:100244009bb2921911789942f4d29378002b06d07c
:100254000499009801f042ff002800d078e76b78f9
:10026400002b47d0013bcbe7029b00991b7a09681e
:100274000b7128895388984207d986232b70029bd7
:100284009b786b700123019316e0009a1b1ad268c5
:100294009bb291190a784978140001310c4101216b
:1002a400121bd2b201919a4200d251e786232b70dd
:1002b400029b9b786b700b00039349e72889538852
:1002c400984209d96b78002b01d12f7001e0013bd2
:1002d4006b70012301933be7009a1b1ad2689bb20f
:1002e40091190a784978140001310c41121bd2b2d9
:1002f4009a4204d285232b70029bdb78e8e76b7863
:10030400002be2d0013bbce70c2500984d438068ec
:1003140045196f683878304205d164462d78a54375
:1003240001d0304338700131e9e6029b597a002943
:1003340000d1f0e6802310785b4203431370012957
:1003440000d0e8e600218bb20393049b88b2834279
:1003540000d8e0e60c20009b48439b680825181849
:10036400029303781c00ac4315d0852b01d0032bda
:100374002ed10325009bdf682b004b43fb189b7891
:100384009c46002b07d000231e000595049c9c422c
:1003940008d8002e1cd1012540680378ab430370b4
:1003a4000131d0e7039c9c420fd00c255d43029c95
:1003b4002d5d042d01d0862d07d1059d5d437d194a
:1003c400ad78654501d10126049b01339bb2dde77d
:1003d4000123406805782b43e1e799431170528863
:1003e400584b11001b88c8318b4251d99b1a9bb2c0
:1003f4009c466346c82b4dd96346c83b9bb29c467a
:10040400009b1b685a88c8325a801a79002a00d087
:1004140070e05a79002a01d0013a5a719a79002a77
:1004240001d0013a9a71009a50688679002e07d05b
:100434005a79002a04d1078891b28f4234d85e7168
:10044400c579002d07d09a79002a04d1068891b283
:10045400b1423cd39d71009b5b68da78002ac8d016
:100464001f880c23002103207b4302938bb2bb42e1
:10047400bfd20c22009b4a439b689a181578852d9d
:1004840004d15578002d38d0013d55700131ede788
:10049400934202d3002007b0f0bd2b495918891aa2
:1004a400c829f7d9013ba1e70c21009c5143a4685a
:1004b40061180d78032d01d0082d06d14c680d89e3
:1004c4006488ac4201d901350d810132b4e70c21b5
:1004d40000985143806841180878032801d00828ff
:1004e40006d14c6808896788874201d2013808819f
:1004f4000132ace7013a1a71ade70124050014702a
:1005040052684d431070009ad2685519ad78002d89
:10051400bcd0029c02321c1901920394039a9342a8
:10052400b4d0019a1678ae4206d101225e683478be
:10053400144201d01a703070019a0c3303320192c4
:0c054400ece7c046aa010020ffff000009
:020000040000fa
:100550000b23f0b587688fb007900493002f1bd052
:10056000c268002a18d043681968019101990029ce
:1005700012d002921a790a235343fb180d930023d9
:10058000049308930d9bbb4209d16a462021079b27
:1005900052181b6812781a7004980fb0f0bd029bb5
:1005a0000c205b889c46029b62461b790393634444
:1005b00005936b469b890993634499b20023059c7c
:1005c000a2422edb002562462e000599914233dcc3
:1005d0006a4213400122397811400b916cd039895d
:1005e0004a005218921992b292083a81002d65d1b0
:1005f000029a1578012d00d9a0e152790a92cf2aea
:1006000000d99be1002b5bd13b817e223b70934361
:10061000089a0a371343dbb20893029b0a3302930a
:10062000b0e704005443019d645d852c01d10a00ac
:100630000123013292b2c2e70c20504301990918fc
:100640004c6809896488641aa4b221b20a91002115
:1006500006910a99002900dd0694624524d1029989
:100660000024087801280fd103998c180c214c43e1
:1006700001990c3c0c19616824894888001b0024ee
:1006800000b2a04200dd84b20699029809190089df
:1006900089b2884205d8301c8e4200d2081c012540
:1006a00086b2013292b290e701990c38081841687d
:1006b00000894c88201ae2e73e8199e72b0097e7f2
:1006c00000220a9b16001b090c930c206346059917
:1006d000994200dde1e0b44500d0f0e0012d00d00a
:1006e000f7e00b00434301990c3bcb1859681b8979
:1006f0004988c91a634601335843019b09b2181847
:10070000436800895b881b1a1bb2181c002b00da97
:100710000020012300b20693884206db0b1c00294f
:1007200000da002319b200230693059b0c20013b3d
:100730009e4200d0d1e00023012d0dd163465843e5
:10074000019b181843685c880389e41a24b2231caf
:10075000002c00da00231bb203980f2800d9c4e054
:1007600000200c2405900698012800d0c1e0039ecb
:10077000a64089b29bb2b6b292b2994200d2bbe017
:10078000d21a90b2c31ac91889b2220001f016fe1b
:100790000123a340c01a80b2039b301880b2022b01
:1007a00006d9012d00d0b0e0059a099901f006fea6
:1007b0008022031c5201904201d9684b1b8898b2d9
:1007c000002d13d10f230a9a1a400fd0282151432c
:1007d0002b00814201d8401a83b280224900520185
:1007e000511a89b20c22180001f0e8fd0c230c9a72
:1007f0009b1a18410123934099b2013b984200d9ba
:1008000088e00b9b80b20400002b22d0bc88031b25
:100810009bb21ab2012d09d14d08002a00db7be002
:100820006d42954200dc94e0cb181ab2022693b2d6
:100830005d1cb543adb2002d0bd05b08002a04da75
:1008400053429bb25b085b421bb2e418a4b201396d
:100850000c40029bfe880299b8809d7958790978ee
:10086000a31b9bb21ab201290ad10009814089b2a7
:100870004808002a55da4042904203ddc9180ab2fe
:10088000002a5fda5242bb7812b29a424edc002351
:100890007f2252421343dbb2b7e604005c43019966
:1008a0000c19616824894988091b09b2002903ddf4
:1008b000914201dd0a001e0001339bb207e770433d
:1008c000019b0c381818436859880389c91a09b262
:1008d00024e700230693190027e7731c434301987c
:1008e000c31858681b8944882fe704200824059002
:1008f00039e76046361a3be75b1a98b2511a41183d
:1009000089b2220001f05afd46e70999059a01399a
:1009100089b24be7481e74e7aa4287dd5a1a12b221
:1009200084e782420edd5a1a12b2a9e700237d70d5
:10093000bb70b442abd0fc800223a9e7022304932e
:10094000002362e67b789a42a1dd0023bd707b70b4
:10095000efe7531c00d073e77be7c0468a2c00000a
:020000040000fa
:10096000440100201c00000000000000880100205d
:100970000c00000000000000d40000203000000047
:1009800000000000f0010020030000000000000053
:10099000cf0100200100000000000000d60100206f
:1009a0000100000000000000040100201e00000003
:1009b00000000000240100201e00000000000000d4
:1009c0005c0000203c00000000000000b801002096
:1009d0000800000000000000940100200a00000050
:1009e00000000000ec0100200100000000000000f9
:1009f000d70100200100000000000000a00100203d
:100a00000a00000000000000850100200100000035
:100a100000000000b40200200300000001000000fc
:100a200000010200ac0200200600000001000000ee
:100a30000500803000030000f401002028000000c1
:100a40000100000000002000000004000000100071
:100a50000000040000000008000004000000000482
:100a60000000040000000020000004006c020020d0
:100a70000c00000001000000ac020020f401002086
:100a8000240100205c0200200f0000000100000093
:100a90003c01003c0100280101280101280101005e
:100aa000780200200a000000010000000500040098
:100ab00005001405140100001c02002020000000a5
:100ac00001000000b8010020780200205c00002036
:100ad0005c02002005000300b0020020b4020020e8
:100ae000011906009c02002008000000010000001f
:100af0003c0200202c0200203c02002010000000dc
:100b0000010000000000000004010020240100207a
:100b1000f0010020840200200a0000000100000013
:100b200001000200038a0800140000004c020020ab
:100b30001000000001000000ec010020a4020020d1
:100b40009401002084020020a4020020080000007c
:100b5000010000005c00002001000000c80100202e
:100b600007000000000000008601002001000000d6
:100b70000000000022010020020000000000000030
:100b8000870100200100000000000000b5010020e6
:100b900002000000000000004201002002000000ee
:100ba00000000000b701002001000000000000006c
:100bb000dd0100200100000000000000980000207e
:100bc0003c00000000000000ac0100200900000013
:100bd000000000007401002011000000000000006f
:100be000d80100200500000000000000de01002008
:100bf0000100000000000000c0010020080000000b
:100c000000000000df0100200100000000000000e3
:100c10009e0100200200000000000000e001002012
:100c20000400000000000000d001002006000000c9
:100c300000000000ed0100200300000000000000a3
:100c4000900200200a0000000100000002330005ad
:100c50001f000007000000006b02002001000000e0
:100c60000100000001000000f3010020010000006d
:100c700000000000aa0100200200000000000000a7
:100c800082020020010000000100000001000000bd
:100c9000600100201400000000000000000000209f
:100ca0000c00000000000000e4010020040000002f
:100cb000000000000c0000205000000000000000b8
:100cc000e801002004000000000000000000000017
:100cd000000000006666666666666666666666664c
:020000040000fa
:100ce0000322f0b5ae4b89b01b7a0392002b14d0cf
:100cf000ac4b1b6804931b6805931b880693aa4b97
:100d00001b6807930023029303936b461a89069b83
:100d10009a4205d30222a24b1a72039809b0f0bd81
:100d2000029b07995b00cc5a062302994b43049916
:100d30008968ce180499029b49683578db00cb1886
:100d4000ed0601936d0f9b79042d00d927e1280052
:100d500001f088ff050013000701d8000f000f21e4
:100d6000019a52790a40934201d99d1aedb22c4161
:100d70007480029b01330293c7e71c418b4aa3b2e4
:100d80007380b788934226d9894a9b182a009bb260
:100d900005998978402923d15b08002a22d0002fa9
:100da00024d0042b26d90f24b9043a123811890f04
:100db000224020402740002d46d0cf2b01d90029ca
:100dc00075d1152b7dd9002a76d10a1e7bd0013929
:100dd000c9b20a2277e0754ad31a9bb20022d7e73c
:100de000002adcd0734a00259742dad18123337080
:100df0000e23039333785a0601d501230fe05bb22b
:100e0000002b0ddb0322059bdb781340022b0bd15b
:100e10000f22019b1b799343019a137109233370ad
:100e2000bf04bf0cb780a4e7012be6d10f22019bc2
:100e30001b791a4030231343019a13710d23eee7f7
:100e40000131cf3bc9b29bb2cf2b01d90329f7d1d6
:100e5000152b0dd90f2a06d10f2203290ad00131f3
:100e6000c9b2052206e00132153bd2b29bb2efe7d0
:100e70000f2af1d0022b0cd90f2805d10f2a0ed141
:100e8000032926d010000fe00130023bc0b29bb214
:100e9000f0e70f28f2d0032925d1032104e0013225
:100ea000d2b205200329f8d0022bcdd81be001399e
:100eb000cf3bc9b29bb280e7013a153bd2b29bb29d
:100ec0007fe7002a81d0022b0bd9002804d1002a09
:100ed00011d11700100006e00138023bc0b29bb2ee
:100ee000f1e70028f3d009038cb212021443274320
:100ef0000001074396e7013ad2b20a20022b00d93b
:100f00005be7f0e71c41019ba4b21f793d09032d6b
:100f100025d02100100000f0ddff00281ad1013596
:100f2000012333700f232d011f40019b3d431d7191
:100f300033787480012b00d01be7ff33ff339c42d2
:100f40002ad91b4be418a4b2052c00d811e745237d
:100f500033700ee7002de3d0013dedb2e2e702254c
:100f6000e0e71c410f25019ba4b21f793d4011d041
:100f70002100100000f0aeff002806d1013dedb2c7
:100f8000012333700f239f43cfe7032df8d00135a2
:100f9000edb2f7e70125f5e7044b1c1bd3e7fee7ad
:100fa000600100200400002008000020ff01000074
:080fb00001feffffff3f0000fe
:020000040000fa
:100fb800f0b502008db00b20002a6ad05568116880
:100fc800ab7801934b7802932b7b002b3ed0002407
:100fd80020002b889c46019b5b000393029b5e00cc
:100fe8006746a3b29f4256d86b7b984200d87be0f5
:100ff800cb6802995b181978013119701168536828
:101008004878c968085c997b88421fd169469d6801
:10101800029b0989e81803780391002b53d0013b00
:10102800dbb26e466f46b68800213e823e8a0124b6
:10103800b44667468eb2b74247d8002cedd003704d
:101048000023180051688978994247d8029b69465d
:101058005b000a93019b56685b08013306936b4655
:101068009b888b818b890b9300239c460393338841
:1010780003998b4244d8029b01990133dbb28b421e
:101088008941b0680b40c05c716808700020126824
:1010980053700db0f0bd062363438f68fb185f885b
:1010a8004b689b5b9f420ad9fb1a9bb21f1c834269
:1010b80000d2071cb8b2039b0134f61890e79f4290
:1010c800f9d2db1bf1e70f23abe7039fb74203d04d
:1010d8006e5c9e4200d100240131aae71168c968fc
:1010e800c85401339bb2ade75b088342aed9cb68e5
:1010f80002995b1819780029a8d001391970a5e759
:101108000623039910684b438168cb1804931b7816
:10111800db065b0f40d161464068490041180591e4
:101128000499059849880a9c0993015301999942a1
:101138002ed9002005995d00491908910400012164
:101148000de09f420ad0059d6700ed5b0795089d5d
:101158002f88079dbd4215d10131c9b20134019dc7
:10116800e7b2bd42edd8069c8c4204d9844206d928
:101178004118a14203db089b1b880993019b01339b
:10118800dbb2d3e7079dbd42e8d20130c0b2e5e744
:101198006946049b898c5980039b0b9901339bb248
:0e11a800039363468c4663449bb29c465fe70c
:020000040000fa
:0211b600704780
:020000040000fa
:1011b800f0b585b0070001f06dfd02225d4c5e4d73
:1011c8002378fe00934323702b685b689b199a78f9
:1011d8005a4b510706d419695948014019615a698f
:1011e8000240a5e0110700d590e080201a69544913
:1011f80040010a4002431a615a6911400843586184
:1012080001f048fd2b685b689b195b88238201f01d
:1012180041fd2b685b689b5b638201f03bfd062305
:101228002a687b439768ff18bb8823833b789b0712
:1012380001d505233b703f7801f02cfdff067f0f99
:101248003f23002f07d12b685b689b195a793d4bc8
:1012580012099b181b7aa37601f01cfd2b685b68aa
:101268009b191b791b09e37601f014fd03212b68f8
:101278005b689b191a7923790a408b4313432371be
:1012880001f008fd07212b685b689e19b279637b22
:101298000a408b43134363732b4b5f68002f26d0a0
:1012a800022501f0f7fc237b1b071b0f039301f0ba
:1012b800f1fc267901f0eefc2378b607ab432370e6
:1012c80001f0e8fc01236279b60f13431d43edb228
:1012d80001f0e0fc1d4b65711a68082300201178a5
:1012e8000b43137003990090194b3200b84701f073
:1012f800d1fc022322781343237001f0cbfc802316
:10130800627b5b421343637305b0f0bdd10605d41d
:1013180080201a690a4980010a406be71969920618
:1013280000d559e7c02292011143196159690a434e
:101338005a6165e7004c0042040000200044004266
:10134800ffcfffffb628000060010020000000204a
:041358000d4c0042f6
:020000040000fa
:10135c0010b5594b1b79022b21d0032b59d0002be4
:10136c000dd0554b00221a71544b1b78002b05d114
:10137c00534b1b881bb2002b00da6fe010bd01f041
:10138c0057fb0528f0d901f0c3fa5528ecd14a4c8b
:10139c000421200001f0aefb02232371e4e7464b4d
:1013ac001b78022b1ad0012bded101f041fb012856
:1013bc00dad901f0adfa040001f0aafa002cd3d16d
:1013cc00aa28d1d13e4803883b494c780122a2403f
:1013dc0013439bb2038003230b71c5e7364b59882b
:1013ec003b2903d9587800f07ff8bde701f020fbca
:1013fc00314b5b8880b28342b6d2314803882e4988
:10140c004c780122a24013439bb2038003230b713f
:10141c00aae72a4b1b78002ba6d1294b1b881b054e
:10142c00a2d0254b1b78012b10d0022b9cd1224c27
:10143c006188607800f058f80023237120490b88ec
:10144c0060780122824093430b808de71a4c6078c0
:10145c00002100f07fff0023237185e7194c2378ce
:10146c00194ad15c194a11701178c9b25b00184a3b
:10147c009a5a032001f0b6f923789b00154a9b5821
:10148c00002098472378144ad15c144a11805900e3
:10149c00134a8a5a9b0013495958012001f07ef8cf
:1014ac0023780133dbb2032b02d0064a137065e7b5
:1014bc00044b00221a7061e7d0010020ed010020de
:1014cc0022010020b6010020302d0000b5010020c3
:1014dc00282d0000002d0000342d000042010020ba
:0814ec00202d0000f42c00008b
:020000040000fa
:1014f400f0b5c64600b5040001f09efa85b2012c91
:101504003ad0002c10d0022c49d0042c00d188e011
:10151400200001f07dfa454b59888000444bc058a7
:1015240001f0ecfa01f0f8f904bc9046f0bd38780b
:1015340001f046fa3b780133dbb23b70073dadb2b4
:10154400052b0ad0072defd93a4ce61d01f0e4f93a
:1015540020700134a642f9d1e9e70023364a13701a
:10156400324a137135490b885078012282409343e3
:101574000b8001f0d1f9d7e7072dd5d92e4fe3e73a
:1015840000232d4a1370294a13712c490b88507873
:101594000122824093430b8001f0bef9c4e7032d7e
:1015a400c2d9254f264b98463c78660036194644e6
:1015b40001f0b2f9307001f0aff9707001f0acf9dc
:1015c400b0700134e4b23c70033dadb2052cd7d009
:1015d400032de9d8a8e73c78200001f0ddf90134b7
:1015e400e4b23c70083dadb2012c0bd0082d9bd960
:1015f400144c2600083601f08ff920700134a642fd
:10160400f9d1e8e700230c4a1370084a13710b4917
:101614000b8850780122824093430b8001f07cf9bf
:1016240082e7082d00d87fe7034fe1e7d0010020cf
:10163400842b0000c8010020860100202201002024
:081644005c020020c00100203f
:020000040000fa
:10164c00f0b5ce46474680b583b0002001f076f960
:10165c004d4f6b469d1d00244c4b984618e04c4b4f
:10166c008022d2039a6137e0494b802212049a619e
:10167c003be043461a702b78002b3ed1444b98220a
:10168c008021c901995049009950802292029a6197
:10169c0000f01cfb3b78012bfad12c706b46dc71f3
:1016ac00200001f093fa7f2399469843c0b201ae13
:1016bc003070012001f08afa4b469843c0b26b4659
:1016cc005871200001f08cfa28703378002bc6d0aa
:1016dc002f4b8022d2035a616b4605331b78002bab
:1016ec00c2d02b4b802212045a61284b1b7822004b
:1016fc00132bbed80133dab2bbe7012001f07afa22
:10170c00c0b26b46d871da799208da71da791f4b6c
:10171c00197853009b181f4a9b5c8b4222d91c4a98
:10172c0094238020c001d0506b46da7953009a186c
:10173c00184b9b185b788b421ad9154a942380213d
:10174c000902d1506b46da7953009a18114b9b1849
:10175c009a780e4b1b789a4210d90d4b802292022c
:10176c005a6195e70a4a98238020c001d050dbe7e4
:10177c00074a982380210902d150e3e7044b8022c9
:10178c0092029a6184e7c046cf010020f301002049
:08179c0000440041181c00008c
:020000040000fa
:1017a40010b5464b1b78012b03d0454b00221a7011
:1017b40010bd444b1b78444a12889a4227d8434ba5
:1017c4001b78022b30d0414b1b78012bf0d1404bbe
:1017d4001a78404b1b889a4259d23f4b1878c0b2b2
:1017e40001f0a8f93a4c2378dbb280003b4a8258d6
:1017f40018009047334b01221a7023780133dbb26f
:101804002370374b1b68187801f00cfad0e72d4c85
:101814002378dbb2324a1268d05c01f003fa2378f1
:101824000133dbb22370c3e7294b1a78294b1b8899
:101834009a4207d3264a1278934217d0204b0022ab
:101844001a70b5e7224c2178c9b2264b587800f0bb
:1018540085fd1c4b01221a7023780133dbb22370ff
:101864001f4b1b68187801f0ddf9a1e7184a1378bb
:101874000133dbb213701c490b881a4a50780122d9
:10188400824093430b80aa2001f0ccf990e7104ae0
:101894001278934203d00a4b00221a7088e70c4a4c
:1018a40013780133dbb213700f4a13885b045b0cab
:1018b4001380aa2001f0b6f97ae7c0466b02002033
:1018c400ed010020ef0100209e010020870100208f
:1018d400ee01002042010020b5010020002d00008f
:0c18e400e0010020d001002022010020c3
:020000040000fa
:1018f0003d490b6a3d4a1a4081235b0013430b624a
:101900000a000823d1680b42fcd0394b5b689b026c
:10191000fe22d203134006221343334a9361042369
:10192000d1680b42fcd0334b334a5a60334a9a6039
:101930001a0053785bb2002bfbdb2e4b304a5a6007
:101940001a0053785bb2002bfbdb2a4b2d4a5a60fe
:101950002d4a9a601a0053785bb2002bfbdb224ab7
:10196000938c80218b4393841023d1680b42fcd04d
:10197000264b1b689b0e3f2b34d09b02802292008b
:101980001343194a93621b4b8622d2015a80164a8e
:101990001023d1680b42fcd0134b1d4ada621a00a7
:1019a0001023d1680b42fcd00f4b06229a841a00f8
:1019b0004023d1680b42fcd00e4b164a5a601a00e5
:1019c00053785bb2002bfbdb0a4b134a5a80134a55
:1019d0005a80134a5a80134b1f225a61da61124a05
:1019e0001a627047203bc8e7000800400000ffcfa4
:1019f00020608000000c004003060100037d000011
:101a00000106010002030100021f000024608000a3
:101a1000dc050a2800070100024200001040000017
:0c1a20001b4100000004004020000900f1
:020000040000fa
:101a2c00f7b580213d4a3e4c1369c90023400b4356
:101a3c00136153692340194351610b24002840d092
:101a4c000368198800231f0001939ab291423ad877
:101a5c000224002f35d0019b00201b043b439c46e5
:101a6c0001210f2410256346c3400b4211d02d4b8e
:101a7c00c35c1f2b35d82c4e5a08921916780b4282
:101a8c002cd026402e431670284a9b181a780a43ed
:101a9c001a7001302028e6d10024254d01f0f8f809
:101aac00244b2c701e7aa6422bd101f0f1f86b4618
:101abc009b883400eb8201f0ebf801231d4aaf82c6
:101acc0013722000febd4468da00a2181488019d30
:101adc0001332543019552881743b6e7a6430e43bd
:101aec00d1e7203b144edbb25a08921916780b4200
:101afc0004d026402e431670104ac6e7a6430e4368
:101b0c00f9e701f0c5f8eb8a019a1a43ea8201f071
:101b1c00bff8ab8a3b43ab82d3e7c04600440042dc
:101b2c00fff8ffff9628000030440041404400417c
:101b3c00004c004260010020b0440041c044004110
:020000040000fa
:101b4c00f7b5070001910b2400294fd000284dd088
:101b5c00284d03242b7a002b48d00124042b45d08c
:101b6c00022403685b79013ba3423fd8224e01f06b
:101b7c008ff83378a3433370204b1f60019beb60cd
:101b8c0000f020fb80221e4b5204da67bff34f8f0c
:101b9c00bff36f8f0723b37201f07af80122737ac7
:101bac00802113437372174b49041a70c023164ad1
:101bbc005b00d150c622ff20134b920099583b6812
:101bcc0081435b799b0103400b430f498b5080226f
:101bdc0052040a6000232b8000f06efd061e07d114
:101bec00042328882b723400fff7e0fa2000febd96
:101bfc002c72fbe760010020004c00420400002026
:0c1c0c0004e100e08202002000e100e0a2
:020000040000fa
:101c18001400001400001301001202001103001048
:101c280004000f05000e06000d07000c08000b0944
:101c3800000a0a00090b00080c00070d00060e0038
:101c4800050f000410000311000212000113000028
:101c58001400001400001301001202001103001008
:101c680004000f05000e06000d07000c08000b0904
:101c7800000a0a00090b00080c00070d00060e00f8
:101c8800050f0004100003110002120001130000e8
:101c980014000014010013020012030011040010c4
:101ca80005000f06000e07000d08000c09000b0abe
:101cb800000a0b00090c00080d00070e00060f00b3
:101cc80005100004110003120002130001130001a3
:020000040000fa
:101cd80010b5244b1b78012b06d0234b1b78012b06
:101ce8000cd0fff737fb10bd20492148fff72aff2a
:101cf8000028f2d11b4b00221a70eee71a4b002283
:101d08001a70fef7e9ff00281ad11a48fff750f9b0
:101d180000280dd11848fef7d1f900280cd1174832
:101d2800fef712fc00280ed0154b04221a700ae0a8
:101d3800134b02221a70ede7114b03221a70eee7db
:101d48000f4b01221a7000f061ff0b4b1b681b78c8
:101d58007f2b03d80b4b01221a70c2e7014b0122db
:101d68001a70bee7d701002085010020dd2c000095
:101d78006c0200209c0200201c0200204c02002063
:081d8800d6010020cf0100206c
:020000040000fa
:101d900070b5274b1b8a9bb226492c228a5c002aed
:101da0001cd00a00c969126a8a4217d2072213405e
:101db000204a946a13d11e490a8b92b21d4b1b6aaa
:101dc00048680721014001291cd01a498969ca5471
:101dd0000133184a1362d2699a4218d070bd1500b7
:101de000d38500f0c7fd00232c22ab54eb61104bd0
:101df000283a1a736b6a002bf0d00e4b5b6a2000f6
:101e00009847ebe70b49896958004252e0e7094bd4
:101e100000222c215a54da61054a283911735b6a71
:101e2000002bdbd0034b5b6a20009847d6e7c04607
:081e300000140042d400002060
:020000040000fa
:101e3800f8b500f02fff02221f4c2378934323703c
:101e480000f00afea08ba18b1c4c1d4a2388126847
:101e58005b00d1521b4b80b21b78012b02d0022ba6
:101e680010d0f8bd23880133238000f027fc002818
:101e780005d12088fff79cf904232372f1e7e36872
:101e88009847eee70f22104b25881e68e900736813
:101e9800002759184b791a408b799a4201d29b1a1c
:101ea800dfb20621f8406943b3685b185880022303
:101eb80023722369e4e7c046004c00426001002019
:0c1ec8000800002082020020040000201e
:020000040000fa
:101ed400f0b506241e4b44431a68002093681c196d
:101ee40063888b422cd02cd2c91a126889b2937899
:101ef400402b00d149080120842921d8002005293c
:101f04001ed9cf250f261527a3881c009804800fff
:101f140068431d1235407d431b11334040195b005b
:101f2400c018344080b2052c0dd8d378094a9b06da
:101f34009b0f5b009b5a594389b2884280414042bf
:101f4400f0bd591ad1e70130053c80b2e4b2eae7aa
:081f540004000020b628000083
:020000040000fa
:101f5c0030b51d4b1d4a1a601d4a1a6101214622db
:101f6c00995401329954002251201a5405301a54b4
:101f7c0001301a54013019540130195402301a54da
:101f8c004a383324185505341a5503341a5501347c
:101f9c0022251d5501341a55c02424025e355c518e
:101fac0010355c51c4241955013419550234195596
:101fbc00cd315a5401315a541d395854013101381c
:101fcc00585404315a5430bd004400410040c208fa
:041fdc0000c0c20877
:020000040000fa
:101fe000f8b51e4b1b7d002b37d01c4a93685168f7
:101ff0001b4a927bd2071dd599421bd91849072647
:10200000164a944617001500012409e03a68d25c8c
:102010000a83013368688a7b22420bd0984209d92f
:102020004a683240012af1d1624612685800825a49
:102030000a83eee7094a936052689a420dd8074b2b
:1020400000221a755a60064a01211173db68002bc1
:1020500003d0024b1869db689847f8bdd400002014
:042060000014004226
:020000040000fa
:1020640070b5184b01221a80174a184c81000b18be
:102074005b001b5d13700b185b00e3189d785570b3
:10208400dd7895701d79d5705d7915719b795371e3
:102094000918490061180b89d380002806d00c4b1d
:1020a400094a1a600b4b08221a8070bd0a4b5978f2
:1020b4000822043000f09afb08220349022000f0b1
:1020c40071faf2e742010020c001002084020020de
:0c20d400e00100209e010020d00100204f
:020000040000fa
:1020e000f7b50c25c3684d439c46032382684b43d8
:1020f00055196c6863442d8964889f781b78641b2c
:10210000e41aa3b201930025436860461e88b542d5
:1021100001d10020febd8d4218d08378bb4215d17d
:1021200013787b33dbb2012b15d913899c46536896
:102130005b889c450ad264461b1b04789bb2a34271
:1021400004d91b1b019c9bb29c4204d30135adb248
:0a21500003300c32dbe70120dce76e
:020000040000fa
:02215a00fee79e
:020000040000fa
:10215c0070b5002830d0194b1a7d0023002a29d1e4
:10216c00164b1860596001321a755c68144b9b7bd6
:10217c00db0716d5002c17d00023114907260125a3
:10218c0007e0c25c0a8301338a7b2a420bd09c4253
:10219c000ad04a683240012af3d15a00825a0a8383
:1021ac00f1e7002400e01c00044b9c60044b01226e
:1021bc005a730123180070bd0023fbe7d4000020e4
:0421cc0000140042b9
:020000040000fa
:1021d000f8b5154b1b681b689a78402a1fd1134a23
:1021e0000425127815431a790f2313400f2a00d9ba
:1021f000102360241c4300f051fd042300260c4fe3
:10220000e4b23b7000f04afd3e7100f047fd3c73c4
:1022100000f044fd3000074bedb2dd77f8bd022041
:10222000802afbd1044adbe7040000209428000048
:0c223000004c0042014c004295280000c8
:020000040000fa
:10223c0070b500f00ffb1348fff7f2fb124800f0eb
:10224c00f7fc00240f4d2100280000f025fc210094
:10225c00280000f033f90134a4b2052cf3d10b4d56
:10226c0000240b4ee1b22a00300000f025fc0134b2
:10227c00a4b20635052cf5d1064800f0d7f900f0cc
:10228c00affb70bd6c020020a001002024010020d7
:08229c001c0200204c0200208e
:020000040000fa
:1022a40010b5114b05221a80104ac100104b5b185f
:1022b40019791171597951719b799371002806d05c
:1022c4000c4b0a4a1a600c4b07221a8010bd0b4ba8
:1022d40059782322043000f089fa072203490220a6
:1022e40000f060f9f2e7c04642010020c801002076
:1022f400f4010020e00100209e010020d001002014
:020000040000fa
:10230400124b134a1a60134a5a81c02292025a602d
:102314001a00138a1bb2002bfbdb0c4a1368022140
:102324000b431360138a1bb2002bfbdb0a4b002206
:102334009a61da611a622c215a545a621a605a60fc
:102344009a601a75da60da857047c0460014004254
:0c235400040131402bf6ffffd4000020f4
:020000040000fa
:1023600070b5012819d004281bd0104b01221a8007
:102370000f4b5e7800f04efb040042000d4bd55a27
:102380002a003100042000f033faa4000a4be1587f
:102390002a00022000f008f902e00800fff782ff9f
:1023a00070bd0800fff75efefae7c046420100205c
:0c23b000d00100200c2d0000842b000048
:020000040000fa
:1023bc00013210b5d2b2002906d1134b180010bd52
:1023cc00013a4000d2b280b203b2002b01db002aea
:1023dc00f6d10bb2002b11da0023002aeed01cb27e
:1023ec00002ceadb5b00013a9bb2d2b2884203d3e9
:1023fc00401a013380b29bb24908eee70132490022
:0c240c00d2b289b2e5e7c046ffff000035
:020000040000fa
:1024180000230e4a10b513600d4a13600d4a13606d
:102428000d4a13600d4a13600d4a5362136101335c
:10243800936000f080fc00f07efc0a4c0a4b9c4242
:1024480000d310bd08cc9847f8e7c046e801002043
:1024580018000020140000200c00002010000020ac
:0c2468001c000020b0000000b4000000c8
:020000040000fa
:10247400bff35f8f62b6114bc02080001a5812025e
:10248400120ac02109060a431a5008221a600830a9
:102494001a580b491140c02212040a431a508022d0
:1024a400d2001a60c62189005a58ff2082433f385f
:1024b40002435a50802252041a60704700e100e03f
:0424c400ffff00ff17
:020000040000fa
:1024c800030010b50b20002b16d01a6802201488c0
:1024d8008c4211d392789b68402a0ed106228d2017
:1024e8004a4380009a189080002006225143022215
:1024f8005b1819780a431a7010bd803ad2b2012ac3
:10250800f3d806224a4301489a18ece76705000009
:020000040000fa
:1025180010b5064c2378002b07d1054b002b02d0b1
:10252800044800e000bf0123237010bd44010020cf
:102538000000000000000000044b10b5002b03d081
:102548000349044800e000bf10bdc0460000000079
:08255800480100200000000012
:020000040000fa
:1025600070b50e4943001a1852008a1855880c4a53
:1025700015800c4e1c18a4003419248954802d1b7e
:1025800095801c18a400a45de40994711b185b00dd
:10259000cb181979d1715b79137270bd24010020b9
:0825a000ac0100205c000020ea
:020000040000fa
:1025a80010b50b4b1b78002b00d010bd094b1870d1
:1025b8000123074803700848037008480370084b54
:1025c8001960084b1a80087800f02afbede7c0462e
:1025d800ed01002087010020ee010020ef0100201e
:0825e800e00100209e0100202b
:020000040000fa
:1025f00010b50a4b98470a4b984700f015f9094b5c
:10260000ff229343084a9360084b9847084b98472a
:10261000084b9847fff71af8fee7c046b7110000cd
:10262000b71100000000000000ed00e019240000d8
:08263000b7110000b711000012
:020000040000fa
:1026380030b584680b23002c10d0c16800290dd058
:102648000022036806311a704068631c05790a2065
:10265800684301302418a34202d10023180030bd7a
:102668001a7008780a315870d81c0280581d0280e8
:08267800d81d02800a33eee7d1
:020000040000fa
:1026800070b504000d00002815d00c4a2c23d35c33
:102690000020002b00d070bd00f06cf9074b9c614e
:1026a000dd6100221a622c2101205854da85044b86
:1026b00004325a73efe70020ede7c046d400002053
:0426c00000140042c0
:020000040000fa
:1026c4000d4a70b51068012502680c491488062269
:1026d4000b885a43a3420ad28668b65c06322e425d
:1026e40002d101339bb2f5e700200b8070bd0023bb
:1026f40001200b80fae7c04604000020600100209e
:020000040000fa
:102704000d4b01221a801a00937a5bb2002bfbdb7b
:10271400094b80221a801a00937a5bb2002bfbdbf0
:10272400054b01229a611a00937a5bb2002bfbdb02
:0c273400014b0122da71704700140040d4
:020000040000fa
:1027400030b50c4c0c4a8300191849008d5c0121ee
:10275000294021701918490051180d7a6570497a7d
:10276000a1701b185b00d3189a79e270db79237192
:0c27700030bdc046d801002094010020bc
:020000040000fa
:10277c0010b50b4a1378dbb20a4908780a49c854d9
:10278c0013780133dbb2137013783c2b04d0012186
:10279c000448fff76fff10bd130000221a70f6e714
:0c27ac00dd010020de010020980000206c
:020000040000fa
:1027b80010b50c4b5b7b002b13d00a4a937bdbb222
:1027c800527bd20703d5db0701d5fff705fc054a85
:1027d800937bdbb2527b520703d55b0701d5fff72a
:0827e800d3fa10bd00140042f9
:020000040000fa
:1027f000f8b507000e0014000a4d00232b70552079
:1028000000f08cf9380000f089f9300000f086f90a
:10281000e0b200f083f9200a00f080f901232b7068
:08282000f8bdc0466b02002068
:020000040000fa
:1028280010b50b480168002905d14368002b02d177
:1028380000f080fa10bd04008368064a9bb20c348d
:102848009b009b5842682000984780002018e9e7c1
:0828580060090000502c000093
:020000040000fa
:1028600010b50021094800f027fa094a937a5bb2b3
:10287000002bfbdb00f07af9002000f08ff9142028
:1028800000f096f900f066f910bdc046192d000061
:0428900000140040f0
:020000040000fa
:1028940080a00203040506072021222324252627dd
:1028a400282908090a0b10111213141516172c2db8
:1028b4002e2f07001300350090003f1c0b05030169
:020000040000fa
:1028c40010b508490b7adbb2074a1371c1230b72a6
:1028d4001368002b04d01079c0b29168136898472c
:0c28e40010bdc046001400408801002018
:020000040000fa
:1028f00010b5040001000648fff7e6fd620012195a
:102900005200044b9a18e1b2034800f0dbf810bd06
:0c2910006c020020240100201c020020aa
:020000040000fa
:10291c00084a1378dbb20849c85c13780133dbb280
:10292c00137013783c2b00d07047130000221a70e0
:0c293c00fae7c046b70100209800002018
:020000040000fa
:1029480010b5094b06225a60fff704fbfef7ccffcf
:10295800fff7d4fc00f0a6f9fff7d0fefff76afcfa
:0c296800fff784fd10bdc0460040004198
:020000040000fa
:10297400084b1b8a5b070bd0064b07221a829b7bf2
:102984005b0705d5034b04211a8b9a7b0a42fbd1c2
:082994007047c0460014004228
:020000040000fa
:10299c0030b5074983001a1852008a18054c25795e
:1029ac005571657995711300e2881a8130bdc04666
:0829bc0084020020c00100208c
:020000040000fa
:1029c40010b5c200064b9b18064a1179197151794a
:1029d400597192799a7180b2fff788ff10bdc04691
:0829e400f4010020c8010020ed
:020000040000fa
:1029ec0010b50021054800f067f90021044800f0fb
:1029fc0069f901210348fff73dfe10bda517000042
:082a0c007d270000de0100201f
:020000040000fa
:102a140000280ed001280ad0022808d0032806d0a6
:102a2400042804d00023052801d0180070470300af
:062a3400fbe70300f9e7d7
:020000040000fa
:022a3a00fee7b5
:020000040000fa
:102a3c00064b1b78064a10781b1a9bb218b200285a
:102a4c0001dbc0b270473c3318b2fae7dd0100205d
:042a5c00b70100209e
:020000040000fa
:102a60000222074b997ac9b2114202d0987a0243e6
:102a70009a720122114202d0997a0a439a727047df
:042a8000004c0042c4
:020000040000fa
:102a8400054b064a917819709268117859705178fb
:102a940099709278da707047740100202c0200203b
:020000040000fa
:102aa4000b2300280ad003681a8802238a4205d31c
:102ab40006235943012382688b540023180070476e
:020000040000fa
:102ac4000b23002809d0002a07d00c234b4381682c
:0e2ad400c91801230b7000234a6018007047d8
:020000040000fa
:102ae200002310b5934206d103201840421e9041a4
:0e2af2009b08c01810bdc45ccc540133f2e741
:020000040000fa
:102b000070b505000e1e08d00024fff707ff2870df
:0c2b100001350134a4b2a642f7d170bd1b
:020000040000fa
:102b1c0010b5054b01221a7000f080f8024a1378a8
:0c2b2c00012bfcd010bdc046ed010020c4
:020000040000fa
:102b3800802808d0812804d0823843425841400078
:0a2b480070470120fce70020fae7c7
:020000040000fa
:022b5200fee79c
:020000040000fa
:102b5400044a138802210b431380937a5bb2002b3f
:082b6400fbdb70470014004088
:020000040000fa
:102b6c00044a138802218b431380937a5bb2002ba7
:082b7c00fbdb70470014004070
:020000040000fa
:102b840090020020f40100205c0200207a02002060
:082b9400840200203802002039
:020000040000fa
:102b9c00034b18611a00937a5bb2002bfbdb704776
:042bac0000140040d1
:020000040000fa
:102bb000034b98611a00937a5bb2002bfbdb7047e2
:042bc00000140040bd
:020000040000fa
:102bc40010b5034b01221a70142000f05df810bdfb
:042bd400d701002005
:020000040000fa
:102bd800034b9a6843001b189b00d05c7047c046a3
:042be8001c020020ab
:020000040000fa
:102bec00034b9a6883001b185b00d05c7047c0468f
:042bfc004c02002067
:020000040000fa
:102c0000034b9a6883001b185b00d318d888704761
:042c10004c02002052
:020000040000fa
:102c1400034a1388802109020b4313807047c0467e
:042c24002201002069
:020000040000fa
:102c280010b5034b187001211800fff793fa10bd77
:042c3800df01002098
:020000040000fa
:102c3c000b23002802d0024b1860002318007047a9
:042c4c00080000205c
:020000040000fa
:102c5000792c0000e32a0000392d0000392d0000f6
:042c6000392d00000a
:020000040000fa
:102c640003b47146490840004900095a49008e449a
:042c740003bc7047e6
:020000040000fa
:102c78008a18914201d10020704700230b7001315e
:022c8800f7e76c
:020000040000fa
:022c8a00001038
:020000040000fa
:102c8c00024b1a88801818807047c046aa01002091
:020000040000fa
:102c9c00024a53781b06fcd47047c046004c0042d5
:020000040000fa
:0c2cac00014b88225a6070470040004134
:020000040000fa
:0c2cb800014b18609960704788010020f3
:020000040000fa
:0c2cc400014bd86019617047d40000205b
:020000040000fa
:0c2cd000014b586299627047d40000204c
:020000040000fa
:0c2cdc00014b01221a7070478501002096
:020000040000fa
:0c2ce80010b5fff7b9fefff7a3f810bd10
:020000040000fa
:0c2cf400ac010020d80100207401002079
:020000040000fa
:0c2d00006125000041270000852a00002a
:020000040000fa
:0c2d0c000a0023000f000800080003006c
:020000040000fa
:082d180010b5fff753ff10bdd9
:020000040000fa
:082d2000090005001100c04686
:020000040000fa
:082d28002d0005001100c0465a
:020000040000fa
:042d3000808182001c
:020000040000fa
:042d34000501010094
:020000040000fa
:042d380000207047c0
:020000040000fa
:022d3c007047de
:020000040000fa
:022d3e007047dc
:020000040000fa
:0200000400807a
:0440000077c700d8a6
:020000040000fa
:0200000400807a
:044004005c01ffff5d
:00000001FF
