:020000040000fa
:10000000f00f0020811400008b130000db160000ad
:1000100000000000000000000000000000000000e0
:100020000000000000000000000000000f0a0000b7
:1000300000000000000000000f0a00000f0a00008e
:100040000f0a00000f0a00000f0a0000dd16000072
:100050000f0a00000f0a00000f0a00000000000055
:100060000f0a00000f0a00000f0a00000f0a00002c
:100070000f0a00000f0a00000f0a00000f0a00001c
:0c0080000f0a00000f0a000081190000a8
:020000040000fa
:10008c00f8b5c046f8bc08bc9e4670476114000029
:10009c00f8b5c046f8bc08bc9e4670473914000041
:020000040000fa
:1000ac00f0b587b00090009b0b20002b00d1e2e153
:1000bc00002603275b68049602931b880196059320
:1000cc000396049b059a93421ed1009b1a681378e1
:1000dc0059b200290bda0820002101268446049c21
:1000ec0088b2844200d9ffe07f210b401370039b40
:1000fc00002b00d009e1019801231178002800d1d0
:10010c005be10b4313705ae1009bb5009b685d19d2
:10011c001e236a681178194001d001232b702b78ab
:10012c00042b73d00ad8022b2ed043d8012b23d00a
:10013c00049b033601339bb20493c2e7852b00d199
:10014c0082e0862b00d1a9e0072bf1d129895388b5
:10015c0099425fd9c91a009b0298db6840799b5d74
:10016c0089b20341dbb28b4254d86b78002b69d136
:10017c0001232b701770dbe703930029d8d10223de
:10018c002b7008236b70d3e76978002910d0528844
:10019c00042904d92a810139697001237ce02b8957
:1001ac009342f8d002d9013b2b81f4e70133fbe7f2
:1001bc002f70bde7298953889942b9d0009ad2682b
:1001cc0010d9cb1a0299925d49799bb20a41d2b2ed
:1001dc009a42add8029b1b79002ba9d007222a701a
:1001ec006b70dae792195b1a11789bb299429fd81f
:1001fc009378002b05d00499009801f083f800281f
:10020c0096d104232b70029b9b78e9e729895388ac
:10021c00994202d92f700023b4e7009a5b1ad26876
:10022c009bb2921911789942f4d29378002b06d094
:10023c000499009801f066f8002800d078e76b78f4
:10024c00002b47d0013bcbe7029b00991b7a096836
:10025c000b7128895388984207d986232b70029bef
:10026c009b786b700123019316e0009a1b1ad268dd
:10027c009bb291190a784978140001310c41012183
:10028c00121bd2b201919a4200d251e786232b70f5
:10029c00029b9b786b700b00039349e7288953886a
:1002ac00984209d96b78002b01d12f7001e0013bea
:1002bc006b70012301933be7009a1b1ad2689bb227
:1002cc0091190a784978140001310c41121bd2b2f1
:1002dc009a4204d285232b70029bdb78e8e76b787b
:1002ec00002be2d0013bbce70c2500984d43806805
:1002fc0045196f683878304205d164462d78a5438e
:10030c0001d0304338700131e9e6029b597a00295b
:10031c0000d1f0e6802310785b420343137001296f
:10032c0000d0e8e600218bb20393049b88b2834291
:10033c0000d8e0e60c20009b48439b680825181861
:10034c00029303781c00ac4315d0852b01d0032bf2
:10035c002ed10325009bdf682b004b43fb189b78a9
:10036c009c46002b07d000231e000595049c9c4244
:10037c0008d8002e1cd1012540680378ab430370cc
:10038c000131d0e7039c9c420fd00c255d43029cad
:10039c002d5d042d01d0862d07d1059d5d437d1962
:1003ac00ad78654501d10126049b01339bb2dde795
:1003bc000123406805782b43e1e79943117052887b
:1003cc00584b11001b88c8318b4251d99b1a9bb2d8
:1003dc009c466346c82b4dd96346c83b9bb29c4692
:1003ec00009b1b685a88c8325a801a79002a00d0a0
:1003fc0070e05a79002a01d0013a5a719a79002a90
:10040c0001d0013a9a71009a50688679002e07d073
:10041c005a79002a04d1078891b28f4234d85e7180
:10042c00c579002d07d09a79002a04d1068891b29b
:10043c00b1423cd39d71009b5b68da78002ac8d02e
:10044c001f880c23002103207b4302938bb2bb42f9
:10045c00bfd20c22009b4a439b689a181578852db5
:10046c0004d15578002d38d0013d55700131ede7a0
:10047c00934202d3002007b0f0bd2b495918891aba
:10048c00c829f7d9013ba1e70c21009c5143a46872
:10049c0061180d78032d01d0082d06d14c680d89fb
:1004ac006488ac4201d901350d810132b4e70c21cd
:1004bc0000985143806841180878032801d0082817
:1004cc0006d14c6808896788874201d201380881b7
:1004dc000132ace7013a1a71ade701240500147042
:1004ec0052684d431070009ad2685519ad78002da2
:1004fc00bcd0029c02321c1901920394039a9342c1
:10050c00b4d0019a1678ae4206d101225e683478d6
:10051c00144201d01a703070019a0c3303320192dc
:0c052c00ece7c046b6000020ffff000016
:020000040000fa
:100538000322f0b5ae4b89b01b7a0592002b14d07c
:10054800ac4b1b6803931b6804931b880693aa4b48
:100558001b6807930023029305936b461a89069b31
:100568009a4205d30222a24b1a72059809b0f0bd2f
:10057800029b07995b00cc5a062302994b430399c7
:100588008968ce180399029b49683578db00cb1837
:10059800ed0601936d0f9b79042d00d924e1280005
:1005a80001f0aaf9050013000401d5000f000f217e
:1005b800019a52790a40934201d99d1aedb22c4111
:1005c8007480029b01330293c7e71c418b4aa3b294
:1005d8007380b788934217d9894a9b182a009bb21f
:1005e80004998978402914d15b08151e13d1854ace
:1005f800002597420fd1812333700e23059333785a
:100608005a0622d5012330e07c4ad31a9bb2002235
:10061800e6e7002aebd1042bf1d90f24b9043a12ea
:100628003811890f224020402740002d32d0cf2b8f
:1006380001d9002962d1152b6ad9002a63d10a1e73
:1006480068d00139c9b20a2264e05bb2002b0ddb25
:100658000322049bdb781340022b0bd10f22019b52
:100668001b799343019a137109233370bf04bf0c9c
:10067800b780a6e7012bc5d10f22019b1b791a4031
:1006880030231343019a13710d23eee70131cf3b59
:10069800c9b29bb2cf2b01d90329f7d1152b0dd99c
:1006a8000f2a06d10f2203290ad00131c9b2052227
:1006b80006e00132153bd2b29bb2efe70f2af1d028
:1006c800022b0dd90f2806d10f2a0fd1032900d1eb
:1006d8008be010000fe00130023bc0b29bb2efe7a5
:1006e8000f28f1d0032924d1032104e00132d2b22a
:1006f80005200329f8d0022bccd81ae00139cf3bca
:10070800c9b29bb293e7013a153bd2b29bb292e7ca
:10071800002a94d0022b0ad9002803d1002a0fd12d
:10072800100006e00138023bc0b29bb2f2e7002895
:10073800f4d0090312020a4317430001074397e75d
:10074800013ad2b20a20022b00d970e7f1e71c4126
:10075800019ba4b21f793d09032d25d0210010006b
:1007680000f08efd00281ad10135012333700f23c4
:100778002d011f40019b3d431d7133787480012b6f
:1007880000d01ee7ff33ff339c422ad91c4be418e4
:10079800a4b2052c00d814e74523337011e7002dc7
:1007a800e3d0013dedb2e2e70225e0e71c410f2569
:1007b800019ba4b21f793d4011d02100100000f028
:1007c8005ffd002806d1013dedb2012333700f23f0
:1007d8009f43cfe7032df8d00135edb2f7e70125a8
:1007e800f5e7064b1c1bd3e7fee7170098e7c04662
:1007f8007c000020080000200c000020ff01000001
:0808080001feffffff3f0000ad
:020000040000fa
:10081000f0b502008db00b20002a6ad0556811682f
:10082000ab7801934b7802932b7b002b3ed00024b6
:1008300020002b889c46019b5b000393029b5e007b
:100840006746a3b29f4256d86b7b984200d87be0a4
:10085000cb6802995b1819780131197011685368d7
:100860004878c968085c997b88421fd169469d68b1
:10087000029b0989e81803780391002b53d0013bb0
:10088000dbb26e466f46b68800213e823e8a012466
:10089000b44667468eb2b74247d8002cedd00370fd
:1008a0000023180051688978994247d8029b69460d
:1008b0005b000a93019b56685b08013306936b4605
:1008c0009b888b818b890b9300239c4603933388f1
:1008d00003998b4244d8029b01990133dbb28b42ce
:1008e0008941b0680b40c05c7168087000201268d4
:1008f00053700db0f0bd062363438f68fb185f880b
:100900004b689b5b9f420ad9fb1a9bb21f1c834218
:1009100000d2071cb8b2039b0134f61890e79f423f
:10092000f9d2db1bf1e70f23abe7039fb74203d0fc
:100930006e5c9e4200d100240131aae71168c968ab
:10094000c85401339bb2ade75b088342aed9cb6894
:1009500002995b1819780029a8d001391970a5e708
:100960000623039910684b438168cb1804931b78c6
:10097000db065b0f40d16146406849004118059194
:100980000499059849880a9c099301530199994251
:100990002ed9002005995d00491908910400012114
:1009a0000de09f420ad0059d6700ed5b0795089d0d
:1009b0002f88079dbd4215d10131c9b20134019d77
:1009c000e7b2bd42edd8069c8c4204d9844206d9d8
:1009d0004118a14203db089b1b880993019b01334b
:1009e000dbb2d3e7079dbd42e8d20130c0b2e5e7f4
:1009f0006946049b898c5980039b0b9901339bb2f8
:0e0a0000039363468c4663449bb29c465fe7bb
:020000040000fa
:020a0e00fee701
:020000040000fa
:100a1000600000201c00000000000000900000208a
:100a20000c00000000000000be00002001000000db
:100a300000000000d00000201000000001000000b5
:100a4000a80000200c0100209c00002034010020a0
:100a50003401002003000000010000001401000028
:100a60009c00002014000000000000000c01002089
:100a70000a00000001000000010004000500140548
:100a8000140100001801002008000000010000000f
:100a9000e0000020f0000020e00000202000000026
:100aa0000100000000000000b0000020b80000209d
:100ab000cc000020010003002c01002030010020a8
:100ac00001190600cc000020030000000000000017
:100ad00030010020030000000100000000010200be
:100ae000b00000200600000000000000000100200f
:100af0000c0000000100000028010020200100205f
:100b0000b8000020200100200800000001000000c3
:100b10000000200000000400b800002006000000d3
:100b20000000000028010020060000000100000075
:100b30000100803000020000c80000200200000018
:100b400000000000bf0000200100000000000000c5
:100b5000ca0000200200000000000000cf000020ba
:100b6000010000000000000033010020010000002f
:100b700001000000010000007c00002014000000c3
:100b80000000000000000020100000000000000035
:100b9000b60000200200000000000000c00000209d
:100ba00004000000000000001000002050000000c1
:100bb00000000000c400002004000000000000004d
:100bc00000000000000000006666666666666666f5
:020000040000fa
:100bd0004023f0b54a4a85b0116807000b43136003
:100be00000f0acfe0222474cfe00237893432370b2
:100bf00000f0a4fe444d2b685b689b195b88238240
:100c000000f09cfe2b685b689b5b638200f096fea5
:100c100006232a687b4397680222ff18bb88238338
:100c20003b78134201d005233b703f7800f086feed
:100c3000ff067f0f3f23002f07d12b685b689b19ae
:100c40005a79324b12099b181b7aa37600f076fe74
:100c50002b685b689b191b791b09e37600f06efe1d
:100c600003212b685b689b191a7923790a408b430f
:100c70001343237100f062fe07212b685b689e1905
:100c8000b279637b0a408b4313436373204b5f68e5
:100c9000002f26d0022500f051fe237b1b071b0fdf
:100ca000039300f04bfe267900f048fe2378b60748
:100cb000ab43237000f042fe01236279b60f134369
:100cc0001d43edb200f03afe124b65711a6808231d
:100cd000002011780b431370039900900e4b3200e3
:100ce000b84700f02bfe022322781343237000f054
:100cf00025fe8023627b5b421343637305b0f0bd26
:100d00003c080040002c004208000020b016000003
:0c0d10007c000020000000200d2c0042a0
:020000040000fa
:100d1c0036490a6a364b1a4081235b0013430b6237
:100d2c000822cb681a42fcd0304b00229a61314b1e
:100d3c00314a5a60314a9a601a0053785bb2002be0
:100d4c00fbdb2c4b2e4a5a601a0053785bb2002bfb
:100d5c00fbdb284b2b4a5a602b4a9a601a005378bb
:100d6c005bb2002bfbdb214a938c80218b43938459
:100d7c0011001022cb681a42fcd0244b1b689b0e2e
:100d8c003f2b31d09b02802292001343174a93626f
:100d9c00184b8622d2015a8014491022cb681a4271
:100dac00fcd0124b1a4ada6219001022cb681a4294
:100dbc00fcd00e4b06229a8419003a32cb681a42a8
:100dcc00fcd00c4b134a5a601a0053785bb2002bc0
:100ddc00fbdb084b104a5a80104a5a80104a5a8042
:100dec00104b114a1a627047203bcbe700080040b9
:100dfc000000ffcf000c004003060100037d000043
:100e0c000106010002030100021f000024608000a3
:100e1c00dc050a2800070100044200000e40000017
:0c0e2c0017410000000400400409000011
:020000040000fa
:100e3800f7b501008020364a364c1369c0002340bc
:100e48000343136153692340184350610b20002961
:100e580043d00b68188800231c001d009ab29042ea
:100e68003cd80220002c38d02b04234300932a4b73
:100e780000210e3301930f2301209c46009bcb4099
:100e8800034211d0019b254eca5c53089b190242ac
:100e98002dd066461f78374010263e431e70204be3
:100ea800d21813780343137001311b29e6d100f0df
:100eb80041fd00231b4e1c4f33703b7a002b1bd186
:100ec80000f038fdf58200f035fd0123b4823b7255
:100ed80004230020327813433370febd4e68da00d5
:100ee800b21816885288354314430133b6e767466b
:100ef8001e78be430643d1e700f01cfdf38a1d436c
:100f0800f58200f017fdb38a1c43b482e0e7c046bf
:100f180000240042fff8ffffb016000030440041f3
:0c0f280040440041002c00427c000020ee
:020000040000fa
:100f340070b5384b1b781b0708d1374c2500133587
:100f4400207800f075fc0134a542f9d1552000f059
:100f54006ffc304b187800f06bfc002000f092fc22
:100f64000400c0b200f064fc200ac0b200f060fccf
:100f7400002000f091fc0400c0b200f059fc200aeb
:100f8400c0b200f055fc002000f07cfc04000020fe
:100f940000f082fc201a84b2c0b200f049fc200a9e
:100fa40000f046fc002000f081fc0400c0b200f018
:100fb4003ffc200ac0b200f03bfc002000f080fca3
:100fc400000622d4002000f033fc144b187800f003
:100fd4002ffc134b5b68187800f02afc0024104d9a
:100fe400ab68185d00f024fc0134032cf8d10d4be0
:100ff400187800f01dfc074b1878421c1a7000f09a
:1010040017fcaa2000f014fc70bd012000f010fcb5
:10101400dbe7c046be0000201419000034010020a4
:08102400f0000020bf000020d5
:020000040000fa
:10102c00f8b504000b2000295bd0002c59d0314eb0
:10103c000320337a002b54d00120042b51d02e4d99
:10104c0023682c60f1609b78402b4bd12b4b0121fa
:10105c0004271b782a4a1f43117000f069fc294ba6
:10106c00ffb2df770f272b681b681b791f400f2bf4
:10107c0000d9102700f05cfc8021c023224d234aac
:10108c002f73c9025b00d150c4202368ff245b7905
:10109c00800024049b05175823401d4c27403b43dc
:1010ac0013501160022400f043fcab7a2343ab7263
:1010bc0000f03efc2b7a23432b7200f039fc012309
:1010cc006a7a13436b7200f033fc0023338000f018
:1010dc0057fa051e0bd1042330883372fff772fdcb
:1010ec002800f8bd0220802bfbd10a4bafe73472ed
:1010fc002000f6e77c00002008000020ac16000061
:10110c0033010020012c0042002c004200e100e0e1
:08111c00ffff00ffad1600000b
:020000040000fa
:1011240070b5264a264c2749938b908b22880968f0
:1011340052008852244a9bb21278012a02d0022a11
:1011440015d070bd23880133238000f01dfa0028d8
:1011540005d12088fff73afd04232372f1e7e36801
:1011640098474021194a13688b431360e9e7184aea
:1011740020881568c20069688a180f215679927907
:1011840031400026914201d2521ad6b2aa680625ed
:10119400f3406843121853809ab280239b008b401b
:1011a400d31a0c4a00d55b421268dbb292799a4298
:1011b400d2d22369984702232372d2e7002c00423b
:1011c4007c0000200c000020330100203c0800407b
:0811d4000800002004000020c7
:020000040000fa
:1011dc0010b5224b1b78012b04d0214b1b78012b13
:1011ec000ad010bd1f492048fff71aff0028f4d180
:1011fc001a4b00221a70f0e7194b00221a70fff7f5
:10120c0095f9002815d11948fff7fcfa00280ad1e6
:10121c001748fef745ff002810d0164b03221a7012
:10122c00fff782fe0ae0134b02221a70fff77cfed6
:10123c00eee7104b01221a70fff776fe0c4b1b6881
:10124c001b787f2b05d80c4b01221a70fff76cfe14
:10125c00c7e7024b01221a70f8e7c046cf00002006
:10126c00cb0000207519000000010020180100209f
:0c127c00d0000020bf000020ca000020ad
:020000040000fa
:10128800f0b506241e4b44431a68002093681c19c5
:1012980063888b422cd02cd2c91a126889b29378f1
:1012a800402b00d149080120842921d80020052994
:1012b8001ed9cf250f261527a3881c009804800f58
:1012c80068431d1235407d431b11334040195b00b4
:1012d800c018344080b2052c0dd8d378094a9b0633
:1012e8009b0f5b009b5a594389b288428041404218
:1012f800f0bd591ad1e70130053c80b2e4b2eae703
:0813080008000020b0160000ef
:020000040000fa
:10131000f7b50c25c3684d439c46032382684b43b5
:1013200055196c6863442d8964889f781b78641b09
:10133000e41aa3b201930025436860461e88b542b3
:1013400001d10020febd8d4218d08378bb4215d15b
:1013500013787b33dbb2012b15d913899c46536874
:101360005b889c450ad264461b1b04789bb2a3424f
:1013700004d91b1b019c9bb29c4204d30135adb226
:0a13800003300c32dbe70120dce74c
:020000040000fa
:02138a00fee77c
:020000040000fa
:10138c0000230e4a10b513600d4a13600d4a13600a
:10139c000d4a13600d4a13600d4a536213610133f9
:1013ac00936000f0f3fa00f0f1fa0a4c0a4b9c42fd
:1013bc0000d310bd08cc9847f8e7c046c400002005
:1013cc001c00002018000020100000201400002039
:0c13dc0020000020980000009c00000091
:020000040000fa
:1013e800030010b50b20002b16d01a6802201488b1
:1013f8008c4211d992789b68402a0ed106228d2002
:101408004a4380009a189080002006225143022205
:101418005b1819780a431a7010bd803ad2b2012ab3
:10142800f3d806224a4301489a18ece767050000fa
:020000040000fa
:1014380010b5064c2378002b07d1054b002b02d0a2
:10144800044800e000bf0123237010bd60000020a5
:101458000000000000000000044b10b5002b03d072
:101468000349044800e000bf10bdc046000000006a
:081478006400002000000000e8
:020000040000fa
:1014800010b50a4b98470a4b984700f0d9f8094b1a
:10149000ff229343084a9360084b9847084b9847ac
:1014a000084b984700f046f9fee7c0464b1800008d
:1014b0004b1800000000000000ed00e08d1300005c
:0814c0004b1800004b1800005e
:020000040000fa
:1014c80070b5002818d0002918d000250c4a01242e
:1014d800072605e06b00c35a13850135a94209d0d8
:1014e800137e2342fcd053683340012bf2d0435d76
:1014f8001385f2e7012070bd0020fce70120fae720
:041508000008004295
:020000040000fa
:10150c00bff35f8f62b60c4bc02080001a581202da
:10151c00120ac02109060a431a5008221a60103018
:10152c001958064a1140c02212040a431a5080224c
:10153c00d2021a607047c04600e100e0ffff00ffd6
:020000040000fa
:10154c0010b500f007f90a4c2000fff76ffc0948b2
:10155c0000f0bcf90021200000f020f9002120004f
:10156c00fff73cff044a0548002100f027f910bda5
:10157c0000010020c8000020b8000020d00000208e
:020000040000fa
:10158c000d4a70b51068012502680c4914880622b2
:10159c000b885a43a3420ad28668b65c06322e42a6
:1015ac0002d101339bb2f5e700200b8070bd002304
:1015bc0001200b80fae7c046080000207c000020c8
:020000040000fa
:1015cc000d4b01221a801a00937a5bb2002bfbdbc5
:1015dc00094b80221a801a00937a5bb2002bfbdb3a
:1015ec00054b01229a611a00937a5bb2002bfbdb4c
:0c15fc00014b0122da717047001400401e
:020000040000fa
:101608000a4b0b4a1a600b4a9a81c02292025a600e
:101618001a00d369002bfcd1044a136802210b433a
:101628001360d369002bfcd17047c0460008004204
:0816380004013140b9fcffff81
:020000040000fa
:1016400010b50b480168002905d14368002b02d171
:1016500000f073f910bd04008368064a9bb20c3495
:101660009b009b5842682000984780002018e9e7bb
:08167000100a0000ec18000054
:020000040000fa
:101678000b4b802292001a601a61012247215a54aa
:1016880000214920195401301a5401301a543232b9
:101698003b38985401329954013222319954704799
:0416a80000440041b9
:020000040000fa
:1016ac0080a080a007001300350090003f1c0b05a4
:1016bc0003010203040506070e0f0a0b101116177f
:0e16cc0018190e0f0a0b1011161718191b0013
:020000040000fa
:0216da00fee729
:020000040000fa
:1016dc0010b508490b7adbb2074a1371c1230b72a0
:1016ec001368002b04d01079c0b291681368984726
:0c16fc0010bdc04600140040900000200b
:020000040000fa
:1017080010b5094b06225a60fff7b2fffff702fb3c
:1017180000f020f9fff774fffff754fffff712ffff
:0c172800fff7f0fe10bdc046004000417d
:020000040000fa
:1017340010b50020fff7e6ff074c02e080239b0072
:101744006361fff749fd002000f0baf80006f5d503
:0c17540080239b00a361f4e700440041e7
:020000040000fa
:1017600010b50748002100f0fff800f057f80020fe
:1017700000f06cf8142000f073f800f043f810bd8e
:041780008d190000bf
:020000040000fa
:101784000222074b997ac9b2114202d0987a0243d5
:101794009a720122114202d0997a0a439a727047ce
:0417a400002c0042d3
:020000040000fa
:1017a8000b2300280ad003681a8802238a4205d925
:1017b80006235943012382688b540023180070477d
:020000040000fa
:1017c8000b23002809d0002a07d00c234b4381683b
:0e17d800c91801230b7000234a6018007047e7
:020000040000fa
:1017e600002310b5934206d103201840421e9041b3
:0e17f6009b08c01810bdc45ccc540133f2e750
:020000040000fa
:10180400044a138802210b431380937a5bb2002ba2
:08181400fbdb704700140040eb
:020000040000fa
:10181c00044a138802218b431380937a5bb2002b0a
:08182c00fbdb704700140040d3
:020000040000fa
:1018340000b583b06b46d871073301211800fff758
:0618440041fe03b000bdef
:020000040000fa
:02184a007047e5
:020000040000fa
:10184c00034b18611a00937a5bb2002bfbdb7047d9
:04185c000014004034
:020000040000fa
:10186000034b98611a00937a5bb2002bfbdb704745
:041870000014004020
:020000040000fa
:1018740010b5034b01221a70142000f065f810bd56
:04188400cf00002071
:020000040000fa
:10188800034b4200121852009b1858887047c046f4
:04189800b800002074
:020000040000fa
:10189c00034b4200121892009b1818897047c046df
:0418ac009c0000207c
:020000040000fa
:1018b000034b4200121852009b1898887047c0468c
:0418c000b80000204c
:020000040000fa
:1018c400034b9a6843001b189b00d05c7047c046ca
:0418d400d000002020
:020000040000fa
:1018d8000b23002802d0024b186000231800704721
:0418e8000c000020d0
:020000040000fa
:1018ec0029190000e7170000951900009519000050
:0418fc00951900003a
:020000040000fa
:1019000003b47146490840004900095a49008e4411
:0419100003bc70475d
:020000040000fa
:101914005fb400864a03eb00000000000000aa55f3
:03192400016ea0b1
:020000040000fa
:101928008a18914201d10020704700230b700131c1
:02193800f7e7cf
:020000040000fa
:02193a007047f4
:020000040000fa
:10193c00024a53781b06fcd47047c046002c004268
:020000040000fa
:10194c00024b1a88801818807047c046b6000020d9
:020000040000fa
:0c195c00014b88225a6070470040004197
:020000040000fa
:0c196800014b186099607047900000204f
:020000040000fa
:0c197400014b01221a707047cb000020cc
:020000040000fa
:0c19800010b5fff7fffefff7cdfb10bd18
:020000040000fa
:08198c0010b5fff771ff10bd5b
:020000040000fa
:041994000020704778
:020000040000fa
:02199800704796
:020000040000fa
:0200000400807a
:0440000077c700d8a6
:020000040000fa
:0200000400807a
:044004005c00ffff5e
:00000001FF
