:020000040000fa
:10000000f0ff0020551600003f2400006727000085
:1000100000000000000000000000000000000000e0
:10002000000000000000000000000000af0f000012
:100030000000000000000000af0f0000af0f000044
:10004000af0f0000af0f000051230000af0f000002
:10005000af0f0000af0f0000af0f0000af0f0000a8
:10006000af0f0000af0f0000af0f0000af0f000098
:10007000af0f0000f51e0000af0f0000af0f000033
:10008000af0f0000af0f0000af0f0000af0f000078
:10009000af0f0000af0f0000af0f0000af0f000068
:1000a000af0f0000af0f0000af0f0000af0f000058
:1000b000af0f0000af0f0000d5270000af0f00000a
:020000040000fa
:1000c000f8b5c046f8bc08bc9e467047c11f00008a
:1000d000f8b5c046f8bc08bc9e467047991f0000a2
:020000040000fa
:1000e000f0b587b00090009b0b20002b00d1e2e11f
:1000f000002603275b68049602931b8801960593ec
:100100000396049b059a93421ed1009b1a681378ac
:1001100059b200290bda0820002101268446049cec
:1001200088b2844200d9ffe07f210b401370039b0b
:10013000002b00d009e1019801231178002800d19b
:100140005be10b4313705ae1009bb5009b685d199e
:100150001e236a681178194001d001232b702b7877
:10016000042b73d00ad8022b2ed043d8012b23d0d6
:10017000049b033601339bb20493c2e7852b00d165
:1001800082e0862b00d1a9e0072bf1d12989538881
:1001900099425fd9c91a009b0298db6840799b5d40
:1001a00089b20341dbb28b4254d86b78002b69d102
:1001b00001232b701770dbe703930029d8d10223aa
:1001c0002b7008236b70d3e76978002910d0528810
:1001d000042904d92a810139697001237ce02b8923
:1001e0009342f8d002d9013b2b81f4e70133fbe7be
:1001f0002f70bde7298953889942b9d0009ad268f7
:1002000010d9cb1a0299925d49799bb20a41d2b2b8
:100210009a42add8029b1b79002ba9d007222a70e5
:100220006b70dae792195b1a11789bb299429fd8ea
:100230009378002b05d00499009801f03dfc00282c
:1002400096d104232b70029b9b78e9e72989538878
:10025000994202d92f700023b4e7009a5b1ad26842
:100260009bb2921911789942f4d29378002b06d060
:100270000499009801f020fc002800d078e76b7802
:10028000002b47d0013bcbe7029b00991b7a096802
:100290000b7128895388984207d986232b70029bbb
:1002a0009b786b700123019316e0009a1b1ad268a9
:1002b0009bb291190a784978140001310c4101214f
:1002c000121bd2b201919a4200d251e786232b70c1
:1002d000029b9b786b700b00039349e72889538836
:1002e000984209d96b78002b01d12f7001e0013bb6
:1002f0006b70012301933be7009a1b1ad2689bb2f3
:1003000091190a784978140001310c41121bd2b2bc
:100310009a4204d285232b70029bdb78e8e76b7846
:10032000002be2d0013bbce70c2500984d438068d0
:1003300045196f683878304205d164462d78a54359
:1003400001d0304338700131e9e6029b597a002927
:1003500000d1f0e6802310785b420343137001293b
:1003600000d0e8e600218bb20393049b88b283425d
:1003700000d8e0e60c20009b48439b68082518182d
:10038000029303781c00ac4315d0852b01d0032bbe
:100390002ed10325009bdf682b004b43fb189b7875
:1003a0009c46002b07d000231e000595049c9c4210
:1003b00008d8002e1cd1012540680378ab43037098
:1003c0000131d0e7039c9c420fd00c255d43029c79
:1003d0002d5d042d01d0862d07d1059d5d437d192e
:1003e000ad78654501d10126049b01339bb2dde761
:1003f0000123406805782b43e1e799431170528847
:10040000584b11001b88c8318b4251d99b1a9bb2a3
:100410009c466346c82b4dd96346c83b9bb29c465d
:10042000009b1b685a88c8325a801a79002a00d06b
:1004300070e05a79002a01d0013a5a719a79002a5b
:1004400001d0013a9a71009a50688679002e07d03f
:100450005a79002a04d1078891b28f4234d85e714c
:10046000c579002d07d09a79002a04d1068891b267
:10047000b1423cd39d71009b5b68da78002ac8d0fa
:100480001f880c23002103207b4302938bb2bb42c5
:10049000bfd20c22009b4a439b689a181578852d81
:1004a00004d15578002d38d0013d55700131ede76c
:1004b000934202d3002007b0f0bd2b495918891a86
:1004c000c829f7d9013ba1e70c21009c5143a4683e
:1004d00061180d78032d01d0082d06d14c680d89c7
:1004e0006488ac4201d901350d810132b4e70c2199
:1004f00000985143806841180878032801d00828e3
:1005000006d14c6808896788874201d20138088182
:100510000132ace7013a1a71ade70124050014700d
:1005200052684d431070009ad2685519ad78002d6d
:10053000bcd0029c02321c1901920394039a93428c
:10054000b4d0019a1678ae4206d101225e683478a2
:10055000144201d01a703070019a0c3303320192a8
:0c056000ece7c046bc010020ffff0000db
:020000040000fa
:10056c00f0b5af4b89b01b7a002b00d1a1e1ad4b9c
:10057c001b6804931b6805931b880793aa4b1b6885
:10058c0006930023029303936b461a89079b9342ad
:10059c0005d80222a24b1a72039809b0f0bd0625a9
:1005ac00029b06995b00cc5a049b02999b680193b1
:1005bc00029b5d43019b5d1907232e78b6081e40f4
:1005cc0005334b4304994968cb180193db7a042e0d
:1005dc0000d96de1300002f0adf8050013004e01ba
:1005ec002f01e2000f21019a927a0a40934201d91d
:1005fc009e1af6b234416c80029b01330293c3e71e
:10060c001c41a3b2894c6b80af88a3422ad9884a7b
:10061c009b1832009bb205998978402926d15b083a
:10062c00002a25d0002f27d0042b29d903220f24f0
:10063c0039133811944611403a1222402040274079
:10064c00002e4ad10536cf2b01d9032955d1152bb4
:10065c005dd90f2a56d1220003295ad00131c9b2d3
:10066c00320056e0e31a9bb20022d4e7002ad9d01c
:10067c00704a00269742d7d181232b70733b03938a
:10068c002b785a0601d501230ce05bb2002b0adb58
:10069c000322059bdb781340934208d1ff23019a78
:1006ac001372ee3b2b70bf04bf0caf80a4e7022b80
:1006bc0007d10f22019b5b7a9343019a5372092352
:1006cc00f0e7012bdfd10f22019b5b7a1a4030231c
:1006dc001343019a53720d23e4e70a24cf2b01d95b
:1006ec00002930d1152b3ad9002a33d1002291425e
:1006fc0037d00139c9b2220033e00131cf3bc9b246
:10070c009bb2a0e70132153bd2b29bb29fe70f2af6
:10071c00a1d0022b11d90f280ad10f2a00d1cbe07e
:10072c000132d2b2300003290bd0022b8bd828e037
:10073c000130023bc0b29bb2ebe70f28edd003298e
:10074c001fd16146f1e70139cf3bc9b29bb2c5e776
:10075c002000c3e7013a153bd2b29bb2c2e7002a94
:10076c00c4d0022b0bd9002804d1002a11d11700b8
:10077c00100006e00138023bc0b29bb2f1e7002842
:10078c00f3d0090389b212020a431743000107434d
:10079c008be7013ad2b2022bdad80a20f1e71c41de
:1007ac00019ba4b21f7aff2f08d17f23019a6c8082
:1007bc0013722b78012b00d01ee724e000233900a4
:1007cc000120d9400026014201d11e00082301332b
:1007dc00dbb2072bf3d92100100001f0dff8002861
:1007ec0004d00123b3401f43019b1f720123002e31
:1007fc0008d0013ef6b2b340019a127a9a43019b9b
:10080c001a72d6e72b70094b9c424fd9084be4184f
:10081c00a4b2052c00d8efe645232b70ece6c046bd
:10082c00440100200400002008000020ff0100000b
:10083c0001feffffff3f00001c41019ba4b25f7a49
:10084c003e09032e15d02100100001f0a7f8002856
:10085c000ad1013601232b700f2336011f40019b57
:10086c003e435e726c80a4e7002ef3d0013ef6b2dc
:10087c00f2e70226f0e71c410f26019ba4b25f7a37
:10088c003e4011d02100100001f088f8002806d15c
:10089c00013ef6b201232b700f239f43dfe7032e9b
:1008ac00f8d00136f6b2f7e70126f5e71c1bafe7e7
:1008bc00fee7032303936fe6032900d157e72000db
:0408cc0033e7c04608
:020000040000fa
:1008d000f80000201c000000000000006c01002057
:1008e0000c00000000000000980000203000000014
:1008f00000000000b801002003000000000000001c
:1009000069010020010000000000000081010020ba
:100910000100000000000000140100203000000071
:1009200000000000c80000203000000000000000af
:10093000840100200800000000000000bb0100202e
:1009400001000000000000008c01002008000000f1
:1009500000000000be0100200100000000000000b7
:100960006c020020030000000100000000010200f2
:100970006402002006000000010000000400803036
:1009800000030000cc010020300000000100000046
:100990000000000000000010000001040000000042
:1009a0000000002000000104000000000000000220
:1009b000000001040000000000200000000001040d
:1009c0002c02002022000000010000006402002030
:1009d000cc0100202c0100201e01001e01001e0180
:1009e000001e0100040004000500140514010000ad
:1009f000fc01002020000000010000008401002014
:100a000044020020c8000020380200200400030037
:100a1000680200206c020020011906005c02002020
:100a200008000000010000001c0200200c02002051
:100a30001c02002010000000010000000000000067
:100a4000140100202c010020b80100209401002096
:100a50000800000000000000bf01002001000000ad
:100a600000000000aa0100200200000000000000b9
:100a7000c001002003000000000000006a01002007
:100a80000200000000000000c3010020020000007e
:100a9000000000005c0000203c000000000000009e
:100aa000780100200900000000000000580100202b
:100ab0001100000000000000c5010020020000003d
:100ac0000000000082010020020000000000000081
:100ad000ac0100200400000000000000a401002080
:100ae0000600000000000000c70100200300000015
:100af00000000000500200200a0000000100000079
:100b0000023400041700000500000000ca010020a4
:100b10000100000001000000010000009c01002015
:100b20000800000000000000bc01002002000000de
:100b300000000000cb0100200100000001000000c7
:100b4000010000004401002014000000000000002b
:100b5000000000200c00000000000000b001002098
:100b600004000000000000000c0000205000000005
:100b700000000000b401002004000000000000009c
:100b80000000000000000000666666666666666635
:020000040000fa
:100b9000f0b587b0039001f0f7fd0222794c7a4e50
:100ba00023889343238031680b689a78812a29d15e
:100bb0001b889c4600231f0002939ab294454ad892
:100bc000380001f00dfc0025029b0122eb4013428e
:100bd00009d06e4b0020e95c1f2902d90120203981
:100be000c9b201f0affa0135202dedd1029d01f01f
:100bf000cbfd3d430027278001f0c6fd676101f072
:100c0000c3fda5610c2701f0bffd039b5f43336863
:100c10005b68db195b68636401f0b6fd33685c4aae
:100c20005b68db599bb2d38701f0aefd326859484f
:100c30005368d9190b681b0c0380062303984343a0
:100c40009068c01802788388950710d50522027035
:100c5000fc22920314e00c225a434d680133aa1877
:100c60001068029d5268054302951743a5e7d20616
:100c7000520fedd145488a7a28301209825c12045d
:100c800013430a7aff25fa2a01d8151dedb22d0665
:100c90001d4301f079fda564032501f075fd33685e
:100ca00022695b683c49db195b7a0a401b092b40cf
:100cb0001b051343236101f067fd336837495b6807
:100cc000db195a7a23882a4012020b4013432380ef
:100cd00001f05afd0721336802265b68df19fa7ab2
:100ce00023692f4f0a4012043b401343236101f054
:100cf0004bfd2388334323802a4b5b680293002bf0
:100d000038d001f041fda36c1b0e059301f03cfdb2
:100d100023691b051b0f039301f036fd23889b05f8
:100d20009b0f049301f030fd2388b343238001f02f
:100d30002bfd2379ab431d43edb201f025fd257159
:100d400001f022fd184b25691a68082311780b431e
:100d5000137001f019fd23691f402761134b0095a3
:100d6000049a03990598029da84701f00dfd238878
:100d70001e43268001f008fd0123227f13432377c1
:100d800007b0f0bd00540042040000201024000011
:100d90000254004260540042ffffcffffffcffff00
:100da000fffff8ff44010020000000201054004223
:020000040000fa
:100db000f0b502008db00b20002a6ad0556811688a
:100dc000ab7801934b7802932b7b002b3ed0002411
:100dd00020002b889c46019b5b000393029b5e00d6
:100de0006746a3b29f4256d86b7b984200d87be0ff
:100df000cb6802995b181978013119701168536832
:100e00004878c968085c997b88421fd169469d680b
:100e1000029b0989e81803780391002b53d0013b0a
:100e2000dbb26e466f46b68800213e823e8a0124c0
:100e3000b44667468eb2b74247d8002cedd0037057
:100e40000023180051688978994247d8029b694667
:100e50005b000a93019b56685b08013306936b465f
:100e60009b888b818b890b9300239c46039333884b
:100e700003998b4244d8029b01990133dbb28b4228
:100e80008941b0680b40c05c71680870002012682e
:100e900053700db0f0bd062363438f68fb185f8865
:100ea0004b689b5b9f420ad9fb1a9bb21f1c834273
:100eb00000d2071cb8b2039b0134f61890e79f429a
:100ec000f9d2db1bf1e70f23abe7039fb74203d057
:100ed0006e5c9e4200d100240131aae71168c96806
:100ee000c85401339bb2ade75b088342aed9cb68ef
:100ef00002995b1819780029a8d001391970a5e763
:100f00000623039910684b438168cb1804931b7820
:100f1000db065b0f40d161464068490041180591ee
:100f20000499059849880a9c0993015301999942ab
:100f30002ed9002005995d0049190891040001216e
:100f40000de09f420ad0059d6700ed5b0795089d67
:100f50002f88079dbd4215d10131c9b20134019dd1
:100f6000e7b2bd42edd8069c8c4204d9844206d932
:100f70004118a14203db089b1b880993019b0133a5
:100f8000dbb2d3e7079dbd42e8d20130c0b2e5e74e
:100f90006946049b898c5980039b0b9901339bb252
:0e0fa000039363468c4663449bb29c465fe716
:020000040000fa
:020fae00fee75c
:020000040000fa
:100fb00010b5594b1b79022b21d0032b59d0002b94
:100fc0000dd0554b00221a71544b1b78002b05d1c4
:100fd000534b1b881bb2002b00da6fe010bd01f0f1
:100fe000abfa0528f0d901f057fa5528ecd14a4c54
:100ff0000421200001f00cfb02232371e4e7464b9f
:101000001b78022b1ad0012bded101f095fa0128b2
:10101000dad901f041fa040001f03efa002cd3d1f4
:10102000aa28d1d13e4803883b494c780122a240ee
:1010300013439bb2038003230b71c5e7364b5988da
:101040003b2903d9587800f0b1f9bde701f074faf3
:10105000314b5b8880b28342b6d2314803882e4937
:101060004c780122a24013439bb2038003230b71ef
:10107000aae72a4b1b78002ba6d1294b1b881b05fe
:10108000a2d0254b1b78012b10d0022b9cd1224cd7
:101090006188607800f08af90023237120490b8869
:1010a00060780122824093430b808de71a4c607870
:1010b000002100f049ff0023237185e7194c2378b4
:1010c000194ad15c194a11701178c9b25b00184aeb
:1010d0009a5a032001f0b4f823789b00154a9b58d4
:1010e000002098472378144ad15c144a1180590093
:1010f000134a8a5a9b0013495958012000f094ff63
:1011000023780133dbb2022b02d0064a137065e765
:10111000044b00221a7061e7a4010020c7010020df
:10112000aa010020c201002014280000c1010020f3
:1011300018280000082800001c2800006a01002070
:08114000102800000028000047
:020000040000fa
:1011480010b5464b1b78012b03d0454b00221a7073
:1011580010bd444b1b78444a12889a4227d8434b07
:101168001b78022b30d0414b1b78012bf0d1404b20
:101178001a78404b1b889a4259d23f4b1878c0b214
:1011880001f030fb3a4c2378dbb280003b4a8258ae
:1011980018009047334b01221a7023780133dbb2d1
:1011a8002370374b1b68187801f09efad0e72d4c56
:1011b8002378dbb2324a1268d05c01f095fa2378c2
:1011c8000133dbb22370c3e7294b1a78294b1b88fc
:1011d8009a4207d3264a1278934217d0204b00220e
:1011e8001a70b5e7224c2178c9b2264b587800f01e
:1011f800a7fe1c4b01221a7023780133dbb223703f
:101208001f4b1b68187801f06ffaa1e7184a13788a
:101218000133dbb213701c490b881a4a507801223b
:10122800824093430b80aa2001f05efa90e7104aaf
:101238001278934203d00a4b00221a7088e70c4aae
:1012480013780133dbb213700f4a13885b045b0c0d
:101258001380aa2001f048fa7ae7c046ca010020a4
:10126800c7010020c901002082010020c001002020
:10127800c80100206a010020c101002008280000e0
:0c128800ac010020a4010020aa010020fd
:020000040000fa
:10129400f8b5444e0024a7b2380001f0fff9050068
:1012a400380001f005fa2d1a358001340236042c79
:1012b400f1d1002001f006fa030627d48222d205d8
:1012c400982380214902d150012001f0fbf9030643
:1012d4002fd48222d205982380218902d150022062
:1012e40001f0f0f9030637d48223db058022d20211
:1012f4009a61032001f0e6f903063ed48222d20566
:101304008c235b0080214905d150f8bd002000f0fa
:10131400b1ff002806d08222d205982380214902f9
:10132400d150d1e78222d205942380214902d150a1
:10133400cae7012000f09eff002806d08222d205d1
:10134400982380218902d150c9e78222d2059423af
:1013540080218902d150c2e7022000f08bff0028cf
:1013640005d08223db058022d2029a61c1e7822361
:10137400db058022d2025a61bbe7032000f07aff2a
:10138400002807d08222d2058c235b0080214905e6
:10139400d150bae78222d2058a235b008021490515
:0813a400d150b2e79c010020ca
:020000040000fa
:1013ac00f0b5c64600b5040001f0c0f885b2012cba
:1013bc0038d0002c0dd0022c47d0200001f0a4f81e
:1013cc00304b59888000304bc05801f01bf901f0ac
:1013dc005df804bc9046f0bd387800f0cbff3b784c
:1013ec000133dbb23b70083dadb2042b0bd0082da2
:1013fc00efd9264c2600083601f048f8207001344d
:10140c00a642f9d1e8e70023214a13701d4a137153
:10141c0020490b8850780122824093430b8001f0c5
:10142c0035f8d6e7082dd4d9194fe2e70023184a2e
:10143c001370144a137117490b885078012282409b
:10144c0093430b8001f022f8c3e7032dc1d9104f51
:10145c00114b98463c7866003619464401f016f854
:10146c00307001f013f8707001f010f8b0700134a6
:10147c00e4b23c70033dadb2042cd7d0032de9d8b7
:10148c00a7e7c046a4010020042700009401002017
:0c149c00bf010020aa010020380200203f
:020000040000fa
:1014a8002e4b5a6852031b68db0c13439b029b0aa2
:1014b8002b4a9363422313750023537511000422aa
:1014c8008b691a42fcd126491022cb681a42fcd0fb
:1014d800234a137d80210b431375224b00229a6106
:1014e8001a61214b214a1a62190004224b681a42d8
:1014f800fcd11d4b1e4a5a62190008224b681a4239
:10150800fcd1194a94234021d15010005431402273
:1015180043581a42fcd0144a98234121d150100054
:101528005731402243581a42fcd00f4ad823402151
:10153800d15010009831402243581a42fcd00a4a30
:101548008e235b004121d1501000190040224358de
:101558001a42fcd0074b084ada61704720608000c5
:101568000010004000140040001c0040060101006b
:0c15780006210c000008004021002008a3
:020000040000fa
:10158400f8b507000e000b2500294cd000284ad0de
:10159400284c083d237a002b45d0023d042b42d031
:1015a400036801355b79013bab423cd801f0eaf8b2
:1015b4000222214d2b8893432b80204be6601f6031
:1015c40000f0f2fa80221e4bd2051e4eda67bff3fa
:1015d4004f8fbff36f8f0323ab7201f0d3f8012257
:1015e4006b7aff2013436b72174b80251a70c0234c
:1015f400c7225b00ed05f5503b6892005b7900045f
:101604009b05b1580340114801400b43b35035606a
:101614000023238000f0b6fd051e06d10423208894
:101624002372fff7b3fa2800f8bd022302252372c0
:10163400f9e7c046440100200054004204000020a1
:1016440004e100e000e100e0cb010020ffff00ff27
:020000040000fa
:10165400f8b5294b1b785bb2002b03db264b1b78b8
:101664009b072dd5244b1b785b0718d580239b053e
:101674000024214a01201026a52503e004331f4934
:101684008b4224d01c6091790142f7d091680e42bc
:10169400f4d115739179012739439171eee78023d1
:1016a4009b05002514491024a526144802e00433a0
:1016b40083420cd01d608a681442f8d10e73f6e799
:1016c40080239b0500210d4a02c39342fcd10c4b9d
:1016d40098470c4b984700f0e9fd0b4bff229343ce
:1016e4000a4a93600a4b98470a4b98470a4b984713
:1016f40000f0fafefee7c046002000400000012092
:10170400ab1b0000ab1b00000000000000ed00e07c
:0c171400e91d0000ab1b0000ab1b000037
:020000040000fa
:10172000002941d010b4041c4c40a44601230022df
:10173000002900d54942002800d5404288422cd3d8
:1017400001242407a14204d2814202d209011b01d3
:10175000f8e7e400a14204d2814202d249005b00d2
:10176000f8e7884201d3401a1a434c08a04202d33a
:10177000001b5c0822438c08a04202d3001b9c087b
:101780002243cc08a04202d3001bdc0822430028dd
:1017900003d01b0901d00909e3e7101c6446002ca3
:1017a00000d5404210bc704701b5002001f03af866
:1017b00002bdc0460029f7d003b5fff7b3ff0ebc4a
:0817c0004243891a1847c04694
:020000040000fa
:1017c80010b5204b1b78012b06d01f4b1b78012b23
:1017d8000cd0fff7e9fb10bd1c491d48fff7cefef2
:1017e8000028f2d1174b00221a70eee7164b0022a0
:1017f8001a70fef7b7fe002811d11648fff7d4fa81
:10180800002808d11448fef767fc00280ad0134bbb
:1018180003221a7006e0114b02221a70f2e70f4bee
:1018280001221a7000f056ff0b4b1b681b787f2ba8
:1018380003d80b4b01221a70cbe7024b01221a7016
:10184800c7e7c046bb010020be010020c927000031
:101858002c0200205c020020fc01002081010020f5
:0418680069010020f2
:020000040000fa
:10186c00f8b500f08bff0221204a13888b431380bc
:10187c0000f0e4fe1e4b1f4c1f4a18881988238861
:10188c0012685b00d1521d4b80b21b78012b02d029
:10189c00022b10d0f8bd23880133238000f06efc9e
:1018ac00002805d12088fff76df904232372f1e796
:1018bc00e3689847eee70c210f22114b25881e6830
:1018cc0069437368002759188b7a1a40cb7a934274
:1018dc0001d99b1adfb20621f8406943b3685b1843
:1018ec005880022323722369e3e7c0460054004268
:1018fc00585400424401002008000020cb01002075
:04190c0004000020b3
:020000040000fa
:101910008022f8b5214bd2001a610b265a619a61d8
:10192000da61002821d003680c24198800231d00e7
:101930001f009ab291421ad80226002d15d0380401
:10194000284300f04dfd00f01fff0023144c2380be
:10195000144b1e7a002e14d100f016ff676100f0c0
:1019600013ff01230f4aa56113723000f8bd220056
:101970005a4346680133b218166852683743154314
:10198000d7e700f001ff636900261f43676100f09d
:10199000fbfea3691d43a561e7e7c046004c00427a
:0819a000005400424401002044
:020000040000fa
:1019a800f0b506241f4b44431a68002093681c199d
:1019b80063888b422dd02dd2c91a126889b29378c8
:1019c800402b00d149080120842922d8002005296c
:1019d8001fd90f251527a3881c001e1298042e4016
:1019e8007e43800fba3778431b112b4080195b0068
:1019f800c0182c4080b2052c0ed8d3780a4a9b0612
:101a08009b0f5b00d3181b8c594389b288428041d5
:101a18004042f0bd591ad0e70130053c80b2e4b22b
:0c1a2800e9e7c046040000201024000084
:020000040000fa
:101a3400f8b51e4b1b7d002b37d01c4a93685168a8
:101a44001b4a127ed2071dd599421bd91849072675
:101a5400164a944617001500012409e03a68d25c3e
:101a64000a85013368680a7e22420bd0984209d95c
:101a74004a683240012af1d1624612685800825afb
:101a84000a85eee7094a936052689a420dd8074bdb
:101a940000221a755a60064a01211175db68002b71
:101aa40003d0024b1869db689847f8bd9800002002
:041ab40000140042d8
:020000040000fa
:101ab800f7b50c25c3684d439c46032382684b4306
:101ac80055196c6863442d8964889f781b78641b5a
:101ad800e41aa3b201930025436860461e88b54204
:101ae80001d10020febd8d4218d08378bb4215d1ac
:101af80013787b33dbb2012b15d913899c465368c5
:101b08005b889c450ad264461b1b04789bb2a3429f
:101b180004d91b1b019c9bb29c4204d30135adb276
:0a1b280003300c32dbe70120dce79c
:020000040000fa
:101b320030b58223db058022d2021a601a610022ac
:101b420052215a545139552019541c381a542938e3
:101b52003a241855c024a40280255c5110355c51ea
:101b6200c72419550334195501341955013419552f
:101b720001341955cf315a5401315a541e3958542f
:101b820002312330585401312238585402315a5408
:101b920080214905ef30195010301950ae2149000b
:081ba2005a541e395a5430bd9b
:020000040000fa
:021baa00704782
:020000040000fa
:101bac00184b70b51b6800251a6808249378402bd5
:101bbc0007d00a24802b04d00220812b17d10a24b1
:101bcc00032513790f2b13d80f2213400e4a1b0237
:101bdc0014401c4300f0d2fd58230c4e338000f00f
:101bec00cdfd346100f0cafd0020094b1d7070bda5
:101bfc001f2223041b0e93431a00102313431b02b2
:101c0c00044ae5e704000020ffe0ffff0054004217
:081c1c0064540042ff00ffffc9
:020000040000fa
:101c240070b5002830d0194b1a7d0023002a29d121
:101c3400164b1860596001321a755c68144b1b7e90
:101c4400db0716d5002c17d00023114907260125e0
:101c540007e0c25c0a8501330a7e2a420bd09c420b
:101c64000ad04a683240012af3d15a00825a0a85be
:101c7400f1e7002400e01c00044b9c60044b0122ab
:101c84009a750123180070bd0023fbe7980000201b
:041c940000140042f6
:020000040000fa
:101c980070b500f03ffb1748fff736fe164800f016
:101ca80037fd0024134d2100280000f063fc2100bb
:101cb800280000f0fdf90134a4b2042cf3d10f4c34
:101cc8000f4d22000021280000f064fca21d012114
:101cd800280000f05ffc22000c320221280000f0ee
:101ce80059fc220012320321280000f053fc00f0b6
:101cf800e5fb70bd2c0200208c0100202c01002087
:041d0800fc010020ba
:020000040000fa
:101d0c0010b5194a2c23d35c002b18d01300d269c0
:101d1c001b6a934213d2144b986a14490a8d92b2df
:101d2c001b6a4c6807212140012909d00e49896999
:101d3c00ca5401330c4a1362d2699a4205d010bdc1
:101d4c00094989695c006252f3e7074b00222c2198
:101d5c005a54da61054a583111755b6a002beed082
:101d6c00014b5b6a9847eae7980000200014004298
:020000040000fa
:101d7c0070b5144b04221a801349144c42001318ea
:101d8c009b00e3181d7a0d715d7a4d719b7a8b71f6
:101d9c0012189200a218d37acb71002806d00c4be3
:101dac00094a1a600b4b08221a8070bd0a4b5978ed
:101dbc002022043000f03efa08220349022000f0f1
:101dcc002df9f2e76a01002094010020cc010020db
:0c1ddc00ac01002082010020a4010020c6
:020000040000fa
:101de80000230e4a10b513600d4a13600d4a1360a4
:101df8000d4a13600d4a13600d4a53621361013393
:101e0800936000f00dfd00f00bfd0a4c0a4b9c425c
:101e180000d310bd08cc9847f8e7c046b4010020ad
:101e280018000020140000200c00002010000020e2
:0c1e38001c000020cc000000d0000000c6
:020000040000fa
:101e440030b5bff35f8f62b6104bc02080001a58c4
:101e54000f4d2a40c02109040a431a5004221a6073
:101e6400c322920098580b4c0440c0200002204327
:101e74009850802292011a60c72080001a582a4084
:101e8400114319508022d2051a6030bd00e100e0f0
:081e9400ffff00ffff00ffff4c
:020000040000fa
:101e9c00114b124a1a60124a9a81c02292025a605d
:101eac001a00d369002bfcd10b4a136802210b4397
:101ebc001360d369002bfcd10a4b00229a61da61c2
:101ecc001a622c215a545a621a605a609a601a7516
:101edc00da60da857047c0460014004204013140d4
:081eec002bf6ffff9800002017
:020000040000fa
:101ef40010b5134b9b7d002b1ad0114a137edbb215
:101f0400927d52b2002a14db0d4a137edbb2927d1d
:101f1400d20703d5db0701d5fff78afd084a137ef4
:101f2400dbb2927d520703d55b0701d5fff7ecfec8
:101f340010bd5bb2002be7da00f044f9e4e7c046d9
:041f44000014004243
:020000040000fa
:101f480070b5012817d00e4b01221a800d4b5e7810
:101f580000f0dcfa040042000b4bd55a2a0031008d
:101f6800042000f069f9a400084be1582a00022077
:101f780000f056f870bd0800fff7fcfefae7c0460f
:101f88006a010020a4010020e027000004270000c7
:020000040000fa
:101f980010b5064c2378002b07d1054b002b02d037
:101fa800044800e000bf0123237010bdf8000020a2
:101fb8000000000000000000044b10b5002b03d007
:101fc8000349044800e000bf10bdc04600000000ff
:081fd800fc00002000000000e5
:020000040000fa
:101fe00070b50e4943001a1852008a1855880c4ad9
:101ff00015800c4e1c18a4003419248954802d1b04
:1020000095801c18a400a45de40994711b185b0062
:10201000cb181979d1715b79137270bd2c01002036
:0820200078010020c800002037
:020000040000fa
:1020280010b50b4b1b78002b00d010bd094b187056
:102038000123074803700848037008480370084bd9
:102048001960084b1a80087800f04efbede7c0468f
:10205800c7010020c0010020c8010020c9010020dc
:08206800ac0100208201002000
:020000040000fa
:1020700001224b08c00130b51b1811420fd00f24ac
:102080000b4a9b181a7822401a7010221c7822439f
:102090001a70084b0918c91801230b7030bd0f25a1
:1020a000034c1b191c78ac431c701c78efe7c0462e
:0820b000300000414000004136
:020000040000fa
:1020b80010b50b22002813d00368093a1c888c42fb
:1020c8000ed304324a439b7881688918402b09d182
:1020d800f533ff3300228b800223087803430b700b
:1020e800100010bd803bdbb20222012bf4d8014b5b
:0820f800f0e7c0466705000097
:020000040000fa
:1021000070b504000d00002815d00c4a2c23d35cb8
:102110000020002b00d070bd00f092f9074b9c61ad
:10212000dd6100221a622c2101205854da85044b0b
:1021300084329a75efe70020ede7c0469800002052
:042140000014004245
:020000040000fa
:102144004b08c0010d4a1b1810b59b18ca070dd5c2
:102154000f241a7822401a701a78913422431a7084
:10216400074b0918c91801230b7010bd0f241a78e6
:10217400a2431a701c780a22f0e7c04630000041de
:0421840040000041d6
:020000040000fa
:102188000d4a70b51068012502680c4914880622aa
:102198000b885a439c420ad98668b65c06322e429e
:1021a80002d101339bb2f5e700200b8070bd0023fc
:1021b80001200b80fae7c0460400002044010020fb
:020000040000fa
:1021c80010b50c4b5b8b0722134000d110bd0a4c95
:1021d800e38500f031f9074b84221a752c2300227d
:1021e800e254636a002bf1d0034b986a5b6a984704
:0c21f800ece7c0460014004298000020f4
:020000040000fa
:1022040010b50b4a1378dbb20a4908780a49c85456
:1022140013780133dbb2137013783c2b04d0012103
:102224000448fff76bff10bd130000221a70f6e795
:0c223400c4010020c50100205c00002057
:020000040000fa
:10224000f8b507000e0014000a4d00232b7055202e
:1022500000f0ecf9380000f0e9f9300000f0e6f9a0
:10226000e0b200f0e3f9200a00f0e0f901232b705e
:08227000f8bdc046ca010020c0
:020000040000fa
:1022780070b505000b4c4300185f0321fff74cfabb
:1022880000b2002304e00133dbb20234042b07d090
:102298009d42f8d00022a15e8142f4dd012000e0d9
:0822a800002070bd9c01002024
:020000040000fa
:1022b00010b50b480168002905d14368002b02d1f5
:1022c00000f09dfa10bd04008368064a9bb20c34ee
:1022d0009b009b5842682000984780002018e9e73f
:0822e000d00800002c270000cb
:020000040000fa
:1022e8000b4b01221a8019000b691a42fcd1084bca
:1022f800c02252001a80803aff3a1a6219001f322f
:102308000b691a42fcd1024b802252005a81704755
:04231800002400405d
:020000040000fa
:10231c0010b50021094800f03ffa094908220b6961
:10232c001a42fcd100f060f9002000f095f914205d
:10233c0000f09cf900f04af910bdc046f7270000e8
:04234c000024004029
:020000040000fa
:1023500010b5084b9a8992b207494a60074a9a8198
:102360009b890b68002b04d00b00486889681b68a8
:10237000984710bd002400406c010020ff81ffff42
:020000040000fa
:1023800070b50949420013189b00cb18074c6579ba
:102390005d72a5799d7225791d721a00e379d37259
:1023a00080b200f063f870bdcc01002094010020e1
:020000040000fa
:1023b00010b50a4b06225a60fff7bbfbfff774f813
:1023c00000f0eaf900f0d0f9fff768fdfff78cffa5
:1023d000fff762fcfff736fd10bdc046004000412c
:020000040000fa
:1023e00070b50600002401253300e3402b4209d0dc
:1023f000064b0020e15c1f2902d928002039c9b210
:10240000fff736fe0134202ceed170bd1024000001
:020000040000fa
:102410000203040506072021222324252627282934
:1024200008090a0b10111213141516172c2d2e2f34
:0e24300007001300350090003f1c0b05030150
:020000040000fa
:02243e00fee7b7
:020000040000fa
:10244000094b5b8b5b070dd0074b80221a76793adc
:102450005a831b7e5b0705d5034b04211a8d1a7e18
:0c2460000a42fbd17047c0460014004245
:020000040000fa
:10246c0010b5040001000648fff720fe62001219a7
:10247c005200044b9a18e1b2034800f089f810bde1
:0c248c002c0200202c010020fc0100208c
:020000040000fa
:10249800084a1378dbb20849c85c13780133dbb209
:1024a800137013783c2b00d07047130000221a7069
:0c24b800fae7c046c30100205c000020d1
:020000040000fa
:1024c40010b50021054800f071f90021044800f01e
:1024d40073f901210348fff711fe10bd49110000f3
:0824e40005220000c5010020e3
:020000040000fa
:1024ec0070b50020fff75eff064c2600002502e0c9
:1024fc003570fef7c9fefff761f92378012bfad18d
:08250c00f6e7c046690100205a
:020000040000fa
:1025140000280dd0012809d0022807d0032805d0af
:102524000023052801d01800704701380300fae79a
:042534000300f8e7c1
:020000040000fa
:10253800064b1b78064a10781b1a9bb218b2002863
:1025480001dbc0b270473c3318b2fae7c40100207f
:04255800c30100209b
:020000040000fa
:10255c00054b064a91781970926811785970517828
:10256c0099709278da707047580100200c020020a4
:020000040000fa
:10257c000b2300280ad003681a8802238a4205d349
:10258c0004334b430121826899540023180070478f
:020000040000fa
:10259c000b23002809d0002a07d00c234b43816859
:0e25ac00c91801230b7000234a601800704705
:020000040000fa
:1025ba00002310b5934206d103201840421e9041d1
:0e25ca009b08c01810bdc45ccc540133f2e76e
:020000040000fa
:1025d800054a138802210b431380110002220b695c
:0c25e8001a42fcd17047c046002400409d
:020000040000fa
:1025f400054a138802218b431380110002220b69c0
:0c2604001a42fcd17047c0460024004080
:020000040000fa
:1026100070b505000e1e08d00024fff73dff28709e
:0c26200001350134a4b2a642f7d170bd10
:020000040000fa
:10262c0010b5054b01221a7000f05cf8024a1378c1
:0c263c00012bfcd010bdc046c7010020df
:020000040000fa
:10264800054b9a7ad2b2910701d502219972d20725
:0c26580001d501229a7270470054004224
:020000040000fa
:10266400034b9861190008220b691a42fcd1704788
:0426740000240040fe
:020000040000fa
:10267800034b1862190020220b691a42fcd17047db
:0426880000240040ea
:020000040000fa
:10268c0010b5034b01221a70142000f06ff810bd26
:04269c00bb0100205e
:020000040000fa
:1026a00043001b185b000248c31858887047c04697
:0426b0002c010020d9
:020000040000fa
:1026b40043001b189b000248c31818897047c04682
:0426c400c80000202a
:020000040000fa
:1026c800034b9a6843001b189b00d05c7047c046b8
:0426d800fc010020e1
:020000040000fa
:1026dc00034a1388802109020b4313807047c046bc
:0426ec00aa0100201f
:020000040000fa
:1026f00010b5034b187001211800fff793fa10bdb5
:04270000c6010020ee
:020000040000fa
:1027040050020020cc0100203802002046020020a4
:042714001802002087
:020000040000fa
:102718000b23002802d0024b1860002318007047d2
:042728000800002085
:020000040000fa
:10272c0055270000bb2500002128000021280000af
:04273c002128000050
:020000040000fa
:1027400003b47146490840004900095a49008e44c3
:0427500003bc70470f
:020000040000fa
:102754008a18914201d10020704700230b70013187
:02276400f7e795
:020000040000fa
:02276600fee78c
:020000040000fa
:102768008423db05014a1a627047c04665c200002f
:020000040000fa
:10277800024b1a88801818807047c046bc01002098
:020000040000fa
:10278800024a93899bb2002bfbd170470054004248
:020000040000fa
:0c279800014b84225a6070470040004151
:020000040000fa
:0c27a400014b1860996070476c01002028
:020000040000fa
:0c27b000014bd8601961704798000020b0
:020000040000fa
:0c27bc00014b58629962704798000020a1
:020000040000fa
:0c27c800014b01221a707047be01002076
:020000040000fa
:0c27d40010b5fff737fffff747f810bd06
:020000040000fa
:0c27e0000a0020000c0008000300c046a6
:020000040000fa
:0a27ec00823843425841c0b27047e2
:020000040000fa
:0827f60010b5fff748ff10bd0c
:020000040000fa
:0227fe00704722
:020000040000fa
:082800007801002058010020be
:020000040000fa
:08280800e11f00005d25000046
:020000040000fa
:0428100009001100aa
:020000040000fa
:042814008082c046b8
:020000040000fa
:042818002400110087
:020000040000fa
:04281c000401c046ad
:020000040000fa
:0428200000207047dd
:020000040000fa
:042824007047c046f3
:020000040000fa
:022828007047f7
:020000040000fa
:0200000400807a
:04400000ff88feb384
:020000040000fa
:0200000400807a
:04400400bbfcffff03
:00000001FF
