:020000040000fa
:020000040c00ee
:10000000f01f00202d3d000c4b43000c2b46000c34
:1000100000000000000000000000000000000000e0
:100020000000000000000000000000000b37000c82
:1000300000000000000000000b37000c0b37000c24
:100040000b37000c0b37000cb141000c0b37000cc8
:100050000b37000c0b37000c0b37000c6924000c1d
:10006000553a000c0b37000c0b37000c0b37000c0b
:0c0070000b37000ced47000c0b37000ca8
:020000040000fa
:020000040c00ee
:10007c00f8b5c046f8bc08bc9e4670477d3c000ce9
:10008c00f8b5c046f8bc08bc9e467047553c000c01
:020000040000fa
:020000040c00ee
:10009c00f0b5030095b00b20002b00d174e11a6869
:1000ac005e680b92002e01d100f062fc9b680193fc
:1000bc00db680293002b01d100f05dfc019bdb7926
:1000cc001093cf2b01d900f05afc13780d93012318
:1000dc000d9a1a40019b0a921f889b780393002a61
:1000ec0016d10c203b008446039979188cb28b42b4
:1000fc005bdb002a0cd10c208446019b99799b88f0
:10010c0059188cb28b425bdb002a01d100f03afc0f
:10011c003c000025039b0097fb180c930c9b9c4206
:10012c0059db019b00259b880593019b9b790893c8
:10013c00059b1c00a4460693089b63440f930f9bde
:10014c009c4256db009b039a3900029803f0c6fbd5
:10015c00069b0790089a0599029803f0bffb019b38
:10016c005b890e936b469b8b834200d2031c0e9ac9
:10017c009bb2934201d200f005fc009b039a39001c
:10018c00019802f089ff0d9b009adb06db0f11939f
:10019c007b1c05009a4200d8f8e0002309930493d5
:1001ac001300013b3c00139348e065465d43029805
:1001bc002d5c852d01d12300012201339bb296e7e2
:1001cc0065465d4302982d5c852d01d123000122eb
:1001dc0001339bb296e72100029804f014fa00b2a6
:1001ec00002803dda84201dd050000940134a4b20f
:1001fc0094e72100029804f006fa00b2002803dd0f
:10020c00a84201dd050006940134a4b297e723004f
:10021c00039a3900029803f061fb049b129083420d
:10022c000ad2119b22000099019802f095ff002838
:10023c0002d0129b099404930134a4b2139b9c42e8
:10024c00e5d30c9b009a013b9a4205d2941c0c9b63
:10025c00a4b29c4200da9de0049b0e9a934200d219
:10026c00afe0099b039a3900019802f015ff0323b4
:10027c0003900c93089a069b0599019802f00cffc9
:10028c000d9b069a9b06db0f0d93059b009001338b
:10029c009a4200d8b0e0002309931f001300059c7c
:1002ac00023b1293129b9c4200d28fe00f9b069a4a
:1002bc00013b9a4205d2941c0f9ba4b29c4200dadb
:1002cc009ee00e9b9f4200d2afe0099b089a0599d5
:1002dc00019802f0e1fe049a02903b1c974201d275
:1002ec006b461b8a9bb2049304230c9a1a43059207
:1002fc000a9b0122002b00d0c1e069460988bd4b46
:10030c00f1806946098832703181694609887580a7
:10031c0099836946898b0598718169460988b580ee
:10032c00d980694609881d831981694609881d8011
:10033c00598106215d809d80084200d07ce06b468f
:10034c0028229b181b7833736b461b8df38200207d
:10035c00b288a84b1a83328a5a8332899a83b28a1a
:10036c00da83059bdb0702d581230b9a13700623d6
:10037c00059a1a4208d03022059b13401a000b9b99
:10038c001b7813430b9a137015b0f0bd002309931f
:10039c00049356e72300039a3900029803f09efa5f
:1003ac00049b129083420ad2119b2200009901985f
:1003bc0002f0d2fe002802d0129b0994049301345f
:1003cc0045e7002303950493112352e72300089a71
:1003dc000599029803f082fa1190874209d20d9b7d
:1003ec0022000699019802f0b7fe002801d0119f57
:1003fc0009940134a4b255e7002309931f0055e773
:10040c002300089a0599029803f068fa1190874224
:10041c0009d20d9b22000699019802f09dfe00283e
:10042c0001d0119f0994013446e720230c9a1a43fa
:10043c00009b059202935be732736a469289694688
:10044c00f2816a469289098a32826a461289f1825d
:10045c0072826a461289b2826a4692899a816a4687
:10046c009289da816a4692891a826a4612895a827c
:10047c006a4612899a826a461289da8267e7019b78
:10048c0037005b7ab4460893109b5a481b099a4074
:10049c00013a93b20022069363461b78db0768d4bb
:1004ac000100012320315b4253520100243153528d
:1004bc000c2302329c44042aeed10324089b059998
:1004cc0023401c000623327b194200d173e16b469a
:1004dc009b8b73816b461b8af382464b002a00d0a0
:1004ec0099e01b8c5a1b9d4200d9ea1a039992b2cf
:1004fc008b426fd35b1a9bb271889a426dd92200e2
:10050c00039803f096fcf58170803a4d009aab8c01
:10051c009a426bd89a1a029992b28b4270d35b1a98
:10052c009bb2f1889a426ed92200029803f081fcaa
:10053c006b461b88f08073820123f28933736a83c4
:10054c006a84738a3282eb83eb84b382aa81ea8158
:10055c002a826b82ab82eb82002401223b7813400f
:10056c0000d095e17b810134e4b20c37022cf4d13c
:10057c00ede663469988204bd45a0b1ba14200d25e
:10058c00631a9bb2a1421bd9069ccb18a34200da7a
:10059c009cb21a4bd45263461989164b1c33d45a4d
:1005ac000b1ba14200d2631a9bb2a1420dd9069c2f
:1005bc00cb18a34200da9cb20e4b2433d45277e70b
:1005cc0000248b42e5d2cb1ae2e700248b42f3d213
:1005dc00cb1af0e70399cb1a8de72200280003f021
:1005ec0028fc6b469b897080f3818ee7009ad21aa7
:1005fc0091e7c046480200206002002068020020fb
:10060c000299cb1a8ce72200009803f012fc6b467f
:10061c00f0801b898fe7f18932780491718a0691f9
:10062c00002a53d15b8c039a934238d39a1a92b214
:10063c009d4237d85b1b9bb29a4235d96b46220040
:10064c0028009b890499738003f0f3fbbe4df08165
:10065c00eb8c029a93422cd39a1a009992b299423b
:10066c002ad85b1a9bb29a4229d96b4622001b8965
:10067c0006990098f38003f0dcfb01237288337039
:10068c002a832a84f3887082b280ab833381ab8453
:10069c002a806a80aa80eb802b816b815ce7039aad
:1006ac00d21ac4e7eb1ac6e77580220004990398a6
:1006bc00cae7029ad21ad0e70099cb1ad2e76b4656
:1006cc001b882200f38006990298d4e71b8c581bd8
:1006dc009d4200d9e81a9c4a0399528c80b28a42f6
:1006ec0045d3511a89b24018039980b28b4241d339
:1006fc005b1a9bb2954240d8521b92b29b189bb28c
:10070c007188220098423ad9039803f092fb220098
:10071c0070802800049903f08cfb8b4a0099938c11
:10072c00f081581a994201d90099c81ad28c0299b1
:10073c0080b28a422bd3511a89b24018029980b2e6
:10074c008b4227d35b1a00999bb2914225d8521a3f
:10075c0092b29b189bb2f1882200984220d9029841
:10076c0003f067fb22000699f08000981fe00399c4
:10077c00891ab7e70399cb1abbe7aa1abde7280079
:10078c0003f057fb2200708004990398c3e7029989
:10079c00891ad1e70299cb1ad5e700998a1ad7e7bb
:1007ac00009803f046fb2200f0800699029803f0b3
:1007bc0040fb7082d0e6002a0fd16b469b8b718870
:1007cc0073812200280003f034fbf1887080220032
:1007dc00009803f02efbf080bee63378002b0bd193
:1007ec006b469b8bf1892200f382280003f021fbde
:1007fc00718af0812200b8e753490b8c9d422bd8ab
:10080c005b1b9ab2898c009b8b4227d8c91a89b280
:10081c0052184d4992b24b8c9d4222d85b1bc98c0d
:10082c0000989bb288421ed8091a89b2591889b20d
:10083c008a421bd9f1892200280003f0fafa718a46
:10084c00f0812200009803f0f4fa6b469b8b7082c7
:10085c00f382002333707fe6eb1ad2e7009b591a20
:10086c00d5e7eb1adbe70098411adee77188220026
:10087c00280003f0defaf18870802200009803f063
:10088c00d8fa6b469b8bf08073810023337363e63d
:10089c003b89bd880093019b7a885b7adb0604d583
:1008ac000021200003f0a6f90200b9883b788a42a7
:1008bc0037d2180704d40198891a007a814206ddd0
:1008cc00ba80042293431a000a2313433b70019b02
:1008dc00fa885b7adb0604d50121200003f08af943
:1008ec00020039893b788a4230d2980604d40198a8
:1008fc00891a007a814206dd3a81102293431a004c
:10090c00222313433b70bb88ab4200d02be63b89c0
:10091c00009a934200d026e602223b7893433b7028
:10092c0021e658070ad40198511a007a8142cedd8b
:10093c00ba80082293431a000623c6e7ba8008221d
:10094c0093430622c1e7c04648020020d8060ad4c9
:10095c000198511a007a8142d5dd3a8120229343c5
:10096c001a001223cde73a81202293431222c8e7c2
:10097c000b200596f5e40b20029b0593f1e4022075
:10098c000023fae700200b9b0590187030707081e3
:08099c003073f082e5e4c0466f
:020000040000fa
:020000040c00ee
:1009a400f0b585b00390039b0b20002b00d1fde034
:1009b4005d68904b69691d60ab6808001a7800296e
:1009c40000d008788c4c012321002a311a40097880
:1009d40003405e00164391423dd1111e00d0032115
:1009e40020002a30027042789a4238d11a1e00d070
:1009f400032220002a30437088008049703109188e
:100a0400885c032e2fd1a21cd37f002b09d1012394
:100a1400d37722002c321370774a931cdb7f002b90
:100a24002dd02a68e96812880988520849085218a2
:100a3400e28529696a6809881288490852085218a7
:100a44002286032800d979e06d4e03f067fee701a2
:100a54002800b500db00514251410131c0e75a4240
:100a64005a410132c5e7220000232c321370644a34
:100a74000021525e0132cfd1a21cd377cce7012ee4
:100a840006d129680988d185696809881186d8e75b
:100a9400022ed6d1e9680988d1852969f5e70026af
:100aa40023002000323331000c2214301e702672d1
:100ab400e66003f029fe230033331e70230008335d
:100ac4002674de77e78d268e278066800235e97fdf
:100ad40010208ab2974200d2122080235b005b1a56
:100ae4009f4201d901210843964201d208221043b2
:100af400b34201d20423184301f078f923003433bc
:100b04001870631cdb7f002b15d0e38e9f424fd3fc
:100b1400ff1a394abfb2138f9e424bd3f61a354b94
:100b2400b6b21b680133db7f9f4201d89e4202d9d3
:100b3400531c0022da770022314b1a802e4ca37ffb
:100b4400012b01d1237f2374237c012219009143bb
:100b5400f02900d073e121000831c97f114203d08c
:100b64002200012128321170a21cd27f002a12d047
:100b7400220028321278002a0dd05a1e422a00d9a7
:100b840061e1043323743f22237c9343c02b02d0be
:100b94000022a31cda77039b08341d6803f08cfd44
:100ba40028700020237a6b70e37fab7005b0f0bd32
:100bb400df1baee79e1bb2e7e38d0022e386238ea4
:100bc4002387230029331a70637f93420ad0a82312
:100bd400237420000c221430002103f095fd00231f
:100be4003380abe7202001f001f92300343318707f
:100bf400efe7c04604000020d0000020b02d000c18
:100c040000000020002b29d02b681988eb681b8872
:100c1400994200d2b9e0c91a6b682a691b88128804
:100c240089b2934200d2b2e09b1a954a9bb2170054
:100c34002c373878012800d9abe0cb1810000024f9
:100c4400938702233a3004703b708d4c237c002b35
:100c540004d0c02001f0caf8343420700022b35efe
:100c6400884a874c1268517e8b4200daa3e0210047
:100c740033310978002900d09de02600012529366a
:100c840037782f4200d096e0802001f0aff823009f
:100c94003d43343318703570e38d268801936b46d9
:100ca4009b88a380238e02936b461b89e380019b60
:100cb400b34200d2ace09e1b714bb6b25d88029b7e
:100cc400ab4200d2a7e05d1b6e4badb21b68db7f6d
:100cd4009e4201d89d4210d9270033373b78002b20
:100ce4000bd103f087f9030030201843c0b201f0a0
:100cf4007df80123343420703b70614c230033337e
:100d04001b78002b00d119e75e4b5f4f1b68002254
:100d1400b95eda7e914200db10e71a7fb24203d358
:100d24005b7fab4200d309e703f064f90200f028cb
:100d34001ed0200032300378002b0cd02500502127
:100d4400343511432d78c9b28d4204d1217a013b47
:100d540001392172037050201043c0b201f046f8eb
:100d640023002200343332321870137801331370a5
:100d74000022bb5e013301d000233b806b469b887d
:100d840023806b461b896380d8e6591a44e7d31a3b
:100d94004be7022800d058e70635cb18918fea7f3d
:100da4009bb2881883425adc9a18914200dc4ce7c3
:100db4000121494254e0d17e314d8b420ddb0226a4
:100dc40032490f78374208d1a02001f00ff82f4b99
:100dd40034353e4328701e705ee7927e934200dafb
:100de4005ae72b0033331f78002f00d054e72e002e
:100df40029363378032b00d04ee7902000f0f6ff1d
:100e04000122214b34355242287037701a8043e74f
:100e1400019bf61a50e7029bed1a55e70023f25e98
:100e24006b7e9a4200dc89e6802000f0dfff23001d
:100e34003433187000230134e377013bd0e6002bf0
:100e440000d08de690e60f2219009143902901d13c
:100e5400103397e6d02b00d095e6d42392e60121f7
:100e640020003a300278a3875218d2b20270c1230c
:100e7400012900d0c0232374014b0833da77e4e658
:100e8400d00000200400002000000020f900002011
:020000040000fa
:020000040c00ee
:100e9400700200201c00000000000000cc020020b2
:100ea4000c00000000000000f40100202c000000f1
:100eb40000000000c4010020300000000000000019
:100ec400e30200200100000000000000c90200202d
:100ed4000100000000000000ed02002001000000fd
:100ee40000000000a4020020140000000000000024
:100ef400d80200200b00000000000000f4040020d1
:100f04000a00000004000000024000010a77000209
:100f14001d000200e402002009000000000000009f
:100f2400100100203c0000000000000037030020f6
:100f340001000000000000003f0300200100000049
:100f4400000000003903002003000000000000003e
:100f540044030020020000000000000043030020be
:100f6400010000000000000048030020020000000f
:100f7400000000005b0300200100000001000000ed
:100f8400010000004a0300200200000000000000ed
:100f940010030020040000000000000046030020ad
:100fa400020000000000000008030020060000000a
:100fb40000000000400300200300000000000000c7
:100fc400f00200200800000000000000b802002029
:100fd40011000000000000000c05002008000000c3
:100fe400010000003c030020500400203c030020ca
:100ff400030000000000000050040020280000004e
:101004000100000090020020940200208c020020c5
:101014009c020020a00200209802002008146e46c2
:101024001e1400143200010202320000e804002001
:101034000c00000001000000380300208c02002096
:10104400980400208c02002018000000000000001a
:101054003803002001000000000000009804002074
:101064002000000001000000050005000000058ac2
:101074000a13a00008000020f80200200005002048
:101084000800002078040020780400201e000000de
:10109400010000007d00007d00007d00007d000057
:1010a4007d00007d00007d00007d00007d00007d4e
:1010b400000000000800002078000000000000008c
:1010c400f8020020080000000000000000050020d5
:1010d4000a000000040000000a00010400010501e8
:1010e400140514011405002008000000010000008c
:1010f400b8040020c8040020b80400202000000028
:1011040001000000000000004c01002088010020c4
:10111400340300200a0003002005002024050020d9
:1011240001640600340300200300000000000000f6
:101134002405002003000000040000000001010257
:101144004c0100203c00000000000000d8040020f6
:1011540010000000010000001c05002060030020b6
:10116400880100205c03002060030020f0000000e0
:1011740004000000000308000480000708000204c3
:1011840000070800044000070c00020400070800e0
:101194000704000408000204000708000602000512
:1011a4000800020400070800042000070e000204df
:1011b40000070800060400050a00020400070800ee
:1011c40006080005080002040007080007100004d0
:1011d4000e00020400070800041000070a000204bd
:1011e40000070800072000040a00020400040000ad
:1011f400880100203c000000000000005c03002087
:1012040004000000040000000318010001000000b5
:101214001c05002006000000040000000a000182f2
:1012240030000150200200202800000000000000cf
:101234000e01002002000000000000004c0300200a
:10124400050000000000000051030020020000001f
:10125400000000000e030020020000000000000057
:10126400530300200500000000000000fe040020dd
:1012740001000000010000000a00000058030020e3
:10128400010000000000000014030020040000001e
:1012940000000000590300200100000000000000cd
:1012a400ca02002002000000000000001803002011
:1012b40014000000000000005a0300200100000098
:1012c40000000000000300200800000000000000ef
:1012d400ff040020010000000100000001000000e4
:1012e400ee0200200200000000000000480200207e
:1012f4002800000000000000960400200200000006
:101304000100000001f00000d00000203e000000b9
:1013140000000000000000200800000000000000a1
:101324002c030020040000000000000080000020c6
:101334005000000000000000300300200400000002
:101344000000000000000000000000006666666601
:101354006666666666666666666666666666666629
:020000040000fa
:020000040c00ee
:10136400f0b587b00090009b0b20002b00d1e2e188
:10137400002603275b68049602931b880196059355
:101384000396049b059a93421ed1009b1a68137816
:1013940059b200290bda0820002101268446049c56
:1013a40088b2844200d9ffe07f210b401370039b75
:1013b400002b00d009e1019801231178002800d105
:1013c4005be10b4313705ae1009bb5009b685d1908
:1013d4001e236a681178194001d001232b702b78e1
:1013e400042b73d00ad8022b2ed043d8012b23d040
:1013f400049b033601339bb20493c2e7852b00d1cf
:1014040082e0862b00d1a9e0072bf1d129895388ea
:1014140099425fd9c91a009b0298db6840799b5da9
:1014240089b20341dbb28b4254d86b78002b69d16b
:1014340001232b701770dbe703930029d8d1022313
:101444002b7008236b70d3e76978002910d0528879
:10145400042904d92a810139697001237ce02b898c
:101464009342f8d002d9013b2b81f4e70133fbe727
:101474002f70bde7298953889942b9d0009ad26860
:1014840010d9cb1a0299925d49799bb20a41d2b222
:101494009a42add8029b1b79002ba9d007222a704f
:1014a4006b70dae792195b1a11789bb299429fd854
:1014b4009378002b05d00499009801f05fff002871
:1014c40096d104232b70029b9b78e9e729895388e2
:1014d400994202d92f700023b4e7009a5b1ad268ac
:1014e4009bb2921911789942f4d29378002b06d0ca
:1014f4000499009801f042ff002800d078e76b7847
:10150400002b47d0013bcbe7029b00991b7a09686b
:101514000b7128895388984207d986232b70029b24
:101524009b786b700123019316e0009a1b1ad26812
:101534009bb291190a784978140001310c410121b8
:10154400121bd2b201919a4200d251e786232b702a
:10155400029b9b786b700b00039349e7288953889f
:10156400984209d96b78002b01d12f7001e0013b1f
:101574006b70012301933be7009a1b1ad2689bb25c
:1015840091190a784978140001310c41121bd2b226
:101594009a4204d285232b70029bdb78e8e76b78b0
:1015a400002be2d0013bbce70c2500984d4380683a
:1015b40045196f683878304205d164462d78a543c3
:1015c40001d0304338700131e9e6029b597a002991
:1015d40000d1f0e6802310785b42034313700129a5
:1015e40000d0e8e600218bb20393049b88b28342c7
:1015f40000d8e0e60c20009b48439b680825181897
:10160400029303781c00ac4315d0852b01d0032b27
:101614002ed10325009bdf682b004b43fb189b78de
:101624009c46002b07d000231e000595049c9c4279
:1016340008d8002e1cd1012540680378ab43037001
:101644000131d0e7039c9c420fd00c255d43029ce2
:101654002d5d042d01d0862d07d1059d5d437d1997
:10166400ad78654501d10126049b01339bb2dde7ca
:101674000123406805782b43e1e7994311705288b0
:10168400584b11001b88c8318b4251d99b1a9bb20d
:101694009c466346c82b4dd96346c83b9bb29c46c7
:1016a400009b1b685a88c8325a801a79002a00d0d5
:1016b40070e05a79002a01d0013a5a719a79002ac5
:1016c40001d0013a9a71009a50688679002e07d0a9
:1016d4005a79002a04d1078891b28f4234d85e71b6
:1016e400c579002d07d09a79002a04d1068891b2d1
:1016f400b1423cd39d71009b5b68da78002ac8d064
:101704001f880c23002103207b4302938bb2bb422e
:10171400bfd20c22009b4a439b689a181578852dea
:1017240004d15578002d38d0013d55700131ede7d5
:10173400934202d3002007b0f0bd2b495918891aef
:10174400c829f7d9013ba1e70c21009c5143a468a7
:1017540061180d78032d01d0082d06d14c680d8930
:101764006488ac4201d901350d810132b4e70c2102
:1017740000985143806841180878032801d008284c
:1017840006d14c6808896788874201d201380881ec
:101794000132ace7013a1a71ade701240500147077
:1017a40052684d431070009ad2685519ad78002dd7
:1017b400bcd0029c02321c1901920394039a9342f6
:1017c400b4d0019a1678ae4206d101225e6834780c
:1017d400144201d01a703070019a0c330332019212
:0c17e400ece7c046ee020020ffff000012
:020000040000fa
:020000040c00ee
:1017f0000322f0b5b54b89b01b780492002b14d0ae
:10180000b34b1b6803931b6801931b880793b14b71
:101810001b6806930023029304936b461a89079b67
:10182000934205d80222a94b1a70049809b0f0bd62
:10183000029b06999b00cb5806211824029841432d
:1018400003988068411802980f78444303980091e8
:101850004068f90605900419490fe57c042911d860
:10186000080002f05dff0500130049010b01c500ef
:101870000f22a07c1040854201d9291ac9b2cb4061
:10188000009a5380029b01330293c6e7eb40009815
:101890009ab24280808805b2ee0fb446f82636022e
:1018a000334011d08c4bd2180b0092b2019e5208db
:1018b000767976080596019eb678402e08d0002be2
:1018c00000d14ee1eb0f08e0844eb21a92b2ede780
:1018d000002d02da5e425e41f3b2059eb24224d28e
:1018e0007b0601d501230be07fb2002fcadb032268
:1018f000019bdb781340934205d1ff232374ee3b19
:10190000009a1370bee7022b05d10f22637c93432c
:1019100063740923f4e7012be4d10f22637c1a409e
:101920007023134363740d23eae76d4c2040a042fb
:101930000ad181236146009a1370733b0493c90353
:10194000009b084398809de7002805d1002d4cdac4
:101950008123009a1370f0e7040a0025c0b2002b1f
:101960003bd1072a01d9002b07d02402204361462e
:10197000e5e70134403ae4b292b2402a01d93f2c63
:10198000f7d1072a01d90e2807d90f28e9d13f2c12
:1019900008d00134e4b20a38e3e70130073ac0b2b4
:1019a00092b2eee70b00dce7013c403ae4b292b2bf
:1019b000402a01d9002cf7d1072a0cd9002805d1db
:1019c000002c0fd0013ce4b20a2006e00138073aaf
:1019d000c0b292b2f0e70028f2d0072ac5d9002d94
:1019e000e6d0c2e71d002000f7e7f0204001a6e79f
:1019f000eb4005936b46267c9f8aff2e09d1009b06
:101a00005f807f232374009b1b78012b00d039e774
:101a100020e0002301213000d840ddb2084203d08d
:101a20000133082bf7d100253900100002f0bef871
:101a3000002803d00123ab401e4326740123002d50
:101a400006d0013dedb2ab40227c9a432274dae726
:101a5000009a1370f823059a1b021a420bd01e4bf2
:101a6000ff18039bbfb21b6805935b79bb4200d391
:101a700008e7452344e7194bdf1bf2e7eb400593ea
:101a80006b46667c9f8a3509072d30d039001000df
:101a900002f08cf8002825d101350123009a13703b
:101aa0000f232d011e403543009b65745f801b781a
:101ab000012b00d0e6e6f823059a1b021a4218d043
:101ac000054bff18bfb2019bcfe7c0465a03002069
:101ad000240300202803002001f8ffffff07000077
:101ae0000f3f0000002dd8d0013dedb2d8e706250c
:101af000d6e71d4bdf1be5e7eb400f2505936b4653
:101b0000677c9e8a3d4027d03100100002f04ef8dd
:101b100000281cd1013dedb20123009a13700f2360
:101b20009f433d43009b65745e801b78012b00d072
:101b3000a8e6f823059a1b021a420fd00b4bf618a1
:101b4000019bb6b25b79b34200d39be691e70f2dc0
:101b5000e2d00135edb2e2e70125e0e7024b9e1b42
:101b6000eee7eb43db0fb8e6ff07000001f8ffffed
:020000040000fa
:020000040c00ee
:101b7000f0b518258d4b45431b6887b05a688c4ccf
:101b800055191a682e7c92780392da68d2780492fa
:101b90006a7c02920f22029911400191ea68a968b9
:101ba000a163e263039a802a03d06a6829682163eb
:101bb000626306223f2742437e499868e36a8018a1
:101bc0000b408288e362e36a110abb433940194340
:101bd00012b2e1620023002a00da0123032123610b
:101be000754b02781b689c460b407449970706d5d5
:101bf00005220270c022e06a92020243ade0d206e2
:101c0000520ff7d10327aa7c6d4812093b40052ae1
:101c100000d09ee0e76a38408027bf023843e06288
:101c2000e26a9b0511400b43e3626346012b19d125
:101c30000f21644b1a780a401a7010221878024358
:101c40001a7000206246604b18701a705f4b1a7849
:101c50008a4361461a701a780a43d2b21a705c4bf2
:101c600018701970e36a5b4a5b491340e362029b98
:101c7000e26a5b065b0f1b060a401343e362019bab
:101c8000002b00d078e0032e00d203260f20e3695a
:101c90005249f7b23a040b401343e361e3691b0274
:101ca0001b0ae361049b5843019b1e30002b05d0a7
:101cb000590001f0d9fa4b1e99414018711c490096
:101cc000884267d96b461b7b401a5bb2002b03da54
:101cd00001230340c0184008012800d90138ff2221
:101ce000b04252d9e169104091430843e0610f21ad
:101cf000ea7c3b4deb688b43eb60e968131c082ad8
:101d000000d908231f22dbb20b43eb606b689343bf
:101d10006b60049a6b6813436b608023019a9b008d
:101d20001343636002f0c6fb02232268134323605f
:101d30002c4bab62c2232b602b4b1b78012b2cd17d
:101d40006b6302f0c7fb0023eb623133ab6407b077
:101d5000f0bd022a03d9e26a0240e26260e7234f43
:101d60009200d2591700e26a059203221740059aa1
:101d70003f0402403a43f0e7019b012b00d085e786
:101d8000002e00d082e71e0080e7e36993431f43e3
:101d9000e761ace7e369ff22f8e704236b6302f035
:101da00099fb0123eb623333d0e7c04624030020c4
:101db00000280042fff0ffff18030020ffff3fff55
:101dc000fffffcff3a000041550000413b0000418d
:101dd00056000041ffffff8ffffffff8ffff00ffee
:101de000001c0042607e0000ff0400206847000cd9
:020000040000fa
:020000040c00ee
:101df000f7b5964b1a7a032a04d9013a1a72da68af
:101e0000120ada6004001a7a00219446d200d2b293
:101e10009440da6814431a7cdc60f02a19d08c4ea6
:101e20000c224a439559b218576865402f4200d09a
:101e3000a4e01900147a1431e0cae0c1902c00d05b
:101e400093e05a1cd17f002903d0702252420a43ea
:101e50001a749a1cd27f002a00d081e00f2104005e
:101e60008c43502c00d0d3e003217a4c01402278df
:101e7000002a0bd01f25da1c5557002d06d1764ab3
:101e80001e1d12680432d27f2570f277da1cd27fd1
:101e900052b2002a18d103276478661c3e40b14232
:101ea00000d070e05d1dec7f0134ec779c1de27783
:101eb0001f245a1d14571a1dd27f52b2944200d0cb
:101ec0006ee00124da1cd477644ad27f52b20192c8
:101ed0006a461679fd22751c15403fd1604cfe3aca
:101ee00022805c4a5478594aa14204d00327a6199b
:101ef0003e40b14265d1019b574d961d012b55d1f6
:101f00001f232d68f3560335ed7f6db29d4201dd31
:101f10000133f3771f26504b951d1b68ae570333d3
:101f2000db7f5bb2b34259d1f0230f27d61d137468
:101f3000f37f01333b40a7000124f37716000332ff
:101f4000d27f3c4352b21b012343d417a41ae40f9f
:101f5000083664002343f3770023eb773d4b597039
:101f600063463a4a01331372febd8f2c04d1591ccb
:101f7000ca7f0132ca776ce71c746ae70131142901
:101f800000d04de765e7651e3d40a94203d15d1dc8
:101f9000ec7f013c89e7a14200d189e75c1d86e71f
:101fa00052429442dad1da1cff248ce71f232d68b9
:101fb000f3560335ed7f6db26d42ab42aadd013bb6
:101fc000a7e7264ef5775e1df577234e0433366876
:101fd0000536f67fde77224b1d809be75b429e42f3
:101fe000bcd1f1230f27d61d1374f37fa400013b4e
:101ff0003b400127f37716000332d27f3c4352b2b5
:102000001b012343d417a41ae40f0836bc40a1e7f0
:102010007f210140202912d10124d91cca77591de2
:10202000ca77991dca77197ca143f02900d11a7487
:10203000f021084a073351700022da7790e7102c1c
:1020400000d08de70122034b1a7089e7d0000020f1
:10205000302d000c9604002004000020d300002046
:04206000000000205c
:020000040000fa
:020000040c00ee
:1020640010b5794b1a6854780f23210099430b005b
:1020740010293dd0202960d0302965d040296ad06c
:102084000e21200088430100f0286bd0f12870d085
:10209400902b75d05f2321009943a02979d0c02cbf
:1020a40000d182e0c12c29d194780223d356002b8d
:1020b40000daa8e0654a127852b29a4205da634a15
:1020c4001370634a137801331370614b1b78062b2a
:1020d40002d95f4b06221a705d4b1878010001f09b
:1020e400e3fc5c4bc1221a705b4bc03a1a7005e0ea
:1020f400002300220121012001f006fb574b5b68fd
:102104001a78002a00d087e01b7b002b00d083e0e4
:102114004e4b1a704e4b1a704e4b1b78002b75d1d8
:102124004c4b00221a704e4b1b780a2b78d14a4b29
:1021340000221a7002f0acfa7fe000230022002192
:10214400012001f0e1fad9e72f3b01220021002010
:1021540001f0dafad2e7002301220021002001f085
:10216400d3facbe701230122ef39012001f0ccfaa5
:10217400c4e7002301220021012001f0c5fabde7d4
:10218400344b1b78002bb9d10f20204001f0e2fc26
:10219400b4e7304b1b78002bb0d12f4b01221a70bf
:1021a4000f20204001f0d6fca8e791780223d356f3
:1021b4000024002b24db274a1278002a06d1244a63
:1021c4001278062a02d0224a062111701f4a127878
:1021d40052b29a4208dd1d4a13701d4b1b78002b26
:1021e40002d01b4a013b1370194b1878010001f00f
:1021f4005bfc184bc0221a70174bbf3a1a707de76c
:102204004942ccb2d7e76442e4b253e70e4b1b68b1
:102214005a7002f03dfa83e7114b1b780a2b0dd05c
:10222400094b1b685b780c221a4206d00f239c438f
:10223400902c02d0084b0b3a1a7010bd054b1b783a
:10224400002bedd173e7c0460c0500205503002098
:10225400560300205403002051030020e80400200a
:04226400fe04002054
:020000040000fa
:020000040c00ee
:10226800f0b502008db00b20002a6ad055681168bd
:10227800ab7801934b7802932b7b002b3ed0002444
:1022880020002b889c46019b5b000393029b5e0009
:102298006746a3b29f4256d86b7b984200d87be032
:1022a800cb6802995b181978013119701168536865
:1022b8004878c968085c997b88421fd169469d683f
:1022c800029b0989e81803780391002b53d0013b3e
:1022d800dbb26e466f46b68800213e823e8a0124f4
:1022e800b44667468eb2b74247d8002cedd003708b
:1022f8000023180051688978994247d8029b69469b
:102308005b000a93019b56685b08013306936b4692
:102318009b888b818b890b9300239c46039333887e
:1023280003998b4244d8029b01990133dbb28b425b
:102338008941b0680b40c05c716808700020126861
:1023480053700db0f0bd062363438f68fb185f8898
:102358004b689b5b9f420ad9fb1a9bb21f1c8342a6
:1023680000d2071cb8b2039b0134f61890e79f42cd
:10237800f9d2db1bf1e70f23abe7039fb74203d08a
:102388006e5c9e4200d100240131aae71168c96839
:10239800c85401339bb2ade75b088342aed9cb6822
:1023a80002995b1819780029a8d001391970a5e796
:1023b8000623039910684b438168cb1804931b7854
:1023c800db065b0f40d16146406849004118059122
:1023d8000499059849880a9c0993015301999942df
:1023e8002ed9002005995d004919089104000121a2
:1023f8000de09f420ad0059d6700ed5b0795089d9b
:102408002f88079dbd4215d10131c9b20134019d04
:10241800e7b2bd42edd8069c8c4204d9844206d965
:102428004118a14203db089b1b880993019b0133d8
:10243800dbb2d3e7079dbd42e8d20130c0b2e5e781
:102448006946049b898c5980039b0b9901339bb285
:0e245800039363468c4663449bb29c465fe749
:020000040000fa
:020000040c00ee
:022466007047bd
:020000040000fa
:020000040c00ee
:1024680070b56d4b9b7d002b19d06c4b9c6a6a4be9
:102478005b8b9b0714d5694b2022ff2199540132ad
:10248800fd399954654b20229b5c5bb2013300d126
:102498008fe0624b20229b5c062b00d1a2e070bd2e
:1024a8005d4b5b8bdb0707d55c4b2022ff219954e2
:1024b8000132fd399954e5e7574b5b8b5b0707d52c
:1024c800564b2022ff2199540132fe399954d9e7fd
:1024d800524b20229b5c5ab2032b49d0042a13d0ba
:1024e800022acfd14d4b1b69002b06d04b4b988845
:1024f80080b2002101f002fbc4e7484b988880b203
:10250800012101f0fbfabde7444a936912699a4236
:102518000dd0424a9268d05c3f4928228854591c01
:102528003d4ad369002bfcd13c4b9961aae73b4b50
:102538005b69002b0ed0394b9b885b00012213434b
:10254800354a5362d369002bfcd1344b2022032136
:10255800995497e7304a5168c0239b020b43536054
:10256800d369002bfcd12d4b20220621995489e7f1
:102578002a4bd9695b69013b8b420cd0264ad36947
:10258800002bfcd1254bda68234d2820285c5054b9
:102598000131d96176e7204a5068e023db02034322
:1025a8005360d369002bfcd11c4b20220620985481
:1025b800e4e71a4b00219954174a5168c0239b023b
:1025c8000b435360d369002bfcd1134b83221a763b
:1025d800124b5b6a002b00d161e7104b5b6a20004d
:1025e80098475ce70d4b002220215a5401315a5478
:1025f800094b83321a761900533a4b8b1340102b30
:10260800fbd1064b5b6a002b00d148e7034b5b6aa2
:102618002000984743e7c04600040042f401002028
:020000040000fa
:020000040c00ee
:10262800f8b505000b24002909d0002807d0594f18
:10263800083c3b78002b02d0042b02d10124200057
:10264800f8bdc3681b78013b022b01d90224f6e7c9
:10265800514b1860514b196001688a78402a6bd138
:102668004f4b98689043986030209a6882439a60ec
:102678009a682d3882439a6000229a610b79484ef5
:102688000f2b00d97fe0f3600123464a1370002224
:10269800454b1a8001f030fc041e78d101f06afd28
:1026a8000128cbd1042303213b70404b404f1a68cb
:1026b8008a43802189011a603e4af967bff34f8f28
:1026c800bff36f8f3f279f63364f58633870c32718
:1026d8008030ff301150bf00d059ef683f78bf07f6
:1026e8003f0cbc46344f384067463843c327bf00c9
:1026f800d0511160f820dc61dc66b2682f494001d6
:102708000a40b2602e4ae968b4629a624a781202b4
:1027180002405a605868ca7802435a609c608a78b6
:10272800002a32d180225202da6000221a611e4b3e
:102738001888fff719fa82e7802a0fd14020184b32
:102748009a6882439a609a68103882439a609a68b5
:102758002d3882431000012202438ce7822a00d0e0
:1027680074e740200e4b9a6882439a609a68103842
:1027780082439a609a682d388243100001220243ee
:102788009a60412279e70f237de7dc60cde70224d8
:102798003c7054e75a030020240300201c03002047
:1027a80000280042ff040020ca020020001c00424a
:1027b80004e100e000e100e0ff00ffffffffbfffd2
:0427c800607e00002f
:020000040000fa
:020000040c00ee
:1027cc0010b5584b1b79022b13d0032b49d0002b7f
:1027dc006cd101f003fe05286bd901f059fd552889
:1027ec0067d1504c0421200001f0d6fe0223237146
:1027fc005fe04c4b1b78022b1ad0012b59d101f006
:10280c00edfd012855d901f043fd040001f040fd18
:10281c00002c4ed1aa284cd14348038841494c780e
:10282c000122a24013439bb2038003230b7140e0af
:10283c003c4b5c883b2c04d95878210000f034f9cf
:10284c0037e001f0cbfd844233d237480388354959
:10285c004c780122a24013439bb2038003230b71db
:10286c0027e0324b1b78002b23d12f4b1b881b05e9
:10287c001fd02c4b1b78012b10d0022b19d1294cbb
:10288c006188607800f010f90023237126490b88c9
:10289c0060780122824093430b800ae0214c6078df
:1028ac00002100f091ff0023237102e01d4b002258
:1028bc001a711e4b1b78002b04d11b4b1b881bb2af
:1028cc00002b00db10bd1a4c23781a4ad15c1a4a33
:1028dc0011701178c9b2194a5b009a5a032001f0a1
:1028ec00bffb174b22789200d358002098472378cf
:1028fc00144a1549c95c1180144a59008a5a144962
:10290c009b005958012001f0e7f923780133dbb221
:10291c00042b02d0064a1370d4e7054b00221a7020
:10292c00d0e7c04608030020440300204a030020df
:10293c00e30200200848000c4b030020d447000c95
:10294c004847000c3a0300200448000cdc47000cfc
:04295c005847000ccc
:020000040000fa
:020000040c00ee
:1029600010b5484b1b78012b03d0474b00221a703f
:1029700010bd464b1b78dbb2454a12889a4228d8d4
:10298000444b1b78022b31d0424b1b78012befd1eb
:10299000414b1b78dbb2414a128893425bd2404bd9
:1029a0001878c0b201f0e6fc3b4c2378dbb23d4a1c
:1029b0008000825818009047344b01221a70237807
:1029c0000133dbb22370384b1b68187801f058fed6
:1029d000cee72e4c2378dbb2334a1268d05c01f08c
:1029e0004ffe23780133dbb22370c1e72a4b1b78fb
:1029f000dbb22a4a1288934208d3274b1b78dbb2fa
:102a00009a4217d0204b00221a70b1e7224c21784d
:102a1000c9b2264b587800f0ddfe1c4b01221a701b
:102a200023780133dbb223701f4b1b68187801f049
:102a300027fe9de7184a13780133dbb213701c4957
:102a40000b881a4a50780122824093430b80aa20b7
:102a500001f016fe8ce7104b1b78dbb29a4203d0d4
:102a6000094b00221a7083e70b4a13780133dbb25b
:102a700013700f4a13885b045b0c1380aa2001f0cb
:102a8000fffd75e75b0300204a030020430300209d
:102a90004603002049030020480300203a03002099
:102aa0004b0300204847000c1003002008030020bf
:042ab00044030020bb
:020000040000fa
:020000040c00ee
:102ab400f8b5ce46474680b5040001f093fc060005
:102ac400022c2ad051d8002c00d182e0434f142e7e
:102ad40000d87ee0424c2500143501f0ddfb207067
:102ae4000134a542f9d1387801f078fb3b78013301
:102af400dbb23b70143eb6b20a2be8d1374b00214f
:102b04001970384a117138490b8850780122824073
:102b140093430b8001f0c0fb5be0304f334b98468e
:102b2400032e56d93c7865002d19454401f0b4fbb9
:102b3400287001f0b1fb687001f0aefba87001349d
:102b4400e4b23c70033eb6b20a2ce9d1234b002117
:102b54001970244a117124490b885078012282404b
:102b640093430b8001f098fb33e0062c25d10b280e
:102b74002fd91a4b99461b4b98461b4f1c4c2500ca
:102b84000b3501f089fb20700134ac42f9d14b467e
:102b9400187801f015fc0b3eb6b200234a461370b8
:102ba400424613713b88517801228a4093433b800b
:102bb40001f072fb0b2ee1d80be0200001f0e2fce7
:102bc400084b59880b4b8000c05801f0e9fc01f018
:102bd40063fbc0bcb946b046f8bdc046c90200207c
:102be400a4020020080300204403002078040020ed
:082bf400d8020020dc45000cb2
:020000040000fa
:020000040c00ee
:102bfc00e022454bd200f0b51a641a64e022d201ef
:102c0c001a6585b01a650b25002854d0036800227c
:102c1c001b88170001933d4b15001e685c6802234e
:102c2c009c46019993b2994248d8384b002f01d059
:102c3c001e605c601a685b68029203931300039a2f
:102c4c0013435fd0324c2378002b4ed101f02cfc77
:102c5c00012230490b6813430b60227000240126bb
:102c6c000f2722000298039901f0dafc30421fd0a2
:102c7c001f21294be35c1940580901914a08c101f5
:102c8c008c46334234d013001021244a63449b18e1
:102c9c001a7849423a401a701a780a43d2b21a701a
:102cac00019ac301d3181e4a9b1800221a701e7079
:102cbc000134302cd5d1280005b0f0bd1823534376
:102ccc004168cb18997c0909052901d002290ad839
:102cdc0099681f680f433e4301275968db68194305
:102cec000c4301329de76546fbe701f0ddfbb5e7e0
:102cfc0013000a4a63449b181a78ba431a701a785c
:102d0c003a43cce70225d6e700200042000300201e
:102d1c005a030020002800424042000c30000041c1
:042d2c004000004122
:020000040000fa
:020000040c00ee
:102d300010200000f0ffffff8f0000001020800037
:102d4000f0ffffff9000000010202080f0ffffff49
:102d5000900000001080a090f0ffffffd001000065
:102d600012305020f2ffffff11000000123050a07f
:102d7000f2ffffff1301010010305020f0ffffffb2
:102d800010000000103050a0f0ffffff1201010002
:102d900011325220f1ffffff21000000113252a03a
:102da000f1ffffff2301010010325220f0ffffff6f
:102db00020000000103252a0f0ffffff22010100ae
:102dc00018335320f8ffffff31000000183353a0e1
:102dd000f8ffffff3301010010335320f0ffffff26
:102de00030000000103353a0f0ffffff320101005c
:102df00014315120f4ffffff41000000143151a0b5
:102e0000f4ffffff4301010010315120f0ffffffed
:102e100040000000103151a0f0ffffff420101000f
:102e20000001020301010101020102020301020388
:020000040000fa
:020000040c00ee
:102e300010b5334b1b78002b32d1324b1b78dbb2f1
:102e4000322b2fd92f4b00221a702f4b18789b78da
:102e5000034302d12a4b0a321a70002101f0d8f93b
:102e6000294b5b78012b13d0274b1b785b00dbb21f
:102e7000254c2370a078012101f0caf9e378012bd9
:102e80000ad0214b9b785b00dbb21f4a937009e0ac
:102e90001d4b1b785b08ebe71b4b9b785b08f4e74b
:102ea000012b00d010bd174a1378184908881b1849
:102eb0009bb20b8000211170c82b11d9134b00223b
:102ec0001a80134b1b78002becd0114a013b137076
:102ed0001f2001f09df901211f2001f099f9e1e780
:102ee000642bdfd901f0d6fb094b1b78002bd9d11d
:102ef000064b00221a80024b0a321a70d2e7c046f3
:102f0000fe04002058030020140300200e030020bc
:042f10005303002047
:020000040000fa
:020000040c00ee
:102f140010b5294b1b78012b06d0284b1b78012bad
:102f24000cd0fff751fc10bd25492648fff77afb6a
:102f34000028f2d1204b00221a70eee71f4b00222a
:102f44001a70fef753fc002823d11f48fff78af9b3
:102f5400002812d11d48fef703fa002811d11c489d
:102f6400fdf79af8002810d11a48fdf719fd00283a
:102f740012d0194b05221a700ee0174b02221a7058
:102f8400e8e7154b03221a70e9e7134b04221a7081
:102f9400eae7114b01221a7001f066fb0b4b1b6828
:102fa4001b787f2b03d80d4b01221a70b9e7024b13
:102fb40001221a70b5e7c046500300204f030020d9
:102fc400bd47000cd804002014050020a8040020ec
:102fd400e80400200c0500204d0300204e030020cf
:020000040000fa
:020000040c00ee
:102fe4003f2370b5254ca36301f05af8244d2549bd
:102ff4002b8809689a008918234a1278012a21d15a
:10300400226d01330a602b8000f078ff00280dd177
:1030140001f0b2f81d4b012805d1042228881a704a
:10302400fef7a4fd70bd02221a70fbe70022184bc4
:103034001a635a639a63da631a645a64154b1b68f9
:103044009847efe7226d18240f200a6012495c4369
:103054000d68002669680c19a17c0840e17c88424f
:1030640001d2091aceb20624f2406343a868c318f9
:103074005a800222054b1a70084be0e7001c0042fc
:10308400ca02002028030020ff0400205a03002065
:10309400002800421c0300202403002020030020f9
:020000040000fa
:020000040c00ee
:1030a400f0b5c66885b007000d0030001900019224
:1030b4001c0001f0acfa011c030400d500210bb282
:1030c400039300230293ac420ad0611e89b23000fc
:1030d40001f09dfa011c030400d500210bb20293f8
:1030e400019bea18013a0023944209d0611c89b279
:1030f400300001f08cfa031c020400d500231bb23b
:103104006a461189641b9bb22403928999421bd39a
:10311400d01a80b2c31ac91889b20c2200f0b4fbc9
:103124000e4bc01880b2019b0019022b06d919005e
:10313400013989b280b2002200f0a6fb81b23800c6
:1031440000f0fefb05b0f0bd581a80b2511a4118c8
:1031540089b20c2200f098fbe5e7c04600f0ffffbf
:020000040000fa
:020000040c00ee
:10316400f7b5c7681500380001930c0001f04ffa59
:1031740029000600380001f04afa331c864200d9bf
:10318400031c9bb20093ac421dd90135164eadb25f
:10319400ac420cd1019b002b04d0009bd808181a18
:1031a40083b20093009b9e42b6417042febd29004b
:1031b400380001f02cfa031cb04200d9331c01354d
:1031c4009eb2adb2e4e70134074ea4b2a542e1d900
:1031d4002100380001f01bfa031cb04200d9331c53
:0c31e40001349eb2a4b2f1e7ffff00002e
:020000040000fa
:020000040c00ee
:1031f000002934d00123002210b488422cd30124aa
:103200002407a14204d2814202d209011b01f8e73e
:10321000e400a14204d2814202d249005b00f8e7f7
:10322000884201d3401a1a434c08a04202d3001b23
:103230005c0822438c08a04202d3001b9c08224356
:10324000cc08a04202d3001bdc082243002803d094
:103250001b0901d00909e3e7100010bc704701b554
:10326000002001f0d5fa02bd0029f8d003b5fff720
:0c327000c1ff0ebc4243891a1847c0463b
:020000040000fa
:020000040c00ee
:10327c001a4b8021996202229a61194b9022920179
:10328c005a625a6a0a435a62164b174a1a62190052
:10329c0004224b681a42fcd1124a84234021d1509b
:1032ac0010004431402243581a42fcd00d4a982356
:1032bc004021d15010005831402243581a42fcd0c2
:1032cc00084aa0234021d1501000603140224358bd
:1032dc001a42fcd0054b064ada61704700140040d4
:1032ec0000100040001c00400021010000080040bc
:0432fc00870c00003b
:020000040000fa
:020000040c00ee
:10330000f8b51d4b1b7d002b34d01b4a93685168c8
:103310001a4a127ed2071ad5994218d91749072599
:10332000154f3e003c000ae03a685800825a0a8570
:10333000013360680a7ed20709d5984207d94a68e6
:103340002a40012af0d03268d25c0a85f0e70a4aa6
:10335000936052689a420dd8074b00221a755a6042
:10336000064a01211175db68002b03d0024b186956
:10337000db689847f8bdc046c40100200008004241
:020000040000fa
:020000040c00ee
:10338000f7b50c25c3684d439c46032382684b4325
:1033900055196c6863442d8964889f781b78641b79
:1033a000e41aa3b201930025436860461e88b54223
:1033b00001d10020febd8d4218d08378bb4215d1cb
:1033c00013787b33dbb2012b15d913899c465368e4
:1033d0005b889c450ad264461b1b04789bb2a342bf
:1033e00004d91b1b019c9bb29c4204d30135adb296
:0a33f00003300c32dbe70120dce7bc
:020000040000fa
:020000040c00ee
:0233fa0070471a
:020000040000fa
:020000040c00ee
:1033fc0010b5174b174a118819809178997011796b
:10340c00d9705179197191795971d1799971117a60
:10341c00d971517a1972917a5972d27a9a720e4b79
:10342c0001221a80002806d00c4b094a1a600c4b5a
:10343c000b221a8010bd0b4b59780a32043000f065
:10344c000ffe03490b22022000f046fcf2e7c046b7
:10345c00d8020020980400203a030020100300201a
:08346c004603002008030020c4
:020000040000fa
:020000040c00ee
:1034740070b5041e2fd0194b1b7d0020002b29d1c1
:10348400164b1c60596001221a755868144b1b7e38
:10349400db0716d5002817d000231149072601257c
:1034a40007e0e25c0a8501330a7e2a420bd0984287
:1034b4000ad04a683240012af3d15a00a25a0a8536
:1034c400f1e7002000e01800044b9860044b01224f
:1034d4009a75012070bd0020fce7c046c40100209d
:0434e400000800429a
:020000040000fa
:020000040c00ee
:1034e800bff35f8f62b6174bc02080001958164a89
:1034f8001140c02212040a431a5004221a600430f0
:103508001a581202120ac02109060a431a508022c8
:103518001a60c22189005a58ff2082433f3802436b
:103528005a50802252001a60c32080001958074a56
:103538001140c02212020a431a50802292011a60d6
:103548007047c04600e100e0ffff00ffff00fffffb
:020000040000fa
:020000040c00ee
:1035580010b5194b2c229b5c002b18d0164bda693e
:103568001b6a934213d2144b986a14490a8d92b27b
:103578001b6a4c6807212140012909d00e49896935
:10358800ca5401330c4a1362d2699a4205d010bd5d
:10359800094989695c006252f3e7074b00222c2134
:1035a8005a54da61054a583111755b6a002beed01e
:1035b800014b5b6a9847eae7c40100200008004213
:020000040000fa
:020000040c00ee
:1035c80070b5144b0a221a80134a14494400231870
:1035d800db00cb181d7c15745d7c55749b7c937443
:1035e8002418e4000919cb7cd374002806d00c4bae
:1035f800094a1a600b4b14221a8070bd0a4b59787d
:10360800c822043000f02efd03491422022000f0e5
:1036180065fbf2e73a030020a402002060030020c3
:0c362800100300204603002008030020cf
:020000040000fa
:020000040c00ee
:1036340070b500f087fd1448fff7defa134801f077
:1036440031f80024104d2100280000f051ff210022
:10365400280000f0d1fb0134a4b20a2cf3d10c4da4
:1036640000240c4ee1b22a00300000f051ff013476
:10367400a4b206350a2cf5d1074800f04ffe00f03d
:10368400d5fe00f089fe70bdd80400202002002081
:0c36940088010020a8040020e8040020a9
:020000040000fa
:020000040c00ee
:1036a00030b58223db05012240215a5401315a549e
:1036b00003315a5401315a5401315a5401315a5488
:1036c0000a315a5401315a5401315a5407315a546b
:1036d00002315a5401315a542d3922205854cf31d5
:1036e00010301954013019543824f0251d55013477
:1036f00019550434e13d1d55013419553f395a54cb
:0a37000001315a54af32985430bd25
:020000040000fa
:020000040c00ee
:02370a00fee7d8
:020000040000fa
:020000040c00ee
:10370c0030b5154c24780a2c00d030bd134c2478dd
:10371c00002cfad1104c00252570114c0135257068
:10372c00002806d00f48417001290cd00d4901200a
:10373c000870002ae9d00b4ad370012b07d0094b33
:10374c0001229a70e1e7010010200870f1e71300e4
:10375c0010229a70d9e7c046fe04002056030020c0
:08376c005703002014030020a4
:020000040000fa
:020000040c00ee
:10377400144b01221a601a00d369002bfcd1114b9f
:10378400802252005a601a00d369002bfcd10d4be1
:103794007222da600c4a1a601a00d369002bfcd139
:1037a400084b10225a831a00d369002bfcd1074b13
:1037b400002221215a5401395a54024b83329a75fa
:1037c4007047c0460004004216001000f4010020b7
:020000040000fa
:020000040c00ee
:1037d40070b5012819d006281bd0104b01221a807d
:1037e4000f4b5e7800f0cefe04000e4b4200d55a1b
:1037f4002a003100042000f037fc0b4ba400e158f0
:103804002a00022000f06cfa02e00800fff7dafe5a
:1038140070bd0800fff7f0fdfae7c0463a03002048
:0c382400080300208847000cdc45000c65
:020000040000fa
:020000040c00ee
:1038300010b5134b1888023080b21880092808d8b8
:10384000104b1b780233dbb2132b0fd80d4a1370c9
:1038500010bd0a21fff7ccfc80b200f043ff084cfa
:1038600020880a21fff700fd2180e9e7054b0022af
:103870001a70054b01321a70142000f07dffe7e743
:0c3880000e0100204c030020500300202b
:020000040000fa
:020000040c00ee
:10388c00013210b5d2b2002906d1134b180010bd6d
:10389c00013a4000d2b280b203b2002b01db002a05
:1038ac00f6d10bb2002b11da0023002aeed01cb299
:1038bc00002ceadb5b00013a9bb2d2b2884203d304
:1038cc00401a013380b29bb24908eee7013249003d
:0c38dc00d2b289b2e5e7c046ffff000051
:020000040000fa
:020000040c00ee
:1038e800f7b50d001900070001921c0000f08dfecd
:1038f80000260090ac4205d9611e89b2380000f05c
:1039080084fe0600019b0020ed18013dac420cd25c
:103918000c2301346343fb185a681b8952889a4266
:1039280003d9a1b2380000f070fe009b864202d98c
:0c393800f618b0b2febdc01880b2fbe76c
:020000040000fa
:020000040c00ee
:10394400802210b5c37952011c09081c914200d988
:10395400101c0f2180b2194012d028230139c9b29a
:10396400013159430023884201d3401a83b2802293
:1039740049005201511a89b20c221800fff784ff42
:10398400054a031c904200d9131c98b20c231c1b3b
:0c399400204180b210bdc046ff0f0000b3
:020000040000fa
:020000040c00ee
:1039a00000230e4a10b513600d4a13600d4a1360d0
:1039b0000d4a13600d4a13600d4a536213610133bf
:1039c000936000f027ff00f025ff0a4c0a4b9c4251
:1039d00000d310bd08cc9847f8e7c046300300205c
:1039e0008c0000208800002080000020840000203f
:0c39f000900000208800000c8c00000cef
:020000040000fa
:020000040c00ee
:1039fc00114b124a1a60124a9a81c02292025a60e2
:103a0c001a00d369002bfcd10b4a136802210b431b
:103a1c001360d369002bfcd10a4b00229a61da6146
:103a2c001a622c215a545a621a605a609a601a759a
:103a3c00da60da857047c046000800420401104085
:083a4c0056ecffffc40100204d
:020000040000fa
:020000040c00ee
:103a540010b5144b9b7d002b16d0124a137edbb29b
:103a6400927d52b2002a10db0e4a137edbb2927da5
:103a7400d20701d5db070ed40a4a137edbb2927d4e
:103a8400520701d55b0709d410bd5bb2002bebdafa
:103a940000f014fae8e7fff731fcede7fff75afd11
:083aa400f2e7c04600080042f1
:020000040000fa
:020000040c00ee
:103aac0070b504000d0000f0effd0423002004218c
:103abc00012601e0013b08d3ca1ad2b29542f9d9ca
:103acc0032009a401043c0b2f4e7002100f09afb98
:103adc00042300200421012501e0013b08d3ca1a6c
:103aec00d2b29442f9d92a009a401043c0b2f4e7fa
:083afc00012100f087fb70bd01
:020000040000fa
:020000040c00ee
:103b040010b5114b00229a61da61104b83321a7698
:103b14005a680f4c22405a601a00d369002bfcd11a
:103b240000290cd0084b202203249c544000084355
:103b3400064b58621a00d369002bfcd110bd024b0e
:103b4400202204249c54f1e7f401002000040042e4
:043b5400fffffbff75
:020000040000fa
:020000040c00ee
:103b580010b5002803d00e4b1b780a2b00d010bddf
:103b68000c4b1b78002bfad1094b01221a700a4b17
:103b780001381870094b00221a80094b1a7000216d
:103b88001f2000f041fb01211f2000f03dfbe6e76c
:103b9800fe04002056030020530300200e030020db
:043ba800580300209e
:020000040000fa
:020000040c00ee
:103bac00124b1a6806235843936818184388002050
:103bbc008b4218d018d2c91a136889b29a78402a45
:103bcc0000d14908012084290dd8002005290ad9e3
:103bdc00db78074a9b069b0f5b00985a484380b2e0
:103bec00411e8841c0b27047591ae5e724030020f2
:043bfc00f447000c7e
:020000040000fa
:020000040c00ee
:103c0000062359430c23584310b5114c0918631867
:103c10005888085398889a80588080b2824213d07e
:103c20000b5b984210d09a420fd0824206d998423c
:103c30000ad8101c9a4206d9181c04e0984203d3f3
:103c4000101c9a42f8d380b210bd1000fce7c046a9
:043c50004802002006
:020000040000fa
:020000040c00ee
:103c540010b5064c2378002b07d1054b002b02d05e
:103c6400044800e000bf0123237010bd700200204f
:103c74000000000000000000044b10b5002b03d02e
:103c84000349044800e000bf10bdc0460000000026
:083c9400740200200000000092
:020000040000fa
:020000040c00ee
:103c9c0070b50e4943001a1852008a1856880c4aff
:103cac0016800c4d1c18a4002c1924895480361b2a
:103cbc0096801c18a400645de40994711b185b00c9
:103ccc00cb181979d1715b79137270bd8801002002
:083cdc00e402002008000020b2
:020000040000fa
:020000040c00ee
:103ce40010b50b4b1b78002b00d010bd094b18707e
:103cf4000748012303700848037008480370084b01
:103d04001960084b1a80087800f0b8fcede7c0464b
:103d14004a030020490300204803002043030020f5
:083d24001003002046030020fb
:020000040000fa
:020000040c00ee
:103d2c0010b50a4b98470a4b984700f0d1f9094b4c
:103d3c00ff229343084a9360084b9847084b9847d7
:103d4c00084b984700f052fcfee7c0464747000c72
:103d5c004747000c0000000c00ed00e0a139000cfe
:083d6c004747000c4747000c1b
:020000040000fa
:020000040c00ee
:103d740070b504000d00002815d00c4b2c229b5c60
:103d84000020002b00d070bd00f070fa074b9c613e
:103d9400dd6100221a622c2101205854da85044b7b
:103da40084329a75efe70020ede7c046c401002095
:043db40000080042c1
:020000040000fa
:020000040c00ee
:103db80030b50e4b0e4a4400211889008d5c012154
:103dc800294019702118890051188d7a5d70cd7ab3
:103dd8009d700d79dd70497919712418a4001219a4
:103de800117a5971527a9a7130bdc046f00200209a
:043df8008c02002019
:020000040000fa
:020000040c00ee
:103dfc0010b504000b20002c13d0236809381a8846
:103e0c008a420ed306224a439b78a1688a18402b1b
:103e1c0008d1a0231b0100209380022311780b43af
:103e2c00137010bd02208343802bf6d1f0235b016d
:023e3c00f1e7ac
:020000040000fa
:020000040c00ee
:103e3e00002a17d04b1c984214d04b1e984211d01a
:103e4e0043189bb2012a02d142009b1802e0022abb
:103e5e0009d15b009bb2884207d902339bb2023371
:103e6e0098b2800870474a00efe78842f7d2023bcb
:023e7e00f4e767
:020000040000fa
:020000040c00ee
:103e80000e4b01221a6019000b6c1a42fcd10b4b2d
:103e9000812252005a60ff3a1a6100229a60802102
:103ea00089009962c900d960da613f2199639a64f7
:103eb000190001320b6c1a42fcd17047001c004201
:020000040000fa
:020000040c00ee
:103ec00010b50d4b5a8b0723110019401a4200d12f
:103ed00010bd0a4ce18500f0cbf9074b84221a751e
:103ee0002c230022e254636a002bf1d0034b986a22
:103ef0005b6a9847ece7c04600080042c401002016
:020000040000fa
:020000040c00ee
:103f00000d4a70b51068012502680c491488062214
:103f10000b885a439c420ad98668b65c06322e4208
:103f200002d101339bb2f5e700200b8070bd002366
:103f300001200b80fae7c04624030020ca020020bb
:020000040000fa
:020000040c00ee
:103f4000030070b505000020904207d303201840fd
:103f5000411e88415b1b9b08c01870bd1c78002c5b
:103f600007d00c70013301300131ede700260e550a
:103f700001345e78a642f9dc091900190233e3e73f
:020000040000fa
:020000040c00ee
:103f800010b50b4a1378dbb20a490b480078c854c5
:103f900013780133dbb2137013783c2b04d006483e
:103fa0000121fff7e7fe10bd130000221a70f6e7ab
:0c3fb0003f030020100100203703002018
:020000040000fa
:020000040c00ee
:103fbc000b4b1a780b4b1b789a4208d008d20a4844
:103fcc000178c9188a1ad2b20270054a1370704768
:103fdc0005480178c91814318a1ad2b20270f4e774
:0c3fec00520300204c030020580300206a
:020000040000fa
:020000040c00ee
:103ff80010b50d4908888b884a88c988c31a1bb22e
:10400800521a12b2d9175818d417484011196140da
:10401800884204dbd817c01ac00f400010bd012029
:0c402800002afbdc0320f9e7d000002098
:020000040000fa
:020000040c00ee
:1040340010b504000b4b20201b5c0020002b00d08b
:1040440010bd084b9c80d860586199601a619870c3
:1040540018702122985400212000fff751fd0120ff
:08406400eee7c046f401002064
:020000040000fa
:020000040c00ee
:10406c00f8b507000e0014000a4d00232b705520e4
:10407c0000f0a0fa380000f09dfa300000f09afa37
:10408c00e0b200f097fa200a00f094fa01232b70aa
:08409c00f8bdc0465b030020e3
:020000040000fa
:020000040c00ee
:1040a40070b50025094b0a4c1d703f23a36323639d
:1040b40000f00efa0121074aa564a56213688b4338
:1040c4001360032223689343236070bd59030020c7
:0840d400001c0042002800421c
:020000040000fa
:020000040c00ee
:1040dc0010b50b480168002905d14368002b02d1ab
:1040ec0000f053fb10bd04008368064a9bb20c34ed
:1040fc009b009b5842682000984780002018e9e7f5
:08410c00940e000cf846000cb3
:020000040000fa
:020000040c00ee
:104114000b4b01221a8019000b691a42fcd1084b7f
:10412400c02252001a80803aff3a1a6219001f32e4
:104134000b691a42fcd1024b802252005a8170470b
:044144000024004013
:020000040000fa
:020000040c00ee
:1041480010b50a48002100f023fb094908220b6931
:104158001a42fcd100f006fa002000f06ffa0120a4
:1041680000f076fa00f0f0f910bdc046e547000c03
:0441780000240040df
:020000040000fa
:020000040c00ee
:10417c0010b572b6094c2378012b01d100280bd055
:10418c00012807d1fff788ff054b1a78042a01d1c3
:10419c00023a1a700120207062b610bd590300203b
:0441ac005a03002092
:020000040000fa
:020000040c00ee
:1041b00010b5084b9a8992b207494a60074a9a811a
:1041c0009b890b68002b04d00b00486889681b682a
:1041d000984710bd00240040cc020020ff81ffff63
:020000040000fa
:020000040c00ee
:1041e00070b5094a41000b18db00d318074c657cf9
:1041f0005d74a57c9d74257c1d741a00e37cd374ca
:1042000000f062f870bdc04660030020a4020020e8
:020000040000fa
:020000040c00ee
:1042100010b500290bd11f310140084b1b78002b32
:1042200001d020231943142000f034f910bd1f21c0
:104230000140152000f02ef9f8e7c0465103002098
:020000040000fa
:020000040c00ee
:10424000ffff020304050607ffffffffffffffff5d
:10425000101112131415161718191a1b1c1dff1f05
:10426000ffffffffffffffff28292a2b2c2d2e2ffa
:020000040000fa
:020000040c00ee
:10427000094b5b8b5b070dd0074b80221a76793a8e
:104280005a831b7e5b0705d5034b04211a8d1a7eca
:0c4290000a42fbd17047c0460008004203
:020000040000fa
:020000040c00ee
:10429c00084a1378dbb20849c85c13780133dbb2e7
:1042ac00137013783c2b00d07047130000221a7047
:0c42bc00fae7c046390300201001002082
:020000040000fa
:020000040c00ee
:1042c80010b5040006482100fff794fd620012199a
:1042d8005200044bd218e1b2034800f017f910bda0
:0c42e800d804002088010020a804002059
:020000040000fa
:020000040c00ee
:1042f40010b5fff780f8fff7d1f9fef7bdfffff720
:104304007bfbfff735fafef7acf8fff7b7fdfff7d5
:0c431400fffefff78df9fff7e5f810bd84
:020000040000fa
:020000040c00ee
:1043200003000b20002b0fd05b68002b0cd000206b
:10433000187058809880d880188158811873d88157
:0a434000188258829882d8827047d4
:020000040000fa
:020000040c00ee
:02434a00fee78c
:020000040000fa
:020000040c00ee
:10434c00074b20229b5c0120002b07d1054b588b7f
:10435c00302318401038431e9841c0b27047c046f5
:08436c00f401002000040042ee
:020000040000fa
:020000040c00ee
:1043740080280bd082280bd083280bd08438431e8e
:104384009841404202239843033070470020fce7e1
:084394000120fae70220f8e71e
:020000040000fa
:020000040c00ee
:10439c0010b50648002100f0fff90548002100f097
:1043ac0001fa04480121fff7dffc10bd6129000c64
:0843bc00813f000c37030020d3
:020000040000fa
:020000040c00ee
:1043c400064b074a9179d971d1791972117a5972c8
:1043d40092681202120c5a817047c0469804002059
:0443e400d8020020db
:020000040000fa
:020000040c00ee
:1043e800064b1878064b1b78c01a83b2002801dbed
:1043f800c0b270473c3318b2fae7c0463f0300200a
:044408003903002054
:020000040000fa
:020000040c00ee
:10440c0010b50021002000f03ff80021012000f041
:10441c003bf80021142000f037f80021152000f0a3
:04442c0033f810bd94
:020000040000fa
:020000040c00ee
:1044300000200121054b49425a1cd077044a1872ca
:10444000d8602933118018707047c046d000002012
:044450000000002048
:020000040000fa
:020000040c00ee
:10445400054b064a91781970926811785970517811
:1044640099709278da707047b8020020c80400206e
:020000040000fa
:020000040c00ee
:1044740010b5054b054a1178197051785970927826
:104484009a7000f023f910bd400300203c03002083
:020000040000fa
:020000040c00ee
:1044940000b583b06b4618715971022201a920201e
:1044a400fff7c6fdfff750ff0028fbd103b000bda6
:020000040000fa
:020000040c00ee
:1044b4000122064b82b0596a1140019101990029e9
:1044c40001d102b07047596af6e7c046002800429d
:020000040000fa
:020000040c00ee
:1044d4000122064b82b0196c114001910199002907
:1044e40001d102b07047196cf6e7c046001c0042c7
:020000040000fa
:020000040c00ee
:1044f4000b2300280ad003681a8802238a4205d3b2
:1045040004334b43012182689954002318007047f7
:020000040000fa
:020000040c00ee
:104514000b23002809d0002a07d00c234b438168c1
:0e452400c91801230b7000234a60180070476d
:020000040000fa
:020000040c00ee
:10453200002310b5934206d103201840421e904139
:0e4542009b08c01810bdc45ccc540133f2e7d6
:020000040000fa
:020000040c00ee
:10455000054a138802210b431380110002220b69c4
:0c4560001a42fcd17047c0460024004005
:020000040000fa
:020000040c00ee
:10456c00054a138802218b431380110002220b6928
:0c457c001a42fcd17047c04600240040e9
:020000040000fa
:020000040c00ee
:1045880000230549ca5c824204d00133072bf9d1c4
:0c45980000207047d8b2fce7fc47000c84
:020000040000fa
:020000040c00ee
:1045a40070b505000e1e08d00024fff775fe2870b4
:0c45b40001350134a4b2a642f7d170bd5d
:020000040000fa
:020000040c00ee
:1045c00010b5054b01221a7000f05af8024a137810
:0c45d000012bfcd010bdc0464a030020a7
:020000040000fa
:020000040c00ee
:1045dc00f404002060030020780400200205002071
:0c45ec00d4040020980400206904002082
:020000040000fa
:020000040c00ee
:1045f80010b50020fff77afefff704fffef786fcf0
:0a460800fdf72cfd00f0dcf8f8e7e8
:020000040000fa
:020000040c00ee
:104612000c2359434018436802895b880020934267
:0846220001d99b1a98b2704700
:020000040000fa
:020000040c00ee
:02462a00fee7a9
:020000040000fa
:020000040c00ee
:10462c00d0400b00d1409c46203ad3401843524214
:08463c006346934018437047e8
:020000040000fa
:020000040c00ee
:10464400034b9861190008220b691a42fcd1704788
:0446540000240040fe
:020000040000fa
:020000040c00ee
:10465800034b1862190020220b691a42fcd17047db
:0446680000240040ea
:020000040000fa
:020000040c00ee
:10466c00034a1388802109020b4313807047c0460c
:04467c0044030020d3
:020000040000fa
:020000040c00ee
:1046800010b5034b187001211800fef7f3fe10bda2
:04469000ed02002017
:020000040000fa
:020000040c00ee
:1046940010b500211420fff7fbfe00211520fff7c1
:0446a400f7fe10bd50
:020000040000fa
:020000040c00ee
:1046a8000b23002802d0024b186000231800704723
:0446b80028030020b3
:020000040000fa
:020000040c00ee
:1046bc00034b28331878431e9841c0b27047c0464c
:0446cc00d0000020fa
:020000040000fa
:020000040c00ee
:1046d000034b0022190028310a701a747047c04633
:0446e000d0000020e6
:020000040000fa
:020000040c00ee
:1046e400034b00215a5e002a01db801818807047b2
:0446f40000000020a2
:020000040000fa
:020000040c00ee
:1046f8003547000c3345000c0d48000c0d48000ce4
:04470800413f000c21
:020000040000fa
:020000040c00ee
:10470c00002a06d00300c9b2121819700133934263
:04471c00fbd1704716
:020000040000fa
:020000040c00ee
:1047200003b47146490840004900095a49008e44c3
:0447300003bc70470f
:020000040000fa
:020000040c00ee
:104734008a18914201d10020704700230b70013187
:02474400f7e795
:020000040000fa
:020000040c00ee
:024746007047ba
:020000040000fa
:020000040c00ee
:104748009d3c000c5544000cb93d000c7544000c10
:020000040000fa
:020000040c00ee
:10475800e4020020b8020020f002002040030020fc
:020000040000fa
:020000040c00ee
:10476800030000000100000000000000020000003b
:020000040000fa
:020000040c00ee
:10477800024b1a88801818807047c046ee02002045
:020000040000fa
:020000040c00ee
:0e4788000a00c8001e00080003000b000d0010
:020000040000fa
:020000040c00ee
:0247960070476a
:020000040000fa
:020000040c00ee
:0c479800014b186099607047cc020020b3
:020000040000fa
:020000040c00ee
:0c47a400014bd86019617047c40100206f
:020000040000fa
:020000040c00ee
:0c47b000014b586299627047c401002060
:020000040000fa
:020000040c00ee
:0c47bc00014b01221a7070474f030020cf
:020000040000fa
:020000040c00ee
:0c47c80010b5fff7f7fbfef72ffb10bd4c
:020000040000fa
:020000040c00ee
:0847d4005a001100100003005f
:020000040000fa
:020000040c00ee
:0847dc000900110008000300b0
:020000040000fa
:020000040c00ee
:0847e40010b5fff723f810bd2a
:020000040000fa
:020000040c00ee
:0847ec0010b5fef7f9fb10bd4a
:020000040000fa
:020000040c00ee
:0847f4000700130035009000de
:020000040000fa
:020000040c00ee
:0747fc00000102030506079e
:020000040000fa
:020000040c00ee
:044804000a010201a2
:020000040000fa
:020000040c00ee
:0448080080828384a3
:020000040000fa
:020000040c00ee
:04480c0000207047d1
:020000040000fa
:020000040c00ee
:044810007047c046e7
:020000040000fa
:020000040c00ee
:024814007047eb
:020000040000fa
:020000040d00ed
:0404000000000000f8
:020000040000fa
:020000040d00ed
:04040800fffffffff4
:020000040000fa
:020000040d00ed
:04041000f100f0ff08
:020000040000fa
:020000040d00ed
:040418009deefc70e9
:020000040000fa
:020000040d00ed
:040420003ef8ffffa4
:020000040000fa
:020000040d00ed
:0404280060f0e5ff9c
:00000001FF
