:020000040000fa
:10000000f0ff0320611c0000272700008b28000060
:10001000412900004329000045290000000000009c
:10002000000000000000000000000000ff210000b0
:100030001b29000000000000ff210000ff2100003c
:10004000ff210000ff210000ff210000ff21000030
:10005000ff210000ff210000ff210000ff21000020
:10006000ff210000ff210000ff21000045250000c6
:10007000ff210000ff210000ff210000ff21000000
:10008000ff210000ff210000ff210000ff210000f0
:10009000ff210000ff210000ff210000ff210000e0
:1000a000ff210000ff210000ff210000ff210000d0
:1000b000ff210000ff210000ff210000ff210000c0
:1000c000ff210000ff210000ff210000ff210000b0
:1000d000ff210000ff210000ff210000ff210000a0
:1000e000ff210000ff2100000000000000000000d0
:1000f00000000000ff210000ff210000ff210000a0
:10010000ff210000ff210000ff210000ff2100006f
:10011000ff210000ff210000b5200000b5200000f5
:10012000b5200000b5200000ff210000ff210000e5
:10013000ff210000ff210000ff210000ff2100003f
:10014000ff210000ff210000ff210000ff2100002f
:10015000ff210000ff210000ff210000ff2100001f
:10016000ff210000ff210000ff210000ff2100000f
:10017000ff210000ff210000ff210000ff210000ff
:10018000ff210000ff210000ff210000ff210000ef
:10019000ff210000ff210000ff210000ff210000df
:1001a000ff210000ff210000ff210000ff210000cf
:1001b000ff210000ff210000ff210000ff210000bf
:1001c000ff210000ff210000ff210000ff210000af
:1001d000ff210000ff210000ff210000ff2100009f
:1001e000ff210000ff210000ff210000ff2100008f
:1001f000ff210000ff210000ff210000ff2100007f
:10020000ff210000ff210000ff210000ff2100006e
:10021000ff210000ff210000ff2100004527000012
:10022000ff210000ff210000ff210000ff2100004e
:10023000ff210000ff210000ff210000ff2100003e
:10024000ff210000ff210000ff210000ff2100002e
:10025000ff210000ff210000ff210000ff2100001e
:04026000ff2100007a
:020000040000fa
:10026400f8b500bff8bc08bc9e46704735230000b3
:10027400f8b500bff8bc08bc9e46704711230000c7
:020000040000fa
:100284002de9f04f054685b0002800f05582d0f8de
:1002940004a04ff00008c146c3460322cdf80880ed
:1002a400baf800300193bdf80810019b99421ad3a3
:1002b4002a68137819060ad500214ff00c0e019c08
:1002c40088b2844200f20c8103f07f031370bbf107
:1002d400000f40f017811378b9f1000f00f0658129
:1002e40043f0010363e1029b0c20af6800fb03f6bb
:1002f400bc196068037813f01e0e1cbf0123bb55a4
:10030400bb5d042b7cd00ad8022b32d044d8012bfd
:1003140025d0029b08f1030801330293c3e7852b20
:1003240000f09280862b00f0b480072bf1d1218954
:100334004388994269d9c91aeb689af805e089b2e9
:1003440013f8083043fa0ef3dbb28b425dd86378be
:10035400002b77d14ff00103bb550270d9e7bef1f2
:10036400000f03d10221b955082161704ff0010b30
:10037400cfe7617871b1042903d943882381013916
:10038400f3e7238940888342f9d08cbf03f1ff331c
:100394000133f3e7ba55bce72389b0f802e07345ab
:1003a400b7d0e86813d910f80810a3eb0e039af835
:1003b40005009bb20141c9b29942aad89af8043007
:1003c400002ba6d04ff00701b9556370cee7aeeb12
:1003d400030300eb080c10f808009bb2984298d86d
:1003e4009cf8023033b12846039201f0b7fc039a1b
:1003f40000288ed14ff00403bb559af80230e4e78d
:10040400b4f808e043889e4504d9ba554ff0000378
:1004140063707ee7e868a3eb0e0300eb080c9bb265
:1004240010f808009842f0d29cf802303bb12846fc
:10043400039201f093fc039a00287ff46aaf637877
:10044400002b42d0013bc0e72b689af808101971c1
:100454002389b0f802e0734508d96ff07903bb55de
:100464009af8023063704ff001097fe7e968aeeb58
:10047400030301eb08009bb211f808104078013027
:1004840041fa00f0091ac9b29942e6d24ff00109c3
:100494003fe72389b0f802e0734506d963780bb9c6
:1004a400ba55f3e7013b6370f0e7e968aeeb030389
:1004b40001eb08009bb211f808104078013041fab2
:1004c40000f0091ac9b2994205d26ff07a03bb55fc
:1004d4009af80330e7e76378002be1d0013bc1e7ea
:1004e4000efb01f6af68b8194468207810f0010fcc
:1004f40006d1be5d16f0f70f1cbf40f0010020705e
:100504000131dce69af8091000293ff4e4ae1378cf
:10051400012963f07f0313707ff4ddae00210c2703
:10052400019b1ffa81fe73457ff6d5ae07fb01f3ed
:10053400ac6804eb030ce35c13f0f70f27d0852bb6
:1005440001d0032b2bd1d5f80c8001eb410343449c
:1005540093f802a0baf1000f19d0002003469e457b
:100564000fd007fb03f6a65d042e01d0862e08d11a
:1005740003eb43064644b6785645019e04bf01206a
:1005840033460133019e9bb29e42e8d838b9dcf869
:100594000400037823f0010303700131c0e7dcf8a1
:1005a4000400037843f00103f6e723f0010313701a
:1005b400624b51881b8801f1c802934254d95b1adb
:1005c4009ab20c2401260327c82a4fd92b68c83aab
:1005d40092b25988c83159801979002940f086802f
:1005e400597909b101395971997909b10139997167
:1005f400d5f804e09ef80690b9f1000f08d05979b7
:1006040031b9bef800a088b250453dd383f80590b7
:100614009ef807c0bcf1000f08d0997931b9bef833
:10062400008088b2404548d383f806c06b68d97807
:100634000029c9d0b3f800c0002104fb0cf88bb228
:100644006345c1d204fb01f9ab6803eb090e13f84f
:100654000900852806d19ef80100002849d00138f8
:100664008ef801000131eae78b4203d3002005b084
:10067400bde8f08f03f57f42ff32521ac82af5d93c
:100684005a1e521a92b29ce704fb01f0d5f808c036
:100694000ceb00081cf80000032801d008280ad13c
:1006a400d8f80400b8f808c04088604584bf0cf14d
:1006b400010ca8f808c00131a5e704fb01f0d5f846
:1006c40008e00eeb00091ef80000032801d00828fa
:1006d4000ad1d9f80400b9f808e0408870453cbf55
:1006e4000ef1ff3ea9f808e001319ae701391971ca
:1006f4009ce703f80960def8040001eb410e077083
:10070400e86886449ef80290b9f1000faad003eb82
:10071400080a9a45a6d090f802e0ce4509d1d3f84c
:1007240004e09ef800b01bf0010f1cbf1e708ef891
:1007340000700c330330ece70b2098e7c80100206d
:020000040000fa
:10074400a74b2de9f04f87b05b7a002b00f0de81d8
:10075400a44b4ff0000bcdf800b01b6801931b684d
:1007640002931b880393a04b1b680493039b1ffafb
:100774008bf0984206d39a4b02225a72009807b023
:10078400bde8f08f049b0c2633f81b10062303fbf3
:100794000bf4019b5a689d6806fb0b262f5d05eb45
:1007a400040ac7f3820796f80b80042f00f2ad8188
:1007b400dfe817f0050020007e014801f300b27a5b
:1007c40002f00f0290450cd9a8eb0200b8f1040f17
:1007d400c0b20dd9a8f10308804502dcc2f10407b8
:1007e400ffb241fa07f8aaf802800bf1010bbde74a
:1007f4000746f6e7b8f1040f029b28bf4ff0040840
:1008040041fa08f8b8f5007fbaf804101ffa88f224
:10081400aaf80220b5bfc2f5ff726ff4ff7e013261
:10082400724493f802e0a7bf384692b292b2002015
:10083400bef1400f4fea520292b21bd1e0b1f9b1be
:10084400092a21d9c1f30134c1f30320c1f30315eb
:1008540001f00f06002f43d0cf2a01d9002c70d10c
:10086400152a78d9002871d1002c7dd0013c0a20aa
:10087400e4b272e00028e2d043f6ff70814208d16e
:1008840081220e232a5500932a5d570603d501229f
:100894000ce00027d4e7100609d4029bda7802f0b2
:1008a4000302032a06d13f22327211222a55aaf8e2
:1008b40004109ae7022a05d1727a22f00f027272aa
:1008c4000922f3e7012ae2d1727a02f00f0242f020
:1008d400700272720d22e9e70134cf3ae4b292b2a7
:1008e400cf2a01d9032cf7d1152a0dd90f2806d107
:1008f400032c1bbf013405200f20e4b206e00130b5
:10090400153ac0b292b2efe70f28f1d0022a12d9f9
:100914000f2d0bd10f2800f0fc800130032c4ff079
:100924000505c0b20bd0022adad826e0691c023ac7
:10093400cdb292b2eae70f2decd0032c1dd10324e3
:10094400f1e7013ccf3ae4b292b285e70138153ab7
:10095400c0b292b284e7002886d0022a0bd92db9fe
:1009640098b90646054608e02046f6e7691e023aad
:10097400cdb292b2f1e7002df2d0210389b241ea5f
:100984000021314341ea051191e70138022a4ff071
:100994000a05c0b23ff660afefe7b8f1040f96f86e
:1009a400089028bf4ff00408b9f13f0f41fa08f846
:1009b4001ffa88f71ad1aaf802701f2232722a5d30
:1009c400012a7ff412afb8f5007fb5bfc7f5ff77f2
:1009d4006ff4ff730137ff18bfb20a2f5ce000bf4a
:1009e40018010020080000200c000020002229fa31
:1009f40002f1c9075cbf9246062202f1010248bf18
:100a04004ff0000ad2b2052af1d9394601f098f81c
:100a140030b1012202fa0af249ea020986f8089082
:100a24000122baf1000f0bd00af1ff3a5ffa8afaf9
:100a340002fa0afa327a22ea0a0a86f808a0bee71b
:100a44002a55bce796f8099041fa08f81ffa88f885
:100a54004fea1917072f29d0414601f071f800bb5e
:100a6400013701222a5509f00f0949ea071777725d
:100a7400aaf802802a5d012a7ff4b7aeb8f5007f98
:100a840035bfc8f5ff786ff4ff7208f10108904490
:100a94001ffa88f8b8f10a0f7ff6a7ae45222a5547
:100aa400a3e6002fddd0013fffb2dce70627dae73b
:100ab400b8f1040f727a28bf4ff0040812f00f093e
:100ac40041fa08f81ffa88f71cd03946059201f05c
:100ad40037f8059a70b909f1ff395ffa89f90121ec
:100ae400295522f00f0249ea020986f80990aaf86a
:100af400027064e7b9f1070ff1d009f101095ffa57
:100b040089f9eee74ff00109ebe7fee703230093d1
:100b140034e6032c01d0054605e7022a8bbf0546bf
:080b240005460646064628e7d7
:020000040000fa
:100b2c00fc0000201c0000000000000078010020e8
:100b3c000c000000000000009c00002030000000b1
:100b4c0000000000c40100200300000000000000b1
:100b5c007501002001000000000000008d01002044
:100b6c0001000000000000003401002030000000f3
:100b7c0000000000cc00002030000000000000004d
:100b8c00900100200800000000000000c7010020b8
:100b9c000100000000000000980100200800000087
:100bac0000000000ca01002001000000000000004d
:100bbc007802002003000000010000000001020088
:100bcc0070020020060000000100000004008030cc
:100bdc0000070000d80100203000000001000000d8
:100bec0000000000020000000001010400000000f1
:100bfc0004000000000101040000000000000002dd
:100c0c0000010104000000000000040000010104c8
:100c1c0038020020220000000100000070020020b9
:100c2c00d80100204c0100201e01001e01001e01f5
:100c3c00001e01000400040005001405140100004e
:100c4c00080200202000000001000000900100209c
:100c5c0050020020cc0000204402002004000300bd
:100c6c00740200207802002001190600680200209e
:100c7c0008000000010000002802002018020020db
:100c8c0028020020100000000100000000000000fd
:100c9c00340100204c010020c4010020a0010020e0
:100cac000800000000000000cb0100200100000043
:100cbc0000000000b601002002000000000000004f
:100ccc00cc01002003000000000000007601002091
:100cdc000200000000000000cf0100200200000014
:100cec0000000000600000203c000000000000003c
:100cfc0084010020090000000000000064010020b5
:100d0c001100000000000000d101002002000000d2
:100d1c00000000008e010020020000000000000016
:100d2c00b80100200400000000000000b001002009
:100d3c000600000000000000d301002003000000aa
:100d4c00000000005c0200200a000000010000000e
:100d5c00023500041700000500000000d601002039
:100d6c00010000000100000001000000a8010020ab
:100d7c000800000000000000d70100200100000066
:100d8c000100000001000000180100201c00000000
:100d9c000000000000000020100000000000000017
:100dac00c80100200200000000000000bc0100206f
:100dbc0004000000000000001000002050000000a3
:100dcc0000000000c0010020040000000000000032
:100ddc0000000000000000006666666666666666d7
:020000040000fa
:100dec002de9f7430025714c294601f059fd704f50
:100dfc00a946a846238865f34103238001f050fde2
:100e0c000c2501f04dfd3b685b6845432b445b684a
:100e1c00a36201f045fd3e6873685a195b59636221
:100e2c0006235843b3681c181e5ca488b60744bf3d
:100e3c0005261e541b5c5f4e13f01c0f11bf44f4af
:100e4c007c14907a5c4b03eb1013107a01bf1b7a65
:100e5c0063f313441b0963f3155401f021fd534b49
:100e6c003a289bbf0430da7ada7a60f3050288bf3d
:100e7c0042f03f02da7201f013fd4c4bdc6101f0e1
:100e8c000ffd3b6872685b682b44db7a12b1042b54
:100e9c0028bf0423454c63f30308022363f3c409fe
:100eac00042363f30a2901f0fbfca4f8069001f07b
:100ebc00f7fc6ff3061884f80a804ff000083b68c3
:100ecc005b682b44587a000901f0eafca36960f3d3
:100edc001653a3613b685b681d446b7a63f30a216c
:100eec0041f040016ff3c71141f4004141f004019e
:100efc0001f0d6fc072389b2218084f82e3001f052
:100f0c00cffc238843f00203238086f8088001f08d
:100f1c00c7fc7368002b38d001f0c2fce07a00f0fb
:100f2c003f0001f0bdfca169c1f3032101f0b8fc45
:100f3c00278801f0b5fc2388c7f3022768f3410327
:100f4c00238001f0adfca57801f0aafc45f0120558
:100f5c00edb2a57001f0a4fc184ba57a1a68edb29d
:100f6c00137843f00803137001f09afca37a3a4605
:100f7c0068f30303a372124b00957568a84701f040
:100f8c008ffc238843f00203238001f089fc074a7d
:100f9c00237d43f00203237592f82f30db0702d434
:100fac00337a012bf8d103b0bde8f083001c004369
:100fbc00080000201801002014250000000000206b
:040fcc000a1c0043b8
:020000040000fa
:100fd0002de9f04f89b0002800f0e38047680268ef
:100fe0003c7b5378b9784fea430b002c34d0b7f8e8
:100ff00000c000244fea4108de4625464ff00609ae
:10100000a6b2b44549d87c7ba5426ed9d468e25ccf
:101010000132e254046842686578e468655d947b57
:10102000a54219d195681ffa81fe1ffa83fcea5c7c
:10103000002a4ad0013ad2b200240126a7b2be4506
:1010400045d8002ef4d0ea54002217464468561cb6
:10105000a57894b2a54242d84fea510ed0f8049038
:1010600000260ef1010eb4468ab20692b9f800408d
:101070001ffa8cf2944242d80133d9f80420dbb233
:10108000994298bf0023d9f80810c95c1170026812
:101090000020537009b0bde8f08f966809fb046624
:1010a000b6f802a0566836f80e60b24509d9aaeb28
:1010b000060a1ffa8afa554538bf55460134c64418
:1010c0009ee7fbd2a6eb0a0af3e70f22b4e7bc4582
:1010d00003d02f5d974208bf00260134aee70468b5
:1010e00092b2e468a7543246b0e7b5eb540fb3d2de
:1010f000d468e25c002aafd0013ae254ace71ffab0
:101100008cf2062504686a43a568af180297aa5caa
:10111000c2f38202002a3ed16768029c07eb4607b1
:101120000392648827f80b40914230d9540000257f
:101130000794a8463c1905940124019410e09245b7
:101140000cd037f818400494059cb4f800a0049c17
:10115000544518d1019c0134e4b2019408f101080e
:101160005ffa88fa5145ead8019ca64504d9ae45f4
:1011700006d92c44744503db079aba5a03920a46ef
:101180000132d2b2d0e73cbf0135edb2e6e7029ab8
:10119000bdf80c405480069a0cf1010c1644b6b20e
:0611a00064e70b2076e776
:020000040000fa
:0211a600704790
:020000040000fa
:1011a80010b5584b1b79022b1ed0032b56d05bb1c0
:1011b800544b00221a71544b1b7823b9534b1b888c
:1011c80013f4004f72d110bd01f048fa0528f2d986
:1011d80001f0e0f95528eed14a4c0421204601f0ef
:1011e8006ffa02232371e6e7464b1b78022b1ad0cd
:1011f800012be0d101f032fa0128dcd901f0caf95b
:10120800044601f0c7f9002cd5d1aa28d3d13f490b
:1012180008883c4a54780123a34003439bb20b80bf
:1012280003231371c7e7374b59883b2903d95878eb
:1012380000f0baf9bfe701f011fa324b5b8880b2cf
:101248008342b8d2314908882e4a54780123a340f2
:1012580003439bb20b8003231371ace72a4b1b7823
:10126800002ba8d1294b1b88c3f30b03002ba2d05a
:10127800244b1b78012b11d0022b9cd1214c618867
:10128800607800f091f90023237120490b88607879
:101298000122824023ea02030b808ce7194c0021cb
:1012a800607800f059ff0023237184e7184c2378f5
:1012b800184ad15c184a11701178184a32f813206c
:1012c800032001f0bbf82278154b53f82230002098
:1012d80098472378134ad15c134a1180134a32f88d
:1012e8001320134951f82310012000f0c9ff237877
:1012f8000133dbb2022b11bf2370054b00221a7099
:1013080061e700bfb0010020d3010020b601002032
:10131800ce01002030290000cd0100203429000032
:101328002429000038290000760100202c2900001b
:041338001c2900006c
:020000040000fa
:10133c00464b1b78dbb2012b03d0454b00221a70b5
:10134c00704710b5434b1b78434a12889a4227d8f2
:10135c00424b1b78dbb2022b2fd0404b1b78dbb2fd
:10136c00012b29d13e4b1a783e4b1b889a4257d2ff
:10137c003d4b187801f0c2fa394c22783b4b53f8ac
:10138c00203010469847334b01221a7023781344af
:10139c00dbb22370364b1b68187801f03ffa0be078
:1013ac002c4c2378dbb2324a1268d05c01f036fa4e
:1013bc0023780133dbb2237010bd294b1a78294beb
:1013cc001b889a4207d3264a1278934216d0204b98
:1013dc0000221a70f0e7224c2178264b587800f046
:1013ec00b9fe1c4b01221a7023781344dbb2237014
:1013fc001f4b1b68187801f011fadde7184a1378b7
:10140c000133dbb213701c490b881a4a5078012245
:10141c00824023ea02030b80aa2001f0fff9cbe7fc
:10142c000f4a1278934203d0094b00221a70c3e77b
:10143c000b4a13780133dbb213700f4a1388c3f3d2
:10144c000e031380aa2001f0e9f9b5e7d6010020bc
:10145c00d3010020d50100208e010020cc010020fa
:10146c00d401002076010020cd01002024290000a9
:0c147c00b8010020b0010020b6010020e3
:020000040000fa
:101488002de9f04101224249424c43482272066844
:10149800b1f8403020889bb226f81030072081f838
:1014a8002e0008886ff3410008803c4827880168af
:1014b8004d680c2101fb0751c97a04291dd96568bb
:1014c800ddb1257d04391544c9b2edb22575a5698c
:1014d8001d44a56194f814e002fa01f5ae450ed159
:1014e800a56925fa01f126f817102d49097801296f
:1014f80007d0022924d0bde8f08126f81730002251
:10150800f3e70168238848680c2101fb0301c97ac5
:10151800042905d9616819b122b10022a261227596
:101528000133238000f050ff30b92088fff75afcc0
:1015380004236372bde8f081e368bde8f041184711
:1015480006680c252188726805fb0125aa7a02f035
:101558000f00ea7a0625042a28bf0422904238bfe1
:10156800121ab0682cbf0022d2b205fb01010d4d42
:1015780013412d6898b24a88ad79561bb04202ddf6
:101588002a44904202db4b80236998470223d0e724
:10159800001c0043180100200c0000200800002057
:0815a800d7010020040000201f
:020000040000fa
:1015b0002de9f843044601f055f885b2012c38d0e6
:1015c00063b26bb1022c4cd0204601f06df8364b63
:1015d0005988364b53f8200001f076f800f0deff12
:1015e000bde8f883387800f07dff3b780133dbb24b
:1015f0003b70083dadb2042b0bd0082df0d908f19b
:10160000ff3400bf00f0caff04f8010fa642f9d171
:10161000e8e70023264a1370234a137125490b88f3
:1016200050780122824023ea02030b8000f0b6ffcb
:10163000d6e7082dd4d9dff8808008f107061c4fc3
:10164000dde700231a4a1370174a137119490b88f2
:1016500050780122824023ea02030b8000f09effb3
:10166000bee7032dbcd9dff84890dff8508000bffb
:1016700099f8004004eb440707eb080600f08effe2
:1016800008f8070000f08aff707000f087ffb07064
:101690000134e4b289f80040033dadb2042cd0d04f
:1016a000032de5d89ce700bfb00100203c280000d6
:1016b000cb010020b6010020a00100204402002040
:020000040000fa
:1016c000f8b5384f0024a6b2304601f08ff8054631
:1016d000304601f095f8281a27f8020b0134042c43
:1016e000f1d1002001f096f810f0800f22d12e4b9e
:1016f00080229a61012001f08df810f0800f25d131
:10170000294b40229a61022001f084f810f0800fea
:1017100028d1254b4ff00062c3f89820032001f038
:1017200079f810f0800f2dd11f4b4ff08052c3f885
:101730009820f8bd002000f0c9fd18b11a4b802296
:101740009a61d7e7184b80225a61d3e7012000f055
:10175000bdfd18b1144b40229a61d4e7124b4022d0
:101760005a61d0e7022000f0b1fd28b10e4b4ff0d6
:101770000062c3f89820d1e70b4b4ff00062c3f82a
:101780009420cbe7032000f0a1fd28b1064b4ff0d9
:101790008052c3f89820cce7034b4ff08052c3f837
:0c17a0009420c6e7a80100200080004152
:020000040000fa
:1017ac00f8b5002866d003680c261d88002319465e
:1017bc009ab295424ed800295ed0304c01f070f8a8
:1017cc002f48637a002b4fd101f06af8038843f05d
:1017dc000103038001f064f8012301626372294f55
:1017ec000022294c1546012621fa02f3db072cd5e1
:1017fc00d05d00f03f0c10f0010f4fea90134fea50
:10180c005c0e4feac31304eb03002344704463449f
:10181c0090f830e014bf66f3071e66f3030e80f8f1
:10182c0030e083f8405093f8400040f0010083f81a
:10183c00400093f8400065f3820083f8400093f871
:10184c00400065f3410083f840000132202acbd1df
:10185c000020f8bd06fb03f244680133a718a25818
:10186c007c6822431143a3e701f01af8036a0b4387
:10187c000362b4e70b20f8bd0220f8bd180100206c
:0c188c00001c00432225000000800041e9
:020000040000fa
:1018980038b50346002947d0002845d0264d6a7a36
:1018a800002a43d0042a43d000684279013a062a24
:1018b80040d8224ce960236000f0a0f823684ff478
:1018c80000011f4a1b68c2f88c115b795b01dbb20f
:1018d80082f87733d16000f0e5ff1a4991f82c308f
:1018e80043f0040381f82c3000f0dcff072381f873
:1018f8002e3000f0d7ff012291f82d3043f001037c
:1019080081f82d30104b1a7000232b8000f05cfdfd
:10191800044630b9288804236b72fff763fa20461f
:1019280038bd0220687238bd0b2038bd032038bd91
:10193800012038bd022038bd180100200800002011
:0c19480000e100e0001c0043d70100207b
:020000040000fa
:10195400244b00221a74a3f58063c2221a77a3f5dc
:10196400006301225a711a46d37813f0010ffbd099
:101974001d4b1e4a1a621a46536813f0040ffbd11a
:10198400194b1b4a5a621a46536813f0080ffbd1cd
:10199400154b184a9a621a46536813f0100ffbd17c
:1019a400114b4122c3f8dc201a4600bfd2f8dc30c8
:1019b40013f0400ffad00c4b4122c3f820211a46f1
:1019c400d2f8203113f0400ffad00b4b6ff07f4266
:1019d4001a6140f2ff725a61084a9a6180221a62bf
:1019e400704700bf00140040001c004006010100c5
:1019f400060106000601300000080040568201007e
:020000040000fa
:101a040038b50424244b00210a4661f305111d69ed
:101a140064f30e351d611d6964f30a251d615d695a
:101a240064f30e355d615d6964f30a255d61837855
:101a3400402b17d1082363f30301182363f30c220b
:101a440042f01f0000f030ff144b82b21448828031
:101a54001b681b681b790f2b0cd96ff30b2141f406
:101a640080510be0802b15d10a2363f3030141f06d
:101a74004001e2e763f30b216ff30c3100f014ff34
:101a84000322037a62f30303037200f00dff816102
:101a9400002038bd022038bd00200042080000208c
:041aa400001c0043df
:020000040000fa
:101aa80008b51e4b1b78dbb2012b07d01c4b1b78eb
:101ab800dbb2012b0cd0fff773fb08bd19491a489c
:101ac800fff7e6fe0028f1d1144b00221a70ede76b
:101ad800134b00221a70fef731fe78b91348fff74e
:101ae80073fa38b91248fef7c9fb50b1114b0322fb
:101af8001a7006e00f4b02221a70f3e70d4b012211
:101b08001a7000f0c7fe0a4b1b6893f90030002bcf
:101b1800b4bf024b084b01221a70cce7c701002062
:101b2800ca010020f12800003802002068020020c5
:0c1b3800080200208d0100207501002033
:020000040000fa
:101b4400224b30b51a680623946803fb004043888f
:101b54008b4239d0156834bfc91a591aab7889b287
:101b6400402b08bf490884292cd805292cd9828800
:101b7400c2f3013302f00f0403eb4300c3ebc003d1
:101b8400c2f30320c2f3031200eb400003ebc303d0
:101b9400c0ebc000184400eb420080b2052c0cd806
:101ba400eb780b4ac3f3011332f81330594389b26b
:101bb40088422cbf0020012030bd0130053c80b29a
:101bc400e4b2ebe7012030bd002030bd0800002066
:041bd40014250000d4
:020000040000fa
:101bd80010b41f4ad36823f4e0631b041b0c43f0c2
:101be800bf6343f40033d360bff35f8f62b6194b12
:101bf800e02183f80b134ff40060186083f8361364
:101c08004ff48000586083f837134ff40000586091
:101c180083f838134ff080745c6083f839134ff001
:101c280000745c6083f87713d860536a43f48023a8
:101c38005362536943f010035361536a43f400330a
:101c48005362536a43f4803353625df8044b704720
:081c580000ed00e000e100e0f6
:020000040000fa
:101c600008b5194b9847194b9847eff3108172b696
:101c7000174ad2f8883043f47003c2f88830bff3b3
:101c80004f8fbff36f8f01b962b6124a936823f08a
:101c9000010393601346da6812f0010ffbd10d4b7c
:101ca00024225a6001229a6000f0e8fb0a4b23f0dc
:101cb0007f03074a9360094b9847094b9847094ba4
:101cc000984700f0a9fcfee74325000043250000eb
:101cd00000ed00e00060004100000000592000001d
:081ce00043250000432500002c
:020000040000fa
:101ce8001b4b1b7d002b31d010b5194a93685168e6
:101cf800184a127e12f0010f15d0994213d91549ce
:101d080013484a6802f00702012a026814bfd25c2d
:101d180032f813208a62013344680a7e12f0010ff8
:101d280001d09c42edd80a4a936052689a420cd876
:101d3800074b00221a755a60064a01211175db68a3
:101d48001bb1034b1869db68984710bd704700bf8b
:081d58009c0000200020014165
:020000040000fa
:101d6000c268f0b501eb4106931985689f780c2392
:101d700003fb01535c681b896488e41a935de41ad1
:101d8000436828460025a4b21e88abb29e4201d803
:101d90000020f0bd994219d09378bb4216d1037848
:101da0007b33dbb2012b15d94368b0f808e05b88c0
:101db0009e450bd2a3eb0e0392f800e09bb2734555
:101dc00004d9a3eb0e039bb29c4203d3013503322b
:081dd0000c30dae70120f0bd40
:020000040000fa
:101dd80000282ed010b40446184b1b7d5bbb174b54
:101de8001860596001221a755868154b1b7e13f04c
:101df800010f13d0a8b1002311494a6802f0070265
:101e0800012a14bfe25c34f813208a6201330a7e87
:101e180012f0010f04d09842efd102e0002000e058
:101e28001846064b98600120054b98755df8044be1
:101e38007047002070470020f8e700bf9c00002092
:041e48000020014134
:020000040000fa
:101e4c0070b500f0f7fb1748fff7aafc164800f036
:101e5c00f9fc0024134da6b23146284600f03efc96
:101e6c003146284600f09ef90134042cf3d10f4d75
:101e7c000f4c2a460021204600f07afcaa1d0121b5
:101e8c00204600f075fc05f10c020221204600f002
:101e9c006ffc05f112020321204600f069fc00f0f2
:101eac008dfb70bd38020020980100204c010020f1
:041ebc0008020020f8
:020000040000fa
:101ec00038b5144b04221a80134a144944002318cd
:101ed00001eb83031d7a15715d7a55719b7a9371bd
:101ee000044401eb8401cb7ad37130b10c4b0a4a24
:101ef0001a600c4b08221a8038bd20220a4b5978f0
:101f0000042000f09ffa08220349022000f0bcf9e7
:101f1000f2e700bf76010020a0010020d8010020d8
:0c1f2000b80100208e010020b00100205c
:020000040000fa
:101f2c0030b4184bc0221a60022183f8461083f893
:101f3c004710012283f85b20002083f83300102423
:101f4c0083f83d404ff0c055c3f8805083f8c7204c
:101f5c0083f8c82083f8c92083f8d82083f8d920c7
:101f6c0083f8db1083f8dc1083f8b340112283f87c
:101f7c00b420332283f8bc2083f8bd0083f8be0064
:081f8c0030bc704700800041e9
:020000040000fa
:101f940008b5174b93f82c30cbb1154bda691b6a93
:101fa400934214d2124b986a124a916a1b6a52687d
:101fb40002f00702012a0e4a926914bfd15422f892
:101fc400131001330a4a1362d2699a4200d008bd41
:101fd400074b002283f82c20da61064a842111750c
:101fe4005b6a002bf3d0024b5b6a9847efe700bfb4
:081ff4009c00002000200141c7
:020000040000fa
:101ffc00154b01221a801a46136b13f0010ffbd1fb
:10200c004ff080131b681a0902f07002d90001f41a
:10201c00e0610a43c3f382031a430b4ba3f8482035
:10202c004ff400721a800322da7283221a724ff470
:10203c00c0529a800222da80072283f82e201a4698
:0c204c00136b002bfcd17047001c0043fc
:020000040000fa
:102058000e4a38b5002313600d4a0e4c13600e4a21
:102068000e4d13600e4a13600e4a13600e4a5362f7
:1020780013610123936000f063fc00f061fcac4243
:1020880000d338bd54f8043b9847f8e7c001002056
:102098001c000020700200001800002074020000dc
:0c20a80010000020140000202000002088
:020000040000fa
:1020b40008b5144b9b7df3b1124a137edbb2927dbb
:1020c40012f0800f18d10f4a137edbb2927d12f00a
:1020d400010f04d013f0010f01d0fff703fe094aea
:1020e400137edbb2927d12f0040f04d013f0040fc0
:1020f40001d0fff74dff08bd13f0800fe3d000f0cf
:0821040083f9e0e7002001412e
:020000040000fa
:10210c00114b124a1a604cf204529a814ff440322d
:10211c005a601a46d369002bfcd10b4a136843f062
:10212c0002031360d369002bfcd1094b00229a6186
:10213c00da611a6283f82c205a621a605a609a602b
:10214c001a75da60da8570470020014104011040ed
:04215c009c000020c3
:020000040000fa
:1021600070b5012817d00e4b01221a800d4b5e78f6
:1021700000f09afa04460c4b33f810502a463146c8
:10218000042000f05ff92a46084b53f8241002207f
:1021900000f07af870bd0846fff792fefae700bf3c
:1021a00076010020b0010020fc2800003c2800003f
:020000040000fa
:1021b00008b303681a888a421fd39b788268402b31
:1021c0000dd106234ff40d7003fb012398800020ee
:1021d00006235943535c43f002035354704783f082
:1021e0008003012b05d8062341f2342003fb012391
:0e21f000ece70220ece70b207047022070475e
:020000040000fa
:0221fe00fee7fa
:020000040000fa
:102200000f4b01221a801a46136913f0010ffbd1fc
:102210000b4b4ff4c0721a8001221a621a461369de
:1022200013f0200ffbd1064b00225a621a461369a5
:1022300013f0400ffbd1024b4ff480725a8170476c
:042240000024004036
:020000040000fa
:10224400f0b40d494200131801eb43035d880b4bb6
:102254001d800b4e1418a40037193f895f80ed1bb5
:102264009d80345de4099c71024401eb4202928832
:10227400a3f80720f0bc70474c0100208401002023
:04228400cc0000206a
:020000040000fa
:1022880008b50a4b1b7803b108bd094b1870012328
:10229800064803700748037007480370074b196026
:1022a800074b1a80087800f0bbfaede7d30100204d
:1022b800cc010020d4010020d5010020b801002065
:0422c8008e01002063
:020000040000fa
:1022cc0010b40e4b33f910300d4a82fb0312a2eb03
:1022dc00e37212b20023094c02e00133042b08d044
:1022ec00d9b28842f9d034f913109142f5dd0120ae
:1022fc0000e000205df8044b704700bfa8010020ef
:04230c005655555578
:020000040000fa
:1023100010b5054c227832b9044b13b10448aff321
:1023200000800123237010bdfc000020000000008d
:102330000000000008b5034b1bb103490348aff38d
:10234000008008bd00000000000100200000000027
:020000040000fa
:10235000b8b138b505460c4a92f82c200ab10020d5
:1023600038bd0c4600f0a6f8074b9d61dc610022e9
:102370001a62012083f82c00da85044b84229a75b6
:10238000eee70020704700bf9c00002000200141c4
:020000040000fa
:1023900008b50c4a1378dbb20b4908780b49c854ce
:1023a00013780133dbb213701378dbb23c2b04d00b
:1023b00001210548fff7ccff08bd134600221a7023
:1023c000f6e700bfd0010020d1010020600000200e
:020000040000fa
:1023d0000c490d4a30b50868138801680c8806213d
:1023e0005943a3420ad285686d5c0631ed0702d4d9
:1023f00001339bb2f5e71380002030bd002301209c
:0c240000138030bd0800002018010020ef
:020000040000fa
:10240c000b4b5b8b13f0070300d1704710b5094cd5
:10241c00e38500f049f8064b84221a75002384f8f2
:10242c002c30636a13b1a06a636a984710bd00bf71
:08243c00002001419c0000207a
:020000040000fa
:10244400f8b507460e4615460a4c0023237055205e
:1024540000f084f9384600f081f9304600f07ef946
:10246400e8b200f07bf9280a00f078f90123237020
:08247400f8bd00bfd6010020f5
:020000040000fa
:10247c0070b50b480b4d4ff6ff76016821b94368d8
:10248c0013b900f05afa70bd83684268334000f10a
:10249c000c0455f823302046984704eb8000ece7f9
:0824ac002c0b00006428000065
:020000040000fa
:1024b4000a4b5b8b13f0070f0ed0084b80221a7661
:1024c40007225a831b7e13f0040f05d0034b9a6a2c
:1024d4001a7e12f0040ffad1704700bf00200141a8
:020000040000fa
:1024e40038b5094a4400231802eb830307494d79a0
:1024f4005d728d799d720d791d721a46cb79d372f6
:1025040000f034f838bd00bfd8010020a00100203d
:020000040000fa
:1025140007001300350090003f1c0b05030103481e
:102524004904060708090a0b10111213141516178b
:0e2534001b1e4243444546474c4d4e4f40410e
:020000040000fa
:022542007047e0
:020000040000fa
:1025440008b5084b9a8992b207494a604cf2ff32a7
:102554009a819b890b6823b10b46486889681b687c
:0c256400984708bd0024004078010020ca
:020000040000fa
:1025700010b5044601460648fff71afe04eb440274
:10258000044b03eb4202e1b2034800f0f7f810bd40
:0c259000380200204c010020080200204e
:020000040000fa
:10259c00084a1378dbb20849c85c13780133dbb204
:1025ac0013701378dbb23c2b00d07047134600221b
:0c25bc001a70fae7cf0100206000002038
:020000040000fa
:1025c80008b50021054800f083f90021044800f00f
:1025d80085f901210348fff7b7fe08bd3d13000048
:0825e80091230000d101002045
:020000040000fa
:1025f00008b500f04bf9fff799fcfff7abf9fff7cf
:1026000085fdfef7d0fdfff7f9fcfff7f9fdfff7b9
:082610001dfcfff7e1fa08bd13
:020000040000fa
:1026180008b50020fff7e8ff064c03e0002323700d
:10262800fff74af8fff73cfa2378dbb2012bf9d120
:08263800f4e700bf750100206a
:020000040000fa
:1026400008b50021064800f041f900f06df80020bf
:1026500000f0aef8142000f0b5f800f09df808bdc9
:04266000132900003a
:020000040000fa
:10266400064b1b78064a10781b1a9bb218b2002836
:10267400bcbf3c3318b2c0b2704700bfd0010020c9
:04268400cf01002062
:020000040000fa
:10268800054b064a917819709268117859705178fb
:1026980099709278da70704764010020180200205f
:020000040000fa
:1026a800034648b1012809d0022807d0032805d0dd
:1026b800052818bf002000d070470423184670472b
:020000040000fa
:1026c80038b559b104464d1eadb20135054400bfb9
:1026d800fff760ff04f8010bac42f9d138bd00bf29
:020000040000fa
:1026e80050b103681b888b4208d30623826859437c
:1026f80000200123535470470b2070470220704775
:020000040000fa
:1027080010b50023934206d113f0030018bf01202f
:0e27180000eb930010bdc45ccc540133f2e71b
:020000040000fa
:02272600fee7cc
:020000040000fa
:10272800054a138823f002031b041b0c138013694a
:0c27380013f0020ffbd17047002400409a
:020000040000fa
:1027440008b5054a92f82e3043f0010382f82e3082
:0c275400fef798fe08bd00bf001c00430b
:020000040000fa
:1027600008b5054b01221a7000f05ef8024a137892
:0c277000dbb2012bfbd008bdd301002020
:020000040000fa
:10277c0010b548b142b10c23012459438368581851
:0c278c005c544260002010bd0b2010bd0a
:020000040000fa
:10279800044a138843f002031380136913f0020fed
:0827a800fbd170470024004042
:020000040000fa
:1027b000034b98611a46136913f0080ffbd1704759
:0427c00000240040b1
:020000040000fa
:1027c400034b18621a46136913f0200ffbd17047ac
:0427d400002400409d
:020000040000fa
:1027d80008b5034b01221a70142000f06bf808bded
:0427e800c701002005
:020000040000fa
:1027ec0000eb4000024b03eb40035888704700bfde
:0427fc004c0100206c
:020000040000fa
:1028000000eb4000024b03eb80031889704700bfc8
:04281000cc000020d8
:020000040000fa
:10281400034b9b6800eb400013f82000704700bf97
:042824000802002086
:020000040000fa
:1028280008b5034b187001211846fff7d1fa08bd07
:04283800d2010020a9
:020000040000fa
:10283c005c020020d801002044020020520200203b
:04284c002402002042
:020000040000fa
:1028500018b1034b1860002070470b20704700bf71
:042860000c00002048
:020000040000fa
:1028640079280000092700003d2900003d290000c7
:042874003d290000fa
:020000040000fa
:102878000a440023914201d10020704701f8013b2e
:02288800f8e76f
:020000040000fa
:02288a00fee767
:020000040000fa
:10288c00024b4ff482721a80704700bf0040004127
:020000040000fa
:10289c00024a138843f4004313807047b6010020aa
:020000040000fa
:1028ac00024b1a6b002afcd1704700bf001c00437e
:020000040000fa
:1028bc00024a138818441080704700bfc8010020da
:020000040000fa
:0c28cc00014b18609960704778010020f3
:020000040000fa
:0c28d800014bd860196170479c00002083
:020000040000fa
:0c28e400014b5862996270479c00002074
:020000040000fa
:0c28f000014b01221a707047ca01002041
:020000040000fa
:0c28fc000a0020000c000800030000bfd0
:020000040000fa
:0a290800822814bf00200120704750
:020000040000fa
:0829120008b5fff760ff08bde6
:020000040000fa
:02291a00fee7d6
:020000040000fa
:08291c00840100206401002089
:020000040000fa
:08292400452200008926000095
:020000040000fa
:04292c00090011008d
:020000040000fa
:04293000808200bfe2
:020000040000fa
:04293400240011006a
:020000040000fa
:04293800040100bfd7
:020000040000fa
:04293c0000207047c0
:020000040000fa
:02294000fee7b0
:020000040000fa
:02294200fee7ae
:020000040000fa
:02294400fee7ac
:020000040000fa
:022946007047d8
:020000040000fa
:022948007047d6
:020000040000fa
:0200000400807a
:044000003912003c35
:020000040000fa
:0200000400807a
:044004008000a82a66
:020000040000fa
:0200000400807a
:04400800ffffffffb8
:00000001FF
