:020000040000fa
:10000000f07f0020151c0000a31f000057210000f6
:1000100000000000000000000000000000000000e0
:100020000000000000000000000000008717000032
:100030000000000000000000871700008717000084
:100040008717000087170000e51e000087170000d3
:100050008717000087170000871700008717000028
:10006000871700008717000087170000451a000057
:100070008717000087170000871700008717000008
:1000800087170000871700008717000087170000f8
:1000900087170000871700008717000087170000e8
:1000a0008717000011230000871700008717000042
:020000040000fa
:1000b000f8b5c046f8bc08bc9e467047651b0000fa
:1000c000f8b5c046f8bc08bc9e4670473d1b000012
:020000040000fa
:1000d000f0b587b00090009b0b20002b00d1e2e12f
:1000e000002603275b68049602931b8801960593fc
:1000f0000396049b059a93421ed1009b1a681378bd
:1001000059b200290bda0820002101268446049cfc
:1001100088b2844200d9ffe07f210b401370039b1b
:10012000002b00d009e1019801231178002800d1ab
:100130005be10b4313705ae1009bb5009b685d19ae
:100140001e236a681178194001d001232b702b7887
:10015000042b73d00ad8022b2ed043d8012b23d0e6
:10016000049b033601339bb20493c2e7852b00d175
:1001700082e0862b00d1a9e0072bf1d12989538891
:1001800099425fd9c91a009b0298db6840799b5d50
:1001900089b20341dbb28b4254d86b78002b69d112
:1001a00001232b701770dbe703930029d8d10223ba
:1001b0002b7008236b70d3e76978002910d0528820
:1001c000042904d92a810139697001237ce02b8933
:1001d0009342f8d002d9013b2b81f4e70133fbe7ce
:1001e0002f70bde7298953889942b9d0009ad26807
:1001f00010d9cb1a0299925d49799bb20a41d2b2c9
:100200009a42add8029b1b79002ba9d007222a70f5
:100210006b70dae792195b1a11789bb299429fd8fa
:100220009378002b05d00499009801f06ffa00280c
:1002300096d104232b70029b9b78e9e72989538888
:10024000994202d92f700023b4e7009a5b1ad26852
:100250009bb2921911789942f4d29378002b06d070
:100260000499009801f052fa002800d078e76b78e2
:10027000002b47d0013bcbe7029b00991b7a096812
:100280000b7128895388984207d986232b70029bcb
:100290009b786b700123019316e0009a1b1ad268b9
:1002a0009bb291190a784978140001310c4101215f
:1002b000121bd2b201919a4200d251e786232b70d1
:1002c000029b9b786b700b00039349e72889538846
:1002d000984209d96b78002b01d12f7001e0013bc6
:1002e0006b70012301933be7009a1b1ad2689bb203
:1002f00091190a784978140001310c41121bd2b2cd
:100300009a4204d285232b70029bdb78e8e76b7856
:10031000002be2d0013bbce70c2500984d438068e0
:1003200045196f683878304205d164462d78a54369
:1003300001d0304338700131e9e6029b597a002937
:1003400000d1f0e6802310785b420343137001294b
:1003500000d0e8e600218bb20393049b88b283426d
:1003600000d8e0e60c20009b48439b68082518183d
:10037000029303781c00ac4315d0852b01d0032bce
:100380002ed10325009bdf682b004b43fb189b7885
:100390009c46002b07d000231e000595049c9c4220
:1003a00008d8002e1cd1012540680378ab430370a8
:1003b0000131d0e7039c9c420fd00c255d43029c89
:1003c0002d5d042d01d0862d07d1059d5d437d193e
:1003d000ad78654501d10126049b01339bb2dde771
:1003e0000123406805782b43e1e799431170528857
:1003f000584b11001b88c8318b4251d99b1a9bb2b4
:100400009c466346c82b4dd96346c83b9bb29c466d
:10041000009b1b685a88c8325a801a79002a00d07b
:1004200070e05a79002a01d0013a5a719a79002a6b
:1004300001d0013a9a71009a50688679002e07d04f
:100440005a79002a04d1078891b28f4234d85e715c
:10045000c579002d07d09a79002a04d1068891b277
:10046000b1423cd39d71009b5b68da78002ac8d00a
:100470001f880c23002103207b4302938bb2bb42d5
:10048000bfd20c22009b4a439b689a181578852d91
:1004900004d15578002d38d0013d55700131ede77c
:1004a000934202d3002007b0f0bd2b495918891a96
:1004b000c829f7d9013ba1e70c21009c5143a4684e
:1004c00061180d78032d01d0082d06d14c680d89d7
:1004d0006488ac4201d901350d810132b4e70c21a9
:1004e00000985143806841180878032801d00828f3
:1004f00006d14c6808896788874201d20138088193
:100500000132ace7013a1a71ade70124050014701d
:1005100052684d431070009ad2685519ad78002d7d
:10052000bcd0029c02321c1901920394039a93429c
:10053000b4d0019a1678ae4206d101225e683478b2
:10054000144201d01a703070019a0c3303320192b8
:0c055000ece7c0466a010020ffff00003d
:020000040000fa
:10055c000322f0b5ae4b89b01b7a0592002b14d058
:10056c00ac4b1b6803931b6804931b880693aa4b24
:10057c001b6807930023029305936b461a89069b0d
:10058c009a4205d30222a24b1a72059809b0f0bd0b
:10059c00029b07995b00cc5a062302994b430399a3
:1005ac008968ce180399029b49683578db00cb1813
:1005bc00ed0601936d0f9b79042d00d925e12800e0
:1005cc0001f056fe050013000501d6000f000f21a7
:1005dc00019a52790a40934201d99d1aedb22c41ed
:1005ec007480029b01330293c7e71c418b4aa3b270
:1005fc007380b788934217d9894a9b182a009bb2fb
:10060c0004998978402914d15b08151e13d1854aa9
:10061c00002597420fd1812333700e230593337835
:10062c005a0622d5012330e07c4ad31a9bb2002211
:10063c00e6e7002aebd1042bf1d90f24b9043a12c6
:10064c003811890f224020402740002d32d0cf2b6b
:10065c0001d9002962d1152b6ad9002a63d10a1e4f
:10066c0068d00139c9b20a2264e05bb2002b0ddb01
:10067c000322049bdb781340022b0bd10f22019b2e
:10068c001b799343019a137109233370bf04bf0c78
:10069c00b780a6e7012bc5d10f22019b1b791a400d
:1006ac0030231343019a13710d23eee70131cf3b35
:1006bc00c9b29bb2cf2b01d90329f7d1152b0dd978
:1006cc000f2a06d10f2203290ad00131c9b2052203
:1006dc0006e00132153bd2b29bb2efe70f2af1d004
:1006ec00022b0dd90f2806d10f2a0fd1032900d1c7
:1006fc008ce010000fe00130023bc0b29bb2efe780
:10070c000f28f1d0032924d1032104e00132d2b205
:10071c0005200329f8d0022bccd81ae00139cf3ba5
:10072c00c9b29bb293e7013a153bd2b29bb292e7a6
:10073c00002a94d0022b0ad9002803d1002a10d108
:10074c00100006e00138023bc0b29bb2f2e7002871
:10075c00f4d009038cb2120214432743000107435f
:10076c0096e7013ad2b20a20022b00d96fe7f0e7e4
:10077c001c41019ba4b21f793d09032d25d02100fa
:10078c00100000f039ff00281ad101350123337015
:10079c000f232d011f40019b3d431d713378748045
:1007ac00012b00d01de7ff33ff339c422ad91c4b91
:1007bc00e418a4b2052c00d813e74523337010e7d6
:1007cc00002de3d0013dedb2e2e70225e0e71c414c
:1007dc000f25019ba4b21f793d4011d021001000c0
:1007ec0000f00aff002806d1013dedb20123337061
:1007fc000f239f43cfe7032df8d00135edb2f7e778
:10080c000125f5e7054b1c1bd3e7fee7170097e71f
:10081c00e40000200400002008000020ff0100007c
:08082c0001feffffff3f000089
:020000040000fa
:10083400c80000201c00000000000000100100207f
:100844000c000000000000009800002030000000b0
:1008540000000000780100201000000001000000ea
:1008640034010020b40100201c010020e801002014
:10087400e801002003000000010000001401000052
:100884001c0100200c0000000000000034010020c6
:100894000800000000000000b40100200a0000006d
:1008a400010000000100040005001405140100000b
:1008b400cc01002008000000010000008801002095
:1008c40098010020880100202000000001000000a1
:1008d40000000000440100204c0100206c010020b5
:1008e40001000300e0010020e4010020010f0600e4
:1008f4006c0100200300000000000000e40100205f
:100904000300000001000000000102004401002077
:100914000600000000000000a80100200c000000f8
:1009240001000000dc010020d40100204c01002063
:10093400d4010020080000000100000000000001b4
:10094400000004004c01002006000000000000002c
:10095400dc010020060000000100000001008030de
:1009640000030000680100200200000000000000f5
:100974004301002001000000000000000d010020e0
:10098400030000000000000031010020030000000b
:10099400000000003c0100200700000000000000ef
:1009a400c00100200a000000010000000233000121
:1009b40017000005000000002801002009000000c5
:1009c400000000005c0000203c000000000000006b
:1009d4006f01002003000000000000004a01002015
:1009e400020000000000000052010020020000008c
:1009f400000000007201002003000000000000005d
:100a04007701002001000000010000000100000047
:100a14007501002002000000000000005c010020bd
:100a240004000000000000005a0100200200000041
:100a34000000000054010020060000000000000037
:100a4400fc0000201100000000000000e70100206d
:100a5400010000000100000001000000e40000208b
:100a64001800000000000000000000200c0000003e
:100a7400000000006a0100200200000000000000e5
:100a84006001002004000000000000000c000020b1
:100a94005000000000000000640100200400000079
:100aa40000000000000000000000000066666666aa
:020000040000fa
:100ab400f0b502008db00b20002a6ad05568116889
:100ac400ab7801934b7802932b7b002b3ed0002410
:100ad40020002b889c46019b5b000393029b5e00d5
:100ae4006746a3b29f4256d86b7b984200d87be0fe
:100af400cb6802995b181978013119701168536831
:100b04004878c968085c997b88421fd169469d680a
:100b1400029b0989e81803780391002b53d0013b09
:100b2400dbb26e466f46b68800213e823e8a0124bf
:100b3400b44667468eb2b74247d8002cedd0037056
:100b44000023180051688978994247d8029b694666
:100b54005b000a93019b56685b08013306936b465e
:100b64009b888b818b890b9300239c46039333884a
:100b740003998b4244d8029b01990133dbb28b4227
:100b84008941b0680b40c05c71680870002012682d
:100b940053700db0f0bd062363438f68fb185f8864
:100ba4004b689b5b9f420ad9fb1a9bb21f1c834272
:100bb40000d2071cb8b2039b0134f61890e79f4299
:100bc400f9d2db1bf1e70f23abe7039fb74203d056
:100bd4006e5c9e4200d100240131aae71168c96805
:100be400c85401339bb2ade75b088342aed9cb68ee
:100bf40002995b1819780029a8d001391970a5e762
:100c04000623039910684b438168cb1804931b781f
:100c1400db065b0f40d161464068490041180591ed
:100c24000499059849880a9c0993015301999942aa
:100c34002ed9002005995d0049190891040001216d
:100c44000de09f420ad0059d6700ed5b0795089d66
:100c54002f88079dbd4215d10131c9b20134019dd0
:100c6400e7b2bd42edd8069c8c4204d9844206d931
:100c74004118a14203db089b1b880993019b0133a4
:100c8400dbb2d3e7079dbd42e8d20130c0b2e5e74d
:100c94006946049b898c5980039b0b9901339bb251
:0e0ca400039363468c4663449bb29c465fe715
:020000040000fa
:020cb200704789
:020000040000fa
:100cb400f0b587b0070001f0fbfa02225d4c5e4def
:100cc4002378fe00934323702b685c4a5b689b196e
:100cd40099785b4b480706d4196911401961596921
:100ce4000a405a610ce0080700d595e08020196994
:100cf400400111400143196159690a401043586188
:100d040001f0d6fa2b685b689b195b88238201f09b
:100d1400cffa2b685b689b5b638201f0c9fa0623f8
:100d24002a687b439768ff18bb8823833b789b071b
:100d340001d505233b703f7801f0bafaff067f0f17
:100d44003f23002f07d12b685b689b195a793d4bd1
:100d540012099b181b7a0327a37601f0a9fa2b68c2
:100d64005b689b191b791b09e37601f0a1fa2b68d8
:100d74005b689b191a7923793a40bb431343237167
:100d840001f096fa2b6802255b689e19b279072652
:100d9400637b3240b3431343637301f089fa2378ce
:100da4002b432370284b5b680393002b2bd0237bae
:100db4001b071b0f049323799b079b0f059301f0db
:100dc40077fa2378ab43237001f072fa677101f06c
:100dd4006ffa1e4b677b1a68082311787f070b4351
:100de400137001f065fa637b7f0fb3436373059a55
:100df400174b049900200097039eb04701f058fa5e
:100e040023781d43257001f053fa8023627b5b42f3
:100e14001343637307b0f0bdc80604d48020196976
:100e24001140800166e7890600d555e71969c0209d
:100e34001140f6e70014004304000020ff8fffff79
:100e440000100043661f0000e400002000000020a2
:040e54000d14004336
:020000040000fa
:100e580010b5584b1b79022b13d0032b49d0002b0c
:100e68006cd101f003f905286bd901f0c3f85528b6
:100e780067d1504c0421200001f086f90223237128
:100e88005fe04c4b1b78022b1ad0012b59d101f093
:100e9800edf8012855d901f0adf8040001f0aaf8e1
:100ea800002c4ed1aa284cd14348038841494c789c
:100eb8000122a24013439bb2038003230b7140e03d
:100ec8003c4b5c883b2c04d95878210000f0c4f9cd
:100ed80037e001f0cbf8844233d2374803883549ec
:100ee8004c780122a24013439bb2038003230b7169
:100ef80027e0324b1b78002b23d12f4b1b881b0577
:100f08001fd02c4b1b78012b10d0022b19d1294c48
:100f18006188607800f0a0f90023237126490b88c6
:100f280060780122824093430b800ae0214c60786c
:100f3800002100f0affd0023237102e01d4b0022c9
:100f48001a711e4b1b78002b04d11b4b1b881bb23c
:100f5800002b00db10bd1a4c23781a4ad15c1a4ac0
:100f680011701178c9b2194a5b009a5a032000f02f
:100f78002fff174b22789200d358002098472378e8
:100f8800144a1549c95c1180144a59008a5a1449ef
:100f98009b005958012000f015fe23780133dbb27d
:100fa800022b02d0064a1370d4e7054b00221a70b0
:100fb800d0e7c046540100205201002075010020ee
:100fc800310100204c23000076010020402300005e
:100fd800302300004a010020502300004423000071
:040fe80038230000aa
:020000040000fa
:100fec0010b5484b1b78012b03d0474b00221a70cd
:100ffc0010bd464b1b78dbb2454a12889a4228d862
:10100c00444b1b78022b31d0424b1b78012befd178
:10101c00414b1b78dbb2414a128893425bd2404b66
:10102c001878c0b201f037f93b4c2378dbb23d4a5b
:10103c008000825818009047344b01221a70237894
:10104c000133dbb22370384b1b68187801f0e8f8d9
:10105c00cee72e4c2378dbb2334a1268d05c01f019
:10106c00dff823780133dbb22370c1e72a4b1b78fe
:10107c00dbb22a4a1288934208d3274b1b78dbb287
:10108c009a4217d0204b00221a70b1e7224c2178db
:10109c00c9b2264b587800f0fbfc1c4b01221a708d
:1010ac0023780133dbb223701f4b1b68187801f0d7
:1010bc00b7f89de7184a13780133dbb213701c495b
:1010cc000b881a4a50780122824093430b80aa2045
:1010dc0001f0a6f88ce7104b1b78dbb29a4203d0d8
:1010ec00094b00221a7083e70b4a13780133dbb2e9
:1010fc0013700f4a13885b045b0c1380aa2001f059
:10110c008ff875e77701002075010020720100202f
:10111c005a01002074010020730100204a010020b4
:10112c0076010020302300005c01002054010020d7
:04113c00520100203c
:020000040000fa
:10114000f7b580213d4a3e4c1369c90023400b434b
:10115000136153692340194351610b24002840d087
:101160000368198800231f0001939ab291423ad86c
:101170000224002f35d0019b00201b043b439c46da
:1011800001210f2410256346c3400b4211d02d4b83
:10119000c35c1f2b35d82c4e5a08921916780b4277
:1011a0002cd026402e431670284a9b181a780a43e2
:1011b0001a7001302028e6d10024254d01f07af87c
:1011c000244b2c701e7aa6422bd101f073f86b468b
:1011d0009b883400eb8201f06df801231d4aaf8239
:1011e00013722000febd4468da00a2181488019d25
:1011f00001332543019552881743b6e7a6430e43b2
:10120000d1e7203b144edbb25a08921916780b42f4
:1012100004d026402e431670104ac6e7a6430e435c
:10122000f9e701f047f8eb8a019a1a43ea8201f0e4
:1012300041f8ab8a3b43ab82d3e7c0460010004382
:10124000fff8ffff461f0000302800404028004004
:1012500000140043e4000020b0280040c0280040f3
:020000040000fa
:10126000f0b5c64600b5040000f004ff0500012cef
:1012700012d0022c12d0002c0bd0200000f03eff28
:101280002d4b59882d4b8000c05800f081ff00f095
:10129000b5fe80bcb846f0bd294f32e0284f294b3f
:1012a0009846032df5d93c7866003619464400f07f
:1012b000a5fe307000f0a2fe707000f09ffeb070ce
:1012c0000134e4b23c70033dadb2012ce9d11c4bba
:1012d00000211970184a11711b490b88507801229e
:1012e000824093430b8000f089fed2e7387800f00b
:1012f000affe3b780133dbb23b70073dadb2012b53
:101300000ad0072dc5d9114ce61d00f077fe2070dc
:101310000134b442f9d1e9e7094b00211970064aba
:10132000117109490b8850780122824093430b8048
:1013300000f064feade7c0465401002040220000ea
:1013400032010020e8010020520100203c01002071
:020000040000fa
:10135000f7b5070001910b2400294fd000284dd08c
:10136000284d03242b7a002b48d00124042b45d090
:10137000022403685b79013ba3423fd8224e00f070
:1013800099ff3378a3433370204b1f60019beb60c0
:1013900000f06cfa80221e4b9204da67bff34f8f85
:1013a000bff36f8f0723b37200f084ff0122737abb
:1013b000802113437372174b89041a70c023164a95
:1013c0005b00d150c622144b920099583b681348d9
:1013d0005b7901409b071b0c0b430f498b5080220c
:1013e00092040a6000232b8000f09cfc061e07d1ab
:1013f000042328882b723400fff75cfc2000febd1c
:101400002c72fbe7e40000200014004304000020dd
:1014100004e100e0e701002000e100e0ff00ffff41
:020000040000fa
:10142000214b0e221a75214b00229a611a61204b22
:1014300008329a71073a5a711e4b1f4ada62190034
:1014400020224b681a42fcd11a4b1c4a1a6219001e
:1014500004224b681a42fcd1164b194a5a621900f1
:1014600008224b681a42fcd1124ac4234321d150ae
:1014700010008131402243581a42fcd00d4ad42337
:101480004021d15010009431402243581a42fcd0e0
:10149000084a82235b004121d150100019004022ec
:1014a00043581a42fcd07047000c00400010004026
:1014b0000004004000180040060128000601010059
:0414c000060104001d
:020000040000fa
:1014c40010b5204b1b78012b06d01f4b1b78012b2a
:1014d4000cd0fff7bffc10bd1c491d48fff736ffb9
:1014e4000028f2d1174b00221a70eee7164b0022a7
:1014f4001a70fff731f8002811d11648fff7d8fa0f
:10150400002808d11448fef7e1fd00280ad0134b47
:1015140003221a7006e0114b02221a70f2e70f4bf5
:1015240001221a7000f076fe0b4b1b681b787f2b90
:1015340003d80b4b01221a70cbe7024b01221a701d
:10154400c7e7c0460f0100200e010020052300005c
:10155400a8010020cc0100207801002043010020d4
:041564000d01002055
:020000040000fa
:10156800f8b500f0a3fe02221f4c237893432370a2
:1015780000f08efda08ba18b1c4c1d4a238812689d
:101588005b00d1521b4b80b21b78012b02d0022b7f
:1015980010d0f8bd23880133238000f0bffb00285a
:1015a80005d12088fff782fb04232372f1e7e36863
:1015b8009847eee70f22104b25881e68e9007368ec
:1015c800002759184b791a408b799a4201d29b1af5
:1015d800dfb20621f8406943b3685b1858800223dc
:1015e80023722369e4e7c04600140043e4000020a6
:0c15f80008000020e70100200400002093
:020000040000fa
:10160400f0b506241e4b44431a68002093681c1945
:1016140063888b422cd02cd2c91a126889b2937871
:10162400402b00d149080120842921d80020052914
:101634001ed9cf250f261527a3881c009804800fd8
:1016440068431d1235407d431b11334040195b0034
:10165400c018344080b2052c0dd8d378094a9b06b3
:101664009b0f5b009b5a594389b288428041404298
:10167400f0bd591ad1e70130053c80b2e4b2eae783
:0816840004000020661f0000b5
:020000040000fa
:10168c00f8b51d4b1b7d002b34d01b4a9368516859
:10169c001a4a127ed2071ad5994218d9174907252a
:1016ac00154f3e003c000ae03a685800825a0a8501
:1016bc00013360680a7ed20709d5984207d94a6877
:1016cc002a40012af0d03268d25c0a85f0e70a4a37
:1016dc00936052689a420dd8074b00221a755a60d3
:1016ec00064a01211175db68002b03d0024b1869e7
:1016fc00db689847f8bdc04698000020000c0042fb
:020000040000fa
:10170c00f7b50c25c3684d439c46032382684b43b5
:10171c0055196c6863442d8964889f781b78641b09
:10172c00e41aa3b201930025436860461e88b542b3
:10173c0001d10020febd8d4218d08378bb4215d15b
:10174c0013787b33dbb2012b15d913899c46536874
:10175c005b889c450ad264461b1b04789bb2a3424f
:10176c0004d91b1b019c9bb29c4204d30135adb226
:0a177c0003300c32dbe70120dce74c
:020000040000fa
:02178600fee77c
:020000040000fa
:1017880070b5041e2fd0194b1b7d0020002b29d1ca
:10179800164b1c60596001221a755868144b1b7e41
:1017a800db0716d5002817d0002311490726012585
:1017b80007e0e25c0a8501330a7e2a420bd0984290
:1017c8000ad04a683240012af3d15a00a25a0a853f
:1017d800f1e7002000e01800044b9860044b012258
:1017e8009a75012070bd0020fce7c04698000020d3
:0417f800000c00429f
:020000040000fa
:1017fc0010b5194b2c229b5c002b18d0164bda69b8
:10180c001b6a934213d2144b986a14490a8d92b2f4
:10181c001b6a4c6807212140012909d00e498969ae
:10182c00ca5401330c4a1362d2699a4205d010bdd6
:10183c00094989695c006252f3e7074b00222c21ad
:10184c005a54da61054a583111755b6a002beed097
:10185c00014b5b6a9847eae798000020000c0042b5
:020000040000fa
:10186c00f8b5154b1b681b689a78402a1fd1134a90
:10187c000425127815431a790f2313400f2a00d927
:10188c00102360241c4300f00ffd042300260c4f92
:10189c00e4b23b7000f008fd3e7100f005fd3c73b6
:1018ac0000f002fd3000074bedb2dd77f8bd0220f1
:1018bc00802afbd1044adbe704000020441f00000f
:0c18cc000014004301140043451f0000fd
:020000040000fa
:1018d80010b5114b01221a80104a114bc1005b1838
:1018e80019791171597951719b799371002806d032
:1018f8000c4b0a4a1a600c4b07221a8010bd0b4b7e
:1019080059780722043000f063fa044907220220bc
:1019180000f058f9f2e7c0464a0100203c010020d7
:10192800d40100205c0100205a010020540100204d
:020000040000fa
:1019380000230e4a10b513600d4a13600d4a136058
:101948000d4a13600d4a13600d4a53621361013347
:10195800936000f0f8fc00f0f6fc0a4c0a4b9c423d
:1019680000d310bd08cc9847f8e7c04664010020b2
:1019780018000020140000200c0000201000002097
:0c1988001c000020bc000000c00000009b
:020000040000fa
:10199400bff35f8f62b6114bc02080001958104a04
:1019a4001140c02212040a431a5004221a6008305b
:1019b4001a581202120ac02109060a431a50802238
:1019c40012011a6010301958064a1140c02212023e
:1019d4000a431a50802292041a60704700e100e022
:0819e400ffff00ffff00ffff01
:020000040000fa
:1019ec00114b124a1a60124a9a81c02292025a6012
:1019fc001a00d369002bfcd10b4a136802210b434c
:101a0c001360d369002bfcd10a4b00229a61da6176
:101a1c001a622c215a545a621a605a609a601a75ca
:101a2c00da60da857047c046000c004204011040b1
:081a3c0082e2ffff9800002088
:020000040000fa
:101a440010b5144b9b7d002b16d0124a137edbb2cb
:101a5400927d52b2002a10db0e4a137edbb2927dd5
:101a6400d20701d5db070ed40a4a137edbb2927d7e
:101a7400520701d55b0709d410bd5bb2002bebda2a
:101a840000f02ef9e8e7fff7fffdede7fff7b4fefe
:081a9400f2e7c046000c00421d
:020000040000fa
:101a9c0070b5012817d00e4b01221a800d4b5e78c1
:101aac0000f026fb04000c4b4200d55a2a003100f2
:101abc00042000f08bf9094ba400e1582a00022005
:101acc0000f07ef870bd0800fff700fffae7c04693
:101adc004a010020540100201c2300004022000079
:020000040000fa
:101aec00030010b50b20002b16d01a6802201488a6
:101afc008c4211d392789b68402a0ed106228d20fd
:101b0c004a4380009a1890800020062251430222fa
:101b1c005b1819780a431a7010bd803ad2b2012aa8
:101b2c00f3d806224a4301489a18ece767050000ef
:020000040000fa
:101b3c0010b5064c2378002b07d1054b002b02d097
:101b4c00044800e000bf0123237010bdc800002032
:101b5c000000000000000000044b10b5002b03d067
:101b6c000349044800e000bf10bdc046000000005f
:081b7c00cc0000200000000075
:020000040000fa
:101b840070b50e4943001a1852008a1856880c4a38
:101b940016800c4d1c18a4002c1924895480361b63
:101ba40096801c18a400645de40994711b185b0002
:101bb400cb181979d1715b79137270bd4c01002077
:081bc400280100201c01002093
:020000040000fa
:101bcc0010b50b4b1b78002b00d010bd094b1870b7
:101bdc000748012303700848037008480370084b3a
:101bec001960084b1a80087800f01afbede7c04624
:101bfc007501002074010020730100207201002087
:081c0c005c0100205a010020d8
:020000040000fa
:101c140010b50a4b98470a4b984700f0f7f8094b60
:101c2400ff229343084a9360084b9847084b984710
:101c3400084b984700f06cf9fee7c046b322000059
:101c4400b32200000000000000ed00e0391900009c
:081c5400b3220000b3220000de
:020000040000fa
:101c5c0070b504000d00002815d00c4b2c229b5c99
:101c6c000020002b00d070bd00f096f9074b9c6152
:101c7c00dd6100221a622c2101205854da85044bb4
:101c8c0084329a75efe70020ede7c04698000020fb
:041c9c00000c0042f6
:020000040000fa
:101ca00010b500f0ebf80b4c2000fff749fa0a489a
:101cb00000f0d0fa0021200000f010fa00212000ee
:101cc000fff714ff054a0648002100f026fa00f04d
:101cd000abf910bda8010020680100204c010020d4
:041ce0007801002067
:020000040000fa
:101ce40010b50d4b5a8b0723110019401a4200d12d
:101cf40010bd0a4ce18500f053f9074b84221a7594
:101d04002c230022e254636a002bf1d0034b986a1f
:101d14005b6a9847ece7c046000c0042980000203c
:020000040000fa
:101d24000d4a70b51068012502680c491488062212
:101d34000b885a43a3420ad28668b65c06322e4206
:101d440002d101339bb2f5e700200b8070bd002364
:101d540001200b80fae7c04604000020e4000020c4
:020000040000fa
:101d640010b50b4a1378dbb20a490b480078c85403
:101d740013780133dbb2137013783c2b04d006487c
:101d84000121fff769ff10bd130000221a70f6e766
:0c1d9400700100205c0000206f010020a6
:020000040000fa
:101da0000c4b01224a215a540c315a5401315a54d5
:101db00022395a543a32133999548022d2005e3172
:101dc0005a5010315a5000223a315a5415395a5447
:081dd0007047c04600280040e6
:020000040000fa
:101dd800f8b507000e0014000a4d00232b7055209b
:101de80000f0e0f9380000f0ddf9300000f0daf931
:101df800e0b200f0d7f9200a00f0d4f901232b70e3
:081e0800f8bdc046770100207f
:020000040000fa
:101e100010b50b480168002905d14368002b02d199
:101e200000f085fa10bd04008368064a9bb20c34aa
:101e30009b009b5842682000984780002018e9e7e3
:081e40003408000068220000d4
:020000040000fa
:101e48000b4b01221a8019000b691a42fcd1084b6e
:101e5800c02252001a80803aff3a1a6219001f32d3
:101e68000b691a42fcd1024b802252005a817047fa
:041e78000020004006
:020000040000fa
:101e7c0010b50a48002100f02dfa094908220b6917
:101e8c001a42fcd100f070f9002000f097f91420f0
:101e9c0000f09ef900f05af910bdc046272300004f
:041eac0000200040d2
:020000040000fa
:101eb00010b50b4b06225a6000f05cf8fff770ff7c
:101ec000fff7aefafff792fd00f004fafef7f1fe1d
:101ed000fff7bafffff7e4fefff75cfd10bdc04659
:041ee000004000417d
:020000040000fa
:101ee40010b5084b9a8992b207494a60074a9a8109
:101ef4009b890b68002b04d00b00486889681b6819
:101f0400984710bd0020004010010020ff81ffff12
:020000040000fa
:101f140010b50020fff7caff084c03e09823802285
:101f2400d200e250fff7ccfa002000f069f9000675
:101f3400f4d594238022d200e250f3e70028004035
:020000040000fa
:101f440080a002032a2b062c08090a0b2425262725
:101f54002d2908090a0b10111213141516172c2d0c
:101f64002e2f07001300350090003f1c0b050301c2
:020000040000fa
:101f74008023db0500221a819a7901210a439a7190
:101f84009b7803221340022b08d08023db05013aff
:0e1f94009a701900013a8b791342fcd0704705
:020000040000fa
:021fa200fee758
:020000040000fa
:101fa400094b5b8b5b070dd0074b80221a76793a7d
:101fb4005a831b7e5b0705d5034b04211a8d1a7eb9
:0c1fc4000a42fbd17047c046000c0042ee
:020000040000fa
:101fd00010b5040006482100fff788fd62001219c1
:101fe0005200044bd218e1b2034800f096f810bd3d
:0c1ff000a80100204c0100207801002016
:020000040000fa
:101ffc00084a1378dbb20849c85c13780133dbb2aa
:10200c00137013783c2b00d07047130000221a7009
:0c201c00fae7c046710100205c000020c3
:020000040000fa
:1020280010b50648002100f05df90548002100f0d0
:102038005ff904480121fff70dfe10bded0f000008
:08204800651d00006f0100207e
:020000040000fa
:1020500010b5064bc2009b18054a117919715179c8
:10206000597192799a71fff7b3ff10bdd401002026
:042070003c0100200f
:020000040000fa
:10207400064b1878064b1b78c01a83b2002801db84
:10208400c0b270473c3318b2fae7c0467001002072
:0420940071010020b6
:020000040000fa
:102098000222074b997ac9b2114202d0987a0243b8
:1020a8009a720122114202d0997a0a439a727047b1
:0420b80000140043cd
:020000040000fa
:1020bc00054b064a917819709268117859705178cd
:1020cc0099709278da707047fc000020980100201b
:020000040000fa
:1020dc000b2300280ad003681a8802238a4205d3ee
:1020ec0006235943012382688b5400231800704740
:020000040000fa
:1020fc00031e0ad0012808d0022806d0032804d0d9
:0e210c000020052b00d07047013b1800fbe7b8
:020000040000fa
:10211a000b23002809d0002a07d00c234b438168df
:0e212a00c91801230b7000234a60180070478b
:020000040000fa
:10213800002310b5934206d103201840421e904157
:0e2148009b08c01810bdc45ccc540133f2e7f4
:020000040000fa
:02215600fee7a2
:020000040000fa
:10215800054a138802210b431380110002220b69e0
:0c2168001a42fcd17047c0460020004025
:020000040000fa
:10217400054a138802218b431380110002220b6944
:0c2184001a42fcd17047c0460020004009
:020000040000fa
:1021900070b505000e1e08d00024fff72fff287031
:0c21a00001350134a4b2a642f7d170bd95
:020000040000fa
:1021ac0010b5054b01221a7000f03af8024a137868
:0c21bc00012bfcd010bdc04675010020b6
:020000040000fa
:1021c800034b9861190008220b691a42fcd1704729
:0421d80000200040a3
:020000040000fa
:1021dc00034b1862190020220b691a42fcd170477c
:0421ec00002000408f
:020000040000fa
:1021f00010b5034b01221a70142000f063f810bdd3
:042200000f010020aa
:020000040000fa
:10220400034b9a6843001b189b00d05c7047c04680
:04221400780100202d
:020000040000fa
:10221800034a1388802109020b4313807047c04684
:04222800520100203f
:020000040000fa
:10222c0010b5034b187001211800fff7a7fa10bd69
:04223c00330100204a
:020000040000fa
:10224000c0010020d4010020e8010020b6010020d8
:04225000a4010020c5
:020000040000fa
:102254000b23002802d0024b18600023180070479b
:04226400080000204e
:020000040000fa
:102268009122000039210000492300004923000081
:0422780049230000f6
:020000040000fa
:10227c0003b47146490840004900095a49008e448c
:04228c0003bc7047d8
:020000040000fa
:102290008a18914201d10020704700230b70013150
:0222a000f7e75e
:020000040000fa
:1022a200802803d082384342584170470020fce71f
:020000040000fa
:0222b200704773
:020000040000fa
:1022b400024a53781b06fcd47047c04600140043fe
:020000040000fa
:1022c400024b1a88801818807047c0466a010020a3
:020000040000fa
:0c22d400014b84225a607047004000411a
:020000040000fa
:0c22e000014b186099607047100100204d
:020000040000fa
:0c22ec00014bd860196170479800002079
:020000040000fa
:0c22f800014b586299627047980000206a
:020000040000fa
:0c230400014b01221a7070470e010020ee
:020000040000fa
:0c23100010b5fff7c1fefff727f910bd64
:020000040000fa
:0a231c000a00070003000800030098
:020000040000fa
:0823260010b5fff762ff10bdc6
:020000040000fa
:02232e007047f6
:020000040000fa
:08233000851b0000bd20000028
:020000040000fa
:0823380028010020fc00002038
:020000040000fa
:04234000090011007f
:020000040000fa
:04234400090011007b
:020000040000fa
:0423480000207047ba
:020000040000fa
:02234c0080828d
:020000040000fa
:02234e007047d6
:020000040000fa
:02235000010189
:020000040000fa
:0200000400807a
:04400000770600b08f
:020000040000fa
:0200000400807a
:04400400bb00ffffff
:00000001FF
