:020000040000fa
:10000000f07f0020f12500003f2000004f2b000072
:1000100000000000000000000000000000000000e0
:10002000000000000000000000000000872c00001d
:100030000000000000000000872c0000872c00005a
:10004000872c0000872c0000872c0000cd280000a2
:10005000872c0000872c0000872c0000872c0000d4
:10006000872c0000872c0000872c0000872c0000c4
:100070001d240000872c0000872c0000872c000026
:10008000872c0000872c0000872c0000872c0000a4
:10009000872c0000872c0000872c0000872c000094
:1000a000872c0000872c0000092d0000872c000001
:020000040000fa
:1000b000f8b5c046f8bc08bc9e4670474125000014
:1000c000f8b5c046f8bc08bc9e467047192500002c
:020000040000fa
:1000d000f0b587b00090009b0b20002b00d1e2e12f
:1000e000002603275b68049602931b8801960593fc
:1000f0000396049b059a93421ed1009b1a681378bd
:1001000059b200290bda0820002101268446049cfc
:1001100088b2844200d9ffe07f210b401370039b1b
:10012000002b00d009e1019801231178002800d1ab
:100130005be10b4313705ae1009bb5009b685d19ae
:100140001e236a681178194001d001232b702b7887
:10015000042b73d00ad8022b2ed043d8012b23d0e6
:10016000049b033601339bb20493c2e7852b00d175
:1001700082e0862b00d1a9e0072bf1d12989538891
:1001800099425fd9c91a009b0298db6840799b5d50
:1001900089b20341dbb28b4254d86b78002b69d112
:1001a00001232b701770dbe703930029d8d10223ba
:1001b0002b7008236b70d3e76978002910d0528820
:1001c000042904d92a810139697001237ce02b8933
:1001d0009342f8d002d9013b2b81f4e70133fbe7ce
:1001e0002f70bde7298953889942b9d0009ad26807
:1001f00010d9cb1a0299925d49799bb20a41d2b2c9
:100200009a42add8029b1b79002ba9d007222a70f5
:100210006b70dae792195b1a11789bb299429fd8fa
:100220009378002b05d00499009801f0cbfe0028ac
:1002300096d104232b70029b9b78e9e72989538888
:10024000994202d92f700023b4e7009a5b1ad26852
:100250009bb2921911789942f4d29378002b06d070
:100260000499009801f0aefe002800d078e76b7882
:10027000002b47d0013bcbe7029b00991b7a096812
:100280000b7128895388984207d986232b70029bcb
:100290009b786b700123019316e0009a1b1ad268b9
:1002a0009bb291190a784978140001310c4101215f
:1002b000121bd2b201919a4200d251e786232b70d1
:1002c000029b9b786b700b00039349e72889538846
:1002d000984209d96b78002b01d12f7001e0013bc6
:1002e0006b70012301933be7009a1b1ad2689bb203
:1002f00091190a784978140001310c41121bd2b2cd
:100300009a4204d285232b70029bdb78e8e76b7856
:10031000002be2d0013bbce70c2500984d438068e0
:1003200045196f683878304205d164462d78a54369
:1003300001d0304338700131e9e6029b597a002937
:1003400000d1f0e6802310785b420343137001294b
:1003500000d0e8e600218bb20393049b88b283426d
:1003600000d8e0e60c20009b48439b68082518183d
:10037000029303781c00ac4315d0852b01d0032bce
:100380002ed10325009bdf682b004b43fb189b7885
:100390009c46002b07d000231e000595049c9c4220
:1003a00008d8002e1cd1012540680378ab430370a8
:1003b0000131d0e7039c9c420fd00c255d43029c89
:1003c0002d5d042d01d0862d07d1059d5d437d193e
:1003d000ad78654501d10126049b01339bb2dde771
:1003e0000123406805782b43e1e799431170528857
:1003f000584b11001b88c8318b4251d99b1a9bb2b4
:100400009c466346c82b4dd96346c83b9bb29c466d
:10041000009b1b685a88c8325a801a79002a00d07b
:1004200070e05a79002a01d0013a5a719a79002a6b
:1004300001d0013a9a71009a50688679002e07d04f
:100440005a79002a04d1078891b28f4234d85e715c
:10045000c579002d07d09a79002a04d1068891b277
:10046000b1423cd39d71009b5b68da78002ac8d00a
:100470001f880c23002103207b4302938bb2bb42d5
:10048000bfd20c22009b4a439b689a181578852d91
:1004900004d15578002d38d0013d55700131ede77c
:1004a000934202d3002007b0f0bd2b495918891a96
:1004b000c829f7d9013ba1e70c21009c5143a4684e
:1004c00061180d78032d01d0082d06d14c680d89d7
:1004d0006488ac4201d901350d810132b4e70c21a9
:1004e00000985143806841180878032801d00828f3
:1004f00006d14c6808896788874201d20138088193
:100500000132ace7013a1a71ade70124050014701d
:1005100052684d431070009ad2685519ad78002d7d
:10052000bcd0029c02321c1901920394039a93429c
:10053000b4d0019a1678ae4206d101225e683478b2
:10054000144201d01a703070019a0c3303320192b8
:0c055000ece7c04622010020ffff000085
:020000040000fa
:10055c000b23f0b587688fb007900493002f1bd046
:10056c00c268002a18d043681968019101990029c2
:10057c0012d002921a790a235343fb180d930023cd
:10058c00049308930d9bbb4209d16a462021079b1b
:10059c0052181b6812781a7004980fb0f0bd029ba9
:1005ac000c205b889c46029b62461b790393634438
:1005bc0005936b469b890993634499b20023059c70
:1005cc00a2422edb002562462e000599914233dcb7
:1005dc006a4213400122397811400b916cd0398951
:1005ec004a005218921992b292083a81002d65d1a4
:1005fc00029a1578012d00d9a0e152790a92cf2ade
:10060c0000d99be1002b5bd13b817e223b70934355
:10061c00089a0a371343dbb20893029b0a330293fe
:10062c00b0e704005443019d645d852c01d10a00a0
:10063c000123013292b2c2e70c20504301990918f0
:10064c004c6809896488641aa4b221b20a91002109
:10065c0006910a99002900dd0694624524d102997d
:10066c000024087801280fd103998c180c214c43d5
:10067c0001990c3c0c19616824894888001b0024e2
:10068c0000b2a04200dd84b20699029809190089d3
:10069c0089b2884205d8301c8e4200d2081c012534
:1006ac0086b2013292b290e701990c380818416871
:1006bc0000894c88201ae2e73e8199e72b0097e7e6
:1006cc0000220a9b16001b090c930c20634605990b
:1006dc00994200dde1e0b44500d0f0e0012d00d0fe
:1006ec00f7e00b00434301990c3bcb1859681b896d
:1006fc004988c91a634601335843019b09b218183b
:10070c00436800895b881b1a1bb2181c002b00da8b
:10071c000020012300b20693884206db0b1c002943
:10072c0000da002319b200230693059b0c20013b31
:10073c009e4200d0d1e00023012d0dd163465843d9
:10074c00019b181843685c880389e41a24b2231ca3
:10075c00002c00da00231bb203980f2800d9c4e048
:10076c0000200c2405900698012800d0c1e0039ebf
:10077c00a64089b29bb2b6b292b2994200d2bbe00b
:10078c00d21a90b2c31ac91889b2220001f08cfd9a
:10079c000123a340c01a80b2039b301880b2022bf5
:1007ac0006d9012d00d0b0e0059a099901f07cfd25
:1007bc008022031c5201904201d9684b1b8898b2cd
:1007cc00002d13d10f230a9a1a400fd02821514320
:1007dc002b00814201d8401a83b280224900520179
:1007ec00511a89b20c22180001f05efd0c230c9af0
:1007fc009b1a18410123934099b2013b984200d9ae
:10080c0088e00b9b80b20400002b22d0bc88031b19
:10081c009bb21ab2012d09d14d08002a00db7be0f6
:10082c006d42954200dc94e0cb181ab2022693b2ca
:10083c005d1cb543adb2002d0bd05b08002a04da69
:10084c0053429bb25b085b421bb2e418a4b2013961
:10085c000c40029bfe880299b8809d7958790978e2
:10086c00a31b9bb21ab201290ad10009814089b29b
:10087c004808002a55da4042904203ddc9180ab2f2
:10088c00002a5fda5242bb7812b29a424edc002345
:10089c007f2252421343dbb2b7e604005c4301995a
:1008ac000c19616824894988091b09b2002903dde8
:1008bc00914201dd0a001e0001339bb207e7704331
:1008cc00019b0c381818436859880389c91a09b256
:1008dc0024e700230693190027e7731c4343019870
:1008ec00c31858681b8944882fe7042008240590f6
:1008fc0039e76046361a3be75b1a98b2511a411831
:10090c0089b2220001f0d0fc46e70999059a013919
:10091c0089b24be7481e74e7aa4287dd5a1a12b215
:10092c0084e782420edd5a1a12b2a9e700237d70c9
:10093c00bb70b442abd0fc800223a9e70223049322
:10094c00002362e67b789a42a1dd0023bd707b70a8
:10095c00efe7531c00d073e77be7c046222d000065
:020000040000fa
:10096c00440100201c000000000000008801002051
:10097c000c00000000000000d4000020300000003b
:10098c0000000000cf01002001000000000000006a
:10099c00ef0100200100000000000000d601002043
:1009ac000100000000000000c8010020070000004a
:1009bc0000000000b801002008000000000000004a
:1009cc00780200200a00000001000000023300053c
:1009dc001f00000700000000ac010020090000000f
:1009ec00000000005c0000203c0000000000000043
:1009fc00d70100200100000000000000850100204c
:100a0c000200000000000000420100200200000073
:100a1c00000000009e010020020000000000000009
:100a2c00870100200100000000000000b50100203b
:100a3c0002000000000000006b020020010000001a
:100a4c000100000001000000b701002001000000bf
:100a5c0000000000dd01002001000000000000008b
:100a6c00e00100200400000000000000aa010020aa
:100a7c000200000000000000d00100200600000071
:100a8c0000000000740100201100000000000000b4
:100a9c00d801002005000000000000001c0200200e
:100aac001000000001000000f00100209c0200205a
:100abc009401002084020020840200200a0000001f
:100acc000100000001000200038a0800140000006d
:100adc009c0200200800000001000000980000208b
:100aec0001000000f00100200100000000000000e7
:100afc00940100200a000000000000002c020020dd
:100b0c001000000001000000c00100209002002035
:100b1c00980000205c0200205c0200200f00000006
:100b2c00010000003c01003c0100280101280101ea
:100b3c0028010100980000203c000000000000008b
:100b4c00c0010020080000000000000090020020fe
:100b5c000a00000001000000050004000500140557
:100b6c0014010000a4020020080000000100000095
:100b7c003c0200204c0200203c020020200000001f
:100b8c0001000000000000000401002024010020ee
:100b9c00ec01002005000300b0020020b40200208c
:100bac0001190600ec010020030000000000000009
:100bbc00b40200200300000001000000000102004c
:100bcc00040100201e000000000000006c02002048
:100bdc000c00000001000000ac020020f401002019
:100bec0024010020f4010020280000000100000076
:100bfc0000002000000004000000100000000400b1
:100c0c0000000008000004000000000400000400c4
:100c1c000000002000000400240100201e00000041
:100c2c0000000000ac0200200600000001000000e3
:100c3c000500803000030000a00100200a00000025
:100c4c0000000000de010020020000000000000097
:100c5c00f1010020030000000000000082020020cf
:100c6c0001000000010000000100000060010020f4
:100c7c001400000000000000000000200c00000028
:100c8c000000000022010020020000000000000013
:100c9c00e401002004000000000000000c00002013
:100cac005000000000000000e801002004000000db
:100cbc000000000000000000000000006666666690
:020000040000fa
:100ccc000322f0b5ae4b89b01b7a0392002b14d0e3
:100cdc00ac4b1b6804931b6805931b880693aa4bab
:100cec001b6807930023029303936b461a89069b98
:100cfc009a4205d30222a24b1a72039809b0f0bd96
:100d0c00029b07995b00cc5a062302994b4304992a
:100d1c008968ce180499029b49683578db00cb189a
:100d2c00ed0601936d0f9b79042d00d927e1280066
:100d3c0001f090ff050013000701d8000f000f21f0
:100d4c00019a52790a40934201d99d1aedb22c4175
:100d5c007480029b01330293c7e71c418b4aa3b2f8
:100d6c007380b788934226d9894a9b182a009bb274
:100d7c0005998978402923d15b08002a22d0002fbd
:100d8c0024d0042b26d90f24b9043a123811890f18
:100d9c00224020402740002d46d0cf2b01d90029de
:100dac0075d1152b7dd9002a76d10a1e7bd001393d
:100dbc00c9b20a2277e0754ad31a9bb20022d7e750
:100dcc00002adcd0734a00259742dad18123337094
:100ddc000e23039333785a0601d501230fe05bb23f
:100dec00002b0ddb0322059bdb781340022b0bd170
:100dfc000f22019b1b799343019a137109233370c2
:100e0c00bf04bf0cb780a4e7012be6d10f22019bd6
:100e1c001b791a4030231343019a13710d23eee70b
:100e2c000131cf3bc9b29bb2cf2b01d90329f7d1ea
:100e3c00152b0dd90f2a06d10f2203290ad0013107
:100e4c00c9b2052206e00132153bd2b29bb2efe7e4
:100e5c000f2af1d0022b0cd90f2805d10f2a0ed155
:100e6c00032926d010000fe00130023bc0b29bb228
:100e7c00f0e70f28f2d0032925d1032104e0013239
:100e8c00d2b205200329f8d0022bcdd81be00139b2
:100e9c00cf3bc9b29bb280e7013a153bd2b29bb2b1
:100eac007fe7002a81d0022b0bd9002804d1002a1d
:100ebc0011d11700100006e00138023bc0b29bb202
:100ecc00f1e70028f3d009038cb212021443274334
:100edc000001074396e7013ad2b20a20022b00d94f
:100eec005be7f0e71c41019ba4b21f793d09032d80
:100efc0025d02100100000f09dff00281ad10135eb
:100f0c00012333700f232d011f40019b3d431d71a5
:100f1c0033787480012b00d01be7ff33ff339c42e6
:100f2c002ad91b4be418a4b2052c00d811e7452391
:100f3c0033700ee7002de3d0013dedb2e2e7022560
:100f4c00e0e71c410f25019ba4b21f793d4011d055
:100f5c002100100000f06eff002806d1013dedb21b
:100f6c00012333700f239f43cfe7032df8d00135b6
:100f7c00edb2f7e70125f5e7044b1c1bd3e7fee7c1
:100f8c00600100200400002008000020ff01000088
:080f9c0001feffffff3f000012
:020000040000fa
:100fa400f0b502008db00b20002a6ad05568116894
:100fb400ab7801934b7802932b7b002b3ed000241b
:100fc40020002b889c46019b5b000393029b5e00e0
:100fd4006746a3b29f4256d86b7b984200d87be009
:100fe400cb6802995b18197801311970116853683c
:100ff4004878c968085c997b88421fd169469d6816
:10100400029b0989e81803780391002b53d0013b14
:10101400dbb26e466f46b68800213e823e8a0124ca
:10102400b44667468eb2b74247d8002cedd0037061
:101034000023180051688978994247d8029b694671
:101044005b000a93019b56685b08013306936b4669
:101054009b888b818b890b9300239c460393338855
:1010640003998b4244d8029b01990133dbb28b4232
:101074008941b0680b40c05c716808700020126838
:1010840053700db0f0bd062363438f68fb185f886f
:101094004b689b5b9f420ad9fb1a9bb21f1c83427d
:1010a40000d2071cb8b2039b0134f61890e79f42a4
:1010b400f9d2db1bf1e70f23abe7039fb74203d061
:1010c4006e5c9e4200d100240131aae71168c96810
:1010d400c85401339bb2ade75b088342aed9cb68f9
:1010e40002995b1819780029a8d001391970a5e76d
:1010f4000623039910684b438168cb1804931b782b
:10110400db065b0f40d161464068490041180591f8
:101114000499059849880a9c0993015301999942b5
:101124002ed9002005995d00491908910400012178
:101134000de09f420ad0059d6700ed5b0795089d71
:101144002f88079dbd4215d10131c9b20134019ddb
:10115400e7b2bd42edd8069c8c4204d9844206d93c
:101164004118a14203db089b1b880993019b0133af
:10117400dbb2d3e7079dbd42e8d20130c0b2e5e758
:101184006946049b898c5980039b0b9901339bb25c
:0e119400039363468c4663449bb29c465fe720
:020000040000fa
:0211a200704794
:020000040000fa
:1011a400f0b585b0070001f06dfd0222654c664d77
:1011b4002378fe00934323702b685b689b199a780d
:1011c400624b510706d419696148014019615a6993
:1011d4000240b5e0110700d5a0e080201a695c49ff
:1011e40040010a4002431a615a6911400843586198
:1011f40001f048fd2b685b689b195b88238201f032
:1012040041fd2b685b689b5b638201f03bfd062319
:101214002a687b439768ff18bb8823833b789b0726
:1012240001d505233b703f7801f02cfdff067f0fad
:101234003f23002f07d12b685b689b195a79454bd4
:1012440012099b181b7aa37601f01cfd2b685b68be
:101254009b191b791b09e37601f014fd03212b680c
:101264005b689b191a7923790a408b4313432371d2
:1012740001f008fd2b6807215b689e19b2790226ec
:10128400637b0a408b431343637301f0fbfc2378b5
:10129400314f334323707b68002b36d0012501f096
:1012a400f1fc237b1b071b0f029301f0ebfc23795a
:1012b4009b079b0f039301f0e5fc2378b343237052
:1012c40001f0e0fc63791d43354301f0dbfcedb232
:1012d400224b65711a68082311780b43137001f0cf
:1012e400d1fc657b01f0cefc0722637bedb2934316
:1012f400637300951a4b039a029900207d68a847ee
:1013040001f0c0fc23781e43267001f0bbfc80234f
:10131400627b5b421343637305b0f0bdd10605d411
:1013240080201a690a4980010a405be7196992061c
:1013340000d549e7c02292011143196159690a4352
:101344005a6155e7004c004204000020004400426a
:10135400ffcfffffbe280000600100200000002036
:041364000d4c0042ea
:020000040000fa
:1013680010b5584b1b79022b13d0032b49d0002bf7
:101378006cd101f04dfb05286bd901f0cffa552847
:1013880067d1504c0421200001f0b4fb02232371e3
:101398005fe04c4b1b78022b1ad0012b59d101f07e
:1013a80037fb012855d901f0b9fa040001f0b6fa63
:1013b800002c4ed1aa284cd14348038841494c7887
:1013c8000122a24013439bb2038003230b7140e028
:1013d8003c4b5c883b2c04d95878210000f0e2f99a
:1013e80037e001f015fb844233d23748038835498a
:1013f8004c780122a24013439bb2038003230b7154
:1014080027e0324b1b78002b23d12f4b1b881b0561
:101418001fd02c4b1b78012b10d0022b19d1294c33
:101428006188607800f0bef90023237126490b8893
:1014380060780122824093430b800ae0214c607857
:10144800002100f005ff0023237102e01d4b00225c
:101458001a711e4b1b78002b04d11b4b1b881bb227
:10146800002b00db10bd1a4c23781a4ad15c1a4aab
:1014780011701178c9b2194a5b009a5a032001f019
:10148800b7f9174b22789200d35800209847237851
:10149800144a1549c95c1180144a59008a5a1449da
:1014a8009b005958012001f07bf823780133dbb207
:1014b800032b02d0064a1370d4e7054b00221a709a
:1014c800d0e7c046d00100209e010020b7010020cf
:1014d800cf010020302d0000dd0100201c2d000070
:1014e800d82c000042010020342d0000242d0000db
:0414f800e42c0000e0
:020000040000fa
:1014fc00f0b5ce46474680b583b0002001f038faef
:10150c004e4f6b469c1d00264d4b98461ae04d4a9b
:10151c00982380214901d15039e04a4a98238021ef
:10152c008901d1503de043461a702378002b40d1fd
:10153c00444b98228021c90199504900995080222e
:10154c0092029a6100f0ccfb3b78012bfad1267009
:10155c006b46de71300001f04bfb7f2399469843bc
:10156c00c0b201ad2870012001f042fb4b469843fc
:10157c00c0b26b465871300001f044fb20702b78e0
:10158c00002bc4d02f4a942380214901d1506b46a3
:10159c0005331b78002bc0d02a4a94238021890163
:1015ac00d150274b1b783200132bbcd80133dab245
:1015bc00b9e7012001f030fbc0b26b46d871da7983
:1015cc009208da7107331b781d4a11781e4a5800ad
:1015dc001b189b5c8b4220d91a4a94238020c00193
:1015ec00d0506b46da79184b500012189b185b7868
:1015fc008b4218d9134a942380200002d0506b469a
:10160c00da79114b500012189b189b788b4210d929
:10161c000c4b802292025a6194e70a4a982380204c
:10162c00c001d050dde7074a982380200002d0503b
:10163c00e5e7044b802292029a6183e7df010020e8
:0c164c00f3010020004400412c1c0000b1
:020000040000fa
:1016580010b5484b1b78012b03d0474b00221a705a
:1016680010bd464b1b78dbb2454a12889a4228d8ef
:10167800444b1b78022b31d0424b1b78012befd106
:10168800414b1b78dbb2414a128893425bd2404bf4
:101698001878c0b201f04afa3b4c2378dbb23d4ad5
:1016a8008000825818009047344b01221a70237822
:1016b8000133dbb22370384b1b68187801f086fac7
:1016c800cee72e4c2378dbb2334a1268d05c01f0a7
:1016d8007dfa23780133dbb22370c1e72a4b1b78ec
:1016e800dbb22a4a1288934208d3274b1b78dbb215
:1016f8009a4217d0204b00221a70b1e7224c217869
:10170800c9b2264b587800f0a3fd1c4b01221a7071
:1017180023780133dbb223701f4b1b68187801f064
:1017280055fa9de7184a13780133dbb213701c4948
:101738000b881a4a50780122824093430b80aa20d2
:1017480001f044fa8ce7104b1b78dbb29a4203d0c5
:10175800094b00221a7083e70b4a13780133dbb276
:1017680013700f4a13885b045b0c1380aa2001f0e6
:101778002dfa75e76b020020b701002087010020d1
:10178800aa010020b6010020b50100204201002076
:10179800dd010020d82c0000e0010020d00100204d
:0417a8009e0100207e
:020000040000fa
:1017ac00f0b5c64600b5040001f030f90500022c76
:1017bc0005d02dd8002c00d185e0444f37e0434fa5
:1017cc00434b9846032d00d87de03c7866003619d3
:1017dc00464401f0a1f8307001f09ef8707001f0f1
:1017ec009bf8b0700134e4b23c70033dadb2052cf3
:1017fc00e8d1364b00211970364a117136490b88e5
:10180c0050780122824093430b8001f085f85ae016
:10181c00042c4cd12d4f2fe0387801f0e5f83b78b3
:10182c000133dbb23b70073dadb2052b0ad0072d5f
:10183c0049d92a4ce61d01f06ff820700134b442ee
:10184c00f9d1e9e7214b00211970224a1171224983
:10185c000b8850780122824093430b8001f05cf896
:10186c0031e03c78200001f0adf80134e4b23c707a
:10187c00083dadb2012c0bd0082d24d9184c2600f4
:10188c00083601f049f820700134b442f9d1e8e788
:10189c000e4b002119700f4a11710f490b885078ab
:1018ac000122824093430b8001f036f80be02000bc
:1018bc0001f0e0f8074b59880a4b8000c05801f042
:1018cc0017f901f029f880bcb846f0bdef010020f3
:1018dc005c020020d00100209e010020c8010020e5
:0818ec00b8010020802b000070
:020000040000fa
:1018f4003c490a6a3c4b1a4081235b0013430b6248
:101904000822cb681a42fcd0384b5b689b02fe224b
:10191400d203134006221343324a93611100042276
:10192400cb681a42fcd0324b324a5a60324a9a602f
:101934001a0053785bb2002bfbdb2d4b2f4a5a6005
:101944001a0053785bb2002bfbdb294b2c4a5a60fc
:101954002c4a9a601a0053785bb2002bfbdb214ab5
:10196400938c80218b43938411001022cb681a42fc
:10197400fcd0254b1b689b0e3f2b31d09b02802251
:1019840092001343174a9362194b8622d2015a805c
:1019940014491022cb681a42fcd0124b1b4ada625b
:1019a40019001022cb681a42fcd00e4b06229a84ee
:1019b40019003a32cb681a42fcd00d4b144a5a60d3
:1019c4001a0053785bb2002bfbdb094b114a5a8097
:1019d400114a5a80114a5a80114b124a1a627047ae
:1019e400203bcbe7000800400000ffcf20608000d0
:1019f400000c004003060100037d00000106010005
:101a040002030100021f000024608000dc050a2894
:101a140000070100044200001740000022410000ba
:081a240000040040200009004d
:020000040000fa
:101a2c00f7b580213d4a3e4c1369c90023400b4356
:101a3c00136153692340194351610b24002840d092
:101a4c000368198800231f0001939ab291423ad877
:101a5c000224002f35d0019b00201b043b439c46e5
:101a6c0001210f2410256346c3400b4211d02d4b8e
:101a7c00c35c1f2b35d82c4e5a08921916780b4282
:101a8c002cd026402e431670284a9b181a780a43ed
:101a9c001a7001302028e6d10024254d01f0eef813
:101aac00244b2c701e7aa6422bd101f0e7f86b4622
:101abc009b883400eb8201f0e1f801231d4aaf82d0
:101acc0013722000febd4468da00a2181488019d30
:101adc0001332543019552881743b6e7a6430e43bd
:101aec00d1e7203b144edbb25a08921916780b4200
:101afc0004d026402e431670104ac6e7a6430e4368
:101b0c00f9e701f0bbf8eb8a019a1a43ea8201f07b
:101b1c00b5f8ab8a3b43ab82d3e7c04600440042e6
:101b2c00fff8ffff9e280000304400414044004174
:101b3c00004c004260010020b0440041c044004110
:020000040000fa
:101b4c00f7b5070001910b2400290ed000280cd00a
:101b5c002c4d03242b7a002b07d00124042b04d00a
:101b6c00294e737b5bb2002b03da2000febd2c7276
:101b7c00fbe7022403685b79013ba342f5d801f033
:101b8c007df83378a3433370204b1f60019beb60cf
:101b9c0000f0c2fa80221e4bd204da67bff34f8fdb
:101bac00bff36f8f0723b37201f068f80122737ac9
:101bbc00802113437372174bc9041a70c023164a41
:101bcc005b00d150c622ff20134b920099583b6802
:101bdc0000045b799b050340104801400b430e4900
:101bec008b508022d2040a6000232b8000f084fded
:101bfc00061ebcd1042328882b723400fff7ccfac4
:101c0c00b3e7c04660010020004c004204000020f5
:101c1c0004e100e08202002000e100e0ffff00ff91
:020000040000fa
:101c2c001400001400001301001202001103001034
:101c3c0004000f05000e06000d07000c08000b0930
:101c4c00000a0a00090b00080c00070d00060e0024
:101c5c00050f000410000311000212000113000014
:101c6c0014000014000013010012020011030010f4
:101c7c0004000f05000e06000d07000c08000b09f0
:101c8c00000a0a00090b00080c00070d00060e00e4
:101c9c00050f0004100003110002120001130000d4
:101cac0014000014010013020012030011040010b0
:101cbc0005000f06000e07000d08000c09000b0aaa
:101ccc00000a0b00090c00080d00070e00060f009f
:101cdc00051000041100031200021300011300018f
:020000040000fa
:101cec0010b5244b1b78012b06d0234b1b78012bf2
:101cfc000cd0fff733fb10bd20492148fff720ff24
:101d0c000028f2d11b4b00221a70eee71a4b00226e
:101d1c001a70fef7d5ff00281ad11a48fff73cf9c4
:101d2c0000280dd11848fef7cdf900280cd1174822
:101d3c00fef70efc00280ed0154b04221a700ae098
:101d4c00134b02221a70ede7114b03221a70eee7c7
:101d5c000f4b01221a7000f02dff0b4b1b681b78e8
:101d6c007f2b03d80b4b01221a70c2e7014b0122c7
:101d7c001a70bee7f2010020f1010020fd2c0000da
:101d8c006c020020a40200202c0200201c02002067
:081d9c00de010020df01002040
:020000040000fa
:101da400f8b500f06fff02221f4c23789343237091
:101db40000f042fea08ba18b1c4c1d4a23881268a4
:101dc4005b00d1521b4b80b21b78012b02d0022b3b
:101dd40010d0f8bd23880133238000f091fc002843
:101de40005d12088fff7dcf904232372f1e7e368c7
:101df4009847eee70f22104b25881e68e9007368a8
:101e0400002759184b791a408b799a4201d29b1ab0
:101e1400dfb20621f8406943b3685b185880022397
:101e240023722369e4e7c046004c004260010020ad
:0c1e3400080000208202002004000020b2
:020000040000fa
:101e4000f0b506241e4b44431a68002093681c1901
:101e500063888b422cd02cd2c91a126889b293782d
:101e6000402b00d149080120842921d800200529d0
:101e70001ed9cf250f261527a3881c009804800f94
:101e800068431d1235407d431b11334040195b00f0
:101e9000c018344080b2052c0dd8d378094a9b066f
:101ea0009b0f5b009b5a594389b288428041404254
:101eb000f0bd591ad1e70130053c80b2e4b2eae73f
:081ec00004000020be28000010
:020000040000fa
:101ec800f8b51d4b1b7d002b34d01b4a9368516815
:101ed8001a4a127ed2071ad5994218d917490725e6
:101ee800154f3e003c000ae03a685800825a0a85bd
:101ef800013360680a7ed20709d5984207d94a6833
:101f08002a40012af0d03268d25c0a85f0e70a4af2
:101f1800936052689a420dd8074b00221a755a608e
:101f2800064a01211175db68002b03d0024b1869a2
:101f3800db689847f8bdc046d40000200014004272
:020000040000fa
:101f480070b5184b01221a80174b184984002218c3
:101f58005200525c1a70221852008a1895785d70e7
:101f6800d5789d701579dd7055791d7192795a7102
:101f78002418640009190a89da80002806d00c4b55
:101f8800094a1a600b4b08221a8070bd0a4b59780f
:101f98000822043000f02cfc03490822022000f03b
:101fa800fffaf2e742010020b80100208402002075
:0c1fb800e0010020aa010020d001002060
:020000040000fa
:101fc400f7b50c25c3684d439c46032382684b43f5
:101fd40055196c6863442d8964889f781b78641b49
:101fe400e41aa3b201930025436860461e88b542f3
:101ff40001d10020febd8d4218d08378bb4215d19b
:1020040013787b33dbb2012b15d913899c465368b3
:102014005b889c450ad264461b1b04789bb2a3428e
:1020240004d91b1b019c9bb29c4204d30135adb265
:0a20340003300c32dbe70120dce78b
:020000040000fa
:02203e00fee7bb
:020000040000fa
:1020400070b5041e2fd0194b1b7d0020002b29d109
:10205000164b1c60596001221a755868144b1b7e80
:10206000db0716d5002817d00023114907260125c4
:1020700007e0e25c0a8501330a7e2a420bd09842cf
:102080000ad04a683240012af3d15a00a25a0a857e
:10209000f1e7002000e01800044b9860044b012297
:1020a0009a75012070bd0020fce7c046d4000020d6
:0420b00000140042d6
:020000040000fa
:1020b40010b5194b2c229b5c002b18d0164bda69f7
:1020c4001b6a934213d2144b986a14490a8d92b234
:1020d4001b6a4c6807212140012909d00e498969ee
:1020e400ca5401330c4a1362d2699a4205d010bd16
:1020f400094989695c006252f3e7074b00222c21ed
:102104005a54da61054a583111755b6a002beed0d6
:10211400014b5b6a9847eae7d400002000140042b0
:020000040000fa
:10212400f8b5154b1b681b689a78402a1fd1134acf
:102134000425127815431a790f2313400f2a00d966
:10214400102360241c4300f09dfd042300260c4f43
:10215400e4b23b7000f096fd3e7100f093fd3c73d9
:1021640000f090fd3000074bedb2dd77f8bd0220a2
:10217400802afbd1044adbe7040000209c280000ed
:0c218400004c0042014c00429d2800006d
:020000040000fa
:1021900070b500f069fb1348fff748fc124800f0e7
:1021a0004bfd00240f4d2100280000f079fc210098
:1021b000280000f089f90134a4b2052cf3d10b4dad
:1021c00000240b4ee1b22a00300000f079fc01340b
:1021d000a4b20635052cf5d1064800f02dfa00f022
:1021e000e3fb70bd6c020020a00100202401002050
:0821f0002c0200201c0200205b
:020000040000fa
:1021f80010b5114b05221a80104a114bc1005b180b
:1022080019791171597951719b799371002806d008
:102218000c4b0a4a1a600c4b07221a8010bd0b4b54
:1022280059782322043000f0e3fa044907220220f7
:1022380000f0b6f9f2e7c04642010020c8010020cc
:10224800f4010020e0010020aa010020d0010020b4
:020000040000fa
:1022580070b5012819d004281bd0104b01221a8010
:102268000f4b5e7800f008fc04000e4b4200d55a74
:102278002a003100042000f0bbfa0b4ba400e158ff
:102288002a00022000f08cf902e00800fff7b0fff6
:1022980070bd0800fff754fefae7c046420100206f
:0c22a800d0010020f02c0000802b000072
:020000040000fa
:1022b400013210b5d2b2002906d1134b180010bd5b
:1022c400013a4000d2b280b203b2002b01db002af3
:1022d400f6d10bb2002b11da0023002aeed01cb287
:1022e400002ceadb5b00013a9bb2d2b2884203d3f2
:1022f400401a013380b29bb24908eee7013249002b
:0c230400d2b289b2e5e7c046ffff00003e
:020000040000fa
:1023100000230e4a10b513600d4a13600d4a136076
:102320000d4a13600d4a13600d4a53621361013365
:10233000936000f001fd00f0fffc0a4c0a4b9c4248
:1023400000d310bd08cc9847f8e7c046e80100204c
:1023500018000020140000200c00002010000020b5
:0c2360001c000020bc000000c0000000b9
:020000040000fa
:10236c00bff35f8f62b6124bc02080001a58120266
:10237c00120ac02109060a431a5008221a60c32106
:10238c0089005a58ff2082433f3802435a5080221a
:10239c0052011a60c62080001958064a1140c0220a
:1023ac0012040a431a508022d2041a607047c046a5
:0823bc0000e100e0ffff00ff5b
:020000040000fa
:1023c400114b124a1a60124a9a81c02292025a6030
:1023d4001a00d369002bfcd10b4a136802210b436a
:1023e4001360d369002bfcd10a4b00229a61da6195
:1023f4001a622c215a545a621a605a609a601a75e9
:10240400da60da857047c0460014004204011040c7
:082414002bf6ffffd4000020ad
:020000040000fa
:10241c0010b5144b9b7d002b16d0124a137edbb2e9
:10242c00927d52b2002a10db0e4a137edbb2927df3
:10243c00d20701d5db070ed40a4a137edbb2927d9c
:10244c00520701d55b0709d410bd5bb2002bebda48
:10245c0000f032f9e8e7fff731fdede7fff724fe76
:08246c00f2e7c0460014004233
:020000040000fa
:10247400124b802292021a60a02292021a61002258
:1024840051215a54503956201954013019543731b6
:102494005a5403313538585409495e3019501030b4
:1024a4001950cc215a5401315a5401315a54013132
:1024b4005a5419395a5401315a547047004400414e
:0424c40000f00040e4
:020000040000fa
:1024c800030010b50b20002b16d01a6802201488c0
:1024d8008c4211d392789b68402a0ed106228d2017
:1024e8004a4380009a189080002006225143022215
:1024f8005b1819780a431a7010bd803ad2b2012ac3
:10250800f3d806224a4301489a18ece76705000009
:020000040000fa
:1025180010b5064c2378002b07d1054b002b02d0b1
:10252800044800e000bf0123237010bd44010020cf
:102538000000000000000000044b10b5002b03d081
:102548000349044800e000bf10bdc0460000000079
:08255800480100200000000012
:020000040000fa
:1025600070b50e4943001a1852008a1856880c4a52
:1025700016800c4d1c18a4002c1924895480361b7d
:1025800096801c18a400645de40994711b185b001c
:10259000cb181979d1715b79137270bd24010020b9
:0825a000ac01002098000020ae
:020000040000fa
:1025a80010b50b4b1b78002b00d010bd094b1870d1
:1025b8000748012303700848037008480370084b54
:1025c8001960084b1a80087800f000fbede7c04658
:1025d800b7010020b6010020b501002087010020c6
:0825e800e0010020aa0100201f
:020000040000fa
:1025f00010b50a4b98470a4b984700f019f9094b58
:10260000ff229343084a9360084b9847084b98472a
:10261000084b9847fef772fffee7c046a311000083
:10262000a31100000000000000ed00e011230000f5
:08263000a3110000a31100003a
:020000040000fa
:1026380030b584680b23002c10d0c16800290dd058
:102648000022036806311a704068631c05790a2065
:10265800684301302418a34202d10023180030bd7a
:102668001a7008780a315870d81c0280581d0280e8
:08267800d81d02800a33eee7d1
:020000040000fa
:1026800070b504000d00002815d00c4b2c229b5c6b
:102690000020002b00d070bd00f02ef9074b9c618c
:1026a000dd6100221a622c2101205854da85044b86
:1026b00084329a75efe70020ede7c046d400002091
:0426c00000140042c0
:020000040000fa
:1026c40010b50d4b5a8b0723110019401a4200d143
:1026d40010bd0a4ce18500f00df9074b84221a75f0
:1026e4002c230022e254636a002bf1d0034b986a36
:1026f4005b6a9847ece7c04600140042d40000200f
:020000040000fa
:102704000d4a70b51068012502680c491488062228
:102714000b885a43a3420ad28668b65c06322e421c
:1027240002d101339bb2f5e700200b8070bd00237a
:1027340001200b80fae7c04604000020600100205d
:020000040000fa
:102744000d4b01221a801a00937a5bb2002bfbdb3b
:10275400094b80221a801a00937a5bb2002bfbdbb0
:10276400054b01229a611a00937a5bb2002bfbdbc2
:0c277400014b0122da7170470014004094
:020000040000fa
:1027800030b50c490c4b820014186400e55c012440
:102790002c400c70141864001c19257a4d70647a52
:1027a0008c70121852009b189a79ca70db790b71e1
:0c27b00030bdc046d8010020940100207c
:020000040000fa
:1027bc0010b50b4a1378dbb20a490b480078c854a1
:1027cc0013780133dbb2137013783c2b04d006481a
:1027dc000121fff74fff10bd130000221a70f6e71e
:0c27ec00850100205c000020d7010020c7
:020000040000fa
:1027f800f8b507000e0014000a4d00232b70552071
:1028080000f086f9380000f083f9300000f080f914
:10281800e0b200f07df9200a00f07af901232b706c
:08282800f8bdc0466b02002060
:020000040000fa
:1028300010b50b480168002905d14368002b02d16f
:1028400000f075fa10bd04008368064a9bb20c3490
:102850009b009b5842682000984780002018e9e7b9
:082860006c0900004c2c000083
:020000040000fa
:1028680010b50a48002100f021fa094a937a5bb2b0
:10287800002bfbdb00f074f9002000f089f914202c
:1028880000f090f900f060f910bdc046152d000069
:0428980000140040e8
:020000040000fa
:10289c0080a00203040506072021222324252627d5
:1028ac00282908090a0b10111213141516172c2db0
:1028bc002e2f07001300350090003f1c0b05030161
:020000040000fa
:1028cc0010b508490b7adbb2074a1371c1230b729e
:1028dc001368002b04d01079c0b291681368984724
:0c28ec0010bdc046001400408801002010
:020000040000fa
:1028f800094b5b8b5b070dd0074b80221a76793a20
:102908005a831b7e5b0705d5034b04211a8d1a7e5b
:0c2918000a42fbd17047c0460014004288
:020000040000fa
:10292400084a1378dbb20849c85c13780133dbb278
:10293400137013783c2b00d07047130000221a70d8
:0c294400fae7c046860100205c0000207d
:020000040000fa
:1029500010b5040006482100fff7b6fd6200121909
:102960005200044bd218e1b2034800f0a9f810bda0
:0c2970006c020020240100202c0200203a
:020000040000fa
:10297c0010b5094b06225a60fff776fdfef7b4ff3f
:10298c00fff71afd00f08af9fff7d6fefff7fafb06
:0c299c00fff7e6fc10bdc0460040004103
:020000040000fa
:1029a80010b50648002100f087f90548002100f01d
:1029b80089f904480121fff75ffe10bd5916000090
:0829c800bd270000d70100202b
:020000040000fa
:1029d00030b5064b8200111849005918044c25796e
:1029e0004d7165798d71e2880a8130bd84020020c5
:0429f000b80100200a
:020000040000fa
:1029f40010b5064bc2009b18054a1179197151791b
:102a0400597192799a71fff7a1ff10bdf40100206a
:042a1400c8010020d5
:020000040000fa
:102a1800064b1878064b1b78c01a83b2002801dbd6
:102a2800c0b270473c3318b2fae7c04685010020af
:042a380086010020f3
:020000040000fa
:102a3c000222074b997ac9b2114202d0987a02430a
:102a4c009a720122114202d0997a0a439a72704703
:042a5c00004c0042e8
:020000040000fa
:102a6000054b064a9178197092681178597051781f
:102a700099709278da707047740100204c0200203f
:020000040000fa
:102a8000031e0bd0012809d0022807d0032805d047
:102a9000042803d00020052b00d070471800fce765
:020000040000fa
:102aa0000b2300280ad003681a8802238a4205d320
:102ab00006235943012382688b5400231800704772
:020000040000fa
:102ac0000b23002809d0002a07d00c234b43816830
:0e2ad000c91801230b7000234a6018007047dc
:020000040000fa
:102ade00002310b5934206d103201840421e9041a8
:0e2aee009b08c01810bdc45ccc540133f2e745
:020000040000fa
:102afc0070b505000e1e08d00024fff70dff2870de
:0c2b0c0001350134a4b2a642f7d170bd1f
:020000040000fa
:102b180010b5054b01221a7000f058f8024a1378d4
:0c2b2800012bfcd010bdc046b7010020fe
:020000040000fa
:102b3400802806d0812806d082384342584140007c
:0a2b440070470020fce70120fae7cb
:020000040000fa
:022b4e00fee7a0
:020000040000fa
:102b5000044a138802210b431380937a5bb2002b43
:082b6000fbdb7047001400408c
:020000040000fa
:102b6800044a138802218b431380937a5bb2002bab
:082b7800fbdb70470014004074
:020000040000fa
:102b800078020020f40100205c0200209202002064
:082b900084020020580200201d
:020000040000fa
:102b9800034b18611a00937a5bb2002bfbdb70477a
:042ba80000140040d5
:020000040000fa
:102bac00034b98611a00937a5bb2002bfbdb7047e6
:042bbc0000140040c1
:020000040000fa
:102bc000034a1388802109020b4313807047c046d3
:042bd0009e01002042
:020000040000fa
:102bd40010b5034b187001211800fff72ffa10bd30
:042be400d6010020f6
:020000040000fa
:102be80010b5034b01221a70142000f051f810bde3
:042bf800f2010020c6
:020000040000fa
:102bfc00034b9a6843001b189b00d05c7047c0467f
:042c0c002c02002076
:020000040000fa
:102c1000034b9a6883001b185b00d05c7047c0466a
:042c20001c02002072
:020000040000fa
:102c2400034b9a6883001b185b00d218d088704746
:042c34001c0200205e
:020000040000fa
:102c38000b23002802d0024b1860002318007047ad
:042c48000800002060
:020000040000fa
:102c4c00752c0000df2a00002b2d00002b2d00001e
:042c5c002b2d00001c
:020000040000fa
:102c600003b47146490840004900095a49008e449e
:042c700003bc7047ea
:020000040000fa
:102c74008a18914201d10020704700230b70013162
:022c8400f7e770
:020000040000fa
:022c8600fee767
:020000040000fa
:102c8800024a53781b06fcd47047c046004c0042e9
:020000040000fa
:102c9800024b1a88801818807047c046220100200d
:020000040000fa
:0c2ca800014b88225a6070470040004138
:020000040000fa
:0c2cb400014b18609960704788010020f7
:020000040000fa
:0c2cc000014bd86019617047d40000205f
:020000040000fa
:0c2ccc00014b586299627047d400002050
:020000040000fa
:0c2cd8006125000081270000612a000037
:020000040000fa
:0c2ce400ac010020d80100207401002089
:020000040000fa
:0c2cf0000a0023000f0008000800030089
:020000040000fa
:0c2cfc00014b01221a707047f10100200a
:020000040000fa
:0c2d080010b5fff797fefff749f810bd6b
:020000040000fa
:082d140010b5fff767ff10bdc9
:020000040000fa
:062d1c002d00050011006e
:020000040000fa
:022d220000109f
:020000040000fa
:062d24000900050011008a
:020000040000fa
:042d2a0000207047ce
:020000040000fa
:022d2e007047ec
:020000040000fa
:032d30008081821d
:020000040000fa
:032d340005010195
:020000040000fa
:022d38007047e2
:020000040000fa
:0200000400807a
:0440000077c700d8a6
:020000040000fa
:0200000400807a
:044004005c00ffff5e
:00000001FF
