:020000040000fa
:10000000f07f00201126000063200000632a00001a
:1000100000000000000000000000000000000000e0
:100020000000000000000000000000007b2b00002a
:1000300000000000000000007b2b00007b2b000074
:100040007b2b00007b2b00007b2b0000e9280000ad
:100050007b2b00007b2b00007b2b00007b2b000008
:100060007b2b00007b2b00007b2b00007b2b0000f8
:10007000952400007b2b00007b2b00007b2b0000d5
:100080007b2b00007b2b00007b2b00007b2b0000d8
:100090007b2b00007b2b00007b2b00007b2b0000c8
:1000a0007b2b00007b2b0000352d00007b2b0000fc
:020000040000fa
:1000b000f8b5c046f8bc08bc9e46704761250000f4
:1000c000f8b5c046f8bc08bc9e467047392500000c
:020000040000fa
:1000d000f0b587b00090009b0b20002b00d1e2e12f
:1000e000002603275b68049602931b8801960593fc
:1000f0000396049b059a93421ed1009b1a681378bd
:1001000059b200290bda0820002101268446049cfc
:1001100088b2844200d9ffe07f210b401370039b1b
:10012000002b00d009e1019801231178002800d1ab
:100130005be10b4313705ae1009bb5009b685d19ae
:100140001e236a681178194001d001232b702b7887
:10015000042b73d00ad8022b2ed043d8012b23d0e6
:10016000049b033601339bb20493c2e7852b00d175
:1001700082e0862b00d1a9e0072bf1d12989538891
:1001800099425fd9c91a009b0298db6840799b5d50
:1001900089b20341dbb28b4254d86b78002b69d112
:1001a00001232b701770dbe703930029d8d10223ba
:1001b0002b7008236b70d3e76978002910d0528820
:1001c000042904d92a810139697001237ce02b8933
:1001d0009342f8d002d9013b2b81f4e70133fbe7ce
:1001e0002f70bde7298953889942b9d0009ad26807
:1001f00010d9cb1a0299925d49799bb20a41d2b2c9
:100200009a42add8029b1b79002ba9d007222a70f5
:100210006b70dae792195b1a11789bb299429fd8fa
:100220009378002b05d00499009801f0ddfe00289a
:1002300096d104232b70029b9b78e9e72989538888
:10024000994202d92f700023b4e7009a5b1ad26852
:100250009bb2921911789942f4d29378002b06d070
:100260000499009801f0c0fe002800d078e76b7870
:10027000002b47d0013bcbe7029b00991b7a096812
:100280000b7128895388984207d986232b70029bcb
:100290009b786b700123019316e0009a1b1ad268b9
:1002a0009bb291190a784978140001310c4101215f
:1002b000121bd2b201919a4200d251e786232b70d1
:1002c000029b9b786b700b00039349e72889538846
:1002d000984209d96b78002b01d12f7001e0013bc6
:1002e0006b70012301933be7009a1b1ad2689bb203
:1002f00091190a784978140001310c41121bd2b2cd
:100300009a4204d285232b70029bdb78e8e76b7856
:10031000002be2d0013bbce70c2500984d438068e0
:1003200045196f683878304205d164462d78a54369
:1003300001d0304338700131e9e6029b597a002937
:1003400000d1f0e6802310785b420343137001294b
:1003500000d0e8e600218bb20393049b88b283426d
:1003600000d8e0e60c20009b48439b68082518183d
:10037000029303781c00ac4315d0852b01d0032bce
:100380002ed10325009bdf682b004b43fb189b7885
:100390009c46002b07d000231e000595049c9c4220
:1003a00008d8002e1cd1012540680378ab430370a8
:1003b0000131d0e7039c9c420fd00c255d43029c89
:1003c0002d5d042d01d0862d07d1059d5d437d193e
:1003d000ad78654501d10126049b01339bb2dde771
:1003e0000123406805782b43e1e799431170528857
:1003f000584b11001b88c8318b4251d99b1a9bb2b4
:100400009c466346c82b4dd96346c83b9bb29c466d
:10041000009b1b685a88c8325a801a79002a00d07b
:1004200070e05a79002a01d0013a5a719a79002a6b
:1004300001d0013a9a71009a50688679002e07d04f
:100440005a79002a04d1078891b28f4234d85e715c
:10045000c579002d07d09a79002a04d1068891b277
:10046000b1423cd39d71009b5b68da78002ac8d00a
:100470001f880c23002103207b4302938bb2bb42d5
:10048000bfd20c22009b4a439b689a181578852d91
:1004900004d15578002d38d0013d55700131ede77c
:1004a000934202d3002007b0f0bd2b495918891a96
:1004b000c829f7d9013ba1e70c21009c5143a4684e
:1004c00061180d78032d01d0082d06d14c680d89d7
:1004d0006488ac4201d901350d810132b4e70c21a9
:1004e00000985143806841180878032801d00828f3
:1004f00006d14c6808896788874201d20138088193
:100500000132ace7013a1a71ade70124050014701d
:1005100052684d431070009ad2685519ad78002d7d
:10052000bcd0029c02321c1901920394039a93429c
:10053000b4d0019a1678ae4206d101225e683478b2
:10054000144201d01a703070019a0c3303320192b8
:0c055000ece7c04622010020ffff000085
:020000040000fa
:10055c000b23f0b587688fb007900493002f1bd046
:10056c00c268002a18d043681968019101990029c2
:10057c0012d002921a790a235343fb180d930023cd
:10058c00049308930d9bbb4209d16a462021079b1b
:10059c0052181b6812781a7004980fb0f0bd029ba9
:1005ac000c205b889c46029b62461b790393634438
:1005bc0005936b469b890993634499b20023059c70
:1005cc00a2422edb002562462e000599914233dcb7
:1005dc006a4213400122397811400b916cd0398951
:1005ec004a005218921992b292083a81002d65d1a4
:1005fc00029a1578012d00d9a0e152790a92cf2ade
:10060c0000d99be1002b5bd13b817e223b70934355
:10061c00089a0a371343dbb20893029b0a330293fe
:10062c00b0e704005443019d645d852c01d10a00a0
:10063c000123013292b2c2e70c20504301990918f0
:10064c004c6809896488641aa4b221b20a91002109
:10065c0006910a99002900dd0694624524d102997d
:10066c000024087801280fd103998c180c214c43d5
:10067c0001990c3c0c19616824894888001b0024e2
:10068c0000b2a04200dd84b20699029809190089d3
:10069c0089b2884205d8301c8e4200d2081c012534
:1006ac0086b2013292b290e701990c380818416871
:1006bc0000894c88201ae2e73e8199e72b0097e7e6
:1006cc0000220a9b16001b090c930c20634605990b
:1006dc00994200dde1e0b44500d0f0e0012d00d0fe
:1006ec00f7e00b00434301990c3bcb1859681b896d
:1006fc004988c91a634601335843019b09b218183b
:10070c00436800895b881b1a1bb2181c002b00da8b
:10071c000020012300b20693884206db0b1c002943
:10072c0000da002319b200230693059b0c20013b31
:10073c009e4200d0d1e00023012d0dd163465843d9
:10074c00019b181843685c880389e41a24b2231ca3
:10075c00002c00da00231bb203980f2800d9c4e048
:10076c0000200c2405900698012800d0c1e0039ebf
:10077c00a64089b29bb2b6b292b2994200d2bbe00b
:10078c00d21a90b2c31ac91889b2220001f09efd88
:10079c000123a340c01a80b2039b301880b2022bf5
:1007ac0006d9012d00d0b0e0059a099901f08efd13
:1007bc008022031c5201904201d9684b1b8898b2cd
:1007cc00002d13d10f230a9a1a400fd02821514320
:1007dc002b00814201d8401a83b280224900520179
:1007ec00511a89b20c22180001f070fd0c230c9ade
:1007fc009b1a18410123934099b2013b984200d9ae
:10080c0088e00b9b80b20400002b22d0bc88031b19
:10081c009bb21ab2012d09d14d08002a00db7be0f6
:10082c006d42954200dc94e0cb181ab2022693b2ca
:10083c005d1cb543adb2002d0bd05b08002a04da69
:10084c0053429bb25b085b421bb2e418a4b2013961
:10085c000c40029bfe880299b8809d7958790978e2
:10086c00a31b9bb21ab201290ad10009814089b29b
:10087c004808002a55da4042904203ddc9180ab2f2
:10088c00002a5fda5242bb7812b29a424edc002345
:10089c007f2252421343dbb2b7e604005c4301995a
:1008ac000c19616824894988091b09b2002903dde8
:1008bc00914201dd0a001e0001339bb207e7704331
:1008cc00019b0c381818436859880389c91a09b256
:1008dc0024e700230693190027e7731c4343019870
:1008ec00c31858681b8944882fe7042008240590f6
:1008fc0039e76046361a3be75b1a98b2511a411831
:10090c0089b2220001f0e2fc46e70999059a013907
:10091c0089b24be7481e74e7aa4287dd5a1a12b215
:10092c0084e782420edd5a1a12b2a9e700237d70c9
:10093c00bb70b442abd0fc800223a9e70223049322
:10094c00002362e67b789a42a1dd0023bd707b70a8
:10095c00efe7531c00d073e77be7c046b22c0000d6
:020000040000fa
:10096c00440100201c000000000000008801002051
:10097c000c00000000000000d4000020300000003b
:10098c0000000000c801002008000000000000006a
:10099c00420100200200000000000000d6010020ef
:1009ac000200000000000000850100200100000092
:1009bc00000000009e01002002000000000000006a
:1009cc008601002002000000000000005c000020f6
:1009dc003c00000000000000ac01002009000000f9
:1009ec000000000074010020110000000000000055
:1009fc00d80100200500000000000000b501002017
:100a0c000100000000000000b801002008000000f8
:100a1c0000000000b60100200100000000000000f2
:100a2c00aa0100200200000000000000e0010020ec
:100a3c000400000000000000d001002006000000af
:100a4c0000000000b70100200100000000000000c1
:100a5c00dd010020020000000000000078020020f0
:100a6c000a00000001000000023300051f0000070f
:100a7c00000000006b0200200100000001000000db
:100a8c0001000000f0010020030000000000000045
:100a9c00df0100200100000000000000ed0100203b
:100aac000100000000000000040100201e000000f6
:100abc0000000000240100201e00000000000000c7
:100acc00980000203c00000000000000c001002045
:100adc000800000000000000940100200a00000043
:100aec0000000000ec0100200100000000000000ec
:100afc00ee0100200100000000000000a001002019
:100b0c000a00000000000000ef01002001000000be
:100b1c0000000000b40200200300000001000000ef
:100b2c0000010200ac0200200600000001000000e1
:100b3c000500803000030000f401002028000000b4
:100b4c000100000000002000000004000000100064
:100b5c000000040000000008000004000000000475
:100b6c000000040000000020000004006c020020c3
:100b7c000c00000001000000ac020020f401002079
:100b8c00240100205c0200200f0000000100000086
:100b9c003c01003c01002801012801012801010051
:100bac00840200200a00000001000000050004007f
:100bbc0005001405140100001c0200202000000098
:100bcc0001000000c00100208402002098000020d9
:100bdc005c02002005000300b0020020b4020020db
:100bec00011906009c020020080000000100000012
:100bfc003c0200202c0200203c02002010000000cf
:100c0c00010000000000000004010020240100206d
:100c1c00f0010020900200200a00000001000000fa
:100c2c0001000200038a0800140000004c0200209e
:100c3c001000000001000000ec010020a4020020c4
:100c4c009401002090020020a40200200800000063
:100c5c00010000009800002001000000f3010020ba
:100c6c0001000000000000008202002001000000d2
:100c7c0001000000010000006001002014000000d1
:100c8c0000000000000000200c000000000000002c
:100c9c00220100200200000000000000e4010020fe
:100cac0004000000000000000c00002050000000b8
:100cbc0000000000e801002004000000000000001b
:100ccc0000000000000000006666666666666666e8
:020000040000fa
:100cdc000322f0b5ae4b89b01b7a0392002b14d0d3
:100cec00ac4b1b6804931b6805931b880693aa4b9b
:100cfc001b6807930023029303936b461a89069b88
:100d0c009a4205d30222a24b1a72039809b0f0bd85
:100d1c00029b07995b00cc5a062302994b4304991a
:100d2c008968ce180499029b49683578db00cb188a
:100d3c00ed0601936d0f9b79042d00d927e1280056
:100d4c0001f09eff050013000701d8000f000f21d2
:100d5c00019a52790a40934201d99d1aedb22c4165
:100d6c007480029b01330293c7e71c418b4aa3b2e8
:100d7c007380b788934226d9894a9b182a009bb264
:100d8c0005998978402923d15b08002a22d0002fad
:100d9c0024d0042b26d90f24b9043a123811890f08
:100dac00224020402740002d46d0cf2b01d90029ce
:100dbc0075d1152b7dd9002a76d10a1e7bd001392d
:100dcc00c9b20a2277e0754ad31a9bb20022d7e740
:100ddc00002adcd0734a00259742dad18123337084
:100dec000e23039333785a0601d501230fe05bb22f
:100dfc00002b0ddb0322059bdb781340022b0bd160
:100e0c000f22019b1b799343019a137109233370b1
:100e1c00bf04bf0cb780a4e7012be6d10f22019bc6
:100e2c001b791a4030231343019a13710d23eee7fb
:100e3c000131cf3bc9b29bb2cf2b01d90329f7d1da
:100e4c00152b0dd90f2a06d10f2203290ad00131f7
:100e5c00c9b2052206e00132153bd2b29bb2efe7d4
:100e6c000f2af1d0022b0cd90f2805d10f2a0ed145
:100e7c00032926d010000fe00130023bc0b29bb218
:100e8c00f0e70f28f2d0032925d1032104e0013229
:100e9c00d2b205200329f8d0022bcdd81be00139a2
:100eac00cf3bc9b29bb280e7013a153bd2b29bb2a1
:100ebc007fe7002a81d0022b0bd9002804d1002a0d
:100ecc0011d11700100006e00138023bc0b29bb2f2
:100edc00f1e70028f3d009038cb212021443274324
:100eec000001074396e7013ad2b20a20022b00d93f
:100efc005be7f0e71c41019ba4b21f793d09032d70
:100f0c0025d02100100000f0a5ff00281ad10135d2
:100f1c00012333700f232d011f40019b3d431d7195
:100f2c0033787480012b00d01be7ff33ff339c42d6
:100f3c002ad91b4be418a4b2052c00d811e7452381
:100f4c0033700ee7002de3d0013dedb2e2e7022550
:100f5c00e0e71c410f25019ba4b21f793d4011d045
:100f6c002100100000f076ff002806d1013dedb203
:100f7c00012333700f239f43cfe7032df8d00135a6
:100f8c00edb2f7e70125f5e7044b1c1bd3e7fee7b1
:100f9c00600100200400002008000020ff01000078
:080fac0001feffffff3f000002
:020000040000fa
:100fb400f0b502008db00b20002a6ad05568116884
:100fc400ab7801934b7802932b7b002b3ed000240b
:100fd40020002b889c46019b5b000393029b5e00d0
:100fe4006746a3b29f4256d86b7b984200d87be0f9
:100ff400cb6802995b18197801311970116853682c
:101004004878c968085c997b88421fd169469d6805
:10101400029b0989e81803780391002b53d0013b04
:10102400dbb26e466f46b68800213e823e8a0124ba
:10103400b44667468eb2b74247d8002cedd0037051
:101044000023180051688978994247d8029b694661
:101054005b000a93019b56685b08013306936b4659
:101064009b888b818b890b9300239c460393338845
:1010740003998b4244d8029b01990133dbb28b4222
:101084008941b0680b40c05c716808700020126828
:1010940053700db0f0bd062363438f68fb185f885f
:1010a4004b689b5b9f420ad9fb1a9bb21f1c83426d
:1010b40000d2071cb8b2039b0134f61890e79f4294
:1010c400f9d2db1bf1e70f23abe7039fb74203d051
:1010d4006e5c9e4200d100240131aae71168c96800
:1010e400c85401339bb2ade75b088342aed9cb68e9
:1010f40002995b1819780029a8d001391970a5e75d
:101104000623039910684b438168cb1804931b781a
:10111400db065b0f40d161464068490041180591e8
:101124000499059849880a9c0993015301999942a5
:101134002ed9002005995d00491908910400012168
:101144000de09f420ad0059d6700ed5b0795089d61
:101154002f88079dbd4215d10131c9b20134019dcb
:10116400e7b2bd42edd8069c8c4204d9844206d92c
:101174004118a14203db089b1b880993019b01339f
:10118400dbb2d3e7079dbd42e8d20130c0b2e5e748
:101194006946049b898c5980039b0b9901339bb24c
:0e11a400039363468c4663449bb29c465fe710
:020000040000fa
:0211b200704784
:020000040000fa
:1011b400f0b585b0070001f07bfd0222654c664d59
:1011c4002378fe00934323702b685b689b199a78fd
:1011d400624b510706d419696148014019615a6983
:1011e4000240b5e0110700d5a0e080201a695c49ef
:1011f40040010a4002431a615a6911400843586188
:1012040001f056fd2b685b689b195b88238201f013
:101214004ffd2b685b689b5b638201f049fd0623ed
:101224002a687b439768ff18bb8823833b789b0716
:1012340001d505233b703f7801f03afdff067f0f8f
:101244003f23002f07d12b685b689b195a79454bc4
:1012540012099b181b7aa37601f02afd2b685b68a0
:101264009b191b791b09e37601f022fd03212b68ee
:101274005b689b191a7923790a408b4313432371c2
:1012840001f016fd2b6807215b689e19b2790226ce
:10129400637b0a408b431343637301f009fd237896
:1012a400314f334323707b68002b36d0012501f086
:1012b400fffc237b1b071b0f029301f0f9fc23792e
:1012c4009b079b0f039301f0f3fc2378b343237034
:1012d40001f0eefc63791d43354301f0e9fcedb206
:1012e400224b65711a68082311780b43137001f0bf
:1012f400dffc657b01f0dcfc0722637bedb29343ea
:10130400637300951a4b039a029900207d68a847dd
:1013140001f0cefc23781e43267001f0c9fc802323
:10132400627b5b421343637305b0f0bdd10605d401
:1013340080201a690a4980010a405be7196992060c
:1013440000d549e7c02292011143196159690a4342
:101354005a6155e7004c004204000020004400425a
:10136400ffcfffffda28000060010020000000200a
:041374000d4c0042da
:020000040000fa
:1013780010b5594b1b79022b21d0032b59d0002bc8
:101388000dd0554b00221a71544b1b78002b05d1f8
:10139800534b1b881bb2002b00da6fe010bd01f025
:1013a8005dfb0528f0d901f0c7fa5528ecd14a4c65
:1013b8000421200001f0b4fb02232371e4e7464b2b
:1013c8001b78022b1ad0012bded101f047fb012834
:1013d800dad901f0b1fa040001f0aefa002cd3d149
:1013e800aa28d1d13e4803883b494c780122a24023
:1013f80013439bb2038003230b71c5e7364b59880f
:101408003b2903d9587800f02ff9bde701f026fbf6
:10141800314b5b8880b28342b6d2314803882e496b
:101428004c780122a24013439bb2038003230b7123
:10143800aae72a4b1b78002ba6d1294b1b881b0532
:10144800a2d0254b1b78012b10d0022b9cd1224c0b
:101458006188607800f008f90023237120490b881f
:1014680060780122824093430b808de71a4c6078a4
:10147800002100f0fffe0023237185e7194c237833
:10148800194ad15c194a11701178c9b25b00184a1f
:101498009a5a032001f0baf923789b00154a9b5801
:1014a800002098472378144ad15c144a11805900c7
:1014b800134a8a5a9b0013495958012001f080f8b1
:1014c80023780133dbb2032b02d0064a137065e799
:1014d800044b00221a7061e7d0010020b7010020f8
:1014e8004201002085010020582d0000d70100206e
:1014f800482d0000102d00005c2d00009e010020ea
:08150800402d0000042d00003d
:020000040000fa
:10151000f0b5ce46474680b583b0002001f03cfad6
:101520004f4f6b469d1d00244e4b98461ae04e4a85
:10153000982380214901d15039e04b4a98238021da
:101540008901d1503de043461a702b78002b40d1e1
:10155000454b98228021c901995049009950802219
:1015600092029a6100f0d2fb3b78012bfad12c70e9
:101570006b46dc71200001f057fb7f2399469843ae
:10158000c0b201ae3070012001f04efb4b469843d3
:10159000c0b26b465871200001f050fb28703378c0
:1015a000002bc4d0304a942380214901d1506b468e
:1015b00005331b78002bc0d02b4a9423802189014e
:1015c000d150284b1b782200132bbcd80133dab240
:1015d000b9e7012001f03cfbc0b26b46d871da7963
:1015e0009208da71da791f4b197853009b181f4a59
:1015f0009b5c8b4222d91c4a94238020c001d0508e
:101600006b46da7953009a18184b9b185b788b421b
:101610001ad9154a942380210902d1506b46da79f0
:1016200053009a18114b9b189a780e4b1b789a42cc
:1016300010d90d4b802292025a6193e70a4a9823ef
:101640008020c001d050dbe7074a9823802109029f
:10165000d150e3e7044b802292029a6182e7c046b0
:10166000df010020f3010020004400414c1c000079
:020000040000fa
:10167000f0b5c64600b5040001f0f4f985b2012cbe
:101680003ad0002c10d0022c49d0042c00d188e094
:10169000200001f0d3f9454b59888000444bc058d5
:1016a00001f042fa01f04cf904bc9046f0bd3878e4
:1016b00001f09cf93b780133dbb23b70073dadb2e2
:1016c000052b0ad0072defd93a4ce61d01f038f969
:1016d00020700134a642f9d1e9e70023364a13709d
:1016e000324a137135490b88507801228240934366
:1016f0000b8001f025f9d7e7072dd5d92e4fe3e769
:1017000000232d4a1370294a13712c490b885078f5
:101710000122824093430b8001f012f9c4e7032dac
:10172000c2d9254f264b98463c7866003619464468
:1017300001f006f9307001f003f9707001f000f962
:10174000b0700134e4b23c70033dadb2052cd7d08b
:10175000032de9d8a8e73c78200001f033f90134e3
:10176000e4b23c70083dadb2012c0bd0082d9bd9e2
:10177000144c2600083601f0e3f820700134a6422c
:10178000f9d1e8e700230c4a1370084a13710b499a
:101790000b8850780122824093430b8001f0d0f8ef
:1017a00082e7082d00d87fe7034fe1e7d001002052
:1017b000ac2b0000c8010020cf0100204201002016
:0817c0005c020020b8010020ca
:020000040000fa
:1017c80010b5464b1b78012b03d0454b00221a70ed
:1017d80010bd444b1b78444a12889a4227d8434b81
:1017e8001b78022b30d0414b1b78012bf0d1404b9a
:1017f8001a78404b1b889a4259d23f4b1878c0b28e
:1018080001f0aaf93a4c2378dbb280003b4a8258af
:1018180018009047334b01221a7023780133dbb24a
:101828002370374b1b68187801f0e6f9d0e72d4c88
:101838002378dbb2324a1268d05c01f0ddf92378f4
:101848000133dbb22370c3e7294b1a78294b1b8875
:101858009a4207d3264a1278934217d0204b002287
:101868001a70b5e7224c2178c9b2264b587800f097
:1018780001fd1c4b01221a7023780133dbb223705f
:101888001f4b1b68187801f0b7f9a1e7184a1378bd
:101898000133dbb213701c490b881a4a50780122b5
:1018a800824093430b80aa2001f0a6f990e7104ae2
:1018b8001278934203d00a4b00221a7088e70c4a28
:1018c80013780133dbb213700f4a13885b045b0c87
:1018d8001380aa2001f090f97ae7c0466b02002035
:1018e800b7010020de010020aa010020d601002057
:1018f800dd0100209e010020d7010020102d0000ee
:0c190800e0010020d0010020420100207e
:020000040000fa
:101914003c490b6a3c4a1a4081235b0013430b6227
:101924000a000823d1680b42fcd0384b5b689b0249
:10193400fe22d203134006221343324a9361042346
:10194400d1680b42fcd0324b324a5a60324a9a6018
:101954001a0053785bb2002bfbdb2d4b2f4a5a60e5
:101964001a0053785bb2002bfbdb294b2c4a5a60dc
:101974002c4a9a601a0053785bb2002bfbdb214a95
:10198400938c80218b4393841023d1680b42fcd029
:10199400254b1b689b0e3f2b31d09b02802292006b
:1019a4001343184a93621a4b8622d2015a80154a6d
:1019b4001023d1680b42fcd0124b1c4ada621a0085
:1019c4001023d1680b42fcd00e4b06229a841a00d5
:1019d4004023d1680b42fcd00d4b154a5a601a00c3
:1019e40053785bb2002bfbdb094b124a5a80124a34
:1019f4005a80124a5a80124b124a1a627047203b8c
:101a0400cbe7c046000800400000ffcf2060800004
:101a1400000c004003060100037d000001060100e4
:101a240002030100021f000024608000dc050a2874
:101a3400000701000442000017400000224100009a
:081a440000040040200009002d
:020000040000fa
:101a4c00f7b580213d4a3e4c1369c90023400b4336
:101a5c00136153692340194351610b24002840d072
:101a6c000368198800231f0001939ab291423ad857
:101a7c000224002f35d0019b00201b043b439c46c5
:101a8c0001210f2410256346c3400b4211d02d4b6e
:101a9c00c35c1f2b35d82c4e5a08921916780b4262
:101aac002cd026402e431670284a9b181a780a43cd
:101abc001a7001302028e6d10024254d01f0f4f8ed
:101acc00244b2c701e7aa6422bd101f0edf86b46fc
:101adc009b883400eb8201f0e7f801231d4aaf82aa
:101aec0013722000febd4468da00a2181488019d10
:101afc0001332543019552881743b6e7a6430e439d
:101b0c00d1e7203b144edbb25a08921916780b42df
:101b1c0004d026402e431670104ac6e7a6430e4347
:101b2c00f9e701f0c1f8eb8a019a1a43ea8201f055
:101b3c00bbf8ab8a3b43ab82d3e7c04600440042c0
:101b4c00fff8ffffba280000304400414044004138
:101b5c00004c004260010020b0440041c0440041f0
:020000040000fa
:101b6c00f7b5070001910b2400290ed000280cd0ea
:101b7c002c4d03242b7a002b07d00124042b04d0ea
:101b8c00294e737b5bb2002b03da2000febd2c7256
:101b9c00fbe7022403685b79013ba342f5d801f013
:101bac0083f83378a3433370204b1f60019beb60a9
:101bbc0000f0c4fa80221e4bd204da67bff34f8fb9
:101bcc00bff36f8f0723b37201f06ef80122737aa3
:101bdc00802113437372174bc9041a70c023164a21
:101bec005b00d150c622ff20134b920099583b68e2
:101bfc0000045b799b050340104801400b430e49e0
:101c0c008b508022d2040a6000232b8000f064fdec
:101c1c00061ebcd1042328882b723400fff7c4faab
:101c2c00b3e7c04660010020004c004204000020d5
:101c3c0004e100e08202002000e100e0ffff00ff71
:020000040000fa
:101c4c001400001400001301001202001103001014
:101c5c0004000f05000e06000d07000c08000b0910
:101c6c00000a0a00090b00080c00070d00060e0004
:101c7c00050f0004100003110002120001130000f4
:101c8c0014000014000013010012020011030010d4
:101c9c0004000f05000e06000d07000c08000b09d0
:101cac00000a0a00090b00080c00070d00060e00c4
:101cbc00050f0004100003110002120001130000b4
:101ccc001400001401001302001203001104001090
:101cdc0005000f06000e07000d08000c09000b0a8a
:101cec00000a0b00090c00080d00070e00060f007f
:101cfc00051000041100031200021300011300016f
:020000040000fa
:101d0c0010b5244b1b78012b06d0234b1b78012bd1
:101d1c000cd0fff72bfb10bd20492148fff720ff0b
:101d2c000028f2d11b4b00221a70eee71a4b00224e
:101d3c001a70fef7cdff00281ad11a48fff734f9b4
:101d4c0000280dd11848fef7bdf900280cd1174812
:101d5c00fef7fefb00280ed0154b04221a700ae089
:101d6c00134b02221a70ede7114b03221a70eee7a7
:101d7c000f4b01221a7000f033ff0b4b1b681b78c2
:101d8c007f2b03d80b4b01221a70c2e7014b0122a7
:101d9c001a70bee7ee010020ef010020292d000093
:101dac006c0200209c0200201c0200204c0200202f
:081dbc00ed010020df01002011
:020000040000fa
:101dc400f8b500f075ff02221f4c2378934323706b
:101dd40000f058fea08ba18b1c4c1d4a238812686e
:101de4005b00d1521b4b80b21b78012b02d0022b1b
:101df40010d0f8bd23880133238000f071fc002843
:101e040005d12088fff7d4f904232372f1e7e368ae
:101e14009847eee70f22104b25881e68e900736887
:101e2400002759184b791a408b799a4201d29b1a90
:101e3400dfb20621f8406943b3685b185880022377
:101e440023722369e4e7c046004c0042600100208d
:0c1e540008000020820200200400002092
:020000040000fa
:101e6000f0b506241e4b44431a68002093681c19e1
:101e700063888b422cd02cd2c91a126889b293780d
:101e8000402b00d149080120842921d800200529b0
:101e90001ed9cf250f261527a3881c009804800f74
:101ea00068431d1235407d431b11334040195b00d0
:101eb000c018344080b2052c0dd8d378094a9b064f
:101ec0009b0f5b009b5a594389b288428041404234
:101ed000f0bd591ad1e70130053c80b2e4b2eae71f
:081ee00004000020da280000d4
:020000040000fa
:101ee800f8b51e4b1b7d002b37d01c4a93685168f0
:101ef8001b4a127ed2071dd599421bd918490726bd
:101f0800164a944617001500012409e03a68d25c85
:101f18000a85013368680a7e22420bd0984209d9a3
:101f28004a683240012af1d1624612685800825a42
:101f38000a85eee7094a936052689a420dd8074b22
:101f480000221a755a60064a01211175db68002bb8
:101f580003d0024b1869db689847f8bdd40000200d
:041f6800001400421f
:020000040000fa
:101f6c0070b5184b01221a80174a184c81000b18b7
:101f7c005b001b5d13700b185b00e3189d785570ac
:101f8c00dd7895701d79d5705d7915719b795371dc
:101f9c000918490061180b89d380002806d00c4b16
:101fac00094a1a600b4b08221a8070bd0a4b5978eb
:101fbc000822043000f028fc08220349022000f01b
:101fcc00fdfaf2e79e010020b801002090020020eb
:0c1fdc00e0010020aa010020d00100203c
:020000040000fa
:101fe800f7b50c25c3684d439c46032382684b43d1
:101ff80055196c6863442d8964889f781b78641b25
:10200800e41aa3b201930025436860461e88b542ce
:1020180001d10020febd8d4218d08378bb4215d176
:1020280013787b33dbb2012b15d913899c4653688f
:102038005b889c450ad264461b1b04789bb2a3426a
:1020480004d91b1b019c9bb29c4204d30135adb241
:0a20580003300c32dbe70120dce767
:020000040000fa
:02206200fee797
:020000040000fa
:1020640070b5002830d0194b1a7d0023002a29d1dd
:10207400164b1860596001321a755c68144b1b7e4c
:10208400db0716d5002c17d000231149072601259c
:1020940007e0c25c0a8501330a7e2a420bd09c42c7
:1020a4000ad04a683240012af3d15a00825a0a857a
:1020b400f1e7002400e01c00044b9c60044b012267
:1020c4009a750123180070bd0023fbe7d40000209b
:0420d40000140042b2
:020000040000fa
:1020d80010b5194a2c23d35c002b18d01300d269f1
:1020e8001b6a934213d2144b986a14490a8d92b210
:1020f8001b6a4c6807212140012909d00e498969ca
:10210800ca5401330c4a1362d2699a4205d010bdf1
:10211800094989695c006252f3e7074b00222c21c8
:102128005a54da61054a583111755b6a002beed0b2
:10213800014b5b6a9847eae7d4000020001400428c
:020000040000fa
:10214800f8b5154b1b681b689a78402a1fd1134aab
:102158000425127815431a790f2313400f2a00d942
:10216800102360241c4300f0a1fd042300260c4f1b
:10217800e4b23b7000f09afd3e7100f097fd3c73ad
:1021880000f094fd3000074bedb2dd77f8bd02207a
:10219800802afbd1044adbe704000020b8280000ad
:0c21a800004c0042014c0042b92800002d
:020000040000fa
:1021b40070b500f065fb1348fff746fc124800f0c9
:1021c4004ffd00240f4d2100280000f07dfc21006c
:1021d400280000f087f90134a4b2052cf3d10b4d8b
:1021e40000240b4ee1b22a00300000f07dfc0134e3
:1021f400a4b20635052cf5d1064800f02bfa00f000
:1022040007fc70bd6c020020a00100202401002006
:082214001c0200204c02002016
:020000040000fa
:10221c0010b5114b05221a80104ac100104b5b18e7
:10222c0019791171597951719b799371002806d0e4
:10223c000c4b0a4a1a600c4b07221a8010bd0b4b30
:10224c0059782322043000f0dffa072203490220d8
:10225c0000f0b4f9f2e7c0469e010020c80100204e
:10226c00f4010020e0010020aa010020d001002090
:020000040000fa
:10227c0070b5012819d004281bd0104b01221a80ec
:10228c000f4b5e7800f0d4fb040042000d4bd55a86
:10229c002a003100042000f0b7faa4000a4be158e0
:1022ac002a00022000f08af902e00800fff7b0ffd4
:1022bc0070bd0800fff754fefae7c0469e010020ef
:0c22cc00d00100201c2d0000ac2b0000f5
:020000040000fa
:1022d800013210b5d2b2002906d1134b180010bd37
:1022e800013a4000d2b280b203b2002b01db002acf
:1022f800f6d10bb2002b11da0023002aeed01cb263
:10230800002ceadb5b00013a9bb2d2b2884203d3cd
:10231800401a013380b29bb24908eee70132490006
:0c232800d2b289b2e5e7c046ffff00001a
:020000040000fa
:1023340000230e4a10b513600d4a13600d4a136052
:102344000d4a13600d4a13600d4a53621361013341
:10235400936000f006fd00f004fd0a4c0a4b9c4219
:1023640000d310bd08cc9847f8e7c046e801002028
:1023740018000020140000200c0000201000002091
:0c2384001c000020bc000000c000000095
:020000040000fa
:10239000bff35f8f62b6124bc02080001a58120242
:1023a000120ac02109060a431a5008221a60c321e2
:1023b00089005a58ff2082433f3802435a508022f6
:1023c00052011a60c62080001a5806491140c022e6
:1023d00012040a431a508022d2041a607047c04681
:0823e00000e100e0ffff00ff37
:020000040000fa
:1023e800114b124a1a60124a9a81c02292025a600c
:1023f8001a00d369002bfcd10b4a136802210b4346
:102408001360d369002bfcd10a4b00229a61da6170
:102418001a622c215a545a621a605a609a601a75c4
:10242800da60da857047c0460014004204011040a3
:082438002bf6ffffd400002089
:020000040000fa
:10244000124b802292021a60a02292021a6100228c
:1024500051215a54503956201954013019543731ea
:102460005a5403313538585409495e3019501030e8
:102470001950cc215a5401315a5401315a54013166
:102480005a5419395a5401315a5470470044004182
:0424900000f0004018
:020000040000fa
:1024940010b5134b9b7d002b1ad0114a137edbb26f
:1024a400927d52b2002a14db0d4a137edbb2927d78
:1024b400d20703d5db0701d5fff714fd084a137ec5
:1024c400dbb2927d520703d55b0701d5fff702fe0d
:1024d40010bd5bb2002be7da00f040f9e4e7c04638
:0424e400001400429e
:020000040000fa
:1024e800030010b50b20002b16d01a6802201488a0
:1024f8008c4211d392789b68402a0ed106228d20f7
:102508004a4380009a1890800020062251430222f4
:102518005b1819780a431a7010bd803ad2b2012aa2
:10252800f3d806224a4301489a18ece767050000e9
:020000040000fa
:1025380010b5064c2378002b07d1054b002b02d091
:10254800044800e000bf0123237010bd44010020af
:102558000000000000000000044b10b5002b03d061
:102568000349044800e000bf10bdc0460000000059
:082578004801002000000000f2
:020000040000fa
:1025800070b50e4943001a1852008a1855880c4a33
:1025900015800c4e1c18a4003419248954802d1b5e
:1025a00095801c18a400a45de40994711b185b00bd
:1025b000cb181979d1715b79137270bd2401002099
:0825c000ac010020980000208e
:020000040000fa
:1025c80010b50b4b1b78002b00d010bd094b1870b1
:1025d8000123074803700848037008480370084b34
:1025e8001960084b1a80087800f006fbede7c04632
:1025f800b7010020d6010020dd010020de01002007
:08260800e0010020aa010020fe
:020000040000fa
:1026100010b50a4b98470a4b984700f017f9094b39
:10262000ff229343084a9360084b9847084b98470a
:10263000084b9847fef76cfffee7c046b311000059
:10264000b31100000000000000ed00e035230000a1
:08265000b3110000b3110000fa
:020000040000fa
:1026580030b584680b23002c10d0c16800290dd038
:102668000022036806311a704068631c05790a2045
:10267800684301302418a34202d10023180030bd5a
:102688001a7008780a315870d81c0280581d0280c8
:08269800d81d02800a33eee7b1
:020000040000fa
:1026a00070b504000d00002815d00c4a2c23d35c13
:1026b0000020002b00d070bd00f02cf9074b9c616e
:1026c000dd6100221a622c2101205854da85044b66
:1026d00084329a75efe70020ede7c046d400002071
:0426e00000140042a0
:020000040000fa
:1026e4000d4a70b51068012502680c491488062249
:1026f4000b885a43a3420ad28668b65c06322e423d
:1027040002d101339bb2f5e700200b8070bd00239a
:1027140001200b80fae7c04604000020600100207d
:020000040000fa
:102724000d4b01221a801a00937a5bb2002bfbdb5b
:10273400094b80221a801a00937a5bb2002bfbdbd0
:10274400054b01229a611a00937a5bb2002bfbdbe2
:0c275400014b0122da71704700140040b4
:020000040000fa
:1027600010b50c4b5b8b0722134000d110bd0a4cf7
:10277000e38500f0cff8074b84221a752c23002242
:10278000e254636a002bf1d0034b986a5b6a984766
:0c279000ece7c04600140042d40000201a
:020000040000fa
:10279c0030b50c4c0c4a8300191849008d5c012192
:1027ac00294021701918490051180d7a6570497a21
:1027bc00a1701b185b00d3189a79e270db79237136
:0c27cc0030bdc046d80100209401002060
:020000040000fa
:1027d80010b50b4a1378dbb20a4908780a49c8547d
:1027e80013780133dbb2137013783c2b04d001212a
:1027f8000448fff751ff10bd130000221a70f6e7d6
:0c28080087010020b50100205c000020ca
:020000040000fa
:10281400f8b507000e0014000a4d00232b70552054
:1028240000f08ef9380000f08bf9300000f088f9e0
:10283400e0b200f085f9200a00f082f901232b7040
:08284400f8bdc0466b02002044
:020000040000fa
:10284c0010b50b480168002905d14368002b02d153
:10285c0000f082fa10bd04008368064a9bb20c3467
:10286c009b009b5842682000984780002018e9e79d
:08287c006c090000782c00003b
:020000040000fa
:1028840010b50021094800f029fa094a937a5bb28d
:10289400002bfbdb00f07cf9002000f091f9142000
:1028a40000f098f900f068f910bdc046512d000001
:0428b40000140040cc
:020000040000fa
:1028b80080a00203040506072021222324252627b9
:1028c800282908090a0b10111213141516172c2d94
:1028d8002e2f07001300350090003f1c0b05030145
:020000040000fa
:1028e80010b508490b7adbb2074a1371c1230b7282
:1028f8001368002b04d01079c0b291681368984708
:0c29080010bdc0460014004088010020f3
:020000040000fa
:10291400094b5b8b5b070dd0074b80221a76793a03
:102924005a831b7e5b0705d5034b04211a8d1a7e3f
:0c2934000a42fbd17047c046001400426c
:020000040000fa
:10294000084a1378dbb20849c85c13780133dbb25c
:10295000137013783c2b00d07047130000221a70bc
:0c296000fae7c046860100205c00002061
:020000040000fa
:10296c0010b5040001000648fff7b8fd620012190b
:10297c005200044b9a18e1b2034800f0b1f810bdb4
:0c298c006c020020240100201c0200202e
:020000040000fa
:1029980010b5094b06225a60fff74efdfef7b6ff49
:1029a800fff71efd00f092f9fff7b8fefff7fefbf8
:0c29b800fff7eafc10bdc04600400041e3
:020000040000fa
:1029c40030b5074983001a1852008a18054c257936
:1029d4005571657995711300e2881a8130bdc0463e
:0829e40090020020b801002060
:020000040000fa
:1029ec0010b5c200064b9b18064a11791971517922
:1029fc00597192799a7180b2fff7b2ff10bdc0463f
:082a0c00f4010020c8010020c4
:020000040000fa
:102a140010b50021054800f067f90021044800f0d2
:102a240069f901210348fff739fe10bdc9170000f9
:082a3400d9270000b5010020c4
:020000040000fa
:102a3c0000280ed001280ad0022808d0032806d07e
:102a4c00042804d00023052801d018007047030087
:062a5c00fbe70300f9e7af
:020000040000fa
:022a6200fee78d
:020000040000fa
:102a6400064b1b78064a10781b1a9bb218b2002832
:102a740001dbc0b270473c3318b2fae7870100208b
:042a840086010020a7
:020000040000fa
:102a88000222074b997ac9b2114202d0987a0243be
:102a98009a720122114202d0997a0a439a727047b7
:042aa800004c00429c
:020000040000fa
:102aac00054b064a917819709268117859705178d3
:102abc0099709278da707047740100202c02002013
:020000040000fa
:102acc000b2300280ad003681a8802238a4205d3f4
:102adc0006235943012382688b5400231800704746
:020000040000fa
:102aec000b23002809d0002a07d00c234b43816804
:0e2afc00c91801230b7000234a6018007047b0
:020000040000fa
:102b0a00002310b5934206d103201840421e90417b
:0e2b1a009b08c01810bdc45ccc540133f2e718
:020000040000fa
:102b280070b505000e1e08d00024fff705ff2870b9
:0c2b380001350134a4b2a642f7d170bdf3
:020000040000fa
:102b440010b5054b01221a7000f058f8024a1378a8
:0c2b5400012bfcd010bdc046b7010020d2
:020000040000fa
:102b6000802808d0812804d0823843425841400050
:0a2b700070470120fce70020fae79f
:020000040000fa
:022b7a00fee774
:020000040000fa
:102b7c00044a138802210b431380937a5bb2002b17
:082b8c00fbdb70470014004060
:020000040000fa
:102b9400044a138802218b431380937a5bb2002b7f
:082ba400fbdb70470014004048
:020000040000fa
:102bac0078020020f40100205c0200208602002044
:082bbc00900200203802002005
:020000040000fa
:102bc400034b18611a00937a5bb2002bfbdb70474e
:042bd40000140040a9
:020000040000fa
:102bd800034b98611a00937a5bb2002bfbdb7047ba
:042be8000014004095
:020000040000fa
:102bec00034a1388802109020b4313807047c046a7
:042bfc004201002072
:020000040000fa
:102c000010b5034b187001211800fff72bfa10bd07
:042c1000b6010020e9
:020000040000fa
:102c140010b5034b01221a70142000f051f810bdb6
:042c2400ee0100209d
:020000040000fa
:102c2800034b9a6843001b189b00d05c7047c04652
:042c38001c0200205a
:020000040000fa
:102c3c00034b9a6883001b185b00d05c7047c0463e
:042c4c004c02002016
:020000040000fa
:102c5000034b9a6883001b185b00d318d888704711
:042c60004c02002002
:020000040000fa
:102c64000b23002802d0024b186000231800704781
:042c74000800002034
:020000040000fa
:102c7800a12c00000b2b0000612d0000612d00002d
:042c8800612d0000ba
:020000040000fa
:102c8c0003b47146490840004900095a49008e4472
:042c9c0003bc7047be
:020000040000fa
:102ca0008a18914201d10020704700230b70013136
:022cb000f7e744
:020000040000fa
:022cb200001010
:020000040000fa
:102cb400024a53781b06fcd47047c046004c0042bd
:020000040000fa
:102cc400024b1a88801818807047c04622010020e1
:020000040000fa
:0c2cd400014b88225a607047004000410c
:020000040000fa
:0c2ce000014b18609960704788010020cb
:020000040000fa
:0c2cec00014bd86019617047d400002033
:020000040000fa
:0c2cf800014b586299627047d400002024
:020000040000fa
:0c2d0400ac010020d80100207401002068
:020000040000fa
:0c2d1000812500009d270000ad2a000076
:020000040000fa
:0c2d1c000a0023000f000800080003005c
:020000040000fa
:0c2d2800014b01221a707047ef010020df
:020000040000fa
:0c2d340010b5fff7a7fefff743f810bd35
:020000040000fa
:082d4000090005001100c04666
:020000040000fa
:082d48002d0005001100c0463a
:020000040000fa
:082d500010b5fff75fff10bd95
:020000040000fa
:042d580080818200f4
:020000040000fa
:042d5c00050101006c
:020000040000fa
:042d60000020704798
:020000040000fa
:022d64007047b6
:020000040000fa
:022d66007047b4
:020000040000fa
:0200000400807a
:0440000077c700d8a6
:020000040000fa
:0200000400807a
:044004005c00ffff5e
:00000001FF
