:020000040000fa
:10000000f03f00205f270000eb230000f7250000f1
:1000100000000000000000000000000000000000e0
:100020000000000000000000000000003b20000075
:1000300000000000000000003b2000003b2000000a
:100040003b2000003b200000f92a00003b2000007c
:100050003b2000003b2000003b2000003b20000034
:100060003b2000003b2000003b2000003b20000024
:100070003b2000003b2000003b2000003b20000014
:100080003b2000003b2000003b2000003b20000004
:100090003b2000003b200000d5240000d5240000b8
:1000a000d5240000d52400003b2000003b200000a8
:1000b0003b2000003b2000003b2000003b200000d4
:1000c0003b2000003b2000003b2000003b200000c4
:1000d0003b2000003b2000003b2000003b200000b4
:1000e0003b2000003b200000393000003b20000096
:0400f0003b200000b1
:020000040000fa
:1000f400f8b5c046f8bc08bc9e467047292a0000e3
:10010400f8b5c046f8bc08bc9e467047052a0000f6
:020000040000fa
:10011400f0b587b00090009b0b20002b00d1e2e1ea
:10012400002603275b68049602931b8801960593b7
:100134000396049b059a93421ed1009b1a68137878
:1001440059b200290bda0820002101268446049cb8
:1001540088b2844200d9ffe07f210b401370039bd7
:10016400002b00d009e1019801231178002800d167
:100174005be10b4313705ae1009bb5009b685d196a
:100184001e236a681178194001d001232b702b7843
:10019400042b73d00ad8022b2ed043d8012b23d0a2
:1001a400049b033601339bb20493c2e7852b00d131
:1001b40082e0862b00d1a9e0072bf1d1298953884d
:1001c40099425fd9c91a009b0298db6840799b5d0c
:1001d40089b20341dbb28b4254d86b78002b69d1ce
:1001e40001232b701770dbe703930029d8d1022376
:1001f4002b7008236b70d3e76978002910d05288dc
:10020400042904d92a810139697001237ce02b89ee
:100214009342f8d002d9013b2b81f4e70133fbe789
:100224002f70bde7298953889942b9d0009ad268c2
:1002340010d9cb1a0299925d49799bb20a41d2b284
:100244009a42add8029b1b79002ba9d007222a70b1
:100254006b70dae792195b1a11789bb299429fd8b6
:100264009378002b05d00499009802f043f80028f5
:1002740096d104232b70029b9b78e9e72989538844
:10028400994202d92f700023b4e7009a5b1ad2680e
:100294009bb2921911789942f4d29378002b06d02c
:1002a4000499009802f026f8002800d078e76b78cb
:1002b400002b47d0013bcbe7029b00991b7a0968ce
:1002c4000b7128895388984207d986232b70029b87
:1002d4009b786b700123019316e0009a1b1ad26875
:1002e4009bb291190a784978140001310c4101211b
:1002f400121bd2b201919a4200d251e786232b708d
:10030400029b9b786b700b00039349e72889538801
:10031400984209d96b78002b01d12f7001e0013b81
:100324006b70012301933be7009a1b1ad2689bb2be
:1003340091190a784978140001310c41121bd2b288
:100344009a4204d285232b70029bdb78e8e76b7812
:10035400002be2d0013bbce70c2500984d4380689c
:1003640045196f683878304205d164462d78a54325
:1003740001d0304338700131e9e6029b597a0029f3
:1003840000d1f0e6802310785b4203431370012907
:1003940000d0e8e600218bb20393049b88b2834229
:1003a40000d8e0e60c20009b48439b6808251818f9
:1003b400029303781c00ac4315d0852b01d0032b8a
:1003c4002ed10325009bdf682b004b43fb189b7841
:1003d4009c46002b07d000231e000595049c9c42dc
:1003e40008d8002e1cd1012540680378ab43037064
:1003f4000131d0e7039c9c420fd00c255d43029c45
:100404002d5d042d01d0862d07d1059d5d437d19f9
:10041400ad78654501d10126049b01339bb2dde72c
:100424000123406805782b43e1e799431170528812
:10043400584b11001b88c8318b4251d99b1a9bb26f
:100444009c466346c82b4dd96346c83b9bb29c4629
:10045400009b1b685a88c8325a801a79002a00d037
:1004640070e05a79002a01d0013a5a719a79002a27
:1004740001d0013a9a71009a50688679002e07d00b
:100484005a79002a04d1078891b28f4234d85e7118
:10049400c579002d07d09a79002a04d1068891b233
:1004a400b1423cd39d71009b5b68da78002ac8d0c6
:1004b4001f880c23002103207b4302938bb2bb4291
:1004c400bfd20c22009b4a439b689a181578852d4d
:1004d40004d15578002d38d0013d55700131ede738
:1004e400934202d3002007b0f0bd2b495918891a52
:1004f400c829f7d9013ba1e70c21009c5143a4680a
:1005040061180d78032d01d0082d06d14c680d8992
:100514006488ac4201d901350d810132b4e70c2164
:1005240000985143806841180878032801d00828ae
:1005340006d14c6808896788874201d2013808814e
:100544000132ace7013a1a71ade7012405001470d9
:1005540052684d431070009ad2685519ad78002d39
:10056400bcd0029c02321c1901920394039a934258
:10057400b4d0019a1678ae4206d101225e6834786e
:10058400144201d01a703070019a0c330332019274
:0c059400ece7c046aa010020ffff0000b9
:020000040000fa
:1005a0000b23f0b587688fb007900493002f1bd002
:1005b000c268002a18d0436819680191019900297e
:1005c00012d002921a790a235343fb180d93002389
:1005d000049308930d9bbb4209d16a462021079bd7
:1005e00052181b6812781a7004980fb0f0bd029b65
:1005f0000c205b889c46029b62461b7903936344f4
:1006000005936b469b890993634499b20023059c2b
:10061000a2422edb002562462e000599914233dc72
:100620006a4213400122397811400b916cd039890c
:100630004a005218921992b292083a81002d65d15f
:10064000029a1578012d00d9a0e152790a92cf2a99
:1006500000d99be1002b5bd13b817e223b70934311
:10066000089a0a371343dbb20893029b0a330293ba
:10067000b0e704005443019d645d852c01d10a005c
:100680000123013292b2c2e70c20504301990918ac
:100690004c6809896488641aa4b221b20a910021c5
:1006a00006910a99002900dd0694624524d1029939
:1006b0000024087801280fd103998c180c214c4391
:1006c00001990c3c0c19616824894888001b00249e
:1006d00000b2a04200dd84b206990298091900898f
:1006e00089b2884205d8301c8e4200d2081c0125f0
:1006f00086b2013292b290e701990c38081841682d
:1007000000894c88201ae2e73e8199e72b0097e7a1
:1007100000220a9b16001b090c930c2063460599c6
:10072000994200dde1e0b44500d0f0e0012d00d0b9
:10073000f7e00b00434301990c3bcb1859681b8928
:100740004988c91a634601335843019b09b21818f6
:10075000436800895b881b1a1bb2181c002b00da47
:100760000020012300b20693884206db0b1c0029ff
:1007700000da002319b200230693059b0c20013bed
:100780009e4200d0d1e00023012d0dd16346584395
:10079000019b181843685c880389e41a24b2231c5f
:1007a000002c00da00231bb203980f2800d9c4e004
:1007b00000200c2405900698012800d0c1e0039e7b
:1007c000a64089b29bb2b6b292b2994200d2bbe0c7
:1007d000d21a90b2c31ac91889b2220001f00cffd4
:1007e0000123a340c01a80b2039b301880b2022bb1
:1007f00006d9012d00d0b0e0059a099901f0fcfe60
:100800008022031c5201904201d9684b1b8898b288
:10081000002d13d10f230a9a1a400fd028215143db
:100820002b00814201d8401a83b280224900520134
:10083000511a89b20c22180001f0defe0c230c9a2a
:100840009b1a18410123934099b2013b984200d969
:1008500088e00b9b80b20400002b22d0bc88031bd5
:100860009bb21ab2012d09d14d08002a00db7be0b2
:100870006d42954200dc94e0cb181ab2022693b286
:100880005d1cb543adb2002d0bd05b08002a04da25
:1008900053429bb25b085b421bb2e418a4b201391d
:1008a0000c40029bfe880299b8809d79587909789e
:1008b000a31b9bb21ab201290ad10009814089b257
:1008c0004808002a55da4042904203ddc9180ab2ae
:1008d000002a5fda5242bb7812b29a424edc002301
:1008e0007f2252421343dbb2b7e604005c43019916
:1008f0000c19616824894988091b09b2002903dda4
:10090000914201dd0a001e0001339bb207e77043ec
:10091000019b0c381818436859880389c91a09b211
:1009200024e700230693190027e7731c434301982b
:10093000c31858681b8944882fe7042008240590b1
:1009400039e76046361a3be75b1a98b2511a4118ec
:1009500089b2220001f050fe46e70999059a013953
:1009600089b24be7481e74e7aa4287dd5a1a12b2d1
:1009700084e782420edd5a1a12b2a9e700237d7085
:10098000bb70b442abd0fc800223a9e702230493de
:10099000002362e67b789a42a1dd0023bd707b7064
:1009a000efe7531c00d073e77be7c0467a290000cd
:020000040000fa
:1009b0004c0100201c000000000000007c01002011
:1009c0000c00000000000000fc00002030000000cf
:1009d00000000000e401002003000000000000000f
:1009e000790100200100000000000000a9010020a2
:1009f00001000000000000002c0100201e0000008b
:100a000000000000ac010020080000000000000011
:100a1000e00100200100000000000000d1010020e2
:100a20000100000000000000940100200a00000006
:100a300000000000d20100200100000000000000c2
:100a4000c4020020030000000100000000010200b9
:100a5000bc020020060000000100000005008130fb
:100a600000020000f00100203c0000000100000036
:100a700004c00300080000000a0000040cc00100cc
:100a8000000002000a0000040cc002000000010087
:100a90000a0000040c400300008000000a0000046b
:100aa0000c800300004000000a0000047c020020cb
:100ab0000c00000001000000bc020020f00100203a
:100ac000000000206c0200200f0000000100000068
:100ad0005001003c01005001015001015001010092
:100ae000880200200a000000010000000500040048
:100af00005001405140100002c0200202000000055
:100b000001000000ac010020880200202c00002021
:100b10006c02002005000300c0020020c402002077
:100b2000010f0600ac0200200800000001000000d8
:100b30004c0200203c0200204c020020100000006b
:100b400001000000000000002c0100200000002037
:100b5000e4010020940200200a00000001000000cf
:100b600000000200038a0800140000005c0200205c
:100b70001000000001000000e0010020b40200208d
:100b80002000002094020020b40200200800000091
:100b9000010000002c0000200100000000000020e7
:100ba0006800000000000000b40100200800000000
:100bb00000000000d3010020010000000000000040
:100bc0004a0100200200000000000000e1010020b6
:100bd00003000000000000009e0100200200000051
:100be00000000000e70100200200000000000000fb
:100bf000c00000203c00000000000000a001002018
:100c00000900000000000000680100201100000041
:100c100000000000cc0100200500000000000000e2
:100c2000e90100200100000000000000bc010020dc
:100c30000800000000000000ea01002001000000a0
:100c400000000000ca0100200200000000000000b7
:100c5000d40100200400000000000000c4010020b6
:100c60000600000000000000eb010020030000006f
:100c700000000000a00200200a00000001000000a7
:100c8000023600051f000007000000007b02002064
:100c9000010000000100000001000000ee01002042
:100ca00001000000000000007a01002002000000a6
:100cb00000000000ef010020010000000000000023
:100cc000920200200100000001000000010000006d
:100cd000880100200c0000000000000068000020d7
:100ce0000800000000000000aa010020020000002f
:100cf00000000000d80100200400000000000000f7
:100d0000700000205000000000000000dc01002006
:100d100004000000000000000000000000000000cf
:020000040000fa
:100d20000322f0b5ab4b89b09b780392002b14d013
:100d3000a94b1b6804931b6805931b880693a74b5c
:100d40001b6807930023029303936b461a89069b43
:100d50009a4205d302229f4b9a70039809b0f0bdc6
:100d6000029b07995b00cc5a062302994b430499d6
:100d70008968cd180c2302992e784b430499f60606
:100d80004968760fcb180193db7a042e00d96ae10b
:100d9000300002f009f9050013004a012b01dd00c3
:100da0000f21019a927a0a40934201d99e1af6b213
:100db00034416c80029b01330293c6e71c41884a90
:100dc000a3b26b80af88934217d9864a9b18320032
:100dd0009bb205995b088978402913d0002a13d06b
:100de000814a0026974211d181232b700e23039351
:100df0002b785a0625d5012330e0794ad31a9bb2c5
:100e00000022e6e7002aebd0002fedd0092befd926
:100e10000f24b9043a123811890f2240204027408c
:100e2000002e3ad0cf2b01d9002966d1152b6ed9cf
:100e3000002a67d1002291426bd00139c9b20a223f
:100e400067e05bb2002b0adb0322059bdb781340d3
:100e5000934208d1ff23019a137211232b70bf0410
:100e6000bf0caf80a6e7022b07d10f22019b5b7a54
:100e70009343019a53720923f0e7012bbbd10f2250
:100e8000019b5b7a1a4050231343019a53720d233e
:100e9000e4e70131cf3bc9b29bb2cf2b01d9032983
:100ea000f7d1152b0dd90f2a06d10f2203290ad00d
:100eb0000131c9b2052206e00132153bd2b29bb224
:100ec000efe70f2af1d0022b11d90f280ad10f2af0
:100ed00000d1c9e00132d2b2052003290bd0022b88
:100ee000dbd826e00130023bc0b29bb2ebe70f2813
:100ef000edd003291dd10321f1e70139cf3bc9b260
:100f00009bb28fe7013a153bd2b29bb28ee7002a23
:100f100090d0022b0bd9002804d1002a11d1170040
:100f2000100006e00138023bc0b29bb2f1e7002896
:100f3000f3d009038cb21202144327430001074384
:100f40008fe7013ad2b20a20022b00d96ae7f0e714
:100f50001c41019ba4b21f7a01200023ff2f14d152
:100f60007f23019a6c8013722b78012b00d021e72c
:100f7000ff33ff339c4273d91a4be418a4b20a2cf6
:100f800000d817e745232b7014e73900d940002615
:100f9000014201d11e0008230133dbb2072bf4d933
:100fa0002100100001f022f9002804d00123b340f1
:100fb0001f43019b1f720123002e08d0013ef6b291
:100fc000b340019a127a9a43019b1a72cce72b70b4
:100fd000cae7c04688010020680000206c0000209d
:100fe000ff01000001feffffff3f00001c41019bcd
:100ff000a4b25f7a3e09052e15d02100100001f041
:10100000f5f800280ad1013601232b700f23360191
:101010001f40019b3e435e726c80a5e7002ef3d01b
:10102000013ef6b2f2e70426f0e71c410f26019bd1
:10103000a4b25f7a3e4011d02100100001f0d6f832
:10104000002806d1013ef6b201232b700f239f43e7
:10105000dfe7032ef8d00136f6b2f7e70126f5e711
:10106000044b1c1b8ae7fee7032900d157e7100059
:0810700035e7c046ff01000056
:020000040000fa
:1010780010b540f2c413c2f200031b79022b2cd026
:10108800032b00d17ce0abb140f2c413c2f20003e1
:1010980000221a7140f2eb13c2f200031b7843b925
:1010a80040f24a13c2f200031b881bb2002b00da7d
:1010b800a0e010bd01f023fe0528ebd901f0a1fd49
:1010c8005528e7d140f2c414c2f2000404212000dc
:1010d80001f0ebfe02232371dce740f2c413c2f2f5
:1010e80000031b78022b20d0012bd3d101f007fe7f
:1010f8000128cfd901f085fd040001f082fd002c04
:10110800c8d1aa28c6d140f24a11c2f200010b8800
:1011180040f2c412c2f200025478a938a040034336
:101128009bb20b8003231371b4e740f2c413c2f2dd
:10113800000359883b2907d940f2c413c2f20003bf
:10114800587800f076fba5e701f0d9fd40f2c4130a
:10115800c2f200035b8880b283429bd240f24a11fc
:10116800c2f200010b8840f2c412c2f200025478a5
:101178000120a04003439bb20b800323137189e72e
:1011880040f2eb13c2f200031b78002b00d081e77a
:1011980040f24a13c2f200031b881b0500d179e70d
:1011a80040f2c413c2f200031b78012b17d0022ba4
:1011b80000d06fe740f2c414c2f20004618860787e
:1011c80000f037fb0023237140f24a13c2f20003f8
:1011d8001a886078012181408a431a805ae740f2d0
:1011e800c414c2f200046078002101f0a1f90023c0
:1011f80023714fe740f2e314c2f20004237843f26c
:101208008c02c0f20002d15c40f2e212c2f200028b
:1012180011701178c9b243f28402c0f200025b0077
:101228009a5a032001f09cfc43f25003c0f20003d9
:1012380022789200d35800209847237840f29e12d3
:10124800c2f2000243f29001c0f20001c95c1180b1
:1012580043f27c02c0f2000259008a5a43f2440168
:10126800c0f200019b005958012001f049fa237887
:101278000133dbb2032b01d023701ae740f2e313ea
:0a128800c2f2000300221a7013e7ff
:020000040000fa
:10129200f0b502008db00b20002a6ad055681168a3
:1012a200ab7801934b7802932b7b002b3ed000242a
:1012b20020002b889c46019b5b000393029b5e00ef
:1012c2006746a3b29f4256d86b7b984200d87be018
:1012d200cb6802995b18197801311970116853684b
:1012e2004878c968085c997b88421fd169469d6825
:1012f200029b0989e81803780391002b53d0013b24
:10130200dbb26e466f46b68800213e823e8a0124d9
:10131200b44667468eb2b74247d8002cedd0037070
:101322000023180051688978994247d8029b694680
:101332005b000a93019b56685b08013306936b4678
:101342009b888b818b890b9300239c460393338864
:1013520003998b4244d8029b01990133dbb28b4241
:101362008941b0680b40c05c716808700020126847
:1013720053700db0f0bd062363438f68fb185f887e
:101382004b689b5b9f420ad9fb1a9bb21f1c83428c
:1013920000d2071cb8b2039b0134f61890e79f42b3
:1013a200f9d2db1bf1e70f23abe7039fb74203d070
:1013b2006e5c9e4200d100240131aae71168c9681f
:1013c200c85401339bb2ade75b088342aed9cb6808
:1013d20002995b1819780029a8d001391970a5e77c
:1013e2000623039910684b438168cb1804931b783a
:1013f200db065b0f40d16146406849004118059108
:101402000499059849880a9c0993015301999942c4
:101412002ed9002005995d00491908910400012187
:101422000de09f420ad0059d6700ed5b0795089d80
:101432002f88079dbd4215d10131c9b20134019dea
:10144200e7b2bd42edd8069c8c4204d9844206d94b
:101452004118a14203db089b1b880993019b0133be
:10146200dbb2d3e7079dbd42e8d20130c0b2e5e767
:101472006946049b898c5980039b0b9901339bb26b
:0e148200039363468c4663449bb29c465fe72f
:020000040000fa
:10149000f0b585b0029001f0a3fd0222694c002551
:1014a00023889343238001f09bfd0c23029a664e10
:1014b0005a43336801925b689b185a68236a120387
:1014c0001b0d120b1b051343236233685a68019be3
:1014d000d2180123ab4052681a4204d05b4b083348
:1014e000e85c01f04bfa0135142deed101f078fde6
:1014f0003368019a5b6801209b589c466246e36909
:1015000012031b0d120b1b0513430022e3614f4b0b
:1015100008330393030061469340194214d0039ba0
:101520004b4dd15c0f274b085b191d78014200d150
:1015300080e03d401d7050251f783d431d70454b98
:10154000c91800230b7008700132142ae2d1062258
:10155000029b31685a438b689b181a789d889207c2
:1015600001d505221a701f7801f03afd0023ff060d
:101570007f0f9f4205d13368019a5b689b189b7a65
:101580001b09324a3449d3180f221b7f0d401a40e1
:10159000120415439b06314a9b0f1b0515401d4342
:1015a0003368019a5b689b181b7afa2b47d804337f
:1015b0002d021b062d0a07271d4301f011fd33687c
:1015c000019a5b6826499b185b7a62681b093b405d
:1015d0000a401b051343636001f002fd03203368da
:1015e0005968019bc9184a7a238802401d48120293
:1015f000034013432380cb7a1f40bfb201f0f0fcbd
:10160000a56001f0edfca78101f0eafc3022a37b8c
:101610009343a37301f0e4fc022322881343238045
:1016200001f0defc0123227c1343237401f0d8fc7b
:1016300005b0f0bdbd431d701f7805257de7ff2374
:101640001b06b8e70024004268000020dc2d0000e3
:101650003030004040300040fffff0ffffffcfff81
:08166000ffff8ffffffcfffffd
:020000040000fa
:1016680010b540f27b23c2f200031b78012b06d091
:1016780040f2eb13c2f2000300221a7010bd40f2d0
:10168800ed13c2f200031a7840f2ca13c2f2000343
:101698001b88934243d840f2e113c2f200031b783f
:1016a800022b4fd040f2e113c2f200031b78012b4a
:1016b800e4d140f2ec13c2f200031a7840f29e1310
:1016c800c2f200031b889a4200d38fe040f2e21373
:1016d800c2f200031878c0b201f0f5fb40f2ec1436
:1016e800c2f200042378dbb243f25002c0f20002d7
:1016f800800082581800904740f2ed13c2f20003b0
:1017080001221a7023780133dbb2237040f2d4131c
:10171800c2f200031b68187801f004fcaee740f23f
:10172800ed14c2f200042378dbb240f2d412c2f204
:1017380000021268d05c01f0f5fb23780133dbb2bc
:1017480023709be740f2ec13c2f200031a7840f2d0
:101758009e13c2f200031b889a420dd340f2ec128a
:10176800c2f200021278934226d040f2eb13c2f282
:10177800000300221a7081e740f2ec14c2f2000460
:101788002178c9b240f2c413c2f20003587800f0bd
:10179800cffe40f2ed13c2f2000301221a70237843
:1017a8000133dbb2237040f2d413c2f200031b688a
:1017b800187801f0b7fb61e740f2ec12c2f20002c0
:1017c80013780133dbb2137040f24a13c2f20003fc
:1017d8001a8840f2c411c2f2000148780121814000
:1017e8008a431a80aa2001f09dfb47e740f2ec12d9
:1017f800c2f200021278934206d040f2eb13c2f212
:10180800000300221a7039e740f2ec12c2f200021b
:1018180013780133dbb2137040f24a13c2f20003ab
:101828001a8847f6ff710a401a80aa2001f07afb4d
:0218380024e7a3
:020000040000fa
:10183a00f8b5040001f062fa85b2012c4ad0b4b1bd
:10184a00022c66d0042c00d1b8e0200001f07cfa0a
:10185a0040f2c413c2f20003598842f6e863c0f2a8
:10186a0000038000c05801f01ffb01f0c9f9f8bd60
:10187a00387801f01ff93b780133dbb23b70083d41
:10188a00adb2052b0ed0082df1d940f2b414c2f234
:10189a0000042600083601f0b3f920700134a6428c
:1018aa00f9d1e5e740f2d313c2f20003002119701f
:1018ba0040f2c412c2f20002117140f24a13c2f29b
:1018ca00000319885078012282409143198001f05f
:1018da0097f9cce7082dcad940f2d317c2f200070c
:1018ea00d3e740f2d313c2f200030021197040f289
:1018fa00c412c2f20002117140f24a13c2f200038a
:10190a0019885078012282409143198001f078f9b0
:10191a00ade7032dabd940f2d317c2f200073c78ea
:10192a006600361940f26c23c2f200039c466644f4
:10193a0001f066f9307001f063f9707001f060f936
:10194a00b0700134e4b23c70033dadb2052cc8d08e
:10195a00032de4d88be73c78200001f0a0f901348c
:10196a00e4b23c70083dadb2012c0fd0082d00d86e
:10197a007de740f2bc14c2f200042600083601f0ea
:10198a003ff920700134a642f9d1e4e740f2d313bb
:10199a00c2f200030021197040f2c412c2f200021e
:1019aa00117140f24a13c2f20003198850780122d9
:1019ba0082409143198001f023f958e7082d00d895
:0c19ca0055e740f2d317c2f20007d2e745
:020000040000fa
:1019d60010b5002001f0b2fa40f2ee13c2f2000395
:1019e6007f22010091431970030600d470e043f290
:1019f6000003c4f2000340f600025a61012001f020
:101a06009dfa40f2ee13c2f200037f2201009143d9
:101a16001970030664d543f20003c4f20003802262
:101a260052025a61002001f093fa40f2ef14c2f21a
:101a360000042070002001f06bfa020040f27a13d5
:101a4600c2f20003188043f20003c4f2000348f216
:101a5600000199611021996189029961202199619a
:101a660009039961c9099961237883b343f2000395
:101a7600c4f20003490159612b2805d943f200033a
:101a8600c4f2000310215961552a06d943f2000316
:101a9600c4f2000344f200015961782a05d943f2e1
:101aa6000003c4f2000320215961a52a06d943f296
:101ab6000003c4f20003802189025961d52a06d9a0
:101ac60043f20003c4f2000340f200425a6110bd23
:101ad60043f20003c4f2000340f600029a618de768
:101ae60043f20003c4f20003802252029a6199e78e
:020000040000fa
:101af60010b540f2d113c2f200031b78012b09d0b6
:101b060040f2d213c2f200031b78012b15d0fff767
:101b1600b0fa10bd43f22b01c0f2000140f27c2066
:101b2600c2f2000000f05bf80028e9d140f2d113c0
:101b3600c2f2000300221a70e2e740f2d213c2f2a8
:101b4600000300221a70fff7e8f848bb40f2ac2009
:101b5600c2f20000fff79afba0b940f22c20c2f2b5
:101b66000000fef7d4faa0b940f25c20c2f20000f1
:101b7600fef713fdd0b140f2a913c2f2000304220e
:101b86001a7013e040f2a913c2f2000302221a707f
:101b9600e3e740f2a913c2f2000303221a70e3e757
:101ba60040f2a913c2f2000301221a7001f0daf919
:101bb60040f22c23c2f200031b681b787f2b06d849
:101bc60040f27913c2f2000301221a709fe740f235
:0c1bd600d113c2f2000301221a7098e73c
:020000040000fa
:021be20070474a
:020000040000fa
:101be400f7b5060001910b24002958d0002856d0df
:101bf4002d4d0324ab78002b51d00124042b4ed05f
:101c04002a4f3b7cdb07db0f009348d10224036897
:101c14005b79013ba34242d801f0e0f93b88a3433e
:101c24003b80234b234f1e60019b6b6000f0dcfb69
:101c34008022214bd200da67bff34f8fbff36f8f3f
:101c440001f0ccf903221d4b1a7001f0c7f90122ef
:101c54001b49ff200b78000413430b70194b1a70b7
:101c6400c22380225b00d200fa503368d83a5b79f1
:101c7400b9589b050340144801400b43bb508023d3
:101c8400db007b606b461b882b8000f0d9fe061eb0
:101c940007d104232888ab703400fff7f7fb20003a
:101ca400febdac70fbe7c046880100200024004262
:101cb4006800002000e100e008e100e02a2400427e
:0c1cc4002924004292020020ffff00ffd4
:020000040000fa
:101cd0008021f8b52c4bc9001a690a431a61c02249
:101ce0001c69920114431c615c6921435961596963
:101cf0000a435a610b2300282dd003680c261c8848
:101d000000231d009ab2944227d80223002d22d02e
:101d10001e4e1f4cb378002b29d1012701f060f92a
:101d200023883b43238001f05bf9a3692a031b0d41
:101d3000120b1b051343a361b77000242b00e34073
:101d4000db0704d5134b0833e05c00f017fe0134c9
:101d5000142cf3d100231800f8bd32005a43416817
:101d600001338a18116852680a431543cae701f023
:101d700037f9a269a3692a4312031b0d120b1b0535
:101d80001343a361d9e7c046003400408801002016
:081d900000240042dc2d0000dc
:020000040000fa
:101d980041f20003c4f200030e221a7641f2004316
:101da800c4f2000300221a7441f60043c4f200038f
:101db8000632ff32c0f201021a6241f60042c4f252
:101dc8000002042153681942fcd141f60043c4f2d1
:101dd800000340f20512c0f204025a6241f60042c2
:101de800c4f20002082153681942fcd141f60043ad
:101df800c4f2000340f20512c0f228029a6241f6ca
:101e08000042c4f20002102153681942fcd141f685
:101e18000043c4f20003ac224021995041f600422d
:101e2800c4f20002ac2013581942fcd041f600431a
:101e3800c4f20003cc224121995041f60042c4f279
:0e1e48000002cc20013913581942fcd070471b
:020000040000fa
:101e560070b540f2fc03c2f200031b7d002b4ad092
:101e660040f2fc02c2f200029368516840f200425e
:101e7600c4f20022127ed2071fd599421dd940f224
:101e86000041c4f20021072640f2fc00c2f2000025
:101e9600012509e00268d25c0a85013344680a7e9e
:101ea6002a420ad09c4208d94a683240012af1d116
:101eb60002685c00a25a0a85efe740f2fc02c2f211
:101ec6000002936052689a4215d840f2fc03c2f2af
:101ed600000300221a755a6040f20042c4f2002242
:101ee60001211175db6833b140f2fc03c2f2000335
:081ef6001869db68984770bd14
:020000040000fa
:101efe0010b540f2fc03c2f200032c229b5c3bb3f4
:101f0e0040f2fc03c2f20003da691b6a93421fd24d
:101f1e0040f2fc03c2f20003986a40f20041c4f2a0
:101f2e0000210a8d92b21b6a4c68072121400129bb
:101f3e000fd040f2fc01c2f200018969ca5401338c
:101f4e0040f2fc02c2f200021362d2699a4208d039
:101f5e0010bd40f2fc01c2f2000189695c006252c0
:101f6e00ede740f2fc03c2f2000300222c215a548a
:101f7e00da6140f20042c4f20022583111755b6af8
:101f8e00002be5d040f2fc03c2f200035b6a9847d7
:021f9e00dee77c
:020000040000fa
:101fa00010b540f29e13c2f2000301221a8040f2e3
:101fb000bc13c2f2000340f29421c2f2000182007d
:101fc00014186400615c1970210040f29424c2f27c
:101fd0000004a44661448c785c70cc789c700c79c9
:101fe000dc704c791c718979597112185200624465
:101ff0001289da8078b140f2d413c2f2000340f2c1
:10200000bc12c2f200021a6040f2ca13c2f200030c
:1020100008221a8010bd40f2c413c2f2000359789e
:102020000822043000f0a0fd40f2bc11c2f2000111
:0a2030000822022000f068fbece734
:020000040000fa
:02203a00fee7bf
:020000040000fa
:10203c0003211f4a70b5117002211e4b1e4c1a88c9
:10204c008a431a801d499b8f228809689bb25000d5
:10205c0043521b490978012902d002290fd070bdc7
:10206c000132228000f0e8fc002805d12088fff71f
:10207c0009fa0423a370f2e763689847efe70c258d
:10208c000f20104955430e6871684d19a97a084004
:10209c00e97a0025884201d2091acdb20621eb401b
:1020ac004a43b068821853800223a370a368e4e704
:1020bc002a24004200240042880100206c000020e9
:0820cc009202002068000020d0
:020000040000fa
:1020d40030b5bff35f8f62b64ef20013cef2000349
:1020e40040f2003419591b480140c0221204114324
:1020f400195104211960143419590140114319511b
:102104008021c903196019590902090ac0252d063d
:102114002943195180210904196004341959ff25f0
:10212400a9433f3d29431951802149041960195994
:10213400094d29404cf20005294319518021890495
:10214400196010341959084002431a5140f20042f0
:0c2154005a6030bdffff00ffff00ffffde
:020000040000fa
:1021600070b5002840d040f2fc03c2f200031a7d93
:102170000023babb40f2fc03c2f2000318605960ae
:1021800001321a755c6840f20043c4f200231b7ee2
:10219000db0718d5d4b1002340f20041c4f200217e
:1021a0000726012507e0c25c0a8501330a7e2a4220
:1021b0000bd09c420ad04a683240012af3d15a001f
:1021c000825a0a85f1e7002400e01c0040f2fc037b
:1021d000c2f200039c6040f20043c4f200230122db
:0c21e0009a750123180070bd0023fbe776
:020000040000fa
:1021ec00f0b506241e4b44431a68002093681c1952
:1021fc0063888b4229d029d2c91a89b24908012097
:10220c00842922d800200a291fd9cf250f2615276b
:10221c00a3881c009804800f68431d1235407d4331
:10222c001b11334040195b00c018344080b2002ca5
:10223c000ed113680b4adb789b069b0f5b009b5af5
:10224c00594389b2884280414042f0bd591ad4e7c3
:10225c00013080b2052cecd9053ce4b2e7e7c0466e
:08226c0068000020dc2d0000d9
:020000040000fa
:1022740010b540f29e13c2f2000305221a8040f208
:10228400b411c2f2000143001a18920040f2f01493
:10229400c2f20004a4466244147a0c71547a4c715c
:1022a400927a8a711b189b006344db7acb7178b1f4
:1022b40040f2d413c2f2000340f2b412c2f200029c
:1022c4001a6040f2ca13c2f2000308221a8010bd39
:1022d40040f2c413c2f2000359782822043000f0fb
:1022e40041fc40f2b411c2f200010822022000f0c5
:0422f40009faece710
:020000040000fa
:1022f800f7b50c25c3684d439c46032382684b43be
:1023080055196c6863442d8964889f781b78641b11
:10231800e41aa3b201930025436860461e88b542bb
:1023280001d10020febd8d4218d08378bb4215d163
:1023380013787b33dbb2012b15d913899c4653687c
:102348005b889c450ad264461b1b04789bb2a34257
:1023580004d91b1b019c9bb29c4204d30135adb22e
:0a23680003300c32dbe70120dce754
:020000040000fa
:1023720070b500f014fc40f27c20c2f20000fff7be
:10238200a6fc40f29410c2f2000000f0f8fd002416
:1023920040f27c25c2f200052100280000f03efd3b
:1023a2002100280000f02dfa0134a4b2052cf3d14b
:1023b20040f20005c2f20005002440f22c26c2f2cf
:1023c2000006e1b22a00300000f038fd0134a4b268
:1023d2000635052cf5d140f25c20c2f2000000f077
:0823e200a7fa00f078fc70bdc1
:020000040000fa
:0223ea00fee70c
:020000040000fa
:1023ec0070b500f0f7fd174b00261b68164d1b68e7
:1023fc0008249a78402a02d00a24802a1ad1ee7333
:10240c0030221b799443114a0f2b16d810490c40db
:10241c000f210b401b0214401c430e4b1c4300f0bd
:10242c00d9fdd0232b8000f0d5fd6c6000f0d2fddf
:10243c00002070bd0222ea73e2e780235b011c439b
:10244c001440eae76800002000240042fff0ffff80
:08245c00ffefffff40600000ec
:020000040000fa
:1024640040f20043c4f2002340f20412c4f23102e9
:102474001a60164a9a81c02292025a6040f20042bf
:10248400c4f20022d369002bfcd140f20043c4f211
:1024940000231a6802210a431a6040f20042c4f27f
:1024a4000022d369002bfcd140f2fc03c2f20003ea
:1024b40000229a61da611a622c215a545a621a6013
:1024c4005a609a601a75da60da85704782e2ffff13
:020000040000fa
:1024d40010b540f20043c4f200239b7d1bb340f2cd
:1024e4000042c4f20022137edbb2927d52b2002a73
:1024f4001adb40f20043c4f200231a7ed2b29b7d61
:10250400db0703d5d30701d5fff7a3fc40f2004353
:10251400c4f200231a7ed2b29b7d5b0703d5530716
:1025240001d5fff7eafc10bd5bb2002be1da00f045
:0425340045fadee79f
:020000040000fa
:1025380070b5012825d0042827d040f29e13c2f296
:10254800000301221a8040f2c413c2f200035e782d
:1025580000f0fbfb040043f25c03c0f200034200fe
:10256800d55a2a003100042000f0fafa42f6e8634e
:10257800c0f20003a400e1582a00022000f0c0f8cd
:1025880002e00800fff772fe70bd0800fff704fdc7
:02259800fae760
:020000040000fa
:10259a0070b543001a18520040f20001c2f200015d
:1025aa008c466244548840f2a012c2f2000214809f
:1025ba0040f22c05c2f2000519188900ac466144a4
:1025ca0009895180641a948019188900495dc909da
:1025da0091711b185b0040f20001c2f200018c46a7
:0c25ea0063441979d1715b79137270bde4
:020000040000fa
:0225f600fee7fe
:020000040000fa
:1025f800013210b5d2b2002906d1134b180010bd14
:10260800013a4000d2b280b203b2002b01db002aab
:10261800f6d10bb2002b11da0023002aeed01cb23f
:10262800002ceadb5b00013a9bb2d2b2884203d3aa
:10263800401a013380b29bb24908eee701324900e3
:0c264800d2b289b2e5e7c046ffff0000f7
:020000040000fa
:1026540000230e4a10b513600d4a0e4c13600e4a47
:1026640013600e4a13600e4a13600e4a53621361dc
:102674000133936000f0fbfa00f0f9fa0a4b9c4234
:1026840000d310bd08cc9847f8e7c046dc01002011
:102694007c00002000010000780000207000002071
:0c26a400740000208000002004010000f1
:020000040000fa
:1026b00043f20003c4f200034cf63042c0f20302be
:1026c0001a601a61002244215a5401315a540531ca
:1026d0005a5401315a5403315a5401315a54013178
:1026e0005a5401315a545039582019540130195450
:1026f00031315a5403315a5402315a5401315a5427
:082700003c3216399954704770
:020000040000fa
:1027080010b540f2eb13c2f200031b7803b110bd01
:1027180040f2e113c2f20003187040f2eb13c2f268
:1027280000030120187040f2ec13c2f20003187085
:1027380040f2ed13c2f20003187040f2d413c2f253
:102748000003196040f2ca13c2f200031a80087825
:0627580000f0e8fbdbe7e6
:020000040000fa
:10275e0010b542f60303c0f20003984742f6030396
:10276e00c0f20003984700f07efa40f20003c0f278
:10277e0000037f2293434ef60052cef20002936086
:10278e0042f25563c0f20003984742f60303c0f2cb
:10279e000003984742f60303c0f20003984700f087
:0427ae0005fbfee742
:020000040000fa
:1027b20042f20043c4f2000301221a8042f20042b4
:1027c200c4f20002012113691942fcd142f2004312
:1027d200c4f2000340f280121a80803aff3a1a6271
:1027e20042f20042c4f20002202113691942fcd1d4
:1027f20042f20043c4f2000340f200125a817047d1
:020000040000fa
:0228020070471d
:020000040000fa
:10280400030010b50b20002b16d01a680220148880
:102814008c4211d992789b68402a0ed106228d20d1
:102824004a4380009a1890800020062251430222d5
:102834005b1819780a431a7010bd803ad2b2012a83
:10284400f3d806224a4301489a18ece767050000ca
:020000040000fa
:1028540010b540f2e813c2f200031a78d2b240f283
:10286400c001c2f2000140f2e910c2f20000007897
:1028740088541a780132d2b21a701b783c2b07d0d4
:1028840040f2e910c2f20000012100f008f810bd86
:0e28940040f2e813c2f2000300221a70f0e7cf
:020000040000fa
:1028a20070b504000d00e8b140f2fc03c2f200036f
:1028b2002c229b5c002003b170bd00f038f940f27d
:1028c200fc03c2f200039c61dd6100221a622c212a
:1028d20001205854da8540f20043c4f200238432c6
:0828e2009a75e9e70020e7e721
:020000040000fa
:1028ea0010b540f2cc12c2f2000240f22001c2f24c
:1028fa00000183001c186400645c012121401170ee
:10290a001918490040f22004c2f20004a4466144a6
:10291a000c7a5470497a91701b185b006344997958
:08292a00d170db79137110bdbf
:020000040000fa
:1029320030b584680b23002c10d0c16800290dd05b
:102942000022036806311a704068631c05790a2068
:10295200684301302418a34202d10023180030bd7d
:102962001a7008780a315870d81c0280581d0280eb
:08297200d81d02800a33eee7d4
:020000040000fa
:02297a0000104b
:020000040000fa
:10297c00012210b54308104210d00f210b4a9b18ae
:10298c001a780a401a70102219780a431a70084be8
:10299c00c018002303700123037010bd0f240349da
:1029ac005b181978a14319701978eee730300040a4
:0429bc004030004067
:020000040000fa
:1029c00010b540f20043c4f200235b8b0722134092
:1029d00003b910bd40f2fc04c2f20004e38500f02c
:1029e000a7f840f20043c4f2002384221a752c2376
:1029f0000022e254636a002bebd0a06a636a984716
:022a0000e7e706
:020000040000fa
:022a020070471b
:020000040000fa
:102a040010b5054c227832b9044b13b1044800e0e8
:102a140000bf0123237010bd4c0100200000000002
:102a240000000000034b10b51bb10349034800e04c
:102a340000bf10bd00000000500100200000000095
:020000040000fa
:102a44000d4a70b51068012502680c4914880622e5
:102a54000b885a43a3420ad28668b65c06322e42d9
:102a640002d101339bb2f5e700200b8070bd002337
:102a740001200b80fae7c04668000020880100208e
:020000040000fa
:102a840040f20043c4f2000300221a819a79012122
:102a94000a439a719b7803221340022b0cd040f214
:102aa4000043c4f20003013a9a705202c4f20002d5
:0a2ab400012193790b42fcd070471a
:020000040000fa
:102abe0010b543001a18920040f2f011c2f2000154
:102ace008c46624440f2b411c2f200014c79547249
:102ade008c7994720c7914721b189b006344ca791a
:0a2aee00da7280b200f070f810bd3b
:020000040000fa
:102af80010b542f20042c4f20002918989b240f254
:102b08007c13c2f2000359600649918192891b68bf
:102b18003bb140f27c13c2f20003586899681b6805
:082b2800984710bdffc1ffff3b
:020000040000fa
:102b300040f20043c4f200235b8b5b0713d040f2ea
:102b40000043c4f2002380221a76793a5a831b7e0e
:102b50005b0708d540f20043c4f2002304211a8d1c
:082b60001a7e0a42fbd1704706
:020000040000fa
:102b6800f8b507000e00150040f27b24c2f20004fd
:102b780000232370552000f00bf9380000f008f905
:102b8800300000f005f9e8b200f002f9280a00f078
:082b9800fff801232370f8bdd2
:020000040000fa
:102ba00010b543f27500c0f20000002100f028fad1
:102bb00042f20042c4f20002082113691942fcd11a
:102bc00000f01df9002000f058f9142000f063f91e
:062bd00000f0d1f810bd79
:020000040000fa
:102bd60010b5040040f27c20c2f200002100fff78d
:102be6000efe62001219520040f20003c2f2000308
:102bf6009c466244e1b240f22c20c2f2000000f092
:042c06001bf910bde9
:020000040000fa
:102c0a0040f2e713c2f200031a78d2b240f2c001ce
:102c1a00c2f20001885c1a780132d2b21a701b78ab
:102c2a003c2b00d0704740f2e713c2f200030022a7
:042c3a001a70f7e72e
:020000040000fa
:102c3e0010b544f20003c4f2001304225a60fff7e9
:102c4e001afffff72efdfff7a0f800f0b0f9fff71f
:102c5e0002fcfef7bffffff7a5fdfff783fbfff7b3
:042c6e0032fa10bd69
:020000040000fa
:022c72007047a9
:020000040000fa
:102c740010b50a48016821b9436813b9fff7bffecc
:102c840010bd04008368064a9bb20c349b009b5819
:102c940042682000984780002018ebe7b009000044
:042ca400942f000069
:020000040000fa
:102ca80010b583001a18520040f29421c2f20001b4
:102cb8008c46624440f2bc11c2f200010c79547196
:102cc8004c7994711b185b006344ca881a8110bd43
:020000040000fa
:102cd80010b541f26960c0f20000002100f093f9dc
:102ce80042f65500c0f20000002100f093f940f2ce
:0e2cf800e910c2f200000121fff7cffd10bd70
:020000040000fa
:102d060040f2e813c2f200031b7840f2e712c2f267
:102d1600000210781b1a9bb218b2002801dbc0b261
:082d260070473c3318b2fae7d4
:020000040000fa
:102d2e0040f26813c2f2000340f23c22c2f20002eb
:102d3e0091781970926811785970517899709278cb
:042d4e00da70704780
:020000040000fa
:102d520070b101280ad0022808d0032806d004281e
:102d620004d00023052801d0180070470300fbe7b8
:042d72000300f9e77a
:020000040000fa
:102d760042f20043c4f200031a8802210a431a8071
:102d860042f20042c4f20002022113691942fcd148
:022d9600704784
:020000040000fa
:102d980010b540f2eb13c2f2000301221a7000f0e2
:102da800c1f840f2eb12c2f200021378012bfcd0fa
:022db80010bd4c
:020000040000fa
:102dba0010b50020fff73eff40f27914c2f200047a
:102dca0001e0fef703fefef791fe2378012bfad10c
:022dda00f7e719
:020000040000fa
:102ddc0007001300350090000001020305060809e6
:102dec000a0b0e0f1011121316171e1f3f1c0b058a
:022dfc000301d1
:020000040000fa
:102dfe0042f20043c4f200031a8802218a431a8069
:102e0e0042f20042c4f2000213691942fcd170472b
:020000040000fa
:102e1e000b2300280ad003681a8802238a4205d998
:102e2e0006235943012382688b54002318007047f0
:020000040000fa
:102e3e000b23002809d0002a07d00c234b438168ae
:0e2e4e00c91801230b7000234a60180070475a
:020000040000fa
:102e5c00002310b5934206d103201840421e904126
:0e2e6c009b08c01810bdc45ccc540133f2e7c3
:020000040000fa
:102e7a0042f20043c4f20003986142f20042c4f2f3
:0c2e8a000002082113691942fcd17047b6
:020000040000fa
:102e960042f20043c4f20003186242f20042c4f256
:0c2ea6000002202113691942fcd1704782
:020000040000fa
:102eb20070b505000e0041b10024fff7a5fe287091
:0c2ec20001350134a4b2a642f7d170bd66
:020000040000fa
:102ece00802808d0812804d08238434258414000df
:0a2ede0070470120fce70020fae72e
:020000040000fa
:102ee800a0020020f00100206c0200208a020020cd
:082ef8009402002048020020b2
:020000040000fa
:102f000010b540f2d113c2f2000301221a7014204e
:062f100000f06ef810bd98
:020000040000fa
:102f160040f25c22c2f20002926883001b185b003a
:062f2600d318d8887047a3
:020000040000fa
:102f2c0010b540f2ea13c2f2000318700121180028
:062f3c00fff710f910bdc3
:020000040000fa
:102f420040f22c22c2f20002926843001b189b003e
:042f5200d05c704798
:020000040000fa
:102f560040f25c22c2f20002926883001b185b00fa
:042f6600d05c704784
:020000040000fa
:102f6a0040f24a13c2f200031a8848f200010a43e7
:042f7a001a80704702
:020000040000fa
:102f80000b23002802d0024b186000231800704762
:042f90006c000020b1
:020000040000fa
:102f9400cf2f00005d2e000095300000953000001a
:042fa4009530000064
:020000040000fa
:102fa80003b47146490840004900095a49008e4453
:042fb80003bc70479f
:020000040000fa
:102fbc0044f20003c4f2001304225a60033a1a725a
:022fcc0070474c
:020000040000fa
:102fce008a18914201d10020704700230b70013105
:022fde00f7e713
:020000040000fa
:102fe000024ad36adb04db0cfbd1704700240042a9
:020000040000fa
:102ff000024b1a88801818807047c046aa0100202a
:020000040000fa
:0e30000040f27c13c2f2000318609960704722
:020000040000fa
:0e300e0040f2fc03c2f20003d8601961704763
:020000040000fa
:0e301c0040f2fc03c2f2000358629962704752
:020000040000fa
:0e302a0040f2d213c2f2000301221a70704766
:020000040000fa
:0c30380010b500f015f8fef7fdff10bd0c
:020000040000fa
:0c304400a0010020cc0100206801002049
:020000040000fa
:0c3050009b250000eb2800002f2d000045
:020000040000fa
:0c305c000a0028000f0008000800030014
:020000040000fa
:0c3068000322014b1a7070472a2400421a
:020000040000fa
:0830740010b5fff743ff10bd8a
:020000040000fa
:08307c00090005001100c04627
:020000040000fa
:083084002d0005001100c046fb
:020000040000fa
:04308c0080818200bd
:020000040000fa
:043090000501010035
:020000040000fa
:043094000020704761
:020000040000fa
:0200000400807a
:044000007f438fb0bb
:020000040000fa
:0200000400807a
:04400400bbfcffff03
:020000040000fa
:0200000400807a
:04c0040000ffffff3b
:020000040000fa
:0200000400807a
:04c04000ffffffff00
:020000040000fa
:0200000400807a
:04c04400fffffffffc
:020000040000fa
:0200000400807a
:04c04800fffffffff8
:020000040000fa
:0200000400807a
:04c04c00fffffffff4
:00000001FF
