:020000040000fa
:10000000f03f00201f270000f71f0000a72300007b
:1000100000000000000000000000000000000000e0
:100020000000000000000000000000009f1b000016
:1000300000000000000000009f1b00009f1b00004c
:100040009f1b00009f1b00007d2a00009f1b0000db
:100050009f1b00009f1b00009f1b00009f1b0000b8
:100060009f1b00009f1b00009f1b00009f1b0000a8
:100070009f1b00009f1b00009f1b00009f1b000098
:100080009f1b00009f1b00009f1b00009f1b000088
:100090009f1b00009f1b0000912400009124000082
:1000a00091240000912400009f1b00009f1b000072
:1000b0009f1b00009f1b00009f1b00009f1b000058
:1000c0009f1b00009f1b00009f1b00009f1b000048
:1000d0009f1b00009f1b00009f1b00009f1b000038
:1000e0009f1b00009f1b0000ed2f00009f1b0000c6
:0400f0009f1b000052
:020000040000fa
:1000f400f8b5c046f8bc08bc9e467047e929000024
:10010400f8b5c046f8bc08bc9e467047c529000037
:020000040000fa
:10011400f0b587b00090009b0b20002b00d1e2e1ea
:10012400002603275b68049602931b8801960593b7
:100134000396049b059a93421ed1009b1a68137878
:1001440059b200290bda0820002101268446049cb8
:1001540088b2844200d9ffe07f210b401370039bd7
:10016400002b00d009e1019801231178002800d167
:100174005be10b4313705ae1009bb5009b685d196a
:100184001e236a681178194001d001232b702b7843
:10019400042b73d00ad8022b2ed043d8012b23d0a2
:1001a400049b033601339bb20493c2e7852b00d131
:1001b40082e0862b00d1a9e0072bf1d1298953884d
:1001c40099425fd9c91a009b0298db6840799b5d0c
:1001d40089b20341dbb28b4254d86b78002b69d1ce
:1001e40001232b701770dbe703930029d8d1022376
:1001f4002b7008236b70d3e76978002910d05288dc
:10020400042904d92a810139697001237ce02b89ee
:100214009342f8d002d9013b2b81f4e70133fbe789
:100224002f70bde7298953889942b9d0009ad268c2
:1002340010d9cb1a0299925d49799bb20a41d2b284
:100244009a42add8029b1b79002ba9d007222a70b1
:100254006b70dae792195b1a11789bb299429fd8b6
:100264009378002b05d00499009802f021f8002817
:1002740096d104232b70029b9b78e9e72989538844
:10028400994202d92f700023b4e7009a5b1ad2680e
:100294009bb2921911789942f4d29378002b06d02c
:1002a4000499009802f004f8002800d078e76b78ed
:1002b400002b47d0013bcbe7029b00991b7a0968ce
:1002c4000b7128895388984207d986232b70029b87
:1002d4009b786b700123019316e0009a1b1ad26875
:1002e4009bb291190a784978140001310c4101211b
:1002f400121bd2b201919a4200d251e786232b708d
:10030400029b9b786b700b00039349e72889538801
:10031400984209d96b78002b01d12f7001e0013b81
:100324006b70012301933be7009a1b1ad2689bb2be
:1003340091190a784978140001310c41121bd2b288
:100344009a4204d285232b70029bdb78e8e76b7812
:10035400002be2d0013bbce70c2500984d4380689c
:1003640045196f683878304205d164462d78a54325
:1003740001d0304338700131e9e6029b597a0029f3
:1003840000d1f0e6802310785b4203431370012907
:1003940000d0e8e600218bb20393049b88b2834229
:1003a40000d8e0e60c20009b48439b6808251818f9
:1003b400029303781c00ac4315d0852b01d0032b8a
:1003c4002ed10325009bdf682b004b43fb189b7841
:1003d4009c46002b07d000231e000595049c9c42dc
:1003e40008d8002e1cd1012540680378ab43037064
:1003f4000131d0e7039c9c420fd00c255d43029c45
:100404002d5d042d01d0862d07d1059d5d437d19f9
:10041400ad78654501d10126049b01339bb2dde72c
:100424000123406805782b43e1e799431170528812
:10043400584b11001b88c8318b4251d99b1a9bb26f
:100444009c466346c82b4dd96346c83b9bb29c4629
:10045400009b1b685a88c8325a801a79002a00d037
:1004640070e05a79002a01d0013a5a719a79002a27
:1004740001d0013a9a71009a50688679002e07d00b
:100484005a79002a04d1078891b28f4234d85e7118
:10049400c579002d07d09a79002a04d1068891b233
:1004a400b1423cd39d71009b5b68da78002ac8d0c6
:1004b4001f880c23002103207b4302938bb2bb4291
:1004c400bfd20c22009b4a439b689a181578852d4d
:1004d40004d15578002d38d0013d55700131ede738
:1004e400934202d3002007b0f0bd2b495918891a52
:1004f400c829f7d9013ba1e70c21009c5143a4680a
:1005040061180d78032d01d0082d06d14c680d8992
:100514006488ac4201d901350d810132b4e70c2164
:1005240000985143806841180878032801d00828ae
:1005340006d14c6808896788874201d2013808814e
:100544000132ace7013a1a71ade7012405001470d9
:1005540052684d431070009ad2685519ad78002d39
:10056400bcd0029c02321c1901920394039a934258
:10057400b4d0019a1678ae4206d101225e6834786e
:10058400144201d01a703070019a0c330332019274
:0c059400ece7c046ca010020ffff000099
:020000040000fa
:1005a0000b23f0b587688fb007900493002f1bd002
:1005b000c268002a18d0436819680191019900297e
:1005c00012d002921a790a235343fb180d93002389
:1005d000049308930d9bbb4209d16a462021079bd7
:1005e00052181b6812781a7004980fb0f0bd029b65
:1005f0000c205b889c46029b62461b7903936344f4
:1006000005936b469b890993634499b20023059c2b
:10061000a2422edb002562462e000599914233dc72
:100620006a4213400122397811400b916cd039890c
:100630004a005218921992b292083a81002d65d15f
:10064000029a1578012d00d9a0e152790a92cf2a99
:1006500000d99be1002b5bd13b817e223b70934311
:10066000089a0a371343dbb20893029b0a330293ba
:10067000b0e704005443019d645d852c01d10a005c
:100680000123013292b2c2e70c20504301990918ac
:100690004c6809896488641aa4b221b20a910021c5
:1006a00006910a99002900dd0694624524d1029939
:1006b0000024087801280fd103998c180c214c4391
:1006c00001990c3c0c19616824894888001b00249e
:1006d00000b2a04200dd84b206990298091900898f
:1006e00089b2884205d8301c8e4200d2081c0125f0
:1006f00086b2013292b290e701990c38081841682d
:1007000000894c88201ae2e73e8199e72b0097e7a1
:1007100000220a9b16001b090c930c2063460599c6
:10072000994200dde1e0b44500d0f0e0012d00d0b9
:10073000f7e00b00434301990c3bcb1859681b8928
:100740004988c91a634601335843019b09b21818f6
:10075000436800895b881b1a1bb2181c002b00da47
:100760000020012300b20693884206db0b1c0029ff
:1007700000da002319b200230693059b0c20013bed
:100780009e4200d0d1e00023012d0dd16346584395
:10079000019b181843685c880389e41a24b2231c5f
:1007a000002c00da00231bb203980f2800d9c4e004
:1007b00000200c2405900698012800d0c1e0039e7b
:1007c000a64089b29bb2b6b292b2994200d2bbe0c7
:1007d000d21a90b2c31ac91889b2220001f0ecfef5
:1007e0000123a340c01a80b2039b301880b2022bb1
:1007f00006d9012d00d0b0e0059a099901f0dcfe80
:100800008022031c5201904201d9684b1b8898b288
:10081000002d13d10f230a9a1a400fd028215143db
:100820002b00814201d8401a83b280224900520134
:10083000511a89b20c22180001f0befe0c230c9a4a
:100840009b1a18410123934099b2013b984200d969
:1008500088e00b9b80b20400002b22d0bc88031bd5
:100860009bb21ab2012d09d14d08002a00db7be0b2
:100870006d42954200dc94e0cb181ab2022693b286
:100880005d1cb543adb2002d0bd05b08002a04da25
:1008900053429bb25b085b421bb2e418a4b201391d
:1008a0000c40029bfe880299b8809d79587909789e
:1008b000a31b9bb21ab201290ad10009814089b257
:1008c0004808002a55da4042904203ddc9180ab2ae
:1008d000002a5fda5242bb7812b29a424edc002301
:1008e0007f2252421343dbb2b7e604005c43019916
:1008f0000c19616824894988091b09b2002903dda4
:10090000914201dd0a001e0001339bb207e77043ec
:10091000019b0c381818436859880389c91a09b211
:1009200024e700230693190027e7731c434301982b
:10093000c31858681b8944882fe7042008240590b1
:1009400039e76046361a3be75b1a98b2511a4118ec
:1009500089b2220001f030fe46e70999059a013973
:1009600089b24be7481e74e7aa4287dd5a1a12b2d1
:1009700084e782420edd5a1a12b2a9e700237d7085
:10098000bb70b442abd0fc800223a9e702230493de
:10099000002362e67b789a42a1dd0023bd707b7064
:1009a000efe7531c00d073e77be7c046c227000087
:020000040000fa
:1009b0000322f0b5ab4b89b09b780392002b14d087
:1009c000a94b1b6804931b6805931b880693a74bd0
:1009d0001b6807930023029303936b461a89069bb7
:1009e0009a4205d302229f4b9a70039809b0f0bd3a
:1009f000029b07995b00cc5a062302994b4304994a
:100a00008968cd180c2302992e784b430499f60679
:100a10004968760fcb180193db7a042e00d96ae17e
:100a2000300002f09bfa050013004a012b01dd00a3
:100a30000f21019a927a0a40934201d99e1af6b286
:100a400034416c80029b01330293c6e71c41884a03
:100a5000a3b26b80af88934217d9864a9b183200a5
:100a60009bb205995b088978402913d0002a13d0de
:100a7000814a0026974211d181232b700e230393c4
:100a80002b785a0625d5012330e0794ad31a9bb238
:100a90000022e6e7002aebd0002fedd0092befd99a
:100aa0000f24b9043a123811890f22402040274000
:100ab000002e3ad0cf2b01d9002966d1152b6ed943
:100ac000002a67d1002291426bd00139c9b20a22b3
:100ad00067e05bb2002b0adb0322059bdb78134047
:100ae000934208d1ff23019a137211232b70bf0484
:100af000bf0caf80a6e7022b07d10f22019b5b7ac8
:100b00009343019a53720923f0e7012bbbd10f22c3
:100b1000019b5b7a1a4050231343019a53720d23b1
:100b2000e4e70131cf3bc9b29bb2cf2b01d90329f6
:100b3000f7d1152b0dd90f2a06d10f2203290ad080
:100b40000131c9b2052206e00132153bd2b29bb297
:100b5000efe70f2af1d0022b11d90f280ad10f2a63
:100b600000d1c9e00132d2b2052003290bd0022bfb
:100b7000dbd826e00130023bc0b29bb2ebe70f2886
:100b8000edd003291dd10321f1e70139cf3bc9b2d3
:100b90009bb28fe7013a153bd2b29bb28ee7002a97
:100ba00090d0022b0bd9002804d1002a11d11700b4
:100bb000100006e00138023bc0b29bb2f1e700280a
:100bc000f3d009038cb212021443274300010743f8
:100bd0008fe7013ad2b20a20022b00d96ae7f0e788
:100be0001c41019ba4b21f7a01200023ff2f14d1c6
:100bf0007f23019a6c8013722b78012b00d021e7a0
:100c0000ff33ff339c4273d91a4be418a4b20a2c69
:100c100000d817e745232b7014e73900d940002688
:100c2000014201d11e0008230133dbb2072bf4d9a6
:100c30002100100001f0b8fa002804d00123b340cd
:100c40001f43019b1f720123002e08d0013ef6b204
:100c5000b340019a127a9a43019b1a72cce72b7027
:100c6000cae7c0467c0100200000002004000020ec
:100c7000ff01000001feffffff3f00001c41019b40
:100c8000a4b25f7a3e09052e15d02100100001f0b4
:100c90008bfa00280ad1013601232b700f2336016d
:100ca0001f40019b3e435e726c80a5e7002ef3d08f
:100cb000013ef6b2f2e70426f0e71c410f26019b45
:100cc000a4b25f7a3e4011d02100100001f06cfa0e
:100cd000002806d1013ef6b201232b700f239f435b
:100ce000dfe7032ef8d00136f6b2f7e70126f5e785
:100cf000044b1c1b8ae7fee7032900d157e71000cd
:080d000035e7c046ff010000c9
:020000040000fa
:100d0800400100201c0000000000000070010020cd
:100d18000c00000000000000d0000020300000009f
:100d28000000000028020020100000000100000060
:100d3800e4010020a802002088010020840200208d
:100d4800840200200a0000000100000000000200e8
:100d5800038a080014000000a80200200800000010
:100d6800010000005800002001000000e4010020fc
:100d78000100000000000000880100200a000000b7
:100d880000000000380200201000000001000000f0
:100d9800ac010020900200205800002068020020ca
:100da800680200200f000000010000005001003c14
:100db80001005001015001015001010058000020bc
:100dc8003c00000000000000ac010020080000000a
:100dd80000000000900200200a000000010000004e
:100de800050004000500140514010000b0020020ed
:100df80008000000010000004802002058020020fe
:100e0800480200202000000001000000000000004f
:100e18000001002020010020e0010020050003005f
:100e2800bc020020c0020020010f0600e0010020e3
:100e38000300000000000000c002002003000000c2
:100e48000100000000010200000100201e00000057
:100e580000000000780200200c00000001000000e3
:100e6800b8020020ec01002020010020ec01002045
:100e78003c0000000100000004c00300080000005e
:100e88000a0000040cc00100000002000a0000046f
:100e98000cc00200000001000a0000040c4003001e
:100ea800008000000a0000040c80030000400000dd
:100eb8000a000004200100201e00000000000000bd
:100ec800b802002006000000010000000500813083
:100ed80000020000940100200a0000000000000049
:100ee800e301002001000000000000006d01002067
:100ef8000300000000000000a9010020030000001a
:100f080000000000b40100201000000000000000f4
:100f18009c0200200a0000000100000002360005c3
:100f28001f00000700000000a001002009000000c9
:100f380000000000940000203c00000000000000b9
:100f4800d101002003000000000000001e01002065
:100f580002000000000000003e0100200200000026
:100f680000000000e5010020030000000000000070
:100f780077020020010000000100000001000000cd
:100f8800e80100200200000000000000d401002059
:100f98000400000000000000920100200200000090
:100fa80000000000c401002006000000000000004e
:100fb8005c0100201100000000000000cc010020ae
:100fc80005000000000000009e0100200200000053
:100fd80000000000ea0100200200000000000000fc
:100fe8008e02002001000000010000000100000046
:100ff8007c0100200c000000000000000000002020
:101008000800000000000000ca01002002000000e3
:1010180000000000d80100200400000000000000cb
:10102800080000205000000000000000dc01002043
:1010380004000000000000000000000000000000a4
:020000040000fa
:1010480010b540f2c413c2f200031b79022b19d069
:10105800032b67d0002b00d09ae001f02efe052864
:1010680000d89be001f0abfd552800d096e040f297
:10107800c414c2f200040421200001f0effe022390
:1010880023718be040f2c413c2f200031b78022bd9
:1010980022d0012b00d081e001f00ffe012800d8fa
:1010a8007ce001f08cfd040001f089fd002c75d175
:1010b800aa2873d140f23e11c2f200010b8840f217
:1010c800c412c2f200025478a938a04003439bb26c
:1010d8000b800323137161e040f2c413c2f20003d2
:1010e8005c883b2c08d940f2c413c2f2000358783c
:1010f800210000f087fb51e001f0dffd84424dd272
:1011080040f23e11c2f200010b8840f2c412c2f252
:10111800000254780120a04003439bb20b800323b4
:1011280013713be040f2e813c2f200031b78abbb3b
:1011380040f23e13c2f200031b881b052ed040f27a
:10114800c413c2f200031b78012b16d0022b25d141
:1011580040f2c414c2f200046188607800f052fbc7
:101168000023237140f23e13c2f200031a8860780c
:10117800012181408a431a8010e040f2c414c2f26f
:1011880000046078002101f0b3f90023237105e021
:1011980040f2c413c2f2000300221a7140f2e813ad
:1011a800c2f200031b783bb940f23e13c2f20003bf
:1011b8001b881bb2002b00db10bd40f2a914c2f241
:1011c8000004237843f24402c0f20002d15c40f2ea
:1011d800e912c2f2000211701178c9b243f230026a
:1011e800c0f200025b009a5a032001f097fc42f615
:1011f800f873c0f2000322789200d3580020984771
:10120800237840f21e12c2f2000243f24801c0f2f3
:101218000001c95c118043f23802c0f20002590093
:101228008a5a43f20401c0f200019b005958012078
:1012380001f046fa23780133dbb2032b01d0237087
:10124800bae740f2a913c2f2000300221a70b3e70a
:020000040000fa
:10125800f0b502008db00b20002a6ad055681168dd
:10126800ab7801934b7802932b7b002b3ed0002464
:1012780020002b889c46019b5b000393029b5e0029
:101288006746a3b29f4256d86b7b984200d87be052
:10129800cb6802995b181978013119701168536885
:1012a8004878c968085c997b88421fd169469d685f
:1012b800029b0989e81803780391002b53d0013b5e
:1012c800dbb26e466f46b68800213e823e8a012414
:1012d800b44667468eb2b74247d8002cedd00370ab
:1012e8000023180051688978994247d8029b6946bb
:1012f8005b000a93019b56685b08013306936b46b3
:101308009b888b818b890b9300239c46039333889e
:1013180003998b4244d8029b01990133dbb28b427b
:101328008941b0680b40c05c716808700020126881
:1013380053700db0f0bd062363438f68fb185f88b8
:101348004b689b5b9f420ad9fb1a9bb21f1c8342c6
:1013580000d2071cb8b2039b0134f61890e79f42ed
:10136800f9d2db1bf1e70f23abe7039fb74203d0aa
:101378006e5c9e4200d100240131aae71168c96859
:10138800c85401339bb2ade75b088342aed9cb6842
:1013980002995b1819780029a8d001391970a5e7b6
:1013a8000623039910684b438168cb1804931b7874
:1013b800db065b0f40d16146406849004118059142
:1013c8000499059849880a9c0993015301999942ff
:1013d8002ed9002005995d004919089104000121c2
:1013e8000de09f420ad0059d6700ed5b0795089dbb
:1013f8002f88079dbd4215d10131c9b20134019d25
:10140800e7b2bd42edd8069c8c4204d9844206d985
:101418004118a14203db089b1b880993019b0133f8
:10142800dbb2d3e7079dbd42e8d20130c0b2e5e7a1
:101438006946049b898c5980039b0b9901339bb2a5
:0e144800039363468c4663449bb29c465fe769
:020000040000fa
:1014560010b540f27723c2f200031b78012b06d0a9
:1014660040f2e813c2f2000300221a7010bd40f2e7
:10147600e513c2f200031b78dbb240f29212c2f20d
:10148600000212889a4244d840f2e713c2f20003df
:101496001b78022b50d040f2e713c2f200031b78f0
:1014a600012be3d140f2e613c2f200031b78dbb254
:1014b60040f21e12c2f200021288934200d391e05b
:1014c60040f2e913c2f200031878c0b201f0d5fc6d
:1014d60040f2e614c2f200042378dbb242f6f87258
:1014e600c0f20002800082581800904740f2e513cf
:1014f600c2f2000301221a7023780133dbb2237093
:1015060040f2d413c2f200031b68187801f0e5fc20
:10151600ace740f2e514c2f200042378dbb240f2f5
:10152600d412c2f200021268d05c01f0d6fc237815
:101536000133dbb2237099e740f2e613c2f20003ef
:101546001b78dbb240f21e12c2f2000212889342ee
:101556000ed340f2e613c2f200031b78dbb29a42c6
:1015660026d040f2e813c2f2000300221a707de78b
:1015760040f2e614c2f200042178c9b240f2c41364
:10158600c2f20003587800f0b4ff40f2e513c2f24d
:10159600000301221a7023780133dbb2237040f274
:1015a600d413c2f200031b68187801f096fc5de7bd
:1015b60040f2e612c2f2000213780133dbb2137076
:1015c60040f23e13c2f200031a8840f2c411c2f27e
:1015d60000014878012181408a431a80aa2001f03f
:1015e6007cfc43e740f2e613c2f200031b78dbb251
:1015f6009a4206d040f2e813c2f2000300221a70a3
:1016060034e740f2e612c2f2000213780133dbb28d
:10161600137040f23e13c2f200031a8847f6ff71b8
:0c1626000a401a80aa2001f058fc1fe7bf
:020000040000fa
:021632007047ff
:020000040000fa
:10163400f0b585b0029001f0abfc0222694c0025a4
:1016440023889343238001f0a3fc0c23029a664e63
:101654005a43336801925b689b185a68236a1203e1
:101664001b0d120b1b051343236233685a68019b3d
:10167400d2180123ab4052681a4204d05b4b0833a2
:10168400e85c01f07bf90135142deed101f080fc0a
:101694003368019a5b6801209b589c466246e36963
:1016a40012031b0d120b1b0513430022e3614f4b66
:1016b40008330393030061469340194214d0039bfb
:1016c4004b4dd15c0f274b085b191d78014200d1ab
:1016d40080e03d401d7050251f783d431d70454bf3
:1016e400c91800230b7008700132142ae2d10622b3
:1016f400029b31685a438b689b181a789d8892071d
:1017040001d505221a701f7801f042fc0023ff0660
:101714007f0f9f4205d13368019a5b689b189b7abf
:101724001b09324a3449d3180f221b7f0d401a403b
:10173400120415439b06314a9b0f1b0515401d439c
:101744003368019a5b689b181b7afa2b47d80433d9
:101754002d021b062d0a07271d4301f019fc3368cf
:10176400019a5b6826499b185b7a62681b093b40b7
:101774000a401b051343636001f00afc032033682d
:101784005968019bc9184a7a238802401d481202ed
:10179400034013432380cb7a1f40bfb201f0f8fb10
:1017a400a56001f0f5fba78101f0f2fb3022a37bd9
:1017b4009343a37301f0ecfb022322881343238099
:1017c40001f0e6fb0123227c1343237401f0e0fbc8
:1017d40005b0f0bdbd431d701f7805257de7ff23cf
:1017e4001b06b8e700240042000000202e2d000054
:1017f4003030004040300040fffff0ffffffcfffdc
:08180400ffff8ffffffcffff57
:020000040000fa
:10180c00f8b5040001f057fa0500022c08d03fd8b7
:10181c00002c00d1b9e040f2aa17c2f2000749e04f
:10182c0040f2aa17c2f20007032d00d8ade03c78b5
:10183c006600361940f26823c2f200039c466644e7
:10184c0001f0bbf9307001f0b8f9707001f0b5f926
:10185c00b0700134e4b23c70033dadb2052ce3d161
:10186c0040f2aa13c2f200030021197040f2c41214
:10187c00c2f20002117140f23e13c2f20003198849
:10188c005078012282409143198001f096f97ce056
:10189c00042c68d140f2aa17c2f200073ce0387859
:1018ac0001f01ef93b780133dbb23b70083dadb261
:1018bc00052b0ed0082d68d940f2b414c2f20004e6
:1018cc002600083601f079f920700134b442f9d1c0
:1018dc00e5e740f2aa13c2f200030021197040f2ae
:1018ec00c412c2f20002117140f23e13c2f20003a4
:1018fc0019885078012282409143198001f05df9da
:10190c0043e03c78200001f0a7f90134e4b23c70cc
:10191c00083dadb2012c0ed0082d36d940f2bc14c6
:10192c00c2f200042600083601f047f92070013499
:10193c00b442f9d1e5e740f2aa13c2f20003002148
:10194c00197040f2c412c2f20002117140f23e133f
:10195c00c2f2000319885078012282409143198009
:10196c0001f02bf911e0200001f00cfa40f2c41345
:10197c00c2f20003598842f69c63c0f20003800057
:0c198c00c05801f069fa01f018f9f8bd2c
:020000040000fa
:1019980010b5002001f0abfa40f2eb13c2f20003dd
:1019a8007f22010091431970000600d56de043f2d3
:1019b8000003c4f2000340f600029a61012001f01e
:1019c80096fa40f2eb13c2f200037f220100914322
:1019d8001970000661d443f20003c4f200038022a8
:1019e80052029a61002001f08cfa40f2ea14c2f225
:1019f80000042070002001f064fa40f29e13c2f245
:101a08000003188043f20003c4f2000348f2000107
:101a180099611021996189029961202199610903cd
:101a28009961c9099961237873b343f20003c4f239
:101a38000003490159612b2826d943f20003c4f257
:101a480000031021596155281ed943f20003c4f23e
:101a5800000389025961782816d943f20003c4f2b9
:101a6800000320215961a5280ed943f20003c4f2ce
:101a7800000309035961d52806d943f20003c4f2cb
:101a8800000340f200425a6110bd43f20003c4f261
:101a9800000340f600025a6190e743f20003c4f2e3
:0a1aa8000003802252025a619ce7fd
:020000040000fa
:101ab20010b540f26f13c2f200031b78012b09d05c
:101ac20040f26e13c2f200031b78012b15d0fff710
:101ad200bafa10bd42f6df71c0f2000140f278207e
:101ae200c2f2000000f05bf80028e9d140f26f1367
:101af200c2f2000300221a70e2e740f26e13c2f251
:101b0200000300221a70fef752ff48bb40f2b020d9
:101b1200c2f20000fff79ffba0b940f23820c2f2e8
:101b22000000fef7f6faa0b940f22820c2f2000047
:101b3200fef735fdd0b140f2e313c2f200030422f6
:101b42001a7013e040f2e313c2f2000302221a7089
:101b5200e3e740f2e313c2f2000303221a70e3e761
:101b620040f2e313c2f2000301221a7001f0d6f927
:101b720040f23823c2f200031b681b787f2b06d881
:101b820040f26d13c2f2000301221a709fe740f285
:0c1b92006f13c2f2000301221a7098e7e2
:020000040000fa
:021b9e00fee760
:020000040000fa
:101ba000f7b5060001910b24002958d0002856d023
:101bb0002d4d0324ab78002b51d00124042b4ed0a3
:101bc0002a4f3b7cdb07db0f009348d102240368dc
:101bd0005b79013ba34242d801f0dcf93b88a34387
:101be0003b80234b234f1e60019b6b6000f0dcfbae
:101bf0008022214bd200da67bff34f8fbff36f8f84
:101c000001f0c8f903221d4b1a7001f0c3f901223b
:101c10001b49ff200b78000413430b70194b1a70fb
:101c2000c22380225b00d200fa503368d83a5b7935
:101c3000b9589b050340144801400b43bb50802317
:101c4000db007b606b461b882b8000f0dbfe061ef2
:101c500007d104232888ab703400fff7ebfc200089
:101c6000febdac70fbe7c0467c01002000240042b2
:101c70000000002000e100e008e100e02a2400422a
:0c1c8000292400428e020020ffff00ff1c
:020000040000fa
:101c8c008021f8b52c4bc9001a690a431a61c0228d
:101c9c001c69920114431c615c69214359615969a7
:101cac000a435a610b2300282dd003680c261c888c
:101cbc0000231d009ab2944227d80223002d22d073
:101ccc001e4e1f4cb378002b29d1012701f05cf973
:101cdc0023883b43238001f057f9a3692a031b0d8a
:101cec00120b1b051343a361b77000242b00e340b8
:101cfc00db0704d5134b0833e05c00f03bfe0134ea
:101d0c00142cf3d100231800f8bd32005a4341685b
:101d1c0001338a18116852680a431543cae701f067
:101d2c0033f9a269a3692a4312031b0d120b1b057d
:101d3c001343a361d9e7c046003400407c01002066
:081d4c00002400422e2d0000ce
:020000040000fa
:101d540041f20003c4f200030e221a7641f200435a
:101d6400c4f2000300221a7441f60043c4f20003d3
:101d74000632ff32c0f201021a6241f60042c4f296
:101d84000002042153681942fcd141f60043c4f215
:101d9400000340f20512c0f204025a6241f6004206
:101da400c4f20002082153681942fcd141f60043f1
:101db400c4f2000340f20512c0f228029a6241f60e
:101dc4000042c4f20002102153681942fcd141f6ca
:101dd4000043c4f20003ac224021995041f6004272
:101de400c4f20002ac2013581942fcd041f600435f
:101df400c4f20003cc224121995041f60042c4f2be
:0e1e04000002cc20013913581942fcd070475f
:020000040000fa
:101e120070b540f2d003c2f200031b7d002b4ad002
:101e220040f2d002c2f200029368516840f20042ce
:101e3200c4f20022127ed2071fd599421dd940f268
:101e42000041c4f20021072640f2d000c2f2000095
:101e520001250ae002685c00a25a0a85013344683f
:101e62000a7e2a4209d09c4207d94a683240012a96
:101e7200f0d00268d25c0a85f0e740f2d002c2f2ea
:101e82000002936052689a4215d840f2d003c2f21f
:101e9200000300221a755a6040f20042c4f2002286
:101ea20001211175db6833b140f2d003c2f20003a5
:081eb2001869db68984770bd58
:020000040000fa
:101eba0010b540f2d003c2f200032c229b5c3bb364
:101eca0040f2d003c2f20003da691b6a93421fd2be
:101eda0040f2d003c2f20003986a40f20041c4f211
:101eea0000210a8d92b21b6a4c6807212140012900
:101efa000fd040f2d001c2f200018969ca540133fd
:101f0a0040f2d002c2f200021362d2699a4208d0a9
:101f1a0010bd40f2d001c2f2000189695c00625230
:101f2a00ede740f2d003c2f2000300222c215a54fa
:101f3a00da6140f20042c4f20022583111755b6a3c
:101f4a00002be5d040f2d003c2f200035b6a984747
:021f5a00dee7c0
:020000040000fa
:101f5c0010b540f21e13c2f2000301221a8040f2a7
:101f6c00bc13c2f2000340f28421c2f200018200d1
:101f7c0014186400615c1970210040f28424c2f2d0
:101f8c000004a44661448c785c70cc789c700c790d
:101f9c00dc704c791c7189795971121852006244a9
:101fac001289da8078b140f2d413c2f2000340f205
:101fbc00bc12c2f200021a6040f29213c2f2000389
:101fcc0008221a8010bd40f2c413c2f200035978e3
:101fdc000822043000f0a0fd40f2bc11c2f2000156
:0a1fec000822022000f06afbece777
:020000040000fa
:021ff600fee704
:020000040000fa
:101ff80003211f4a70b5117002211e4b1e4c1a880e
:102008008a431a801d499b8f228809689bb2500019
:1020180043521b490978012902d002290fd070bd0b
:102028000132228000f0eafc002805d12088fff761
:10203800fdfa0423a370f2e763689847efe70c25dd
:102048000f20104955430e6871684d19a97a084048
:10205800e97a0025884201d2091acdb20621eb405f
:102068004a43b068821853800223a370a368e4e748
:102078002a240042002400427c01002004000020a1
:082088008e0200200000002080
:020000040000fa
:1020900030b5bff35f8f62b64ef20013cef200038d
:1020a00040f2003419591b480140c0221204114368
:1020b000195104211960143419590140114319515f
:1020c0008021c903196019590902090ac0252d0682
:1020d0002943195180210904196004341959ff2535
:1020e000a9433f3d294319518021490419601959d9
:1020f000094d29404cf200052943195180218904da
:1021000019601034195901400a431a5140f2004233
:0c2110005a6030bdffff00ffff00ffff22
:020000040000fa
:10211c0070b5040000283fd040f2d003c2f2000397
:10212c001b7d0020bbbb40f2d003c2f200031c603d
:10213c00596001221a75586840f20043c4f200231a
:10214c001b7edb0718d5d0b1002340f20041c4f24e
:10215c0000210726012507e0e25c0a8501330a7e8f
:10216c002a420bd098420ad04a683240012af3d155
:10217c005a00a25a0a85f1e7002000e0180040f24c
:10218c00d003c2f20003986040f20043c4f2002373
:0c219c0001229a75012070bd0020fce7b4
:020000040000fa
:1021a800f0b506241e4b44431a68002093681c1996
:1021b80063888b4229d029d2c91a89b249080120db
:1021c800842922d800200a291fd9cf250f261527b0
:1021d800a3881c009804800f68431d1235407d4376
:1021e8001b11334040195b00c018344080b2002cea
:1021f8000ed113680b4adb789b069b0f5b009b5a3a
:10220800594389b2884280414042f0bd591ad4e707
:10221800013080b2052cecd9053ce4b2e7e7c046b2
:08222800000000202e2d000033
:020000040000fa
:1022300010b540f21e13c2f2000305221a8040f2cc
:10224000b411c2f2000143001a18920040f2ec14db
:10225000c2f20004a4466244147a0c71547a4c71a0
:10226000927a8a711b189b006344db7acb7178b138
:1022700040f2d413c2f2000340f2b412c2f20002e0
:102280001a6040f29213c2f2000308221a8010bdb5
:1022900040f2c413c2f2000359782822043000f03f
:1022a00041fc40f2b411c2f200010822022000f009
:0422b0000bfaece752
:020000040000fa
:1022b400f7b50c25c3684d439c46032382684b4302
:1022c40055196c6863442d8964889f781b78641b56
:1022d400e41aa3b201930025436860461e88b54200
:1022e40001d10020febd8d4218d08378bb4215d1a8
:1022f40013787b33dbb2012b15d913899c465368c1
:102304005b889c450ad264461b1b04789bb2a3429b
:1023140004d91b1b019c9bb29c4204d30135adb272
:0a23240003300c32dbe70120dce798
:020000040000fa
:10232e0070b500f014fc40f27820c2f20000fff706
:10233e00a6fc40f29410c2f2000000f0f4fd00245e
:10234e0040f27825c2f200052100280000f039fd88
:10235e002100280000f02ffa0134a4b2052cf3d18d
:10236e0040f22015c2f20005002440f23826c2f2d7
:10237e000006e1b22a00300000f033fd0134a4b2b1
:10238e000635052cf5d140f22820c2f2000000f0ef
:08239e00a9fa00f078fc70bd03
:020000040000fa
:0223a600fee750
:020000040000fa
:1023a80070b500f0f3fd174b00261b68164d1b682f
:1023b80008249a78402a02d00a24802a1ad1ee7377
:1023c80030221b799443114a0f2b16d810490c4020
:1023d8000f210b401b0214401c430e4b1c4300f002
:1023e800d5fdd0232b8000f0d1fd6c6000f0cefd30
:1023f800002070bd0222ea73e2e780235b011c43e0
:102408001440eae70000002000240042fff0ffff2c
:08241800ffefffff4060000030
:020000040000fa
:1024200040f20043c4f2002340f20412c4f231022d
:102430001a60164a9a81c02292025a6040f2004203
:10244000c4f20022d369002bfcd140f20043c4f255
:1024500000231a6802210a431a6040f20042c4f2c3
:102460000022d369002bfcd140f2d003c2f200035a
:1024700000229a61da611a622c215a545a621a6057
:102480005a609a601a75da60da85704782e2ffff57
:020000040000fa
:1024900010b540f20043c4f200239b7dfbb140f233
:1024a0000042c4f20022137edbb2927d52b2002ab7
:1024b00016db40f20042c4f20022137edbb2927db2
:1024c000d20701d5db0711d440f20042c4f200224a
:1024d000137edbb2927d520701d55b0709d410bd94
:1024e0005bb2002be5da00f028fae2e7fff791fc97
:0824f000eae7fff7e2fcf2e766
:020000040000fa
:1024f80070b5012825d0042827d040f21e13c2f257
:10250800000301221a8040f2c413c2f200035e786d
:1025180000f03afc040043f21003c0f2000342004a
:10252800d55a2a003100042000f0f8fa42f69c63dc
:10253800c0f20003a400e1582a00022000f0c0f80d
:1025480002e00800fff770fe70bd0800fff702fd0b
:02255800fae7a0
:020000040000fa
:10255a0070b543001a18520040f22011c2f200016d
:10256a008c466244548840f2a012c2f200021480df
:10257a0040f25805c2f2000519188900ac466144b8
:10258a0009895180641a948019188900495dc9091a
:10259a0091711b185b0040f22011c2f200018c46b7
:0c25aa0063441979d1715b79137270bd24
:020000040000fa
:0225b60070476c
:020000040000fa
:1025b800013210b5d2b2002906d1134b180010bd54
:1025c800013a4000d2b280b203b2002b01db002aec
:1025d800f6d10bb2002b11da0023002aeed01cb280
:1025e800002ceadb5b00013a9bb2d2b2884203d3eb
:1025f800401a013380b29bb24908eee70132490024
:0c260800d2b289b2e5e7c046ffff000037
:020000040000fa
:1026140000230e4a10b513600d4a0e4c13600e4a87
:1026240013600e4a13600e4a13600e4a536213611c
:102634000133936000f02ffc00f02dfc0a4b9c4208
:1026440000d310bd08cc9847f8e7c046dc01002051
:1026540014000020000100001000002008000020e9
:0c2664000c000020180000200401000001
:020000040000fa
:1026700043f20003c4f200034cf63042c0f20302fe
:102680001a601a61002244215a5401315a5405310a
:102690005a5401315a5403315a5401315a540131b8
:1026a0005a5401315a545039582019540130195490
:1026b00031315a5403315a5402315a5401315a5467
:0826c0003c32163999547047b1
:020000040000fa
:1026c80010b540f2e813c2f200031b7803b110bd45
:1026d80040f2e713c2f20003187040f2e813c2f2a6
:1026e80000030120187040f2e613c2f200031870cc
:1026f80040f2e513c2f20003187040f2d413c2f29c
:102708000003196040f29213c2f200031a8008789d
:0627180000f0e2fbdbe72c
:020000040000fa
:10271e0010b542f2b753c0f20003984742f2b753d6
:10272e00c0f20003984700f07cfa40f20003c0f2ba
:10273e0000037f2293434ef60052cef200029360c6
:10274e0042f21563c0f20003984742f2b753c0f24b
:10275e000003984742f2b753c0f20003984700f0c7
:04276e0020fbfee767
:020000040000fa
:1027720042f20043c4f2000301221a8042f20042f4
:10278200c4f20002012113691942fcd142f2004352
:10279200c4f2000340f280121a80803aff3a1a62b1
:1027a20042f20042c4f20002202113691942fcd114
:1027b20042f20043c4f2000340f200125a81704711
:020000040000fa
:0227c200001005
:020000040000fa
:1027c400030010b50b20002b16d01a6802201488c1
:1027d4008c4211d992789b68402a0ed106228d2012
:1027e4004a4380009a189080002006225143022216
:1027f4005b1819780a431a7010bd803ad2b2012ac4
:10280400f3d806224a4301489a18ece7670500000a
:020000040000fa
:1028140010b540f2d213c2f200031a78d2b240f2d9
:102824009401c2f2000140f2d110c2f2000000781b
:1028340088541a780132d2b21a701b783c2b07d014
:1028440040f2d110c2f20000012100f008f810bdde
:0e28540040f2d213c2f2000300221a70f0e725
:020000040000fa
:1028620070b504000d00e8b140f2d003c2f20003db
:102872002c229b5c002003b170bd00f01af940f2db
:10288200d003c2f200039c61dd6100221a622c2196
:1028920001205854da8540f20043c4f20023843206
:0828a2009a75e9e70020e7e761
:020000040000fa
:1028aa0010b540f2cc12c2f2000240f28811c2f214
:1028ba00000183001c186400645c0121214011702e
:1028ca001918490040f28814c2f20004a44661446f
:1028da000c7a5470497a91701b185b006344997999
:0828ea00d170db79137110bd00
:020000040000fa
:1028f20030b584680b23002c10d0c16800290dd09c
:102902000022036806311a704068631c05790a20a8
:10291200684301302418a34202d10023180030bdbd
:102922001a7008780a315870d81c0280581d02802b
:08293200d81d02800a33eee714
:020000040000fa
:10293a0010b540f20043c4f200235a8b072311005a
:10294a0019401a4200d110bd40f2d004c2f200046c
:10295a00e18500f0aaf840f20043c4f20023842281
:10296a001a752c230022e254636a002bebd0a06a6a
:06297a00636a9847e7e7dd
:020000040000fa
:10298000012210b54308104210d00f210b4a9b18aa
:102990001a780a401a70102219780a431a70084be4
:1029a000c018002303700123037010bd0f240349d6
:1029b0005b181978a14319701978eee730300040a0
:0429c0004030004063
:020000040000fa
:1029c40010b5054c237833b9044b13b1044800e027
:1029d40000bf0123237010bd40010020000000004f
:1029e40000000000034b10b51bb10349034800e08d
:1029f40000bf10bd000000004401002000000000e2
:020000040000fa
:102a04000d4a70b51068012502680c491488062225
:102a14000b885a43a3420ad28668b65c06322e4219
:102a240002d101339bb2f5e700200b8070bd002377
:102a340001200b80fae7c046000000207c01002042
:020000040000fa
:102a440040f20043c4f2000300221a819a79012162
:102a54000a439a719b7803221340022b0bd040f255
:102a64000043c4f20003013a9a705202c4f2000215
:082a740093790b42fcd070477e
:020000040000fa
:102a7c0010b542f20042c4f20002918989b240f2d0
:102a8c007013c2f2000359600649918192891b6848
:102a9c003bb140f27013c2f20003586899681b688e
:082aac00984710bdffc1ffffb8
:020000040000fa
:102ab40040f20043c4f200235b8b5b0713d040f267
:102ac4000043c4f2002380221a76793a5a831b7e8b
:102ad4005b0708d540f20043c4f2002304211a8d99
:082ae4001a7e0a42fbd1704783
:020000040000fa
:102aec0010b543001a18920040f2ec11c2f200012a
:102afc008c46624440f2b411c2f200014c7954721b
:102b0c008c7994720c7914721b189b006344ca79eb
:082b1c00da7200f038f810bd78
:020000040000fa
:102b2400f8b507000e00140040f27725c2f2000544
:102b340000232b70552000f0e7f8380000f0e4f88b
:102b4400300000f0e1f8e0b200f0def8200a00f016
:082b5400dbf801232b70f8bd32
:020000040000fa
:102b5c0010b543f22900c0f20000002100f024fa65
:102b6c0042f20042c4f20002082113691942fcd15e
:102b7c0000f0f8f8002000f053f9142000f05ef992
:062b8c0000f0e0f810bdae
:020000040000fa
:102b920010b5040040f27820c2f200002100fff7d5
:102ba20010fe62001219520040f22013c2f200031a
:102bb2009c466244e1b240f23820c2f2000000f0ca
:042bc20016f910bd33
:020000040000fa
:102bc60040f2d313c2f200031a78d2b240f2940153
:102bd600c2f20001885c1a780132d2b21a701b78f0
:102be6003c2b00d0704740f2d313c2f20003002200
:042bf6001a70f7e773
:020000040000fa
:102bfa0010b544f20003c4f2001304225a60fff72e
:102c0a001cfffff730fdfff7a0f800f0acf9fef764
:102c1a000bfdfff700fcfff7a7fdfff783fbfff7ac
:042c2a0032fa10bdad
:020000040000fa
:022c2e007047ed
:020000040000fa
:102c300010b50a48016821b9436813b9fff7f7ffd7
:102c400010bd04008368064a9bb20c349b009b585d
:102c500042682000984780002018ebe7080d00002c
:042c6000482f0000f9
:020000040000fa
:102c640010b583001a18520040f28421c2f2000108
:102c74008c46624440f2bc11c2f200010c795471da
:102c84004c7994711b185b006344ca881a8110bd87
:020000040000fa
:102c940010b541f25740c0f20000002100f08ff956
:102ca40042f61500c0f20000002100f08ff940f256
:0e2cb400d110c2f200000121fff7d1fd10bdca
:020000040000fa
:102cc20040f2d213c2f20003187840f2d313c2f2d8
:102cd20000031b78c01a83b2002801dbc0b2704720
:062ce2003c3318b2fae7d2
:020000040000fa
:102ce80040f25c13c2f2000340f25822c2f2000222
:102cf8009178197092681178597051789970927812
:042d0800da707047c6
:020000040000fa
:102d0c0010b540f2e813c2f2000301221a7000f071
:102d1c00e1f840f2e812c2f200021378012bfcd069
:022d2c0010bdd8
:020000040000fa
:102d2e000700130035009000000102030506080994
:102d3e000a0b0e0f1011121316171e1f3f1c0b0538
:022d4e0003017f
:020000040000fa
:102d500042f20043c4f200031a8802210a431a8097
:102d600042f20042c4f2000213691942fcd17047da
:020000040000fa
:102d700042f20043c4f200031a8802218a431a80f7
:102d800042f20042c4f2000213691942fcd17047ba
:020000040000fa
:102d9000030058b1012809d0022807d0032805d024
:102da000042803d00020052b00d070471800fce752
:020000040000fa
:102db00010b50020fff721ff40f26d14c2f20004ad
:102dc000fef777fe2378012bfad1fef7e5fdf7e752
:020000040000fa
:102dd0000b2300280ad003681a8802238a4205d9e7
:102de00006235943012382688b540023180070473f
:020000040000fa
:102df0000b23002809d0002a07d00c234b438168fd
:0e2e0000c91801230b7000234a6018007047a8
:020000040000fa
:102e0e00002310b5934206d103201840421e904174
:0e2e1e009b08c01810bdc45ccc540133f2e711
:020000040000fa
:102e2c0042f20043c4f20003986142f20042c4f241
:0c2e3c000002082113691942fcd1704704
:020000040000fa
:102e480042f20043c4f20003186242f20042c4f2a4
:0c2e58000002202113691942fcd17047d0
:020000040000fa
:102e640070b505000e0041b10024fff7aafe2870da
:0c2e740001350134a4b2a642f7d170bdb4
:020000040000fa
:102e8000802806d0812806d082384342584140002d
:0a2e900070470020fce70120fae77c
:020000040000fa
:022e9a0070477f
:020000040000fa
:102e9c009c020020ec01002068020020920200201d
:082eac008402002064020020f2
:020000040000fa
:102eb40010b540f26f13c2f2000301221a701420fd
:062ec40000f06ef810bde5
:020000040000fa
:102eca0040f22823c2f200039a6883001b185b00b1
:062eda00d218d0887047f9
:020000040000fa
:102ee00010b540f2ab13c2f20003187001211800b4
:062ef000fff714f910bd0c
:020000040000fa
:102ef60040f23823c2f200039a6843001b189b0075
:042f0600d05c7047e4
:020000040000fa
:102f0a0040f22823c2f200039a6883001b185b0070
:042f1a00d05c7047d0
:020000040000fa
:102f1e0040f23e13c2f200031a8848f200010a433f
:042f2e001a8070474e
:020000040000fa
:102f34000b23002802d0024b1860002318007047ae
:042f44000400002065
:020000040000fa
:102f4800832f00000f2e00003f3000003f300000ac
:042f58003f30000006
:020000040000fa
:102f5c0003b47146490840004900095a49008e449f
:042f6c0003bc7047eb
:020000040000fa
:102f700044f20003c4f2001304225a60033a1a72a6
:022f8000704798
:020000040000fa
:102f82008a18914201d10020704700230b70013151
:022f9200f7e75f
:020000040000fa
:102f9400024ad36adb04db0cfbd1704700240042f5
:020000040000fa
:102fa400024b1a88801818807047c046ca01002056
:020000040000fa
:0e2fb40040f27013c2f200031860996070477b
:020000040000fa
:0e2fc20040f2d003c2f20003d86019617047dc
:020000040000fa
:0e2fd00040f2d003c2f20003586299627047cb
:020000040000fa
:0e2fde0040f26e13c2f2000301221a70704717
:020000040000fa
:0c2fec0010b500f015f8fff701f810bd5b
:020000040000fa
:0c2ff8005b250000ab280000e92c000065
:020000040000fa
:0c300400a0010020cc0100205c01002095
:020000040000fa
:0c3010000a0028000f0008000800030060
:020000040000fa
:0c301c000322014b1a7070472a24004266
:020000040000fa
:0830280010b5fff743ff10bdd6
:020000040000fa
:063030002d000500110057
:020000040000fa
:0630380009000500110073
:020000040000fa
:04303e0000207047b7
:020000040000fa
:0330440080818206
:020000040000fa
:033048000501017e
:020000040000fa
:0200000400807a
:044000007f438fb0bb
:020000040000fa
:0200000400807a
:04400400bbfcffff03
:020000040000fa
:0200000400807a
:04c0040000ffffff3b
:020000040000fa
:0200000400807a
:04c04000ffffffff00
:020000040000fa
:0200000400807a
:04c04400fffffffffc
:020000040000fa
:0200000400807a
:04c04800fffffffff8
:020000040000fa
:0200000400807a
:04c04c00fffffffff4
:00000001FF
