:020000040000fa
:10000000f0ff0020e91e0000331c000077200000f4
:1000100000000000000000000000000000000000e0
:10002000000000000000000000000000d7140000e5
:100030000000000000000000d7140000d7140000ea
:10004000d7140000d71400000d220000d7140000c0
:10005000d7140000d7140000d7140000d7140000f4
:10006000d7140000d7140000d7140000d7140000e4
:10007000d7140000d714000000000000d7140000bf
:10008000d7140000d7140000d7140000d7140000c4
:10009000d7140000d7140000d7140000d7140000b4
:1000a000d7140000d7140000d7140000d7140000a4
:1000b000d714000000000000d7140000d71400007f
:1000c000d7140000d7140000d7140000d714000084
:1000d000d7140000d7140000d7140000d714000074
:1000e000d7140000d7140000d71400001d1d000015
:1000f0001d1d00001d1d00001d1d0000d714000067
:10010000d7140000d7140000d7140000d714000043
:10011000d7140000d7140000d7140000d714000033
:10012000d7140000d7140000d7140000d714000023
:10013000d7140000d7140000d7140000d714000013
:10014000d7140000d7140000d7140000692700005e
:0c015000d7140000d7140000d7140000e2
:020000040000fa
:10015c00f8b5c046f8bc08bc9e4670477921000033
:10016c00f8b5c046f8bc08bc9e4670475521000047
:020000040000fa
:10017c00f0b587b00090009b0b20002b00d1e2e182
:10018c00002603275b68049602931b88019605934f
:10019c000396049b059a93421ed1009b1a68137810
:1001ac0059b200290bda0820002101268446049c50
:1001bc0088b2844200d9ffe07f210b401370039b6f
:1001cc00002b00d009e1019801231178002800d1ff
:1001dc005be10b4313705ae1009bb5009b685d1902
:1001ec001e236a681178194001d001232b702b78db
:1001fc00042b73d00ad8022b2ed043d8012b23d03a
:10020c00049b033601339bb20493c2e7852b00d1c8
:10021c0082e0862b00d1a9e0072bf1d129895388e4
:10022c0099425fd9c91a009b0298db6840799b5da3
:10023c0089b20341dbb28b4254d86b78002b69d165
:10024c0001232b701770dbe703930029d8d102230d
:10025c002b7008236b70d3e76978002910d0528873
:10026c00042904d92a810139697001237ce02b8986
:10027c009342f8d002d9013b2b81f4e70133fbe721
:10028c002f70bde7298953889942b9d0009ad2685a
:10029c0010d9cb1a0299925d49799bb20a41d2b21c
:1002ac009a42add8029b1b79002ba9d007222a7049
:1002bc006b70dae792195b1a11789bb299429fd84e
:1002cc009378002b05d00499009801f06ffc00285e
:1002dc0096d104232b70029b9b78e9e729895388dc
:1002ec00994202d92f700023b4e7009a5b1ad268a6
:1002fc009bb2921911789942f4d29378002b06d0c4
:10030c000499009801f052fc002800d078e76b7833
:10031c00002b47d0013bcbe7029b00991b7a096865
:10032c000b7128895388984207d986232b70029b1e
:10033c009b786b700123019316e0009a1b1ad2680c
:10034c009bb291190a784978140001310c410121b2
:10035c00121bd2b201919a4200d251e786232b7024
:10036c00029b9b786b700b00039349e72889538899
:10037c00984209d96b78002b01d12f7001e0013b19
:10038c006b70012301933be7009a1b1ad2689bb256
:10039c0091190a784978140001310c41121bd2b220
:1003ac009a4204d285232b70029bdb78e8e76b78aa
:1003bc00002be2d0013bbce70c2500984d43806834
:1003cc0045196f683878304205d164462d78a543bd
:1003dc0001d0304338700131e9e6029b597a00298b
:1003ec0000d1f0e6802310785b420343137001299f
:1003fc0000d0e8e600218bb20393049b88b28342c1
:10040c0000d8e0e60c20009b48439b680825181890
:10041c00029303781c00ac4315d0852b01d0032b21
:10042c002ed10325009bdf682b004b43fb189b78d8
:10043c009c46002b07d000231e000595049c9c4273
:10044c0008d8002e1cd1012540680378ab430370fb
:10045c000131d0e7039c9c420fd00c255d43029cdc
:10046c002d5d042d01d0862d07d1059d5d437d1991
:10047c00ad78654501d10126049b01339bb2dde7c4
:10048c000123406805782b43e1e7994311705288aa
:10049c00584b11001b88c8318b4251d99b1a9bb207
:1004ac009c466346c82b4dd96346c83b9bb29c46c1
:1004bc00009b1b685a88c8325a801a79002a00d0cf
:1004cc0070e05a79002a01d0013a5a719a79002abf
:1004dc0001d0013a9a71009a50688679002e07d0a3
:1004ec005a79002a04d1078891b28f4234d85e71b0
:1004fc00c579002d07d09a79002a04d1068891b2cb
:10050c00b1423cd39d71009b5b68da78002ac8d05d
:10051c001f880c23002103207b4302938bb2bb4228
:10052c00bfd20c22009b4a439b689a181578852de4
:10053c0004d15578002d38d0013d55700131ede7cf
:10054c00934202d3002007b0f0bd2b495918891ae9
:10055c00c829f7d9013ba1e70c21009c5143a468a1
:10056c0061180d78032d01d0082d06d14c680d892a
:10057c006488ac4201d901350d810132b4e70c21fc
:10058c0000985143806841180878032801d0082846
:10059c0006d14c6808896788874201d201380881e6
:1005ac000132ace7013a1a71ade701240500147071
:1005bc0052684d431070009ad2685519ad78002dd1
:1005cc00bcd0029c02321c1901920394039a9342f0
:1005dc00b4d0019a1678ae4206d101225e68347806
:1005ec00144201d01a703070019a0c33033201920c
:0c05fc00ece7c0465a010020ffff0000a1
:020000040000fa
:100608000322f0b5ab4b89b09b780392002b14d032
:10061800a94b1b6804931b6805931b880693a74b7b
:100628001b6807930023029303936b461a89069b62
:100638009a4205d302229f4b9a70039809b0f0bde5
:10064800029b07995b00cc5a062302994b430499f5
:100658008968cd180c2302992e784b430499f60625
:100668004968760fcb180193db7a042e00d96ae12a
:10067800300002f025f8050013004a012b01dd00c7
:100688000f21019a927a0a40934201d99e1af6b232
:1006980034416c80029b01330293c6e71c41884aaf
:1006a800a3b26b80af88934217d9864a9b18320051
:1006b8009bb205995b088978402913d0002a13d08a
:1006c800814a0026974211d181232b700e23039370
:1006d8002b785a0625d5012330e0794ad31a9bb2e4
:1006e8000022e6e7002aebd0002fedd0092befd946
:1006f8000f24b9043a123811890f224020402740ac
:10070800002e3ad0cf2b01d9002966d1152b6ed9ee
:10071800002a67d1002291426bd00139c9b20a225e
:1007280067e05bb2002b0adb0322059bdb781340f2
:10073800934208d1ff23019a137211232b70bf042f
:10074800bf0caf80a6e7022b07d10f22019b5b7a73
:100758009343019a53720923f0e7012bbbd10f226f
:10076800019b5b7a1a4050231343019a53720d235d
:10077800e4e70131cf3bc9b29bb2cf2b01d90329a2
:10078800f7d1152b0dd90f2a06d10f2203290ad02c
:100798000131c9b2052206e00132153bd2b29bb243
:1007a800efe70f2af1d0022b11d90f280ad10f2a0f
:1007b80000d1c9e00132d2b2052003290bd0022ba7
:1007c800dbd826e00130023bc0b29bb2ebe70f2832
:1007d800edd003291dd10321f1e70139cf3bc9b27f
:1007e8009bb28fe7013a153bd2b29bb28ee7002a43
:1007f80090d0022b0bd9002804d1002a11d1170060
:10080800100006e00138023bc0b29bb2f1e70028b5
:10081800f3d009038cb212021443274300010743a3
:100828008fe7013ad2b20a20022b00d96ae7f0e733
:100838001c41019ba4b21f7a01200023ff2f14d171
:100848007f23019a6c8013722b78012b00d021e74b
:10085800ff33ff339c4273d91a4be418a4b20a2c15
:1008680000d817e745232b7014e73900d940002634
:10087800014201d11e0008230133dbb2072bf4d952
:100888002100100001f00ef9002804d00123b34024
:100898001f43019b1f720123002e08d0013ef6b2b0
:1008a800b340019a127a9a43019b1a72cce72b70d3
:1008b800cae7c0460c010020000000200400002008
:1008c800ff01000001feffffff3f00001c41019bec
:1008d800a4b25f7a3e09052e15d02100100001f060
:1008e800e1f800280ad1013601232b700f233601c5
:1008f8001f40019b3e435e726c80a5e7002ef3d03b
:10090800013ef6b2f2e70426f0e71c410f26019bf0
:10091800a4b25f7a3e4011d02100100001f0c2f865
:10092800002806d1013ef6b201232b700f239f4306
:10093800dfe7032ef8d00136f6b2f7e70126f5e730
:10094800044b1c1b8ae7fee7032900d157e7100078
:0809580035e7c046ff01000075
:020000040000fa
:10096000c40000201c00000000000000f400002073
:100970000c00000000000000940000203000000087
:1009800000000000680100201000000001000000cd
:1009900024010020b001002000010020dc01002023
:1009a000dc0100200300000001000000dc01000069
:1009b000000100200c0000000000000024010020c5
:1009c0000800000000000000b00100200a00000044
:1009d00001000000010004000500140514010000de
:1009e000c80100200800000001000000780100207c
:1009f0008801002078010020200000000100000094
:100a000000000000340100203c0100205c010020b7
:100a100001000300d4010020d801002001190600c4
:100a20005c0100200300000000000000d80100204d
:100a3000030000000100000000010200340100205a
:100a400006000000000000009801002018000000cf
:100a500001000000d0010020a40100203c01002082
:100a60000200000000000040000000043c010020e3
:100a70000600000000000000d00100200600000079
:100a80000100000001008130000200005801002038
:100a90000200000000000000f10000200300000040
:100aa0000000000021010020030000000000000001
:100ab0005f01002001000000000000002c01002068
:100ac0000800000000000000bc0100200a00000037
:100ad00001000000023600011700000500000000c0
:100ae000180100200900000000000000580000204c
:100af0003c00000000000000600100200300000036
:100b0000000000003a010020020000000000000088
:100b100042010020020000000000000063010020ec
:100b20000300000000000000db01002001000000c5
:100b3000010000000100000066010020020000002a
:100b4000000000004c010020040000000000000034
:100b50004a010020020000000000000044010020c3
:100b60000600000000000000e0000020110000006e
:100b700000000000ba010020010000000100000098
:100b8000010000000c0100200c000000000000002b
:100b90000000002008000000000000005a010020b2
:100ba00002000000000000005001002004000000ce
:100bb00000000000080000205000000000000000bd
:100bc00054010020040000000000000000000000ac
:100bd000000000006666666666666666666666664d
:020000040000fa
:100be00010b540f24413c2f200031b79022b19d056
:100bf000032b67d0002b00d09ae001f05ffc0528a2
:100c000000d89be001f0ddfb552800d096e040f2d3
:100c10004414c2f200040421200001f0fefc02236f
:100c200023718be040f24413c2f200031b78022bc5
:100c300022d0012b00d081e001f040fc012800d837
:100c40007ce001f0befb040001f0bbfb002c75d181
:100c5000aa2873d140f24211c2f200010b8840f27f
:100c60004412c2f200025478a938a04003439bb258
:100c70000b800323137161e040f24413c2f20003be
:100c80005c883b2c08d940f24413c2f20003587828
:100c9000210000f095fb51e001f010fc84424dd2a0
:100ca00040f24211c2f200010b8840f24412c2f23b
:100cb000000254780120a04003439bb20b80032321
:100cc00013713be040f26613c2f200031b78abbb2a
:100cd00040f24213c2f200031b881b052ed040f2e3
:100ce0004413c2f200031b78012b16d0022b25d12e
:100cf00040f24414c2f200046188607800f060fba6
:100d00000023237140f24213c2f200031a88607874
:100d1000012181408a431a8010e040f24414c2f25b
:100d200000046078002101f0b4f80023237105e08d
:100d300040f24413c2f2000300221a7140f266131b
:100d4000c2f200031b783bb940f24213c2f2000327
:100d50001b881bb2002b00db10bd40f22214c2f234
:100d60000004237842f2b072c0f20002d15c40f27b
:100d70006712c2f2000211701178c9b242f2a47275
:100d8000c0f200025b009a5a032001f093fa42f28b
:100d90009473c0f2000322789200d3580020984741
:100da000237840f23a12c2f2000242f2b471c0f269
:100db0000001c95c118042f2a872c0f20002590021
:100dc0008a5a42f29c71c0f200019b0059580120de
:100dd00001f034f823780133dbb2022b01d0237009
:100de000bae740f22213c2f2000300221a70b3e7fe
:020000040000fa
:100df000f0b502008db00b20002a6ad0556811684a
:100e0000ab7801934b7802932b7b002b3ed00024d0
:100e100020002b889c46019b5b000393029b5e0095
:100e20006746a3b29f4256d86b7b984200d87be0be
:100e3000cb6802995b1819780131197011685368f1
:100e40004878c968085c997b88421fd169469d68cb
:100e5000029b0989e81803780391002b53d0013bca
:100e6000dbb26e466f46b68800213e823e8a012480
:100e7000b44667468eb2b74247d8002cedd0037017
:100e80000023180051688978994247d8029b694627
:100e90005b000a93019b56685b08013306936b461f
:100ea0009b888b818b890b9300239c46039333880b
:100eb00003998b4244d8029b01990133dbb28b42e8
:100ec0008941b0680b40c05c7168087000201268ee
:100ed00053700db0f0bd062363438f68fb185f8825
:100ee0004b689b5b9f420ad9fb1a9bb21f1c834233
:100ef00000d2071cb8b2039b0134f61890e79f425a
:100f0000f9d2db1bf1e70f23abe7039fb74203d016
:100f10006e5c9e4200d100240131aae71168c968c5
:100f2000c85401339bb2ade75b088342aed9cb68ae
:100f300002995b1819780029a8d001391970a5e722
:100f40000623039910684b438168cb1804931b78e0
:100f5000db065b0f40d161464068490041180591ae
:100f60000499059849880a9c09930153019999426b
:100f70002ed9002005995d0049190891040001212e
:100f80000de09f420ad0059d6700ed5b0795089d27
:100f90002f88079dbd4215d10131c9b20134019d91
:100fa000e7b2bd42edd8069c8c4204d9844206d9f2
:100fb0004118a14203db089b1b880993019b013365
:100fc000dbb2d3e7079dbd42e8d20130c0b2e5e70e
:100fd0006946049b898c5980039b0b9901339bb212
:0e0fe000039363468c4663449bb29c465fe7d6
:020000040000fa
:020fee0070474a
:020000040000fa
:100ff000f0b585b0029001f08bfb0222704e002408
:1010000033889343338001f083fb0c23029a6d4da8
:101010005a432b6801925b689b185b6833620096a9
:101020002b685a68019bd2180123a34052681a42c8
:1010300007d01f21644b0833e05c0140400901f0f8
:101040001bf80134202cebd101f062fb2b68019ad4
:101050005b6801219b589c466246009bda61002236
:10106000594b083303930b006046934018421bd042
:101070001f27039bd45c66092740f0017b081b18df
:1010800052481b1818780c4200d190e00f242040e1
:10109000187050201c7820431870f6014c4bbf1973
:1010a000ff1800233b7039700132202adbd1062261
:1010b000029b444f5a4339688b689b181a789c8866
:1010c000920701d505221a701e7801f021fb00233a
:1010d000f606760f9e4205d13b68019a5b689b1825
:1010e0009b7a1b09384a3b492832d35c0f221a40ad
:1010f00012040c4014439b06374a9b0f1b051440f7
:101100001c433b68019a5b689b181b7afa2b54d8e6
:10111000043324021b06240a07261c4301f0f8fab4
:101120002b68019a5b682d499b185b7a009a1b0912
:10113000526833400a401b051343009a536001f084
:10114000e7fa03202b685968019bc9184a7a009b6b
:1011500002401b882248120203401343009a138066
:10116000cb7a1e4001f0d4fa009bb6b29c6001f02d
:10117000cffa009b9e8101f0cbfa3022009b9b7b33
:101180009343009a937301f0c3fa009b1a880223d9
:101190001343009a138001f0bbfa009b1a7c0123d1
:1011a0001343009a137401f0b3fa05b0f0bd0f2495
:1011b000a04318701c7805206de7ff231b06abe7e2
:1011c00000400042000000208e240000303000402b
:1011d00040300040fffff0ffffffcfffffff8fff1a
:0411e000fffcffff12
:020000040000fa
:1011e40010b540f2db13c2f200031b78012b06d0ca
:1011f40040f26613c2f2000300221a7010bd40f2de
:101204006313c2f200031b78dbb240f24a12c2f24b
:10121400000212889a4244d840f26513c2f20003d5
:101224001b78022b50d040f26513c2f200031b78e6
:10123400012be3d140f26413c2f200031b78dbb24a
:1012440040f23a12c2f200021288934200d391e0b3
:1012540040f26713c2f200031878c0b201f04efaec
:1012640040f26414c2f200042378dbb242f29472b6
:10127400c0f20002800082581800904740f26313c5
:10128400c2f2000301221a7023780133dbb2237007
:1012940040f24c13c2f200031b68187801f0d4f931
:1012a400ace740f26314c2f200042378dbb240f2ec
:1012b4004c12c2f200021268d05c01f0c5f9237826
:1012c4000133dbb2237099e740f26413c2f20003e6
:1012d4001b78dbb240f23a12c2f200021288934247
:1012e4000ed340f26413c2f200031b78dbb29a42bd
:1012f40026d040f26613c2f2000300221a707de782
:1013040040f26414c2f200042178c9b240f24413da
:10131400c2f20003587800f0bafd40f26313c2f23f
:10132400000301221a7023780133dbb2237040f2e8
:101334004c13c2f200031b68187801f085f95de7cd
:1013440040f26412c2f2000213780133dbb213706c
:1013540040f24213c2f200031a8840f24411c2f26e
:1013640000014878012181408a431a80aa2001f0b3
:101374006bf943e740f26413c2f200031b78dbb25b
:101384009a4206d040f26613c2f2000300221a7099
:1013940034e740f26412c2f2000213780133dbb284
:1013a400137040f24213c2f200031a8847f6ff7129
:0c13b4000a401a80aa2001f047f91fe748
:020000040000fa
:1013c000f8b5040001f07af80500012c15d0022cc4
:1013d00018d08cb1200001f0d7f840f24413c2f2cb
:1013e0000003598842f28c63c0f200038000c058a9
:1013f00001f013f900f0e5fff8bd40f22317c2f247
:10140000000741e040f22317c2f20007032df3d991
:101410003c786600361940f2dc13c2f200039c46a9
:10142000664400f0ceff307000f0cbff707000f02b
:10143000c8ffb0700134e4b23c70033dadb2012c82
:10144000e4d140f22313c2f200030021197040f2ec
:101450004412c2f20002117140f24213c2f20003c0
:1014600019885078012282409143198000f0a9ff29
:10147000c2e7387800f002ff3b780133dbb23b7003
:10148000083dadb2012b0ed0082db5d940f22c1479
:10149000c2f200042600083600f093ff20700134e9
:1014a000b442f9d1e5e740f22313c2f20003002170
:1014b000197040f24412c2f20002117140f242135c
:1014c000c2f20003198850780122824091431980aa
:0614d00000f077ff90e739
:020000040000fa
:0214d600fee72f
:020000040000fa
:1014d800f7b5060001910b24002953d0002851d0fc
:1014e8002a4d0324ab78002b4cd00124042b49d07f
:1014f800274f3b7cdb07db0f009343d102240368b3
:101508005b79013ba3423dd801f0fef83b88a34339
:101518003b80204b204f1e60019b6b6000f086fbd8
:1015280008221e4b1a60bff34f8fbff36f8f01f075
:10153800ebf803221a4b1a7001f0e6f80122194958
:101548000b7813430b70184bd0211a70c423082250
:101558005b00fa50890033687a585b791202120ae4
:101568009b0713437b500823bb606b461b882b806b
:1015780000f00cfe061e07d104232888ab70340047
:10158800fff732fd2000febdac70fbe70c01002028
:10159800004000420000002000e100e088e100e097
:0c15a8002a40004229400042ba01002005
:020000040000fa
:1015b40010b540f22113c2f200031b78012b09d0ad
:1015c40040f2f303c2f200031b78012b15d0fff79e
:1015d40005fb10bd42f25b71c0f2000140f29810ad
:1015e400c2f20000fff776ff0028e9d140f2211390
:1015f400c2f2000300221a70e2e740f2f303c2f2df
:10160400000300221a70fef7fdffd8b940f2c8109b
:10161400c2f20000fff7eafb68b940f26810c2f2b8
:101624000000fef7a9fd98b140f2f103c2f20003f5
:1016340003221a700ce040f2f103c2f2000302220a
:101644001a70eae740f2f103c2f2000301221a70b1
:1016540001f00ff840f26813c2f200031b681b7814
:101664007f2b06d840f2f203c2f2000301221a7063
:10167400ade740f22113c2f2000301221a70a6e77b
:020000040000fa
:1016840070b540f29403c2f200031b7d002b4ad0d4
:1016940040f29402c2f200029368516841f20002df
:1016a400c4f20022127ed2071fd599421dd941f2fd
:1016b4000001c4f20021072640f29400c2f20000a7
:1016c40001250ae002685c00a25a8a620133446878
:1016d4000a7e2a4209d09c4207d94a683240012a2c
:1016e400f0d00268d25c8a62f0e740f29402c2f25f
:1016f4000002936052689a4215d840f29403c2f2f1
:10170400000300221a755a6041f20002c4f200225a
:1017140001211175db6833b140f29403c2f2000376
:081724001869db68984770bded
:020000040000fa
:10172c0010b540f29403c2f200032c229b5c33b33d
:10173c0040f29403c2f20003da691b6a93421ed290
:10174c0040f29403c2f20003986a41f20002c4f220
:10175c000022916a1b6a546807222240012a0fd08a
:10176c0040f29402c2f200029269d154013340f269
:10177c009402c2f200021362d2699a4208d010bde0
:10178c0040f29402c2f2000292695c00a152ede7b1
:10179c0040f29403c2f2000300222c215a54da6165
:1017ac0041f20002c4f20022583111755b6a002b21
:1017bc00e5d040f29403c2f200035b6a9847dee77f
:020000040000fa
:1017cc0041f20003c4f20003ca221a7641f200432c
:1017dc00c4f2000300221a7441f60043c4f2000361
:1017ec000632ff32c0f201021a6241f60042c4f224
:1017fc000002042153681942fcd141f60043c4f2a3
:10180c00000340f20512c0f203025a6241f6004294
:10181c00c4f20002082153681942fcd141f600437e
:10182c00c4f20003d0224021995041f60042c4f288
:10183c000002d02013581942fcd041f60043c4f2e8
:10184c000003fc224121995041f60042c4f20002ef
:0c185c00fc20013913581942fcd07047e1
:020000040000fa
:1018680003211f4a70b5117002211e4b1e4c1a88a5
:101878008a431a801d499b8f228809689bb25000b1
:1018880043521b490978012902d002290fd070bda3
:101898000132228000f07afc002805d12088fff769
:1018a800a3fb0423a370f2e763689847efe70c25ce
:1018b8000f20104955430e6871684d19a97a0840e0
:1018c800e97a0025884201d2091acdb20621eb40f7
:1018d8004a43b068821853800223a370a368e4e7e0
:1018e8002a400042004000420c0100200400002071
:0818f800ba01002000000020ed
:020000040000fa
:1019000070b5bff35f8f62b64ef20013cef20003e4
:1019100040f200315a581c4d2a40c024240422436e
:101920005a5004221a6028315a581202120ac02052
:10193000000602435a5040f600025a6040f22c3230
:101940009958ff26b1433f3e3143995041f200017f
:10195000596099580d4e31404cf200063143995070
:1019600042f200015960995829400c439c5044f2be
:1019700000025a6040f240315a581202120a1043d3
:10198000585008229a6070bdffff00ffff00ffff64
:020000040000fa
:10199000f8b50b2300282ad003680c261d880023e5
:1019a0001c009ab2954224d80223002c1fd0194e55
:1019b000194db378002b26d1012700f0a9fe2b8802
:1019c0003b432b8000f0a4feac61b77000252300e0
:1019d000eb40db0707d51f21104b0833e85c0140c3
:1019e000400900f049fb0135202df0d100231800fb
:1019f000f8bd32005a43416801338a1811685268b1
:101a00000a431443cde700f083feab692343ab6187
:101a1000dce7c0460c010020004000428e2400009c
:020000040000fa
:101a200070b5040000283fd040f29403c2f20003d6
:101a30001b7d0020bbbb40f29403c2f200031c607c
:101a4000596001221a75586841f20003c4f200235c
:101a50001b7edb0718d5d0b1002341f20001c4f290
:101a600000210726012507e0e25c8a6201330a7e35
:101a70002a420bd098420ad04a683240012af3d158
:101a80005a00a25a8a62f1e7002000e0180040f2f2
:101a90009403c2f20003986041f20003c4f20023f1
:0c1aa00001229a75012070bd0020fce7b7
:020000040000fa
:101aac00f0b506241e4b44431a68002093681c1999
:101abc0063888b4229d029d2c91a89b249080120de
:101acc00842922d800200a291fd9cf250f261527b3
:101adc00a3881c009804800f68431d1235407d4379
:101aec001b11334040195b00c018344080b2002ced
:101afc000ed113680b4adb789b069b0f5b009b5a3d
:101b0c00594389b2884280414042f0bd591ad4e70a
:101b1c00013080b2052cecd9053ce4b2e7e7c046b5
:081b2c00000000208e240000df
:020000040000fa
:101b340010b540f23a13c2f2000301221a8040f2b7
:101b44002c11c2f2000143001a18920040f2a414ae
:101b5400c2f20004a4466244147a0c71547a4c71a3
:101b6400927a8a711b189b006344db7acb7178b13b
:101b740040f24c13c2f2000340f22c12c2f20002f3
:101b84001a6040f24a13c2f2000308221a8010bd00
:101b940040f24413c2f2000359780822043000f0e2
:101ba40087fb40f22c11c2f200010822022000f04f
:041bb40043f9ece71e
:020000040000fa
:101bb800f7b50c25c3684d439c46032382684b4305
:101bc80055196c6863442d8964889f781b78641b59
:101bd800e41aa3b201930025436860461e88b54203
:101be80001d10020febd8d4218d08378bb4215d1ab
:101bf80013787b33dbb2012b15d913899c465368c4
:101c08005b889c450ad264461b1b04789bb2a3429e
:101c180004d91b1b019c9bb29c4204d30135adb275
:0a1c280003300c32dbe70120dce79b
:020000040000fa
:021c3200fee7cb
:020000040000fa
:101c340070b500f06bfd174b00261b68164d1b6832
:101c440008249a78402a02d00a24802a1ad1ee73f2
:101c540030221b799443114a0f2b16d810490c409b
:101c64000f210b401b0214401c430e4b1c4300f07d
:101c74004dfdd0232b8000f049fd6c6000f046fd43
:101c8400002070bd0222ea73e2e780235b011c435b
:101c94001440eae70000002000400042fff0ffff8c
:081ca400ffefffff40600000ac
:020000040000fa
:101cac0041f20003c4f2002340f20412c4f2100209
:101cbc001a60164a9a81c02292025a6041f20002be
:101ccc00c4f20022d369002bfcd141f20003c4f210
:101cdc0000231a6802210a431a6041f20002c4f27e
:101cec000022d369002bfcd140f29403c2f2000312
:101cfc0000229a61da611a622c215a545a621a60d3
:101d0c005a609a601a75da60da857047add8ffffb1
:020000040000fa
:101d1c0010b541f20003c4f200239b7dfbb141f2ec
:101d2c000002c4f20022137edbb2927d52b2002a72
:101d3c0016db41f20002c4f20022137edbb2927d6c
:101d4c00d20701d5db0711d441f20002c4f2002204
:101d5c00137edbb2927d520701d55b0709d410bd0f
:101d6c005bb2002be5da00f0cbf9e2e7fff784fc7d
:081d7c00eae7fff7d5fcf2e7ee
:020000040000fa
:101d840070b543001a18520040f23c11c2f200012f
:101d94008c466244548840f21812c2f20002148045
:101da40040f20015c2f2000519188900ac466144de
:101db40009895180641a948019188900495dc909f8
:101dc40091711b185b0040f23c11c2f200018c4679
:0c1dd40063441979d1715b79137270bd02
:020000040000fa
:101de00000230e4a10b513600d4a0e4c13600e4ac4
:101df00013600e4a13600e4a13600e4a5362136159
:101e00000133936000f041fc00f03ffc0a4b9c4220
:101e100000d310bd08cc9847f8e7c0465401002015
:101e200014000020680100001000002008000020bd
:0c1e30000c000020180000206c010000d5
:020000040000fa
:101e3c0010b540f26613c2f200031b7803b110bd5b
:101e4c0040f26513c2f20003187040f26613c2f23e
:101e5c0000030120187040f26413c2f200031870e2
:101e6c0040f26313c2f20003187040f24c13c2f23a
:101e7c000003196040f24a13c2f200031a8008787a
:061e8c0000f0defbdbe7c5
:020000040000fa
:101e920070b5012823d040f23a13c2f200030122a6
:101ea2001a8040f24413c2f200035e7800f06bfb2a
:101eb200040042f28073c0f200034200d55a2a00a5
:101ec2003100042000f0f5f942f28c63c0f2000305
:101ed200a400e1582a000220fff7afff70bd0800fe
:061ee200fff727fefae7fe
:020000040000fa
:101ee80010b542f25313c0f20003984742f253135d
:101ef800c0f20003984700f095fa40f20003c0f2e0
:101f080000037f2293434ef60052cef20002936004
:101f180041f6e153c0f20003984742f25313c0f26e
:101f28000003984742f25313c0f20003984700f0a9
:041f38000ffafee7b7
:020000040000fa
:101f3c0042f20043c4f2000301221a8042f2004232
:101f4c00c4f20002012113691942fcd142f2004390
:101f5c00c4f2000340f280121a80803aff3a1a62ef
:101f6c0042f20042c4f20002202113691942fcd152
:101f7c0042f20043c4f2000340f200125a8170474f
:020000040000fa
:101f8c00030010b50b20002b16d01a680220148801
:101f9c008c4211d992789b68402a0ed106228d2052
:101fac004a4380009a189080002006225143022256
:101fbc005b1819780a431a7010bd803ad2b2012a04
:101fcc00f3d806224a4301489a18ece7670500004b
:020000040000fa
:101fdc0010b540f26113c2f200031a78d2b240f28b
:101fec005801c2f2000140f26010c2f20000007809
:101ffc0088541a780132d2b21a701b783c2b07d055
:10200c0040f26010c2f20000012100f055f810bd42
:0e201c0040f26113c2f2000300221a70f0e7d6
:020000040000fa
:10202a0010b500f079f940f29814c2f200042000c9
:10203a00fff7a9fc40f25810c2f2000000f02bfb97
:10204a000021200000f08bfa00212000fff799ff01
:10205a0040f23c12c2f2000240f26810c2f20000e2
:0c206a00002100f09bfa00f0f6f910bd18
:020000040000fa
:02207600fee783
:020000040000fa
:1020780001224b08c00130b51b18114211d00f24a2
:102088000c4a9b181a7822401a7010221c78224396
:102098001a70094b0918c91800230b7001230b701b
:1020a80030bd0f25034c1b191c78ac431c701c78e1
:0c20b800ede7c0463030004040300040f2
:020000040000fa
:1020c40070b504000d00e8b140f29403c2f20003bd
:1020d4002c229b5c002003b170bd00f0b1f840f2eb
:1020e4009403c2f200039c61dd6100221a622c2178
:1020f40001205854da8541f20003c4f200238432eb
:082104009a75e9e70020e7e706
:020000040000fa
:10210c0010b541f20003c4f200235a8b07231100cf
:10211c0019401a4200d110bd40f29404c2f20004de
:10212c00e18500f089f841f20003c4f20023842217
:10213c001a752c230022e254636a002bebd0a06aa0
:06214c00636a9847e7e713
:020000040000fa
:022152007047d4
:020000040000fa
:1021540010b5054c237833b9044b13b1044800e09f
:1021640000bf0123237010bdc40000200000000044
:1021740000000000034b10b51bb10349034800e005
:1021840000bf10bd00000000c800002000000000d7
:020000040000fa
:102194000d4a70b51068012502680c49148806229e
:1021a4000b885a43a3420ad28668b65c06322e4292
:1021b40002d101339bb2f5e700200b8070bd0023f0
:1021c40001200b80fae7c046000000200c0100202b
:020000040000fa
:1021d40040f20043c4f2000300221a819a790121db
:1021e4000a439a719b7803221340022b0bd040f2ce
:1021f4000043c4f20003013a9a705202c4f200028e
:0822040093790b42fcd07047f6
:020000040000fa
:10220c0010b542f20042c4f20002918989b240f248
:10221c00f403c2f2000359600649918192891b684c
:10222c003bb140f2f403c2f20003586899681b6892
:08223c00984710bdffc1ffff30
:020000040000fa
:1022440041f20003c4f200235b8b5b0713d041f21d
:102254000003c4f2002380221a76793a5a831b7e43
:102264005b0708d541f20003c4f2002304219a6af3
:082274001a7e0a42fbd17047fb
:020000040000fa
:10227c0010b543001a18920040f2a411c2f20001ea
:10228c008c46624440f22c11c2f200014c7954721b
:10229c008c7994720c7914721b189b006344ca7964
:0822ac00da7200f06ef810bdbb
:020000040000fa
:1022b400f8b507000e00140040f2db15c2f2000569
:1022c40000232b70552000f01cf9380000f019f998
:1022d400300000f016f9e0b200f013f9200a00f023
:0822e40010f901232b70f8bd75
:020000040000fa
:1022ec0043f20003c4f200030122d4215a540131f9
:1022fc005a54b932b339995480221203de315a50f0
:10230c0010315a5040f253120f39ff3999541a3a7e
:06231c00002199547047f6
:020000040000fa
:1023220010b542f28b70c0f20000002100f0fff9fc
:1023320042f20042c4f20002082113691942fcd1a0
:1023420000f001f9002000f04bf9142000f056f9da
:0623520000f0e9f810bde7
:020000040000fa
:1023580010b5002000f04bf843f20004c4f200046a
:1023680004e040f2181380221203e250fff71ef92e
:10237800002000f072f90006f3d540f21413802211
:062388001203e250f2e72f
:020000040000fa
:10238e0010b5040040f29810c2f200002100fff7d1
:10239e00f6fd62001219520040f23c13c2f2000325
:1023ae009c466244e1b240f26810c2f2000000f0b6
:0423be00f3f810bd63
:020000040000fa
:1023c20040f26213c2f200031a78d2b240f258010c
:1023d200c2f20001885c1a780132d2b21a701b78fc
:1023e2003c2b00d0704740f26213c2f2000300227d
:0423f2001a70f7e77f
:020000040000fa
:1023f60010b5fff7ecfe44f20003c4f2001304220a
:102406005a60fff770fffff7def9fff74cfc00f0ac
:1024160062f9fef7e9fdfff78efdfff703fefff712
:042426006cfa10bd7f
:020000040000fa
:02242a007047f9
:020000040000fa
:10242c0010b50a48016821b9436813b9fff7f7ffe3
:10243c0010bd04008368064a9bb20c349b009b5869
:10244c0042682000984780002018ebe760090000e4
:04245c00b4260000a2
:020000040000fa
:1024600010b541f2e510c0f20000002100f067f95c
:1024700041f6dd70c0f20000002100f067f940f283
:0e2480006010c2f200000121fff71cfe10bd2b
:020000040000fa
:10248e00070013003500900000010203050608093d
:10249e000a0b0e0f1011121316171e1f28291415d2
:0e24ae000c0d242526272c2d3f1c0b050301a9
:020000040000fa
:1024bc0040f26113c2f20003187840f26213c2f2c8
:1024cc0000031b78c01a83b2002801dbc0b270472e
:0624dc003c3318b2fae7e0
:020000040000fa
:1024e20040f2e003c2f2000340f28812c2f200029c
:1024f2009178197092681178597051789970927820
:04250200da707047d4
:020000040000fa
:1025060010b540f26613c2f2000301221a7000f001
:102516009af840f26612c2f200021378012bfcd040
:0225260010bde6
:020000040000fa
:1025280042f20043c4f200031a8802210a431a80c7
:1025380042f20042c4f2000213691942fcd170470a
:020000040000fa
:1025480042f20043c4f200031a8802218a431a8027
:1025580042f20042c4f2000213691942fcd17047ea
:020000040000fa
:102568000b2300280ad003681a8802238a4205d957
:1025780006235943012382688b54002318007047af
:020000040000fa
:10258800030050b1012808d0022806d0032804d03f
:0e2598000020052b00d07047013b1800fbe728
:020000040000fa
:1025a6000b23002809d0002a07d00c234b4381684f
:0e25b600c91801230b7000234a6018007047fb
:020000040000fa
:1025c400002310b5934206d103201840421e9041c7
:0e25d4009b08c01810bdc45ccc540133f2e764
:020000040000fa
:1025e20042f20043c4f20003986142f20042c4f294
:0c25f2000002082113691942fcd1704757
:020000040000fa
:1025fe0042f20043c4f20003186242f20042c4f2f7
:0c260e000002202113691942fcd1704722
:020000040000fa
:10261a0070b505000e0041b10024fff7cdfe287009
:0c262a0001350134a4b2a642f7d170bd06
:020000040000fa
:1026360010b540f22113c2f2000301221a701420d1
:0626460000f06bf810bd6e
:020000040000fa
:10264c0010b540f25f13c2f200031870012118009c
:06265c00fff7e0f910bddc
:020000040000fa
:1026620040f26813c2f200039a6843001b189b00f1
:04267200d05c704781
:020000040000fa
:1026760040f24213c2f200031a8848f200010a43ec
:042686001a807047ff
:020000040000fa
:02268a00704797
:020000040000fa
:10268c00bc010020a4010020dc010020b2010020cc
:04269c009401002085
:020000040000fa
:1026a0000b23002802d0024b18600023180070474b
:0426b0000400002002
:020000040000fa
:1026b400ef260000c5250000ad270000ad2700006f
:0426c400ad2700003e
:020000040000fa
:1026c80003b47146490840004900095a49008e443c
:0426d80003bc704788
:020000040000fa
:1026dc0044f20003c4f2001302225a60013a1a7247
:0226ec00704735
:020000040000fa
:1026ee008a18914201d10020704700230b700131ee
:0226fe00f7e7fc
:020000040000fa
:10270000802803d082384342584170470020fce7bc
:020000040000fa
:10271000024ad36adb04db0cfbd170470040004265
:020000040000fa
:10272000024b1a88801818807047c0465a01002052
:020000040000fa
:0e27300040f2f403c2f2000318609960704793
:020000040000fa
:0e273e0040f29403c2f20003d86019617047a4
:020000040000fa
:0e274c0040f29403c2f2000358629962704793
:020000040000fa
:0e275a0040f2f303c2f2000301221a7070472e
:020000040000fa
:0c27680010b500f003f8fff77bf810bd7f
:020000040000fa
:0c2774000322014b1a7070472a400042fb
:020000040000fa
:0a2780000a0008000300080003002f
:020000040000fa
:08278a0010b5fff753ff10bd6d
:020000040000fa
:08279400851d0000e324000094
:020000040000fa
:08279c0018010020e0000020fc
:020000040000fa
:0427a4000900110017
:020000040000fa
:0427a8000900110013
:020000040000fa
:0427ac000020704752
:020000040000fa
:0227b000808225
:020000040000fa
:0227b400010121
:020000040000fa
:0200000400807a
:0440000077438fb0c3
:020000040000fa
:0200000400807a
:04400400bbf0ffff0f
:020000040000fa
:0200000400807a
:04c004000000e8ff51
:020000040000fa
:0200000400807a
:04c04000ffffffff00
:020000040000fa
:0200000400807a
:04c04400fffffffffc
:020000040000fa
:0200000400807a
:04c04800fffffffff8
:020000040000fa
:0200000400807a
:04c04c00fffffffff4
:00000001FF
