:020000040000fa
:10000000f0ff0020fd1e00008b2000006321000097
:1000100000000000000000000000000000000000e0
:100020000000000000000000000000004b1c000069
:1000300000000000000000004b1c00004b1c0000f2
:100040004b1c00004b1c0000592200004b1c000000
:100050004b1c00004b1c00004b1c00004b1c000004
:100060004b1c00004b1c00004b1c00004b1c0000f4
:100070004b1c00004b1c0000000000004b1c00004b
:100080004b1c00004b1c00004b1c00004b1c0000d4
:100090004b1c00004b1c00004b1c00004b1c0000c4
:1000a0004b1c00004b1c00004b1c00004b1c0000b4
:1000b0004b1c0000000000004b1c00004b1c00000b
:1000c0004b1c00004b1c00004b1c00004b1c000094
:1000d0004b1c00004b1c00004b1c00004b1c000084
:1000e0004b1c00004b1c00004b1c0000351d000089
:1000f000351d0000351d0000351d00004b1c0000a3
:100100004b1c00004b1c00004b1c00004b1c000053
:100110004b1c00004b1c00004b1c00004b1c000043
:100120004b1c00004b1c00004b1c00004b1c000033
:100130004b1c00004b1c00004b1c00004b1c000023
:100140004b1c00004b1c00004b1c000075270000de
:0c0150004b1c00004b1c00004b1c00006e
:020000040000fa
:10015c00f8b5c046f8bc08bc9e4670478921000023
:10016c00f8b5c046f8bc08bc9e4670476521000037
:020000040000fa
:10017c00f0b587b00090009b0b20002b00d1e2e182
:10018c00002603275b68049602931b88019605934f
:10019c000396049b059a93421ed1009b1a68137810
:1001ac0059b200290bda0820002101268446049c50
:1001bc0088b2844200d9ffe07f210b401370039b6f
:1001cc00002b00d009e1019801231178002800d1ff
:1001dc005be10b4313705ae1009bb5009b685d1902
:1001ec001e236a681178194001d001232b702b78db
:1001fc00042b73d00ad8022b2ed043d8012b23d03a
:10020c00049b033601339bb20493c2e7852b00d1c8
:10021c0082e0862b00d1a9e0072bf1d129895388e4
:10022c0099425fd9c91a009b0298db6840799b5da3
:10023c0089b20341dbb28b4254d86b78002b69d165
:10024c0001232b701770dbe703930029d8d102230d
:10025c002b7008236b70d3e76978002910d0528873
:10026c00042904d92a810139697001237ce02b8986
:10027c009342f8d002d9013b2b81f4e70133fbe721
:10028c002f70bde7298953889942b9d0009ad2685a
:10029c0010d9cb1a0299925d49799bb20a41d2b21c
:1002ac009a42add8029b1b79002ba9d007222a7049
:1002bc006b70dae792195b1a11789bb299429fd84e
:1002cc009378002b05d00499009801f07bfc002852
:1002dc0096d104232b70029b9b78e9e729895388dc
:1002ec00994202d92f700023b4e7009a5b1ad268a6
:1002fc009bb2921911789942f4d29378002b06d0c4
:10030c000499009801f05efc002800d078e76b7827
:10031c00002b47d0013bcbe7029b00991b7a096865
:10032c000b7128895388984207d986232b70029b1e
:10033c009b786b700123019316e0009a1b1ad2680c
:10034c009bb291190a784978140001310c410121b2
:10035c00121bd2b201919a4200d251e786232b7024
:10036c00029b9b786b700b00039349e72889538899
:10037c00984209d96b78002b01d12f7001e0013b19
:10038c006b70012301933be7009a1b1ad2689bb256
:10039c0091190a784978140001310c41121bd2b220
:1003ac009a4204d285232b70029bdb78e8e76b78aa
:1003bc00002be2d0013bbce70c2500984d43806834
:1003cc0045196f683878304205d164462d78a543bd
:1003dc0001d0304338700131e9e6029b597a00298b
:1003ec0000d1f0e6802310785b420343137001299f
:1003fc0000d0e8e600218bb20393049b88b28342c1
:10040c0000d8e0e60c20009b48439b680825181890
:10041c00029303781c00ac4315d0852b01d0032b21
:10042c002ed10325009bdf682b004b43fb189b78d8
:10043c009c46002b07d000231e000595049c9c4273
:10044c0008d8002e1cd1012540680378ab430370fb
:10045c000131d0e7039c9c420fd00c255d43029cdc
:10046c002d5d042d01d0862d07d1059d5d437d1991
:10047c00ad78654501d10126049b01339bb2dde7c4
:10048c000123406805782b43e1e7994311705288aa
:10049c00584b11001b88c8318b4251d99b1a9bb207
:1004ac009c466346c82b4dd96346c83b9bb29c46c1
:1004bc00009b1b685a88c8325a801a79002a00d0cf
:1004cc0070e05a79002a01d0013a5a719a79002abf
:1004dc0001d0013a9a71009a50688679002e07d0a3
:1004ec005a79002a04d1078891b28f4234d85e71b0
:1004fc00c579002d07d09a79002a04d1068891b2cb
:10050c00b1423cd39d71009b5b68da78002ac8d05d
:10051c001f880c23002103207b4302938bb2bb4228
:10052c00bfd20c22009b4a439b689a181578852de4
:10053c0004d15578002d38d0013d55700131ede7cf
:10054c00934202d3002007b0f0bd2b495918891ae9
:10055c00c829f7d9013ba1e70c21009c5143a468a1
:10056c0061180d78032d01d0082d06d14c680d892a
:10057c006488ac4201d901350d810132b4e70c21fc
:10058c0000985143806841180878032801d0082846
:10059c0006d14c6808896788874201d201380881e6
:1005ac000132ace7013a1a71ade701240500147071
:1005bc0052684d431070009ad2685519ad78002dd1
:1005cc00bcd0029c02321c1901920394039a9342f0
:1005dc00b4d0019a1678ae4206d101225e68347806
:1005ec00144201d01a703070019a0c33033201920c
:0c05fc00ece7c04606010020ffff0000f5
:020000040000fa
:100608000322f0b5ab4b89b09b780392002b14d032
:10061800a94b1b6804931b6805931b880693a74b7b
:100628001b6807930023029303936b461a89069b62
:100638009a4205d302229f4b9a70039809b0f0bde5
:10064800029b07995b00cc5a062302994b430499f5
:100658008968cd180c2302992e784b430499f60625
:100668004968760fcb180193db7a042e00d96ae12a
:10067800300002f033f8050013004a012b01dd00b9
:100688000f21019a927a0a40934201d99e1af6b232
:1006980034416c80029b01330293c6e71c41884aaf
:1006a800a3b26b80af88934217d9864a9b18320051
:1006b8009bb205995b088978402913d0002a13d08a
:1006c800814a0026974211d181232b700e23039370
:1006d8002b785a0625d5012330e0794ad31a9bb2e4
:1006e8000022e6e7002aebd0002fedd0092befd946
:1006f8000f24b9043a123811890f224020402740ac
:10070800002e3ad0cf2b01d9002966d1152b6ed9ee
:10071800002a67d1002291426bd00139c9b20a225e
:1007280067e05bb2002b0adb0322059bdb781340f2
:10073800934208d1ff23019a137211232b70bf042f
:10074800bf0caf80a6e7022b07d10f22019b5b7a73
:100758009343019a53720923f0e7012bbbd10f226f
:10076800019b5b7a1a4050231343019a53720d235d
:10077800e4e70131cf3bc9b29bb2cf2b01d90329a2
:10078800f7d1152b0dd90f2a06d10f2203290ad02c
:100798000131c9b2052206e00132153bd2b29bb243
:1007a800efe70f2af1d0022b11d90f280ad10f2a0f
:1007b80000d1c9e00132d2b2052003290bd0022ba7
:1007c800dbd826e00130023bc0b29bb2ebe70f2832
:1007d800edd003291dd10321f1e70139cf3bc9b27f
:1007e8009bb28fe7013a153bd2b29bb28ee7002a43
:1007f80090d0022b0bd9002804d1002a11d1170060
:10080800100006e00138023bc0b29bb2f1e70028b5
:10081800f3d009038cb212021443274300010743a3
:100828008fe7013ad2b20a20022b00d96ae7f0e733
:100838001c41019ba4b21f7a01200023ff2f14d171
:100848007f23019a6c8013722b78012b00d021e74b
:10085800ff33ff339c4273d91a4be418a4b20a2c15
:1008680000d817e745232b7014e73900d940002634
:10087800014201d11e0008230133dbb2072bf4d952
:100888002100100001f01af9002804d00123b34018
:100898001f43019b1f720123002e08d0013ef6b2b0
:1008a800b340019a127a9a43019b1a72cce72b70d3
:1008b800cae7c046140100201400002018000020d8
:1008c800ff01000001feffffff3f00001c41019bec
:1008d800a4b25f7a3e09052e15d02100100001f060
:1008e800edf800280ad1013601232b700f233601b9
:1008f8001f40019b3e435e726c80a5e7002ef3d03b
:10090800013ef6b2f2e70426f0e71c410f26019bf0
:10091800a4b25f7a3e4011d02100100001f0cef859
:10092800002806d1013ef6b201232b700f239f4306
:10093800dfe7032ef8d00136f6b2f7e70126f5e730
:10094800044b1c1b8ae7fee7032900d157e7100078
:0809580035e7c046ff01000075
:020000040000fa
:10096000d80000201c00000000000000080100204a
:100970000c00000000000000a80000203000000073
:10098000000000005c0100200300000000000000e7
:1009900005010020010000000000000029010020e6
:1009a00001000000000000003c01002006000000e3
:1009b000000000002c0100200800000000000000e2
:1009c0002a01002001000000000000005801002062
:1009d00002000000000000002b01002001000000c8
:1009e00000000000e0010020030000000100000002
:1009f00000010200d40100200600000001000000f8
:100a000001008130000200009c010020180000005d
:100a1000010000000200000000000040000000048f
:100a2000d40100209c01002000000020dc010020f7
:100a30000300000001000000dc010000b401002000
:100a40000a00000001000000010004000500140578
:100a5000140100006c0100202000000001000000d3
:100a60002c010020b401002008000020dc0100203f
:100a700001000300d8010020e00100200119060058
:100a8000cc01002008000000010000008c010020c3
:100a90007c0100208c0100201000000001000000fb
:100aa000000000003c010020000000205c0100204c
:100ab00000000020140000000000000034010020ad
:100ac00008000000000000005f010020010000009d
:100ad00000000000420100200200000000000000b1
:100ae0006001002003000000000000004a01002017
:100af000020000000000000063010020020000006e
:100b0000000000006c0000203c000000000000001d
:100b1000200100200900000000000000f400002077
:100b2000110000000000000065010020020000002c
:100b3000000000005a010020020000000000000038
:100b40004c010020040000000000000044010020cf
:100b50000600000000000000670100200300000004
:100b600000000000c00100200a0000000100000099
:100b7000023600011700000500000000df01002020
:100b80000100000001000000010000006a010020d7
:100b9000010000000100000001000000140100201d
:100ba0000c000000000000001400002008000000fd
:100bb000000000000601002002000000000000000c
:100bc0005001002004000000000000001c00002074
:100bd000500000000000000054010020040000004c
:100be000000000000000000000000000666666666d
:020000040000fa
:100bf00010b540f24413c2f200031b79022b2cd033
:100c0000032b00d17ce0abb140f24413c2f20003ed
:100c100000221a7140f26713c2f200031b7843b935
:100c200040f24213c2f200031b881bb2002b00da11
:100c3000a0e010bd01f04cfc0528ebd901f0cbfb86
:100c40005528e7d140f24414c2f2000404212000e8
:100c500001f0f1fc02232371dce740f24413c2f2fd
:100c600000031b78022b20d0012bd3d101f030fce4
:100c70000128cfd901f0affb040001f0acfb002c40
:100c8000c8d1aa28c6d140f24211c2f200010b8895
:100c900040f24412c2f200025478a938a040034343
:100ca0009bb20b8003231371b4e740f24413c2f2ea
:100cb000000359883b2907d940f24413c2f20003cc
:100cc000587800f084fba5e701f002fc40f24413e1
:100cd000c2f200035b8880b283429bd240f2421191
:100ce000c2f200010b8840f24412c2f200025478b2
:100cf0000120a04003439bb20b800323137189e7bb
:100d000040f26713c2f200031b78002b00d081e78a
:100d100040f24213c2f200031b881b0500d179e7a1
:100d200040f24413c2f200031b78012b17d0022bb0
:100d300000d06fe740f24414c2f20004618860788a
:100d400000f045fb0023237140f24213c2f200037e
:100d50001a886078012181408a431a805ae740f25c
:100d60004414c2f200046078002101f09cf80023d2
:100d700023714fe740f26214c2f20004237842f27a
:100d8000c072c0f20002d15c40f26112c2f20002f5
:100d900011701178c9b242f2c472c0f200025b0055
:100da0009a5a032001f090fa42f2b473c0f20003a1
:100db00022789200d35800209847237840f24a12b4
:100dc000c2f2000242f2c871c0f20001c95c118097
:100dd00042f2bc72c0f2000259008a5a42f2ac716f
:100de000c0f200019b005958012001f031f823782e
:100df0000133dbb2022b01d023701ae740f26213f9
:0a0e0000c2f2000300221a7013e78b
:020000040000fa
:100e0a00f0b502008db00b20002a6ad0556811682f
:100e1a00ab7801934b7802932b7b002b3ed00024b6
:100e2a0020002b889c46019b5b000393029b5e007b
:100e3a006746a3b29f4256d86b7b984200d87be0a4
:100e4a00cb6802995b1819780131197011685368d7
:100e5a004878c968085c997b88421fd169469d68b1
:100e6a00029b0989e81803780391002b53d0013bb0
:100e7a00dbb26e466f46b68800213e823e8a012466
:100e8a00b44667468eb2b74247d8002cedd00370fd
:100e9a000023180051688978994247d8029b69460d
:100eaa005b000a93019b56685b08013306936b4605
:100eba009b888b818b890b9300239c4603933388f1
:100eca0003998b4244d8029b01990133dbb28b42ce
:100eda008941b0680b40c05c7168087000201268d4
:100eea0053700db0f0bd062363438f68fb185f880b
:100efa004b689b5b9f420ad9fb1a9bb21f1c834219
:100f0a0000d2071cb8b2039b0134f61890e79f423f
:100f1a00f9d2db1bf1e70f23abe7039fb74203d0fc
:100f2a006e5c9e4200d100240131aae71168c968ab
:100f3a00c85401339bb2ade75b088342aed9cb6894
:100f4a0002995b1819780029a8d001391970a5e708
:100f5a000623039910684b438168cb1804931b78c6
:100f6a00db065b0f40d16146406849004118059194
:100f7a000499059849880a9c099301530199994251
:100f8a002ed9002005995d00491908910400012114
:100f9a000de09f420ad0059d6700ed5b0795089d0d
:100faa002f88079dbd4215d10131c9b20134019d77
:100fba00e7b2bd42edd8069c8c4204d9844206d9d8
:100fca004118a14203db089b1b880993019b01334b
:100fda00dbb2d3e7079dbd42e8d20130c0b2e5e7f4
:100fea006946049b898c5980039b0b9901339bb2f8
:0e0ffa00039363468c4663449bb29c465fe7bc
:020000040000fa
:10100800f0b585b0029001f085fb0222704e0024f5
:1010180033889343338001f07dfb0c23029a6d4d96
:101028005a432b6801925b689b185b683362009691
:101038002b685a68019bd2180123a34052681a42b0
:1010480007d01f21644b0833e05c0140400901f0e0
:1010580019f80134202cebd101f05cfb2b68019ac4
:101068005b6801219b589c466246009bda6100221e
:10107800594b083303930b006046934018421bd02a
:101088001f27039bd45c66092740f0017b081b18c7
:1010980052481b1818780c4200d190e00f242040c9
:1010a800187050201c7820431870f6014c4bbf195b
:1010b800ff1800233b7039700132202adbd1062249
:1010c800029b444f5a4339688b689b181a789c884e
:1010d800920701d505221a701e7801f01bfb002328
:1010e800f606760f9e4205d13b68019a5b689b180d
:1010f8009b7a1b09384a3b492832d35c0f221a4095
:1011080012040c4014439b06374a9b0f1b051440de
:101118001c433b68019a5b689b181b7afa2b54d8ce
:10112800043324021b06240a07261c4301f0f2faa2
:101138002b68019a5b682d499b185b7a009a1b09fa
:10114800526833400a401b051343009a536001f06c
:10115800e1fa03202b685968019bc9184a7a009b59
:1011680002401b882248120203401343009a13804e
:10117800cb7a1e4001f0cefa009bb6b29c6001f01b
:10118800c9fa009b9e8101f0c5fa3022009b9b7b27
:101198009343009a937301f0bdfa009b1a880223c7
:1011a8001343009a138001f0b5fa009b1a7c0123bf
:1011b8001343009a137401f0adfa05b0f0bd0f2483
:1011c800a04318701c7805206de7ff231b06abe7ca
:1011d8000040004214000020a224000030300040eb
:1011e80040300040fffff0ffffffcfffffff8fff02
:0411f800fffcfffffa
:020000040000fa
:1011fc0010b540f2df13c2f200031b78012b06d0ae
:10120c0040f26713c2f2000300221a7010bd40f2c4
:10121c006913c2f200031a7840f25a13c2f20003a7
:10122c001b88934243d840f26013c2f200031b7830
:10123c00022b4fd040f26013c2f200031b78012b3b
:10124c00e4d140f26813c2f200031a7840f24a1358
:10125c00c2f200031b889a4200d38fe040f2611364
:10126c00c2f200031878c0b201f090fa40f2681490
:10127c00c2f200042378dbb242f2b472c0f2000274
:10128c00800082581800904740f26913c2f20003a4
:10129c0001221a7023780133dbb2237040f24c1315
:1012ac00c2f200031b68187801f0d8f9aee740f2df
:1012bc006914c2f200042378dbb240f24c12c2f281
:1012cc0000021268d05c01f0c9f923780133dbb25b
:1012dc0023709be740f26813c2f200031a7840f2c5
:1012ec004a13c2f200031b889a420dd340f26812d3
:1012fc00c2f200021278934226d040f26713c2f277
:10130c00000300221a7081e740f26814c2f2000454
:10131c002178c9b240f24413c2f20003587800f0ad
:10132c00bcfd40f26913c2f2000301221a7023784b
:10133c000133dbb2237040f24c13c2f200031b6882
:10134c00187801f08bf961e740f26812c2f20002e2
:10135c0013780133dbb2137040f24213c2f2000374
:10136c001a8840f24411c2f20001487801218140f0
:10137c008a431a80aa2001f071f947e740f26812fb
:10138c00c2f200021278934206d040f26713c2f206
:10139c00000300221a7039e740f26812c2f2000210
:1013ac0013780133dbb2137040f24213c2f2000324
:1013bc001a8847f6ff710a401a80aa2001f04ef9ec
:0213cc0024e714
:020000040000fa
:1013ce00f8b5040001f07df885b2012c47d09cb130
:1013de00022c63d0200001f0abf840f24413c2f2ad
:1013ee000003598842f2a863c0f200038000c0587f
:1013fe0001f01af900f0e8fff8bd387800f008ffa8
:10140e003b780133dbb23b70083dadb2012b0ed001
:10141e00082df1d940f23414c2f200042600083629
:10142e0000f0d2ff20700134a642f9d1e5e740f278
:10143e005f13c2f200030021197040f24412c2f28f
:10144e000002117140f24213c2f200031988507863
:10145e00012282409143198000f0b6ffcce7082d9f
:10146e00cad940f25f17c2f20007d3e740f25f130a
:10147e00c2f200030021197040f24412c2f20002bf
:10148e00117140f24213c2f2000319885078012202
:10149e0082409143198000f097ffade7032dabd941
:1014ae0040f25f17c2f200073c786600361940f230
:1014be00dc13c2f200039c46664400f085ff3070d8
:1014ce0000f082ff707000f07fffb0700134e4b264
:1014de003c70033dadb2012cc8d0032de4d88be790
:020000040000fa
:0214ee00704745
:020000040000fa
:1014f000f7b5060001910b24002953d0002851d0e4
:101500002a4d0324ab78002b4cd00124042b49d066
:10151000274f3b7cdb07db0f009343d1022403689a
:101520005b79013ba3423dd801f0f8f83b88a34327
:101530003b80204b204f1e60019b6b6000f086fbc0
:1015400008221e4b1a60bff34f8fbff36f8f01f05d
:10155000e5f803221a4b1a7001f0e0f8012219494c
:101560000b7813430b70184bd0211a70c423082238
:101570005b00fa50890033687a585b791202120acc
:101580009b0713437b500823bb606b461b882b8053
:1015900000f008fe061e07d104232888ab70340033
:1015a000fff732fd2000febdac70fbe71401002008
:1015b000004000421400002000e100e088e100e06b
:0c15c0002a400042294000426a0100203d
:020000040000fa
:1015cc0010b540f22a13c2f200031b78012b09d08c
:1015dc0040f22b13c2f200031b78012b15d0fff73e
:1015ec0001fb10bd42f26771c0f2000140f2a8107d
:1015fc00c2f20000fff776ff0028e9d140f22a136f
:10160c00c2f2000300221a70e2e740f22b13c2f27e
:10161c00000300221a70fef7f1ffd8b940f2cc108b
:10162c00c2f20000fff7ebfb68b940f26c10c2f29b
:10163c000000fef79dfd98b140f22913c2f20003a1
:10164c0003221a700ce040f22913c2f200030222aa
:10165c001a70eae740f22913c2f2000301221a7051
:10166c0001f011f840f26c13c2f200031b681b78f6
:10167c007f2b06d840f20513c2f2000301221a7028
:10168c00ade740f22a13c2f2000301221a70a6e75a
:020000040000fa
:10169c0070b540f2a803c2f200031b7d002b4ad0a8
:1016ac0040f2a802c2f200029368516841f20002b3
:1016bc00c4f20022127ed2071fd599421dd941f2e5
:1016cc000001c4f20021072640f2a800c2f200007b
:1016dc00012509e00268d25c8a62013344680a7e03
:1016ec002a420ad09c4208d94a683240012af1d1d8
:1016fc0002685c00a25a8a62efe740f2a802c2f2ca
:10170c000002936052689a4215d840f2a803c2f2c4
:10171c00000300221a755a6041f20002c4f2002242
:10172c0001211175db6833b140f2a803c2f200034a
:08173c001869db68984770bdd5
:020000040000fa
:1017440010b540f2a803c2f200032c229b5c33b311
:1017540040f2a803c2f20003da691b6a93421ed264
:1017640040f2a803c2f20003986a41f20002c4f2f4
:101774000022916a1b6a546807222240012a0fd072
:1017840040f2a802c2f200029269d154013340f23d
:10179400a802c2f200021362d2699a4208d010bdb4
:1017a40040f2a802c2f2000292695c00a152ede785
:1017b40040f2a803c2f2000300222c215a54da6139
:1017c40041f20002c4f20022583111755b6a002b09
:1017d400e5d040f2a803c2f200035b6a9847dee753
:020000040000fa
:1017e40041f20003c4f20003ca221a7641f2004314
:1017f400c4f2000300221a7441f60043c4f2000349
:101804000632ff32c0f201021a6241f60042c4f20b
:101814000002042153681942fcd141f60043c4f28a
:10182400000340f20512c0f203025a6241f600427c
:10183400c4f20002082153681942fcd141f6004366
:10184400c4f20003d0224021995041f60042c4f270
:101854000002d02013581942fcd041f60043c4f2d0
:101864000003fc224121995041f60042c4f20002d7
:0c187400fc20013913581942fcd07047c9
:020000040000fa
:1018800003211f4a70b5117002211e4b1e4c1a888d
:101890008a431a801d499b8f228809689bb2500099
:1018a00043521b490978012902d002290fd070bd8b
:1018b0000132228000f076fc002805d12088fff755
:1018c000a3fb0423a370f2e763689847efe70c25b6
:1018d0000f20104955430e6871684d19a97a0840c8
:1018e000e97a0025884201d2091acdb20621eb40df
:1018f0004a43b068821853800223a370a368e4e7c8
:101900002a4000420040004214010020180000203c
:081910006a0100201400002010
:020000040000fa
:1019180070b5bff35f8f62b64ef20013cef20003cc
:1019280040f200315a581c4d2a40c0242404224356
:101938005a5004221a6028315a581202120ac0203a
:10194800000602435a5040f600025a6040f22c3218
:101958009958ff26b1433f3e3143995041f2000167
:10196800596099580d4e31404cf200063143995058
:1019780042f20001596099580d402c439c5044f2a2
:1019880000025a6040f240315a581202120a0243c9
:101998005a5008229a6070bdffff00ffff00ffff4a
:020000040000fa
:1019a800f8b50b2300282ad003680c261d880023cd
:1019b8001c009ab2954224d80223002c1fd0194e3d
:1019c800194db378002b26d1012700f0a3fe2b88f0
:1019d8003b432b8000f09efeac61b77000252300ce
:1019e800eb40db0707d51f21104b0833e85c0140ab
:1019f800400900f047fb0135202df0d100231800e5
:101a0800f8bd32005a43416801338a181168526898
:101a18000a431443cde700f07dfeab692343ab6175
:101a2800dce7c0461401002000400042a224000068
:020000040000fa
:101a380070b5002840d040f2a803c2f200031a7d16
:101a48000023babb40f2a803c2f200031860596031
:101a580001321a755c6841f20003c4f200231b7e50
:101a6800db0718d5d4b1002341f20001c4f20021ec
:101a78000726012507e0c25c8a6201330a7e2a42f2
:101a88000bd09c420ad04a683240012af3d15a004e
:101a9800825a8a62f1e7002400e01c0040f2a803a1
:101aa800c2f200039c6041f20003c4f20023012249
:0c1ab8009a750123180070bd0023fbe7a5
:020000040000fa
:101ac400f0b506241e4b44431a68002093681c1981
:101ad40063888b4229d029d2c91a89b249080120c6
:101ae400842922d800200a291fd9cf250f2615279b
:101af400a3881c009804800f68431d1235407d4361
:101b04001b11334040195b00c018344080b2002cd4
:101b14000ed113680b4adb789b069b0f5b009b5a24
:101b2400594389b2884280414042f0bd591ad4e7f2
:101b3400013080b2052cecd9053ce4b2e7e7c0469d
:081b440014000020a22400009f
:020000040000fa
:101b4c0010b540f24a13c2f2000301221a8040f28f
:101b5c003411c2f2000143001a18920040f29c1496
:101b6c00c2f20004a4466244147a0c71547a4c718b
:101b7c00927a8a711b189b006344db7acb7178b123
:101b8c0040f24c13c2f2000340f23412c2f20002d3
:101b9c001a6040f25a13c2f2000308221a8010bdd8
:101bac0040f24413c2f2000359780822043000f0ca
:101bbc0085fb40f23411c2f200010822022000f031
:041bcc0041f9ece708
:020000040000fa
:101bd000f7b50c25c3684d439c46032382684b43ed
:101be00055196c6863442d8964889f781b78641b41
:101bf000e41aa3b201930025436860461e88b542eb
:101c000001d10020febd8d4218d08378bb4215d192
:101c100013787b33dbb2012b15d913899c465368ab
:101c20005b889c450ad264461b1b04789bb2a34286
:101c300004d91b1b019c9bb29c4204d30135adb25d
:0a1c400003300c32dbe70120dce783
:020000040000fa
:021c4a00fee7b3
:020000040000fa
:101c4c0070b500f065fd174b00261b68164d1b6820
:101c5c0008249a78402a02d00a24802a1ad1ee73da
:101c6c0030221b799443114a0f2b16d810490c4083
:101c7c000f210b401b0214401c430e4b1c4300f065
:101c8c0047fdd0232b8000f043fd6c6000f040fd3d
:101c9c00002070bd0222ea73e2e780235b011c4343
:101cac001440eae71400002000400042fff0ffff60
:081cbc00ffefffff4060000094
:020000040000fa
:101cc40041f20003c4f2002340f20412c4f21002f1
:101cd4001a60164a9a81c02292025a6041f20002a6
:101ce400c4f20022d369002bfcd141f20003c4f2f8
:101cf40000231a6802210a431a6041f20002c4f266
:101d04000022d369002bfcd140f2a803c2f20003e5
:101d140000229a61da611a622c215a545a621a60ba
:101d24005a609a601a75da60da857047add8ffff99
:020000040000fa
:101d340010b541f20003c4f200239b7d1bb341f2b2
:101d44000002c4f20022137edbb2927d52b2002a5a
:101d54001adb41f20003c4f200231a7ed2b29b7d47
:101d6400db0703d5d30701d5fff796fc41f2000347
:101d7400c4f200231a7ed2b29b7d5b0703d55307be
:101d840001d5fff7ddfc10bd5bb2002be1da00f0fa
:041d9400c5f9dee7c8
:020000040000fa
:101d980070b543001a18520040f20001c2f2000167
:101da8008c466244548840f22012c2f20002148029
:101db80040f20805c2f2000519188900ac466144d2
:101dc80009895180641a948019188900495dc909e4
:101dd80091711b185b0040f20001c2f200018c46b1
:0c1de80063441979d1715b79137270bdee
:020000040000fa
:101df40000230e4a10b513600d4a0e4c13600e4ab0
:101e040013600e4a13600e4a13600e4a5362136144
:101e14000133936000f0c7fc00f0c5fc0a4b9c4200
:101e240000d310bd08cc9847f8e7c0465401002001
:101e34002800002068010000240000201c0000206d
:0c1e4400200000202c0000206c01000099
:020000040000fa
:101e500010b540f26713c2f200031b7803b110bd46
:101e600040f26013c2f20003187040f26713c2f22e
:101e700000030120187040f26813c2f200031870ca
:101e800040f26913c2f20003187040f24c13c2f220
:101e90000003196040f25a13c2f200031a80087856
:061ea00000f0e2fbdbe7ad
:020000040000fa
:101ea60070b5012823d040f24a13c2f20003012282
:101eb6001a8040f24413c2f200035e7800f03cfb45
:101ec600040042f28073c0f200034200d55a2a0091
:101ed6003100042000f0f5f942f2a863c0f20003d5
:101ee600a400e1582a000220fff7afff70bd0800ea
:061ef600fff729fefae7e8
:020000040000fa
:101efc0010b542f23f43c0f20003984742f23f4311
:101f0c00c0f20003984700f095fa40f20003c0f2cb
:101f1c0000037f2293434ef60052cef200029360f0
:101f2c0041f6f553c0f20003984742f23f43c0f22a
:101f3c000003984742f23f43c0f20003984700f079
:041f4c000ffafee7a3
:020000040000fa
:101f500042f20043c4f2000301221a8042f200421e
:101f6000c4f20002012113691942fcd142f200437c
:101f7000c4f2000340f280121a80803aff3a1a62db
:101f800042f20042c4f20002202113691942fcd13e
:101f900042f20043c4f2000340f200125a8170473b
:020000040000fa
:101fa000030010b50b20002b16d01a6802201488ed
:101fb0008c4211d992789b68402a0ed106228d203e
:101fc0004a4380009a189080002006225143022242
:101fd0005b1819780a431a7010bd803ad2b2012af0
:101fe000f3d806224a4301489a18ece76705000037
:020000040000fa
:101ff00010b540f26413c2f200031a78d2b240f274
:102000006c01c2f2000140f26510c2f200000078db
:1020100088541a780132d2b21a701b783c2b07d040
:1020200040f26510c2f20000012100f055f810bd29
:0e20300040f26413c2f2000300221a70f0e7bf
:020000040000fa
:10203e0010b500f079f940f2a814c2f200042000a5
:10204e00fff7abfc40f25810c2f2000000f02ffb7d
:10205e000021200000f09efa00212000fff799ffda
:10206e0040f20002c2f2000240f26c10c2f2000016
:0c207e00002100f09ffa00f0f6f910bd00
:020000040000fa
:02208a00fee76f
:020000040000fa
:10208c0001224b08c00130b51b18114211d00f248e
:10209c000c4a9b181a7822401a7010221c78224382
:1020ac001a70094b0918c91800230b7001230b7007
:1020bc0030bd0f25034c1b191c78ac431c701c78cd
:0c20cc00ede7c0463030004040300040de
:020000040000fa
:1020d80070b504000d00e8b140f2a803c2f2000395
:1020e8002c229b5c002003b170bd00f0cdf840f2bb
:1020f800a803c2f200039c61dd6100221a622c2150
:1021080001205854da8541f20003c4f200238432d6
:082118009a75e9e70020e7e7f2
:020000040000fa
:1021200010b541f20003c4f200235b8b0722134079
:1021300003b910bd40f2a804c2f20004e38500f028
:10214000a7f841f20003c4f2002384221a752c235d
:102150000022e254636a002bebd0a06a636a9847be
:02216000e7e7af
:020000040000fa
:02216200fee796
:020000040000fa
:1021640010b5054c237833b9044b13b1044800e08f
:1021740000bf0123237010bdd80000200000000020
:1021840000000000034b10b51bb10349034800e0f5
:1021940000bf10bd00000000dc00002000000000b3
:020000040000fa
:1021a4000d4a70b51068012502680c49148806228e
:1021b4000b885a43a3420ad28668b65c06322e4282
:1021c40002d101339bb2f5e700200b8070bd0023e0
:1021d40001200b80fae7c0461400002014010020ff
:020000040000fa
:1021e40040f20043c4f2000300221a819a790121cb
:1021f4000a439a719b7803221340022b0cd040f2bd
:102204000043c4f20003013a9a705202c4f200027d
:0a221400012193790b42fcd07047c2
:020000040000fa
:10221e0010b543001a18920040f29c11c2f2000150
:10222e008c46624440f23411c2f200014c79547271
:10223e008c7994720c7914721b189b006344ca79c2
:0a224e00da7280b200f0a6f810bdad
:020000040000fa
:1022580010b542f20042c4f20002918989b240f2fc
:102268000813c2f2000359600649918192891b68dc
:102278003bb140f20813c2f20003586899681b6822
:08228800984710bdffc1ffffe4
:020000040000fa
:1022900041f20003c4f200235b8b5b0713d041f2d1
:1022a0000003c4f2002380221a76793a5a831b7ef7
:1022b0005b0708d541f20003c4f2002304219a6aa7
:0822c0001a7e0a42fbd17047af
:020000040000fa
:1022c800f8b507000e00150040f2df14c2f2000452
:1022d80000232370552000f03ff9380000f03cf946
:1022e800300000f039f9e8b200f036f9280a00f0b9
:0822f80033f901232370f8bd46
:020000040000fa
:1023000043f20003c4f200030122d4215a540131e4
:102310005a54b932b339995480221203de315a50db
:1023200010315a5040f253120f39ff3999541a3a6a
:06233000002199547047e2
:020000040000fa
:1023360010b542f2a370c0f20000002100f0fbf9d4
:1023460042f20042c4f20002082113691942fcd18c
:1023560000f014f9002000f04ff9142000f05af9ab
:0623660000f0d9f810bde3
:020000040000fa
:10236c0010b5002000f04bf843f20004c4f2000456
:10237c0004e040f2141380221203e250fff720f91c
:10238c00002000f076f90306f3d440f218138022f3
:06239c001203e250f2e71b
:020000040000fa
:1023a20010b5040040f2a810c2f200002100fff7ad
:1023b200f6fd62001219520040f20003c2f200035d
:1023c2009c466244e1b240f26c10c2f2000000f09e
:0423d200f7f810bd4b
:020000040000fa
:1023d60040f26313c2f200031a78d2b240f26c01e3
:1023e600c2f20001885c1a780132d2b21a701b78e8
:1023f6003c2b00d0704740f26313c2f20003002268
:042406001a70f7e76a
:020000040000fa
:10240a0010b5fff7eafe44f20003c4f200130422f7
:10241a005a60fff770fffff7e0f9fff74efc00f094
:10242a0066f9fff75ff8fff78efdfff703fefff788
:04243a006efa10bd69
:020000040000fa
:02243e007047e5
:020000040000fa
:1024400010b50a48016821b9436813b900f02bf9a7
:1024500010bd04008368064a9bb20c349b009b5855
:1024600042682000984780002018ebe760090000d0
:04247000d026000072
:020000040000fa
:1024740010b541f2fd10c0f20000002100f063f934
:1024840041f6f170c0f20000002100f063f940f25f
:0e2494006510c2f200000121fff71cfe10bd12
:020000040000fa
:1024a2000700130035009000000102030506080929
:1024b2000a0b0e0f1011121316171e1f28291415be
:0e24c2000c0d242526272c2d3f1c0b05030195
:020000040000fa
:1024d00040f26413c2f200031b7840f26312c2f2ae
:1024e000000210781b1a9bb218b2002801dbc0b2a0
:0824f00070473c3318b2fae713
:020000040000fa
:1024f80040f2f403c2f2000340f27c12c2f200027e
:102508009178197092681178597051789970927809
:04251800da707047be
:020000040000fa
:10251c0042f20043c4f200031a8802210a431a80d3
:10252c0042f20042c4f20002022113691942fcd1aa
:02253c007047e6
:020000040000fa
:10253e0068b1012809d0022807d0032805d000234e
:10254e00052801d01800704701380300fae7030090
:02255e00f8e79c
:020000040000fa
:1025600010b540f26713c2f2000301221a7000f0a6
:102570007bf840f26712c2f200021378012bfcd004
:0225800010bd8c
:020000040000fa
:1025820042f20043c4f200031a8802218a431a80ed
:1025920042f20042c4f2000213691942fcd17047b0
:020000040000fa
:1025a2000b2300280ad003681a8802238a4205d91d
:1025b20006235943012382688b5400231800704775
:020000040000fa
:1025c2000b23002809d0002a07d00c234b43816833
:0e25d200c91801230b7000234a6018007047df
:020000040000fa
:1025e000002310b5934206d103201840421e9041ab
:0e25f0009b08c01810bdc45ccc540133f2e748
:020000040000fa
:1025fe0042f20043c4f20003986142f20042c4f278
:0c260e000002082113691942fcd170473a
:020000040000fa
:10261a0042f20043c4f20003186242f20042c4f2da
:0c262a000002202113691942fcd1704706
:020000040000fa
:1026360070b505000e0041b10024fff7c9fe2870f1
:0c26460001350134a4b2a642f7d170bdea
:020000040000fa
:1026520010b540f22a13c2f2000301221a701420ac
:0626620000f063f810bd5a
:020000040000fa
:1026680010b540f26613c2f2000318700121180079
:06267800fff7def910bdc2
:020000040000fa
:10267e0040f26c12c2f20002926843001b189b00db
:04268e00d05c704765
:020000040000fa
:1026920040f24213c2f200031a8848f200010a43d0
:0426a2001a807047e3
:020000040000fa
:0226a60070477b
:020000040000fa
:1026a800c00100209c010020dc010020b6010020b0
:0426b8008801002075
:020000040000fa
:1026bc000b23002802d0024b18600023180070472f
:0426cc0018000020d2
:020000040000fa
:1026d0000b270000e1250000cd270000cd270000da
:0426e000cd27000002
:020000040000fa
:1026e40003b47146490840004900095a49008e4420
:0426f40003bc70476c
:020000040000fa
:1026f80044f20003c4f2001302225a60013a1a722b
:02270800704718
:020000040000fa
:10270a008a18914201d10020704700230b700131d1
:02271a00f7e7df
:020000040000fa
:10271c00024ad36adb04db0cfbd170470040004259
:020000040000fa
:10272c00024b1a88801818807047c046060100209a
:020000040000fa
:0e273c0040f20813c2f2000318609960704763
:020000040000fa
:0e274a0040f2a803c2f20003d8601961704784
:020000040000fa
:0e27580040f2a803c2f2000358629962704773
:020000040000fa
:0e27660040f22b13c2f2000301221a707047da
:020000040000fa
:0c27740010b500f009f8fff781f810bd67
:020000040000fa
:0c2780000a000800030008000300c04627
:020000040000fa
:0c278c000322014b1a7070472a400042e3
:020000040000fa
:0a279800823843425841c0b2704736
:020000040000fa
:0827a20010b5fff755ff10bd53
:020000040000fa
:0227aa00704776
:020000040000fa
:0827ac0020010020f4000020d0
:020000040000fa
:0827b400991d0000f92400004a
:020000040000fa
:0427bc0009001100ff
:020000040000fa
:0427c0008082c0460d
:020000040000fa
:0427c40009001100f7
:020000040000fa
:0427c8000101c04605
:020000040000fa
:0427cc000020704732
:020000040000fa
:0200000400807a
:0440000077438fb0c3
:020000040000fa
:0200000400807a
:04400400bbf0ffff0f
:020000040000fa
:0200000400807a
:04c004000000e8ff51
:020000040000fa
:0200000400807a
:04c04000ffffffff00
:020000040000fa
:0200000400807a
:04c04400fffffffffc
:020000040000fa
:0200000400807a
:04c04800fffffffff8
:020000040000fa
:0200000400807a
:04c04c00fffffffff4
:00000001FF
