:020000040000fa
:10000000f0ff032055250000d32a0000772b0000c5
:10001000ff2e0000c3300000873100000000000008
:100020000000000000000000000000006319000054
:100030000f2c00000000000063190000631900008d
:1000400063190000631900006319000063190000c0
:1000500063190000631900006319000063190000b0
:10006000631900006319000063190000012f0000ec
:100070006319000063190000631900006319000090
:100080006319000063190000631900006319000080
:100090006319000063190000631900006319000070
:1000a0006319000063190000631900006319000060
:1000b0006319000063190000631900006319000050
:1000c0006319000063190000631900006319000040
:1000d0006319000063190000631900006319000030
:1000e0006319000063190000000000000000000018
:1000f000000000006319000063190000631900008c
:1001000063190000631900006319000063190000ff
:1001100063190000631900006929000069290000c3
:1001200069290000692900006319000063190000b3
:1001300063190000631900006319000063190000cf
:1001400063190000631900006319000063190000bf
:1001500063190000631900006319000063190000af
:10016000631900006319000063190000631900009f
:10017000631900006319000063190000631900008f
:10018000631900006319000063190000631900007f
:10019000631900006319000063190000631900006f
:1001a000631900006319000063190000631900005f
:1001b000631900006319000063190000631900004f
:1001c000631900006319000063190000631900003f
:1001d000631900006319000063190000631900002f
:1001e000631900006319000063190000631900001f
:1001f000631900006319000063190000631900000f
:1002000063190000631900006319000063190000fe
:10021000631900006319000063190000fd3000003d
:1002200063190000631900006319000063190000de
:1002300063190000631900006319000063190000ce
:1002400063190000631900006319000063190000be
:1002500063190000631900006319000063190000ae
:04026000631900001e
:020000040000fa
:10026400f8b500bff8bc08bc9e467047bd2c000022
:10027400f8b500bff8bc08bc9e467047992c000036
:020000040000fa
:100284002de9f04f054685b0002800f05582d0f8de
:1002940004a04ff00008c146c3460322cdf80880ed
:1002a400baf800300193bdf80810019b99421ad3a3
:1002b4002a68137819060ad500214ff00c0e019c08
:1002c40088b2844200f20c8103f07f031370bbf107
:1002d400000f40f017811378b9f1000f00f0658129
:1002e40043f0010363e1029b0c20af6800fb03f6bb
:1002f400bc196068037813f01e0e1cbf0123bb55a4
:10030400bb5d042b7cd00ad8022b32d044d8012bfd
:1003140025d0029b08f1030801330293c3e7852b20
:1003240000f09280862b00f0b480072bf1d1218954
:100334004388994269d9c91aeb689af805e089b2e9
:1003440013f8083043fa0ef3dbb28b425dd86378be
:10035400002b77d14ff00103bb550270d9e7bef1f2
:10036400000f03d10221b955082161704ff0010b30
:10037400cfe7617871b1042903d943882381013916
:10038400f3e7238940888342f9d08cbf03f1ff331c
:100394000133f3e7ba55bce72389b0f802e07345ab
:1003a400b7d0e86813d910f80810a3eb0e039af835
:1003b40005009bb20141c9b29942aad89af8043007
:1003c400002ba6d04ff00701b9556370cee7aeeb12
:1003d400030300eb080c10f808009bb2984298d86d
:1003e4009cf8023033b12846039202f073f9039a61
:1003f40000288ed14ff00403bb559af80230e4e78d
:10040400b4f808e043889e4504d9ba554ff0000378
:1004140063707ee7e868a3eb0e0300eb080c9bb265
:1004240010f808009842f0d29cf802303bb12846fc
:10043400039202f04ff9039a00287ff46aaf6378bd
:10044400002b42d0013bc0e72b689af808101971c1
:100454002389b0f802e0734508d96ff07903bb55de
:100464009af8023063704ff001097fe7e968aeeb58
:10047400030301eb08009bb211f808104078013027
:1004840041fa00f0091ac9b29942e6d24ff00109c3
:100494003fe72389b0f802e0734506d963780bb9c6
:1004a400ba55f3e7013b6370f0e7e968aeeb030389
:1004b40001eb08009bb211f808104078013041fab2
:1004c40000f0091ac9b2994205d26ff07a03bb55fc
:1004d4009af80330e7e76378002be1d0013bc1e7ea
:1004e4000efb01f6af68b8194468207810f0010fcc
:1004f40006d1be5d16f0f70f1cbf40f0010020705e
:100504000131dce69af8091000293ff4e4ae1378cf
:10051400012963f07f0313707ff4ddae00210c2703
:10052400019b1ffa81fe73457ff6d5ae07fb01f3ed
:10053400ac6804eb030ce35c13f0f70f27d0852bb6
:1005440001d0032b2bd1d5f80c8001eb410343449c
:1005540093f802a0baf1000f19d0002003469e457b
:100564000fd007fb03f6a65d042e01d0862e08d11a
:1005740003eb43064644b6785645019e04bf01206a
:1005840033460133019e9bb29e42e8d838b9dcf869
:100594000400037823f0010303700131c0e7dcf8a1
:1005a4000400037843f00103f6e723f0010313701a
:1005b400624b51881b8801f1c802934254d95b1adb
:1005c4009ab20c2401260327c82a4fd92b68c83aab
:1005d40092b25988c83159801979002940f086802f
:1005e400597909b101395971997909b10139997167
:1005f400d5f804e09ef80690b9f1000f08d05979b7
:1006040031b9bef800a088b250453dd383f80590b7
:100614009ef807c0bcf1000f08d0997931b9bef833
:10062400008088b2404548d383f806c06b68d97807
:100634000029c9d0b3f800c0002104fb0cf88bb228
:100644006345c1d204fb01f9ab6803eb090e13f84f
:100654000900852806d19ef80100002849d00138f8
:100664008ef801000131eae78b4203d3002005b084
:10067400bde8f08f03f57f42ff32521ac82af5d93c
:100684005a1e521a92b29ce704fb01f0d5f808c036
:100694000ceb00081cf80000032801d008280ad13c
:1006a400d8f80400b8f808c04088604584bf0cf14d
:1006b400010ca8f808c00131a5e704fb01f0d5f846
:1006c40008e00eeb00091ef80000032801d00828fa
:1006d4000ad1d9f80400b9f808e0408870453cbf55
:1006e4000ef1ff3ea9f808e001319ae701391971ca
:1006f4009ce703f80960def8040001eb410e077083
:10070400e86886449ef80290b9f1000faad003eb82
:10071400080a9a45a6d090f802e0ce4509d1d3f84c
:1007240004e09ef800b01bf0010f1cbf1e708ef891
:1007340000700c330330ece70b2098e76e020020c6
:020000040000fa
:100744002de9f04f8bb085680390002d00f0f38104
:10075400c668002e00f0ef814368d3f800b0bbf107
:10076400000f00f0e8811b790a220c2702fb0353d7
:100774000993002301930493099bab4208d1039b83
:100784009df810201b681a7001980bb0bde8f08f1b
:10079400337900227088029300eb030cbdf8083013
:1007a400c1180593034689b263452edb0024014634
:1007b400a6468c4536dc002c2b7808bf002213f0ab
:1007c400010308936fd02b89002c18bf224603eb3a
:1007d40043037344c3f38d032b8196f80080b8f16f
:1007e400010f00f2a48196f80590b9f1cf0f00f241
:1007f4009e81002a5ad12a81049b0a3605f80a2bc5
:1008040002f0810213430493b6e707fb03f41bf8d9
:100814000440852c08bf0b4603f1010308bf0122e5
:100824009bb2c1e707fb01f90beb090adaf80430c4
:10083400b3f80280baf80830a8eb03081ffa88f866
:100844000ffa88f3002bd8bf4ff00008814222d161
:100854003378012b25d1029b03eb010907fb09b96e
:10086400a9f10c09d9f804305b88b9f80890a3eb16
:1008740009031bb2002b14dd9bb2984433891ffa81
:1008840088f8434504d8c6454ff0010438bfc6462e
:10089400013189b28de7a9f10c09d944d9f80430a2
:1008a400e2e70023e9e7a5f808e096e74fea191321
:1008b4000693002301461c468c4500f3ea80a042bf
:1008c40040f0fa80b8f1010f40f0008107fb0cbe44
:1008d4005ef8082c51883ef8042c00fb077e891a28
:1008e40009b2de44def80420bef808e05288a2eb28
:1008f4000e0212b222eae272914200f3eb8021ea84
:10090400e1714ff0000e0cf1ff3c644540f0e480cf
:10091400b8f1010f40f0e48007fb00bcdcf80420d0
:10092400bcf808c05288a2eb0c0212b222eae27ca4
:10093400029a102a36bf002204224ff00c0a0792b2
:1009440028bf4ff0080abef1000f00f0cc80029ad5
:1009540002fa0af489b21ffa8cf29142a4b29bb251
:10096400c0f0c5809b1a98b2821a1144524689b2cb
:1009740002f082f8012303fa0afaa0eb0a0080b21b
:10098400029b2044022b80b20cd9b8f1010f15bf91
:10099400059b079a03f1ff3105991cbf079a89b299
:1009a40002f06af8b0f5805f28bf4ff4805080b23f
:1009b400b8f1000f13d119f00f0110d001eb810130
:1009c4000c22c900814298bf401a4fea4101c1f587
:1009d40080518cbf404680b289b202f04df8069b2c
:1009e400069ac3f10c031841012393409ab2013bc8
:1009f4009842089b88bf02f1ff3080b2002b00f0c0
:100a04008680a988b8f1010fa0eb0104a4b223b237
:100a14000ad1002b4fea520e72dacef1000e9e4537
:100a240040f3958013191bb2012b0cd05c1c0ad027
:100a3400002b69da5b42c3f34e035b421bb21944d9
:100a4400013a89b21140b5f806c0a880a1eb0c00a8
:100a5400327896f806e080b2012a747903b20cd198
:100a64002409002b02fa04f292b24fea520450da3b
:100a740064429c4203dd13181bb2002b5eda5b4216
:100a8400aa781bb2934248dc002262f07e02d2b202
:100a9400b2e607fb01bedef80420bef808e0528887
:100aa400a2eb0e0212b2002a03dd9a42c4bf13461f
:100ab4000c46013189b2ffe607fb04be5ef8082c40
:100ac40051883ef8042c891a09b218e74ff0000e39
:100ad400714618e7c64616e704fb077cdc441de7ad
:100ae4004ff0000c24e7241a04fa0af432e7521aed
:100af400591a90b25246014489b201f0bdff3fe752
:100b0400734591dda31a8ee7c3f34e0397e70146bd
:100b140099e7a34212dd831aaee74ff0000385f88c
:100b240001e0ab706145afd0e9800222ade702235a
:100b34000022019360e60b23019325e66a78934231
:100b4400a2dd4ff0000385f802e06b70eae75c1c5d
:060b54007ff470af77e7ab
:020000040000fa
:020b5a007047e2
:020000040000fa
:100b5c00a74b2de9f04f87b05b7a002b00f0de81bc
:100b6c00a44b4ff0000bcdf800b01b6801931b6831
:100b7c0002931b880393a04b1b680493039b1ffadf
:100b8c008bf0984206d39a4b02225a72009807b007
:100b9c00bde8f08f049b0c2633f81b10062303fbd7
:100bac000bf4019b5a689d6806fb0b262f5d05eb29
:100bbc00040ac7f3820796f80b80042f00f2ad816c
:100bcc00dfe817f0050020007e014801f300b27a3f
:100bdc0002f00f0290450cd9a8eb0200b8f1040ffb
:100bec00c0b20dd9a8f10308804502dcc2f104079c
:100bfc00ffb241fa07f8aaf802800bf1010bbde72e
:100c0c000746f6e7b8f1040f029b28bf4ff0040823
:100c1c0041fa08f8b8f5007fbaf804101ffa88f208
:100c2c00aaf80220b5bfc2f5ff726ff4ff7e013245
:100c3c00724493f802e0a7bf384692b292b20020f9
:100c4c00bef1400f4fea520292b21bd1e0b1f9b1a2
:100c5c00092a21d9c1f30134c1f30320c1f30315cf
:100c6c0001f00f06002f43d0cf2a01d9002c70d1f0
:100c7c00152a78d9002871d1002c7dd0013c0a208e
:100c8c00e4b272e00028e2d043f6ff70814208d152
:100c9c0081220e232a5500932a5d570603d5012283
:100cac000ce00027d4e7100609d4029bda7802f096
:100cbc000302032a06d13f22327211222a55aaf8c6
:100ccc0004109ae7022a05d1727a22f00f0272728e
:100cdc000922f3e7012ae2d1727a02f00f0242f004
:100cec00700272720d22e9e70134cf3ae4b292b28b
:100cfc00cf2a01d9032cf7d1152a0dd90f2806d1eb
:100d0c00032c1bbf013405200f20e4b206e0013098
:100d1c00153ac0b292b2efe70f28f1d0022a12d9dd
:100d2c000f2d0bd10f2800f0fc800130032c4ff05d
:100d3c000505c0b20bd0022adad826e0691c023aab
:100d4c00cdb292b2eae70f2decd0032c1dd10324c7
:100d5c00f1e7013ccf3ae4b292b285e70138153a9b
:100d6c00c0b292b284e7002886d0022a0bd92db9e2
:100d7c0098b90646054608e02046f6e7691e023a91
:100d8c00cdb292b2f1e7002df2d0210389b241ea43
:100d9c000021314341ea051191e70138022a4ff055
:100dac000a05c0b23ff660afefe7b8f1040f96f852
:100dbc00089028bf4ff00408b9f13f0f41fa08f82a
:100dcc001ffa88f71ad1aaf802701f2232722a5d14
:100ddc00012a7ff412afb8f5007fb5bfc7f5ff77d6
:100dec006ff4ff730137ff18bfb20a2f5ce000bf2e
:100dfc00d8010020080000200c000020002229fa55
:100e0c0002f1c9075cbf9246062202f1010248bffb
:100e1c004ff0000ad2b2052af1d9394601f006fb8f
:100e2c0030b1012202fa0af249ea020986f8089066
:100e3c000122baf1000f0bd00af1ff3a5ffa8afadd
:100e4c0002fa0afa327a22ea0a0a86f808a0bee7ff
:100e5c002a55bce796f8099041fa08f81ffa88f869
:100e6c004fea1917072f29d0414601f0dffa00bbd2
:100e7c00013701222a5509f00f0949ea0717777241
:100e8c00aaf802802a5d012a7ff4b7aeb8f5007f7c
:100e9c0035bfc8f5ff786ff4ff7208f10108904474
:100eac001ffa88f8b8f10a0f7ff6a7ae45222a552b
:100ebc00a3e6002fddd0013fffb2dce70627dae71f
:100ecc00b8f1040f727a28bf4ff0040812f00f0922
:100edc0041fa08f81ffa88f71cd03946059201f040
:100eec00a5fa059a70b909f1ff395ffa89f9012160
:100efc00295522f00f0249ea020986f80990aaf84e
:100f0c00027064e7b9f1070ff1d009f101095ffa3a
:100f1c0089f9eee74ff00109ebe7fee703230093b5
:100f2c0034e6032c01d0054605e7022a8bbf0546a3
:080f3c0005460646064628e7bb
:020000040000fa
:100f4400bc0100201c000000000000003002002052
:100f54000c000000000000008c01002030000000a4
:100f6400000000003c03002010000000010000000d
:100f740080020020a0030020f401002028030020a8
:100f840028030020140000000100000000000200fb
:100f9400048a0800140001000600048a08001400f2
:100fa400a003002008000000010000001000002041
:100fb4000200000080020020010000000000000088
:100fc400f401002014000000000000004c03002085
:100fd40010000000010000004802002088030020e7
:100fe4001000002008030020080300201e00000059
:100ff4000100000014010014010014010114010196
:101004001401011401011401021401021401021457
:101014000102000010000020780000000000000021
:10102400480200200800000000000000880300209f
:101034000a000000010000000a0004000500140575
:1010440014010000a80300200800000001000000b3
:101054005c0300206c0300205c03002020000000df
:101064000100000000000000d8000020140100204e
:101074007c0200200a000300b4030020b80300200f
:10108400011906007c02002003000000000000009b
:10109400b80300200300000001000000000102006a
:1010a400d80000203c000000000000007c03002069
:1010b4000c00000001000000b0030020900200209a
:1010c40014010020900200207800000001000000bc
:1010d400000000800000000205010004000000017f
:1010e40000000002050100040000004010000000a0
:1010f40005010004010000001000000005010004c7
:101104000000008010000000050100040000000140
:101114001000000005010004000000402000000051
:101124000501000401000000200000000501000486
:101134000000008020000000050100040000000100
:101144002000000000010004140100203c00000005
:1011540000000000b00300200600000001000000b1
:101164000a004030000700000802002014000000bc
:10117400000000002d02002001000000000000001b
:101184004502002001000000000000006d02002064
:1011940001000000000000007f02002001000000a8
:1011a4000000000081020020030000000000000095
:1011b40050020020100000000000000094030020f2
:1011c4000a000000010000000235010a1f000007a8
:1011d400000000003c0200200900000000000000a4
:1011e400500100203c0000000000000084020020a8
:1011f400030000000000000066020020020000005e
:10120400000000002e020020020000000000000088
:101214008702002003000000000000008f0200206d
:101224000100000001000000010000008a0200200b
:101234000200000000000000700200200400000012
:101244000000000046020020020000000000000030
:101254006002002006000000000000001c020020c4
:1012640011000000000000006802002005000000da
:10127400000000008c0200200300000000000000b9
:10128400260300200100000001000000010000000e
:10129400d80100201c000000000000000000002015
:1012a40010000000000000006e0200200200000098
:1012b4000000000074020020040000000000000090
:1012c4008800002050000000000000007802002088
:1012d4000400000000000000000000000000000006
:020000040000fa
:1012e40080b5002001f076fea84f0125a84ca94e38
:1012f40002e14ff0000a87f800a0504601f078ffa1
:101304008146284601f074ff8046504601f07aff7a
:1013140019f0800f4ff4804214bfc4f89420c4f82d
:10132400982018f0800f4ff4004214bfc4f89420a2
:10133400c4f898201022c4f898202022c4f89820d9
:101344004ff48072c4f898204ff40072c4f89820c7
:101354004ff08052c4f898204ff00062c4f89820ef
:101364004ff00052c4f898204ff08062c4f89820df
:10137400002800f0c880002001f04effc0f34210a6
:10138400072800f29780dfe800f00409111d2d41c1
:1013940059757f4b1022c3f89420b4e07c4b102283
:1013a400c3f894202022c3f89420ace0784b102298
:1013b400c3f894202022c3f894204ff48072c3f819
:1013c4009420a0e0724b1022c3f894202022c3f88a
:1013d40094204ff48072c3f894204ff40072c3f841
:1013e400942090e06a4b1022c3f894202022c3f882
:1013f40094204ff48072c3f894204ff40072c3f821
:1014040094204ff08052c3f894207ce0604b10226b
:10141400c3f894202022c3f894204ff48072c3f8b8
:1014240094204ff40072c3f894204ff08052c3f814
:1014340094204ff00062c3f8942064e0544b1022cf
:10144400c3f894202022c3f894204ff48072c3f888
:1014540094204ff40072c3f894204ff08052c3f8e4
:1014640094204ff00062c3f894204ff00052c3f868
:10147400942048e0464b1022c3f894202022c3f85d
:1014840094204ff48072c3f894204ff40072c3f890
:1014940094204ff08052c3f894204ff00062c3f8b8
:1014a40094204ff00052c3f894204ff08062c3f8a8
:1014b400942028e0364b1022c3f898202022c3f849
:1014c4009820d200c3f898205200c3f89820d20480
:1014d400c3f898205208c3f898209200c3f89820c3
:1014e400d208c3f898200ee0c4f898510423c4f835
:1014f40098304023c4f8183100f0f2fe3b78dbb298
:10150400012b3ff4f6ae3378032b9abf0133dbb2e1
:1015140000233370284601f075fe1f4b18701b78aa
:10152400002be1d0284601f077fec0b21b4b1870a7
:101534001a7892081a701b78327803eb430318491f
:10154400cb5c93428cbfc4f89451c4f89851134bac
:101554001b7803eb430312490b445b7893424ff02f
:1015640004038cbfc4f89430c4f898300b4b1b7838
:1015740003eb43030a490b449b7893424ff0400327
:101584008cbfc4f81431c4f81831b5e74502002003
:10159400008000418c0200208e0200208d02002079
:0415a40068210000ba
:020000040000fa
:1015a8002de9f7430025714c294601f06dfe704f77
:1015b800a946a846238865f34103238001f064fe09
:1015c8000c2501f061fe3b685b6845432b445b6872
:1015d800a36201f059fe3e6873685a195b59636249
:1015e80006235843b3681c181e5ca488b60744bf7a
:1015f80005261e541b5c5f4e13f01c0f11bf44f4ec
:101608007c14907a5c4b03eb1013107a01bf1b7aa1
:1016180063f313441b0963f3155401f035fe534b70
:101628003a289bbf0430da7ada7a60f3050288bf79
:1016380042f03f02da7201f027fe4c4bdc6101f008
:1016480023fe3b6872685b682b44db7a12b1042b7b
:1016580028bf0423454c63f30308022363f3c4093a
:10166800042363f30a2901f00ffea4f8069001f0a1
:101678000bfe6ff3061884f80a804ff000083b68e9
:101688005b682b44587a000901f0fefda36960f3fa
:101698001653a3613b685b681d446b7a63f30a21a8
:1016a80041f040016ff3c71141f4004141f00401da
:1016b80001f0eafd072389b2218084f82e3001f079
:1016c800e3fd238843f00203238086f8088001f0b5
:1016d800dbfd7368002b38d001f0d6fde07a00f00e
:1016e8003f0001f0d1fda169c1f3032101f0ccfd58
:1016f800278801f0c9fd2388c7f3022768f341034f
:10170800238001f0c1fda57801f0befd45f012056a
:10171800edb2a57001f0b8fd184ba57a1a68edb2c4
:10172800137843f00803137001f0aefda37a3a462c
:1017380068f30303a372124b00957568a84701f07c
:10174800a3fd238843f00203238001f09dfd074a8f
:10175800237d43f00203237592f82f30db0702d470
:10176800337a012bf8d103b0bde8f083001c0043a5
:1017780008000020d8010020d02e00000000002022
:041788000a1c0043f4
:020000040000fa
:10178c002de9f04f89b0002800f0e380476802682b
:10179c003c7b5378b9784fea430b002c34d0b7f824
:1017ac0000c000244fea4108de4625464ff00609ea
:1017bc00a6b2b44549d87c7ba5426ed9d468e25c0c
:1017cc000132e254046842686578e468655d947b94
:1017dc00a54219d195681ffa81fe1ffa83fcea5cb9
:1017ec00002a4ad0013ad2b200240126a7b2be4543
:1017fc0045d8002ef4d0ea54002217464468561cf3
:10180c00a57894b2a54242d84fea510ed0f8049074
:10181c0000260ef1010eb4468ab20692b9f80040c9
:10182c001ffa8cf2944242d80133d9f80420dbb26f
:10183c00994298bf0023d9f80810c95c117002684e
:10184c000020537009b0bde8f08f966809fb046660
:10185c00b6f802a0566836f80e60b24509d9aaeb64
:10186c00060a1ffa8afa554538bf55460134c64454
:10187c009ee7fbd2a6eb0a0af3e70f22b4e7bc45be
:10188c0003d02f5d974208bf00260134aee70468f1
:10189c0092b2e468a7543246b0e7b5eb540fb3d21a
:1018ac00d468e25c002aafd0013ae254ace71ffaec
:1018bc008cf2062504686a43a568af180297aa5ce7
:1018cc00c2f38202002a3ed16768029c07eb4607ee
:1018dc000392648827f80b40914230d954000025bc
:1018ec000794a8463c1905940124019410e09245f4
:1018fc000cd037f818400494059cb4f800a0049c54
:10190c00544518d1019c0134e4b2019408f101084a
:10191c005ffa88fa5145ead8019ca64504d9ae4530
:10192c0006d92c44744503db079aba5a03920a462b
:10193c000132d2b2d0e73cbf0135edb2e6e7029af4
:10194c00bdf80c405480069a0cf1010c1644b6b24a
:06195c0064e70b2076e7b2
:020000040000fa
:02196200fee79e
:020000040000fa
:1019640010b5574b1b79022b13d0032b49d0002bf6
:101974006ed101f075fb05286dd901f001fb5528e6
:1019840069d14f4c0421204601f0c4fb022323718a
:1019940061e04b4b1b78022b1ad0012b5bd101f079
:1019a4005ffb012857d901f0ebfa044601f0e8fa8d
:1019b400002c50d1aa284ed142490888404a547874
:1019c4000123a34003439bb20b800323137142e022
:1019d4003b4b5c883b2c04d92146587800f088f8ae
:1019e40039e001f03dfb844235d236490888344a57
:1019f40054780123a34003439bb20b800323137148
:101a040029e0314b1b7833bb2e4b1b88c3f30b03ec
:101a14000bb32b4b1b78012b12d0022b1bd1284c60
:101a24006188607800f064f80023237125490b88ed
:101a34009bb260780122824023ea02030b800ae011
:101a44001f4c0021607800f0bbff0023237102e0eb
:101a54001b4b00221a711c4b1b7823b9194b1b8892
:101a640013f4004f00d110bd184c2378184ad15cf0
:101a7400184a11701178184a32f81320032001f023
:101a8400bff92278154b53f8223000209847237869
:101a9400134ad15c134a1180134a32f813201349b4
:101aa40051f82310012001f0d3f823780133dbb27d
:101ab400032b01d02370d6e7044b00221a70d2e71f
:101ac400600200202e0200208a02002081020020f1
:101ad400203300008b0200200c330000e0320000b1
:101ae400243300006602002014330000ec320000ae
:020000040000fa
:101af4002de9f843044601f0b3fa0546042c00f23c
:101b04008980dfe804f0933505870300484f64e0db
:101b1400dff81c91dff83081032d40f2878099f8bb
:101b2400004004eb440707eb080601f029fa08f823
:101b3400070001f025fa707001f022fab070013448
:101b4400e4b289f80040033dadb20a2ce4d100238d
:101b5400374a1370374a137137490b889bb2507850
:101b64000122824023ea02030b8001f009fa5de0be
:101b74002f4f0ae0387801f027f93b780133dbb2c4
:101b84003b70083dadb20a2b0bd0082d4ed92b4c1f
:101b940004f1080601f0f4f904f8010fb442f9d194
:101ba400e8e70023224a1370224a137122490b8862
:101bb4009bb250780122824023ea02030b8001f099
:101bc400dff933e03c78204601f0c4f90134e4b293
:101bd4003c70083dadb2022c0bd0082d26d9184c10
:101be40004f1080601f0ccf904f8010fb442f9d16c
:101bf400e8e700230e4a13700e4a13710e490b884e
:101c04009bb250780122824023ea02030b8001f048
:101c1400b7f90be0204601f013fa064b5988094b3b
:101c240053f8200001f076fa01f0aaf9bde8f88330
:101c340082020020600200202e0200204f020020b9
:0c1c440057020020a0310000080300201f
:020000040000fa
:101c5000494b1b78dbb2012b03d0484b00221a7092
:101c6000704710b5464b1b78dbb2464a12889a4241
:101c700028d8454b1b78dbb2022b30d0424b1b7867
:101c8000dbb2012b2ad1414b1b78dbb2404a1288d0
:101c900093425ad23f4b187801f068fa3b4c2278b5
:101ca0003d4b53f8203010469847354b01221a70af
:101cb00023781344dbb22370384b1b68187801f08b
:101cc000b7fa0be02e4c2378dbb2344a1268d05cb2
:101cd00001f0aefa23780133dbb2237010bd2b4b39
:101ce0001b78dbb22a4a1288934208d3274b1b7811
:101cf000dbb29a4216d0214b00221a70eee7234c39
:101d00002178274b587800f05dfe1d4b01221a7098
:101d100023781344dbb22370204b1b68187801f042
:101d200087fadbe7194a13780133dbb213701d49d8
:101d30000b889bb21a4a50780122824023ea0203a0
:101d40000b80aa2001f074fac8e7104b1b78dbb2b5
:101d50009a4203d0094b00221a70bfe70b4a13784e
:101d60000133dbb213700f4a1388c3f30e031380e1
:101d7000aa2001f05dfab1e78f0200208a0200205c
:101d800087020020460200208902002088020020ed
:101d9000660200208b020020e0320000700200206a
:081da000600200202e02002069
:020000040000fa
:101da8002de9f04101224249424c4348227206681b
:101db800b1f8403020889bb226f81030072081f80f
:101dc8002e0008886ff3410008803c482788016886
:101dd8004d680c2101fb0751c97a04291dd9656892
:101de800ddb1257d04391544c9b2edb22575a56963
:101df8001d44a56194f814e002fa01f5ae450ed130
:101e0800a56925fa01f126f817102d490978012945
:101e180007d0022924d0bde8f08126f81730002227
:101e2800f3e70168238848680c2101fb0301c97a9c
:101e3800042905d9616819b122b10022a26122756d
:101e48000133238000f084ff30b92088fff7a8fb16
:101e580004236372bde8f081e368bde8f0411847e8
:101e680006680c252188726805fb0125aa7a02f00c
:101e78000f00ea7a0625042a28bf0422904238bfb8
:101e8800121ab0682cbf0022d2b205fb01010d4d19
:101e980013412d6898b24a88ad79561bb04202ddcd
:101ea8002a44904202db4b80236998470223d0e7fb
:101eb800001c0043d80100200c000020080000206e
:081ec8002603002004000020a5
:020000040000fa
:101ed000f8b5002866d003680c261d880023194633
:101ee0009ab295424ed800295ed0304c01f0d0f91c
:101ef0002f48637a002b4fd101f0caf9038843f0d1
:101f00000103038001f0c4f9012301626372294fc8
:101f10000022294c1546012621fa02f3db072cd5b5
:101f2000d05d00f03f0c10f0010f4fea90134fea24
:101f30005c0e4feac31304eb030023447044634474
:101f400090f830e014bf66f3071e66f3030e80f8c6
:101f500030e083f8405093f8400040f0010083f8ef
:101f6000400093f8400065f3820083f8400093f846
:101f7000400065f3410083f840000132202acbd1b4
:101f80000020f8bd06fb03f244680133a718a258ed
:101f90007c6822431143a3e701f07af9036a0b43fb
:101fa0000362b4e70b20f8bd0220f8bdd801002081
:0c1fb000001c0043de2e000000800041f9
:020000040000fa
:101fbc00314b42f206629a611a46136913f0020f12
:101fcc00fbd02e4b42f21e229a821a46d36813f093
:101fdc00010ffbd0294b01221a7403f50063284a28
:101fec00da621a46536813f0200ffbd1224b4222bf
:101ffc001a77a3f5006301225a711a46d37813f0ad
:10200c00010ffbd01f4b204a1a621a46536813f07b
:10201c00040ffbd11b4b1d4a5a621a46536813f02e
:10202c00080ffbd1174b194a1a631a46536813f061
:10203c00400ffbd1134b4122c3f8dc201a4600bfe2
:10204c00d2f8dc3013f0400ffad00e4b4122c3f81b
:10205c0020211a46d2f8203113f0400ffad00c4b45
:10206c006ff07f421a6140f2ff725a61094a9a611d
:10207c0080221a62704700bf00100040001400401c
:10208c0004010100001c00400601010006010600cd
:08209c0000080040568201001b
:020000040000fa
:1020a4002e4b012183f8431083f8461083f8471020
:1020b400102283f83120112083f83300284ac3f812
:1020c4008020c3f8902083f8c01083f8c110002248
:1020d40083f8c22083f8c42083f8c52083f8c6108f
:1020e40083f8c71083f8c82083f8c92083f8ce206a
:1020f40083f8cf204ff0030c83f8d8c083f8d910ad
:1021040083f8da2083f8db2083f8dc2083f8dd20f1
:1021140083f8b00083f8b12083f8b22083f8b300c9
:1021240083f8b42083f8b720332083f8bc0083f805
:10213400bd2083f8be204020c3f80001c3f810017d
:1021440083f8462183f83321c3f88011c3f8901132
:1021540083f8c02183f8b021704700bf008000419c
:0421640034c3003d43
:020000040000fa
:1021680014000014000013010012020011030010f3
:1021780004000f05000e06000d07000c08000b09ef
:10218800000a0a00090b00080c00070d00060e00e3
:10219800050f0004100003110002120001130000d3
:1021a80014000014000013010012020011030010b3
:1021b80004000f05000e06000d07000c08000b09af
:1021c800000a0a00090b00080c00070d00060e00a3
:1021d800050f000410000311000212000113000093
:1021e800140000140100130200120300110400106f
:1021f80005000f06000e07000d08000c09000b0a69
:10220800000a0b00090c00080d00070e00060f005d
:10221800051000041100031200021300011300014d
:020000040000fa
:1022280038b50346002947d0002845d0264d6a7a9c
:10223800002a43d0042a43d000684279013a062a8a
:1022480040d8224ce960236000f0a0f823684ff4de
:1022580000011f4a1b68c2f88c115b795b01dbb275
:1022680082f87733d16001f00ff81a4991f82c30d1
:1022780043f0040381f82c3001f006f8072381f8b5
:102288002e3001f001f8012291f82d3043f00103be
:1022980081f82d30104b1a7000232b8000f058fd68
:1022a800044630b9288804236b72fff779f9204671
:1022b80038bd0220687238bd0b2038bd032038bdf8
:1022c800012038bd022038bdd801002008000020b8
:0c22d80000e100e0001c00432603002091
:020000040000fa
:1022e40008b5224b1b78dbb2012b07d0204b1b789f
:1022f400dbb2012b0cd0fff733fb08bd1d491e4890
:10230400fff790ff0028f1d1184b00221a70ede777
:10231400174b00221a70fef71ffcb8b91748fff7d5
:1023240033fa58b91648fdf7abff58b91548fef70c
:1023340007fa70b1144b04221a700ae0124b0222fd
:102344001a70efe7104b03221a70efe70e4b0122cd
:102354001a7000f017ff0a4b1b6893f90030002b2a
:10236400b4bf024b094b01221a70c4e77f0200205c
:102374006d020020d53200007c030020a803002059
:102384004c0300203c0300202d02002045020020c5
:020000040000fa
:1023940038b50424244b00210a4661f305111d6954
:1023a40064f30e351d611d6964f30a251d615d69c1
:1023b40064f30e355d615d6964f30a255d618378bc
:1023c400402b17d1082363f30301182363f30c2272
:1023d40042f01f0000f05aff144b82b2144882806e
:1023e4001b681b681b790f2b0cd96ff30b2141f46d
:1023f40080510be0802b15d10a2363f3030141f0d4
:102404004001e2e763f30b216ff30c3100f03eff70
:102414000322037a62f30303037200f037ff81613e
:10242400002038bd022038bd0020004208000020f2
:04243400001c004345
:020000040000fa
:10243800224b30b51a680623946803fb0040438892
:102448008b4239d0156834bfc91a591aab7889b28a
:10245800402b08bf490884292cd805292cd9828803
:10246800c2f3013302f00f0403eb4300c3ebc003d4
:10247800c2f30320c2f3031200eb400003ebc303d3
:10248800c0ebc000184400eb420080b2052c0cd809
:10249800eb780b4ac3f3011332f81330594389b26e
:1024a80088422cbf0020012030bd0130053c80b29d
:1024b800e4b2ebe7012030bd002030bd0800002069
:0424c800d02e000012
:020000040000fa
:1024cc0010b41f4ad36823f4e0631b041b0c43f0c5
:1024dc00bf6343f40033d360bff35f8f62b6194b15
:1024ec00e02183f80b134ff40060186083f8361367
:1024fc004ff48000586083f837134ff40000586095
:10250c0083f838134ff080745c6083f839134ff004
:10251c0000745c6083f87713d860536a43f48023ab
:10252c005362536943f010035361536a43f400330d
:10253c005362536a43f4803353625df8044b704723
:08254c0000ed00e000e100e0f9
:020000040000fa
:1025540008b5194b9847194b9847eff3108172b699
:10256400174ad2f8883043f47003c2f88830bff3b6
:102574004f8fbff36f8f01b962b6124a936823f08d
:1025840001039360d36813f0010ffbd10d4b242298
:102594005a6001229a6000f04ffc0b4b23f07f033a
:1025a400074a9360094b9847094b9847094b98474a
:1025b400fef796fefee700bf7f3200007f32000088
:1025c40000ed00e00060004100000000212a00004e
:0825d4007f3200007f3200009d
:020000040000fa
:1025dc0008b51a4b02221a80194b1a4a00eb800cd0
:1025ec0002eb4c0112f81cc083f800c0b1f802c019
:1025fc00a3f801c091f804c083f803c091f805c09a
:10260c0083f804c08979597100eb800102eb410217
:10261c001289da8030b10c4b094a1a600b4b082234
:10262c001a8008bd10220a4b5978042000f0e4fbf4
:10263c0008220349022000f007fbf2e766020020a3
:10264c0058020020280300207002002046020020bf
:04265c0060020020f8
:020000040000fa
:102660001b4b1b7d002b31d010b5194a9368516864
:10267000184a127e12f0010f15d0994213d915494c
:1026800013484a6802f00702012a026814bfd25cac
:1026900032f813208a62013344680a7e12f0010f77
:1026a00001d09c42edd80a4a936052689a420cd8f5
:1026b000074b00221a755a60064a01211175db6822
:1026c0001bb1034b1869db68984710bd704700bf0a
:0826d0008c01002000200141f3
:020000040000fa
:1026d800c268f0b501eb4106931985689f780c2311
:1026e80003fb01535c681b896488e41a935de41a50
:1026f800436828460025a4b21e88abb29e4201d882
:102708000020f0bd994219d09378bb4216d10378c6
:102718007b33dbb2012b15d94368b0f808e05b883e
:102728009e450bd2a3eb0e0392f800e09bb27345d3
:1027380004d9a3eb0e039bb29c4203d301350332a9
:082748000c30dae70120f0bdbe
:020000040000fa
:1027500000282ed010b40446184b1b7d5bbb174bd2
:102760001860596001221a755868154b1b7e13f0ca
:10277000010f13d0a8b1002311494a6802f00702e3
:10278000012a14bfe25c34f813208a6201330a7e06
:1027900012f0010f04d09842efd102e0002000e0d7
:1027a0001846064b98600120054b98755df8044b60
:1027b0007047002070470020f8e700bf8c01002020
:0427c00000200141b3
:020000040000fa
:1027c40008b5164b0a221a80154a164900eb400335
:1027d40001eb830393f808c082f804c093f809c09e
:1027e40082f805c09b7a937100eb400301eb8301ef
:1027f400cb7ad37130b10c4b094a1a600b4b0822c7
:102804001a8008bd50220a4b5978042000f0f8fac7
:1028140008220349022000f01bfaf2e766020020b6
:102824005002002090020020700200204602002086
:04283400600200201e
:020000040000fa
:1028380008b5174b93f82c30cbb1154bda691b6ae6
:10284800934214d2124b986a124a916a1b6a5268d0
:1028580002f00702012a0e4a926914bfd15422f8e5
:10286800131001330a4a1362d2699a4200d008bd94
:10287800074b002283f82c20da61064a842111755f
:102888005b6a002bf3d0024b5b6a9847efe700bf07
:082898008c0100200020014129
:020000040000fa
:1028a00070b500f0adfb1348fff712fb124800f0c3
:1028b000c9fc00240f4ea5b22946304600f0e2fbc9
:1028c0002946304600f030f901340a2cf3d10b4d83
:1028d00000240b4e2a46e1b2304600f039fc0134a8
:1028e00006350a2cf6d1074800f06cf900f060fbc1
:1028f00070bd00bf7c0300200802002014010020ee
:082900004c0300203c03002001
:020000040000fa
:10290800164b01221a801a46136b13f0010ffbd1e4
:102918004ff40003d3f880301a0902f07002d9008e
:1029280001f4e0610a43c3f382031a430b4ba3f893
:1029380048204ff400721a800322da7283221a7236
:102948004ff4c0529a800222da80072283f82e20a0
:102958001a46136b002bfcd1704700bf001c0043c4
:020000040000fa
:1029680008b5154b9b7dd3b1134a137edbb2927d1c
:1029780012f0800f14d1104a137edbb2927d12f050
:10298800010f02d013f0010f10d10b4a137edbb2f6
:10299800927d12f0040f02d013f0040f09d108bd84
:1029a80013f0800fe7d000f0f1f9e4e7fff754fee9
:0c29b800ebe7fff73dfff2e700200141d4
:020000040000fa
:1029c40070b503460846012b1ad0042b1bd00f4abe
:1029d400012111800e4a5678184600f031fb044656
:1029e4000c4b33f810502a463146042000f008fa04
:1029f4002a46094b53f82410022000f029f901e07b
:102a0400fff7defe70bdfff7e7fdfbe7660200207f
:0c2a140060020020f8320000a031000039
:020000040000fa
:102a20000e4a38b5002313600d4a0e4c13600e4a4f
:102a30000e4d13600e4a13600e4a13600e4a536225
:102a400013610123936000f06afc00f068fcac4263
:102a500000d338bd54f8043b9847f8e778020020cb
:102a6000940000207002000090000020740200001a
:0c2a7000880000208c000020980000204e
:020000040000fa
:102a7c0059b10132d2b2030400d452b90b040dd5b2
:102a8c00002322b113f4004f0dd04ff6ff731846fc
:102a9c007047013a4000d2b280b2ece701324900f3
:102aac00d2b289b2eae75b00884228bf401a02f131
:102abc00ff329bb24fea510128bf0133d2b224bf7f
:062acc0080b29bb2dde7c1
:020000040000fa
:022ad200fee71d
:020000040000fa
:102ad400114b124a1a604cf204529a814ff440325c
:102ae4005a601a46d369002bfcd10b4a136843f091
:102af40002031360d369002bfcd1094b00229a61b5
:102b0400da611a6283f82c205a621a605a609a6059
:102b14001a75da60da85704700200141040110401b
:042b24008c01002000
:020000040000fa
:102b280008b303681a888a421fd39b788268402baf
:102b38000dd106234ff40d7003fb0123988000206c
:102b480006235943535c43f002035354704783f000
:102b58008003012b05d8062341f2342003fb01230f
:0e2b6800ece70220ece70b20704702207047dc
:020000040000fa
:022b7600fee778
:020000040000fa
:102b780010b50f4a00eb400302eb430359880d4b95
:102b880019800d4c00eb400c04eb8c0ebef808e0ed
:102b9800a3f802e0a1eb0e01998014f82c10c909e2
:102ba800997102eb4c029288a3f8072010bd00bf70
:0c2bb800140100203c020020100000204e
:020000040000fa
:102bc40030b58468fcb1c168e9b1036800220a2504
:102bd40006311a70631c4068007905fb00400b3015
:102be4000a330a31834201d1002030bd03f80a2c94
:102bf40011f80a4c23f8072c23f8052c03f8094c88
:0a2c040023f8032cece70b2030bd91
:020000040000fa
:022c0e00fee7df
:020000040000fa
:102c10000f4b01221a801a46136913f0010ffbd1e2
:102c20000b4b4ff4c0721a8001221a621a461369c4
:102c300013f0200ffbd1064b00225a621a4613698b
:102c400013f0400ffbd1024b4ff480725a81704752
:042c5000002400401c
:020000040000fa
:102c540008b50a4b1b7803b108bd094b1870012352
:102c6400064803700748037007480370074b196050
:102c7400074b1a80087800f0d9faede78a020020a1
:102c840089020020880200208702002070020020b0
:042c940046020020d4
:020000040000fa
:102c980010b5054c237833b9044b13b10448aff38e
:102ca80000800123237010bdbc010020000000003b
:102cb8000000000008b5034b1bb103490348aff3fc
:102cc800008008bd00000000c001002000000000d6
:020000040000fa
:102cd800b8b138b50c4605460b4b93f82c300bb100
:102ce800002038bd00f0c0f8074b9d61dc61002270
:102cf8001a62012083f82c00da85044b84229a7525
:102d0800efe70020704700bf8c0100200020014140
:020000040000fa
:102d180008b50c4a1378dbb20b4908780b49c8543c
:102d280013780133dbb213701378dbb23c2b04d079
:102d380001210548fff7ccff08bd134600221a7091
:102d4800f6e700bf85020020840200205001002021
:020000040000fa
:102d58000c490d4a30b50868138801680c880621ab
:102d68005943a3420ad285686d5c0631ed0702d447
:102d780001339bb2f5e71380002030bd002301200a
:0c2d8800138030bd08000020d80100209e
:020000040000fa
:102d94000b4b5b8b13f0070300d1704710b5094c44
:102da400e38500f063f8064b84221a75002384f847
:102db4002c30636a13b1a06a636a984710bd00bfe0
:082dc400002001418c010020f8
:020000040000fa
:102dcc0010b50b4900eb400201eb8202094c94f860
:102ddc0005c082f809c094f806c082f80ac094f8bd
:102dec0004c082f808c0e379d37200f099f810bde2
:082dfc009002002050020020ab
:020000040000fa
:102e0400f8b506460d4614460a4f00233b7055207c
:102e140000f08ef9304600f08bf9284600f088f96e
:102e2400e0b200f085f9200a00f082f901233b703a
:082e3400f8bd00bf8f02002071
:020000040000fa
:102e3c0038b50a480a4d016821b9436813b900f046
:102e4c0062fa38bd0389426855f8233000f10c044e
:102e5c002046984704eb8000ede700bf440f0000cc
:042e6c0058320000d8
:020000040000fa
:102e70000a4b5b8b13f0070f0ed0084b80221a769b
:102e800007225a831b7e13f0040f05d0034b9a6a66
:102e90001a7e12f0040ffad1704700bf00200141e2
:020000040000fa
:102ea000094a0a4b00eb800103eb410c13f81110a7
:102eb00001f001011170bcf80810a2f80110bcf873
:102ec0000630a2f80330704768020020f4010020a9
:020000040000fa
:102ed00007001300350090003f1c0b050301034859
:102ee0004904060708090a0b1011121314151617c6
:0e2ef0001b1e4243444546474c4d4e4f404149
:020000040000fa
:022efe00fee7ed
:020000040000fa
:102f000008b5084b9a8992b207494a604cf2ff32e1
:102f10009a819b890b6823b10b46486889681b68b6
:0c2f2000984708bd00240040300200204b
:020000040000fa
:102f2c0010b5044601460648fff7f8fd04eb4402d1
:102f3c00044b03eb4202e1b2034800f003f910bd6d
:0c2f4c007c030020140100204c03002036
:020000040000fa
:102f5800084b00eb800203eb4202074991f804c0da
:102f680082f805c091f805c082f806c01346ca88e1
:0c2f78001a817047280300205802002036
:020000040000fa
:102f8400084a1378dbb20849c85c13780133dbb212
:102f940013701378dbb23c2b00d070471346002229
:0c2fa4001a70fae786020020500100209d
:020000040000fa
:102fb00008b50021054800f081f90021044800f01f
:102fc00083f901210348fff787fe08bd511c00006b
:082fd000192d0000840200200d
:020000040000fa
:102fd80008b500f051f9fff761f8fef7ebfffff7ce
:102fe80075fdfdf7b6fdfff78bfcfff70dfefff74c
:082ff80053fcfff767fa08bd66
:020000040000fa
:1030000008b50021064800f053f900f069f80020e7
:1030100000f0d2f8142000f0d9f800f053f808bd01
:043020000533000074
:020000040000fa
:10302400054b064a91781970926811785970517855
:1030340099709278da7070471c0200206c030020ab
:020000040000fa
:10304400034658b1012809d0022807d0032805d027
:10305400042803d0052801d0002070471846704783
:020000040000fa
:10306400054b1878054b1b78c01a83b20028bcbfe7
:103074003c3318b2c0b2704785020020860200209b
:020000040000fa
:1030840050b103681b888b4208d3062382685943d6
:1030940000200123535470470b20704702207047cf
:020000040000fa
:1030a40010b50023934206d113f0030018bf01208a
:0e30b40000eb930010bdc45ccc540133f2e776
:020000040000fa
:0230c200fee727
:020000040000fa
:1030c400054a13889bb243f002031380136913f07b
:0c30d400020ffbd1704700bf0024004039
:020000040000fa
:1030e000054a138823f002031b041b0c1380136989
:0c30f00013f0020ffbd1704700240040d9
:020000040000fa
:1030fc0008b5054a92f82e3043f0010382f82e30c1
:0c310c00fef74cfe08bd00bf001c004395
:020000040000fa
:1031180059b138b504460d46054400bffff72effe8
:0c31280004f8010ba542f9d138bd704736
:020000040000fa
:1031340008b5054b01221a7000f078f8024a13789a
:0c314400dbb2012bfbd008bd8a0200208a
:020000040000fa
:1031500010b548b142b10c23012459438368581873
:0c3160005c544260002010bd0b2010bd2c
:020000040000fa
:10316c00802806d0812806d0822814bf0020022097
:0a317c0070470020704701207047e3
:020000040000fa
:02318600fee762
:020000040000fa
:10318800044a13886fea43436fea53439bb21380a0
:08319800704700bf2e02002069
:020000040000fa
:1031a0009403002090020020080300208a030020de
:0831b000280300207803002031
:020000040000fa
:1031b800034b98611a46136913f0080ffbd1704747
:0431c800002400409f
:020000040000fa
:1031cc00034b18621a46136913f0200ffbd170479a
:0431dc00002400408b
:020000040000fa
:1031e00008b5034b01221a70142000f059f808bded
:0431f0007f0200203a
:020000040000fa
:1031f400034b9b6800eb400013f82000704700bfae
:043204004c03002057
:020000040000fa
:10320800034b9b6800eb800013f81000704700bf69
:043218003c03002053
:020000040000fa
:10321c00034b9b6800eb800003eb4003d88870479e
:04322c003c0300203f
:020000040000fa
:1032300008b5034b187001211846fff789fa08bd3d
:0432400083020020e5
:020000040000fa
:1032440018b1034b1860002070470b20704700bf73
:043254000c0000204a
:020000040000fa
:103258006d320000a53000001b3300001b33000056
:043268001b33000014
:020000040000fa
:10326c000a440023914201d10020704701f8013b30
:02327c00f8e771
:020000040000fa
:02327e00704797
:020000040000fa
:10328000024b4ff482721a80704700bf0040004129
:020000040000fa
:10329000024b1a6b002afcd1704700bf001c004390
:020000040000fa
:1032a000024a138818441080704700bf6e02002045
:020000040000fa
:0c32b000014b186099607047300200204c
:020000040000fa
:0c32bc00014bd860196170478c010020a4
:020000040000fa
:0c32c800014b5862996270478c01002095
:020000040000fa
:0c32d400014b01221a7070476d020020af
:020000040000fa
:0c32e000792b0000a12e0000253000001a
:020000040000fa
:0c32ec003c020020680200201c020020b0
:020000040000fa
:0c32f8000a0050001e0008001000030037
:020000040000fa
:0833040008b5fff76bff08bddf
:020000040000fa
:06330c005a000a00110046
:020000040000fa
:02331200704702
:020000040000fa
:0633140009000500110094
:020000040000fa
:04331a0000207047d8
:020000040000fa
:02331e007047f6
:020000040000fa
:0333200080818227
:020000040000fa
:033324000a020199
:020000040000fa
:0200000400807a
:044000003912003c35
:020000040000fa
:0200000400807a
:044004008000a82a66
:020000040000fa
:0200000400807a
:04400800ffffffffb8
:00000001FF
